{"contracts/ExchangeV2.sol":{"LibOrderDataV2":{"abi":[{"inputs":[],"name":"V2","outputs":[{"internalType":"bytes4","name":"","type":"bytes4"}],"stateMutability":"view","type":"function"}],"evm":{"bytecode":{"linkReferences":{},"object":"60c1610025600b82828239805160001a60731461001857fe5b30600052607381538281f3fe730000000000000000000000000000000000000000301460806040526004361060335760003560e01c806396cd25ef146038575b600080fd5b603e6052565b604051604991906076565b60405180910390f35b7f23d235efaf569b2b407d10f447247743508d1762a8e3a3aed85ccc0570dde35f81565b6001600160e01b03199190911681526020019056fea2646970667358221220a126201ec626fa6da09ac384642a1f31a4761316a680ddc851157418ac0fde0a64736f6c63430007060033","opcodes":"PUSH1 0xC1 PUSH2 0x25 PUSH1 0xB DUP3 DUP3 DUP3 CODECOPY DUP1 MLOAD PUSH1 0x0 BYTE PUSH1 0x73 EQ PUSH2 0x18 JUMPI INVALID JUMPDEST ADDRESS PUSH1 0x0 MSTORE PUSH1 0x73 DUP2 MSTORE8 DUP3 DUP2 RETURN INVALID PUSH20 0x0 ADDRESS EQ PUSH1 0x80 PUSH1 0x40 MSTORE PUSH1 0x4 CALLDATASIZE LT PUSH1 0x33 JUMPI PUSH1 0x0 CALLDATALOAD PUSH1 0xE0 SHR DUP1 PUSH4 0x96CD25EF EQ PUSH1 0x38 JUMPI JUMPDEST PUSH1 0x0 DUP1 REVERT JUMPDEST PUSH1 0x3E PUSH1 0x52 JUMP JUMPDEST PUSH1 0x40 MLOAD PUSH1 0x49 SWAP2 SWAP1 PUSH1 0x76 JUMP JUMPDEST PUSH1 0x40 MLOAD DUP1 SWAP2 SUB SWAP1 RETURN JUMPDEST PUSH32 0x23D235EFAF569B2B407D10F447247743508D1762A8E3A3AED85CCC0570DDE35F DUP2 JUMP JUMPDEST PUSH1 0x1 PUSH1 0x1 PUSH1 0xE0 SHL SUB NOT SWAP2 SWAP1 SWAP2 AND DUP2 MSTORE PUSH1 0x20 ADD SWAP1 JUMP INVALID LOG2 PUSH5 0x6970667358 0x22 SLT KECCAK256 LOG1 0x26 KECCAK256 0x1E 0xC6 0x26 STATICCALL PUSH14 0xA09AC384642A1F31A4761316A680 0xDD 0xC8 MLOAD ISZERO PUSH21 0x18AC0FDE0A64736F6C634300070600330000000000 "},"methodIdentifiers":{"V2()":"96cd25ef"}},"storageLayout":{"storage":[],"types":null}}}}