{"contracts/ExchangeV2.sol":{"ExchangeV2":{"abi":[{"inputs":[],"stateMutability":"nonpayable","type":"constructor"},{"anonymous":false,"inputs":[{"indexed":false,"internalType":"uint256","name":"oldValue","type":"uint256"},{"indexed":false,"internalType":"uint256","name":"newValue","type":"uint256"}],"name":"BuyerFeeAmountChanged","type":"event"},{"anonymous":false,"inputs":[{"indexed":false,"internalType":"bytes32","name":"hash","type":"bytes32"}],"name":"Cancel","type":"event"},{"anonymous":false,"inputs":[{"indexed":false,"internalType":"address","name":"maker","type":"address"},{"indexed":false,"internalType":"bytes","name":"sig","type":"bytes"},{"indexed":false,"internalType":"uint16","name":"index","type":"uint16"}],"name":"CancelOrder","type":"event"},{"anonymous":false,"inputs":[{"indexed":false,"internalType":"address","name":"oldValue","type":"address"},{"indexed":false,"internalType":"address","name":"newValue","type":"address"}],"name":"FeeReceiverChanged","type":"event"},{"anonymous":false,"inputs":[{"indexed":false,"internalType":"enum LibOrder.OrderType","name":"orderType","type":"uint8"},{"indexed":false,"internalType":"address","name":"maker","type":"address"},{"indexed":false,"internalType":"address","name":"taker","type":"address"},{"indexed":false,"internalType":"bytes","name":"sig","type":"bytes"},{"indexed":false,"internalType":"uint16","name":"index","type":"uint16"},{"indexed":false,"internalType":"uint256","name":"takeQty","type":"uint256"},{"indexed":false,"internalType":"uint256","name":"takeAssetId","type":"uint256"},{"indexed":false,"internalType":"uint256","name":"currentFilledValue","type":"uint256"},{"indexed":false,"internalType":"uint256","name":"randomValue","type":"uint256"}],"name":"FillOrder","type":"event"},{"anonymous":false,"inputs":[{"indexed":false,"internalType":"bytes32","name":"leftHash","type":"bytes32"},{"indexed":false,"internalType":"bytes32","name":"rightHash","type":"bytes32"},{"indexed":false,"internalType":"uint256","name":"newLeftFill","type":"uint256"},{"indexed":false,"internalType":"uint256","name":"newRightFill","type":"uint256"}],"name":"Match","type":"event"},{"anonymous":false,"inputs":[{"indexed":true,"internalType":"uint256","name":"assetType","type":"uint256"},{"indexed":false,"internalType":"address","name":"matcher","type":"address"}],"name":"MatcherChange","type":"event"},{"anonymous":false,"inputs":[{"indexed":true,"internalType":"address","name":"previousOwner","type":"address"},{"indexed":true,"internalType":"address","name":"newOwner","type":"address"}],"name":"OwnershipTransferred","type":"event"},{"anonymous":false,"inputs":[{"indexed":true,"internalType":"uint256","name":"assetType","type":"uint256"},{"indexed":false,"internalType":"address","name":"proxy","type":"address"}],"name":"ProxyChange","type":"event"},{"anonymous":false,"inputs":[{"indexed":false,"internalType":"uint256","name":"oldValue","type":"uint256"},{"indexed":false,"internalType":"uint256","name":"newValue","type":"uint256"}],"name":"SellerFeeAmountChanged","type":"event"},{"inputs":[{"internalType":"address","name":"_transferProxy","type":"address"},{"internalType":"address","name":"_erc20TransferProxy","type":"address"},{"internalType":"uint256","name":"newProtocolFee","type":"uint256"},{"internalType":"address","name":"newDefaultFeeReceiver","type":"address"},{"internalType":"contract IRoyaltiesProvider","name":"newRoyaltiesProvider","type":"address"}],"name":"__ExchangeV2_init","outputs":[],"stateMutability":"nonpayable","type":"function"},{"inputs":[],"name":"_owner","outputs":[{"internalType":"address","name":"","type":"address"}],"stateMutability":"view","type":"function"},{"inputs":[{"components":[{"internalType":"enum LibOrder.OrderType","name":"orderType","type":"uint8"},{"internalType":"address","name":"maker","type":"address"},{"components":[{"internalType":"uint8","name":"assetType","type":"uint8"},{"internalType":"address","name":"contractAddress","type":"address"},{"internalType":"uint256","name":"value","type":"uint256"},{"internalType":"uint256","name":"id","type":"uint256"}],"internalType":"struct LibAsset.Asset","name":"makeAsset","type":"tuple"},{"internalType":"address","name":"taker","type":"address"},{"components":[{"internalType":"uint8","name":"assetType","type":"uint8"},{"internalType":"address","name":"contractAddress","type":"address"},{"internalType":"uint256","name":"value","type":"uint256"},{"internalType":"uint256","name":"id","type":"uint256"}],"internalType":"struct LibAsset.Asset","name":"takeAsset","type":"tuple"},{"internalType":"uint256","name":"salt","type":"uint256"},{"internalType":"uint256","name":"start","type":"uint256"},{"internalType":"uint256","name":"end","type":"uint256"},{"components":[{"internalType":"address","name":"receiver","type":"address"},{"internalType":"uint256","name":"amount","type":"uint256"}],"internalType":"struct LibOrder.Fee","name":"originFee","type":"tuple"},{"components":[{"internalType":"address","name":"receiver","type":"address"},{"internalType":"uint256","name":"amount","type":"uint256"}],"internalType":"struct LibOrder.Fee","name":"royaltyFee","type":"tuple"},{"internalType":"bytes","name":"sig","type":"bytes"},{"internalType":"bytes32","name":"root","type":"bytes32"},{"internalType":"bytes32[]","name":"proof","type":"bytes32[]"},{"internalType":"uint16","name":"index","type":"uint16"}],"internalType":"struct LibOrder.Order","name":"order","type":"tuple"}],"name":"cancel","outputs":[],"stateMutability":"nonpayable","type":"function"},{"inputs":[{"components":[{"internalType":"enum LibOrder.OrderType","name":"orderType","type":"uint8"},{"internalType":"address","name":"maker","type":"address"},{"components":[{"internalType":"uint8","name":"assetType","type":"uint8"},{"internalType":"address","name":"contractAddress","type":"address"},{"internalType":"uint256","name":"value","type":"uint256"},{"internalType":"uint256","name":"id","type":"uint256"}],"internalType":"struct LibAsset.Asset","name":"makeAsset","type":"tuple"},{"internalType":"address","name":"taker","type":"address"},{"components":[{"internalType":"uint8","name":"assetType","type":"uint8"},{"internalType":"address","name":"contractAddress","type":"address"},{"internalType":"uint256","name":"value","type":"uint256"},{"internalType":"uint256","name":"id","type":"uint256"}],"internalType":"struct LibAsset.Asset","name":"takeAsset","type":"tuple"},{"internalType":"uint256","name":"salt","type":"uint256"},{"internalType":"uint256","name":"start","type":"uint256"},{"internalType":"uint256","name":"end","type":"uint256"},{"components":[{"internalType":"address","name":"receiver","type":"address"},{"internalType":"uint256","name":"amount","type":"uint256"}],"internalType":"struct LibOrder.Fee","name":"originFee","type":"tuple"},{"components":[{"internalType":"address","name":"receiver","type":"address"},{"internalType":"uint256","name":"amount","type":"uint256"}],"internalType":"struct LibOrder.Fee","name":"royaltyFee","type":"tuple"},{"internalType":"bytes","name":"sig","type":"bytes"},{"internalType":"bytes32","name":"root","type":"bytes32"},{"internalType":"bytes32[]","name":"proof","type":"bytes32[]"},{"internalType":"uint16","name":"index","type":"uint16"}],"internalType":"struct LibOrder.Order","name":"order","type":"tuple"}],"name":"cancelOrder","outputs":[],"stateMutability":"nonpayable","type":"function"},{"inputs":[{"components":[{"components":[{"internalType":"enum LibOrder.OrderType","name":"orderType","type":"uint8"},{"internalType":"address","name":"maker","type":"address"},{"components":[{"internalType":"uint8","name":"assetType","type":"uint8"},{"internalType":"address","name":"contractAddress","type":"address"},{"internalType":"uint256","name":"value","type":"uint256"},{"internalType":"uint256","name":"id","type":"uint256"}],"internalType":"struct LibAsset.Asset","name":"makeAsset","type":"tuple"},{"internalType":"address","name":"taker","type":"address"},{"components":[{"internalType":"uint8","name":"assetType","type":"uint8"},{"internalType":"address","name":"contractAddress","type":"address"},{"internalType":"uint256","name":"value","type":"uint256"},{"internalType":"uint256","name":"id","type":"uint256"}],"internalType":"struct LibAsset.Asset","name":"takeAsset","type":"tuple"},{"internalType":"uint256","name":"salt","type":"uint256"},{"internalType":"uint256","name":"start","type":"uint256"},{"internalType":"uint256","name":"end","type":"uint256"},{"components":[{"internalType":"address","name":"receiver","type":"address"},{"internalType":"uint256","name":"amount","type":"uint256"}],"internalType":"struct LibOrder.Fee","name":"originFee","type":"tuple"},{"components":[{"internalType":"address","name":"receiver","type":"address"},{"internalType":"uint256","name":"amount","type":"uint256"}],"internalType":"struct LibOrder.Fee","name":"royaltyFee","type":"tuple"},{"internalType":"bytes","name":"sig","type":"bytes"},{"internalType":"bytes32","name":"root","type":"bytes32"},{"internalType":"bytes32[]","name":"proof","type":"bytes32[]"},{"internalType":"uint16","name":"index","type":"uint16"}],"internalType":"struct LibOrder.Order","name":"bidOrder","type":"tuple"},{"components":[{"internalType":"enum LibOrder.OrderType","name":"orderType","type":"uint8"},{"internalType":"address","name":"maker","type":"address"},{"components":[{"internalType":"uint8","name":"assetType","type":"uint8"},{"internalType":"address","name":"contractAddress","type":"address"},{"internalType":"uint256","name":"value","type":"uint256"},{"internalType":"uint256","name":"id","type":"uint256"}],"internalType":"struct LibAsset.Asset","name":"makeAsset","type":"tuple"},{"internalType":"address","name":"taker","type":"address"},{"components":[{"internalType":"uint8","name":"assetType","type":"uint8"},{"internalType":"address","name":"contractAddress","type":"address"},{"internalType":"uint256","name":"value","type":"uint256"},{"internalType":"uint256","name":"id","type":"uint256"}],"internalType":"struct LibAsset.Asset","name":"takeAsset","type":"tuple"},{"internalType":"uint256","name":"salt","type":"uint256"},{"internalType":"uint256","name":"start","type":"uint256"},{"internalType":"uint256","name":"end","type":"uint256"},{"components":[{"internalType":"address","name":"receiver","type":"address"},{"internalType":"uint256","name":"amount","type":"uint256"}],"internalType":"struct LibOrder.Fee","name":"originFee","type":"tuple"},{"components":[{"internalType":"address","name":"receiver","type":"address"},{"internalType":"uint256","name":"amount","type":"uint256"}],"internalType":"struct LibOrder.Fee","name":"royaltyFee","type":"tuple"},{"internalType":"bytes","name":"sig","type":"bytes"},{"internalType":"bytes32","name":"root","type":"bytes32"},{"internalType":"bytes32[]","name":"proof","type":"bytes32[]"},{"internalType":"uint16","name":"index","type":"uint16"}],"internalType":"struct LibOrder.Order","name":"sellOrder","type":"tuple"}],"internalType":"struct LibDirectTransfer.AcceptBid","name":"direct","type":"tuple"}],"name":"directAcceptBid","outputs":[],"stateMutability":"payable","type":"function"},{"inputs":[{"internalType":"bytes32","name":"","type":"bytes32"}],"name":"fills","outputs":[{"internalType":"uint256","name":"","type":"uint256"}],"stateMutability":"view","type":"function"},{"inputs":[{"internalType":"uint8","name":"index","type":"uint8"}],"name":"getTransferProxy","outputs":[{"internalType":"address","name":"","type":"address"}],"stateMutability":"view","type":"function"},{"inputs":[{"components":[{"internalType":"enum LibOrder.OrderType","name":"orderType","type":"uint8"},{"internalType":"address","name":"maker","type":"address"},{"components":[{"internalType":"uint8","name":"assetType","type":"uint8"},{"internalType":"address","name":"contractAddress","type":"address"},{"internalType":"uint256","name":"value","type":"uint256"},{"internalType":"uint256","name":"id","type":"uint256"}],"internalType":"struct LibAsset.Asset","name":"makeAsset","type":"tuple"},{"internalType":"address","name":"taker","type":"address"},{"components":[{"internalType":"uint8","name":"assetType","type":"uint8"},{"internalType":"address","name":"contractAddress","type":"address"},{"internalType":"uint256","name":"value","type":"uint256"},{"internalType":"uint256","name":"id","type":"uint256"}],"internalType":"struct LibAsset.Asset","name":"takeAsset","type":"tuple"},{"internalType":"uint256","name":"salt","type":"uint256"},{"internalType":"uint256","name":"start","type":"uint256"},{"internalType":"uint256","name":"end","type":"uint256"},{"components":[{"internalType":"address","name":"receiver","type":"address"},{"internalType":"uint256","name":"amount","type":"uint256"}],"internalType":"struct LibOrder.Fee","name":"originFee","type":"tuple"},{"components":[{"internalType":"address","name":"receiver","type":"address"},{"internalType":"uint256","name":"amount","type":"uint256"}],"internalType":"struct LibOrder.Fee","name":"royaltyFee","type":"tuple"},{"internalType":"bytes","name":"sig","type":"bytes"},{"internalType":"bytes32","name":"root","type":"bytes32"},{"internalType":"bytes32[]","name":"proof","type":"bytes32[]"},{"internalType":"uint16","name":"index","type":"uint16"}],"internalType":"struct LibOrder.Order[]","name":"orderLefts","type":"tuple[]"},{"components":[{"internalType":"enum LibOrder.OrderType","name":"orderType","type":"uint8"},{"internalType":"address","name":"maker","type":"address"},{"components":[{"internalType":"uint8","name":"assetType","type":"uint8"},{"internalType":"address","name":"contractAddress","type":"address"},{"internalType":"uint256","name":"value","type":"uint256"},{"internalType":"uint256","name":"id","type":"uint256"}],"internalType":"struct LibAsset.Asset","name":"makeAsset","type":"tuple"},{"internalType":"address","name":"taker","type":"address"},{"components":[{"internalType":"uint8","name":"assetType","type":"uint8"},{"internalType":"address","name":"contractAddress","type":"address"},{"internalType":"uint256","name":"value","type":"uint256"},{"internalType":"uint256","name":"id","type":"uint256"}],"internalType":"struct LibAsset.Asset","name":"takeAsset","type":"tuple"},{"internalType":"uint256","name":"salt","type":"uint256"},{"internalType":"uint256","name":"start","type":"uint256"},{"internalType":"uint256","name":"end","type":"uint256"},{"components":[{"internalType":"address","name":"receiver","type":"address"},{"internalType":"uint256","name":"amount","type":"uint256"}],"internalType":"struct LibOrder.Fee","name":"originFee","type":"tuple"},{"components":[{"internalType":"address","name":"receiver","type":"address"},{"internalType":"uint256","name":"amount","type":"uint256"}],"internalType":"struct LibOrder.Fee","name":"royaltyFee","type":"tuple"},{"internalType":"bytes","name":"sig","type":"bytes"},{"internalType":"bytes32","name":"root","type":"bytes32"},{"internalType":"bytes32[]","name":"proof","type":"bytes32[]"},{"internalType":"uint16","name":"index","type":"uint16"}],"internalType":"struct LibOrder.Order[]","name":"orderRights","type":"tuple[]"}],"name":"matchOrders","outputs":[],"stateMutability":"payable","type":"function"},{"inputs":[],"name":"owner","outputs":[{"internalType":"address","name":"","type":"address"}],"stateMutability":"view","type":"function"},{"inputs":[],"name":"protocolFee","outputs":[{"internalType":"address","name":"receiver","type":"address"},{"internalType":"uint48","name":"buyerAmount","type":"uint48"},{"internalType":"uint48","name":"sellerAmount","type":"uint48"}],"stateMutability":"view","type":"function"},{"inputs":[],"name":"renounceOwnership","outputs":[],"stateMutability":"nonpayable","type":"function"},{"inputs":[],"name":"royaltiesRegistry","outputs":[{"internalType":"contract IRoyaltiesProvider","name":"","type":"address"}],"stateMutability":"view","type":"function"},{"inputs":[{"internalType":"address","name":"_receiver","type":"address"},{"internalType":"uint48","name":"_buyerAmount","type":"uint48"},{"internalType":"uint48","name":"_sellerAmount","type":"uint48"}],"name":"setAllProtocolFeeData","outputs":[],"stateMutability":"nonpayable","type":"function"},{"inputs":[{"internalType":"uint256","name":"assetType","type":"uint256"},{"internalType":"address","name":"matcher","type":"address"}],"name":"setAssetMatcher","outputs":[],"stateMutability":"nonpayable","type":"function"},{"inputs":[{"internalType":"uint48","name":"_buyerAmount","type":"uint48"}],"name":"setPrtocolFeeBuyerAmount","outputs":[],"stateMutability":"nonpayable","type":"function"},{"inputs":[{"internalType":"address","name":"_receiver","type":"address"}],"name":"setPrtocolFeeReceiver","outputs":[],"stateMutability":"nonpayable","type":"function"},{"inputs":[{"internalType":"uint48","name":"_sellerAmount","type":"uint48"}],"name":"setPrtocolFeeSellerAmount","outputs":[],"stateMutability":"nonpayable","type":"function"},{"inputs":[{"internalType":"contract IRoyaltiesProvider","name":"newRoyaltiesRegistry","type":"address"}],"name":"setRoyaltiesRegistry","outputs":[],"stateMutability":"nonpayable","type":"function"},{"inputs":[{"internalType":"uint8","name":"index","type":"uint8"},{"internalType":"address","name":"proxy","type":"address"}],"name":"setTransferProxy","outputs":[],"stateMutability":"nonpayable","type":"function"},{"inputs":[{"internalType":"address","name":"newOwner","type":"address"}],"name":"transferOwnership","outputs":[],"stateMutability":"nonpayable","type":"function"},{"inputs":[{"internalType":"bytes32","name":"root","type":"bytes32"},{"internalType":"bytes32[]","name":"proof","type":"bytes32[]"},{"components":[{"internalType":"enum LibOrder.OrderType","name":"orderType","type":"uint8"},{"internalType":"address","name":"maker","type":"address"},{"components":[{"internalType":"uint8","name":"assetType","type":"uint8"},{"internalType":"address","name":"contractAddress","type":"address"},{"internalType":"uint256","name":"value","type":"uint256"},{"internalType":"uint256","name":"id","type":"uint256"}],"internalType":"struct LibAsset.Asset","name":"makeAsset","type":"tuple"},{"internalType":"address","name":"taker","type":"address"},{"components":[{"internalType":"uint8","name":"assetType","type":"uint8"},{"internalType":"address","name":"contractAddress","type":"address"},{"internalType":"uint256","name":"value","type":"uint256"},{"internalType":"uint256","name":"id","type":"uint256"}],"internalType":"struct LibAsset.Asset","name":"takeAsset","type":"tuple"},{"internalType":"uint256","name":"salt","type":"uint256"},{"internalType":"uint256","name":"start","type":"uint256"},{"internalType":"uint256","name":"end","type":"uint256"},{"components":[{"internalType":"address","name":"receiver","type":"address"},{"internalType":"uint256","name":"amount","type":"uint256"}],"internalType":"struct LibOrder.Fee","name":"originFee","type":"tuple"},{"components":[{"internalType":"address","name":"receiver","type":"address"},{"internalType":"uint256","name":"amount","type":"uint256"}],"internalType":"struct LibOrder.Fee","name":"royaltyFee","type":"tuple"},{"internalType":"bytes","name":"sig","type":"bytes"},{"internalType":"bytes32","name":"root","type":"bytes32"},{"internalType":"bytes32[]","name":"proof","type":"bytes32[]"},{"internalType":"uint16","name":"index","type":"uint16"}],"internalType":"struct LibOrder.Order","name":"order","type":"tuple"}],"name":"validateListing","outputs":[{"internalType":"bool","name":"isValid","type":"bool"}],"stateMutability":"pure","type":"function"}],"evm":{"bytecode":{"linkReferences":{},"object":"60806040526275327560e81b60c955603160f81b60ca55600061012f553480156200002957600080fd5b50603380546001600160a01b03191633179055620000466200004c565b6200024d565b600054610100900460ff16806200006857506200006862000130565b8062000077575060005460ff16155b6200009f5760405162461bcd60e51b81526004016200009690620001ff565b60405180910390fd5b600054610100900460ff16158015620000cb576000805460ff1961ff0019909116610100171660011790555b6200011a6040518060400160405280600c81526020016b5837323145786368616e676560a01b815250604051806040016040528060018152602001603160f81b8152506200014e60201b60201c565b80156200012d576000805461ff00191690555b50565b60006200014830620001f960201b62000f361760201c565b15905090565b600054610100900460ff16806200016a57506200016a62000130565b8062000179575060005460ff16155b620001985760405162461bcd60e51b81526004016200009690620001ff565b600054610100900460ff16158015620001c4576000805460ff1961ff0019909116610100171660011790555b825160208085019190912083519184019190912060c99190915560ca558015620001f4576000805461ff00191690555b505050565b3b151590565b6020808252602e908201527f496e697469616c697a61626c653a20636f6e747261637420697320616c72656160408201526d191e481a5b9a5d1a585b1a5e995960921b606082015260800190565b61407e806200025d6000396000f3fe60806040526004361061012a5760003560e01c8063b0e21e8a116100ab578063c648a6871161006f578063c648a6871461030c578063d362d3ff1461032c578063d6ca6ab71461034c578063eae3ad6f1461036c578063f2fde38b1461038c578063faa2cc7c146103ac5761012a565b8063b0e21e8a14610273578063b2bdfa7b14610297578063b36c9b29146102ac578063b74c8e9a146102cc578063bc158c2d146102ec5761012a565b80634cfe4cd8116100f25780634cfe4cd8146101e75780636d8f069414610207578063715018a6146102295780638b42af3e1461023e5780638da5cb5b1461025e5761012a565b80631372a6251461012f57806320158c441461015157806333033608146101875780633be899221461019a5780633e2d95ff146101ba575b600080fd5b34801561013b57600080fd5b5061014f61014a36600461314a565b6103bf565b005b34801561015d57600080fd5b5061017161016c366004613276565b610475565b60405161017e91906136a6565b60405180910390f35b61014f6101953660046132f8565b610488565b3480156101a657600080fd5b5061014f6101b536600461312e565b610600565b3480156101c657600080fd5b506101da6101d536600461328e565b610662565b60405161017e919061369b565b3480156101f357600080fd5b5061014f610202366004613456565b610684565b34801561021357600080fd5b5061021c61072a565b60405161017e9190613571565b34801561023557600080fd5b5061014f61073a565b34801561024a57600080fd5b5061014f61025936600461339e565b6107c3565b34801561026a57600080fd5b5061021c6108bc565b34801561027f57600080fd5b506102886108cb565b60405161017e93929190613672565b3480156102a357600080fd5b5061021c6108f6565b3480156102b857600080fd5b5061021c6102c736600461343a565b610905565b3480156102d857600080fd5b5061014f6102e73660046131b1565b610927565b3480156102f857600080fd5b5061014f61030736600461312e565b610986565b34801561031857600080fd5b5061014f6103273660046133f1565b610a30565b34801561033857600080fd5b5061014f61034736600461339e565b610ac8565b34801561035857600080fd5b5061014f610367366004613420565b610b83565b34801561037857600080fd5b5061014f610387366004613420565b610c3a565b34801561039857600080fd5b5061014f6103a736600461312e565b610cee565b61014f6103ba3660046131f5565b610daf565b600054610100900460ff16806103d857506103d8610f3c565b806103e6575060005460ff16155b61040b5760405162461bcd60e51b815260040161040290613bbf565b60405180910390fd5b600054610100900460ff16158015610436576000805460ff1961ff0019909116610100171660011790555b61043e610f4d565b610446610fd0565b61045086866110aa565b61045b84848461114e565b801561046d576000805461ff00191690555b505050505050565b6101306020526000908152604090205481565b60006104948280613f94565b61049d90613fec565b905060006104ae6020840184613f94565b6104b790613fec565b6080830151604090810151818301519091015191925090818111156104ee5760405162461bcd60e51b815260040161040290613de4565b6104fd848561014001516111f0565b61050c838461014001516111f0565b6000828560400151604001518161051f57fe5b049050600082820290508560400151604001518111156105515760405162461bcd60e51b815260040161040290613a00565b604080870151810182905260808088015182018590526020808801516001600160a01b0390811660608b01528884015184018890529188015183018490528089015190911660009081526101319091528181206101408901519251919290916105ba91906134de565b90815260408051602092819003830190206101a08a015161ffff166000908152925290205490506105eb8688611207565b6105f6868883611341565b5050505050505050565b6106086114cb565b6001600160a01b03166106196108bc565b6001600160a01b03161461063f5760405162461bcd60e51b815260040161040290613c86565b61016480546001600160a01b0319166001600160a01b0392909216919091179055565b60008061066e836114cf565b905061067b848683611546565b95945050505050565b61068c6114cb565b6001600160a01b031661069d6108bc565b6001600160a01b0316146106c35760405162461bcd60e51b815260040161040290613c86565b60ff82166000818152609760205260409081902080546001600160a01b0319166001600160a01b038516179055517f8edda873a8ad561ecebeb71ceb3ae6bcb70c2b76a3fcb869859895c4d4fc74169061071e908490613571565b60405180910390a25050565b610164546001600160a01b031681565b6107426114cb565b6001600160a01b03166107536108bc565b6001600160a01b0316146107795760405162461bcd60e51b815260040161040290613c86565b6033546040516000916001600160a01b0316907f8be0079c531659141344cd1fd0a4f28419497f9722a3daafe3b4186f6b6457e0908390a3603380546001600160a01b0319169055565b80602001516001600160a01b03166107d96114cb565b6001600160a01b0316146107ff5760405162461bcd60e51b815260040161040290613e92565b80604001516040015161013160006108156114cb565b6001600160a01b03166001600160a01b0316815260200190815260200160002082610140015160405161084891906134de565b90815260408051602092819003830190206101a085015161ffff16600090815292529020557f86f8a270a95f47ad48690dd66eda181ea3d229312582e7d222c11e24f39947d06108966114cb565b826101400151836101a001516040516108b193929190613585565b60405180910390a150565b6033546001600160a01b031690565b610163546001600160a01b0381169065ffffffffffff600160a01b8204811691600160d01b90041683565b6033546001600160a01b031681565b60ff81166000908152609760205260409020546001600160a01b03165b919050565b61092f6114cb565b6001600160a01b03166109406108bc565b6001600160a01b0316146109665760405162461bcd60e51b815260040161040290613c86565b61096f83610986565b61097882610b83565b61098181610c3a565b505050565b61098e6114cb565b6001600160a01b031661099f6108bc565b6001600160a01b0316146109c55760405162461bcd60e51b815260040161040290613c86565b610163546040517fa4b009cc442411b602eaf94bc0579b6abdb8fd90b4ef5b9426e270038906bd0391610a05916001600160a01b039091169084906135bd565b60405180910390a161016380546001600160a01b0319166001600160a01b0392909216919091179055565b610a386114cb565b6001600160a01b0316610a496108bc565b6001600160a01b031614610a6f5760405162461bcd60e51b815260040161040290613c86565b6000828152606560205260409081902080546001600160a01b0319166001600160a01b0384161790555182907f58204093ed36d15d7f2a89fdaca20c53f1e02a2ce5686ace9247d1b96e9ec67b9061071e908490613571565b80602001516001600160a01b0316610ade6114cb565b6001600160a01b031614610b045760405162461bcd60e51b815260040161040290613e92565b60a0810151610b255760405162461bcd60e51b81526004016104029061399b565b6000610b308261155e565b60008181526101306020526040908190206000199055519091507fe8d9861dbc9c663ed3accd261bbe2fe01e0d3d9e5f51fa38523b265c7757a93a90610b779083906136a6565b60405180910390a15050565b610b8b6114cb565b6001600160a01b0316610b9c6108bc565b6001600160a01b031614610bc25760405162461bcd60e51b815260040161040290613c86565b610163546040517f70bba4f904a93ba5c1af3a1bb602bc9c058551dbe963dfe0b6cb5bc11c5fea9e91610c0791600160a01b90910465ffffffffffff16908490613f68565b60405180910390a1610163805465ffffffffffff909216600160a01b0265ffffffffffff60a01b19909216919091179055565b610c426114cb565b6001600160a01b0316610c536108bc565b6001600160a01b031614610c795760405162461bcd60e51b815260040161040290613c86565b610163546040517fa8af9093caa9beb61d20432227c66258ceef926f21879b80f3adf22a4d19f13191610cbe91600160d01b90910465ffffffffffff16908490613f68565b60405180910390a1610163805465ffffffffffff909216600160d01b026001600160d01b03909216919091179055565b610cf66114cb565b6001600160a01b0316610d076108bc565b6001600160a01b031614610d2d5760405162461bcd60e51b815260040161040290613c86565b6001600160a01b038116610d535760405162461bcd60e51b81526004016104029061391e565b6033546040516001600160a01b038084169216907f8be0079c531659141344cd1fd0a4f28419497f9722a3daafe3b4186f6b6457e090600090a3603380546001600160a01b0319166001600160a01b0392909216919091179055565b8051825114610dd05760405162461bcd60e51b815260040161040290613a59565b60005b8251811015610981576000838281518110610dea57fe5b602002602001015190506000838381518110610e0257fe5b602002602001015190506000610131600084602001516001600160a01b03166001600160a01b03168152602001908152602001600020836101400151604051610e4b91906134de565b90815260408051602092819003830190206101a086015161ffff16600090815292529020549050600183516003811115610e8157fe5b1415610ebf576000610e9e84610160015185610180015186610662565b905080610ebd5760405162461bcd60e51b815260040161040290613e69565b505b600182516003811115610ece57fe5b1415610f0c576000610eeb83610160015184610180015185610662565b905080610f0a5760405162461bcd60e51b815260040161040290613e69565b505b610f168383611207565b610f208383611597565b610f2b838383611341565b505050600101610dd3565b3b151590565b6000610f4730610f36565b15905090565b600054610100900460ff1680610f665750610f66610f3c565b80610f74575060005460ff16155b610f905760405162461bcd60e51b815260040161040290613bbf565b600054610100900460ff16158015610fbb576000805460ff1961ff0019909116610100171660011790555b8015610fcd576000805461ff00191690555b50565b600054610100900460ff1680610fe95750610fe9610f3c565b80610ff7575060005460ff16155b6110135760405162461bcd60e51b815260040161040290613bbf565b600054610100900460ff1615801561103e576000805460ff1961ff0019909116610100171660011790555b60006110486114cb565b603380546001600160a01b0319166001600160a01b038316908117909155604051919250906000907f8be0079c531659141344cd1fd0a4f28419497f9722a3daafe3b4186f6b6457e0908290a3508015610fcd576000805461ff001916905550565b60976020527fd6ca216b3b8b63bcc0099d5c8294d1780d598ac9b3a29b15c3c3e68c85f6e30c80546001600160a01b039283166001600160a01b0319918216179091557f017b8d24b2a0f404d68a0b2abb80fd2d4d2105d3355f1fc48a1949fe7fce12e5805493909216928116831790915560046000527ff6fe0582e0e323a551f456b66350a1ed549948a34fdd35be011d229e00171c1f80549091169091179055565b600054610100900460ff16806111675750611167610f3c565b80611175575060005460ff16155b6111915760405162461bcd60e51b815260040161040290613bbf565b600054610100900460ff161580156111bc576000805460ff1961ff0019909116610100171660011790555b61016480546001600160a01b0319166001600160a01b03841617905580156111ea576000805461ff00191690555b50505050565b6111f98261198a565b61120382826119ea565b5050565b6020808301516001600160a01b03166000908152610131909152604080822061014085015191519091611239916134de565b90815260200160405180910390206000846101a0015161ffff1661ffff16815260200190815260200160002054905082604001516000015160ff16600314156112fb57610131600084602001516001600160a01b03166001600160a01b031681526020019081526020016000208361014001516040516112b991906134de565b90815260408051602092819003830190206101a086015161ffff1660009081529252902054156112fb5760405162461bcd60e51b815260040161040290613cea565b82604001516000015160ff166004141561098157816080015160400151810183604001516040015110156109815760405162461bcd60e51b8152600401610402906139c9565b60008061134f858585611bdd565b9150915061135f85858484611c63565b600060028651600381111561137057fe5b1461137b578561137d565b845b90506000856080015160400151610131600084602001516001600160a01b03166001600160a01b031681526020019081526020016000208361014001516040516113c791906134de565b90815260408051602092819003830181206101a087015161ffff16600090815290845282812054878501516001600160a01b0316825261013190945291909120610140860151939092019350839261141e916134de565b90815260200160405180910390206000846101a0015161ffff1661ffff168152602001908152602001600020819055507fa49e31994a96dc315540d6ff9e29428418addfa28f6ffcc73ddad3528e40ddc1876000015188602001518860200151856101400151866101a001518b60800151604001518c6080015160600151886114a561217a565b6040516114ba9998979695949392919061380b565b60405180910390a150505050505050565b3390565b6101a081015160208083015160408085015180840151606080830151838501519351828a015160808b0151808a015194810151818901519151985160009c6115299c909b9a98999698969795969495949293929101613f03565b604051602081830303815290604052805190602001209050919050565b60008261155385846121ba565b1490505b9392505050565b6000816020015161157283604001516121f9565b61157f84608001516121f9565b8460a001516040516020016115299493929190613633565b6115a6828361014001516111f0565b6115b5818261014001516111f0565b60608201516001600160a01b0316156116145760208101516001600160a01b0316156116145781606001516001600160a01b031681602001516001600160a01b0316146116145760405162461bcd60e51b815260040161040290613e26565b60608101516001600160a01b0316156116735760208201516001600160a01b0316156116735781602001516001600160a01b031681606001516001600160a01b0316146116735760405162461bcd60e51b815260040161040290613add565b81604001516000015160ff1660031480611698575081604001516000015160ff166004145b156117be5760808181015160409081015191840151810151908301515160009060ff166002146116c857346116d2565b8360400151604001515b905083604001516000015160ff16600214156117985760008460400151602001516001600160a01b03166370a0823186602001516040518263ffffffff1660e01b81526004016117229190613571565b60206040518083038186803b15801561173a57600080fd5b505afa15801561174e573d6000803e3d6000fd5b505050506040513d601f19601f8201168201806040525081019061177291906133d9565b90508284028110156117965760405162461bcd60e51b815260040161040290613d4d565b505b8082840211156117ba5760405162461bcd60e51b815260040161040290613d84565b5050505b80604001516000015160ff16600314806117e3575080604001516000015160ff166004145b156112035760808281015160409081015191830151810151908401515160009060ff16600214611813573461189b565b8460400151602001516001600160a01b03166370a0823186602001516040518263ffffffff1660e01b815260040161184b9190613571565b60206040518083038186803b15801561186357600080fd5b505afa158015611877573d6000803e3d6000fd5b505050506040513d601f19601f8201168201806040525081019061189b91906133d9565b905084604001516000015160ff16600214156119615760008560400151602001516001600160a01b03166370a0823187602001516040518263ffffffff1660e01b81526004016118eb9190613571565b60206040518083038186803b15801561190357600080fd5b505afa158015611917573d6000803e3d6000fd5b505050506040513d601f19601f8201168201806040525081019061193b91906133d9565b905082840281101561195f5760405162461bcd60e51b815260040161040290613d4d565b505b8082840211156119835760405162461bcd60e51b815260040161040290613d84565b5050505050565b60c0810151158061199e5750428160c00151105b6119ba5760405162461bcd60e51b815260040161040290613c0d565b60e081015115806119ce5750428160e00151115b610fcd5760405162461bcd60e51b815260040161040290613964565b60a0820151611a475760208201516001600160a01b031615611a425781602001516001600160a01b0316611a1c6114cb565b6001600160a01b031614611a425760405162461bcd60e51b815260040161040290613b8f565b611203565b600082516003811115611a5657fe5b1480611a6e5750600282516003811115611a6c57fe5b145b15611b1b576000611a7e83612216565b905082602001516001600160a01b0316611a966114cb565b6001600160a01b031614611b155782602001516001600160a01b0316611ac583611abf8461228a565b906122a6565b6001600160a01b031614611aeb5760405162461bcd60e51b815260040161040290613b21565b60208301516001600160a01b0316611b155760405162461bcd60e51b815260040161040290613a37565b50611203565b600382516003811115611b2a57fe5b1415611b3b576000611a7e836122f1565b81602001516001600160a01b0316611b516114cb565b6001600160a01b031614611203576000611b7083846101600151612326565b905082602001516001600160a01b0316611b8d83611abf8461228a565b6001600160a01b031614611bb35760405162461bcd60e51b815260040161040290613b21565b60208301516001600160a01b03166109815760405162461bcd60e51b815260040161040290613a37565b611be5612d99565b611bed612d99565b611c008560400151856080015185612385565b805190925060ff16611c245760405162461bcd60e51b815260040161040290613d21565b611c378560800151856040015185612385565b805190915060ff16611c5b5760405162461bcd60e51b815260040161040290613d21565b935093915050565b611dcb60405180608001604052806040518060800160405280866000015160ff16815260200186602001516001600160a01b03168152602001866040015181526020018660600151815250815260200160976000866000015160ff1660ff16815260200190815260200160002060009054906101000a90046001600160a01b03166001600160a01b0316815260200186602001516001600160a01b0316815260200185602001516001600160a01b031681525060405180608001604052806040518060800160405280866000015160ff16815260200186602001516001600160a01b03168152602001866040015181526020018660600151815250815260200160976000866000015160ff1660ff16815260200190815260200160002060009054906101000a90046001600160a01b03166001600160a01b0316815260200186602001516001600160a01b0316815260200187602001516001600160a01b03168152506123c6565b5050806000015160ff1660011480611dea5750806000015160ff166002145b15611fc357806000015160ff1660011415611e1d5783604001516000015160ff1660011415611e1857600080fd5b611e36565b83604001516000015160ff1660021415611e3657600080fd5b60006127108561010001516020015183604001510281611e5257fe5b04905060006127108661012001516020015184604001510281611e7157fe5b04905060008183856040015103039050611efd6040518060800160405280866000015160ff16815260200186602001516001600160a01b0316815260200183815260200186606001518152508760200151896020015160976000896000015160ff1660ff16815260200190815260200160002060009054906101000a90046001600160a01b0316612451565b60408051608081018252855160ff90811682526020808801516001600160a01b03908116828501528385018890526060808a0151908501528a82015189519093166000908152609790925293902054611f5893309116612451565b60408051608081018252855160ff90811682526020808801516001600160a01b03908116828501528385018790526060808a0151908501528a8201516101208d0151518a51909416600090815260979093529490912054611fbb94929116612451565b5050506111ea565b816000015160ff16600114156111ea5782604001516000015160ff1660011415611fec57600080fd5b6000612710846101000151602001518460400151028161200857fe5b0490506000612710856101200151602001518560400151028161202757fe5b049050600081838660400151030390506120b36040518060800160405280876000015160ff16815260200187602001516001600160a01b03168152602001838152602001876060015181525088602001518860200151609760008a6000015160ff1660ff16815260200190815260200160002060009054906101000a90046001600160a01b0316612451565b60408051608081018252865160ff90811682526020808901516001600160a01b03908116828501528385018890526060808b0151908501528b8201518a51909316600090815260979092529390205461210e93309116612451565b60408051608081018252865160ff90811682526020808901516001600160a01b03908116828501528385018790526060808b0151908501528b8201516101208c0151518b5190941660009081526097909352949091205461217194929116612451565b50505050505050565b61012f80546001019081905560405160009161219c9142913391602001613549565b6040516020818303038152906040528051906020012060001c905090565b600081815b84518110156121ef576121e5828683815181106121d857fe5b60200260200101516127ae565b91506001016121bf565b5090505b92915050565b600081600001518260400151604051602001611529929190613f81565b60007f1132f06ab722f27908a7e495b5d507bad407e55f68dcf746f8d69417e3f1928c826020015161224b84604001516127d0565b846060015161225d86608001516127d0565b8660a001518760c001518860e00151896101a00151604051602001611529999897969594939291906136af565b600061229461281b565b8260405160200161152992919061352b565b600081516041146122c95760405162461bcd60e51b8152600401610402906138e7565b60208201516040830151606084015160001a6122e78682858561285b565b9695505050505050565b60007f1ed8993288c7297ba6796429de1857dc650efa21a30299103497824fa02ba343826020015161224b84604001516127d0565b60007f15fed0d06db788fb9c02b4f593bd4adff95588d2736481b94a54a44275fae9fc8360200151838560a001516040516020016123679493929190613701565b60405160208183030381529060405280519060200120905092915050565b61238d612d99565b600061239a8585856129ec565b9050806000015160ff16600114156123bf576123b78486856129ec565b915050611557565b9050611557565b8151604080820151835190910151915190919060ff16600314806123ef575083515160ff166004145b15612410576124108460000151856040015186606001518760200151612451565b82515160ff1660031480612429575082515160ff166004145b1561244a5761244a8360000151846040015185606001518660200151612451565b9250929050565b836000015160ff16600314156125765783604001516001146124855760405162461bcd60e51b815260040161040290613b63565b6001600160a01b0383163014156125065760208401516060850151604051632142170760e11b81526001600160a01b03909216916342842e0e916124cf91309187916004016135d7565b600060405180830381600087803b1580156124e957600080fd5b505af11580156124fd573d6000803e3d6000fd5b50505050612571565b60208401516060850151604051637b84dc8360e11b81526001600160a01b0384169263f709b9069261253e92889188916004016137e1565b600060405180830381600087803b15801561255857600080fd5b505af115801561256c573d6000803e3d6000fd5b505050505b6111ea565b836000015160ff1660021415612678576001600160a01b0383163014156126405783602001516001600160a01b031663a9059cbb8386604001516040518363ffffffff1660e01b81526004016125cd929190613659565b602060405180830381600087803b1580156125e757600080fd5b505af11580156125fb573d6000803e3d6000fd5b505050506040513d601f19601f8201168201806040525081019061261f9190613256565b61263b5760405162461bcd60e51b815260040161040290613cbb565b612571565b6020840151604080860151905163776062c360e01b81526001600160a01b0384169263776062c39261253e92889188916004016137e1565b836000015160ff1660041415612717576001600160a01b0383163014156126d75783602001516001600160a01b031663f242432a3084876060015188604001516040518563ffffffff1660e01b81526004016124cf94939291906135fb565b602084015160608501516040808701519051639c1c2ee960e01b81526001600160a01b03851693639c1c2ee99361253e939192899289929160040161379e565b836000015160ff1660011415612750576001600160a01b0382163014612571576040840151612571906001600160a01b03841690612bb9565b604051632571282360e21b81526001600160a01b038216906395c4a08c9061278090879087908790600401613eb7565b600060405180830381600087803b15801561279a57600080fd5b505af11580156105f6573d6000803e3d6000fd5b60008183106127c6576127c18284612c35565b611557565b6115578383612c35565b60007f3eb30932c8579e044a08d6c2db9cfbbe826c3c715d5f913a07fdb3b62620fc2c8260000151836020015184604001518560600151604051602001611529959493929190613751565b60006128567f8b73c3c69bb8fe3d512ecc4cf759cc79239f7b179b0ffacaa9a75d522b39400f612849612c44565b612851612c4a565b612c50565b905090565b60007f7fffffffffffffffffffffffffffffff5d576e7357a4501ddfe92f46681b20a082111561289d5760405162461bcd60e51b815260040161040290613a9b565b6000601e8560ff161115612943576004850360ff16601b14806128c657506004850360ff16601c145b6128e25760405162461bcd60e51b815260040161040290613c44565b60016128ed87612c91565b600487038686604051600081526020016040526040516129109493929190613780565b6020604051602081039080840390855afa158015612932573d6000803e3d6000fd5b5050506020604051035190506129c6565b8460ff16601b148061295857508460ff16601c145b6129745760405162461bcd60e51b815260040161040290613c44565b600186868686604051600081526020016040526040516129979493929190613780565b6020604051602081039080840390855afa1580156129b9573d6000803e3d6000fd5b5050506020604051035190505b6001600160a01b03811661067b5760405162461bcd60e51b815260040161040290613879565b6129f4612d99565b600080856000015160ff1660011415612a5357846000015160ff1660011415612a21578592505050611557565b60408051608081018252600081526001600160a01b039092166020830152810182905260608101919091529050611557565b856000015160ff1660021415612a8657846000015160ff1660021415612a2157612a7d8686612ca4565b92505050611557565b856000015160ff1660031415612ab057846000015160ff1660031415612a2157612a7d8686612ca4565b856000015160ff1660041415612adb57846000015160ff1660041415612a2157612a7d868686612d15565b855160ff166000908152606560205260409020546001600160a01b03168015612b8657604051638dc614ff60e01b81526001600160a01b03821690638dc614ff90612b2c908a908a90600401613ee7565b60806040518083038186803b158015612b4457600080fd5b505afa158015612b58573d6000803e3d6000fd5b505050506040513d601f19601f82011682018060405250810190612b7c9190613330565b9350505050611557565b8551875160ff90811691161415612ba157612b7c8787612ca4565b60405162461bcd60e51b8152600401610402906138b0565b6000826001600160a01b031682604051612bd290613546565b60006040518083038185875af1925050503d8060008114612c0f576040519150601f19603f3d011682016040523d82523d6000602084013e612c14565b606091505b50509050806109815760405162461bcd60e51b815260040161040290613dbb565b60009182526020526040902090565b60c95490565b60ca5490565b6000838383612c5d612d95565b30604051602001612c72959493929190613725565b6040516020818303038152906040528051906020012090509392505050565b60008160405160200161152991906134fa565b612cac612d99565b600080836000015160ff16856000015160ff16148015612cd3575083604001518560400151145b15612ce25784925050506121f3565b60408051608081018252600181526001600160a01b03909216602083015281018290526060810191909152905092915050565b612d1d612d99565b600080856000015160ff1660041415612d61578451865160ff9081169116148015612d52575084604001518401866040015110155b15612d61578492505050611557565b60408051608081018252600081526001600160a01b0390921660208301528101829052606081019190915290509392505050565b4690565b6040518060800160405280600060ff16815260200160006001600160a01b0316815260200160008152602001600081525090565b803561092281614024565b600082601f830112612de8578081fd5b81356020612dfd612df883613fce565b613faa565b8281528181019085830183850287018401881015612e19578586fd5b855b85811015612e3757813584529284019290840190600101612e1b565b5090979650505050505050565b600082601f830112612e54578081fd5b81356020612e64612df883613fce565b82815281810190858301855b85811015612e3757612e87898684358b0101612fd0565b84529284019290840190600101612e70565b600082601f830112612ea9578081fd5b813567ffffffffffffffff811115612ebd57fe5b612ed0601f8201601f1916602001613faa565b818152846020838601011115612ee4578283fd5b816020850160208301379081016020019190915292915050565b80356004811061092257600080fd5b600060808284031215612f1e578081fd5b6040516080810181811067ffffffffffffffff82111715612f3b57fe5b6040529050808235612f4c81614039565b81526020830135612f5c81614024565b8060208301525060408301356040820152606083013560608201525092915050565b600060408284031215612f8f578081fd5b6040516040810181811067ffffffffffffffff82111715612fac57fe5b6040529050808235612fbd81614024565b8152602092830135920191909152919050565b60006102c08284031215612fe2578081fd5b6101c0612fee81613faa565b9150612ff983612efe565b825261300760208401612dcd565b60208301526130198460408501612f0d565b604083015261302a60c08401612dcd565b606083015261303c8460e08501612f0d565b60808301526101608084013560a08401526101808085013560c08501526101a08086013560e086015261307187858801612f7e565b610100860152613085876102008801612f7e565b610120860152610240860135935067ffffffffffffffff808511156130a957600080fd5b6130b588868901612e99565b610140870152610260870135848701526102808701359450808511156130da57600080fd5b506130e787858801612dd8565b828601526130f86102a08701613106565b818601525050505092915050565b803561ffff8116811461092257600080fd5b803565ffffffffffff8116811461092257600080fd5b60006020828403121561313f578081fd5b813561155781614024565b600080600080600060a08688031215613161578081fd5b853561316c81614024565b9450602086013561317c81614024565b935060408601359250606086013561319381614024565b915060808601356131a381614024565b809150509295509295909350565b6000806000606084860312156131c5578081fd5b83356131d081614024565b92506131de60208501613118565b91506131ec60408501613118565b90509250925092565b60008060408385031215613207578182fd5b823567ffffffffffffffff8082111561321e578384fd5b61322a86838701612e44565b9350602085013591508082111561323f578283fd5b5061324c85828601612e44565b9150509250929050565b600060208284031215613267578081fd5b81518015158114611557578182fd5b600060208284031215613287578081fd5b5035919050565b6000806000606084860312156132a2578081fd5b83359250602084013567ffffffffffffffff808211156132c0578283fd5b6132cc87838801612dd8565b935060408601359150808211156132e1578283fd5b506132ee86828701612fd0565b9150509250925092565b600060208284031215613309578081fd5b813567ffffffffffffffff81111561331f578182fd5b820160408185031215611557578182fd5b600060808284031215613341578081fd5b6040516080810181811067ffffffffffffffff8211171561335e57fe5b604052825161336c81614039565b8152602083015161337c81614024565b6020820152604083810151908201526060928301519281019290925250919050565b6000602082840312156133af578081fd5b813567ffffffffffffffff8111156133c5578182fd5b6133d184828501612fd0565b949350505050565b6000602082840312156133ea578081fd5b5051919050565b60008060408385031215613403578182fd5b82359150602083013561341581614024565b809150509250929050565b600060208284031215613431578081fd5b61155782613118565b60006020828403121561344b578081fd5b813561155781614039565b60008060408385031215613468578182fd5b823561347381614039565b9150602083013561341581614024565b6000815180845261349b816020860160208601613ff8565b601f01601f19169290920160200192915050565b805160ff1682526020808201516001600160a01b03169083015260408082015190830152606090810151910152565b600082516134f0818460208701613ff8565b9190910192915050565b7f19457468657265756d205369676e6564204d6573736167653a0a3332000000008152601c810191909152603c0190565b61190160f01b81526002810192909252602282015260420190565b90565b92835260609190911b6bffffffffffffffffffffffff19166020830152603482015260540190565b6001600160a01b0391909116815260200190565b6001600160a01b03841681526060602082018190526000906135a990830185613483565b905061ffff83166040830152949350505050565b6001600160a01b0392831681529116602082015260400190565b6001600160a01b039384168152919092166020820152604081019190915260600190565b6001600160a01b0394851681529290931660208301526040820152606081019190915260a06080820181905260009082015260c00190565b6001600160a01b0394909416845260208401929092526040830152606082015260800190565b6001600160a01b03929092168252602082015260400190565b6001600160a01b0393909316835265ffffffffffff918216602084015216604082015260600190565b901515815260200190565b90815260200190565b9889526001600160a01b0397881660208a01526040890196909652939095166060870152608086019190915260a085015260c084019290925260e083019190915261ffff166101008201526101200190565b9384526001600160a01b039290921660208401526040830152606082015260800190565b9485526020850193909352604084019190915260608301526001600160a01b0316608082015260a00190565b94855260ff9390931660208501526001600160a01b039190911660408401526060830152608082015260a00190565b93845260ff9290921660208401526040830152606082015260800190565b6001600160a01b03958616815293851660208501529190931660408301526060820192909252608081019190915260c060a0820181905260009082015260e00190565b6001600160a01b039485168152928416602084015292166040820152606081019190915260800190565b600061012060048c1061381a57fe5b8b83526001600160a01b038b811660208501528a166040840152606083018190526138478184018a613483565b61ffff989098166080840152505060a081019490945260c084019290925260e083015261010090910152949350505050565b60208082526018908201527f45434453413a20696e76616c6964207369676e61747572650000000000000000604082015260600190565b60208082526017908201527f6e6f7420666f756e64204941737365744d617463686572000000000000000000604082015260600190565b6020808252601f908201527f45434453413a20696e76616c6964207369676e6174757265206c656e67746800604082015260600190565b60208082526026908201527f4f776e61626c653a206e6577206f776e657220697320746865207a65726f206160408201526564647265737360d01b606082015260800190565b6020808252601b908201527f4f7264657220656e642076616c69646174696f6e206661696c65640000000000604082015260600190565b6020808252601490820152730c081cd85b1d0818d85b89dd081899481d5cd95960621b604082015260600190565b60208082526018908201527f4f7264657220686173206265656e2066756c66696c6c65640000000000000000604082015260600190565b6020808252601c908201527f426964204552432d323020616d6f756e74206e6f7420656e6f75676800000000604082015260600190565b60208082526008908201526737379036b0b5b2b960c11b604082015260600190565b60208082526022908201527f6c6566747320616e6420726967687473206c656e67746820646f6e74206d61746040820152610c6d60f31b606082015260800190565b60208082526022908201527f45434453413a20696e76616c6964207369676e6174757265202773272076616c604082015261756560f01b606082015260800190565b60208082526024908201527f72696768744f726465722e74616b657220766572696669636174696f6e2066616040820152631a5b195960e21b606082015260800190565b60208082526022908201527f6f72646572207369676e617475726520766572696669636174696f6e2065727260408201526137b960f11b606082015260800190565b60208082526012908201527132b9319b9918903b30b63ab29032b93937b960711b604082015260600190565b60208082526016908201527536b0b5b2b91034b9903737ba103a3c1039b2b73232b960511b604082015260600190565b6020808252602e908201527f496e697469616c697a61626c653a20636f6e747261637420697320616c72656160408201526d191e481a5b9a5d1a585b1a5e995960921b606082015260800190565b6020808252601d908201527f4f726465722073746172742076616c69646174696f6e206661696c6564000000604082015260600190565b60208082526022908201527f45434453413a20696e76616c6964207369676e6174757265202776272076616c604082015261756560f01b606082015260800190565b6020808252818101527f4f776e61626c653a2063616c6c6572206973206e6f7420746865206f776e6572604082015260600190565b602080825260159082015274195c98cc8c081d1c985b9cd9995c8819985a5b1959605a1b604082015260600190565b60208082526018908201527f4f7264657220686173206265656e2063616e63656c6c65640000000000000000604082015260600190565b6020808252601290820152710c2e6e6cae8e640c8dedc4ee840dac2e8c6d60731b604082015260600190565b60208082526018908201527f45524332302062616c616e6365206e6f7420656e6f7567680000000000000000604082015260600190565b6020808252601a908201527f5370656e64696e6720616d6f756e74206e6f7420656e6f756768000000000000604082015260600190565b6020808252600f908201526e1d1c985b9cd9995c8819985a5b1959608a1b604082015260600190565b60208082526022908201527f416363657074206269642071747920686967686572207468616e206269642071604082015261747960f01b606082015260800190565b60208082526023908201527f6c6566744f726465722e74616b657220766572696669636174696f6e206661696040820152621b195960ea1b606082015260800190565b6020808252600f908201526e496e76616c6964206c697374696e6760881b604082015260600190565b6020808252600b908201526a3737ba10309036b0b5b2b960a91b604082015260600190565b60c08101613ec582866134af565b6001600160a01b0393841660808301529190921660a090920191909152919050565b6101008101613ef682856134af565b61155760808301846134af565b61ffff9b909b168b526001600160a01b03998a1660208c015297891660408b015260608a0196909652608089019490945260ff92831660a089015290861660c088015290941660e0860152610100850152610120840152166101408201526101600190565b65ffffffffffff92831681529116602082015260400190565b60ff929092168252602082015260400190565b600082356102be198336030181126134f0578182fd5b60405181810167ffffffffffffffff81118282101715613fc657fe5b604052919050565b600067ffffffffffffffff821115613fe257fe5b5060209081020190565b60006121f33683612fd0565b60005b83811015614013578181015183820152602001613ffb565b838111156111ea5750506000910152565b6001600160a01b0381168114610fcd57600080fd5b60ff81168114610fcd57600080fdfea2646970667358221220db5b6e996e1b76d68ac541c7545764cd273a58e6cf968244a55ff8694769644664736f6c63430007060033","opcodes":"PUSH1 0x80 PUSH1 0x40 MSTORE PUSH3 0x753275 PUSH1 0xE8 SHL PUSH1 0xC9 SSTORE PUSH1 0x31 PUSH1 0xF8 SHL PUSH1 0xCA SSTORE PUSH1 0x0 PUSH2 0x12F SSTORE CALLVALUE DUP1 ISZERO PUSH3 0x29 JUMPI PUSH1 0x0 DUP1 REVERT JUMPDEST POP PUSH1 0x33 DUP1 SLOAD PUSH1 0x1 PUSH1 0x1 PUSH1 0xA0 SHL SUB NOT AND CALLER OR SWAP1 SSTORE PUSH3 0x46 PUSH3 0x4C JUMP JUMPDEST PUSH3 0x24D JUMP JUMPDEST PUSH1 0x0 SLOAD PUSH2 0x100 SWAP1 DIV PUSH1 0xFF AND DUP1 PUSH3 0x68 JUMPI POP PUSH3 0x68 PUSH3 0x130 JUMP JUMPDEST DUP1 PUSH3 0x77 JUMPI POP PUSH1 0x0 SLOAD PUSH1 0xFF AND ISZERO JUMPDEST PUSH3 0x9F JUMPI PUSH1 0x40 MLOAD PUSH3 0x461BCD PUSH1 0xE5 SHL DUP2 MSTORE PUSH1 0x4 ADD PUSH3 0x96 SWAP1 PUSH3 0x1FF JUMP JUMPDEST PUSH1 0x40 MLOAD DUP1 SWAP2 SUB SWAP1 REVERT JUMPDEST PUSH1 0x0 SLOAD PUSH2 0x100 SWAP1 DIV PUSH1 0xFF AND ISZERO DUP1 ISZERO PUSH3 0xCB JUMPI PUSH1 0x0 DUP1 SLOAD PUSH1 0xFF NOT PUSH2 0xFF00 NOT SWAP1 SWAP2 AND PUSH2 0x100 OR AND PUSH1 0x1 OR SWAP1 SSTORE JUMPDEST PUSH3 0x11A PUSH1 0x40 MLOAD DUP1 PUSH1 0x40 ADD PUSH1 0x40 MSTORE DUP1 PUSH1 0xC DUP2 MSTORE PUSH1 0x20 ADD PUSH12 0x5837323145786368616E6765 PUSH1 0xA0 SHL DUP2 MSTORE POP PUSH1 0x40 MLOAD DUP1 PUSH1 0x40 ADD PUSH1 0x40 MSTORE DUP1 PUSH1 0x1 DUP2 MSTORE PUSH1 0x20 ADD PUSH1 0x31 PUSH1 0xF8 SHL DUP2 MSTORE POP PUSH3 0x14E PUSH1 0x20 SHL PUSH1 0x20 SHR JUMP JUMPDEST DUP1 ISZERO PUSH3 0x12D JUMPI PUSH1 0x0 DUP1 SLOAD PUSH2 0xFF00 NOT AND SWAP1 SSTORE JUMPDEST POP JUMP JUMPDEST PUSH1 0x0 PUSH3 0x148 ADDRESS PUSH3 0x1F9 PUSH1 0x20 SHL PUSH3 0xF36 OR PUSH1 0x20 SHR JUMP JUMPDEST ISZERO SWAP1 POP SWAP1 JUMP JUMPDEST PUSH1 0x0 SLOAD PUSH2 0x100 SWAP1 DIV PUSH1 0xFF AND DUP1 PUSH3 0x16A JUMPI POP PUSH3 0x16A PUSH3 0x130 JUMP JUMPDEST DUP1 PUSH3 0x179 JUMPI POP PUSH1 0x0 SLOAD PUSH1 0xFF AND ISZERO JUMPDEST PUSH3 0x198 JUMPI PUSH1 0x40 MLOAD PUSH3 0x461BCD PUSH1 0xE5 SHL DUP2 MSTORE PUSH1 0x4 ADD PUSH3 0x96 SWAP1 PUSH3 0x1FF JUMP JUMPDEST PUSH1 0x0 SLOAD PUSH2 0x100 SWAP1 DIV PUSH1 0xFF AND ISZERO DUP1 ISZERO PUSH3 0x1C4 JUMPI PUSH1 0x0 DUP1 SLOAD PUSH1 0xFF NOT PUSH2 0xFF00 NOT SWAP1 SWAP2 AND PUSH2 0x100 OR AND PUSH1 0x1 OR SWAP1 SSTORE JUMPDEST DUP3 MLOAD PUSH1 0x20 DUP1 DUP6 ADD SWAP2 SWAP1 SWAP2 KECCAK256 DUP4 MLOAD SWAP2 DUP5 ADD SWAP2 SWAP1 SWAP2 KECCAK256 PUSH1 0xC9 SWAP2 SWAP1 SWAP2 SSTORE PUSH1 0xCA SSTORE DUP1 ISZERO PUSH3 0x1F4 JUMPI PUSH1 0x0 DUP1 SLOAD PUSH2 0xFF00 NOT AND SWAP1 SSTORE JUMPDEST POP POP POP JUMP JUMPDEST EXTCODESIZE ISZERO ISZERO SWAP1 JUMP JUMPDEST PUSH1 0x20 DUP1 DUP3 MSTORE PUSH1 0x2E SWAP1 DUP3 ADD MSTORE PUSH32 0x496E697469616C697A61626C653A20636F6E747261637420697320616C726561 PUSH1 0x40 DUP3 ADD MSTORE PUSH14 0x191E481A5B9A5D1A585B1A5E9959 PUSH1 0x92 SHL PUSH1 0x60 DUP3 ADD MSTORE PUSH1 0x80 ADD SWAP1 JUMP JUMPDEST PUSH2 0x407E DUP1 PUSH3 0x25D PUSH1 0x0 CODECOPY PUSH1 0x0 RETURN INVALID PUSH1 0x80 PUSH1 0x40 MSTORE PUSH1 0x4 CALLDATASIZE LT PUSH2 0x12A JUMPI PUSH1 0x0 CALLDATALOAD PUSH1 0xE0 SHR DUP1 PUSH4 0xB0E21E8A GT PUSH2 0xAB JUMPI DUP1 PUSH4 0xC648A687 GT PUSH2 0x6F JUMPI DUP1 PUSH4 0xC648A687 EQ PUSH2 0x30C JUMPI DUP1 PUSH4 0xD362D3FF EQ PUSH2 0x32C JUMPI DUP1 PUSH4 0xD6CA6AB7 EQ PUSH2 0x34C JUMPI DUP1 PUSH4 0xEAE3AD6F EQ PUSH2 0x36C JUMPI DUP1 PUSH4 0xF2FDE38B EQ PUSH2 0x38C JUMPI DUP1 PUSH4 0xFAA2CC7C EQ PUSH2 0x3AC JUMPI PUSH2 0x12A JUMP JUMPDEST DUP1 PUSH4 0xB0E21E8A EQ PUSH2 0x273 JUMPI DUP1 PUSH4 0xB2BDFA7B EQ PUSH2 0x297 JUMPI DUP1 PUSH4 0xB36C9B29 EQ PUSH2 0x2AC JUMPI DUP1 PUSH4 0xB74C8E9A EQ PUSH2 0x2CC JUMPI DUP1 PUSH4 0xBC158C2D EQ PUSH2 0x2EC JUMPI PUSH2 0x12A JUMP JUMPDEST DUP1 PUSH4 0x4CFE4CD8 GT PUSH2 0xF2 JUMPI DUP1 PUSH4 0x4CFE4CD8 EQ PUSH2 0x1E7 JUMPI DUP1 PUSH4 0x6D8F0694 EQ PUSH2 0x207 JUMPI DUP1 PUSH4 0x715018A6 EQ PUSH2 0x229 JUMPI DUP1 PUSH4 0x8B42AF3E EQ PUSH2 0x23E JUMPI DUP1 PUSH4 0x8DA5CB5B EQ PUSH2 0x25E JUMPI PUSH2 0x12A JUMP JUMPDEST DUP1 PUSH4 0x1372A625 EQ PUSH2 0x12F JUMPI DUP1 PUSH4 0x20158C44 EQ PUSH2 0x151 JUMPI DUP1 PUSH4 0x33033608 EQ PUSH2 0x187 JUMPI DUP1 PUSH4 0x3BE89922 EQ PUSH2 0x19A JUMPI DUP1 PUSH4 0x3E2D95FF EQ PUSH2 0x1BA JUMPI JUMPDEST PUSH1 0x0 DUP1 REVERT JUMPDEST CALLVALUE DUP1 ISZERO PUSH2 0x13B JUMPI PUSH1 0x0 DUP1 REVERT JUMPDEST POP PUSH2 0x14F PUSH2 0x14A CALLDATASIZE PUSH1 0x4 PUSH2 0x314A JUMP JUMPDEST PUSH2 0x3BF JUMP JUMPDEST STOP JUMPDEST CALLVALUE DUP1 ISZERO PUSH2 0x15D JUMPI PUSH1 0x0 DUP1 REVERT JUMPDEST POP PUSH2 0x171 PUSH2 0x16C CALLDATASIZE PUSH1 0x4 PUSH2 0x3276 JUMP JUMPDEST PUSH2 0x475 JUMP JUMPDEST PUSH1 0x40 MLOAD PUSH2 0x17E SWAP2 SWAP1 PUSH2 0x36A6 JUMP JUMPDEST PUSH1 0x40 MLOAD DUP1 SWAP2 SUB SWAP1 RETURN JUMPDEST PUSH2 0x14F PUSH2 0x195 CALLDATASIZE PUSH1 0x4 PUSH2 0x32F8 JUMP JUMPDEST PUSH2 0x488 JUMP JUMPDEST CALLVALUE DUP1 ISZERO PUSH2 0x1A6 JUMPI PUSH1 0x0 DUP1 REVERT JUMPDEST POP PUSH2 0x14F PUSH2 0x1B5 CALLDATASIZE PUSH1 0x4 PUSH2 0x312E JUMP JUMPDEST PUSH2 0x600 JUMP JUMPDEST CALLVALUE DUP1 ISZERO PUSH2 0x1C6 JUMPI PUSH1 0x0 DUP1 REVERT JUMPDEST POP PUSH2 0x1DA PUSH2 0x1D5 CALLDATASIZE PUSH1 0x4 PUSH2 0x328E JUMP JUMPDEST PUSH2 0x662 JUMP JUMPDEST PUSH1 0x40 MLOAD PUSH2 0x17E SWAP2 SWAP1 PUSH2 0x369B JUMP JUMPDEST CALLVALUE DUP1 ISZERO PUSH2 0x1F3 JUMPI PUSH1 0x0 DUP1 REVERT JUMPDEST POP PUSH2 0x14F PUSH2 0x202 CALLDATASIZE PUSH1 0x4 PUSH2 0x3456 JUMP JUMPDEST PUSH2 0x684 JUMP JUMPDEST CALLVALUE DUP1 ISZERO PUSH2 0x213 JUMPI PUSH1 0x0 DUP1 REVERT JUMPDEST POP PUSH2 0x21C PUSH2 0x72A JUMP JUMPDEST PUSH1 0x40 MLOAD PUSH2 0x17E SWAP2 SWAP1 PUSH2 0x3571 JUMP JUMPDEST CALLVALUE DUP1 ISZERO PUSH2 0x235 JUMPI PUSH1 0x0 DUP1 REVERT JUMPDEST POP PUSH2 0x14F PUSH2 0x73A JUMP JUMPDEST CALLVALUE DUP1 ISZERO PUSH2 0x24A JUMPI PUSH1 0x0 DUP1 REVERT JUMPDEST POP PUSH2 0x14F PUSH2 0x259 CALLDATASIZE PUSH1 0x4 PUSH2 0x339E JUMP JUMPDEST PUSH2 0x7C3 JUMP JUMPDEST CALLVALUE DUP1 ISZERO PUSH2 0x26A JUMPI PUSH1 0x0 DUP1 REVERT JUMPDEST POP PUSH2 0x21C PUSH2 0x8BC JUMP JUMPDEST CALLVALUE DUP1 ISZERO PUSH2 0x27F JUMPI PUSH1 0x0 DUP1 REVERT JUMPDEST POP PUSH2 0x288 PUSH2 0x8CB JUMP JUMPDEST PUSH1 0x40 MLOAD PUSH2 0x17E SWAP4 SWAP3 SWAP2 SWAP1 PUSH2 0x3672 JUMP JUMPDEST CALLVALUE DUP1 ISZERO PUSH2 0x2A3 JUMPI PUSH1 0x0 DUP1 REVERT JUMPDEST POP PUSH2 0x21C PUSH2 0x8F6 JUMP JUMPDEST CALLVALUE DUP1 ISZERO PUSH2 0x2B8 JUMPI PUSH1 0x0 DUP1 REVERT JUMPDEST POP PUSH2 0x21C PUSH2 0x2C7 CALLDATASIZE PUSH1 0x4 PUSH2 0x343A JUMP JUMPDEST PUSH2 0x905 JUMP JUMPDEST CALLVALUE DUP1 ISZERO PUSH2 0x2D8 JUMPI PUSH1 0x0 DUP1 REVERT JUMPDEST POP PUSH2 0x14F PUSH2 0x2E7 CALLDATASIZE PUSH1 0x4 PUSH2 0x31B1 JUMP JUMPDEST PUSH2 0x927 JUMP JUMPDEST CALLVALUE DUP1 ISZERO PUSH2 0x2F8 JUMPI PUSH1 0x0 DUP1 REVERT JUMPDEST POP PUSH2 0x14F PUSH2 0x307 CALLDATASIZE PUSH1 0x4 PUSH2 0x312E JUMP JUMPDEST PUSH2 0x986 JUMP JUMPDEST CALLVALUE DUP1 ISZERO PUSH2 0x318 JUMPI PUSH1 0x0 DUP1 REVERT JUMPDEST POP PUSH2 0x14F PUSH2 0x327 CALLDATASIZE PUSH1 0x4 PUSH2 0x33F1 JUMP JUMPDEST PUSH2 0xA30 JUMP JUMPDEST CALLVALUE DUP1 ISZERO PUSH2 0x338 JUMPI PUSH1 0x0 DUP1 REVERT JUMPDEST POP PUSH2 0x14F PUSH2 0x347 CALLDATASIZE PUSH1 0x4 PUSH2 0x339E JUMP JUMPDEST PUSH2 0xAC8 JUMP JUMPDEST CALLVALUE DUP1 ISZERO PUSH2 0x358 JUMPI PUSH1 0x0 DUP1 REVERT JUMPDEST POP PUSH2 0x14F PUSH2 0x367 CALLDATASIZE PUSH1 0x4 PUSH2 0x3420 JUMP JUMPDEST PUSH2 0xB83 JUMP JUMPDEST CALLVALUE DUP1 ISZERO PUSH2 0x378 JUMPI PUSH1 0x0 DUP1 REVERT JUMPDEST POP PUSH2 0x14F PUSH2 0x387 CALLDATASIZE PUSH1 0x4 PUSH2 0x3420 JUMP JUMPDEST PUSH2 0xC3A JUMP JUMPDEST CALLVALUE DUP1 ISZERO PUSH2 0x398 JUMPI PUSH1 0x0 DUP1 REVERT JUMPDEST POP PUSH2 0x14F PUSH2 0x3A7 CALLDATASIZE PUSH1 0x4 PUSH2 0x312E JUMP JUMPDEST PUSH2 0xCEE JUMP JUMPDEST PUSH2 0x14F PUSH2 0x3BA CALLDATASIZE PUSH1 0x4 PUSH2 0x31F5 JUMP JUMPDEST PUSH2 0xDAF JUMP JUMPDEST PUSH1 0x0 SLOAD PUSH2 0x100 SWAP1 DIV PUSH1 0xFF AND DUP1 PUSH2 0x3D8 JUMPI POP PUSH2 0x3D8 PUSH2 0xF3C JUMP JUMPDEST DUP1 PUSH2 0x3E6 JUMPI POP PUSH1 0x0 SLOAD PUSH1 0xFF AND ISZERO JUMPDEST PUSH2 0x40B JUMPI PUSH1 0x40 MLOAD PUSH3 0x461BCD PUSH1 0xE5 SHL DUP2 MSTORE PUSH1 0x4 ADD PUSH2 0x402 SWAP1 PUSH2 0x3BBF JUMP JUMPDEST PUSH1 0x40 MLOAD DUP1 SWAP2 SUB SWAP1 REVERT JUMPDEST PUSH1 0x0 SLOAD PUSH2 0x100 SWAP1 DIV PUSH1 0xFF AND ISZERO DUP1 ISZERO PUSH2 0x436 JUMPI PUSH1 0x0 DUP1 SLOAD PUSH1 0xFF NOT PUSH2 0xFF00 NOT SWAP1 SWAP2 AND PUSH2 0x100 OR AND PUSH1 0x1 OR SWAP1 SSTORE JUMPDEST PUSH2 0x43E PUSH2 0xF4D JUMP JUMPDEST PUSH2 0x446 PUSH2 0xFD0 JUMP JUMPDEST PUSH2 0x450 DUP7 DUP7 PUSH2 0x10AA JUMP JUMPDEST PUSH2 0x45B DUP5 DUP5 DUP5 PUSH2 0x114E JUMP JUMPDEST DUP1 ISZERO PUSH2 0x46D JUMPI PUSH1 0x0 DUP1 SLOAD PUSH2 0xFF00 NOT AND SWAP1 SSTORE JUMPDEST POP POP POP POP POP POP JUMP JUMPDEST PUSH2 0x130 PUSH1 0x20 MSTORE PUSH1 0x0 SWAP1 DUP2 MSTORE PUSH1 0x40 SWAP1 KECCAK256 SLOAD DUP2 JUMP JUMPDEST PUSH1 0x0 PUSH2 0x494 DUP3 DUP1 PUSH2 0x3F94 JUMP JUMPDEST PUSH2 0x49D SWAP1 PUSH2 0x3FEC JUMP JUMPDEST SWAP1 POP PUSH1 0x0 PUSH2 0x4AE PUSH1 0x20 DUP5 ADD DUP5 PUSH2 0x3F94 JUMP JUMPDEST PUSH2 0x4B7 SWAP1 PUSH2 0x3FEC JUMP JUMPDEST PUSH1 0x80 DUP4 ADD MLOAD PUSH1 0x40 SWAP1 DUP2 ADD MLOAD DUP2 DUP4 ADD MLOAD SWAP1 SWAP2 ADD MLOAD SWAP2 SWAP3 POP SWAP1 DUP2 DUP2 GT ISZERO PUSH2 0x4EE JUMPI PUSH1 0x40 MLOAD PUSH3 0x461BCD PUSH1 0xE5 SHL DUP2 MSTORE PUSH1 0x4 ADD PUSH2 0x402 SWAP1 PUSH2 0x3DE4 JUMP JUMPDEST PUSH2 0x4FD DUP5 DUP6 PUSH2 0x140 ADD MLOAD PUSH2 0x11F0 JUMP JUMPDEST PUSH2 0x50C DUP4 DUP5 PUSH2 0x140 ADD MLOAD PUSH2 0x11F0 JUMP JUMPDEST PUSH1 0x0 DUP3 DUP6 PUSH1 0x40 ADD MLOAD PUSH1 0x40 ADD MLOAD DUP2 PUSH2 0x51F JUMPI INVALID JUMPDEST DIV SWAP1 POP PUSH1 0x0 DUP3 DUP3 MUL SWAP1 POP DUP6 PUSH1 0x40 ADD MLOAD PUSH1 0x40 ADD MLOAD DUP2 GT ISZERO PUSH2 0x551 JUMPI PUSH1 0x40 MLOAD PUSH3 0x461BCD PUSH1 0xE5 SHL DUP2 MSTORE PUSH1 0x4 ADD PUSH2 0x402 SWAP1 PUSH2 0x3A00 JUMP JUMPDEST PUSH1 0x40 DUP1 DUP8 ADD MLOAD DUP2 ADD DUP3 SWAP1 MSTORE PUSH1 0x80 DUP1 DUP9 ADD MLOAD DUP3 ADD DUP6 SWAP1 MSTORE PUSH1 0x20 DUP1 DUP9 ADD MLOAD PUSH1 0x1 PUSH1 0x1 PUSH1 0xA0 SHL SUB SWAP1 DUP2 AND PUSH1 0x60 DUP12 ADD MSTORE DUP9 DUP5 ADD MLOAD DUP5 ADD DUP9 SWAP1 MSTORE SWAP2 DUP9 ADD MLOAD DUP4 ADD DUP5 SWAP1 MSTORE DUP1 DUP10 ADD MLOAD SWAP1 SWAP2 AND PUSH1 0x0 SWAP1 DUP2 MSTORE PUSH2 0x131 SWAP1 SWAP2 MSTORE DUP2 DUP2 KECCAK256 PUSH2 0x140 DUP10 ADD MLOAD SWAP3 MLOAD SWAP2 SWAP3 SWAP1 SWAP2 PUSH2 0x5BA SWAP2 SWAP1 PUSH2 0x34DE JUMP JUMPDEST SWAP1 DUP2 MSTORE PUSH1 0x40 DUP1 MLOAD PUSH1 0x20 SWAP3 DUP2 SWAP1 SUB DUP4 ADD SWAP1 KECCAK256 PUSH2 0x1A0 DUP11 ADD MLOAD PUSH2 0xFFFF AND PUSH1 0x0 SWAP1 DUP2 MSTORE SWAP3 MSTORE SWAP1 KECCAK256 SLOAD SWAP1 POP PUSH2 0x5EB DUP7 DUP9 PUSH2 0x1207 JUMP JUMPDEST PUSH2 0x5F6 DUP7 DUP9 DUP4 PUSH2 0x1341 JUMP JUMPDEST POP POP POP POP POP POP POP POP JUMP JUMPDEST PUSH2 0x608 PUSH2 0x14CB JUMP JUMPDEST PUSH1 0x1 PUSH1 0x1 PUSH1 0xA0 SHL SUB AND PUSH2 0x619 PUSH2 0x8BC JUMP JUMPDEST PUSH1 0x1 PUSH1 0x1 PUSH1 0xA0 SHL SUB AND EQ PUSH2 0x63F JUMPI PUSH1 0x40 MLOAD PUSH3 0x461BCD PUSH1 0xE5 SHL DUP2 MSTORE PUSH1 0x4 ADD PUSH2 0x402 SWAP1 PUSH2 0x3C86 JUMP JUMPDEST PUSH2 0x164 DUP1 SLOAD PUSH1 0x1 PUSH1 0x1 PUSH1 0xA0 SHL SUB NOT AND PUSH1 0x1 PUSH1 0x1 PUSH1 0xA0 SHL SUB SWAP3 SWAP1 SWAP3 AND SWAP2 SWAP1 SWAP2 OR SWAP1 SSTORE JUMP JUMPDEST PUSH1 0x0 DUP1 PUSH2 0x66E DUP4 PUSH2 0x14CF JUMP JUMPDEST SWAP1 POP PUSH2 0x67B DUP5 DUP7 DUP4 PUSH2 0x1546 JUMP JUMPDEST SWAP6 SWAP5 POP POP POP POP POP JUMP JUMPDEST PUSH2 0x68C PUSH2 0x14CB JUMP JUMPDEST PUSH1 0x1 PUSH1 0x1 PUSH1 0xA0 SHL SUB AND PUSH2 0x69D PUSH2 0x8BC JUMP JUMPDEST PUSH1 0x1 PUSH1 0x1 PUSH1 0xA0 SHL SUB AND EQ PUSH2 0x6C3 JUMPI PUSH1 0x40 MLOAD PUSH3 0x461BCD PUSH1 0xE5 SHL DUP2 MSTORE PUSH1 0x4 ADD PUSH2 0x402 SWAP1 PUSH2 0x3C86 JUMP JUMPDEST PUSH1 0xFF DUP3 AND PUSH1 0x0 DUP2 DUP2 MSTORE PUSH1 0x97 PUSH1 0x20 MSTORE PUSH1 0x40 SWAP1 DUP2 SWAP1 KECCAK256 DUP1 SLOAD PUSH1 0x1 PUSH1 0x1 PUSH1 0xA0 SHL SUB NOT AND PUSH1 0x1 PUSH1 0x1 PUSH1 0xA0 SHL SUB DUP6 AND OR SWAP1 SSTORE MLOAD PUSH32 0x8EDDA873A8AD561ECEBEB71CEB3AE6BCB70C2B76A3FCB869859895C4D4FC7416 SWAP1 PUSH2 0x71E SWAP1 DUP5 SWAP1 PUSH2 0x3571 JUMP JUMPDEST PUSH1 0x40 MLOAD DUP1 SWAP2 SUB SWAP1 LOG2 POP POP JUMP JUMPDEST PUSH2 0x164 SLOAD PUSH1 0x1 PUSH1 0x1 PUSH1 0xA0 SHL SUB AND DUP2 JUMP JUMPDEST PUSH2 0x742 PUSH2 0x14CB JUMP JUMPDEST PUSH1 0x1 PUSH1 0x1 PUSH1 0xA0 SHL SUB AND PUSH2 0x753 PUSH2 0x8BC JUMP JUMPDEST PUSH1 0x1 PUSH1 0x1 PUSH1 0xA0 SHL SUB AND EQ PUSH2 0x779 JUMPI PUSH1 0x40 MLOAD PUSH3 0x461BCD PUSH1 0xE5 SHL DUP2 MSTORE PUSH1 0x4 ADD PUSH2 0x402 SWAP1 PUSH2 0x3C86 JUMP JUMPDEST PUSH1 0x33 SLOAD PUSH1 0x40 MLOAD PUSH1 0x0 SWAP2 PUSH1 0x1 PUSH1 0x1 PUSH1 0xA0 SHL SUB AND SWAP1 PUSH32 0x8BE0079C531659141344CD1FD0A4F28419497F9722A3DAAFE3B4186F6B6457E0 SWAP1 DUP4 SWAP1 LOG3 PUSH1 0x33 DUP1 SLOAD PUSH1 0x1 PUSH1 0x1 PUSH1 0xA0 SHL SUB NOT AND SWAP1 SSTORE JUMP JUMPDEST DUP1 PUSH1 0x20 ADD MLOAD PUSH1 0x1 PUSH1 0x1 PUSH1 0xA0 SHL SUB AND PUSH2 0x7D9 PUSH2 0x14CB JUMP JUMPDEST PUSH1 0x1 PUSH1 0x1 PUSH1 0xA0 SHL SUB AND EQ PUSH2 0x7FF JUMPI PUSH1 0x40 MLOAD PUSH3 0x461BCD PUSH1 0xE5 SHL DUP2 MSTORE PUSH1 0x4 ADD PUSH2 0x402 SWAP1 PUSH2 0x3E92 JUMP JUMPDEST DUP1 PUSH1 0x40 ADD MLOAD PUSH1 0x40 ADD MLOAD PUSH2 0x131 PUSH1 0x0 PUSH2 0x815 PUSH2 0x14CB JUMP JUMPDEST PUSH1 0x1 PUSH1 0x1 PUSH1 0xA0 SHL SUB AND PUSH1 0x1 PUSH1 0x1 PUSH1 0xA0 SHL SUB AND DUP2 MSTORE PUSH1 0x20 ADD SWAP1 DUP2 MSTORE PUSH1 0x20 ADD PUSH1 0x0 KECCAK256 DUP3 PUSH2 0x140 ADD MLOAD PUSH1 0x40 MLOAD PUSH2 0x848 SWAP2 SWAP1 PUSH2 0x34DE JUMP JUMPDEST SWAP1 DUP2 MSTORE PUSH1 0x40 DUP1 MLOAD PUSH1 0x20 SWAP3 DUP2 SWAP1 SUB DUP4 ADD SWAP1 KECCAK256 PUSH2 0x1A0 DUP6 ADD MLOAD PUSH2 0xFFFF AND PUSH1 0x0 SWAP1 DUP2 MSTORE SWAP3 MSTORE SWAP1 KECCAK256 SSTORE PUSH32 0x86F8A270A95F47AD48690DD66EDA181EA3D229312582E7D222C11E24F39947D0 PUSH2 0x896 PUSH2 0x14CB JUMP JUMPDEST DUP3 PUSH2 0x140 ADD MLOAD DUP4 PUSH2 0x1A0 ADD MLOAD PUSH1 0x40 MLOAD PUSH2 0x8B1 SWAP4 SWAP3 SWAP2 SWAP1 PUSH2 0x3585 JUMP JUMPDEST PUSH1 0x40 MLOAD DUP1 SWAP2 SUB SWAP1 LOG1 POP JUMP JUMPDEST PUSH1 0x33 SLOAD PUSH1 0x1 PUSH1 0x1 PUSH1 0xA0 SHL SUB AND SWAP1 JUMP JUMPDEST PUSH2 0x163 SLOAD PUSH1 0x1 PUSH1 0x1 PUSH1 0xA0 SHL SUB DUP2 AND SWAP1 PUSH6 0xFFFFFFFFFFFF PUSH1 0x1 PUSH1 0xA0 SHL DUP3 DIV DUP2 AND SWAP2 PUSH1 0x1 PUSH1 0xD0 SHL SWAP1 DIV AND DUP4 JUMP JUMPDEST PUSH1 0x33 SLOAD PUSH1 0x1 PUSH1 0x1 PUSH1 0xA0 SHL SUB AND DUP2 JUMP JUMPDEST PUSH1 0xFF DUP2 AND PUSH1 0x0 SWAP1 DUP2 MSTORE PUSH1 0x97 PUSH1 0x20 MSTORE PUSH1 0x40 SWAP1 KECCAK256 SLOAD PUSH1 0x1 PUSH1 0x1 PUSH1 0xA0 SHL SUB AND JUMPDEST SWAP2 SWAP1 POP JUMP JUMPDEST PUSH2 0x92F PUSH2 0x14CB JUMP JUMPDEST PUSH1 0x1 PUSH1 0x1 PUSH1 0xA0 SHL SUB AND PUSH2 0x940 PUSH2 0x8BC JUMP JUMPDEST PUSH1 0x1 PUSH1 0x1 PUSH1 0xA0 SHL SUB AND EQ PUSH2 0x966 JUMPI PUSH1 0x40 MLOAD PUSH3 0x461BCD PUSH1 0xE5 SHL DUP2 MSTORE PUSH1 0x4 ADD PUSH2 0x402 SWAP1 PUSH2 0x3C86 JUMP JUMPDEST PUSH2 0x96F DUP4 PUSH2 0x986 JUMP JUMPDEST PUSH2 0x978 DUP3 PUSH2 0xB83 JUMP JUMPDEST PUSH2 0x981 DUP2 PUSH2 0xC3A JUMP JUMPDEST POP POP POP JUMP JUMPDEST PUSH2 0x98E PUSH2 0x14CB JUMP JUMPDEST PUSH1 0x1 PUSH1 0x1 PUSH1 0xA0 SHL SUB AND PUSH2 0x99F PUSH2 0x8BC JUMP JUMPDEST PUSH1 0x1 PUSH1 0x1 PUSH1 0xA0 SHL SUB AND EQ PUSH2 0x9C5 JUMPI PUSH1 0x40 MLOAD PUSH3 0x461BCD PUSH1 0xE5 SHL DUP2 MSTORE PUSH1 0x4 ADD PUSH2 0x402 SWAP1 PUSH2 0x3C86 JUMP JUMPDEST PUSH2 0x163 SLOAD PUSH1 0x40 MLOAD PUSH32 0xA4B009CC442411B602EAF94BC0579B6ABDB8FD90B4EF5B9426E270038906BD03 SWAP2 PUSH2 0xA05 SWAP2 PUSH1 0x1 PUSH1 0x1 PUSH1 0xA0 SHL SUB SWAP1 SWAP2 AND SWAP1 DUP5 SWAP1 PUSH2 0x35BD JUMP JUMPDEST PUSH1 0x40 MLOAD DUP1 SWAP2 SUB SWAP1 LOG1 PUSH2 0x163 DUP1 SLOAD PUSH1 0x1 PUSH1 0x1 PUSH1 0xA0 SHL SUB NOT AND PUSH1 0x1 PUSH1 0x1 PUSH1 0xA0 SHL SUB SWAP3 SWAP1 SWAP3 AND SWAP2 SWAP1 SWAP2 OR SWAP1 SSTORE JUMP JUMPDEST PUSH2 0xA38 PUSH2 0x14CB JUMP JUMPDEST PUSH1 0x1 PUSH1 0x1 PUSH1 0xA0 SHL SUB AND PUSH2 0xA49 PUSH2 0x8BC JUMP JUMPDEST PUSH1 0x1 PUSH1 0x1 PUSH1 0xA0 SHL SUB AND EQ PUSH2 0xA6F JUMPI PUSH1 0x40 MLOAD PUSH3 0x461BCD PUSH1 0xE5 SHL DUP2 MSTORE PUSH1 0x4 ADD PUSH2 0x402 SWAP1 PUSH2 0x3C86 JUMP JUMPDEST PUSH1 0x0 DUP3 DUP2 MSTORE PUSH1 0x65 PUSH1 0x20 MSTORE PUSH1 0x40 SWAP1 DUP2 SWAP1 KECCAK256 DUP1 SLOAD PUSH1 0x1 PUSH1 0x1 PUSH1 0xA0 SHL SUB NOT AND PUSH1 0x1 PUSH1 0x1 PUSH1 0xA0 SHL SUB DUP5 AND OR SWAP1 SSTORE MLOAD DUP3 SWAP1 PUSH32 0x58204093ED36D15D7F2A89FDACA20C53F1E02A2CE5686ACE9247D1B96E9EC67B SWAP1 PUSH2 0x71E SWAP1 DUP5 SWAP1 PUSH2 0x3571 JUMP JUMPDEST DUP1 PUSH1 0x20 ADD MLOAD PUSH1 0x1 PUSH1 0x1 PUSH1 0xA0 SHL SUB AND PUSH2 0xADE PUSH2 0x14CB JUMP JUMPDEST PUSH1 0x1 PUSH1 0x1 PUSH1 0xA0 SHL SUB AND EQ PUSH2 0xB04 JUMPI PUSH1 0x40 MLOAD PUSH3 0x461BCD PUSH1 0xE5 SHL DUP2 MSTORE PUSH1 0x4 ADD PUSH2 0x402 SWAP1 PUSH2 0x3E92 JUMP JUMPDEST PUSH1 0xA0 DUP2 ADD MLOAD PUSH2 0xB25 JUMPI PUSH1 0x40 MLOAD PUSH3 0x461BCD PUSH1 0xE5 SHL DUP2 MSTORE PUSH1 0x4 ADD PUSH2 0x402 SWAP1 PUSH2 0x399B JUMP JUMPDEST PUSH1 0x0 PUSH2 0xB30 DUP3 PUSH2 0x155E JUMP JUMPDEST PUSH1 0x0 DUP2 DUP2 MSTORE PUSH2 0x130 PUSH1 0x20 MSTORE PUSH1 0x40 SWAP1 DUP2 SWAP1 KECCAK256 PUSH1 0x0 NOT SWAP1 SSTORE MLOAD SWAP1 SWAP2 POP PUSH32 0xE8D9861DBC9C663ED3ACCD261BBE2FE01E0D3D9E5F51FA38523B265C7757A93A SWAP1 PUSH2 0xB77 SWAP1 DUP4 SWAP1 PUSH2 0x36A6 JUMP JUMPDEST PUSH1 0x40 MLOAD DUP1 SWAP2 SUB SWAP1 LOG1 POP POP JUMP JUMPDEST PUSH2 0xB8B PUSH2 0x14CB JUMP JUMPDEST PUSH1 0x1 PUSH1 0x1 PUSH1 0xA0 SHL SUB AND PUSH2 0xB9C PUSH2 0x8BC JUMP JUMPDEST PUSH1 0x1 PUSH1 0x1 PUSH1 0xA0 SHL SUB AND EQ PUSH2 0xBC2 JUMPI PUSH1 0x40 MLOAD PUSH3 0x461BCD PUSH1 0xE5 SHL DUP2 MSTORE PUSH1 0x4 ADD PUSH2 0x402 SWAP1 PUSH2 0x3C86 JUMP JUMPDEST PUSH2 0x163 SLOAD PUSH1 0x40 MLOAD PUSH32 0x70BBA4F904A93BA5C1AF3A1BB602BC9C058551DBE963DFE0B6CB5BC11C5FEA9E SWAP2 PUSH2 0xC07 SWAP2 PUSH1 0x1 PUSH1 0xA0 SHL SWAP1 SWAP2 DIV PUSH6 0xFFFFFFFFFFFF AND SWAP1 DUP5 SWAP1 PUSH2 0x3F68 JUMP JUMPDEST PUSH1 0x40 MLOAD DUP1 SWAP2 SUB SWAP1 LOG1 PUSH2 0x163 DUP1 SLOAD PUSH6 0xFFFFFFFFFFFF SWAP1 SWAP3 AND PUSH1 0x1 PUSH1 0xA0 SHL MUL PUSH6 0xFFFFFFFFFFFF PUSH1 0xA0 SHL NOT SWAP1 SWAP3 AND SWAP2 SWAP1 SWAP2 OR SWAP1 SSTORE JUMP JUMPDEST PUSH2 0xC42 PUSH2 0x14CB JUMP JUMPDEST PUSH1 0x1 PUSH1 0x1 PUSH1 0xA0 SHL SUB AND PUSH2 0xC53 PUSH2 0x8BC JUMP JUMPDEST PUSH1 0x1 PUSH1 0x1 PUSH1 0xA0 SHL SUB AND EQ PUSH2 0xC79 JUMPI PUSH1 0x40 MLOAD PUSH3 0x461BCD PUSH1 0xE5 SHL DUP2 MSTORE PUSH1 0x4 ADD PUSH2 0x402 SWAP1 PUSH2 0x3C86 JUMP JUMPDEST PUSH2 0x163 SLOAD PUSH1 0x40 MLOAD PUSH32 0xA8AF9093CAA9BEB61D20432227C66258CEEF926F21879B80F3ADF22A4D19F131 SWAP2 PUSH2 0xCBE SWAP2 PUSH1 0x1 PUSH1 0xD0 SHL SWAP1 SWAP2 DIV PUSH6 0xFFFFFFFFFFFF AND SWAP1 DUP5 SWAP1 PUSH2 0x3F68 JUMP JUMPDEST PUSH1 0x40 MLOAD DUP1 SWAP2 SUB SWAP1 LOG1 PUSH2 0x163 DUP1 SLOAD PUSH6 0xFFFFFFFFFFFF SWAP1 SWAP3 AND PUSH1 0x1 PUSH1 0xD0 SHL MUL PUSH1 0x1 PUSH1 0x1 PUSH1 0xD0 SHL SUB SWAP1 SWAP3 AND SWAP2 SWAP1 SWAP2 OR SWAP1 SSTORE JUMP JUMPDEST PUSH2 0xCF6 PUSH2 0x14CB JUMP JUMPDEST PUSH1 0x1 PUSH1 0x1 PUSH1 0xA0 SHL SUB AND PUSH2 0xD07 PUSH2 0x8BC JUMP JUMPDEST PUSH1 0x1 PUSH1 0x1 PUSH1 0xA0 SHL SUB AND EQ PUSH2 0xD2D JUMPI PUSH1 0x40 MLOAD PUSH3 0x461BCD PUSH1 0xE5 SHL DUP2 MSTORE PUSH1 0x4 ADD PUSH2 0x402 SWAP1 PUSH2 0x3C86 JUMP JUMPDEST PUSH1 0x1 PUSH1 0x1 PUSH1 0xA0 SHL SUB DUP2 AND PUSH2 0xD53 JUMPI PUSH1 0x40 MLOAD PUSH3 0x461BCD PUSH1 0xE5 SHL DUP2 MSTORE PUSH1 0x4 ADD PUSH2 0x402 SWAP1 PUSH2 0x391E JUMP JUMPDEST PUSH1 0x33 SLOAD PUSH1 0x40 MLOAD PUSH1 0x1 PUSH1 0x1 PUSH1 0xA0 SHL SUB DUP1 DUP5 AND SWAP3 AND SWAP1 PUSH32 0x8BE0079C531659141344CD1FD0A4F28419497F9722A3DAAFE3B4186F6B6457E0 SWAP1 PUSH1 0x0 SWAP1 LOG3 PUSH1 0x33 DUP1 SLOAD PUSH1 0x1 PUSH1 0x1 PUSH1 0xA0 SHL SUB NOT AND PUSH1 0x1 PUSH1 0x1 PUSH1 0xA0 SHL SUB SWAP3 SWAP1 SWAP3 AND SWAP2 SWAP1 SWAP2 OR SWAP1 SSTORE JUMP JUMPDEST DUP1 MLOAD DUP3 MLOAD EQ PUSH2 0xDD0 JUMPI PUSH1 0x40 MLOAD PUSH3 0x461BCD PUSH1 0xE5 SHL DUP2 MSTORE PUSH1 0x4 ADD PUSH2 0x402 SWAP1 PUSH2 0x3A59 JUMP JUMPDEST PUSH1 0x0 JUMPDEST DUP3 MLOAD DUP2 LT ISZERO PUSH2 0x981 JUMPI PUSH1 0x0 DUP4 DUP3 DUP2 MLOAD DUP2 LT PUSH2 0xDEA JUMPI INVALID JUMPDEST PUSH1 0x20 MUL PUSH1 0x20 ADD ADD MLOAD SWAP1 POP PUSH1 0x0 DUP4 DUP4 DUP2 MLOAD DUP2 LT PUSH2 0xE02 JUMPI INVALID JUMPDEST PUSH1 0x20 MUL PUSH1 0x20 ADD ADD MLOAD SWAP1 POP PUSH1 0x0 PUSH2 0x131 PUSH1 0x0 DUP5 PUSH1 0x20 ADD MLOAD PUSH1 0x1 PUSH1 0x1 PUSH1 0xA0 SHL SUB AND PUSH1 0x1 PUSH1 0x1 PUSH1 0xA0 SHL SUB AND DUP2 MSTORE PUSH1 0x20 ADD SWAP1 DUP2 MSTORE PUSH1 0x20 ADD PUSH1 0x0 KECCAK256 DUP4 PUSH2 0x140 ADD MLOAD PUSH1 0x40 MLOAD PUSH2 0xE4B SWAP2 SWAP1 PUSH2 0x34DE JUMP JUMPDEST SWAP1 DUP2 MSTORE PUSH1 0x40 DUP1 MLOAD PUSH1 0x20 SWAP3 DUP2 SWAP1 SUB DUP4 ADD SWAP1 KECCAK256 PUSH2 0x1A0 DUP7 ADD MLOAD PUSH2 0xFFFF AND PUSH1 0x0 SWAP1 DUP2 MSTORE SWAP3 MSTORE SWAP1 KECCAK256 SLOAD SWAP1 POP PUSH1 0x1 DUP4 MLOAD PUSH1 0x3 DUP2 GT ISZERO PUSH2 0xE81 JUMPI INVALID JUMPDEST EQ ISZERO PUSH2 0xEBF JUMPI PUSH1 0x0 PUSH2 0xE9E DUP5 PUSH2 0x160 ADD MLOAD DUP6 PUSH2 0x180 ADD MLOAD DUP7 PUSH2 0x662 JUMP JUMPDEST SWAP1 POP DUP1 PUSH2 0xEBD JUMPI PUSH1 0x40 MLOAD PUSH3 0x461BCD PUSH1 0xE5 SHL DUP2 MSTORE PUSH1 0x4 ADD PUSH2 0x402 SWAP1 PUSH2 0x3E69 JUMP JUMPDEST POP JUMPDEST PUSH1 0x1 DUP3 MLOAD PUSH1 0x3 DUP2 GT ISZERO PUSH2 0xECE JUMPI INVALID JUMPDEST EQ ISZERO PUSH2 0xF0C JUMPI PUSH1 0x0 PUSH2 0xEEB DUP4 PUSH2 0x160 ADD MLOAD DUP5 PUSH2 0x180 ADD MLOAD DUP6 PUSH2 0x662 JUMP JUMPDEST SWAP1 POP DUP1 PUSH2 0xF0A JUMPI PUSH1 0x40 MLOAD PUSH3 0x461BCD PUSH1 0xE5 SHL DUP2 MSTORE PUSH1 0x4 ADD PUSH2 0x402 SWAP1 PUSH2 0x3E69 JUMP JUMPDEST POP JUMPDEST PUSH2 0xF16 DUP4 DUP4 PUSH2 0x1207 JUMP JUMPDEST PUSH2 0xF20 DUP4 DUP4 PUSH2 0x1597 JUMP JUMPDEST PUSH2 0xF2B DUP4 DUP4 DUP4 PUSH2 0x1341 JUMP JUMPDEST POP POP POP PUSH1 0x1 ADD PUSH2 0xDD3 JUMP JUMPDEST EXTCODESIZE ISZERO ISZERO SWAP1 JUMP JUMPDEST PUSH1 0x0 PUSH2 0xF47 ADDRESS PUSH2 0xF36 JUMP JUMPDEST ISZERO SWAP1 POP SWAP1 JUMP JUMPDEST PUSH1 0x0 SLOAD PUSH2 0x100 SWAP1 DIV PUSH1 0xFF AND DUP1 PUSH2 0xF66 JUMPI POP PUSH2 0xF66 PUSH2 0xF3C JUMP JUMPDEST DUP1 PUSH2 0xF74 JUMPI POP PUSH1 0x0 SLOAD PUSH1 0xFF AND ISZERO JUMPDEST PUSH2 0xF90 JUMPI PUSH1 0x40 MLOAD PUSH3 0x461BCD PUSH1 0xE5 SHL DUP2 MSTORE PUSH1 0x4 ADD PUSH2 0x402 SWAP1 PUSH2 0x3BBF JUMP JUMPDEST PUSH1 0x0 SLOAD PUSH2 0x100 SWAP1 DIV PUSH1 0xFF AND ISZERO DUP1 ISZERO PUSH2 0xFBB JUMPI PUSH1 0x0 DUP1 SLOAD PUSH1 0xFF NOT PUSH2 0xFF00 NOT SWAP1 SWAP2 AND PUSH2 0x100 OR AND PUSH1 0x1 OR SWAP1 SSTORE JUMPDEST DUP1 ISZERO PUSH2 0xFCD JUMPI PUSH1 0x0 DUP1 SLOAD PUSH2 0xFF00 NOT AND SWAP1 SSTORE JUMPDEST POP JUMP JUMPDEST PUSH1 0x0 SLOAD PUSH2 0x100 SWAP1 DIV PUSH1 0xFF AND DUP1 PUSH2 0xFE9 JUMPI POP PUSH2 0xFE9 PUSH2 0xF3C JUMP JUMPDEST DUP1 PUSH2 0xFF7 JUMPI POP PUSH1 0x0 SLOAD PUSH1 0xFF AND ISZERO JUMPDEST PUSH2 0x1013 JUMPI PUSH1 0x40 MLOAD PUSH3 0x461BCD PUSH1 0xE5 SHL DUP2 MSTORE PUSH1 0x4 ADD PUSH2 0x402 SWAP1 PUSH2 0x3BBF JUMP JUMPDEST PUSH1 0x0 SLOAD PUSH2 0x100 SWAP1 DIV PUSH1 0xFF AND ISZERO DUP1 ISZERO PUSH2 0x103E JUMPI PUSH1 0x0 DUP1 SLOAD PUSH1 0xFF NOT PUSH2 0xFF00 NOT SWAP1 SWAP2 AND PUSH2 0x100 OR AND PUSH1 0x1 OR SWAP1 SSTORE JUMPDEST PUSH1 0x0 PUSH2 0x1048 PUSH2 0x14CB JUMP JUMPDEST PUSH1 0x33 DUP1 SLOAD PUSH1 0x1 PUSH1 0x1 PUSH1 0xA0 SHL SUB NOT AND PUSH1 0x1 PUSH1 0x1 PUSH1 0xA0 SHL SUB DUP4 AND SWAP1 DUP2 OR SWAP1 SWAP2 SSTORE PUSH1 0x40 MLOAD SWAP2 SWAP3 POP SWAP1 PUSH1 0x0 SWAP1 PUSH32 0x8BE0079C531659141344CD1FD0A4F28419497F9722A3DAAFE3B4186F6B6457E0 SWAP1 DUP3 SWAP1 LOG3 POP DUP1 ISZERO PUSH2 0xFCD JUMPI PUSH1 0x0 DUP1 SLOAD PUSH2 0xFF00 NOT AND SWAP1 SSTORE POP JUMP JUMPDEST PUSH1 0x97 PUSH1 0x20 MSTORE PUSH32 0xD6CA216B3B8B63BCC0099D5C8294D1780D598AC9B3A29B15C3C3E68C85F6E30C DUP1 SLOAD PUSH1 0x1 PUSH1 0x1 PUSH1 0xA0 SHL SUB SWAP3 DUP4 AND PUSH1 0x1 PUSH1 0x1 PUSH1 0xA0 SHL SUB NOT SWAP2 DUP3 AND OR SWAP1 SWAP2 SSTORE PUSH32 0x17B8D24B2A0F404D68A0B2ABB80FD2D4D2105D3355F1FC48A1949FE7FCE12E5 DUP1 SLOAD SWAP4 SWAP1 SWAP3 AND SWAP3 DUP2 AND DUP4 OR SWAP1 SWAP2 SSTORE PUSH1 0x4 PUSH1 0x0 MSTORE PUSH32 0xF6FE0582E0E323A551F456B66350A1ED549948A34FDD35BE011D229E00171C1F DUP1 SLOAD SWAP1 SWAP2 AND SWAP1 SWAP2 OR SWAP1 SSTORE JUMP JUMPDEST PUSH1 0x0 SLOAD PUSH2 0x100 SWAP1 DIV PUSH1 0xFF AND DUP1 PUSH2 0x1167 JUMPI POP PUSH2 0x1167 PUSH2 0xF3C JUMP JUMPDEST DUP1 PUSH2 0x1175 JUMPI POP PUSH1 0x0 SLOAD PUSH1 0xFF AND ISZERO JUMPDEST PUSH2 0x1191 JUMPI PUSH1 0x40 MLOAD PUSH3 0x461BCD PUSH1 0xE5 SHL DUP2 MSTORE PUSH1 0x4 ADD PUSH2 0x402 SWAP1 PUSH2 0x3BBF JUMP JUMPDEST PUSH1 0x0 SLOAD PUSH2 0x100 SWAP1 DIV PUSH1 0xFF AND ISZERO DUP1 ISZERO PUSH2 0x11BC JUMPI PUSH1 0x0 DUP1 SLOAD PUSH1 0xFF NOT PUSH2 0xFF00 NOT SWAP1 SWAP2 AND PUSH2 0x100 OR AND PUSH1 0x1 OR SWAP1 SSTORE JUMPDEST PUSH2 0x164 DUP1 SLOAD PUSH1 0x1 PUSH1 0x1 PUSH1 0xA0 SHL SUB NOT AND PUSH1 0x1 PUSH1 0x1 PUSH1 0xA0 SHL SUB DUP5 AND OR SWAP1 SSTORE DUP1 ISZERO PUSH2 0x11EA JUMPI PUSH1 0x0 DUP1 SLOAD PUSH2 0xFF00 NOT AND SWAP1 SSTORE JUMPDEST POP POP POP POP JUMP JUMPDEST PUSH2 0x11F9 DUP3 PUSH2 0x198A JUMP JUMPDEST PUSH2 0x1203 DUP3 DUP3 PUSH2 0x19EA JUMP JUMPDEST POP POP JUMP JUMPDEST PUSH1 0x20 DUP1 DUP4 ADD MLOAD PUSH1 0x1 PUSH1 0x1 PUSH1 0xA0 SHL SUB AND PUSH1 0x0 SWAP1 DUP2 MSTORE PUSH2 0x131 SWAP1 SWAP2 MSTORE PUSH1 0x40 DUP1 DUP3 KECCAK256 PUSH2 0x140 DUP6 ADD MLOAD SWAP2 MLOAD SWAP1 SWAP2 PUSH2 0x1239 SWAP2 PUSH2 0x34DE JUMP JUMPDEST SWAP1 DUP2 MSTORE PUSH1 0x20 ADD PUSH1 0x40 MLOAD DUP1 SWAP2 SUB SWAP1 KECCAK256 PUSH1 0x0 DUP5 PUSH2 0x1A0 ADD MLOAD PUSH2 0xFFFF AND PUSH2 0xFFFF AND DUP2 MSTORE PUSH1 0x20 ADD SWAP1 DUP2 MSTORE PUSH1 0x20 ADD PUSH1 0x0 KECCAK256 SLOAD SWAP1 POP DUP3 PUSH1 0x40 ADD MLOAD PUSH1 0x0 ADD MLOAD PUSH1 0xFF AND PUSH1 0x3 EQ ISZERO PUSH2 0x12FB JUMPI PUSH2 0x131 PUSH1 0x0 DUP5 PUSH1 0x20 ADD MLOAD PUSH1 0x1 PUSH1 0x1 PUSH1 0xA0 SHL SUB AND PUSH1 0x1 PUSH1 0x1 PUSH1 0xA0 SHL SUB AND DUP2 MSTORE PUSH1 0x20 ADD SWAP1 DUP2 MSTORE PUSH1 0x20 ADD PUSH1 0x0 KECCAK256 DUP4 PUSH2 0x140 ADD MLOAD PUSH1 0x40 MLOAD PUSH2 0x12B9 SWAP2 SWAP1 PUSH2 0x34DE JUMP JUMPDEST SWAP1 DUP2 MSTORE PUSH1 0x40 DUP1 MLOAD PUSH1 0x20 SWAP3 DUP2 SWAP1 SUB DUP4 ADD SWAP1 KECCAK256 PUSH2 0x1A0 DUP7 ADD MLOAD PUSH2 0xFFFF AND PUSH1 0x0 SWAP1 DUP2 MSTORE SWAP3 MSTORE SWAP1 KECCAK256 SLOAD ISZERO PUSH2 0x12FB JUMPI PUSH1 0x40 MLOAD PUSH3 0x461BCD PUSH1 0xE5 SHL DUP2 MSTORE PUSH1 0x4 ADD PUSH2 0x402 SWAP1 PUSH2 0x3CEA JUMP JUMPDEST DUP3 PUSH1 0x40 ADD MLOAD PUSH1 0x0 ADD MLOAD PUSH1 0xFF AND PUSH1 0x4 EQ ISZERO PUSH2 0x981 JUMPI DUP2 PUSH1 0x80 ADD MLOAD PUSH1 0x40 ADD MLOAD DUP2 ADD DUP4 PUSH1 0x40 ADD MLOAD PUSH1 0x40 ADD MLOAD LT ISZERO PUSH2 0x981 JUMPI PUSH1 0x40 MLOAD PUSH3 0x461BCD PUSH1 0xE5 SHL DUP2 MSTORE PUSH1 0x4 ADD PUSH2 0x402 SWAP1 PUSH2 0x39C9 JUMP JUMPDEST PUSH1 0x0 DUP1 PUSH2 0x134F DUP6 DUP6 DUP6 PUSH2 0x1BDD JUMP JUMPDEST SWAP2 POP SWAP2 POP PUSH2 0x135F DUP6 DUP6 DUP5 DUP5 PUSH2 0x1C63 JUMP JUMPDEST PUSH1 0x0 PUSH1 0x2 DUP7 MLOAD PUSH1 0x3 DUP2 GT ISZERO PUSH2 0x1370 JUMPI INVALID JUMPDEST EQ PUSH2 0x137B JUMPI DUP6 PUSH2 0x137D JUMP JUMPDEST DUP5 JUMPDEST SWAP1 POP PUSH1 0x0 DUP6 PUSH1 0x80 ADD MLOAD PUSH1 0x40 ADD MLOAD PUSH2 0x131 PUSH1 0x0 DUP5 PUSH1 0x20 ADD MLOAD PUSH1 0x1 PUSH1 0x1 PUSH1 0xA0 SHL SUB AND PUSH1 0x1 PUSH1 0x1 PUSH1 0xA0 SHL SUB AND DUP2 MSTORE PUSH1 0x20 ADD SWAP1 DUP2 MSTORE PUSH1 0x20 ADD PUSH1 0x0 KECCAK256 DUP4 PUSH2 0x140 ADD MLOAD PUSH1 0x40 MLOAD PUSH2 0x13C7 SWAP2 SWAP1 PUSH2 0x34DE JUMP JUMPDEST SWAP1 DUP2 MSTORE PUSH1 0x40 DUP1 MLOAD PUSH1 0x20 SWAP3 DUP2 SWAP1 SUB DUP4 ADD DUP2 KECCAK256 PUSH2 0x1A0 DUP8 ADD MLOAD PUSH2 0xFFFF AND PUSH1 0x0 SWAP1 DUP2 MSTORE SWAP1 DUP5 MSTORE DUP3 DUP2 KECCAK256 SLOAD DUP8 DUP6 ADD MLOAD PUSH1 0x1 PUSH1 0x1 PUSH1 0xA0 SHL SUB AND DUP3 MSTORE PUSH2 0x131 SWAP1 SWAP5 MSTORE SWAP2 SWAP1 SWAP2 KECCAK256 PUSH2 0x140 DUP7 ADD MLOAD SWAP4 SWAP1 SWAP3 ADD SWAP4 POP DUP4 SWAP3 PUSH2 0x141E SWAP2 PUSH2 0x34DE JUMP JUMPDEST SWAP1 DUP2 MSTORE PUSH1 0x20 ADD PUSH1 0x40 MLOAD DUP1 SWAP2 SUB SWAP1 KECCAK256 PUSH1 0x0 DUP5 PUSH2 0x1A0 ADD MLOAD PUSH2 0xFFFF AND PUSH2 0xFFFF AND DUP2 MSTORE PUSH1 0x20 ADD SWAP1 DUP2 MSTORE PUSH1 0x20 ADD PUSH1 0x0 KECCAK256 DUP2 SWAP1 SSTORE POP PUSH32 0xA49E31994A96DC315540D6FF9E29428418ADDFA28F6FFCC73DDAD3528E40DDC1 DUP8 PUSH1 0x0 ADD MLOAD DUP9 PUSH1 0x20 ADD MLOAD DUP9 PUSH1 0x20 ADD MLOAD DUP6 PUSH2 0x140 ADD MLOAD DUP7 PUSH2 0x1A0 ADD MLOAD DUP12 PUSH1 0x80 ADD MLOAD PUSH1 0x40 ADD MLOAD DUP13 PUSH1 0x80 ADD MLOAD PUSH1 0x60 ADD MLOAD DUP9 PUSH2 0x14A5 PUSH2 0x217A JUMP JUMPDEST PUSH1 0x40 MLOAD PUSH2 0x14BA SWAP10 SWAP9 SWAP8 SWAP7 SWAP6 SWAP5 SWAP4 SWAP3 SWAP2 SWAP1 PUSH2 0x380B JUMP JUMPDEST PUSH1 0x40 MLOAD DUP1 SWAP2 SUB SWAP1 LOG1 POP POP POP POP POP POP POP JUMP JUMPDEST CALLER SWAP1 JUMP JUMPDEST PUSH2 0x1A0 DUP2 ADD MLOAD PUSH1 0x20 DUP1 DUP4 ADD MLOAD PUSH1 0x40 DUP1 DUP6 ADD MLOAD DUP1 DUP5 ADD MLOAD PUSH1 0x60 DUP1 DUP4 ADD MLOAD DUP4 DUP6 ADD MLOAD SWAP4 MLOAD DUP3 DUP11 ADD MLOAD PUSH1 0x80 DUP12 ADD MLOAD DUP1 DUP11 ADD MLOAD SWAP5 DUP2 ADD MLOAD DUP2 DUP10 ADD MLOAD SWAP2 MLOAD SWAP9 MLOAD PUSH1 0x0 SWAP13 PUSH2 0x1529 SWAP13 SWAP1 SWAP12 SWAP11 SWAP9 SWAP10 SWAP7 SWAP9 SWAP7 SWAP8 SWAP6 SWAP7 SWAP5 SWAP6 SWAP5 SWAP3 SWAP4 SWAP3 SWAP2 ADD PUSH2 0x3F03 JUMP JUMPDEST PUSH1 0x40 MLOAD PUSH1 0x20 DUP2 DUP4 SUB SUB DUP2 MSTORE SWAP1 PUSH1 0x40 MSTORE DUP1 MLOAD SWAP1 PUSH1 0x20 ADD KECCAK256 SWAP1 POP SWAP2 SWAP1 POP JUMP JUMPDEST PUSH1 0x0 DUP3 PUSH2 0x1553 DUP6 DUP5 PUSH2 0x21BA JUMP JUMPDEST EQ SWAP1 POP JUMPDEST SWAP4 SWAP3 POP POP POP JUMP JUMPDEST PUSH1 0x0 DUP2 PUSH1 0x20 ADD MLOAD PUSH2 0x1572 DUP4 PUSH1 0x40 ADD MLOAD PUSH2 0x21F9 JUMP JUMPDEST PUSH2 0x157F DUP5 PUSH1 0x80 ADD MLOAD PUSH2 0x21F9 JUMP JUMPDEST DUP5 PUSH1 0xA0 ADD MLOAD PUSH1 0x40 MLOAD PUSH1 0x20 ADD PUSH2 0x1529 SWAP5 SWAP4 SWAP3 SWAP2 SWAP1 PUSH2 0x3633 JUMP JUMPDEST PUSH2 0x15A6 DUP3 DUP4 PUSH2 0x140 ADD MLOAD PUSH2 0x11F0 JUMP JUMPDEST PUSH2 0x15B5 DUP2 DUP3 PUSH2 0x140 ADD MLOAD PUSH2 0x11F0 JUMP JUMPDEST PUSH1 0x60 DUP3 ADD MLOAD PUSH1 0x1 PUSH1 0x1 PUSH1 0xA0 SHL SUB AND ISZERO PUSH2 0x1614 JUMPI PUSH1 0x20 DUP2 ADD MLOAD PUSH1 0x1 PUSH1 0x1 PUSH1 0xA0 SHL SUB AND ISZERO PUSH2 0x1614 JUMPI DUP2 PUSH1 0x60 ADD MLOAD PUSH1 0x1 PUSH1 0x1 PUSH1 0xA0 SHL SUB AND DUP2 PUSH1 0x20 ADD MLOAD PUSH1 0x1 PUSH1 0x1 PUSH1 0xA0 SHL SUB AND EQ PUSH2 0x1614 JUMPI PUSH1 0x40 MLOAD PUSH3 0x461BCD PUSH1 0xE5 SHL DUP2 MSTORE PUSH1 0x4 ADD PUSH2 0x402 SWAP1 PUSH2 0x3E26 JUMP JUMPDEST PUSH1 0x60 DUP2 ADD MLOAD PUSH1 0x1 PUSH1 0x1 PUSH1 0xA0 SHL SUB AND ISZERO PUSH2 0x1673 JUMPI PUSH1 0x20 DUP3 ADD MLOAD PUSH1 0x1 PUSH1 0x1 PUSH1 0xA0 SHL SUB AND ISZERO PUSH2 0x1673 JUMPI DUP2 PUSH1 0x20 ADD MLOAD PUSH1 0x1 PUSH1 0x1 PUSH1 0xA0 SHL SUB AND DUP2 PUSH1 0x60 ADD MLOAD PUSH1 0x1 PUSH1 0x1 PUSH1 0xA0 SHL SUB AND EQ PUSH2 0x1673 JUMPI PUSH1 0x40 MLOAD PUSH3 0x461BCD PUSH1 0xE5 SHL DUP2 MSTORE PUSH1 0x4 ADD PUSH2 0x402 SWAP1 PUSH2 0x3ADD JUMP JUMPDEST DUP2 PUSH1 0x40 ADD MLOAD PUSH1 0x0 ADD MLOAD PUSH1 0xFF AND PUSH1 0x3 EQ DUP1 PUSH2 0x1698 JUMPI POP DUP2 PUSH1 0x40 ADD MLOAD PUSH1 0x0 ADD MLOAD PUSH1 0xFF AND PUSH1 0x4 EQ JUMPDEST ISZERO PUSH2 0x17BE JUMPI PUSH1 0x80 DUP2 DUP2 ADD MLOAD PUSH1 0x40 SWAP1 DUP2 ADD MLOAD SWAP2 DUP5 ADD MLOAD DUP2 ADD MLOAD SWAP1 DUP4 ADD MLOAD MLOAD PUSH1 0x0 SWAP1 PUSH1 0xFF AND PUSH1 0x2 EQ PUSH2 0x16C8 JUMPI CALLVALUE PUSH2 0x16D2 JUMP JUMPDEST DUP4 PUSH1 0x40 ADD MLOAD PUSH1 0x40 ADD MLOAD JUMPDEST SWAP1 POP DUP4 PUSH1 0x40 ADD MLOAD PUSH1 0x0 ADD MLOAD PUSH1 0xFF AND PUSH1 0x2 EQ ISZERO PUSH2 0x1798 JUMPI PUSH1 0x0 DUP5 PUSH1 0x40 ADD MLOAD PUSH1 0x20 ADD MLOAD PUSH1 0x1 PUSH1 0x1 PUSH1 0xA0 SHL SUB AND PUSH4 0x70A08231 DUP7 PUSH1 0x20 ADD MLOAD PUSH1 0x40 MLOAD DUP3 PUSH4 0xFFFFFFFF AND PUSH1 0xE0 SHL DUP2 MSTORE PUSH1 0x4 ADD PUSH2 0x1722 SWAP2 SWAP1 PUSH2 0x3571 JUMP JUMPDEST PUSH1 0x20 PUSH1 0x40 MLOAD DUP1 DUP4 SUB DUP2 DUP7 DUP1 EXTCODESIZE ISZERO DUP1 ISZERO PUSH2 0x173A JUMPI PUSH1 0x0 DUP1 REVERT JUMPDEST POP GAS STATICCALL ISZERO DUP1 ISZERO PUSH2 0x174E JUMPI RETURNDATASIZE PUSH1 0x0 DUP1 RETURNDATACOPY RETURNDATASIZE PUSH1 0x0 REVERT JUMPDEST POP POP POP POP PUSH1 0x40 MLOAD RETURNDATASIZE PUSH1 0x1F NOT PUSH1 0x1F DUP3 ADD AND DUP3 ADD DUP1 PUSH1 0x40 MSTORE POP DUP2 ADD SWAP1 PUSH2 0x1772 SWAP2 SWAP1 PUSH2 0x33D9 JUMP JUMPDEST SWAP1 POP DUP3 DUP5 MUL DUP2 LT ISZERO PUSH2 0x1796 JUMPI PUSH1 0x40 MLOAD PUSH3 0x461BCD PUSH1 0xE5 SHL DUP2 MSTORE PUSH1 0x4 ADD PUSH2 0x402 SWAP1 PUSH2 0x3D4D JUMP JUMPDEST POP JUMPDEST DUP1 DUP3 DUP5 MUL GT ISZERO PUSH2 0x17BA JUMPI PUSH1 0x40 MLOAD PUSH3 0x461BCD PUSH1 0xE5 SHL DUP2 MSTORE PUSH1 0x4 ADD PUSH2 0x402 SWAP1 PUSH2 0x3D84 JUMP JUMPDEST POP POP POP JUMPDEST DUP1 PUSH1 0x40 ADD MLOAD PUSH1 0x0 ADD MLOAD PUSH1 0xFF AND PUSH1 0x3 EQ DUP1 PUSH2 0x17E3 JUMPI POP DUP1 PUSH1 0x40 ADD MLOAD PUSH1 0x0 ADD MLOAD PUSH1 0xFF AND PUSH1 0x4 EQ JUMPDEST ISZERO PUSH2 0x1203 JUMPI PUSH1 0x80 DUP3 DUP2 ADD MLOAD PUSH1 0x40 SWAP1 DUP2 ADD MLOAD SWAP2 DUP4 ADD MLOAD DUP2 ADD MLOAD SWAP1 DUP5 ADD MLOAD MLOAD PUSH1 0x0 SWAP1 PUSH1 0xFF AND PUSH1 0x2 EQ PUSH2 0x1813 JUMPI CALLVALUE PUSH2 0x189B JUMP JUMPDEST DUP5 PUSH1 0x40 ADD MLOAD PUSH1 0x20 ADD MLOAD PUSH1 0x1 PUSH1 0x1 PUSH1 0xA0 SHL SUB AND PUSH4 0x70A08231 DUP7 PUSH1 0x20 ADD MLOAD PUSH1 0x40 MLOAD DUP3 PUSH4 0xFFFFFFFF AND PUSH1 0xE0 SHL DUP2 MSTORE PUSH1 0x4 ADD PUSH2 0x184B SWAP2 SWAP1 PUSH2 0x3571 JUMP JUMPDEST PUSH1 0x20 PUSH1 0x40 MLOAD DUP1 DUP4 SUB DUP2 DUP7 DUP1 EXTCODESIZE ISZERO DUP1 ISZERO PUSH2 0x1863 JUMPI PUSH1 0x0 DUP1 REVERT JUMPDEST POP GAS STATICCALL ISZERO DUP1 ISZERO PUSH2 0x1877 JUMPI RETURNDATASIZE PUSH1 0x0 DUP1 RETURNDATACOPY RETURNDATASIZE PUSH1 0x0 REVERT JUMPDEST POP POP POP POP PUSH1 0x40 MLOAD RETURNDATASIZE PUSH1 0x1F NOT PUSH1 0x1F DUP3 ADD AND DUP3 ADD DUP1 PUSH1 0x40 MSTORE POP DUP2 ADD SWAP1 PUSH2 0x189B SWAP2 SWAP1 PUSH2 0x33D9 JUMP JUMPDEST SWAP1 POP DUP5 PUSH1 0x40 ADD MLOAD PUSH1 0x0 ADD MLOAD PUSH1 0xFF AND PUSH1 0x2 EQ ISZERO PUSH2 0x1961 JUMPI PUSH1 0x0 DUP6 PUSH1 0x40 ADD MLOAD PUSH1 0x20 ADD MLOAD PUSH1 0x1 PUSH1 0x1 PUSH1 0xA0 SHL SUB AND PUSH4 0x70A08231 DUP8 PUSH1 0x20 ADD MLOAD PUSH1 0x40 MLOAD DUP3 PUSH4 0xFFFFFFFF AND PUSH1 0xE0 SHL DUP2 MSTORE PUSH1 0x4 ADD PUSH2 0x18EB SWAP2 SWAP1 PUSH2 0x3571 JUMP JUMPDEST PUSH1 0x20 PUSH1 0x40 MLOAD DUP1 DUP4 SUB DUP2 DUP7 DUP1 EXTCODESIZE ISZERO DUP1 ISZERO PUSH2 0x1903 JUMPI PUSH1 0x0 DUP1 REVERT JUMPDEST POP GAS STATICCALL ISZERO DUP1 ISZERO PUSH2 0x1917 JUMPI RETURNDATASIZE PUSH1 0x0 DUP1 RETURNDATACOPY RETURNDATASIZE PUSH1 0x0 REVERT JUMPDEST POP POP POP POP PUSH1 0x40 MLOAD RETURNDATASIZE PUSH1 0x1F NOT PUSH1 0x1F DUP3 ADD AND DUP3 ADD DUP1 PUSH1 0x40 MSTORE POP DUP2 ADD SWAP1 PUSH2 0x193B SWAP2 SWAP1 PUSH2 0x33D9 JUMP JUMPDEST SWAP1 POP DUP3 DUP5 MUL DUP2 LT ISZERO PUSH2 0x195F JUMPI PUSH1 0x40 MLOAD PUSH3 0x461BCD PUSH1 0xE5 SHL DUP2 MSTORE PUSH1 0x4 ADD PUSH2 0x402 SWAP1 PUSH2 0x3D4D JUMP JUMPDEST POP JUMPDEST DUP1 DUP3 DUP5 MUL GT ISZERO PUSH2 0x1983 JUMPI PUSH1 0x40 MLOAD PUSH3 0x461BCD PUSH1 0xE5 SHL DUP2 MSTORE PUSH1 0x4 ADD PUSH2 0x402 SWAP1 PUSH2 0x3D84 JUMP JUMPDEST POP POP POP POP POP JUMP JUMPDEST PUSH1 0xC0 DUP2 ADD MLOAD ISZERO DUP1 PUSH2 0x199E JUMPI POP TIMESTAMP DUP2 PUSH1 0xC0 ADD MLOAD LT JUMPDEST PUSH2 0x19BA JUMPI PUSH1 0x40 MLOAD PUSH3 0x461BCD PUSH1 0xE5 SHL DUP2 MSTORE PUSH1 0x4 ADD PUSH2 0x402 SWAP1 PUSH2 0x3C0D JUMP JUMPDEST PUSH1 0xE0 DUP2 ADD MLOAD ISZERO DUP1 PUSH2 0x19CE JUMPI POP TIMESTAMP DUP2 PUSH1 0xE0 ADD MLOAD GT JUMPDEST PUSH2 0xFCD JUMPI PUSH1 0x40 MLOAD PUSH3 0x461BCD PUSH1 0xE5 SHL DUP2 MSTORE PUSH1 0x4 ADD PUSH2 0x402 SWAP1 PUSH2 0x3964 JUMP JUMPDEST PUSH1 0xA0 DUP3 ADD MLOAD PUSH2 0x1A47 JUMPI PUSH1 0x20 DUP3 ADD MLOAD PUSH1 0x1 PUSH1 0x1 PUSH1 0xA0 SHL SUB AND ISZERO PUSH2 0x1A42 JUMPI DUP2 PUSH1 0x20 ADD MLOAD PUSH1 0x1 PUSH1 0x1 PUSH1 0xA0 SHL SUB AND PUSH2 0x1A1C PUSH2 0x14CB JUMP JUMPDEST PUSH1 0x1 PUSH1 0x1 PUSH1 0xA0 SHL SUB AND EQ PUSH2 0x1A42 JUMPI PUSH1 0x40 MLOAD PUSH3 0x461BCD PUSH1 0xE5 SHL DUP2 MSTORE PUSH1 0x4 ADD PUSH2 0x402 SWAP1 PUSH2 0x3B8F JUMP JUMPDEST PUSH2 0x1203 JUMP JUMPDEST PUSH1 0x0 DUP3 MLOAD PUSH1 0x3 DUP2 GT ISZERO PUSH2 0x1A56 JUMPI INVALID JUMPDEST EQ DUP1 PUSH2 0x1A6E JUMPI POP PUSH1 0x2 DUP3 MLOAD PUSH1 0x3 DUP2 GT ISZERO PUSH2 0x1A6C JUMPI INVALID JUMPDEST EQ JUMPDEST ISZERO PUSH2 0x1B1B JUMPI PUSH1 0x0 PUSH2 0x1A7E DUP4 PUSH2 0x2216 JUMP JUMPDEST SWAP1 POP DUP3 PUSH1 0x20 ADD MLOAD PUSH1 0x1 PUSH1 0x1 PUSH1 0xA0 SHL SUB AND PUSH2 0x1A96 PUSH2 0x14CB JUMP JUMPDEST PUSH1 0x1 PUSH1 0x1 PUSH1 0xA0 SHL SUB AND EQ PUSH2 0x1B15 JUMPI DUP3 PUSH1 0x20 ADD MLOAD PUSH1 0x1 PUSH1 0x1 PUSH1 0xA0 SHL SUB AND PUSH2 0x1AC5 DUP4 PUSH2 0x1ABF DUP5 PUSH2 0x228A JUMP JUMPDEST SWAP1 PUSH2 0x22A6 JUMP JUMPDEST PUSH1 0x1 PUSH1 0x1 PUSH1 0xA0 SHL SUB AND EQ PUSH2 0x1AEB JUMPI PUSH1 0x40 MLOAD PUSH3 0x461BCD PUSH1 0xE5 SHL DUP2 MSTORE PUSH1 0x4 ADD PUSH2 0x402 SWAP1 PUSH2 0x3B21 JUMP JUMPDEST PUSH1 0x20 DUP4 ADD MLOAD PUSH1 0x1 PUSH1 0x1 PUSH1 0xA0 SHL SUB AND PUSH2 0x1B15 JUMPI PUSH1 0x40 MLOAD PUSH3 0x461BCD PUSH1 0xE5 SHL DUP2 MSTORE PUSH1 0x4 ADD PUSH2 0x402 SWAP1 PUSH2 0x3A37 JUMP JUMPDEST POP PUSH2 0x1203 JUMP JUMPDEST PUSH1 0x3 DUP3 MLOAD PUSH1 0x3 DUP2 GT ISZERO PUSH2 0x1B2A JUMPI INVALID JUMPDEST EQ ISZERO PUSH2 0x1B3B JUMPI PUSH1 0x0 PUSH2 0x1A7E DUP4 PUSH2 0x22F1 JUMP JUMPDEST DUP2 PUSH1 0x20 ADD MLOAD PUSH1 0x1 PUSH1 0x1 PUSH1 0xA0 SHL SUB AND PUSH2 0x1B51 PUSH2 0x14CB JUMP JUMPDEST PUSH1 0x1 PUSH1 0x1 PUSH1 0xA0 SHL SUB AND EQ PUSH2 0x1203 JUMPI PUSH1 0x0 PUSH2 0x1B70 DUP4 DUP5 PUSH2 0x160 ADD MLOAD PUSH2 0x2326 JUMP JUMPDEST SWAP1 POP DUP3 PUSH1 0x20 ADD MLOAD PUSH1 0x1 PUSH1 0x1 PUSH1 0xA0 SHL SUB AND PUSH2 0x1B8D DUP4 PUSH2 0x1ABF DUP5 PUSH2 0x228A JUMP JUMPDEST PUSH1 0x1 PUSH1 0x1 PUSH1 0xA0 SHL SUB AND EQ PUSH2 0x1BB3 JUMPI PUSH1 0x40 MLOAD PUSH3 0x461BCD PUSH1 0xE5 SHL DUP2 MSTORE PUSH1 0x4 ADD PUSH2 0x402 SWAP1 PUSH2 0x3B21 JUMP JUMPDEST PUSH1 0x20 DUP4 ADD MLOAD PUSH1 0x1 PUSH1 0x1 PUSH1 0xA0 SHL SUB AND PUSH2 0x981 JUMPI PUSH1 0x40 MLOAD PUSH3 0x461BCD PUSH1 0xE5 SHL DUP2 MSTORE PUSH1 0x4 ADD PUSH2 0x402 SWAP1 PUSH2 0x3A37 JUMP JUMPDEST PUSH2 0x1BE5 PUSH2 0x2D99 JUMP JUMPDEST PUSH2 0x1BED PUSH2 0x2D99 JUMP JUMPDEST PUSH2 0x1C00 DUP6 PUSH1 0x40 ADD MLOAD DUP6 PUSH1 0x80 ADD MLOAD DUP6 PUSH2 0x2385 JUMP JUMPDEST DUP1 MLOAD SWAP1 SWAP3 POP PUSH1 0xFF AND PUSH2 0x1C24 JUMPI PUSH1 0x40 MLOAD PUSH3 0x461BCD PUSH1 0xE5 SHL DUP2 MSTORE PUSH1 0x4 ADD PUSH2 0x402 SWAP1 PUSH2 0x3D21 JUMP JUMPDEST PUSH2 0x1C37 DUP6 PUSH1 0x80 ADD MLOAD DUP6 PUSH1 0x40 ADD MLOAD DUP6 PUSH2 0x2385 JUMP JUMPDEST DUP1 MLOAD SWAP1 SWAP2 POP PUSH1 0xFF AND PUSH2 0x1C5B JUMPI PUSH1 0x40 MLOAD PUSH3 0x461BCD PUSH1 0xE5 SHL DUP2 MSTORE PUSH1 0x4 ADD PUSH2 0x402 SWAP1 PUSH2 0x3D21 JUMP JUMPDEST SWAP4 POP SWAP4 SWAP2 POP POP JUMP JUMPDEST PUSH2 0x1DCB PUSH1 0x40 MLOAD DUP1 PUSH1 0x80 ADD PUSH1 0x40 MSTORE DUP1 PUSH1 0x40 MLOAD DUP1 PUSH1 0x80 ADD PUSH1 0x40 MSTORE DUP1 DUP7 PUSH1 0x0 ADD MLOAD PUSH1 0xFF AND DUP2 MSTORE PUSH1 0x20 ADD DUP7 PUSH1 0x20 ADD MLOAD PUSH1 0x1 PUSH1 0x1 PUSH1 0xA0 SHL SUB AND DUP2 MSTORE PUSH1 0x20 ADD DUP7 PUSH1 0x40 ADD MLOAD DUP2 MSTORE PUSH1 0x20 ADD DUP7 PUSH1 0x60 ADD MLOAD DUP2 MSTORE POP DUP2 MSTORE PUSH1 0x20 ADD PUSH1 0x97 PUSH1 0x0 DUP7 PUSH1 0x0 ADD MLOAD PUSH1 0xFF AND PUSH1 0xFF AND DUP2 MSTORE PUSH1 0x20 ADD SWAP1 DUP2 MSTORE PUSH1 0x20 ADD PUSH1 0x0 KECCAK256 PUSH1 0x0 SWAP1 SLOAD SWAP1 PUSH2 0x100 EXP SWAP1 DIV PUSH1 0x1 PUSH1 0x1 PUSH1 0xA0 SHL SUB AND PUSH1 0x1 PUSH1 0x1 PUSH1 0xA0 SHL SUB AND DUP2 MSTORE PUSH1 0x20 ADD DUP7 PUSH1 0x20 ADD MLOAD PUSH1 0x1 PUSH1 0x1 PUSH1 0xA0 SHL SUB AND DUP2 MSTORE PUSH1 0x20 ADD DUP6 PUSH1 0x20 ADD MLOAD PUSH1 0x1 PUSH1 0x1 PUSH1 0xA0 SHL SUB AND DUP2 MSTORE POP PUSH1 0x40 MLOAD DUP1 PUSH1 0x80 ADD PUSH1 0x40 MSTORE DUP1 PUSH1 0x40 MLOAD DUP1 PUSH1 0x80 ADD PUSH1 0x40 MSTORE DUP1 DUP7 PUSH1 0x0 ADD MLOAD PUSH1 0xFF AND DUP2 MSTORE PUSH1 0x20 ADD DUP7 PUSH1 0x20 ADD MLOAD PUSH1 0x1 PUSH1 0x1 PUSH1 0xA0 SHL SUB AND DUP2 MSTORE PUSH1 0x20 ADD DUP7 PUSH1 0x40 ADD MLOAD DUP2 MSTORE PUSH1 0x20 ADD DUP7 PUSH1 0x60 ADD MLOAD DUP2 MSTORE POP DUP2 MSTORE PUSH1 0x20 ADD PUSH1 0x97 PUSH1 0x0 DUP7 PUSH1 0x0 ADD MLOAD PUSH1 0xFF AND PUSH1 0xFF AND DUP2 MSTORE PUSH1 0x20 ADD SWAP1 DUP2 MSTORE PUSH1 0x20 ADD PUSH1 0x0 KECCAK256 PUSH1 0x0 SWAP1 SLOAD SWAP1 PUSH2 0x100 EXP SWAP1 DIV PUSH1 0x1 PUSH1 0x1 PUSH1 0xA0 SHL SUB AND PUSH1 0x1 PUSH1 0x1 PUSH1 0xA0 SHL SUB AND DUP2 MSTORE PUSH1 0x20 ADD DUP7 PUSH1 0x20 ADD MLOAD PUSH1 0x1 PUSH1 0x1 PUSH1 0xA0 SHL SUB AND DUP2 MSTORE PUSH1 0x20 ADD DUP8 PUSH1 0x20 ADD MLOAD PUSH1 0x1 PUSH1 0x1 PUSH1 0xA0 SHL SUB AND DUP2 MSTORE POP PUSH2 0x23C6 JUMP JUMPDEST POP POP DUP1 PUSH1 0x0 ADD MLOAD PUSH1 0xFF AND PUSH1 0x1 EQ DUP1 PUSH2 0x1DEA JUMPI POP DUP1 PUSH1 0x0 ADD MLOAD PUSH1 0xFF AND PUSH1 0x2 EQ JUMPDEST ISZERO PUSH2 0x1FC3 JUMPI DUP1 PUSH1 0x0 ADD MLOAD PUSH1 0xFF AND PUSH1 0x1 EQ ISZERO PUSH2 0x1E1D JUMPI DUP4 PUSH1 0x40 ADD MLOAD PUSH1 0x0 ADD MLOAD PUSH1 0xFF AND PUSH1 0x1 EQ ISZERO PUSH2 0x1E18 JUMPI PUSH1 0x0 DUP1 REVERT JUMPDEST PUSH2 0x1E36 JUMP JUMPDEST DUP4 PUSH1 0x40 ADD MLOAD PUSH1 0x0 ADD MLOAD PUSH1 0xFF AND PUSH1 0x2 EQ ISZERO PUSH2 0x1E36 JUMPI PUSH1 0x0 DUP1 REVERT JUMPDEST PUSH1 0x0 PUSH2 0x2710 DUP6 PUSH2 0x100 ADD MLOAD PUSH1 0x20 ADD MLOAD DUP4 PUSH1 0x40 ADD MLOAD MUL DUP2 PUSH2 0x1E52 JUMPI INVALID JUMPDEST DIV SWAP1 POP PUSH1 0x0 PUSH2 0x2710 DUP7 PUSH2 0x120 ADD MLOAD PUSH1 0x20 ADD MLOAD DUP5 PUSH1 0x40 ADD MLOAD MUL DUP2 PUSH2 0x1E71 JUMPI INVALID JUMPDEST DIV SWAP1 POP PUSH1 0x0 DUP2 DUP4 DUP6 PUSH1 0x40 ADD MLOAD SUB SUB SWAP1 POP PUSH2 0x1EFD PUSH1 0x40 MLOAD DUP1 PUSH1 0x80 ADD PUSH1 0x40 MSTORE DUP1 DUP7 PUSH1 0x0 ADD MLOAD PUSH1 0xFF AND DUP2 MSTORE PUSH1 0x20 ADD DUP7 PUSH1 0x20 ADD MLOAD PUSH1 0x1 PUSH1 0x1 PUSH1 0xA0 SHL SUB AND DUP2 MSTORE PUSH1 0x20 ADD DUP4 DUP2 MSTORE PUSH1 0x20 ADD DUP7 PUSH1 0x60 ADD MLOAD DUP2 MSTORE POP DUP8 PUSH1 0x20 ADD MLOAD DUP10 PUSH1 0x20 ADD MLOAD PUSH1 0x97 PUSH1 0x0 DUP10 PUSH1 0x0 ADD MLOAD PUSH1 0xFF AND PUSH1 0xFF AND DUP2 MSTORE PUSH1 0x20 ADD SWAP1 DUP2 MSTORE PUSH1 0x20 ADD PUSH1 0x0 KECCAK256 PUSH1 0x0 SWAP1 SLOAD SWAP1 PUSH2 0x100 EXP SWAP1 DIV PUSH1 0x1 PUSH1 0x1 PUSH1 0xA0 SHL SUB AND PUSH2 0x2451 JUMP JUMPDEST PUSH1 0x40 DUP1 MLOAD PUSH1 0x80 DUP2 ADD DUP3 MSTORE DUP6 MLOAD PUSH1 0xFF SWAP1 DUP2 AND DUP3 MSTORE PUSH1 0x20 DUP1 DUP9 ADD MLOAD PUSH1 0x1 PUSH1 0x1 PUSH1 0xA0 SHL SUB SWAP1 DUP2 AND DUP3 DUP6 ADD MSTORE DUP4 DUP6 ADD DUP9 SWAP1 MSTORE PUSH1 0x60 DUP1 DUP11 ADD MLOAD SWAP1 DUP6 ADD MSTORE DUP11 DUP3 ADD MLOAD DUP10 MLOAD SWAP1 SWAP4 AND PUSH1 0x0 SWAP1 DUP2 MSTORE PUSH1 0x97 SWAP1 SWAP3 MSTORE SWAP4 SWAP1 KECCAK256 SLOAD PUSH2 0x1F58 SWAP4 ADDRESS SWAP2 AND PUSH2 0x2451 JUMP JUMPDEST PUSH1 0x40 DUP1 MLOAD PUSH1 0x80 DUP2 ADD DUP3 MSTORE DUP6 MLOAD PUSH1 0xFF SWAP1 DUP2 AND DUP3 MSTORE PUSH1 0x20 DUP1 DUP9 ADD MLOAD PUSH1 0x1 PUSH1 0x1 PUSH1 0xA0 SHL SUB SWAP1 DUP2 AND DUP3 DUP6 ADD MSTORE DUP4 DUP6 ADD DUP8 SWAP1 MSTORE PUSH1 0x60 DUP1 DUP11 ADD MLOAD SWAP1 DUP6 ADD MSTORE DUP11 DUP3 ADD MLOAD PUSH2 0x120 DUP14 ADD MLOAD MLOAD DUP11 MLOAD SWAP1 SWAP5 AND PUSH1 0x0 SWAP1 DUP2 MSTORE PUSH1 0x97 SWAP1 SWAP4 MSTORE SWAP5 SWAP1 SWAP2 KECCAK256 SLOAD PUSH2 0x1FBB SWAP5 SWAP3 SWAP2 AND PUSH2 0x2451 JUMP JUMPDEST POP POP POP PUSH2 0x11EA JUMP JUMPDEST DUP2 PUSH1 0x0 ADD MLOAD PUSH1 0xFF AND PUSH1 0x1 EQ ISZERO PUSH2 0x11EA JUMPI DUP3 PUSH1 0x40 ADD MLOAD PUSH1 0x0 ADD MLOAD PUSH1 0xFF AND PUSH1 0x1 EQ ISZERO PUSH2 0x1FEC JUMPI PUSH1 0x0 DUP1 REVERT JUMPDEST PUSH1 0x0 PUSH2 0x2710 DUP5 PUSH2 0x100 ADD MLOAD PUSH1 0x20 ADD MLOAD DUP5 PUSH1 0x40 ADD MLOAD MUL DUP2 PUSH2 0x2008 JUMPI INVALID JUMPDEST DIV SWAP1 POP PUSH1 0x0 PUSH2 0x2710 DUP6 PUSH2 0x120 ADD MLOAD PUSH1 0x20 ADD MLOAD DUP6 PUSH1 0x40 ADD MLOAD MUL DUP2 PUSH2 0x2027 JUMPI INVALID JUMPDEST DIV SWAP1 POP PUSH1 0x0 DUP2 DUP4 DUP7 PUSH1 0x40 ADD MLOAD SUB SUB SWAP1 POP PUSH2 0x20B3 PUSH1 0x40 MLOAD DUP1 PUSH1 0x80 ADD PUSH1 0x40 MSTORE DUP1 DUP8 PUSH1 0x0 ADD MLOAD PUSH1 0xFF AND DUP2 MSTORE PUSH1 0x20 ADD DUP8 PUSH1 0x20 ADD MLOAD PUSH1 0x1 PUSH1 0x1 PUSH1 0xA0 SHL SUB AND DUP2 MSTORE PUSH1 0x20 ADD DUP4 DUP2 MSTORE PUSH1 0x20 ADD DUP8 PUSH1 0x60 ADD MLOAD DUP2 MSTORE POP DUP9 PUSH1 0x20 ADD MLOAD DUP9 PUSH1 0x20 ADD MLOAD PUSH1 0x97 PUSH1 0x0 DUP11 PUSH1 0x0 ADD MLOAD PUSH1 0xFF AND PUSH1 0xFF AND DUP2 MSTORE PUSH1 0x20 ADD SWAP1 DUP2 MSTORE PUSH1 0x20 ADD PUSH1 0x0 KECCAK256 PUSH1 0x0 SWAP1 SLOAD SWAP1 PUSH2 0x100 EXP SWAP1 DIV PUSH1 0x1 PUSH1 0x1 PUSH1 0xA0 SHL SUB AND PUSH2 0x2451 JUMP JUMPDEST PUSH1 0x40 DUP1 MLOAD PUSH1 0x80 DUP2 ADD DUP3 MSTORE DUP7 MLOAD PUSH1 0xFF SWAP1 DUP2 AND DUP3 MSTORE PUSH1 0x20 DUP1 DUP10 ADD MLOAD PUSH1 0x1 PUSH1 0x1 PUSH1 0xA0 SHL SUB SWAP1 DUP2 AND DUP3 DUP6 ADD MSTORE DUP4 DUP6 ADD DUP9 SWAP1 MSTORE PUSH1 0x60 DUP1 DUP12 ADD MLOAD SWAP1 DUP6 ADD MSTORE DUP12 DUP3 ADD MLOAD DUP11 MLOAD SWAP1 SWAP4 AND PUSH1 0x0 SWAP1 DUP2 MSTORE PUSH1 0x97 SWAP1 SWAP3 MSTORE SWAP4 SWAP1 KECCAK256 SLOAD PUSH2 0x210E SWAP4 ADDRESS SWAP2 AND PUSH2 0x2451 JUMP JUMPDEST PUSH1 0x40 DUP1 MLOAD PUSH1 0x80 DUP2 ADD DUP3 MSTORE DUP7 MLOAD PUSH1 0xFF SWAP1 DUP2 AND DUP3 MSTORE PUSH1 0x20 DUP1 DUP10 ADD MLOAD PUSH1 0x1 PUSH1 0x1 PUSH1 0xA0 SHL SUB SWAP1 DUP2 AND DUP3 DUP6 ADD MSTORE DUP4 DUP6 ADD DUP8 SWAP1 MSTORE PUSH1 0x60 DUP1 DUP12 ADD MLOAD SWAP1 DUP6 ADD MSTORE DUP12 DUP3 ADD MLOAD PUSH2 0x120 DUP13 ADD MLOAD MLOAD DUP12 MLOAD SWAP1 SWAP5 AND PUSH1 0x0 SWAP1 DUP2 MSTORE PUSH1 0x97 SWAP1 SWAP4 MSTORE SWAP5 SWAP1 SWAP2 KECCAK256 SLOAD PUSH2 0x2171 SWAP5 SWAP3 SWAP2 AND PUSH2 0x2451 JUMP JUMPDEST POP POP POP POP POP POP POP JUMP JUMPDEST PUSH2 0x12F DUP1 SLOAD PUSH1 0x1 ADD SWAP1 DUP2 SWAP1 SSTORE PUSH1 0x40 MLOAD PUSH1 0x0 SWAP2 PUSH2 0x219C SWAP2 TIMESTAMP SWAP2 CALLER SWAP2 PUSH1 0x20 ADD PUSH2 0x3549 JUMP JUMPDEST PUSH1 0x40 MLOAD PUSH1 0x20 DUP2 DUP4 SUB SUB DUP2 MSTORE SWAP1 PUSH1 0x40 MSTORE DUP1 MLOAD SWAP1 PUSH1 0x20 ADD KECCAK256 PUSH1 0x0 SHR SWAP1 POP SWAP1 JUMP JUMPDEST PUSH1 0x0 DUP2 DUP2 JUMPDEST DUP5 MLOAD DUP2 LT ISZERO PUSH2 0x21EF JUMPI PUSH2 0x21E5 DUP3 DUP7 DUP4 DUP2 MLOAD DUP2 LT PUSH2 0x21D8 JUMPI INVALID JUMPDEST PUSH1 0x20 MUL PUSH1 0x20 ADD ADD MLOAD PUSH2 0x27AE JUMP JUMPDEST SWAP2 POP PUSH1 0x1 ADD PUSH2 0x21BF JUMP JUMPDEST POP SWAP1 POP JUMPDEST SWAP3 SWAP2 POP POP JUMP JUMPDEST PUSH1 0x0 DUP2 PUSH1 0x0 ADD MLOAD DUP3 PUSH1 0x40 ADD MLOAD PUSH1 0x40 MLOAD PUSH1 0x20 ADD PUSH2 0x1529 SWAP3 SWAP2 SWAP1 PUSH2 0x3F81 JUMP JUMPDEST PUSH1 0x0 PUSH32 0x1132F06AB722F27908A7E495B5D507BAD407E55F68DCF746F8D69417E3F1928C DUP3 PUSH1 0x20 ADD MLOAD PUSH2 0x224B DUP5 PUSH1 0x40 ADD MLOAD PUSH2 0x27D0 JUMP JUMPDEST DUP5 PUSH1 0x60 ADD MLOAD PUSH2 0x225D DUP7 PUSH1 0x80 ADD MLOAD PUSH2 0x27D0 JUMP JUMPDEST DUP7 PUSH1 0xA0 ADD MLOAD DUP8 PUSH1 0xC0 ADD MLOAD DUP9 PUSH1 0xE0 ADD MLOAD DUP10 PUSH2 0x1A0 ADD MLOAD PUSH1 0x40 MLOAD PUSH1 0x20 ADD PUSH2 0x1529 SWAP10 SWAP9 SWAP8 SWAP7 SWAP6 SWAP5 SWAP4 SWAP3 SWAP2 SWAP1 PUSH2 0x36AF JUMP JUMPDEST PUSH1 0x0 PUSH2 0x2294 PUSH2 0x281B JUMP JUMPDEST DUP3 PUSH1 0x40 MLOAD PUSH1 0x20 ADD PUSH2 0x1529 SWAP3 SWAP2 SWAP1 PUSH2 0x352B JUMP JUMPDEST PUSH1 0x0 DUP2 MLOAD PUSH1 0x41 EQ PUSH2 0x22C9 JUMPI PUSH1 0x40 MLOAD PUSH3 0x461BCD PUSH1 0xE5 SHL DUP2 MSTORE PUSH1 0x4 ADD PUSH2 0x402 SWAP1 PUSH2 0x38E7 JUMP JUMPDEST PUSH1 0x20 DUP3 ADD MLOAD PUSH1 0x40 DUP4 ADD MLOAD PUSH1 0x60 DUP5 ADD MLOAD PUSH1 0x0 BYTE PUSH2 0x22E7 DUP7 DUP3 DUP6 DUP6 PUSH2 0x285B JUMP JUMPDEST SWAP7 SWAP6 POP POP POP POP POP POP JUMP JUMPDEST PUSH1 0x0 PUSH32 0x1ED8993288C7297BA6796429DE1857DC650EFA21A30299103497824FA02BA343 DUP3 PUSH1 0x20 ADD MLOAD PUSH2 0x224B DUP5 PUSH1 0x40 ADD MLOAD PUSH2 0x27D0 JUMP JUMPDEST PUSH1 0x0 PUSH32 0x15FED0D06DB788FB9C02B4F593BD4ADFF95588D2736481B94A54A44275FAE9FC DUP4 PUSH1 0x20 ADD MLOAD DUP4 DUP6 PUSH1 0xA0 ADD MLOAD PUSH1 0x40 MLOAD PUSH1 0x20 ADD PUSH2 0x2367 SWAP5 SWAP4 SWAP3 SWAP2 SWAP1 PUSH2 0x3701 JUMP JUMPDEST PUSH1 0x40 MLOAD PUSH1 0x20 DUP2 DUP4 SUB SUB DUP2 MSTORE SWAP1 PUSH1 0x40 MSTORE DUP1 MLOAD SWAP1 PUSH1 0x20 ADD KECCAK256 SWAP1 POP SWAP3 SWAP2 POP POP JUMP JUMPDEST PUSH2 0x238D PUSH2 0x2D99 JUMP JUMPDEST PUSH1 0x0 PUSH2 0x239A DUP6 DUP6 DUP6 PUSH2 0x29EC JUMP JUMPDEST SWAP1 POP DUP1 PUSH1 0x0 ADD MLOAD PUSH1 0xFF AND PUSH1 0x1 EQ ISZERO PUSH2 0x23BF JUMPI PUSH2 0x23B7 DUP5 DUP7 DUP6 PUSH2 0x29EC JUMP JUMPDEST SWAP2 POP POP PUSH2 0x1557 JUMP JUMPDEST SWAP1 POP PUSH2 0x1557 JUMP JUMPDEST DUP2 MLOAD PUSH1 0x40 DUP1 DUP3 ADD MLOAD DUP4 MLOAD SWAP1 SWAP2 ADD MLOAD SWAP2 MLOAD SWAP1 SWAP2 SWAP1 PUSH1 0xFF AND PUSH1 0x3 EQ DUP1 PUSH2 0x23EF JUMPI POP DUP4 MLOAD MLOAD PUSH1 0xFF AND PUSH1 0x4 EQ JUMPDEST ISZERO PUSH2 0x2410 JUMPI PUSH2 0x2410 DUP5 PUSH1 0x0 ADD MLOAD DUP6 PUSH1 0x40 ADD MLOAD DUP7 PUSH1 0x60 ADD MLOAD DUP8 PUSH1 0x20 ADD MLOAD PUSH2 0x2451 JUMP JUMPDEST DUP3 MLOAD MLOAD PUSH1 0xFF AND PUSH1 0x3 EQ DUP1 PUSH2 0x2429 JUMPI POP DUP3 MLOAD MLOAD PUSH1 0xFF AND PUSH1 0x4 EQ JUMPDEST ISZERO PUSH2 0x244A JUMPI PUSH2 0x244A DUP4 PUSH1 0x0 ADD MLOAD DUP5 PUSH1 0x40 ADD MLOAD DUP6 PUSH1 0x60 ADD MLOAD DUP7 PUSH1 0x20 ADD MLOAD PUSH2 0x2451 JUMP JUMPDEST SWAP3 POP SWAP3 SWAP1 POP JUMP JUMPDEST DUP4 PUSH1 0x0 ADD MLOAD PUSH1 0xFF AND PUSH1 0x3 EQ ISZERO PUSH2 0x2576 JUMPI DUP4 PUSH1 0x40 ADD MLOAD PUSH1 0x1 EQ PUSH2 0x2485 JUMPI PUSH1 0x40 MLOAD PUSH3 0x461BCD PUSH1 0xE5 SHL DUP2 MSTORE PUSH1 0x4 ADD PUSH2 0x402 SWAP1 PUSH2 0x3B63 JUMP JUMPDEST PUSH1 0x1 PUSH1 0x1 PUSH1 0xA0 SHL SUB DUP4 AND ADDRESS EQ ISZERO PUSH2 0x2506 JUMPI PUSH1 0x20 DUP5 ADD MLOAD PUSH1 0x60 DUP6 ADD MLOAD PUSH1 0x40 MLOAD PUSH4 0x21421707 PUSH1 0xE1 SHL DUP2 MSTORE PUSH1 0x1 PUSH1 0x1 PUSH1 0xA0 SHL SUB SWAP1 SWAP3 AND SWAP2 PUSH4 0x42842E0E SWAP2 PUSH2 0x24CF SWAP2 ADDRESS SWAP2 DUP8 SWAP2 PUSH1 0x4 ADD PUSH2 0x35D7 JUMP JUMPDEST PUSH1 0x0 PUSH1 0x40 MLOAD DUP1 DUP4 SUB DUP2 PUSH1 0x0 DUP8 DUP1 EXTCODESIZE ISZERO DUP1 ISZERO PUSH2 0x24E9 JUMPI PUSH1 0x0 DUP1 REVERT JUMPDEST POP GAS CALL ISZERO DUP1 ISZERO PUSH2 0x24FD JUMPI RETURNDATASIZE PUSH1 0x0 DUP1 RETURNDATACOPY RETURNDATASIZE PUSH1 0x0 REVERT JUMPDEST POP POP POP POP PUSH2 0x2571 JUMP JUMPDEST PUSH1 0x20 DUP5 ADD MLOAD PUSH1 0x60 DUP6 ADD MLOAD PUSH1 0x40 MLOAD PUSH4 0x7B84DC83 PUSH1 0xE1 SHL DUP2 MSTORE PUSH1 0x1 PUSH1 0x1 PUSH1 0xA0 SHL SUB DUP5 AND SWAP3 PUSH4 0xF709B906 SWAP3 PUSH2 0x253E SWAP3 DUP9 SWAP2 DUP9 SWAP2 PUSH1 0x4 ADD PUSH2 0x37E1 JUMP JUMPDEST PUSH1 0x0 PUSH1 0x40 MLOAD DUP1 DUP4 SUB DUP2 PUSH1 0x0 DUP8 DUP1 EXTCODESIZE ISZERO DUP1 ISZERO PUSH2 0x2558 JUMPI PUSH1 0x0 DUP1 REVERT JUMPDEST POP GAS CALL ISZERO DUP1 ISZERO PUSH2 0x256C JUMPI RETURNDATASIZE PUSH1 0x0 DUP1 RETURNDATACOPY RETURNDATASIZE PUSH1 0x0 REVERT JUMPDEST POP POP POP POP JUMPDEST PUSH2 0x11EA JUMP JUMPDEST DUP4 PUSH1 0x0 ADD MLOAD PUSH1 0xFF AND PUSH1 0x2 EQ ISZERO PUSH2 0x2678 JUMPI PUSH1 0x1 PUSH1 0x1 PUSH1 0xA0 SHL SUB DUP4 AND ADDRESS EQ ISZERO PUSH2 0x2640 JUMPI DUP4 PUSH1 0x20 ADD MLOAD PUSH1 0x1 PUSH1 0x1 PUSH1 0xA0 SHL SUB AND PUSH4 0xA9059CBB DUP4 DUP7 PUSH1 0x40 ADD MLOAD PUSH1 0x40 MLOAD DUP4 PUSH4 0xFFFFFFFF AND PUSH1 0xE0 SHL DUP2 MSTORE PUSH1 0x4 ADD PUSH2 0x25CD SWAP3 SWAP2 SWAP1 PUSH2 0x3659 JUMP JUMPDEST PUSH1 0x20 PUSH1 0x40 MLOAD DUP1 DUP4 SUB DUP2 PUSH1 0x0 DUP8 DUP1 EXTCODESIZE ISZERO DUP1 ISZERO PUSH2 0x25E7 JUMPI PUSH1 0x0 DUP1 REVERT JUMPDEST POP GAS CALL ISZERO DUP1 ISZERO PUSH2 0x25FB JUMPI RETURNDATASIZE PUSH1 0x0 DUP1 RETURNDATACOPY RETURNDATASIZE PUSH1 0x0 REVERT JUMPDEST POP POP POP POP PUSH1 0x40 MLOAD RETURNDATASIZE PUSH1 0x1F NOT PUSH1 0x1F DUP3 ADD AND DUP3 ADD DUP1 PUSH1 0x40 MSTORE POP DUP2 ADD SWAP1 PUSH2 0x261F SWAP2 SWAP1 PUSH2 0x3256 JUMP JUMPDEST PUSH2 0x263B JUMPI PUSH1 0x40 MLOAD PUSH3 0x461BCD PUSH1 0xE5 SHL DUP2 MSTORE PUSH1 0x4 ADD PUSH2 0x402 SWAP1 PUSH2 0x3CBB JUMP JUMPDEST PUSH2 0x2571 JUMP JUMPDEST PUSH1 0x20 DUP5 ADD MLOAD PUSH1 0x40 DUP1 DUP7 ADD MLOAD SWAP1 MLOAD PUSH4 0x776062C3 PUSH1 0xE0 SHL DUP2 MSTORE PUSH1 0x1 PUSH1 0x1 PUSH1 0xA0 SHL SUB DUP5 AND SWAP3 PUSH4 0x776062C3 SWAP3 PUSH2 0x253E SWAP3 DUP9 SWAP2 DUP9 SWAP2 PUSH1 0x4 ADD PUSH2 0x37E1 JUMP JUMPDEST DUP4 PUSH1 0x0 ADD MLOAD PUSH1 0xFF AND PUSH1 0x4 EQ ISZERO PUSH2 0x2717 JUMPI PUSH1 0x1 PUSH1 0x1 PUSH1 0xA0 SHL SUB DUP4 AND ADDRESS EQ ISZERO PUSH2 0x26D7 JUMPI DUP4 PUSH1 0x20 ADD MLOAD PUSH1 0x1 PUSH1 0x1 PUSH1 0xA0 SHL SUB AND PUSH4 0xF242432A ADDRESS DUP5 DUP8 PUSH1 0x60 ADD MLOAD DUP9 PUSH1 0x40 ADD MLOAD PUSH1 0x40 MLOAD DUP6 PUSH4 0xFFFFFFFF AND PUSH1 0xE0 SHL DUP2 MSTORE PUSH1 0x4 ADD PUSH2 0x24CF SWAP5 SWAP4 SWAP3 SWAP2 SWAP1 PUSH2 0x35FB JUMP JUMPDEST PUSH1 0x20 DUP5 ADD MLOAD PUSH1 0x60 DUP6 ADD MLOAD PUSH1 0x40 DUP1 DUP8 ADD MLOAD SWAP1 MLOAD PUSH4 0x9C1C2EE9 PUSH1 0xE0 SHL DUP2 MSTORE PUSH1 0x1 PUSH1 0x1 PUSH1 0xA0 SHL SUB DUP6 AND SWAP4 PUSH4 0x9C1C2EE9 SWAP4 PUSH2 0x253E SWAP4 SWAP2 SWAP3 DUP10 SWAP3 DUP10 SWAP3 SWAP2 PUSH1 0x4 ADD PUSH2 0x379E JUMP JUMPDEST DUP4 PUSH1 0x0 ADD MLOAD PUSH1 0xFF AND PUSH1 0x1 EQ ISZERO PUSH2 0x2750 JUMPI PUSH1 0x1 PUSH1 0x1 PUSH1 0xA0 SHL SUB DUP3 AND ADDRESS EQ PUSH2 0x2571 JUMPI PUSH1 0x40 DUP5 ADD MLOAD PUSH2 0x2571 SWAP1 PUSH1 0x1 PUSH1 0x1 PUSH1 0xA0 SHL SUB DUP5 AND SWAP1 PUSH2 0x2BB9 JUMP JUMPDEST PUSH1 0x40 MLOAD PUSH4 0x25712823 PUSH1 0xE2 SHL DUP2 MSTORE PUSH1 0x1 PUSH1 0x1 PUSH1 0xA0 SHL SUB DUP3 AND SWAP1 PUSH4 0x95C4A08C SWAP1 PUSH2 0x2780 SWAP1 DUP8 SWAP1 DUP8 SWAP1 DUP8 SWAP1 PUSH1 0x4 ADD PUSH2 0x3EB7 JUMP JUMPDEST PUSH1 0x0 PUSH1 0x40 MLOAD DUP1 DUP4 SUB DUP2 PUSH1 0x0 DUP8 DUP1 EXTCODESIZE ISZERO DUP1 ISZERO PUSH2 0x279A JUMPI PUSH1 0x0 DUP1 REVERT JUMPDEST POP GAS CALL ISZERO DUP1 ISZERO PUSH2 0x5F6 JUMPI RETURNDATASIZE PUSH1 0x0 DUP1 RETURNDATACOPY RETURNDATASIZE PUSH1 0x0 REVERT JUMPDEST PUSH1 0x0 DUP2 DUP4 LT PUSH2 0x27C6 JUMPI PUSH2 0x27C1 DUP3 DUP5 PUSH2 0x2C35 JUMP JUMPDEST PUSH2 0x1557 JUMP JUMPDEST PUSH2 0x1557 DUP4 DUP4 PUSH2 0x2C35 JUMP JUMPDEST PUSH1 0x0 PUSH32 0x3EB30932C8579E044A08D6C2DB9CFBBE826C3C715D5F913A07FDB3B62620FC2C DUP3 PUSH1 0x0 ADD MLOAD DUP4 PUSH1 0x20 ADD MLOAD DUP5 PUSH1 0x40 ADD MLOAD DUP6 PUSH1 0x60 ADD MLOAD PUSH1 0x40 MLOAD PUSH1 0x20 ADD PUSH2 0x1529 SWAP6 SWAP5 SWAP4 SWAP3 SWAP2 SWAP1 PUSH2 0x3751 JUMP JUMPDEST PUSH1 0x0 PUSH2 0x2856 PUSH32 0x8B73C3C69BB8FE3D512ECC4CF759CC79239F7B179B0FFACAA9A75D522B39400F PUSH2 0x2849 PUSH2 0x2C44 JUMP JUMPDEST PUSH2 0x2851 PUSH2 0x2C4A JUMP JUMPDEST PUSH2 0x2C50 JUMP JUMPDEST SWAP1 POP SWAP1 JUMP JUMPDEST PUSH1 0x0 PUSH32 0x7FFFFFFFFFFFFFFFFFFFFFFFFFFFFFFF5D576E7357A4501DDFE92F46681B20A0 DUP3 GT ISZERO PUSH2 0x289D JUMPI PUSH1 0x40 MLOAD PUSH3 0x461BCD PUSH1 0xE5 SHL DUP2 MSTORE PUSH1 0x4 ADD PUSH2 0x402 SWAP1 PUSH2 0x3A9B JUMP JUMPDEST PUSH1 0x0 PUSH1 0x1E DUP6 PUSH1 0xFF AND GT ISZERO PUSH2 0x2943 JUMPI PUSH1 0x4 DUP6 SUB PUSH1 0xFF AND PUSH1 0x1B EQ DUP1 PUSH2 0x28C6 JUMPI POP PUSH1 0x4 DUP6 SUB PUSH1 0xFF AND PUSH1 0x1C EQ JUMPDEST PUSH2 0x28E2 JUMPI PUSH1 0x40 MLOAD PUSH3 0x461BCD PUSH1 0xE5 SHL DUP2 MSTORE PUSH1 0x4 ADD PUSH2 0x402 SWAP1 PUSH2 0x3C44 JUMP JUMPDEST PUSH1 0x1 PUSH2 0x28ED DUP8 PUSH2 0x2C91 JUMP JUMPDEST PUSH1 0x4 DUP8 SUB DUP7 DUP7 PUSH1 0x40 MLOAD PUSH1 0x0 DUP2 MSTORE PUSH1 0x20 ADD PUSH1 0x40 MSTORE PUSH1 0x40 MLOAD PUSH2 0x2910 SWAP5 SWAP4 SWAP3 SWAP2 SWAP1 PUSH2 0x3780 JUMP JUMPDEST PUSH1 0x20 PUSH1 0x40 MLOAD PUSH1 0x20 DUP2 SUB SWAP1 DUP1 DUP5 SUB SWAP1 DUP6 GAS STATICCALL ISZERO DUP1 ISZERO PUSH2 0x2932 JUMPI RETURNDATASIZE PUSH1 0x0 DUP1 RETURNDATACOPY RETURNDATASIZE PUSH1 0x0 REVERT JUMPDEST POP POP POP PUSH1 0x20 PUSH1 0x40 MLOAD SUB MLOAD SWAP1 POP PUSH2 0x29C6 JUMP JUMPDEST DUP5 PUSH1 0xFF AND PUSH1 0x1B EQ DUP1 PUSH2 0x2958 JUMPI POP DUP5 PUSH1 0xFF AND PUSH1 0x1C EQ JUMPDEST PUSH2 0x2974 JUMPI PUSH1 0x40 MLOAD PUSH3 0x461BCD PUSH1 0xE5 SHL DUP2 MSTORE PUSH1 0x4 ADD PUSH2 0x402 SWAP1 PUSH2 0x3C44 JUMP JUMPDEST PUSH1 0x1 DUP7 DUP7 DUP7 DUP7 PUSH1 0x40 MLOAD PUSH1 0x0 DUP2 MSTORE PUSH1 0x20 ADD PUSH1 0x40 MSTORE PUSH1 0x40 MLOAD PUSH2 0x2997 SWAP5 SWAP4 SWAP3 SWAP2 SWAP1 PUSH2 0x3780 JUMP JUMPDEST PUSH1 0x20 PUSH1 0x40 MLOAD PUSH1 0x20 DUP2 SUB SWAP1 DUP1 DUP5 SUB SWAP1 DUP6 GAS STATICCALL ISZERO DUP1 ISZERO PUSH2 0x29B9 JUMPI RETURNDATASIZE PUSH1 0x0 DUP1 RETURNDATACOPY RETURNDATASIZE PUSH1 0x0 REVERT JUMPDEST POP POP POP PUSH1 0x20 PUSH1 0x40 MLOAD SUB MLOAD SWAP1 POP JUMPDEST PUSH1 0x1 PUSH1 0x1 PUSH1 0xA0 SHL SUB DUP2 AND PUSH2 0x67B JUMPI PUSH1 0x40 MLOAD PUSH3 0x461BCD PUSH1 0xE5 SHL DUP2 MSTORE PUSH1 0x4 ADD PUSH2 0x402 SWAP1 PUSH2 0x3879 JUMP JUMPDEST PUSH2 0x29F4 PUSH2 0x2D99 JUMP JUMPDEST PUSH1 0x0 DUP1 DUP6 PUSH1 0x0 ADD MLOAD PUSH1 0xFF AND PUSH1 0x1 EQ ISZERO PUSH2 0x2A53 JUMPI DUP5 PUSH1 0x0 ADD MLOAD PUSH1 0xFF AND PUSH1 0x1 EQ ISZERO PUSH2 0x2A21 JUMPI DUP6 SWAP3 POP POP POP PUSH2 0x1557 JUMP JUMPDEST PUSH1 0x40 DUP1 MLOAD PUSH1 0x80 DUP2 ADD DUP3 MSTORE PUSH1 0x0 DUP2 MSTORE PUSH1 0x1 PUSH1 0x1 PUSH1 0xA0 SHL SUB SWAP1 SWAP3 AND PUSH1 0x20 DUP4 ADD MSTORE DUP2 ADD DUP3 SWAP1 MSTORE PUSH1 0x60 DUP2 ADD SWAP2 SWAP1 SWAP2 MSTORE SWAP1 POP PUSH2 0x1557 JUMP JUMPDEST DUP6 PUSH1 0x0 ADD MLOAD PUSH1 0xFF AND PUSH1 0x2 EQ ISZERO PUSH2 0x2A86 JUMPI DUP5 PUSH1 0x0 ADD MLOAD PUSH1 0xFF AND PUSH1 0x2 EQ ISZERO PUSH2 0x2A21 JUMPI PUSH2 0x2A7D DUP7 DUP7 PUSH2 0x2CA4 JUMP JUMPDEST SWAP3 POP POP POP PUSH2 0x1557 JUMP JUMPDEST DUP6 PUSH1 0x0 ADD MLOAD PUSH1 0xFF AND PUSH1 0x3 EQ ISZERO PUSH2 0x2AB0 JUMPI DUP5 PUSH1 0x0 ADD MLOAD PUSH1 0xFF AND PUSH1 0x3 EQ ISZERO PUSH2 0x2A21 JUMPI PUSH2 0x2A7D DUP7 DUP7 PUSH2 0x2CA4 JUMP JUMPDEST DUP6 PUSH1 0x0 ADD MLOAD PUSH1 0xFF AND PUSH1 0x4 EQ ISZERO PUSH2 0x2ADB JUMPI DUP5 PUSH1 0x0 ADD MLOAD PUSH1 0xFF AND PUSH1 0x4 EQ ISZERO PUSH2 0x2A21 JUMPI PUSH2 0x2A7D DUP7 DUP7 DUP7 PUSH2 0x2D15 JUMP JUMPDEST DUP6 MLOAD PUSH1 0xFF AND PUSH1 0x0 SWAP1 DUP2 MSTORE PUSH1 0x65 PUSH1 0x20 MSTORE PUSH1 0x40 SWAP1 KECCAK256 SLOAD PUSH1 0x1 PUSH1 0x1 PUSH1 0xA0 SHL SUB AND DUP1 ISZERO PUSH2 0x2B86 JUMPI PUSH1 0x40 MLOAD PUSH4 0x8DC614FF PUSH1 0xE0 SHL DUP2 MSTORE PUSH1 0x1 PUSH1 0x1 PUSH1 0xA0 SHL SUB DUP3 AND SWAP1 PUSH4 0x8DC614FF SWAP1 PUSH2 0x2B2C SWAP1 DUP11 SWAP1 DUP11 SWAP1 PUSH1 0x4 ADD PUSH2 0x3EE7 JUMP JUMPDEST PUSH1 0x80 PUSH1 0x40 MLOAD DUP1 DUP4 SUB DUP2 DUP7 DUP1 EXTCODESIZE ISZERO DUP1 ISZERO PUSH2 0x2B44 JUMPI PUSH1 0x0 DUP1 REVERT JUMPDEST POP GAS STATICCALL ISZERO DUP1 ISZERO PUSH2 0x2B58 JUMPI RETURNDATASIZE PUSH1 0x0 DUP1 RETURNDATACOPY RETURNDATASIZE PUSH1 0x0 REVERT JUMPDEST POP POP POP POP PUSH1 0x40 MLOAD RETURNDATASIZE PUSH1 0x1F NOT PUSH1 0x1F DUP3 ADD AND DUP3 ADD DUP1 PUSH1 0x40 MSTORE POP DUP2 ADD SWAP1 PUSH2 0x2B7C SWAP2 SWAP1 PUSH2 0x3330 JUMP JUMPDEST SWAP4 POP POP POP POP PUSH2 0x1557 JUMP JUMPDEST DUP6 MLOAD DUP8 MLOAD PUSH1 0xFF SWAP1 DUP2 AND SWAP2 AND EQ ISZERO PUSH2 0x2BA1 JUMPI PUSH2 0x2B7C DUP8 DUP8 PUSH2 0x2CA4 JUMP JUMPDEST PUSH1 0x40 MLOAD PUSH3 0x461BCD PUSH1 0xE5 SHL DUP2 MSTORE PUSH1 0x4 ADD PUSH2 0x402 SWAP1 PUSH2 0x38B0 JUMP JUMPDEST PUSH1 0x0 DUP3 PUSH1 0x1 PUSH1 0x1 PUSH1 0xA0 SHL SUB AND DUP3 PUSH1 0x40 MLOAD PUSH2 0x2BD2 SWAP1 PUSH2 0x3546 JUMP JUMPDEST PUSH1 0x0 PUSH1 0x40 MLOAD DUP1 DUP4 SUB DUP2 DUP6 DUP8 GAS CALL SWAP3 POP POP POP RETURNDATASIZE DUP1 PUSH1 0x0 DUP2 EQ PUSH2 0x2C0F JUMPI PUSH1 0x40 MLOAD SWAP2 POP PUSH1 0x1F NOT PUSH1 0x3F RETURNDATASIZE ADD AND DUP3 ADD PUSH1 0x40 MSTORE RETURNDATASIZE DUP3 MSTORE RETURNDATASIZE PUSH1 0x0 PUSH1 0x20 DUP5 ADD RETURNDATACOPY PUSH2 0x2C14 JUMP JUMPDEST PUSH1 0x60 SWAP2 POP JUMPDEST POP POP SWAP1 POP DUP1 PUSH2 0x981 JUMPI PUSH1 0x40 MLOAD PUSH3 0x461BCD PUSH1 0xE5 SHL DUP2 MSTORE PUSH1 0x4 ADD PUSH2 0x402 SWAP1 PUSH2 0x3DBB JUMP JUMPDEST PUSH1 0x0 SWAP2 DUP3 MSTORE PUSH1 0x20 MSTORE PUSH1 0x40 SWAP1 KECCAK256 SWAP1 JUMP JUMPDEST PUSH1 0xC9 SLOAD SWAP1 JUMP JUMPDEST PUSH1 0xCA SLOAD SWAP1 JUMP JUMPDEST PUSH1 0x0 DUP4 DUP4 DUP4 PUSH2 0x2C5D PUSH2 0x2D95 JUMP JUMPDEST ADDRESS PUSH1 0x40 MLOAD PUSH1 0x20 ADD PUSH2 0x2C72 SWAP6 SWAP5 SWAP4 SWAP3 SWAP2 SWAP1 PUSH2 0x3725 JUMP JUMPDEST PUSH1 0x40 MLOAD PUSH1 0x20 DUP2 DUP4 SUB SUB DUP2 MSTORE SWAP1 PUSH1 0x40 MSTORE DUP1 MLOAD SWAP1 PUSH1 0x20 ADD KECCAK256 SWAP1 POP SWAP4 SWAP3 POP POP POP JUMP JUMPDEST PUSH1 0x0 DUP2 PUSH1 0x40 MLOAD PUSH1 0x20 ADD PUSH2 0x1529 SWAP2 SWAP1 PUSH2 0x34FA JUMP JUMPDEST PUSH2 0x2CAC PUSH2 0x2D99 JUMP JUMPDEST PUSH1 0x0 DUP1 DUP4 PUSH1 0x0 ADD MLOAD PUSH1 0xFF AND DUP6 PUSH1 0x0 ADD MLOAD PUSH1 0xFF AND EQ DUP1 ISZERO PUSH2 0x2CD3 JUMPI POP DUP4 PUSH1 0x40 ADD MLOAD DUP6 PUSH1 0x40 ADD MLOAD EQ JUMPDEST ISZERO PUSH2 0x2CE2 JUMPI DUP5 SWAP3 POP POP POP PUSH2 0x21F3 JUMP JUMPDEST PUSH1 0x40 DUP1 MLOAD PUSH1 0x80 DUP2 ADD DUP3 MSTORE PUSH1 0x1 DUP2 MSTORE PUSH1 0x1 PUSH1 0x1 PUSH1 0xA0 SHL SUB SWAP1 SWAP3 AND PUSH1 0x20 DUP4 ADD MSTORE DUP2 ADD DUP3 SWAP1 MSTORE PUSH1 0x60 DUP2 ADD SWAP2 SWAP1 SWAP2 MSTORE SWAP1 POP SWAP3 SWAP2 POP POP JUMP JUMPDEST PUSH2 0x2D1D PUSH2 0x2D99 JUMP JUMPDEST PUSH1 0x0 DUP1 DUP6 PUSH1 0x0 ADD MLOAD PUSH1 0xFF AND PUSH1 0x4 EQ ISZERO PUSH2 0x2D61 JUMPI DUP5 MLOAD DUP7 MLOAD PUSH1 0xFF SWAP1 DUP2 AND SWAP2 AND EQ DUP1 ISZERO PUSH2 0x2D52 JUMPI POP DUP5 PUSH1 0x40 ADD MLOAD DUP5 ADD DUP7 PUSH1 0x40 ADD MLOAD LT ISZERO JUMPDEST ISZERO PUSH2 0x2D61 JUMPI DUP5 SWAP3 POP POP POP PUSH2 0x1557 JUMP JUMPDEST PUSH1 0x40 DUP1 MLOAD PUSH1 0x80 DUP2 ADD DUP3 MSTORE PUSH1 0x0 DUP2 MSTORE PUSH1 0x1 PUSH1 0x1 PUSH1 0xA0 SHL SUB SWAP1 SWAP3 AND PUSH1 0x20 DUP4 ADD MSTORE DUP2 ADD DUP3 SWAP1 MSTORE PUSH1 0x60 DUP2 ADD SWAP2 SWAP1 SWAP2 MSTORE SWAP1 POP SWAP4 SWAP3 POP POP POP JUMP JUMPDEST CHAINID SWAP1 JUMP JUMPDEST PUSH1 0x40 MLOAD DUP1 PUSH1 0x80 ADD PUSH1 0x40 MSTORE DUP1 PUSH1 0x0 PUSH1 0xFF AND DUP2 MSTORE PUSH1 0x20 ADD PUSH1 0x0 PUSH1 0x1 PUSH1 0x1 PUSH1 0xA0 SHL SUB AND DUP2 MSTORE PUSH1 0x20 ADD PUSH1 0x0 DUP2 MSTORE PUSH1 0x20 ADD PUSH1 0x0 DUP2 MSTORE POP SWAP1 JUMP JUMPDEST DUP1 CALLDATALOAD PUSH2 0x922 DUP2 PUSH2 0x4024 JUMP JUMPDEST PUSH1 0x0 DUP3 PUSH1 0x1F DUP4 ADD SLT PUSH2 0x2DE8 JUMPI DUP1 DUP2 REVERT JUMPDEST DUP2 CALLDATALOAD PUSH1 0x20 PUSH2 0x2DFD PUSH2 0x2DF8 DUP4 PUSH2 0x3FCE JUMP JUMPDEST PUSH2 0x3FAA JUMP JUMPDEST DUP3 DUP2 MSTORE DUP2 DUP2 ADD SWAP1 DUP6 DUP4 ADD DUP4 DUP6 MUL DUP8 ADD DUP5 ADD DUP9 LT ISZERO PUSH2 0x2E19 JUMPI DUP6 DUP7 REVERT JUMPDEST DUP6 JUMPDEST DUP6 DUP2 LT ISZERO PUSH2 0x2E37 JUMPI DUP2 CALLDATALOAD DUP5 MSTORE SWAP3 DUP5 ADD SWAP3 SWAP1 DUP5 ADD SWAP1 PUSH1 0x1 ADD PUSH2 0x2E1B JUMP JUMPDEST POP SWAP1 SWAP8 SWAP7 POP POP POP POP POP POP POP JUMP JUMPDEST PUSH1 0x0 DUP3 PUSH1 0x1F DUP4 ADD SLT PUSH2 0x2E54 JUMPI DUP1 DUP2 REVERT JUMPDEST DUP2 CALLDATALOAD PUSH1 0x20 PUSH2 0x2E64 PUSH2 0x2DF8 DUP4 PUSH2 0x3FCE JUMP JUMPDEST DUP3 DUP2 MSTORE DUP2 DUP2 ADD SWAP1 DUP6 DUP4 ADD DUP6 JUMPDEST DUP6 DUP2 LT ISZERO PUSH2 0x2E37 JUMPI PUSH2 0x2E87 DUP10 DUP7 DUP5 CALLDATALOAD DUP12 ADD ADD PUSH2 0x2FD0 JUMP JUMPDEST DUP5 MSTORE SWAP3 DUP5 ADD SWAP3 SWAP1 DUP5 ADD SWAP1 PUSH1 0x1 ADD PUSH2 0x2E70 JUMP JUMPDEST PUSH1 0x0 DUP3 PUSH1 0x1F DUP4 ADD SLT PUSH2 0x2EA9 JUMPI DUP1 DUP2 REVERT JUMPDEST DUP2 CALLDATALOAD PUSH8 0xFFFFFFFFFFFFFFFF DUP2 GT ISZERO PUSH2 0x2EBD JUMPI INVALID JUMPDEST PUSH2 0x2ED0 PUSH1 0x1F DUP3 ADD PUSH1 0x1F NOT AND PUSH1 0x20 ADD PUSH2 0x3FAA JUMP JUMPDEST DUP2 DUP2 MSTORE DUP5 PUSH1 0x20 DUP4 DUP7 ADD ADD GT ISZERO PUSH2 0x2EE4 JUMPI DUP3 DUP4 REVERT JUMPDEST DUP2 PUSH1 0x20 DUP6 ADD PUSH1 0x20 DUP4 ADD CALLDATACOPY SWAP1 DUP2 ADD PUSH1 0x20 ADD SWAP2 SWAP1 SWAP2 MSTORE SWAP3 SWAP2 POP POP JUMP JUMPDEST DUP1 CALLDATALOAD PUSH1 0x4 DUP2 LT PUSH2 0x922 JUMPI PUSH1 0x0 DUP1 REVERT JUMPDEST PUSH1 0x0 PUSH1 0x80 DUP3 DUP5 SUB SLT ISZERO PUSH2 0x2F1E JUMPI DUP1 DUP2 REVERT JUMPDEST PUSH1 0x40 MLOAD PUSH1 0x80 DUP2 ADD DUP2 DUP2 LT PUSH8 0xFFFFFFFFFFFFFFFF DUP3 GT OR ISZERO PUSH2 0x2F3B JUMPI INVALID JUMPDEST PUSH1 0x40 MSTORE SWAP1 POP DUP1 DUP3 CALLDATALOAD PUSH2 0x2F4C DUP2 PUSH2 0x4039 JUMP JUMPDEST DUP2 MSTORE PUSH1 0x20 DUP4 ADD CALLDATALOAD PUSH2 0x2F5C DUP2 PUSH2 0x4024 JUMP JUMPDEST DUP1 PUSH1 0x20 DUP4 ADD MSTORE POP PUSH1 0x40 DUP4 ADD CALLDATALOAD PUSH1 0x40 DUP3 ADD MSTORE PUSH1 0x60 DUP4 ADD CALLDATALOAD PUSH1 0x60 DUP3 ADD MSTORE POP SWAP3 SWAP2 POP POP JUMP JUMPDEST PUSH1 0x0 PUSH1 0x40 DUP3 DUP5 SUB SLT ISZERO PUSH2 0x2F8F JUMPI DUP1 DUP2 REVERT JUMPDEST PUSH1 0x40 MLOAD PUSH1 0x40 DUP2 ADD DUP2 DUP2 LT PUSH8 0xFFFFFFFFFFFFFFFF DUP3 GT OR ISZERO PUSH2 0x2FAC JUMPI INVALID JUMPDEST PUSH1 0x40 MSTORE SWAP1 POP DUP1 DUP3 CALLDATALOAD PUSH2 0x2FBD DUP2 PUSH2 0x4024 JUMP JUMPDEST DUP2 MSTORE PUSH1 0x20 SWAP3 DUP4 ADD CALLDATALOAD SWAP3 ADD SWAP2 SWAP1 SWAP2 MSTORE SWAP2 SWAP1 POP JUMP JUMPDEST PUSH1 0x0 PUSH2 0x2C0 DUP3 DUP5 SUB SLT ISZERO PUSH2 0x2FE2 JUMPI DUP1 DUP2 REVERT JUMPDEST PUSH2 0x1C0 PUSH2 0x2FEE DUP2 PUSH2 0x3FAA JUMP JUMPDEST SWAP2 POP PUSH2 0x2FF9 DUP4 PUSH2 0x2EFE JUMP JUMPDEST DUP3 MSTORE PUSH2 0x3007 PUSH1 0x20 DUP5 ADD PUSH2 0x2DCD JUMP JUMPDEST PUSH1 0x20 DUP4 ADD MSTORE PUSH2 0x3019 DUP5 PUSH1 0x40 DUP6 ADD PUSH2 0x2F0D JUMP JUMPDEST PUSH1 0x40 DUP4 ADD MSTORE PUSH2 0x302A PUSH1 0xC0 DUP5 ADD PUSH2 0x2DCD JUMP JUMPDEST PUSH1 0x60 DUP4 ADD MSTORE PUSH2 0x303C DUP5 PUSH1 0xE0 DUP6 ADD PUSH2 0x2F0D JUMP JUMPDEST PUSH1 0x80 DUP4 ADD MSTORE PUSH2 0x160 DUP1 DUP5 ADD CALLDATALOAD PUSH1 0xA0 DUP5 ADD MSTORE PUSH2 0x180 DUP1 DUP6 ADD CALLDATALOAD PUSH1 0xC0 DUP6 ADD MSTORE PUSH2 0x1A0 DUP1 DUP7 ADD CALLDATALOAD PUSH1 0xE0 DUP7 ADD MSTORE PUSH2 0x3071 DUP8 DUP6 DUP9 ADD PUSH2 0x2F7E JUMP JUMPDEST PUSH2 0x100 DUP7 ADD MSTORE PUSH2 0x3085 DUP8 PUSH2 0x200 DUP9 ADD PUSH2 0x2F7E JUMP JUMPDEST PUSH2 0x120 DUP7 ADD MSTORE PUSH2 0x240 DUP7 ADD CALLDATALOAD SWAP4 POP PUSH8 0xFFFFFFFFFFFFFFFF DUP1 DUP6 GT ISZERO PUSH2 0x30A9 JUMPI PUSH1 0x0 DUP1 REVERT JUMPDEST PUSH2 0x30B5 DUP9 DUP7 DUP10 ADD PUSH2 0x2E99 JUMP JUMPDEST PUSH2 0x140 DUP8 ADD MSTORE PUSH2 0x260 DUP8 ADD CALLDATALOAD DUP5 DUP8 ADD MSTORE PUSH2 0x280 DUP8 ADD CALLDATALOAD SWAP5 POP DUP1 DUP6 GT ISZERO PUSH2 0x30DA JUMPI PUSH1 0x0 DUP1 REVERT JUMPDEST POP PUSH2 0x30E7 DUP8 DUP6 DUP9 ADD PUSH2 0x2DD8 JUMP JUMPDEST DUP3 DUP7 ADD MSTORE PUSH2 0x30F8 PUSH2 0x2A0 DUP8 ADD PUSH2 0x3106 JUMP JUMPDEST DUP2 DUP7 ADD MSTORE POP POP POP POP SWAP3 SWAP2 POP POP JUMP JUMPDEST DUP1 CALLDATALOAD PUSH2 0xFFFF DUP2 AND DUP2 EQ PUSH2 0x922 JUMPI PUSH1 0x0 DUP1 REVERT JUMPDEST DUP1 CALLDATALOAD PUSH6 0xFFFFFFFFFFFF DUP2 AND DUP2 EQ PUSH2 0x922 JUMPI PUSH1 0x0 DUP1 REVERT JUMPDEST PUSH1 0x0 PUSH1 0x20 DUP3 DUP5 SUB SLT ISZERO PUSH2 0x313F JUMPI DUP1 DUP2 REVERT JUMPDEST DUP2 CALLDATALOAD PUSH2 0x1557 DUP2 PUSH2 0x4024 JUMP JUMPDEST PUSH1 0x0 DUP1 PUSH1 0x0 DUP1 PUSH1 0x0 PUSH1 0xA0 DUP7 DUP9 SUB SLT ISZERO PUSH2 0x3161 JUMPI DUP1 DUP2 REVERT JUMPDEST DUP6 CALLDATALOAD PUSH2 0x316C DUP2 PUSH2 0x4024 JUMP JUMPDEST SWAP5 POP PUSH1 0x20 DUP7 ADD CALLDATALOAD PUSH2 0x317C DUP2 PUSH2 0x4024 JUMP JUMPDEST SWAP4 POP PUSH1 0x40 DUP7 ADD CALLDATALOAD SWAP3 POP PUSH1 0x60 DUP7 ADD CALLDATALOAD PUSH2 0x3193 DUP2 PUSH2 0x4024 JUMP JUMPDEST SWAP2 POP PUSH1 0x80 DUP7 ADD CALLDATALOAD PUSH2 0x31A3 DUP2 PUSH2 0x4024 JUMP JUMPDEST DUP1 SWAP2 POP POP SWAP3 SWAP6 POP SWAP3 SWAP6 SWAP1 SWAP4 POP JUMP JUMPDEST PUSH1 0x0 DUP1 PUSH1 0x0 PUSH1 0x60 DUP5 DUP7 SUB SLT ISZERO PUSH2 0x31C5 JUMPI DUP1 DUP2 REVERT JUMPDEST DUP4 CALLDATALOAD PUSH2 0x31D0 DUP2 PUSH2 0x4024 JUMP JUMPDEST SWAP3 POP PUSH2 0x31DE PUSH1 0x20 DUP6 ADD PUSH2 0x3118 JUMP JUMPDEST SWAP2 POP PUSH2 0x31EC PUSH1 0x40 DUP6 ADD PUSH2 0x3118 JUMP JUMPDEST SWAP1 POP SWAP3 POP SWAP3 POP SWAP3 JUMP JUMPDEST PUSH1 0x0 DUP1 PUSH1 0x40 DUP4 DUP6 SUB SLT ISZERO PUSH2 0x3207 JUMPI DUP2 DUP3 REVERT JUMPDEST DUP3 CALLDATALOAD PUSH8 0xFFFFFFFFFFFFFFFF DUP1 DUP3 GT ISZERO PUSH2 0x321E JUMPI DUP4 DUP5 REVERT JUMPDEST PUSH2 0x322A DUP7 DUP4 DUP8 ADD PUSH2 0x2E44 JUMP JUMPDEST SWAP4 POP PUSH1 0x20 DUP6 ADD CALLDATALOAD SWAP2 POP DUP1 DUP3 GT ISZERO PUSH2 0x323F JUMPI DUP3 DUP4 REVERT JUMPDEST POP PUSH2 0x324C DUP6 DUP3 DUP7 ADD PUSH2 0x2E44 JUMP JUMPDEST SWAP2 POP POP SWAP3 POP SWAP3 SWAP1 POP JUMP JUMPDEST PUSH1 0x0 PUSH1 0x20 DUP3 DUP5 SUB SLT ISZERO PUSH2 0x3267 JUMPI DUP1 DUP2 REVERT JUMPDEST DUP2 MLOAD DUP1 ISZERO ISZERO DUP2 EQ PUSH2 0x1557 JUMPI DUP2 DUP3 REVERT JUMPDEST PUSH1 0x0 PUSH1 0x20 DUP3 DUP5 SUB SLT ISZERO PUSH2 0x3287 JUMPI DUP1 DUP2 REVERT JUMPDEST POP CALLDATALOAD SWAP2 SWAP1 POP JUMP JUMPDEST PUSH1 0x0 DUP1 PUSH1 0x0 PUSH1 0x60 DUP5 DUP7 SUB SLT ISZERO PUSH2 0x32A2 JUMPI DUP1 DUP2 REVERT JUMPDEST DUP4 CALLDATALOAD SWAP3 POP PUSH1 0x20 DUP5 ADD CALLDATALOAD PUSH8 0xFFFFFFFFFFFFFFFF DUP1 DUP3 GT ISZERO PUSH2 0x32C0 JUMPI DUP3 DUP4 REVERT JUMPDEST PUSH2 0x32CC DUP8 DUP4 DUP9 ADD PUSH2 0x2DD8 JUMP JUMPDEST SWAP4 POP PUSH1 0x40 DUP7 ADD CALLDATALOAD SWAP2 POP DUP1 DUP3 GT ISZERO PUSH2 0x32E1 JUMPI DUP3 DUP4 REVERT JUMPDEST POP PUSH2 0x32EE DUP7 DUP3 DUP8 ADD PUSH2 0x2FD0 JUMP JUMPDEST SWAP2 POP POP SWAP3 POP SWAP3 POP SWAP3 JUMP JUMPDEST PUSH1 0x0 PUSH1 0x20 DUP3 DUP5 SUB SLT ISZERO PUSH2 0x3309 JUMPI DUP1 DUP2 REVERT JUMPDEST DUP2 CALLDATALOAD PUSH8 0xFFFFFFFFFFFFFFFF DUP2 GT ISZERO PUSH2 0x331F JUMPI DUP2 DUP3 REVERT JUMPDEST DUP3 ADD PUSH1 0x40 DUP2 DUP6 SUB SLT ISZERO PUSH2 0x1557 JUMPI DUP2 DUP3 REVERT JUMPDEST PUSH1 0x0 PUSH1 0x80 DUP3 DUP5 SUB SLT ISZERO PUSH2 0x3341 JUMPI DUP1 DUP2 REVERT JUMPDEST PUSH1 0x40 MLOAD PUSH1 0x80 DUP2 ADD DUP2 DUP2 LT PUSH8 0xFFFFFFFFFFFFFFFF DUP3 GT OR ISZERO PUSH2 0x335E JUMPI INVALID JUMPDEST PUSH1 0x40 MSTORE DUP3 MLOAD PUSH2 0x336C DUP2 PUSH2 0x4039 JUMP JUMPDEST DUP2 MSTORE PUSH1 0x20 DUP4 ADD MLOAD PUSH2 0x337C DUP2 PUSH2 0x4024 JUMP JUMPDEST PUSH1 0x20 DUP3 ADD MSTORE PUSH1 0x40 DUP4 DUP2 ADD MLOAD SWAP1 DUP3 ADD MSTORE PUSH1 0x60 SWAP3 DUP4 ADD MLOAD SWAP3 DUP2 ADD SWAP3 SWAP1 SWAP3 MSTORE POP SWAP2 SWAP1 POP JUMP JUMPDEST PUSH1 0x0 PUSH1 0x20 DUP3 DUP5 SUB SLT ISZERO PUSH2 0x33AF JUMPI DUP1 DUP2 REVERT JUMPDEST DUP2 CALLDATALOAD PUSH8 0xFFFFFFFFFFFFFFFF DUP2 GT ISZERO PUSH2 0x33C5 JUMPI DUP2 DUP3 REVERT JUMPDEST PUSH2 0x33D1 DUP5 DUP3 DUP6 ADD PUSH2 0x2FD0 JUMP JUMPDEST SWAP5 SWAP4 POP POP POP POP JUMP JUMPDEST PUSH1 0x0 PUSH1 0x20 DUP3 DUP5 SUB SLT ISZERO PUSH2 0x33EA JUMPI DUP1 DUP2 REVERT JUMPDEST POP MLOAD SWAP2 SWAP1 POP JUMP JUMPDEST PUSH1 0x0 DUP1 PUSH1 0x40 DUP4 DUP6 SUB SLT ISZERO PUSH2 0x3403 JUMPI DUP2 DUP3 REVERT JUMPDEST DUP3 CALLDATALOAD SWAP2 POP PUSH1 0x20 DUP4 ADD CALLDATALOAD PUSH2 0x3415 DUP2 PUSH2 0x4024 JUMP JUMPDEST DUP1 SWAP2 POP POP SWAP3 POP SWAP3 SWAP1 POP JUMP JUMPDEST PUSH1 0x0 PUSH1 0x20 DUP3 DUP5 SUB SLT ISZERO PUSH2 0x3431 JUMPI DUP1 DUP2 REVERT JUMPDEST PUSH2 0x1557 DUP3 PUSH2 0x3118 JUMP JUMPDEST PUSH1 0x0 PUSH1 0x20 DUP3 DUP5 SUB SLT ISZERO PUSH2 0x344B JUMPI DUP1 DUP2 REVERT JUMPDEST DUP2 CALLDATALOAD PUSH2 0x1557 DUP2 PUSH2 0x4039 JUMP JUMPDEST PUSH1 0x0 DUP1 PUSH1 0x40 DUP4 DUP6 SUB SLT ISZERO PUSH2 0x3468 JUMPI DUP2 DUP3 REVERT JUMPDEST DUP3 CALLDATALOAD PUSH2 0x3473 DUP2 PUSH2 0x4039 JUMP JUMPDEST SWAP2 POP PUSH1 0x20 DUP4 ADD CALLDATALOAD PUSH2 0x3415 DUP2 PUSH2 0x4024 JUMP JUMPDEST PUSH1 0x0 DUP2 MLOAD DUP1 DUP5 MSTORE PUSH2 0x349B DUP2 PUSH1 0x20 DUP7 ADD PUSH1 0x20 DUP7 ADD PUSH2 0x3FF8 JUMP JUMPDEST PUSH1 0x1F ADD PUSH1 0x1F NOT AND SWAP3 SWAP1 SWAP3 ADD PUSH1 0x20 ADD SWAP3 SWAP2 POP POP JUMP JUMPDEST DUP1 MLOAD PUSH1 0xFF AND DUP3 MSTORE PUSH1 0x20 DUP1 DUP3 ADD MLOAD PUSH1 0x1 PUSH1 0x1 PUSH1 0xA0 SHL SUB AND SWAP1 DUP4 ADD MSTORE PUSH1 0x40 DUP1 DUP3 ADD MLOAD SWAP1 DUP4 ADD MSTORE PUSH1 0x60 SWAP1 DUP2 ADD MLOAD SWAP2 ADD MSTORE JUMP JUMPDEST PUSH1 0x0 DUP3 MLOAD PUSH2 0x34F0 DUP2 DUP5 PUSH1 0x20 DUP8 ADD PUSH2 0x3FF8 JUMP JUMPDEST SWAP2 SWAP1 SWAP2 ADD SWAP3 SWAP2 POP POP JUMP JUMPDEST PUSH32 0x19457468657265756D205369676E6564204D6573736167653A0A333200000000 DUP2 MSTORE PUSH1 0x1C DUP2 ADD SWAP2 SWAP1 SWAP2 MSTORE PUSH1 0x3C ADD SWAP1 JUMP JUMPDEST PUSH2 0x1901 PUSH1 0xF0 SHL DUP2 MSTORE PUSH1 0x2 DUP2 ADD SWAP3 SWAP1 SWAP3 MSTORE PUSH1 0x22 DUP3 ADD MSTORE PUSH1 0x42 ADD SWAP1 JUMP JUMPDEST SWAP1 JUMP JUMPDEST SWAP3 DUP4 MSTORE PUSH1 0x60 SWAP2 SWAP1 SWAP2 SHL PUSH12 0xFFFFFFFFFFFFFFFFFFFFFFFF NOT AND PUSH1 0x20 DUP4 ADD MSTORE PUSH1 0x34 DUP3 ADD MSTORE PUSH1 0x54 ADD SWAP1 JUMP JUMPDEST PUSH1 0x1 PUSH1 0x1 PUSH1 0xA0 SHL SUB SWAP2 SWAP1 SWAP2 AND DUP2 MSTORE PUSH1 0x20 ADD SWAP1 JUMP JUMPDEST PUSH1 0x1 PUSH1 0x1 PUSH1 0xA0 SHL SUB DUP5 AND DUP2 MSTORE PUSH1 0x60 PUSH1 0x20 DUP3 ADD DUP2 SWAP1 MSTORE PUSH1 0x0 SWAP1 PUSH2 0x35A9 SWAP1 DUP4 ADD DUP6 PUSH2 0x3483 JUMP JUMPDEST SWAP1 POP PUSH2 0xFFFF DUP4 AND PUSH1 0x40 DUP4 ADD MSTORE SWAP5 SWAP4 POP POP POP POP JUMP JUMPDEST PUSH1 0x1 PUSH1 0x1 PUSH1 0xA0 SHL SUB SWAP3 DUP4 AND DUP2 MSTORE SWAP2 AND PUSH1 0x20 DUP3 ADD MSTORE PUSH1 0x40 ADD SWAP1 JUMP JUMPDEST PUSH1 0x1 PUSH1 0x1 PUSH1 0xA0 SHL SUB SWAP4 DUP5 AND DUP2 MSTORE SWAP2 SWAP1 SWAP3 AND PUSH1 0x20 DUP3 ADD MSTORE PUSH1 0x40 DUP2 ADD SWAP2 SWAP1 SWAP2 MSTORE PUSH1 0x60 ADD SWAP1 JUMP JUMPDEST PUSH1 0x1 PUSH1 0x1 PUSH1 0xA0 SHL SUB SWAP5 DUP6 AND DUP2 MSTORE SWAP3 SWAP1 SWAP4 AND PUSH1 0x20 DUP4 ADD MSTORE PUSH1 0x40 DUP3 ADD MSTORE PUSH1 0x60 DUP2 ADD SWAP2 SWAP1 SWAP2 MSTORE PUSH1 0xA0 PUSH1 0x80 DUP3 ADD DUP2 SWAP1 MSTORE PUSH1 0x0 SWAP1 DUP3 ADD MSTORE PUSH1 0xC0 ADD SWAP1 JUMP JUMPDEST PUSH1 0x1 PUSH1 0x1 PUSH1 0xA0 SHL SUB SWAP5 SWAP1 SWAP5 AND DUP5 MSTORE PUSH1 0x20 DUP5 ADD SWAP3 SWAP1 SWAP3 MSTORE PUSH1 0x40 DUP4 ADD MSTORE PUSH1 0x60 DUP3 ADD MSTORE PUSH1 0x80 ADD SWAP1 JUMP JUMPDEST PUSH1 0x1 PUSH1 0x1 PUSH1 0xA0 SHL SUB SWAP3 SWAP1 SWAP3 AND DUP3 MSTORE PUSH1 0x20 DUP3 ADD MSTORE PUSH1 0x40 ADD SWAP1 JUMP JUMPDEST PUSH1 0x1 PUSH1 0x1 PUSH1 0xA0 SHL SUB SWAP4 SWAP1 SWAP4 AND DUP4 MSTORE PUSH6 0xFFFFFFFFFFFF SWAP2 DUP3 AND PUSH1 0x20 DUP5 ADD MSTORE AND PUSH1 0x40 DUP3 ADD MSTORE PUSH1 0x60 ADD SWAP1 JUMP JUMPDEST SWAP1 ISZERO ISZERO DUP2 MSTORE PUSH1 0x20 ADD SWAP1 JUMP JUMPDEST SWAP1 DUP2 MSTORE PUSH1 0x20 ADD SWAP1 JUMP JUMPDEST SWAP9 DUP10 MSTORE PUSH1 0x1 PUSH1 0x1 PUSH1 0xA0 SHL SUB SWAP8 DUP9 AND PUSH1 0x20 DUP11 ADD MSTORE PUSH1 0x40 DUP10 ADD SWAP7 SWAP1 SWAP7 MSTORE SWAP4 SWAP1 SWAP6 AND PUSH1 0x60 DUP8 ADD MSTORE PUSH1 0x80 DUP7 ADD SWAP2 SWAP1 SWAP2 MSTORE PUSH1 0xA0 DUP6 ADD MSTORE PUSH1 0xC0 DUP5 ADD SWAP3 SWAP1 SWAP3 MSTORE PUSH1 0xE0 DUP4 ADD SWAP2 SWAP1 SWAP2 MSTORE PUSH2 0xFFFF AND PUSH2 0x100 DUP3 ADD MSTORE PUSH2 0x120 ADD SWAP1 JUMP JUMPDEST SWAP4 DUP5 MSTORE PUSH1 0x1 PUSH1 0x1 PUSH1 0xA0 SHL SUB SWAP3 SWAP1 SWAP3 AND PUSH1 0x20 DUP5 ADD MSTORE PUSH1 0x40 DUP4 ADD MSTORE PUSH1 0x60 DUP3 ADD MSTORE PUSH1 0x80 ADD SWAP1 JUMP JUMPDEST SWAP5 DUP6 MSTORE PUSH1 0x20 DUP6 ADD SWAP4 SWAP1 SWAP4 MSTORE PUSH1 0x40 DUP5 ADD SWAP2 SWAP1 SWAP2 MSTORE PUSH1 0x60 DUP4 ADD MSTORE PUSH1 0x1 PUSH1 0x1 PUSH1 0xA0 SHL SUB AND PUSH1 0x80 DUP3 ADD MSTORE PUSH1 0xA0 ADD SWAP1 JUMP JUMPDEST SWAP5 DUP6 MSTORE PUSH1 0xFF SWAP4 SWAP1 SWAP4 AND PUSH1 0x20 DUP6 ADD MSTORE PUSH1 0x1 PUSH1 0x1 PUSH1 0xA0 SHL SUB SWAP2 SWAP1 SWAP2 AND PUSH1 0x40 DUP5 ADD MSTORE PUSH1 0x60 DUP4 ADD MSTORE PUSH1 0x80 DUP3 ADD MSTORE PUSH1 0xA0 ADD SWAP1 JUMP JUMPDEST SWAP4 DUP5 MSTORE PUSH1 0xFF SWAP3 SWAP1 SWAP3 AND PUSH1 0x20 DUP5 ADD MSTORE PUSH1 0x40 DUP4 ADD MSTORE PUSH1 0x60 DUP3 ADD MSTORE PUSH1 0x80 ADD SWAP1 JUMP JUMPDEST PUSH1 0x1 PUSH1 0x1 PUSH1 0xA0 SHL SUB SWAP6 DUP7 AND DUP2 MSTORE SWAP4 DUP6 AND PUSH1 0x20 DUP6 ADD MSTORE SWAP2 SWAP1 SWAP4 AND PUSH1 0x40 DUP4 ADD MSTORE PUSH1 0x60 DUP3 ADD SWAP3 SWAP1 SWAP3 MSTORE PUSH1 0x80 DUP2 ADD SWAP2 SWAP1 SWAP2 MSTORE PUSH1 0xC0 PUSH1 0xA0 DUP3 ADD DUP2 SWAP1 MSTORE PUSH1 0x0 SWAP1 DUP3 ADD MSTORE PUSH1 0xE0 ADD SWAP1 JUMP JUMPDEST PUSH1 0x1 PUSH1 0x1 PUSH1 0xA0 SHL SUB SWAP5 DUP6 AND DUP2 MSTORE SWAP3 DUP5 AND PUSH1 0x20 DUP5 ADD MSTORE SWAP3 AND PUSH1 0x40 DUP3 ADD MSTORE PUSH1 0x60 DUP2 ADD SWAP2 SWAP1 SWAP2 MSTORE PUSH1 0x80 ADD SWAP1 JUMP JUMPDEST PUSH1 0x0 PUSH2 0x120 PUSH1 0x4 DUP13 LT PUSH2 0x381A JUMPI INVALID JUMPDEST DUP12 DUP4 MSTORE PUSH1 0x1 PUSH1 0x1 PUSH1 0xA0 SHL SUB DUP12 DUP2 AND PUSH1 0x20 DUP6 ADD MSTORE DUP11 AND PUSH1 0x40 DUP5 ADD MSTORE PUSH1 0x60 DUP4 ADD DUP2 SWAP1 MSTORE PUSH2 0x3847 DUP2 DUP5 ADD DUP11 PUSH2 0x3483 JUMP JUMPDEST PUSH2 0xFFFF SWAP9 SWAP1 SWAP9 AND PUSH1 0x80 DUP5 ADD MSTORE POP POP PUSH1 0xA0 DUP2 ADD SWAP5 SWAP1 SWAP5 MSTORE PUSH1 0xC0 DUP5 ADD SWAP3 SWAP1 SWAP3 MSTORE PUSH1 0xE0 DUP4 ADD MSTORE PUSH2 0x100 SWAP1 SWAP2 ADD MSTORE SWAP5 SWAP4 POP POP POP POP JUMP JUMPDEST PUSH1 0x20 DUP1 DUP3 MSTORE PUSH1 0x18 SWAP1 DUP3 ADD MSTORE PUSH32 0x45434453413A20696E76616C6964207369676E61747572650000000000000000 PUSH1 0x40 DUP3 ADD MSTORE PUSH1 0x60 ADD SWAP1 JUMP JUMPDEST PUSH1 0x20 DUP1 DUP3 MSTORE PUSH1 0x17 SWAP1 DUP3 ADD MSTORE PUSH32 0x6E6F7420666F756E64204941737365744D617463686572000000000000000000 PUSH1 0x40 DUP3 ADD MSTORE PUSH1 0x60 ADD SWAP1 JUMP JUMPDEST PUSH1 0x20 DUP1 DUP3 MSTORE PUSH1 0x1F SWAP1 DUP3 ADD MSTORE PUSH32 0x45434453413A20696E76616C6964207369676E6174757265206C656E67746800 PUSH1 0x40 DUP3 ADD MSTORE PUSH1 0x60 ADD SWAP1 JUMP JUMPDEST PUSH1 0x20 DUP1 DUP3 MSTORE PUSH1 0x26 SWAP1 DUP3 ADD MSTORE PUSH32 0x4F776E61626C653A206E6577206F776E657220697320746865207A65726F2061 PUSH1 0x40 DUP3 ADD MSTORE PUSH6 0x646472657373 PUSH1 0xD0 SHL PUSH1 0x60 DUP3 ADD MSTORE PUSH1 0x80 ADD SWAP1 JUMP JUMPDEST PUSH1 0x20 DUP1 DUP3 MSTORE PUSH1 0x1B SWAP1 DUP3 ADD MSTORE PUSH32 0x4F7264657220656E642076616C69646174696F6E206661696C65640000000000 PUSH1 0x40 DUP3 ADD MSTORE PUSH1 0x60 ADD SWAP1 JUMP JUMPDEST PUSH1 0x20 DUP1 DUP3 MSTORE PUSH1 0x14 SWAP1 DUP3 ADD MSTORE PUSH20 0xC081CD85B1D0818D85B89DD081899481D5CD959 PUSH1 0x62 SHL PUSH1 0x40 DUP3 ADD MSTORE PUSH1 0x60 ADD SWAP1 JUMP JUMPDEST PUSH1 0x20 DUP1 DUP3 MSTORE PUSH1 0x18 SWAP1 DUP3 ADD MSTORE PUSH32 0x4F7264657220686173206265656E2066756C66696C6C65640000000000000000 PUSH1 0x40 DUP3 ADD MSTORE PUSH1 0x60 ADD SWAP1 JUMP JUMPDEST PUSH1 0x20 DUP1 DUP3 MSTORE PUSH1 0x1C SWAP1 DUP3 ADD MSTORE PUSH32 0x426964204552432D323020616D6F756E74206E6F7420656E6F75676800000000 PUSH1 0x40 DUP3 ADD MSTORE PUSH1 0x60 ADD SWAP1 JUMP JUMPDEST PUSH1 0x20 DUP1 DUP3 MSTORE PUSH1 0x8 SWAP1 DUP3 ADD MSTORE PUSH8 0x37379036B0B5B2B9 PUSH1 0xC1 SHL PUSH1 0x40 DUP3 ADD MSTORE PUSH1 0x60 ADD SWAP1 JUMP JUMPDEST PUSH1 0x20 DUP1 DUP3 MSTORE PUSH1 0x22 SWAP1 DUP3 ADD MSTORE PUSH32 0x6C6566747320616E6420726967687473206C656E67746820646F6E74206D6174 PUSH1 0x40 DUP3 ADD MSTORE PUSH2 0xC6D PUSH1 0xF3 SHL PUSH1 0x60 DUP3 ADD MSTORE PUSH1 0x80 ADD SWAP1 JUMP JUMPDEST PUSH1 0x20 DUP1 DUP3 MSTORE PUSH1 0x22 SWAP1 DUP3 ADD MSTORE PUSH32 0x45434453413A20696E76616C6964207369676E6174757265202773272076616C PUSH1 0x40 DUP3 ADD MSTORE PUSH2 0x7565 PUSH1 0xF0 SHL PUSH1 0x60 DUP3 ADD MSTORE PUSH1 0x80 ADD SWAP1 JUMP JUMPDEST PUSH1 0x20 DUP1 DUP3 MSTORE PUSH1 0x24 SWAP1 DUP3 ADD MSTORE PUSH32 0x72696768744F726465722E74616B657220766572696669636174696F6E206661 PUSH1 0x40 DUP3 ADD MSTORE PUSH4 0x1A5B1959 PUSH1 0xE2 SHL PUSH1 0x60 DUP3 ADD MSTORE PUSH1 0x80 ADD SWAP1 JUMP JUMPDEST PUSH1 0x20 DUP1 DUP3 MSTORE PUSH1 0x22 SWAP1 DUP3 ADD MSTORE PUSH32 0x6F72646572207369676E617475726520766572696669636174696F6E20657272 PUSH1 0x40 DUP3 ADD MSTORE PUSH2 0x37B9 PUSH1 0xF1 SHL PUSH1 0x60 DUP3 ADD MSTORE PUSH1 0x80 ADD SWAP1 JUMP JUMPDEST PUSH1 0x20 DUP1 DUP3 MSTORE PUSH1 0x12 SWAP1 DUP3 ADD MSTORE PUSH18 0x32B9319B9918903B30B63AB29032B93937B9 PUSH1 0x71 SHL PUSH1 0x40 DUP3 ADD MSTORE PUSH1 0x60 ADD SWAP1 JUMP JUMPDEST PUSH1 0x20 DUP1 DUP3 MSTORE PUSH1 0x16 SWAP1 DUP3 ADD MSTORE PUSH22 0x36B0B5B2B91034B9903737BA103A3C1039B2B73232B9 PUSH1 0x51 SHL PUSH1 0x40 DUP3 ADD MSTORE PUSH1 0x60 ADD SWAP1 JUMP JUMPDEST PUSH1 0x20 DUP1 DUP3 MSTORE PUSH1 0x2E SWAP1 DUP3 ADD MSTORE PUSH32 0x496E697469616C697A61626C653A20636F6E747261637420697320616C726561 PUSH1 0x40 DUP3 ADD MSTORE PUSH14 0x191E481A5B9A5D1A585B1A5E9959 PUSH1 0x92 SHL PUSH1 0x60 DUP3 ADD MSTORE PUSH1 0x80 ADD SWAP1 JUMP JUMPDEST PUSH1 0x20 DUP1 DUP3 MSTORE PUSH1 0x1D SWAP1 DUP3 ADD MSTORE PUSH32 0x4F726465722073746172742076616C69646174696F6E206661696C6564000000 PUSH1 0x40 DUP3 ADD MSTORE PUSH1 0x60 ADD SWAP1 JUMP JUMPDEST PUSH1 0x20 DUP1 DUP3 MSTORE PUSH1 0x22 SWAP1 DUP3 ADD MSTORE PUSH32 0x45434453413A20696E76616C6964207369676E6174757265202776272076616C PUSH1 0x40 DUP3 ADD MSTORE PUSH2 0x7565 PUSH1 0xF0 SHL PUSH1 0x60 DUP3 ADD MSTORE PUSH1 0x80 ADD SWAP1 JUMP JUMPDEST PUSH1 0x20 DUP1 DUP3 MSTORE DUP2 DUP2 ADD MSTORE PUSH32 0x4F776E61626C653A2063616C6C6572206973206E6F7420746865206F776E6572 PUSH1 0x40 DUP3 ADD MSTORE PUSH1 0x60 ADD SWAP1 JUMP JUMPDEST PUSH1 0x20 DUP1 DUP3 MSTORE PUSH1 0x15 SWAP1 DUP3 ADD MSTORE PUSH21 0x195C98CC8C081D1C985B9CD9995C8819985A5B1959 PUSH1 0x5A SHL PUSH1 0x40 DUP3 ADD MSTORE PUSH1 0x60 ADD SWAP1 JUMP JUMPDEST PUSH1 0x20 DUP1 DUP3 MSTORE PUSH1 0x18 SWAP1 DUP3 ADD MSTORE PUSH32 0x4F7264657220686173206265656E2063616E63656C6C65640000000000000000 PUSH1 0x40 DUP3 ADD MSTORE PUSH1 0x60 ADD SWAP1 JUMP JUMPDEST PUSH1 0x20 DUP1 DUP3 MSTORE PUSH1 0x12 SWAP1 DUP3 ADD MSTORE PUSH18 0xC2E6E6CAE8E640C8DEDC4EE840DAC2E8C6D PUSH1 0x73 SHL PUSH1 0x40 DUP3 ADD MSTORE PUSH1 0x60 ADD SWAP1 JUMP JUMPDEST PUSH1 0x20 DUP1 DUP3 MSTORE PUSH1 0x18 SWAP1 DUP3 ADD MSTORE PUSH32 0x45524332302062616C616E6365206E6F7420656E6F7567680000000000000000 PUSH1 0x40 DUP3 ADD MSTORE PUSH1 0x60 ADD SWAP1 JUMP JUMPDEST PUSH1 0x20 DUP1 DUP3 MSTORE PUSH1 0x1A SWAP1 DUP3 ADD MSTORE PUSH32 0x5370656E64696E6720616D6F756E74206E6F7420656E6F756768000000000000 PUSH1 0x40 DUP3 ADD MSTORE PUSH1 0x60 ADD SWAP1 JUMP JUMPDEST PUSH1 0x20 DUP1 DUP3 MSTORE PUSH1 0xF SWAP1 DUP3 ADD MSTORE PUSH15 0x1D1C985B9CD9995C8819985A5B1959 PUSH1 0x8A SHL PUSH1 0x40 DUP3 ADD MSTORE PUSH1 0x60 ADD SWAP1 JUMP JUMPDEST PUSH1 0x20 DUP1 DUP3 MSTORE PUSH1 0x22 SWAP1 DUP3 ADD MSTORE PUSH32 0x416363657074206269642071747920686967686572207468616E206269642071 PUSH1 0x40 DUP3 ADD MSTORE PUSH2 0x7479 PUSH1 0xF0 SHL PUSH1 0x60 DUP3 ADD MSTORE PUSH1 0x80 ADD SWAP1 JUMP JUMPDEST PUSH1 0x20 DUP1 DUP3 MSTORE PUSH1 0x23 SWAP1 DUP3 ADD MSTORE PUSH32 0x6C6566744F726465722E74616B657220766572696669636174696F6E20666169 PUSH1 0x40 DUP3 ADD MSTORE PUSH3 0x1B1959 PUSH1 0xEA SHL PUSH1 0x60 DUP3 ADD MSTORE PUSH1 0x80 ADD SWAP1 JUMP JUMPDEST PUSH1 0x20 DUP1 DUP3 MSTORE PUSH1 0xF SWAP1 DUP3 ADD MSTORE PUSH15 0x496E76616C6964206C697374696E67 PUSH1 0x88 SHL PUSH1 0x40 DUP3 ADD MSTORE PUSH1 0x60 ADD SWAP1 JUMP JUMPDEST PUSH1 0x20 DUP1 DUP3 MSTORE PUSH1 0xB SWAP1 DUP3 ADD MSTORE PUSH11 0x3737BA10309036B0B5B2B9 PUSH1 0xA9 SHL PUSH1 0x40 DUP3 ADD MSTORE PUSH1 0x60 ADD SWAP1 JUMP JUMPDEST PUSH1 0xC0 DUP2 ADD PUSH2 0x3EC5 DUP3 DUP7 PUSH2 0x34AF JUMP JUMPDEST PUSH1 0x1 PUSH1 0x1 PUSH1 0xA0 SHL SUB SWAP4 DUP5 AND PUSH1 0x80 DUP4 ADD MSTORE SWAP2 SWAP1 SWAP3 AND PUSH1 0xA0 SWAP1 SWAP3 ADD SWAP2 SWAP1 SWAP2 MSTORE SWAP2 SWAP1 POP JUMP JUMPDEST PUSH2 0x100 DUP2 ADD PUSH2 0x3EF6 DUP3 DUP6 PUSH2 0x34AF JUMP JUMPDEST PUSH2 0x1557 PUSH1 0x80 DUP4 ADD DUP5 PUSH2 0x34AF JUMP JUMPDEST PUSH2 0xFFFF SWAP12 SWAP1 SWAP12 AND DUP12 MSTORE PUSH1 0x1 PUSH1 0x1 PUSH1 0xA0 SHL SUB SWAP10 DUP11 AND PUSH1 0x20 DUP13 ADD MSTORE SWAP8 DUP10 AND PUSH1 0x40 DUP12 ADD MSTORE PUSH1 0x60 DUP11 ADD SWAP7 SWAP1 SWAP7 MSTORE PUSH1 0x80 DUP10 ADD SWAP5 SWAP1 SWAP5 MSTORE PUSH1 0xFF SWAP3 DUP4 AND PUSH1 0xA0 DUP10 ADD MSTORE SWAP1 DUP7 AND PUSH1 0xC0 DUP9 ADD MSTORE SWAP1 SWAP5 AND PUSH1 0xE0 DUP7 ADD MSTORE PUSH2 0x100 DUP6 ADD MSTORE PUSH2 0x120 DUP5 ADD MSTORE AND PUSH2 0x140 DUP3 ADD MSTORE PUSH2 0x160 ADD SWAP1 JUMP JUMPDEST PUSH6 0xFFFFFFFFFFFF SWAP3 DUP4 AND DUP2 MSTORE SWAP2 AND PUSH1 0x20 DUP3 ADD MSTORE PUSH1 0x40 ADD SWAP1 JUMP JUMPDEST PUSH1 0xFF SWAP3 SWAP1 SWAP3 AND DUP3 MSTORE PUSH1 0x20 DUP3 ADD MSTORE PUSH1 0x40 ADD SWAP1 JUMP JUMPDEST PUSH1 0x0 DUP3 CALLDATALOAD PUSH2 0x2BE NOT DUP4 CALLDATASIZE SUB ADD DUP2 SLT PUSH2 0x34F0 JUMPI DUP2 DUP3 REVERT JUMPDEST PUSH1 0x40 MLOAD DUP2 DUP2 ADD PUSH8 0xFFFFFFFFFFFFFFFF DUP2 GT DUP3 DUP3 LT OR ISZERO PUSH2 0x3FC6 JUMPI INVALID JUMPDEST PUSH1 0x40 MSTORE SWAP2 SWAP1 POP JUMP JUMPDEST PUSH1 0x0 PUSH8 0xFFFFFFFFFFFFFFFF DUP3 GT ISZERO PUSH2 0x3FE2 JUMPI INVALID JUMPDEST POP PUSH1 0x20 SWAP1 DUP2 MUL ADD SWAP1 JUMP JUMPDEST PUSH1 0x0 PUSH2 0x21F3 CALLDATASIZE DUP4 PUSH2 0x2FD0 JUMP JUMPDEST PUSH1 0x0 JUMPDEST DUP4 DUP2 LT ISZERO PUSH2 0x4013 JUMPI DUP2 DUP2 ADD MLOAD DUP4 DUP3 ADD MSTORE PUSH1 0x20 ADD PUSH2 0x3FFB JUMP JUMPDEST DUP4 DUP2 GT ISZERO PUSH2 0x11EA JUMPI POP POP PUSH1 0x0 SWAP2 ADD MSTORE JUMP JUMPDEST PUSH1 0x1 PUSH1 0x1 PUSH1 0xA0 SHL SUB DUP2 AND DUP2 EQ PUSH2 0xFCD JUMPI PUSH1 0x0 DUP1 REVERT JUMPDEST PUSH1 0xFF DUP2 AND DUP2 EQ PUSH2 0xFCD JUMPI PUSH1 0x0 DUP1 REVERT INVALID LOG2 PUSH5 0x6970667358 0x22 SLT KECCAK256 0xDB JUMPDEST PUSH15 0x996E1B76D68AC541C7545764CD273A PC 0xE6 0xCF SWAP7 DUP3 DIFFICULTY 0xA5 0x5F 0xF8 PUSH10 0x4769644664736F6C6343 STOP SMOD MOD STOP CALLER "},"methodIdentifiers":{"__ExchangeV2_init(address,address,uint256,address,address)":"1372a625","_owner()":"b2bdfa7b","cancel((uint8,address,(uint8,address,uint256,uint256),address,(uint8,address,uint256,uint256),uint256,uint256,uint256,(address,uint256),(address,uint256),bytes,bytes32,bytes32[],uint16))":"d362d3ff","cancelOrder((uint8,address,(uint8,address,uint256,uint256),address,(uint8,address,uint256,uint256),uint256,uint256,uint256,(address,uint256),(address,uint256),bytes,bytes32,bytes32[],uint16))":"8b42af3e","directAcceptBid(((uint8,address,(uint8,address,uint256,uint256),address,(uint8,address,uint256,uint256),uint256,uint256,uint256,(address,uint256),(address,uint256),bytes,bytes32,bytes32[],uint16),(uint8,address,(uint8,address,uint256,uint256),address,(uint8,address,uint256,uint256),uint256,uint256,uint256,(address,uint256),(address,uint256),bytes,bytes32,bytes32[],uint16)))":"33033608","fills(bytes32)":"20158c44","getTransferProxy(uint8)":"b36c9b29","matchOrders((uint8,address,(uint8,address,uint256,uint256),address,(uint8,address,uint256,uint256),uint256,uint256,uint256,(address,uint256),(address,uint256),bytes,bytes32,bytes32[],uint16)[],(uint8,address,(uint8,address,uint256,uint256),address,(uint8,address,uint256,uint256),uint256,uint256,uint256,(address,uint256),(address,uint256),bytes,bytes32,bytes32[],uint16)[])":"faa2cc7c","owner()":"8da5cb5b","protocolFee()":"b0e21e8a","renounceOwnership()":"715018a6","royaltiesRegistry()":"6d8f0694","setAllProtocolFeeData(address,uint48,uint48)":"b74c8e9a","setAssetMatcher(uint256,address)":"c648a687","setPrtocolFeeBuyerAmount(uint48)":"d6ca6ab7","setPrtocolFeeReceiver(address)":"bc158c2d","setPrtocolFeeSellerAmount(uint48)":"eae3ad6f","setRoyaltiesRegistry(address)":"3be89922","setTransferProxy(uint8,address)":"4cfe4cd8","transferOwnership(address)":"f2fde38b","validateListing(bytes32,bytes32[],(uint8,address,(uint8,address,uint256,uint256),address,(uint8,address,uint256,uint256),uint256,uint256,uint256,(address,uint256),(address,uint256),bytes,bytes32,bytes32[],uint16))":"3e2d95ff"}},"storageLayout":{"storage":[{"astId":2439,"contract":"contracts/ExchangeV2.sol:ExchangeV2","label":"_initialized","offset":0,"slot":"0","type":"t_bool"},{"astId":2442,"contract":"contracts/ExchangeV2.sol:ExchangeV2","label":"_initializing","offset":1,"slot":"0","type":"t_bool"},{"astId":627,"contract":"contracts/ExchangeV2.sol:ExchangeV2","label":"__gap","offset":0,"slot":"1","type":"t_array(t_uint256)50_storage"},{"astId":3023,"contract":"contracts/ExchangeV2.sol:ExchangeV2","label":"_owner","offset":0,"slot":"51","type":"t_address"},{"astId":3142,"contract":"contracts/ExchangeV2.sol:ExchangeV2","label":"__gap","offset":0,"slot":"52","type":"t_array(t_uint256)49_storage"},{"astId":261,"contract":"contracts/ExchangeV2.sol:ExchangeV2","label":"matchers","offset":0,"slot":"101","type":"t_mapping(t_uint256,t_address)"},{"astId":581,"contract":"contracts/ExchangeV2.sol:ExchangeV2","label":"__gap","offset":0,"slot":"102","type":"t_array(t_uint256)49_storage"},{"astId":3525,"contract":"contracts/ExchangeV2.sol:ExchangeV2","label":"proxies","offset":0,"slot":"151","type":"t_mapping(t_uint8,t_address)"},{"astId":3798,"contract":"contracts/ExchangeV2.sol:ExchangeV2","label":"__gap","offset":0,"slot":"152","type":"t_array(t_uint256)49_storage"},{"astId":637,"contract":"contracts/ExchangeV2.sol:ExchangeV2","label":"_HASHED_NAME","offset":0,"slot":"201","type":"t_bytes32"},{"astId":640,"contract":"contracts/ExchangeV2.sol:ExchangeV2","label":"_HASHED_VERSION","offset":0,"slot":"202","type":"t_bytes32"},{"astId":789,"contract":"contracts/ExchangeV2.sol:ExchangeV2","label":"__gap","offset":0,"slot":"203","type":"t_array(t_uint256)50_storage"},{"astId":3011,"contract":"contracts/ExchangeV2.sol:ExchangeV2","label":"__gap","offset":0,"slot":"253","type":"t_array(t_uint256)50_storage"},{"astId":945,"contract":"contracts/ExchangeV2.sol:ExchangeV2","label":"randNonce","offset":0,"slot":"303","type":"t_uint256"},{"astId":972,"contract":"contracts/ExchangeV2.sol:ExchangeV2","label":"fills","offset":0,"slot":"304","type":"t_mapping(t_bytes32,t_uint256)"},{"astId":980,"contract":"contracts/ExchangeV2.sol:ExchangeV2","label":"cancelledOrFiledOrders","offset":0,"slot":"305","type":"t_mapping(t_address,t_mapping(t_bytes_memory_ptr,t_mapping(t_uint16,t_uint256)))"},{"astId":2391,"contract":"contracts/ExchangeV2.sol:ExchangeV2","label":"__gap","offset":0,"slot":"306","type":"t_array(t_uint256)49_storage"},{"astId":3847,"contract":"contracts/ExchangeV2.sol:ExchangeV2","label":"protocolFee","offset":0,"slot":"355","type":"t_struct(ProtocolFeeData)3883_storage"},{"astId":3849,"contract":"contracts/ExchangeV2.sol:ExchangeV2","label":"royaltiesRegistry","offset":0,"slot":"356","type":"t_contract(IRoyaltiesProvider)4617"},{"astId":3851,"contract":"contracts/ExchangeV2.sol:ExchangeV2","label":"defaultFeeReceiver","offset":0,"slot":"357","type":"t_address"},{"astId":3855,"contract":"contracts/ExchangeV2.sol:ExchangeV2","label":"feeReceivers","offset":0,"slot":"358","type":"t_mapping(t_address,t_address)"},{"astId":4211,"contract":"contracts/ExchangeV2.sol:ExchangeV2","label":"__gap","offset":0,"slot":"359","type":"t_array(t_uint256)46_storage"}],"types":{"t_address":{"encoding":"inplace","label":"address","numberOfBytes":"20"},"t_array(t_uint256)46_storage":{"base":"t_uint256","encoding":"inplace","label":"uint256[46]","numberOfBytes":"1472"},"t_array(t_uint256)49_storage":{"base":"t_uint256","encoding":"inplace","label":"uint256[49]","numberOfBytes":"1568"},"t_array(t_uint256)50_storage":{"base":"t_uint256","encoding":"inplace","label":"uint256[50]","numberOfBytes":"1600"},"t_bool":{"encoding":"inplace","label":"bool","numberOfBytes":"1"},"t_bytes32":{"encoding":"inplace","label":"bytes32","numberOfBytes":"32"},"t_bytes_memory_ptr":{"encoding":"bytes","label":"bytes","numberOfBytes":"32"},"t_contract(IRoyaltiesProvider)4617":{"encoding":"inplace","label":"contract IRoyaltiesProvider","numberOfBytes":"20"},"t_mapping(t_address,t_address)":{"encoding":"mapping","key":"t_address","label":"mapping(address => address)","numberOfBytes":"32","value":"t_address"},"t_mapping(t_address,t_mapping(t_bytes_memory_ptr,t_mapping(t_uint16,t_uint256)))":{"encoding":"mapping","key":"t_address","label":"mapping(address => mapping(bytes => mapping(uint16 => uint256)))","numberOfBytes":"32","value":"t_mapping(t_bytes_memory_ptr,t_mapping(t_uint16,t_uint256))"},"t_mapping(t_bytes32,t_uint256)":{"encoding":"mapping","key":"t_bytes32","label":"mapping(bytes32 => uint256)","numberOfBytes":"32","value":"t_uint256"},"t_mapping(t_bytes_memory_ptr,t_mapping(t_uint16,t_uint256))":{"encoding":"mapping","key":"t_bytes_memory_ptr","label":"mapping(bytes => mapping(uint16 => uint256))","numberOfBytes":"32","value":"t_mapping(t_uint16,t_uint256)"},"t_mapping(t_uint16,t_uint256)":{"encoding":"mapping","key":"t_uint16","label":"mapping(uint16 => uint256)","numberOfBytes":"32","value":"t_uint256"},"t_mapping(t_uint256,t_address)":{"encoding":"mapping","key":"t_uint256","label":"mapping(uint256 => address)","numberOfBytes":"32","value":"t_address"},"t_mapping(t_uint8,t_address)":{"encoding":"mapping","key":"t_uint8","label":"mapping(uint8 => address)","numberOfBytes":"32","value":"t_address"},"t_struct(ProtocolFeeData)3883_storage":{"encoding":"inplace","label":"struct TransferManager.ProtocolFeeData","members":[{"astId":3878,"contract":"contracts/ExchangeV2.sol:ExchangeV2","label":"receiver","offset":0,"slot":"0","type":"t_address"},{"astId":3880,"contract":"contracts/ExchangeV2.sol:ExchangeV2","label":"buyerAmount","offset":20,"slot":"0","type":"t_uint48"},{"astId":3882,"contract":"contracts/ExchangeV2.sol:ExchangeV2","label":"sellerAmount","offset":26,"slot":"0","type":"t_uint48"}],"numberOfBytes":"32"},"t_uint16":{"encoding":"inplace","label":"uint16","numberOfBytes":"2"},"t_uint256":{"encoding":"inplace","label":"uint256","numberOfBytes":"32"},"t_uint48":{"encoding":"inplace","label":"uint48","numberOfBytes":"6"},"t_uint8":{"encoding":"inplace","label":"uint8","numberOfBytes":"1"}}}}}}