{"contracts/library/LibERC1155LazyMint.sol":{"LibERC1155LazyMint":{"abi":[{"inputs":[],"name":"ERC1155_LAZY_ASSET_CLASS","outputs":[{"internalType":"bytes4","name":"","type":"bytes4"}],"stateMutability":"view","type":"function"},{"inputs":[],"name":"MINT_AND_TRANSFER_TYPEHASH","outputs":[{"internalType":"bytes32","name":"","type":"bytes32"}],"stateMutability":"view","type":"function"}],"evm":{"bytecode":{"linkReferences":{},"object":"610109610026600b82828239805160001a60731461001957fe5b30600052607381538281f3fe7300000000000000000000000000000000000000003014608060405260043610603d5760003560e01c80637987105f14604257806390c20c4314605c575b600080fd5b6048606d565b6040516053919060b5565b60405180910390f35b60626091565b6040516053919060be565b7ffb988707ebb338694f318760b0fd5cfe756d00a2ade251fda110b80c336a3c7f81565b7f1cdfaa400bc064c91b5cc20e571cfcc92103980be96e01fb36dda1962d8d78cb81565b90815260200190565b6001600160e01b03199190911681526020019056fea26469706673582212207e2b7ffdea3e174031fd089267f970eb1d2b991738aadb4fdf0dee31c70d69c064736f6c63430007060033","opcodes":"PUSH2 0x109 PUSH2 0x26 PUSH1 0xB DUP3 DUP3 DUP3 CODECOPY DUP1 MLOAD PUSH1 0x0 BYTE PUSH1 0x73 EQ PUSH2 0x19 JUMPI INVALID JUMPDEST ADDRESS PUSH1 0x0 MSTORE PUSH1 0x73 DUP2 MSTORE8 DUP3 DUP2 RETURN INVALID PUSH20 0x0 ADDRESS EQ PUSH1 0x80 PUSH1 0x40 MSTORE PUSH1 0x4 CALLDATASIZE LT PUSH1 0x3D JUMPI PUSH1 0x0 CALLDATALOAD PUSH1 0xE0 SHR DUP1 PUSH4 0x7987105F EQ PUSH1 0x42 JUMPI DUP1 PUSH4 0x90C20C43 EQ PUSH1 0x5C JUMPI JUMPDEST PUSH1 0x0 DUP1 REVERT JUMPDEST PUSH1 0x48 PUSH1 0x6D JUMP JUMPDEST PUSH1 0x40 MLOAD PUSH1 0x53 SWAP2 SWAP1 PUSH1 0xB5 JUMP JUMPDEST PUSH1 0x40 MLOAD DUP1 SWAP2 SUB SWAP1 RETURN JUMPDEST PUSH1 0x62 PUSH1 0x91 JUMP JUMPDEST PUSH1 0x40 MLOAD PUSH1 0x53 SWAP2 SWAP1 PUSH1 0xBE JUMP JUMPDEST PUSH32 0xFB988707EBB338694F318760B0FD5CFE756D00A2ADE251FDA110B80C336A3C7F DUP2 JUMP JUMPDEST PUSH32 0x1CDFAA400BC064C91B5CC20E571CFCC92103980BE96E01FB36DDA1962D8D78CB DUP2 JUMP JUMPDEST SWAP1 DUP2 MSTORE PUSH1 0x20 ADD SWAP1 JUMP JUMPDEST PUSH1 0x1 PUSH1 0x1 PUSH1 0xE0 SHL SUB NOT SWAP2 SWAP1 SWAP2 AND DUP2 MSTORE PUSH1 0x20 ADD SWAP1 JUMP INVALID LOG2 PUSH5 0x6970667358 0x22 SLT KECCAK256 PUSH31 0x2B7FFDEA3E174031FD089267F970EB1D2B991738AADB4FDF0DEE31C70D69C0 PUSH5 0x736F6C6343 STOP SMOD MOD STOP CALLER "},"methodIdentifiers":{"ERC1155_LAZY_ASSET_CLASS()":"90c20c43","MINT_AND_TRANSFER_TYPEHASH()":"7987105f"}},"storageLayout":{"storage":[],"types":null}}}}