{"contracts/ExchangeV2.sol":{"LibOrderDataV1":{"abi":[{"inputs":[],"name":"V1","outputs":[{"internalType":"bytes4","name":"","type":"bytes4"}],"stateMutability":"view","type":"function"}],"evm":{"bytecode":{"linkReferences":{},"object":"60c1610025600b82828239805160001a60731461001857fe5b30600052607381538281f3fe730000000000000000000000000000000000000000301460806040526004361060335760003560e01c80633ee569bf146038575b600080fd5b603e6052565b604051604991906076565b60405180910390f35b7f4c23426613a5dc69e08fbd2787e6210aa679d4522e95a89d4dd88c4fd13a228381565b6001600160e01b03199190911681526020019056fea2646970667358221220183fc6e6d044a120bc9c0a3353e758934d07f1201b8aa4f7ac58b7078baff90564736f6c63430007060033","opcodes":"PUSH1 0xC1 PUSH2 0x25 PUSH1 0xB DUP3 DUP3 DUP3 CODECOPY DUP1 MLOAD PUSH1 0x0 BYTE PUSH1 0x73 EQ PUSH2 0x18 JUMPI INVALID JUMPDEST ADDRESS PUSH1 0x0 MSTORE PUSH1 0x73 DUP2 MSTORE8 DUP3 DUP2 RETURN INVALID PUSH20 0x0 ADDRESS EQ PUSH1 0x80 PUSH1 0x40 MSTORE PUSH1 0x4 CALLDATASIZE LT PUSH1 0x33 JUMPI PUSH1 0x0 CALLDATALOAD PUSH1 0xE0 SHR DUP1 PUSH4 0x3EE569BF EQ PUSH1 0x38 JUMPI JUMPDEST PUSH1 0x0 DUP1 REVERT JUMPDEST PUSH1 0x3E PUSH1 0x52 JUMP JUMPDEST PUSH1 0x40 MLOAD PUSH1 0x49 SWAP2 SWAP1 PUSH1 0x76 JUMP JUMPDEST PUSH1 0x40 MLOAD DUP1 SWAP2 SUB SWAP1 RETURN JUMPDEST PUSH32 0x4C23426613A5DC69E08FBD2787E6210AA679D4522E95A89D4DD88C4FD13A2283 DUP2 JUMP JUMPDEST PUSH1 0x1 PUSH1 0x1 PUSH1 0xE0 SHL SUB NOT SWAP2 SWAP1 SWAP2 AND DUP2 MSTORE PUSH1 0x20 ADD SWAP1 JUMP INVALID LOG2 PUSH5 0x6970667358 0x22 SLT KECCAK256 XOR EXTCODEHASH 0xC6 0xE6 0xD0 DIFFICULTY LOG1 KECCAK256 0xBC SWAP13 EXP CALLER MSTORE8 0xE7 PC SWAP4 0x4D SMOD CALL KECCAK256 SHL DUP11 LOG4 0xF7 0xAC PC 0xB7 SMOD DUP12 0xAF 0xF9 SDIV PUSH5 0x736F6C6343 STOP SMOD MOD STOP CALLER "},"methodIdentifiers":{"V1()":"3ee569bf"}},"storageLayout":{"storage":[],"types":null}}}}