{"contracts/ExchangeV2.sol":{"ExchangeV2":{"abi":[{"inputs":[],"stateMutability":"nonpayable","type":"constructor"},{"anonymous":false,"inputs":[{"indexed":false,"internalType":"uint256","name":"oldValue","type":"uint256"},{"indexed":false,"internalType":"uint256","name":"newValue","type":"uint256"}],"name":"BuyerFeeAmountChanged","type":"event"},{"anonymous":false,"inputs":[{"indexed":false,"internalType":"bytes32","name":"hash","type":"bytes32"}],"name":"Cancel","type":"event"},{"anonymous":false,"inputs":[{"indexed":false,"internalType":"address","name":"maker","type":"address"},{"indexed":false,"internalType":"bytes","name":"sig","type":"bytes"},{"indexed":false,"internalType":"uint16","name":"index","type":"uint16"}],"name":"CancelOrder","type":"event"},{"anonymous":false,"inputs":[{"indexed":false,"internalType":"address","name":"oldValue","type":"address"},{"indexed":false,"internalType":"address","name":"newValue","type":"address"}],"name":"FeeReceiverChanged","type":"event"},{"anonymous":false,"inputs":[{"indexed":false,"internalType":"enum LibOrder.OrderType","name":"orderType","type":"uint8"},{"indexed":false,"internalType":"address","name":"maker","type":"address"},{"indexed":false,"internalType":"address","name":"taker","type":"address"},{"indexed":false,"internalType":"bytes","name":"sig","type":"bytes"},{"indexed":false,"internalType":"uint16","name":"index","type":"uint16"},{"indexed":false,"internalType":"uint256","name":"takeQty","type":"uint256"},{"indexed":false,"internalType":"uint256","name":"takeAssetId","type":"uint256"},{"indexed":false,"internalType":"uint256","name":"currentFilledValue","type":"uint256"},{"indexed":false,"internalType":"uint256","name":"randomValue","type":"uint256"}],"name":"FillOrder","type":"event"},{"anonymous":false,"inputs":[{"indexed":false,"internalType":"bytes32","name":"leftHash","type":"bytes32"},{"indexed":false,"internalType":"bytes32","name":"rightHash","type":"bytes32"},{"indexed":false,"internalType":"uint256","name":"newLeftFill","type":"uint256"},{"indexed":false,"internalType":"uint256","name":"newRightFill","type":"uint256"}],"name":"Match","type":"event"},{"anonymous":false,"inputs":[{"indexed":true,"internalType":"uint256","name":"assetType","type":"uint256"},{"indexed":false,"internalType":"address","name":"matcher","type":"address"}],"name":"MatcherChange","type":"event"},{"anonymous":false,"inputs":[{"indexed":true,"internalType":"address","name":"previousOwner","type":"address"},{"indexed":true,"internalType":"address","name":"newOwner","type":"address"}],"name":"OwnershipTransferred","type":"event"},{"anonymous":false,"inputs":[{"indexed":true,"internalType":"uint256","name":"assetType","type":"uint256"},{"indexed":false,"internalType":"address","name":"proxy","type":"address"}],"name":"ProxyChange","type":"event"},{"anonymous":false,"inputs":[{"indexed":false,"internalType":"uint256","name":"oldValue","type":"uint256"},{"indexed":false,"internalType":"uint256","name":"newValue","type":"uint256"}],"name":"SellerFeeAmountChanged","type":"event"},{"inputs":[{"internalType":"address","name":"_transferProxy","type":"address"},{"internalType":"address","name":"_erc20TransferProxy","type":"address"},{"internalType":"uint256","name":"newProtocolFee","type":"uint256"},{"internalType":"address","name":"newDefaultFeeReceiver","type":"address"},{"internalType":"contract IRoyaltiesProvider","name":"newRoyaltiesProvider","type":"address"}],"name":"__ExchangeV2_init","outputs":[],"stateMutability":"nonpayable","type":"function"},{"inputs":[],"name":"_owner","outputs":[{"internalType":"address","name":"","type":"address"}],"stateMutability":"view","type":"function"},{"inputs":[{"components":[{"internalType":"enum LibOrder.OrderType","name":"orderType","type":"uint8"},{"internalType":"address","name":"maker","type":"address"},{"components":[{"internalType":"uint8","name":"assetType","type":"uint8"},{"internalType":"address","name":"contractAddress","type":"address"},{"internalType":"uint256","name":"value","type":"uint256"},{"internalType":"uint256","name":"id","type":"uint256"}],"internalType":"struct LibAsset.Asset","name":"makeAsset","type":"tuple"},{"internalType":"address","name":"taker","type":"address"},{"components":[{"internalType":"uint8","name":"assetType","type":"uint8"},{"internalType":"address","name":"contractAddress","type":"address"},{"internalType":"uint256","name":"value","type":"uint256"},{"internalType":"uint256","name":"id","type":"uint256"}],"internalType":"struct LibAsset.Asset","name":"takeAsset","type":"tuple"},{"internalType":"uint256","name":"salt","type":"uint256"},{"internalType":"uint256","name":"start","type":"uint256"},{"internalType":"uint256","name":"end","type":"uint256"},{"components":[{"internalType":"address","name":"receiver","type":"address"},{"internalType":"uint256","name":"amount","type":"uint256"}],"internalType":"struct LibOrder.Fee","name":"originFee","type":"tuple"},{"components":[{"internalType":"address","name":"receiver","type":"address"},{"internalType":"uint256","name":"amount","type":"uint256"}],"internalType":"struct LibOrder.Fee","name":"royaltyFee","type":"tuple"},{"internalType":"bytes","name":"sig","type":"bytes"},{"internalType":"bytes32","name":"root","type":"bytes32"},{"internalType":"bytes32[]","name":"proof","type":"bytes32[]"},{"internalType":"uint16","name":"index","type":"uint16"}],"internalType":"struct LibOrder.Order","name":"order","type":"tuple"}],"name":"cancel","outputs":[],"stateMutability":"nonpayable","type":"function"},{"inputs":[{"components":[{"internalType":"enum LibOrder.OrderType","name":"orderType","type":"uint8"},{"internalType":"address","name":"maker","type":"address"},{"components":[{"internalType":"uint8","name":"assetType","type":"uint8"},{"internalType":"address","name":"contractAddress","type":"address"},{"internalType":"uint256","name":"value","type":"uint256"},{"internalType":"uint256","name":"id","type":"uint256"}],"internalType":"struct LibAsset.Asset","name":"makeAsset","type":"tuple"},{"internalType":"address","name":"taker","type":"address"},{"components":[{"internalType":"uint8","name":"assetType","type":"uint8"},{"internalType":"address","name":"contractAddress","type":"address"},{"internalType":"uint256","name":"value","type":"uint256"},{"internalType":"uint256","name":"id","type":"uint256"}],"internalType":"struct LibAsset.Asset","name":"takeAsset","type":"tuple"},{"internalType":"uint256","name":"salt","type":"uint256"},{"internalType":"uint256","name":"start","type":"uint256"},{"internalType":"uint256","name":"end","type":"uint256"},{"components":[{"internalType":"address","name":"receiver","type":"address"},{"internalType":"uint256","name":"amount","type":"uint256"}],"internalType":"struct LibOrder.Fee","name":"originFee","type":"tuple"},{"components":[{"internalType":"address","name":"receiver","type":"address"},{"internalType":"uint256","name":"amount","type":"uint256"}],"internalType":"struct LibOrder.Fee","name":"royaltyFee","type":"tuple"},{"internalType":"bytes","name":"sig","type":"bytes"},{"internalType":"bytes32","name":"root","type":"bytes32"},{"internalType":"bytes32[]","name":"proof","type":"bytes32[]"},{"internalType":"uint16","name":"index","type":"uint16"}],"internalType":"struct LibOrder.Order","name":"order","type":"tuple"}],"name":"cancelOrder","outputs":[],"stateMutability":"nonpayable","type":"function"},{"inputs":[{"components":[{"components":[{"internalType":"enum LibOrder.OrderType","name":"orderType","type":"uint8"},{"internalType":"address","name":"maker","type":"address"},{"components":[{"internalType":"uint8","name":"assetType","type":"uint8"},{"internalType":"address","name":"contractAddress","type":"address"},{"internalType":"uint256","name":"value","type":"uint256"},{"internalType":"uint256","name":"id","type":"uint256"}],"internalType":"struct LibAsset.Asset","name":"makeAsset","type":"tuple"},{"internalType":"address","name":"taker","type":"address"},{"components":[{"internalType":"uint8","name":"assetType","type":"uint8"},{"internalType":"address","name":"contractAddress","type":"address"},{"internalType":"uint256","name":"value","type":"uint256"},{"internalType":"uint256","name":"id","type":"uint256"}],"internalType":"struct LibAsset.Asset","name":"takeAsset","type":"tuple"},{"internalType":"uint256","name":"salt","type":"uint256"},{"internalType":"uint256","name":"start","type":"uint256"},{"internalType":"uint256","name":"end","type":"uint256"},{"components":[{"internalType":"address","name":"receiver","type":"address"},{"internalType":"uint256","name":"amount","type":"uint256"}],"internalType":"struct LibOrder.Fee","name":"originFee","type":"tuple"},{"components":[{"internalType":"address","name":"receiver","type":"address"},{"internalType":"uint256","name":"amount","type":"uint256"}],"internalType":"struct LibOrder.Fee","name":"royaltyFee","type":"tuple"},{"internalType":"bytes","name":"sig","type":"bytes"},{"internalType":"bytes32","name":"root","type":"bytes32"},{"internalType":"bytes32[]","name":"proof","type":"bytes32[]"},{"internalType":"uint16","name":"index","type":"uint16"}],"internalType":"struct LibOrder.Order","name":"bidOrder","type":"tuple"},{"components":[{"internalType":"enum LibOrder.OrderType","name":"orderType","type":"uint8"},{"internalType":"address","name":"maker","type":"address"},{"components":[{"internalType":"uint8","name":"assetType","type":"uint8"},{"internalType":"address","name":"contractAddress","type":"address"},{"internalType":"uint256","name":"value","type":"uint256"},{"internalType":"uint256","name":"id","type":"uint256"}],"internalType":"struct LibAsset.Asset","name":"makeAsset","type":"tuple"},{"internalType":"address","name":"taker","type":"address"},{"components":[{"internalType":"uint8","name":"assetType","type":"uint8"},{"internalType":"address","name":"contractAddress","type":"address"},{"internalType":"uint256","name":"value","type":"uint256"},{"internalType":"uint256","name":"id","type":"uint256"}],"internalType":"struct LibAsset.Asset","name":"takeAsset","type":"tuple"},{"internalType":"uint256","name":"salt","type":"uint256"},{"internalType":"uint256","name":"start","type":"uint256"},{"internalType":"uint256","name":"end","type":"uint256"},{"components":[{"internalType":"address","name":"receiver","type":"address"},{"internalType":"uint256","name":"amount","type":"uint256"}],"internalType":"struct LibOrder.Fee","name":"originFee","type":"tuple"},{"components":[{"internalType":"address","name":"receiver","type":"address"},{"internalType":"uint256","name":"amount","type":"uint256"}],"internalType":"struct LibOrder.Fee","name":"royaltyFee","type":"tuple"},{"internalType":"bytes","name":"sig","type":"bytes"},{"internalType":"bytes32","name":"root","type":"bytes32"},{"internalType":"bytes32[]","name":"proof","type":"bytes32[]"},{"internalType":"uint16","name":"index","type":"uint16"}],"internalType":"struct LibOrder.Order","name":"sellOrder","type":"tuple"}],"internalType":"struct LibDirectTransfer.AcceptBid","name":"direct","type":"tuple"}],"name":"directAcceptBid","outputs":[],"stateMutability":"payable","type":"function"},{"inputs":[{"internalType":"bytes32","name":"","type":"bytes32"}],"name":"fills","outputs":[{"internalType":"uint256","name":"","type":"uint256"}],"stateMutability":"view","type":"function"},{"inputs":[{"internalType":"uint8","name":"index","type":"uint8"}],"name":"getTransferProxy","outputs":[{"internalType":"address","name":"","type":"address"}],"stateMutability":"view","type":"function"},{"inputs":[{"components":[{"internalType":"enum LibOrder.OrderType","name":"orderType","type":"uint8"},{"internalType":"address","name":"maker","type":"address"},{"components":[{"internalType":"uint8","name":"assetType","type":"uint8"},{"internalType":"address","name":"contractAddress","type":"address"},{"internalType":"uint256","name":"value","type":"uint256"},{"internalType":"uint256","name":"id","type":"uint256"}],"internalType":"struct LibAsset.Asset","name":"makeAsset","type":"tuple"},{"internalType":"address","name":"taker","type":"address"},{"components":[{"internalType":"uint8","name":"assetType","type":"uint8"},{"internalType":"address","name":"contractAddress","type":"address"},{"internalType":"uint256","name":"value","type":"uint256"},{"internalType":"uint256","name":"id","type":"uint256"}],"internalType":"struct LibAsset.Asset","name":"takeAsset","type":"tuple"},{"internalType":"uint256","name":"salt","type":"uint256"},{"internalType":"uint256","name":"start","type":"uint256"},{"internalType":"uint256","name":"end","type":"uint256"},{"components":[{"internalType":"address","name":"receiver","type":"address"},{"internalType":"uint256","name":"amount","type":"uint256"}],"internalType":"struct LibOrder.Fee","name":"originFee","type":"tuple"},{"components":[{"internalType":"address","name":"receiver","type":"address"},{"internalType":"uint256","name":"amount","type":"uint256"}],"internalType":"struct LibOrder.Fee","name":"royaltyFee","type":"tuple"},{"internalType":"bytes","name":"sig","type":"bytes"},{"internalType":"bytes32","name":"root","type":"bytes32"},{"internalType":"bytes32[]","name":"proof","type":"bytes32[]"},{"internalType":"uint16","name":"index","type":"uint16"}],"internalType":"struct LibOrder.Order[]","name":"orderLefts","type":"tuple[]"},{"components":[{"internalType":"enum LibOrder.OrderType","name":"orderType","type":"uint8"},{"internalType":"address","name":"maker","type":"address"},{"components":[{"internalType":"uint8","name":"assetType","type":"uint8"},{"internalType":"address","name":"contractAddress","type":"address"},{"internalType":"uint256","name":"value","type":"uint256"},{"internalType":"uint256","name":"id","type":"uint256"}],"internalType":"struct LibAsset.Asset","name":"makeAsset","type":"tuple"},{"internalType":"address","name":"taker","type":"address"},{"components":[{"internalType":"uint8","name":"assetType","type":"uint8"},{"internalType":"address","name":"contractAddress","type":"address"},{"internalType":"uint256","name":"value","type":"uint256"},{"internalType":"uint256","name":"id","type":"uint256"}],"internalType":"struct LibAsset.Asset","name":"takeAsset","type":"tuple"},{"internalType":"uint256","name":"salt","type":"uint256"},{"internalType":"uint256","name":"start","type":"uint256"},{"internalType":"uint256","name":"end","type":"uint256"},{"components":[{"internalType":"address","name":"receiver","type":"address"},{"internalType":"uint256","name":"amount","type":"uint256"}],"internalType":"struct LibOrder.Fee","name":"originFee","type":"tuple"},{"components":[{"internalType":"address","name":"receiver","type":"address"},{"internalType":"uint256","name":"amount","type":"uint256"}],"internalType":"struct LibOrder.Fee","name":"royaltyFee","type":"tuple"},{"internalType":"bytes","name":"sig","type":"bytes"},{"internalType":"bytes32","name":"root","type":"bytes32"},{"internalType":"bytes32[]","name":"proof","type":"bytes32[]"},{"internalType":"uint16","name":"index","type":"uint16"}],"internalType":"struct LibOrder.Order[]","name":"orderRights","type":"tuple[]"}],"name":"matchOrders","outputs":[],"stateMutability":"payable","type":"function"},{"inputs":[],"name":"owner","outputs":[{"internalType":"address","name":"","type":"address"}],"stateMutability":"view","type":"function"},{"inputs":[],"name":"protocolFee","outputs":[{"internalType":"address","name":"receiver","type":"address"},{"internalType":"uint48","name":"buyerAmount","type":"uint48"},{"internalType":"uint48","name":"sellerAmount","type":"uint48"}],"stateMutability":"view","type":"function"},{"inputs":[],"name":"renounceOwnership","outputs":[],"stateMutability":"nonpayable","type":"function"},{"inputs":[],"name":"royaltiesRegistry","outputs":[{"internalType":"contract IRoyaltiesProvider","name":"","type":"address"}],"stateMutability":"view","type":"function"},{"inputs":[{"internalType":"address","name":"_receiver","type":"address"},{"internalType":"uint48","name":"_buyerAmount","type":"uint48"},{"internalType":"uint48","name":"_sellerAmount","type":"uint48"}],"name":"setAllProtocolFeeData","outputs":[],"stateMutability":"nonpayable","type":"function"},{"inputs":[{"internalType":"uint256","name":"assetType","type":"uint256"},{"internalType":"address","name":"matcher","type":"address"}],"name":"setAssetMatcher","outputs":[],"stateMutability":"nonpayable","type":"function"},{"inputs":[{"internalType":"uint48","name":"_buyerAmount","type":"uint48"}],"name":"setPrtocolFeeBuyerAmount","outputs":[],"stateMutability":"nonpayable","type":"function"},{"inputs":[{"internalType":"address","name":"_receiver","type":"address"}],"name":"setPrtocolFeeReceiver","outputs":[],"stateMutability":"nonpayable","type":"function"},{"inputs":[{"internalType":"uint48","name":"_sellerAmount","type":"uint48"}],"name":"setPrtocolFeeSellerAmount","outputs":[],"stateMutability":"nonpayable","type":"function"},{"inputs":[{"internalType":"contract IRoyaltiesProvider","name":"newRoyaltiesRegistry","type":"address"}],"name":"setRoyaltiesRegistry","outputs":[],"stateMutability":"nonpayable","type":"function"},{"inputs":[{"internalType":"uint8","name":"index","type":"uint8"},{"internalType":"address","name":"proxy","type":"address"}],"name":"setTransferProxy","outputs":[],"stateMutability":"nonpayable","type":"function"},{"inputs":[{"internalType":"address","name":"newOwner","type":"address"}],"name":"transferOwnership","outputs":[],"stateMutability":"nonpayable","type":"function"},{"inputs":[{"internalType":"bytes32","name":"root","type":"bytes32"},{"internalType":"bytes32[]","name":"proof","type":"bytes32[]"},{"components":[{"internalType":"enum LibOrder.OrderType","name":"orderType","type":"uint8"},{"internalType":"address","name":"maker","type":"address"},{"components":[{"internalType":"uint8","name":"assetType","type":"uint8"},{"internalType":"address","name":"contractAddress","type":"address"},{"internalType":"uint256","name":"value","type":"uint256"},{"internalType":"uint256","name":"id","type":"uint256"}],"internalType":"struct LibAsset.Asset","name":"makeAsset","type":"tuple"},{"internalType":"address","name":"taker","type":"address"},{"components":[{"internalType":"uint8","name":"assetType","type":"uint8"},{"internalType":"address","name":"contractAddress","type":"address"},{"internalType":"uint256","name":"value","type":"uint256"},{"internalType":"uint256","name":"id","type":"uint256"}],"internalType":"struct LibAsset.Asset","name":"takeAsset","type":"tuple"},{"internalType":"uint256","name":"salt","type":"uint256"},{"internalType":"uint256","name":"start","type":"uint256"},{"internalType":"uint256","name":"end","type":"uint256"},{"components":[{"internalType":"address","name":"receiver","type":"address"},{"internalType":"uint256","name":"amount","type":"uint256"}],"internalType":"struct LibOrder.Fee","name":"originFee","type":"tuple"},{"components":[{"internalType":"address","name":"receiver","type":"address"},{"internalType":"uint256","name":"amount","type":"uint256"}],"internalType":"struct LibOrder.Fee","name":"royaltyFee","type":"tuple"},{"internalType":"bytes","name":"sig","type":"bytes"},{"internalType":"bytes32","name":"root","type":"bytes32"},{"internalType":"bytes32[]","name":"proof","type":"bytes32[]"},{"internalType":"uint16","name":"index","type":"uint16"}],"internalType":"struct LibOrder.Order","name":"order","type":"tuple"}],"name":"validateListing","outputs":[{"internalType":"bool","name":"isValid","type":"bool"}],"stateMutability":"pure","type":"function"}],"evm":{"bytecode":{"linkReferences":{},"object":"60806040526275327560e81b60c955603160f81b60ca55600061012f553480156200002957600080fd5b50603380546001600160a01b03191633179055620000466200004c565b6200024d565b600054610100900460ff16806200006857506200006862000130565b8062000077575060005460ff16155b6200009f5760405162461bcd60e51b81526004016200009690620001ff565b60405180910390fd5b600054610100900460ff16158015620000cb576000805460ff1961ff0019909116610100171660011790555b6200011a6040518060400160405280600c81526020016b5837323145786368616e676560a01b815250604051806040016040528060018152602001603160f81b8152506200014e60201b60201c565b80156200012d576000805461ff00191690555b50565b60006200014830620001f960201b62000f281760201c565b15905090565b600054610100900460ff16806200016a57506200016a62000130565b8062000179575060005460ff16155b620001985760405162461bcd60e51b81526004016200009690620001ff565b600054610100900460ff16158015620001c4576000805460ff1961ff0019909116610100171660011790555b825160208085019190912083519184019190912060c99190915560ca558015620001f4576000805461ff00191690555b505050565b3b151590565b6020808252602e908201527f496e697469616c697a61626c653a20636f6e747261637420697320616c72656160408201526d191e481a5b9a5d1a585b1a5e995960921b606082015260800190565b613f25806200025d6000396000f3fe60806040526004361061012a5760003560e01c8063b0e21e8a116100ab578063c648a6871161006f578063c648a6871461030c578063d362d3ff1461032c578063d6ca6ab71461034c578063eae3ad6f1461036c578063f2fde38b1461038c578063faa2cc7c146103ac5761012a565b8063b0e21e8a14610273578063b2bdfa7b14610297578063b36c9b29146102ac578063b74c8e9a146102cc578063bc158c2d146102ec5761012a565b80634cfe4cd8116100f25780634cfe4cd8146101e75780636d8f069414610207578063715018a6146102295780638b42af3e1461023e5780638da5cb5b1461025e5761012a565b80631372a6251461012f57806320158c441461015157806333033608146101875780633be899221461019a5780633e2d95ff146101ba575b600080fd5b34801561013b57600080fd5b5061014f61014a366004612fca565b6103bf565b005b34801561015d57600080fd5b5061017161016c3660046130f6565b610475565b60405161017e9190613526565b60405180910390f35b61014f610195366004613178565b610488565b3480156101a657600080fd5b5061014f6101b5366004612fae565b610600565b3480156101c657600080fd5b506101da6101d536600461310e565b610662565b60405161017e919061351b565b3480156101f357600080fd5b5061014f6102023660046132d6565b610684565b34801561021357600080fd5b5061021c61072a565b60405161017e91906133f1565b34801561023557600080fd5b5061014f61073a565b34801561024a57600080fd5b5061014f61025936600461321e565b6107c3565b34801561026a57600080fd5b5061021c6108bc565b34801561027f57600080fd5b506102886108cb565b60405161017e939291906134f2565b3480156102a357600080fd5b5061021c6108f6565b3480156102b857600080fd5b5061021c6102c73660046132ba565b610905565b3480156102d857600080fd5b5061014f6102e7366004613031565b610927565b3480156102f857600080fd5b5061014f610307366004612fae565b610986565b34801561031857600080fd5b5061014f610327366004613271565b610a30565b34801561033857600080fd5b5061014f61034736600461321e565b610ac8565b34801561035857600080fd5b5061014f6103673660046132a0565b610b83565b34801561037857600080fd5b5061014f6103873660046132a0565b610c3a565b34801561039857600080fd5b5061014f6103a7366004612fae565b610cee565b61014f6103ba366004613075565b610daf565b600054610100900460ff16806103d857506103d8610f2e565b806103e6575060005460ff16155b61040b5760405162461bcd60e51b815260040161040290613a66565b60405180910390fd5b600054610100900460ff16158015610436576000805460ff1961ff0019909116610100171660011790555b61043e610f3f565b610446610fc2565b610450868661109c565b61045b848484611140565b801561046d576000805461ff00191690555b505050505050565b6101306020526000908152604090205481565b60006104948280613e3b565b61049d90613e93565b905060006104ae6020840184613e3b565b6104b790613e93565b6080830151604090810151818301519091015191925090818111156104ee5760405162461bcd60e51b815260040161040290613c8b565b6104fd848561014001516111e2565b61050c838461014001516111e2565b6000828560400151604001518161051f57fe5b049050600082820290508560400151604001518111156105515760405162461bcd60e51b8152600401610402906138a7565b604080870151810182905260808088015182018590526020808801516001600160a01b0390811660608b01528884015184018890529188015183018490528089015190911660009081526101319091528181206101408901519251919290916105ba919061335e565b90815260408051602092819003830190206101a08a015161ffff166000908152925290205490506105eb86886111f9565b6105f6868883611333565b5050505050505050565b6106086114bd565b6001600160a01b03166106196108bc565b6001600160a01b03161461063f5760405162461bcd60e51b815260040161040290613b2d565b61016480546001600160a01b0319166001600160a01b0392909216919091179055565b60008061066e836114c1565b905061067b848683611538565b95945050505050565b61068c6114bd565b6001600160a01b031661069d6108bc565b6001600160a01b0316146106c35760405162461bcd60e51b815260040161040290613b2d565b60ff82166000818152609760205260409081902080546001600160a01b0319166001600160a01b038516179055517f8edda873a8ad561ecebeb71ceb3ae6bcb70c2b76a3fcb869859895c4d4fc74169061071e9084906133f1565b60405180910390a25050565b610164546001600160a01b031681565b6107426114bd565b6001600160a01b03166107536108bc565b6001600160a01b0316146107795760405162461bcd60e51b815260040161040290613b2d565b6033546040516000916001600160a01b0316907f8be0079c531659141344cd1fd0a4f28419497f9722a3daafe3b4186f6b6457e0908390a3603380546001600160a01b0319169055565b80602001516001600160a01b03166107d96114bd565b6001600160a01b0316146107ff5760405162461bcd60e51b815260040161040290613d39565b80604001516040015161013160006108156114bd565b6001600160a01b03166001600160a01b03168152602001908152602001600020826101400151604051610848919061335e565b90815260408051602092819003830190206101a085015161ffff16600090815292529020557f86f8a270a95f47ad48690dd66eda181ea3d229312582e7d222c11e24f39947d06108966114bd565b826101400151836101a001516040516108b193929190613405565b60405180910390a150565b6033546001600160a01b031690565b610163546001600160a01b0381169065ffffffffffff600160a01b8204811691600160d01b90041683565b6033546001600160a01b031681565b60ff81166000908152609760205260409020546001600160a01b03165b919050565b61092f6114bd565b6001600160a01b03166109406108bc565b6001600160a01b0316146109665760405162461bcd60e51b815260040161040290613b2d565b61096f83610986565b61097882610b83565b61098181610c3a565b505050565b61098e6114bd565b6001600160a01b031661099f6108bc565b6001600160a01b0316146109c55760405162461bcd60e51b815260040161040290613b2d565b610163546040517fa4b009cc442411b602eaf94bc0579b6abdb8fd90b4ef5b9426e270038906bd0391610a05916001600160a01b0390911690849061343d565b60405180910390a161016380546001600160a01b0319166001600160a01b0392909216919091179055565b610a386114bd565b6001600160a01b0316610a496108bc565b6001600160a01b031614610a6f5760405162461bcd60e51b815260040161040290613b2d565b6000828152606560205260409081902080546001600160a01b0319166001600160a01b0384161790555182907f58204093ed36d15d7f2a89fdaca20c53f1e02a2ce5686ace9247d1b96e9ec67b9061071e9084906133f1565b80602001516001600160a01b0316610ade6114bd565b6001600160a01b031614610b045760405162461bcd60e51b815260040161040290613d39565b60a0810151610b255760405162461bcd60e51b815260040161040290613842565b6000610b3082611550565b60008181526101306020526040908190206000199055519091507fe8d9861dbc9c663ed3accd261bbe2fe01e0d3d9e5f51fa38523b265c7757a93a90610b77908390613526565b60405180910390a15050565b610b8b6114bd565b6001600160a01b0316610b9c6108bc565b6001600160a01b031614610bc25760405162461bcd60e51b815260040161040290613b2d565b610163546040517f70bba4f904a93ba5c1af3a1bb602bc9c058551dbe963dfe0b6cb5bc11c5fea9e91610c0791600160a01b90910465ffffffffffff16908490613e0f565b60405180910390a1610163805465ffffffffffff909216600160a01b0265ffffffffffff60a01b19909216919091179055565b610c426114bd565b6001600160a01b0316610c536108bc565b6001600160a01b031614610c795760405162461bcd60e51b815260040161040290613b2d565b610163546040517fa8af9093caa9beb61d20432227c66258ceef926f21879b80f3adf22a4d19f13191610cbe91600160d01b90910465ffffffffffff16908490613e0f565b60405180910390a1610163805465ffffffffffff909216600160d01b026001600160d01b03909216919091179055565b610cf66114bd565b6001600160a01b0316610d076108bc565b6001600160a01b031614610d2d5760405162461bcd60e51b815260040161040290613b2d565b6001600160a01b038116610d535760405162461bcd60e51b8152600401610402906137c5565b6033546040516001600160a01b038084169216907f8be0079c531659141344cd1fd0a4f28419497f9722a3daafe3b4186f6b6457e090600090a3603380546001600160a01b0319166001600160a01b0392909216919091179055565b8051825114610dd05760405162461bcd60e51b815260040161040290613900565b60005b8251811015610981576000838281518110610dea57fe5b602002602001015190506000838381518110610e0257fe5b602002602001015190506000610131600084602001516001600160a01b03166001600160a01b03168152602001908152602001600020836101400151604051610e4b919061335e565b90815260408051602092819003830190206101a086015161ffff16600090815292529020549050600183516003811115610e8157fe5b1415610eb857610e9c83610160015184610180015185610662565b610eb85760405162461bcd60e51b815260040161040290613d10565b600182516003811115610ec757fe5b1415610efe57610ee282610160015183610180015184610662565b610efe5760405162461bcd60e51b815260040161040290613d10565b610f0883836111f9565b610f128383611589565b610f1d838383611333565b505050600101610dd3565b3b151590565b6000610f3930610f28565b15905090565b600054610100900460ff1680610f585750610f58610f2e565b80610f66575060005460ff16155b610f825760405162461bcd60e51b815260040161040290613a66565b600054610100900460ff16158015610fad576000805460ff1961ff0019909116610100171660011790555b8015610fbf576000805461ff00191690555b50565b600054610100900460ff1680610fdb5750610fdb610f2e565b80610fe9575060005460ff16155b6110055760405162461bcd60e51b815260040161040290613a66565b600054610100900460ff16158015611030576000805460ff1961ff0019909116610100171660011790555b600061103a6114bd565b603380546001600160a01b0319166001600160a01b038316908117909155604051919250906000907f8be0079c531659141344cd1fd0a4f28419497f9722a3daafe3b4186f6b6457e0908290a3508015610fbf576000805461ff001916905550565b60976020527fd6ca216b3b8b63bcc0099d5c8294d1780d598ac9b3a29b15c3c3e68c85f6e30c80546001600160a01b039283166001600160a01b0319918216179091557f017b8d24b2a0f404d68a0b2abb80fd2d4d2105d3355f1fc48a1949fe7fce12e5805493909216928116831790915560046000527ff6fe0582e0e323a551f456b66350a1ed549948a34fdd35be011d229e00171c1f80549091169091179055565b600054610100900460ff16806111595750611159610f2e565b80611167575060005460ff16155b6111835760405162461bcd60e51b815260040161040290613a66565b600054610100900460ff161580156111ae576000805460ff1961ff0019909116610100171660011790555b61016480546001600160a01b0319166001600160a01b03841617905580156111dc576000805461ff00191690555b50505050565b6111eb82611956565b6111f582826119b6565b5050565b6020808301516001600160a01b0316600090815261013190915260408082206101408501519151909161122b9161335e565b90815260200160405180910390206000846101a0015161ffff1661ffff16815260200190815260200160002054905082604001516000015160ff16600314156112ed57610131600084602001516001600160a01b03166001600160a01b031681526020019081526020016000208361014001516040516112ab919061335e565b90815260408051602092819003830190206101a086015161ffff1660009081529252902054156112ed5760405162461bcd60e51b815260040161040290613b91565b82604001516000015160ff166004141561098157816080015160400151810183604001516040015110156109815760405162461bcd60e51b815260040161040290613870565b600080611341858585611b1a565b9150915061135185858484611ba0565b600060028651600381111561136257fe5b1461136d578561136f565b845b90506000856080015160400151610131600084602001516001600160a01b03166001600160a01b031681526020019081526020016000208361014001516040516113b9919061335e565b90815260408051602092819003830181206101a087015161ffff16600090815290845282812054878501516001600160a01b031682526101319094529190912061014086015193909201935083926114109161335e565b90815260200160405180910390206000846101a0015161ffff1661ffff168152602001908152602001600020819055507fa49e31994a96dc315540d6ff9e29428418addfa28f6ffcc73ddad3528e40ddc1876000015188602001518860200151856101400151866101a001518b60800151604001518c608001516060015188611497611fa3565b6040516114ac999897969594939291906136b2565b60405180910390a150505050505050565b3390565b6101a081015160208083015160408085015180840151606080830151838501519351828a015160808b0151808a015194810151818901519151985160009c61151b9c909b9a98999698969795969495949293929101613daa565b604051602081830303815290604052805190602001209050919050565b6000826115458584611fe3565b1490505b9392505050565b600081602001516115648360400151612022565b6115718460800151612022565b8460a0015160405160200161151b94939291906134b3565b611598828361014001516111e2565b6115a7818261014001516111e2565b60608201516001600160a01b0316156115f35781606001516001600160a01b031681602001516001600160a01b0316146115f35760405162461bcd60e51b815260040161040290613ccd565b60608101516001600160a01b03161561163f5781602001516001600160a01b031681606001516001600160a01b03161461163f5760405162461bcd60e51b815260040161040290613984565b81604001516000015160ff1660031480611664575081604001516000015160ff166004145b1561178a5760808181015160409081015191840151810151908301515160009060ff16600214611694573461169e565b8360400151604001515b905083604001516000015160ff16600214156117645760008460400151602001516001600160a01b03166370a0823186602001516040518263ffffffff1660e01b81526004016116ee91906133f1565b60206040518083038186803b15801561170657600080fd5b505afa15801561171a573d6000803e3d6000fd5b505050506040513d601f19601f8201168201806040525081019061173e9190613259565b90508284028110156117625760405162461bcd60e51b815260040161040290613bf4565b505b8082840211156117865760405162461bcd60e51b815260040161040290613c2b565b5050505b80604001516000015160ff16600314806117af575080604001516000015160ff166004145b156111f55760808281015160409081015191830151810151908401515160009060ff166002146117df5734611867565b8460400151602001516001600160a01b03166370a0823186602001516040518263ffffffff1660e01b815260040161181791906133f1565b60206040518083038186803b15801561182f57600080fd5b505afa158015611843573d6000803e3d6000fd5b505050506040513d601f19601f820116820180604052508101906118679190613259565b905084604001516000015160ff166002141561192d5760008560400151602001516001600160a01b03166370a0823187602001516040518263ffffffff1660e01b81526004016118b791906133f1565b60206040518083038186803b1580156118cf57600080fd5b505afa1580156118e3573d6000803e3d6000fd5b505050506040513d601f19601f820116820180604052508101906119079190613259565b905082840281101561192b5760405162461bcd60e51b815260040161040290613bf4565b505b80828402111561194f5760405162461bcd60e51b815260040161040290613c2b565b5050505050565b60c0810151158061196a5750428160c00151105b6119865760405162461bcd60e51b815260040161040290613ab4565b60e0810151158061199a5750428160e00151115b610fbf5760405162461bcd60e51b81526004016104029061380b565b60a0820151611a185760208201516001600160a01b0316158015906119f7575081602001516001600160a01b03166119ec6114bd565b6001600160a01b0316145b611a135760405162461bcd60e51b815260040161040290613a36565b6111f5565b60008083516003811115611a2857fe5b1480611a405750600283516003811115611a3e57fe5b145b15611a5557611a4e8361203f565b9050611a85565b600383516003811115611a6457fe5b1415611a7357611a4e836120b3565b611a82838461016001516120fa565b90505b82602001516001600160a01b0316611a9b6114bd565b6001600160a01b0316146109815782602001516001600160a01b0316611aca83611ac484612159565b90612175565b6001600160a01b031614611af05760405162461bcd60e51b8152600401610402906139c8565b60208301516001600160a01b03166109815760405162461bcd60e51b8152600401610402906138de565b611b22612c19565b611b2a612c19565b611b3d85604001518560800151856121c0565b805190925060ff16611b615760405162461bcd60e51b815260040161040290613bc8565b611b7485608001518560400151856121c0565b805190915060ff16611b985760405162461bcd60e51b815260040161040290613bc8565b935093915050565b6040805160808082018352848252845160ff908116600090815260976020818152868320546001600160a01b03908116828801528b820180518216888a01528b8301805183166060808b01919091528a519889018b528b89528b519097168652938352938890205481169186019190915290518116958401959095525190931692810192909252611c3091612201565b5050806000015160ff1660011480611c4f5750806000015160ff166002145b15611dfb57805160408501515160ff90811691161415611c6e57600080fd5b60006127108561010001516020015183604001510281611c8a57fe5b04905060006127108661012001516020015184604001510281611ca957fe5b04905060008183856040015103039050611d356040518060800160405280866000015160ff16815260200186602001516001600160a01b0316815260200183815260200186606001518152508760200151896020015160976000896000015160ff1660ff16815260200190815260200160002060009054906101000a90046001600160a01b031661228c565b60408051608081018252855160ff90811682526020808801516001600160a01b03908116828501528385018890526060808a0151908501528a82015189519093166000908152609790925293902054611d909330911661228c565b60408051608081018252855160ff90811682526020808801516001600160a01b03908116828501528385018790526060808a0151908501528a8201516101208d0151518a51909416600090815260979093529490912054611df39492911661228c565b5050506111dc565b815160408401515160ff90811691161415611e1557600080fd5b60006127108461010001516020015184604001510281611e3157fe5b04905060006127108561012001516020015185604001510281611e5057fe5b04905060008183866040015103039050611edc6040518060800160405280876000015160ff16815260200187602001516001600160a01b03168152602001838152602001876060015181525088602001518860200151609760008a6000015160ff1660ff16815260200190815260200160002060009054906101000a90046001600160a01b031661228c565b60408051608081018252865160ff90811682526020808901516001600160a01b03908116828501528385018890526060808b0151908501528b8201518a519093166000908152609790925293902054611f379330911661228c565b60408051608081018252865160ff90811682526020808901516001600160a01b03908116828501528385018790526060808b0151908501528b8201516101208c0151518b51909416600090815260979093529490912054611f9a9492911661228c565b50505050505050565b61012f805460010190819055604051600091611fc591429133916020016133c9565b6040516020818303038152906040528051906020012060001c905090565b600081815b84518110156120185761200e8286838151811061200157fe5b60200260200101516125e9565b9150600101611fe8565b5090505b92915050565b60008160000151826040015160405160200161151b929190613e28565b60007f1132f06ab722f27908a7e495b5d507bad407e55f68dcf746f8d69417e3f1928c8260200151612074846040015161260b565b8460600151612086866080015161260b565b8660a001518760c001518860e00151896101a0015160405160200161151b9998979695949392919061352f565b60007f1ed8993288c7297ba6796429de1857dc650efa21a30299103497824fa02ba34382602001516120e8846040015161260b565b84606001516120868660800151612656565b60007f15fed0d06db788fb9c02b4f593bd4adff95588d2736481b94a54a44275fae9fc8360200151838560a0015160405160200161213b9493929190613581565b60405160208183030381529060405280519060200120905092915050565b600061216361269b565b8260405160200161151b9291906133ab565b600081516041146121985760405162461bcd60e51b81526004016104029061378e565b60208201516040830151606084015160001a6121b6868285856126db565b9695505050505050565b6121c8612c19565b60006121d585858561286c565b9050806000015160ff16600114156121fa576121f284868561286c565b915050611549565b9050611549565b8151604080820151835190910151915190919060ff166003148061222a575083515160ff166004145b1561224b5761224b846000015185604001518660600151876020015161228c565b82515160ff1660031480612264575082515160ff166004145b1561228557612285836000015184604001518560600151866020015161228c565b9250929050565b836000015160ff16600314156123b15783604001516001146122c05760405162461bcd60e51b815260040161040290613a0a565b6001600160a01b0383163014156123415760208401516060850151604051632142170760e11b81526001600160a01b03909216916342842e0e9161230a9130918791600401613457565b600060405180830381600087803b15801561232457600080fd5b505af1158015612338573d6000803e3d6000fd5b505050506123ac565b60208401516060850151604051637b84dc8360e11b81526001600160a01b0384169263f709b906926123799288918891600401613688565b600060405180830381600087803b15801561239357600080fd5b505af11580156123a7573d6000803e3d6000fd5b505050505b6111dc565b836000015160ff16600214156124b3576001600160a01b03831630141561247b5783602001516001600160a01b031663a9059cbb8386604001516040518363ffffffff1660e01b81526004016124089291906134d9565b602060405180830381600087803b15801561242257600080fd5b505af1158015612436573d6000803e3d6000fd5b505050506040513d601f19601f8201168201806040525081019061245a91906130d6565b6124765760405162461bcd60e51b815260040161040290613b62565b6123ac565b6020840151604080860151905163776062c360e01b81526001600160a01b0384169263776062c3926123799288918891600401613688565b836000015160ff1660041415612552576001600160a01b0383163014156125125783602001516001600160a01b031663f242432a3084876060015188604001516040518563ffffffff1660e01b815260040161230a949392919061347b565b602084015160608501516040808701519051639c1c2ee960e01b81526001600160a01b03851693639c1c2ee9936123799391928992899291600401613645565b836000015160ff166001141561258b576001600160a01b03821630146123ac5760408401516123ac906001600160a01b03841690612a39565b604051632571282360e21b81526001600160a01b038216906395c4a08c906125bb90879087908790600401613d5e565b600060405180830381600087803b1580156125d557600080fd5b505af11580156105f6573d6000803e3d6000fd5b6000818310612601576125fc8284612ab5565b611549565b6115498383612ab5565b60007f3eb30932c8579e044a08d6c2db9cfbbe826c3c715d5f913a07fdb3b62620fc2c826000015183602001518460400151856060015160405160200161151b9594939291906135f8565b60007f41de7d6f279b5bdc25bb5bd3ccb732106044c7be8050d6927da35e2210c6000b82600001518360200151846040015160405160200161151b94939291906135d1565b60006126d67f8b73c3c69bb8fe3d512ecc4cf759cc79239f7b179b0ffacaa9a75d522b39400f6126c9612ac4565b6126d1612aca565b612ad0565b905090565b60007f7fffffffffffffffffffffffffffffff5d576e7357a4501ddfe92f46681b20a082111561271d5760405162461bcd60e51b815260040161040290613942565b6000601e8560ff1611156127c3576004850360ff16601b148061274657506004850360ff16601c145b6127625760405162461bcd60e51b815260040161040290613aeb565b600161276d87612b11565b600487038686604051600081526020016040526040516127909493929190613627565b6020604051602081039080840390855afa1580156127b2573d6000803e3d6000fd5b505050602060405103519050612846565b8460ff16601b14806127d857508460ff16601c145b6127f45760405162461bcd60e51b815260040161040290613aeb565b600186868686604051600081526020016040526040516128179493929190613627565b6020604051602081039080840390855afa158015612839573d6000803e3d6000fd5b5050506020604051035190505b6001600160a01b03811661067b5760405162461bcd60e51b815260040161040290613720565b612874612c19565b600080856000015160ff16600114156128d357846000015160ff16600114156128a1578592505050611549565b60408051608081018252600081526001600160a01b039092166020830152810182905260608101919091529050611549565b856000015160ff166002141561290657846000015160ff16600214156128a1576128fd8686612b24565b92505050611549565b856000015160ff166003141561293057846000015160ff16600314156128a1576128fd8686612b24565b856000015160ff166004141561295b57846000015160ff16600414156128a1576128fd868686612b95565b855160ff166000908152606560205260409020546001600160a01b03168015612a0657604051638dc614ff60e01b81526001600160a01b03821690638dc614ff906129ac908a908a90600401613d8e565b60806040518083038186803b1580156129c457600080fd5b505afa1580156129d8573d6000803e3d6000fd5b505050506040513d601f19601f820116820180604052508101906129fc91906131b0565b9350505050611549565b8551875160ff90811691161415612a21576129fc8787612b24565b60405162461bcd60e51b815260040161040290613757565b6000826001600160a01b031682604051612a52906133c6565b60006040518083038185875af1925050503d8060008114612a8f576040519150601f19603f3d011682016040523d82523d6000602084013e612a94565b606091505b50509050806109815760405162461bcd60e51b815260040161040290613c62565b60009182526020526040902090565b60c95490565b60ca5490565b6000838383612add612c15565b30604051602001612af29594939291906135a5565b6040516020818303038152906040528051906020012090509392505050565b60008160405160200161151b919061337a565b612b2c612c19565b600080836000015160ff16856000015160ff16148015612b53575083604001518560400151145b15612b6257849250505061201c565b60408051608081018252600181526001600160a01b03909216602083015281018290526060810191909152905092915050565b612b9d612c19565b600080856000015160ff1660041415612be1578451865160ff9081169116148015612bd2575084604001518401866040015110155b15612be1578492505050611549565b60408051608081018252600081526001600160a01b0390921660208301528101829052606081019190915290509392505050565b4690565b6040518060800160405280600060ff16815260200160006001600160a01b0316815260200160008152602001600081525090565b803561092281613ecb565b600082601f830112612c68578081fd5b81356020612c7d612c7883613e75565b613e51565b8281528181019085830183850287018401881015612c99578586fd5b855b85811015612cb757813584529284019290840190600101612c9b565b5090979650505050505050565b600082601f830112612cd4578081fd5b81356020612ce4612c7883613e75565b82815281810190858301855b85811015612cb757612d07898684358b0101612e50565b84529284019290840190600101612cf0565b600082601f830112612d29578081fd5b813567ffffffffffffffff811115612d3d57fe5b612d50601f8201601f1916602001613e51565b818152846020838601011115612d64578283fd5b816020850160208301379081016020019190915292915050565b80356004811061092257600080fd5b600060808284031215612d9e578081fd5b6040516080810181811067ffffffffffffffff82111715612dbb57fe5b6040529050808235612dcc81613ee0565b81526020830135612ddc81613ecb565b8060208301525060408301356040820152606083013560608201525092915050565b600060408284031215612e0f578081fd5b6040516040810181811067ffffffffffffffff82111715612e2c57fe5b6040529050808235612e3d81613ecb565b8152602092830135920191909152919050565b60006102c08284031215612e62578081fd5b6101c0612e6e81613e51565b9150612e7983612d7e565b8252612e8760208401612c4d565b6020830152612e998460408501612d8d565b6040830152612eaa60c08401612c4d565b6060830152612ebc8460e08501612d8d565b60808301526101608084013560a08401526101808085013560c08501526101a08086013560e0860152612ef187858801612dfe565b610100860152612f05876102008801612dfe565b610120860152610240860135935067ffffffffffffffff80851115612f2957600080fd5b612f3588868901612d19565b61014087015261026087013584870152610280870135945080851115612f5a57600080fd5b50612f6787858801612c58565b82860152612f786102a08701612f86565b818601525050505092915050565b803561ffff8116811461092257600080fd5b803565ffffffffffff8116811461092257600080fd5b600060208284031215612fbf578081fd5b813561154981613ecb565b600080600080600060a08688031215612fe1578081fd5b8535612fec81613ecb565b94506020860135612ffc81613ecb565b935060408601359250606086013561301381613ecb565b9150608086013561302381613ecb565b809150509295509295909350565b600080600060608486031215613045578081fd5b833561305081613ecb565b925061305e60208501612f98565b915061306c60408501612f98565b90509250925092565b60008060408385031215613087578182fd5b823567ffffffffffffffff8082111561309e578384fd5b6130aa86838701612cc4565b935060208501359150808211156130bf578283fd5b506130cc85828601612cc4565b9150509250929050565b6000602082840312156130e7578081fd5b81518015158114611549578182fd5b600060208284031215613107578081fd5b5035919050565b600080600060608486031215613122578081fd5b83359250602084013567ffffffffffffffff80821115613140578283fd5b61314c87838801612c58565b93506040860135915080821115613161578283fd5b5061316e86828701612e50565b9150509250925092565b600060208284031215613189578081fd5b813567ffffffffffffffff81111561319f578182fd5b820160408185031215611549578182fd5b6000608082840312156131c1578081fd5b6040516080810181811067ffffffffffffffff821117156131de57fe5b60405282516131ec81613ee0565b815260208301516131fc81613ecb565b6020820152604083810151908201526060928301519281019290925250919050565b60006020828403121561322f578081fd5b813567ffffffffffffffff811115613245578182fd5b61325184828501612e50565b949350505050565b60006020828403121561326a578081fd5b5051919050565b60008060408385031215613283578182fd5b82359150602083013561329581613ecb565b809150509250929050565b6000602082840312156132b1578081fd5b61154982612f98565b6000602082840312156132cb578081fd5b813561154981613ee0565b600080604083850312156132e8578182fd5b82356132f381613ee0565b9150602083013561329581613ecb565b6000815180845261331b816020860160208601613e9f565b601f01601f19169290920160200192915050565b805160ff1682526020808201516001600160a01b03169083015260408082015190830152606090810151910152565b60008251613370818460208701613e9f565b9190910192915050565b7f19457468657265756d205369676e6564204d6573736167653a0a3332000000008152601c810191909152603c0190565b61190160f01b81526002810192909252602282015260420190565b90565b92835260609190911b6bffffffffffffffffffffffff19166020830152603482015260540190565b6001600160a01b0391909116815260200190565b6001600160a01b038416815260606020820181905260009061342990830185613303565b905061ffff83166040830152949350505050565b6001600160a01b0392831681529116602082015260400190565b6001600160a01b039384168152919092166020820152604081019190915260600190565b6001600160a01b0394851681529290931660208301526040820152606081019190915260a06080820181905260009082015260c00190565b6001600160a01b0394909416845260208401929092526040830152606082015260800190565b6001600160a01b03929092168252602082015260400190565b6001600160a01b0393909316835265ffffffffffff918216602084015216604082015260600190565b901515815260200190565b90815260200190565b9889526001600160a01b0397881660208a01526040890196909652939095166060870152608086019190915260a085015260c084019290925260e083019190915261ffff166101008201526101200190565b9384526001600160a01b039290921660208401526040830152606082015260800190565b9485526020850193909352604084019190915260608301526001600160a01b0316608082015260a00190565b93845260ff9290921660208401526001600160a01b03166040830152606082015260800190565b94855260ff9390931660208501526001600160a01b039190911660408401526060830152608082015260a00190565b93845260ff9290921660208401526040830152606082015260800190565b6001600160a01b03958616815293851660208501529190931660408301526060820192909252608081019190915260c060a0820181905260009082015260e00190565b6001600160a01b039485168152928416602084015292166040820152606081019190915260800190565b600061012060048c106136c157fe5b8b83526001600160a01b038b811660208501528a166040840152606083018190526136ee8184018a613303565b61ffff989098166080840152505060a081019490945260c084019290925260e083015261010090910152949350505050565b60208082526018908201527f45434453413a20696e76616c6964207369676e61747572650000000000000000604082015260600190565b60208082526017908201527f6e6f7420666f756e64204941737365744d617463686572000000000000000000604082015260600190565b6020808252601f908201527f45434453413a20696e76616c6964207369676e6174757265206c656e67746800604082015260600190565b60208082526026908201527f4f776e61626c653a206e6577206f776e657220697320746865207a65726f206160408201526564647265737360d01b606082015260800190565b6020808252601b908201527f4f7264657220656e642076616c69646174696f6e206661696c65640000000000604082015260600190565b6020808252601490820152730c081cd85b1d0818d85b89dd081899481d5cd95960621b604082015260600190565b60208082526018908201527f4f7264657220686173206265656e2066756c66696c6c65640000000000000000604082015260600190565b6020808252601c908201527f426964204552432d323020616d6f756e74206e6f7420656e6f75676800000000604082015260600190565b60208082526008908201526737379036b0b5b2b960c11b604082015260600190565b60208082526022908201527f6c6566747320616e6420726967687473206c656e67746820646f6e74206d61746040820152610c6d60f31b606082015260800190565b60208082526022908201527f45434453413a20696e76616c6964207369676e6174757265202773272076616c604082015261756560f01b606082015260800190565b60208082526024908201527f72696768744f726465722e74616b657220766572696669636174696f6e2066616040820152631a5b195960e21b606082015260800190565b60208082526022908201527f6f72646572207369676e617475726520766572696669636174696f6e2065727260408201526137b960f11b606082015260800190565b60208082526012908201527132b9319b9918903b30b63ab29032b93937b960711b604082015260600190565b60208082526016908201527536b0b5b2b91034b9903737ba103a3c1039b2b73232b960511b604082015260600190565b6020808252602e908201527f496e697469616c697a61626c653a20636f6e747261637420697320616c72656160408201526d191e481a5b9a5d1a585b1a5e995960921b606082015260800190565b6020808252601d908201527f4f726465722073746172742076616c69646174696f6e206661696c6564000000604082015260600190565b60208082526022908201527f45434453413a20696e76616c6964207369676e6174757265202776272076616c604082015261756560f01b606082015260800190565b6020808252818101527f4f776e61626c653a2063616c6c6572206973206e6f7420746865206f776e6572604082015260600190565b602080825260159082015274195c98cc8c081d1c985b9cd9995c8819985a5b1959605a1b604082015260600190565b60208082526018908201527f4f7264657220686173206265656e2063616e63656c6c65640000000000000000604082015260600190565b6020808252601290820152710c2e6e6cae8e640c8dedc4ee840dac2e8c6d60731b604082015260600190565b60208082526018908201527f45524332302062616c616e6365206e6f7420656e6f7567680000000000000000604082015260600190565b6020808252601a908201527f5370656e64696e6720616d6f756e74206e6f7420656e6f756768000000000000604082015260600190565b6020808252600f908201526e1d1c985b9cd9995c8819985a5b1959608a1b604082015260600190565b60208082526022908201527f416363657074206269642071747920686967686572207468616e206269642071604082015261747960f01b606082015260800190565b60208082526023908201527f6c6566744f726465722e74616b657220766572696669636174696f6e206661696040820152621b195960ea1b606082015260800190565b6020808252600f908201526e496e76616c6964206c697374696e6760881b604082015260600190565b6020808252600b908201526a3737ba10309036b0b5b2b960a91b604082015260600190565b60c08101613d6c828661332f565b6001600160a01b0393841660808301529190921660a090920191909152919050565b6101008101613d9d828561332f565b611549608083018461332f565b61ffff9b909b168b526001600160a01b03998a1660208c015297891660408b015260608a0196909652608089019490945260ff92831660a089015290861660c088015290941660e0860152610100850152610120840152166101408201526101600190565b65ffffffffffff92831681529116602082015260400190565b60ff929092168252602082015260400190565b600082356102be19833603018112613370578182fd5b60405181810167ffffffffffffffff81118282101715613e6d57fe5b604052919050565b600067ffffffffffffffff821115613e8957fe5b5060209081020190565b600061201c3683612e50565b60005b83811015613eba578181015183820152602001613ea2565b838111156111dc5750506000910152565b6001600160a01b0381168114610fbf57600080fd5b60ff81168114610fbf57600080fdfea26469706673582212200375e59623196e483d4845c8375adf72c6b808473a4116ccd0044d9be747fdd664736f6c63430007060033","opcodes":"PUSH1 0x80 PUSH1 0x40 MSTORE PUSH3 0x753275 PUSH1 0xE8 SHL PUSH1 0xC9 SSTORE PUSH1 0x31 PUSH1 0xF8 SHL PUSH1 0xCA SSTORE PUSH1 0x0 PUSH2 0x12F SSTORE CALLVALUE DUP1 ISZERO PUSH3 0x29 JUMPI PUSH1 0x0 DUP1 REVERT JUMPDEST POP PUSH1 0x33 DUP1 SLOAD PUSH1 0x1 PUSH1 0x1 PUSH1 0xA0 SHL SUB NOT AND CALLER OR SWAP1 SSTORE PUSH3 0x46 PUSH3 0x4C JUMP JUMPDEST PUSH3 0x24D JUMP JUMPDEST PUSH1 0x0 SLOAD PUSH2 0x100 SWAP1 DIV PUSH1 0xFF AND DUP1 PUSH3 0x68 JUMPI POP PUSH3 0x68 PUSH3 0x130 JUMP JUMPDEST DUP1 PUSH3 0x77 JUMPI POP PUSH1 0x0 SLOAD PUSH1 0xFF AND ISZERO JUMPDEST PUSH3 0x9F JUMPI PUSH1 0x40 MLOAD PUSH3 0x461BCD PUSH1 0xE5 SHL DUP2 MSTORE PUSH1 0x4 ADD PUSH3 0x96 SWAP1 PUSH3 0x1FF JUMP JUMPDEST PUSH1 0x40 MLOAD DUP1 SWAP2 SUB SWAP1 REVERT JUMPDEST PUSH1 0x0 SLOAD PUSH2 0x100 SWAP1 DIV PUSH1 0xFF AND ISZERO DUP1 ISZERO PUSH3 0xCB JUMPI PUSH1 0x0 DUP1 SLOAD PUSH1 0xFF NOT PUSH2 0xFF00 NOT SWAP1 SWAP2 AND PUSH2 0x100 OR AND PUSH1 0x1 OR SWAP1 SSTORE JUMPDEST PUSH3 0x11A PUSH1 0x40 MLOAD DUP1 PUSH1 0x40 ADD PUSH1 0x40 MSTORE DUP1 PUSH1 0xC DUP2 MSTORE PUSH1 0x20 ADD PUSH12 0x5837323145786368616E6765 PUSH1 0xA0 SHL DUP2 MSTORE POP PUSH1 0x40 MLOAD DUP1 PUSH1 0x40 ADD PUSH1 0x40 MSTORE DUP1 PUSH1 0x1 DUP2 MSTORE PUSH1 0x20 ADD PUSH1 0x31 PUSH1 0xF8 SHL DUP2 MSTORE POP PUSH3 0x14E PUSH1 0x20 SHL PUSH1 0x20 SHR JUMP JUMPDEST DUP1 ISZERO PUSH3 0x12D JUMPI PUSH1 0x0 DUP1 SLOAD PUSH2 0xFF00 NOT AND SWAP1 SSTORE JUMPDEST POP JUMP JUMPDEST PUSH1 0x0 PUSH3 0x148 ADDRESS PUSH3 0x1F9 PUSH1 0x20 SHL PUSH3 0xF28 OR PUSH1 0x20 SHR JUMP JUMPDEST ISZERO SWAP1 POP SWAP1 JUMP JUMPDEST PUSH1 0x0 SLOAD PUSH2 0x100 SWAP1 DIV PUSH1 0xFF AND DUP1 PUSH3 0x16A JUMPI POP PUSH3 0x16A PUSH3 0x130 JUMP JUMPDEST DUP1 PUSH3 0x179 JUMPI POP PUSH1 0x0 SLOAD PUSH1 0xFF AND ISZERO JUMPDEST PUSH3 0x198 JUMPI PUSH1 0x40 MLOAD PUSH3 0x461BCD PUSH1 0xE5 SHL DUP2 MSTORE PUSH1 0x4 ADD PUSH3 0x96 SWAP1 PUSH3 0x1FF JUMP JUMPDEST PUSH1 0x0 SLOAD PUSH2 0x100 SWAP1 DIV PUSH1 0xFF AND ISZERO DUP1 ISZERO PUSH3 0x1C4 JUMPI PUSH1 0x0 DUP1 SLOAD PUSH1 0xFF NOT PUSH2 0xFF00 NOT SWAP1 SWAP2 AND PUSH2 0x100 OR AND PUSH1 0x1 OR SWAP1 SSTORE JUMPDEST DUP3 MLOAD PUSH1 0x20 DUP1 DUP6 ADD SWAP2 SWAP1 SWAP2 KECCAK256 DUP4 MLOAD SWAP2 DUP5 ADD SWAP2 SWAP1 SWAP2 KECCAK256 PUSH1 0xC9 SWAP2 SWAP1 SWAP2 SSTORE PUSH1 0xCA SSTORE DUP1 ISZERO PUSH3 0x1F4 JUMPI PUSH1 0x0 DUP1 SLOAD PUSH2 0xFF00 NOT AND SWAP1 SSTORE JUMPDEST POP POP POP JUMP JUMPDEST EXTCODESIZE ISZERO ISZERO SWAP1 JUMP JUMPDEST PUSH1 0x20 DUP1 DUP3 MSTORE PUSH1 0x2E SWAP1 DUP3 ADD MSTORE PUSH32 0x496E697469616C697A61626C653A20636F6E747261637420697320616C726561 PUSH1 0x40 DUP3 ADD MSTORE PUSH14 0x191E481A5B9A5D1A585B1A5E9959 PUSH1 0x92 SHL PUSH1 0x60 DUP3 ADD MSTORE PUSH1 0x80 ADD SWAP1 JUMP JUMPDEST PUSH2 0x3F25 DUP1 PUSH3 0x25D PUSH1 0x0 CODECOPY PUSH1 0x0 RETURN INVALID PUSH1 0x80 PUSH1 0x40 MSTORE PUSH1 0x4 CALLDATASIZE LT PUSH2 0x12A JUMPI PUSH1 0x0 CALLDATALOAD PUSH1 0xE0 SHR DUP1 PUSH4 0xB0E21E8A GT PUSH2 0xAB JUMPI DUP1 PUSH4 0xC648A687 GT PUSH2 0x6F JUMPI DUP1 PUSH4 0xC648A687 EQ PUSH2 0x30C JUMPI DUP1 PUSH4 0xD362D3FF EQ PUSH2 0x32C JUMPI DUP1 PUSH4 0xD6CA6AB7 EQ PUSH2 0x34C JUMPI DUP1 PUSH4 0xEAE3AD6F EQ PUSH2 0x36C JUMPI DUP1 PUSH4 0xF2FDE38B EQ PUSH2 0x38C JUMPI DUP1 PUSH4 0xFAA2CC7C EQ PUSH2 0x3AC JUMPI PUSH2 0x12A JUMP JUMPDEST DUP1 PUSH4 0xB0E21E8A EQ PUSH2 0x273 JUMPI DUP1 PUSH4 0xB2BDFA7B EQ PUSH2 0x297 JUMPI DUP1 PUSH4 0xB36C9B29 EQ PUSH2 0x2AC JUMPI DUP1 PUSH4 0xB74C8E9A EQ PUSH2 0x2CC JUMPI DUP1 PUSH4 0xBC158C2D EQ PUSH2 0x2EC JUMPI PUSH2 0x12A JUMP JUMPDEST DUP1 PUSH4 0x4CFE4CD8 GT PUSH2 0xF2 JUMPI DUP1 PUSH4 0x4CFE4CD8 EQ PUSH2 0x1E7 JUMPI DUP1 PUSH4 0x6D8F0694 EQ PUSH2 0x207 JUMPI DUP1 PUSH4 0x715018A6 EQ PUSH2 0x229 JUMPI DUP1 PUSH4 0x8B42AF3E EQ PUSH2 0x23E JUMPI DUP1 PUSH4 0x8DA5CB5B EQ PUSH2 0x25E JUMPI PUSH2 0x12A JUMP JUMPDEST DUP1 PUSH4 0x1372A625 EQ PUSH2 0x12F JUMPI DUP1 PUSH4 0x20158C44 EQ PUSH2 0x151 JUMPI DUP1 PUSH4 0x33033608 EQ PUSH2 0x187 JUMPI DUP1 PUSH4 0x3BE89922 EQ PUSH2 0x19A JUMPI DUP1 PUSH4 0x3E2D95FF EQ PUSH2 0x1BA JUMPI JUMPDEST PUSH1 0x0 DUP1 REVERT JUMPDEST CALLVALUE DUP1 ISZERO PUSH2 0x13B JUMPI PUSH1 0x0 DUP1 REVERT JUMPDEST POP PUSH2 0x14F PUSH2 0x14A CALLDATASIZE PUSH1 0x4 PUSH2 0x2FCA JUMP JUMPDEST PUSH2 0x3BF JUMP JUMPDEST STOP JUMPDEST CALLVALUE DUP1 ISZERO PUSH2 0x15D JUMPI PUSH1 0x0 DUP1 REVERT JUMPDEST POP PUSH2 0x171 PUSH2 0x16C CALLDATASIZE PUSH1 0x4 PUSH2 0x30F6 JUMP JUMPDEST PUSH2 0x475 JUMP JUMPDEST PUSH1 0x40 MLOAD PUSH2 0x17E SWAP2 SWAP1 PUSH2 0x3526 JUMP JUMPDEST PUSH1 0x40 MLOAD DUP1 SWAP2 SUB SWAP1 RETURN JUMPDEST PUSH2 0x14F PUSH2 0x195 CALLDATASIZE PUSH1 0x4 PUSH2 0x3178 JUMP JUMPDEST PUSH2 0x488 JUMP JUMPDEST CALLVALUE DUP1 ISZERO PUSH2 0x1A6 JUMPI PUSH1 0x0 DUP1 REVERT JUMPDEST POP PUSH2 0x14F PUSH2 0x1B5 CALLDATASIZE PUSH1 0x4 PUSH2 0x2FAE JUMP JUMPDEST PUSH2 0x600 JUMP JUMPDEST CALLVALUE DUP1 ISZERO PUSH2 0x1C6 JUMPI PUSH1 0x0 DUP1 REVERT JUMPDEST POP PUSH2 0x1DA PUSH2 0x1D5 CALLDATASIZE PUSH1 0x4 PUSH2 0x310E JUMP JUMPDEST PUSH2 0x662 JUMP JUMPDEST PUSH1 0x40 MLOAD PUSH2 0x17E SWAP2 SWAP1 PUSH2 0x351B JUMP JUMPDEST CALLVALUE DUP1 ISZERO PUSH2 0x1F3 JUMPI PUSH1 0x0 DUP1 REVERT JUMPDEST POP PUSH2 0x14F PUSH2 0x202 CALLDATASIZE PUSH1 0x4 PUSH2 0x32D6 JUMP JUMPDEST PUSH2 0x684 JUMP JUMPDEST CALLVALUE DUP1 ISZERO PUSH2 0x213 JUMPI PUSH1 0x0 DUP1 REVERT JUMPDEST POP PUSH2 0x21C PUSH2 0x72A JUMP JUMPDEST PUSH1 0x40 MLOAD PUSH2 0x17E SWAP2 SWAP1 PUSH2 0x33F1 JUMP JUMPDEST CALLVALUE DUP1 ISZERO PUSH2 0x235 JUMPI PUSH1 0x0 DUP1 REVERT JUMPDEST POP PUSH2 0x14F PUSH2 0x73A JUMP JUMPDEST CALLVALUE DUP1 ISZERO PUSH2 0x24A JUMPI PUSH1 0x0 DUP1 REVERT JUMPDEST POP PUSH2 0x14F PUSH2 0x259 CALLDATASIZE PUSH1 0x4 PUSH2 0x321E JUMP JUMPDEST PUSH2 0x7C3 JUMP JUMPDEST CALLVALUE DUP1 ISZERO PUSH2 0x26A JUMPI PUSH1 0x0 DUP1 REVERT JUMPDEST POP PUSH2 0x21C PUSH2 0x8BC JUMP JUMPDEST CALLVALUE DUP1 ISZERO PUSH2 0x27F JUMPI PUSH1 0x0 DUP1 REVERT JUMPDEST POP PUSH2 0x288 PUSH2 0x8CB JUMP JUMPDEST PUSH1 0x40 MLOAD PUSH2 0x17E SWAP4 SWAP3 SWAP2 SWAP1 PUSH2 0x34F2 JUMP JUMPDEST CALLVALUE DUP1 ISZERO PUSH2 0x2A3 JUMPI PUSH1 0x0 DUP1 REVERT JUMPDEST POP PUSH2 0x21C PUSH2 0x8F6 JUMP JUMPDEST CALLVALUE DUP1 ISZERO PUSH2 0x2B8 JUMPI PUSH1 0x0 DUP1 REVERT JUMPDEST POP PUSH2 0x21C PUSH2 0x2C7 CALLDATASIZE PUSH1 0x4 PUSH2 0x32BA JUMP JUMPDEST PUSH2 0x905 JUMP JUMPDEST CALLVALUE DUP1 ISZERO PUSH2 0x2D8 JUMPI PUSH1 0x0 DUP1 REVERT JUMPDEST POP PUSH2 0x14F PUSH2 0x2E7 CALLDATASIZE PUSH1 0x4 PUSH2 0x3031 JUMP JUMPDEST PUSH2 0x927 JUMP JUMPDEST CALLVALUE DUP1 ISZERO PUSH2 0x2F8 JUMPI PUSH1 0x0 DUP1 REVERT JUMPDEST POP PUSH2 0x14F PUSH2 0x307 CALLDATASIZE PUSH1 0x4 PUSH2 0x2FAE JUMP JUMPDEST PUSH2 0x986 JUMP JUMPDEST CALLVALUE DUP1 ISZERO PUSH2 0x318 JUMPI PUSH1 0x0 DUP1 REVERT JUMPDEST POP PUSH2 0x14F PUSH2 0x327 CALLDATASIZE PUSH1 0x4 PUSH2 0x3271 JUMP JUMPDEST PUSH2 0xA30 JUMP JUMPDEST CALLVALUE DUP1 ISZERO PUSH2 0x338 JUMPI PUSH1 0x0 DUP1 REVERT JUMPDEST POP PUSH2 0x14F PUSH2 0x347 CALLDATASIZE PUSH1 0x4 PUSH2 0x321E JUMP JUMPDEST PUSH2 0xAC8 JUMP JUMPDEST CALLVALUE DUP1 ISZERO PUSH2 0x358 JUMPI PUSH1 0x0 DUP1 REVERT JUMPDEST POP PUSH2 0x14F PUSH2 0x367 CALLDATASIZE PUSH1 0x4 PUSH2 0x32A0 JUMP JUMPDEST PUSH2 0xB83 JUMP JUMPDEST CALLVALUE DUP1 ISZERO PUSH2 0x378 JUMPI PUSH1 0x0 DUP1 REVERT JUMPDEST POP PUSH2 0x14F PUSH2 0x387 CALLDATASIZE PUSH1 0x4 PUSH2 0x32A0 JUMP JUMPDEST PUSH2 0xC3A JUMP JUMPDEST CALLVALUE DUP1 ISZERO PUSH2 0x398 JUMPI PUSH1 0x0 DUP1 REVERT JUMPDEST POP PUSH2 0x14F PUSH2 0x3A7 CALLDATASIZE PUSH1 0x4 PUSH2 0x2FAE JUMP JUMPDEST PUSH2 0xCEE JUMP JUMPDEST PUSH2 0x14F PUSH2 0x3BA CALLDATASIZE PUSH1 0x4 PUSH2 0x3075 JUMP JUMPDEST PUSH2 0xDAF JUMP JUMPDEST PUSH1 0x0 SLOAD PUSH2 0x100 SWAP1 DIV PUSH1 0xFF AND DUP1 PUSH2 0x3D8 JUMPI POP PUSH2 0x3D8 PUSH2 0xF2E JUMP JUMPDEST DUP1 PUSH2 0x3E6 JUMPI POP PUSH1 0x0 SLOAD PUSH1 0xFF AND ISZERO JUMPDEST PUSH2 0x40B JUMPI PUSH1 0x40 MLOAD PUSH3 0x461BCD PUSH1 0xE5 SHL DUP2 MSTORE PUSH1 0x4 ADD PUSH2 0x402 SWAP1 PUSH2 0x3A66 JUMP JUMPDEST PUSH1 0x40 MLOAD DUP1 SWAP2 SUB SWAP1 REVERT JUMPDEST PUSH1 0x0 SLOAD PUSH2 0x100 SWAP1 DIV PUSH1 0xFF AND ISZERO DUP1 ISZERO PUSH2 0x436 JUMPI PUSH1 0x0 DUP1 SLOAD PUSH1 0xFF NOT PUSH2 0xFF00 NOT SWAP1 SWAP2 AND PUSH2 0x100 OR AND PUSH1 0x1 OR SWAP1 SSTORE JUMPDEST PUSH2 0x43E PUSH2 0xF3F JUMP JUMPDEST PUSH2 0x446 PUSH2 0xFC2 JUMP JUMPDEST PUSH2 0x450 DUP7 DUP7 PUSH2 0x109C JUMP JUMPDEST PUSH2 0x45B DUP5 DUP5 DUP5 PUSH2 0x1140 JUMP JUMPDEST DUP1 ISZERO PUSH2 0x46D JUMPI PUSH1 0x0 DUP1 SLOAD PUSH2 0xFF00 NOT AND SWAP1 SSTORE JUMPDEST POP POP POP POP POP POP JUMP JUMPDEST PUSH2 0x130 PUSH1 0x20 MSTORE PUSH1 0x0 SWAP1 DUP2 MSTORE PUSH1 0x40 SWAP1 KECCAK256 SLOAD DUP2 JUMP JUMPDEST PUSH1 0x0 PUSH2 0x494 DUP3 DUP1 PUSH2 0x3E3B JUMP JUMPDEST PUSH2 0x49D SWAP1 PUSH2 0x3E93 JUMP JUMPDEST SWAP1 POP PUSH1 0x0 PUSH2 0x4AE PUSH1 0x20 DUP5 ADD DUP5 PUSH2 0x3E3B JUMP JUMPDEST PUSH2 0x4B7 SWAP1 PUSH2 0x3E93 JUMP JUMPDEST PUSH1 0x80 DUP4 ADD MLOAD PUSH1 0x40 SWAP1 DUP2 ADD MLOAD DUP2 DUP4 ADD MLOAD SWAP1 SWAP2 ADD MLOAD SWAP2 SWAP3 POP SWAP1 DUP2 DUP2 GT ISZERO PUSH2 0x4EE JUMPI PUSH1 0x40 MLOAD PUSH3 0x461BCD PUSH1 0xE5 SHL DUP2 MSTORE PUSH1 0x4 ADD PUSH2 0x402 SWAP1 PUSH2 0x3C8B JUMP JUMPDEST PUSH2 0x4FD DUP5 DUP6 PUSH2 0x140 ADD MLOAD PUSH2 0x11E2 JUMP JUMPDEST PUSH2 0x50C DUP4 DUP5 PUSH2 0x140 ADD MLOAD PUSH2 0x11E2 JUMP JUMPDEST PUSH1 0x0 DUP3 DUP6 PUSH1 0x40 ADD MLOAD PUSH1 0x40 ADD MLOAD DUP2 PUSH2 0x51F JUMPI INVALID JUMPDEST DIV SWAP1 POP PUSH1 0x0 DUP3 DUP3 MUL SWAP1 POP DUP6 PUSH1 0x40 ADD MLOAD PUSH1 0x40 ADD MLOAD DUP2 GT ISZERO PUSH2 0x551 JUMPI PUSH1 0x40 MLOAD PUSH3 0x461BCD PUSH1 0xE5 SHL DUP2 MSTORE PUSH1 0x4 ADD PUSH2 0x402 SWAP1 PUSH2 0x38A7 JUMP JUMPDEST PUSH1 0x40 DUP1 DUP8 ADD MLOAD DUP2 ADD DUP3 SWAP1 MSTORE PUSH1 0x80 DUP1 DUP9 ADD MLOAD DUP3 ADD DUP6 SWAP1 MSTORE PUSH1 0x20 DUP1 DUP9 ADD MLOAD PUSH1 0x1 PUSH1 0x1 PUSH1 0xA0 SHL SUB SWAP1 DUP2 AND PUSH1 0x60 DUP12 ADD MSTORE DUP9 DUP5 ADD MLOAD DUP5 ADD DUP9 SWAP1 MSTORE SWAP2 DUP9 ADD MLOAD DUP4 ADD DUP5 SWAP1 MSTORE DUP1 DUP10 ADD MLOAD SWAP1 SWAP2 AND PUSH1 0x0 SWAP1 DUP2 MSTORE PUSH2 0x131 SWAP1 SWAP2 MSTORE DUP2 DUP2 KECCAK256 PUSH2 0x140 DUP10 ADD MLOAD SWAP3 MLOAD SWAP2 SWAP3 SWAP1 SWAP2 PUSH2 0x5BA SWAP2 SWAP1 PUSH2 0x335E JUMP JUMPDEST SWAP1 DUP2 MSTORE PUSH1 0x40 DUP1 MLOAD PUSH1 0x20 SWAP3 DUP2 SWAP1 SUB DUP4 ADD SWAP1 KECCAK256 PUSH2 0x1A0 DUP11 ADD MLOAD PUSH2 0xFFFF AND PUSH1 0x0 SWAP1 DUP2 MSTORE SWAP3 MSTORE SWAP1 KECCAK256 SLOAD SWAP1 POP PUSH2 0x5EB DUP7 DUP9 PUSH2 0x11F9 JUMP JUMPDEST PUSH2 0x5F6 DUP7 DUP9 DUP4 PUSH2 0x1333 JUMP JUMPDEST POP POP POP POP POP POP POP POP JUMP JUMPDEST PUSH2 0x608 PUSH2 0x14BD JUMP JUMPDEST PUSH1 0x1 PUSH1 0x1 PUSH1 0xA0 SHL SUB AND PUSH2 0x619 PUSH2 0x8BC JUMP JUMPDEST PUSH1 0x1 PUSH1 0x1 PUSH1 0xA0 SHL SUB AND EQ PUSH2 0x63F JUMPI PUSH1 0x40 MLOAD PUSH3 0x461BCD PUSH1 0xE5 SHL DUP2 MSTORE PUSH1 0x4 ADD PUSH2 0x402 SWAP1 PUSH2 0x3B2D JUMP JUMPDEST PUSH2 0x164 DUP1 SLOAD PUSH1 0x1 PUSH1 0x1 PUSH1 0xA0 SHL SUB NOT AND PUSH1 0x1 PUSH1 0x1 PUSH1 0xA0 SHL SUB SWAP3 SWAP1 SWAP3 AND SWAP2 SWAP1 SWAP2 OR SWAP1 SSTORE JUMP JUMPDEST PUSH1 0x0 DUP1 PUSH2 0x66E DUP4 PUSH2 0x14C1 JUMP JUMPDEST SWAP1 POP PUSH2 0x67B DUP5 DUP7 DUP4 PUSH2 0x1538 JUMP JUMPDEST SWAP6 SWAP5 POP POP POP POP POP JUMP JUMPDEST PUSH2 0x68C PUSH2 0x14BD JUMP JUMPDEST PUSH1 0x1 PUSH1 0x1 PUSH1 0xA0 SHL SUB AND PUSH2 0x69D PUSH2 0x8BC JUMP JUMPDEST PUSH1 0x1 PUSH1 0x1 PUSH1 0xA0 SHL SUB AND EQ PUSH2 0x6C3 JUMPI PUSH1 0x40 MLOAD PUSH3 0x461BCD PUSH1 0xE5 SHL DUP2 MSTORE PUSH1 0x4 ADD PUSH2 0x402 SWAP1 PUSH2 0x3B2D JUMP JUMPDEST PUSH1 0xFF DUP3 AND PUSH1 0x0 DUP2 DUP2 MSTORE PUSH1 0x97 PUSH1 0x20 MSTORE PUSH1 0x40 SWAP1 DUP2 SWAP1 KECCAK256 DUP1 SLOAD PUSH1 0x1 PUSH1 0x1 PUSH1 0xA0 SHL SUB NOT AND PUSH1 0x1 PUSH1 0x1 PUSH1 0xA0 SHL SUB DUP6 AND OR SWAP1 SSTORE MLOAD PUSH32 0x8EDDA873A8AD561ECEBEB71CEB3AE6BCB70C2B76A3FCB869859895C4D4FC7416 SWAP1 PUSH2 0x71E SWAP1 DUP5 SWAP1 PUSH2 0x33F1 JUMP JUMPDEST PUSH1 0x40 MLOAD DUP1 SWAP2 SUB SWAP1 LOG2 POP POP JUMP JUMPDEST PUSH2 0x164 SLOAD PUSH1 0x1 PUSH1 0x1 PUSH1 0xA0 SHL SUB AND DUP2 JUMP JUMPDEST PUSH2 0x742 PUSH2 0x14BD JUMP JUMPDEST PUSH1 0x1 PUSH1 0x1 PUSH1 0xA0 SHL SUB AND PUSH2 0x753 PUSH2 0x8BC JUMP JUMPDEST PUSH1 0x1 PUSH1 0x1 PUSH1 0xA0 SHL SUB AND EQ PUSH2 0x779 JUMPI PUSH1 0x40 MLOAD PUSH3 0x461BCD PUSH1 0xE5 SHL DUP2 MSTORE PUSH1 0x4 ADD PUSH2 0x402 SWAP1 PUSH2 0x3B2D JUMP JUMPDEST PUSH1 0x33 SLOAD PUSH1 0x40 MLOAD PUSH1 0x0 SWAP2 PUSH1 0x1 PUSH1 0x1 PUSH1 0xA0 SHL SUB AND SWAP1 PUSH32 0x8BE0079C531659141344CD1FD0A4F28419497F9722A3DAAFE3B4186F6B6457E0 SWAP1 DUP4 SWAP1 LOG3 PUSH1 0x33 DUP1 SLOAD PUSH1 0x1 PUSH1 0x1 PUSH1 0xA0 SHL SUB NOT AND SWAP1 SSTORE JUMP JUMPDEST DUP1 PUSH1 0x20 ADD MLOAD PUSH1 0x1 PUSH1 0x1 PUSH1 0xA0 SHL SUB AND PUSH2 0x7D9 PUSH2 0x14BD JUMP JUMPDEST PUSH1 0x1 PUSH1 0x1 PUSH1 0xA0 SHL SUB AND EQ PUSH2 0x7FF JUMPI PUSH1 0x40 MLOAD PUSH3 0x461BCD PUSH1 0xE5 SHL DUP2 MSTORE PUSH1 0x4 ADD PUSH2 0x402 SWAP1 PUSH2 0x3D39 JUMP JUMPDEST DUP1 PUSH1 0x40 ADD MLOAD PUSH1 0x40 ADD MLOAD PUSH2 0x131 PUSH1 0x0 PUSH2 0x815 PUSH2 0x14BD JUMP JUMPDEST PUSH1 0x1 PUSH1 0x1 PUSH1 0xA0 SHL SUB AND PUSH1 0x1 PUSH1 0x1 PUSH1 0xA0 SHL SUB AND DUP2 MSTORE PUSH1 0x20 ADD SWAP1 DUP2 MSTORE PUSH1 0x20 ADD PUSH1 0x0 KECCAK256 DUP3 PUSH2 0x140 ADD MLOAD PUSH1 0x40 MLOAD PUSH2 0x848 SWAP2 SWAP1 PUSH2 0x335E JUMP JUMPDEST SWAP1 DUP2 MSTORE PUSH1 0x40 DUP1 MLOAD PUSH1 0x20 SWAP3 DUP2 SWAP1 SUB DUP4 ADD SWAP1 KECCAK256 PUSH2 0x1A0 DUP6 ADD MLOAD PUSH2 0xFFFF AND PUSH1 0x0 SWAP1 DUP2 MSTORE SWAP3 MSTORE SWAP1 KECCAK256 SSTORE PUSH32 0x86F8A270A95F47AD48690DD66EDA181EA3D229312582E7D222C11E24F39947D0 PUSH2 0x896 PUSH2 0x14BD JUMP JUMPDEST DUP3 PUSH2 0x140 ADD MLOAD DUP4 PUSH2 0x1A0 ADD MLOAD PUSH1 0x40 MLOAD PUSH2 0x8B1 SWAP4 SWAP3 SWAP2 SWAP1 PUSH2 0x3405 JUMP JUMPDEST PUSH1 0x40 MLOAD DUP1 SWAP2 SUB SWAP1 LOG1 POP JUMP JUMPDEST PUSH1 0x33 SLOAD PUSH1 0x1 PUSH1 0x1 PUSH1 0xA0 SHL SUB AND SWAP1 JUMP JUMPDEST PUSH2 0x163 SLOAD PUSH1 0x1 PUSH1 0x1 PUSH1 0xA0 SHL SUB DUP2 AND SWAP1 PUSH6 0xFFFFFFFFFFFF PUSH1 0x1 PUSH1 0xA0 SHL DUP3 DIV DUP2 AND SWAP2 PUSH1 0x1 PUSH1 0xD0 SHL SWAP1 DIV AND DUP4 JUMP JUMPDEST PUSH1 0x33 SLOAD PUSH1 0x1 PUSH1 0x1 PUSH1 0xA0 SHL SUB AND DUP2 JUMP JUMPDEST PUSH1 0xFF DUP2 AND PUSH1 0x0 SWAP1 DUP2 MSTORE PUSH1 0x97 PUSH1 0x20 MSTORE PUSH1 0x40 SWAP1 KECCAK256 SLOAD PUSH1 0x1 PUSH1 0x1 PUSH1 0xA0 SHL SUB AND JUMPDEST SWAP2 SWAP1 POP JUMP JUMPDEST PUSH2 0x92F PUSH2 0x14BD JUMP JUMPDEST PUSH1 0x1 PUSH1 0x1 PUSH1 0xA0 SHL SUB AND PUSH2 0x940 PUSH2 0x8BC JUMP JUMPDEST PUSH1 0x1 PUSH1 0x1 PUSH1 0xA0 SHL SUB AND EQ PUSH2 0x966 JUMPI PUSH1 0x40 MLOAD PUSH3 0x461BCD PUSH1 0xE5 SHL DUP2 MSTORE PUSH1 0x4 ADD PUSH2 0x402 SWAP1 PUSH2 0x3B2D JUMP JUMPDEST PUSH2 0x96F DUP4 PUSH2 0x986 JUMP JUMPDEST PUSH2 0x978 DUP3 PUSH2 0xB83 JUMP JUMPDEST PUSH2 0x981 DUP2 PUSH2 0xC3A JUMP JUMPDEST POP POP POP JUMP JUMPDEST PUSH2 0x98E PUSH2 0x14BD JUMP JUMPDEST PUSH1 0x1 PUSH1 0x1 PUSH1 0xA0 SHL SUB AND PUSH2 0x99F PUSH2 0x8BC JUMP JUMPDEST PUSH1 0x1 PUSH1 0x1 PUSH1 0xA0 SHL SUB AND EQ PUSH2 0x9C5 JUMPI PUSH1 0x40 MLOAD PUSH3 0x461BCD PUSH1 0xE5 SHL DUP2 MSTORE PUSH1 0x4 ADD PUSH2 0x402 SWAP1 PUSH2 0x3B2D JUMP JUMPDEST PUSH2 0x163 SLOAD PUSH1 0x40 MLOAD PUSH32 0xA4B009CC442411B602EAF94BC0579B6ABDB8FD90B4EF5B9426E270038906BD03 SWAP2 PUSH2 0xA05 SWAP2 PUSH1 0x1 PUSH1 0x1 PUSH1 0xA0 SHL SUB SWAP1 SWAP2 AND SWAP1 DUP5 SWAP1 PUSH2 0x343D JUMP JUMPDEST PUSH1 0x40 MLOAD DUP1 SWAP2 SUB SWAP1 LOG1 PUSH2 0x163 DUP1 SLOAD PUSH1 0x1 PUSH1 0x1 PUSH1 0xA0 SHL SUB NOT AND PUSH1 0x1 PUSH1 0x1 PUSH1 0xA0 SHL SUB SWAP3 SWAP1 SWAP3 AND SWAP2 SWAP1 SWAP2 OR SWAP1 SSTORE JUMP JUMPDEST PUSH2 0xA38 PUSH2 0x14BD JUMP JUMPDEST PUSH1 0x1 PUSH1 0x1 PUSH1 0xA0 SHL SUB AND PUSH2 0xA49 PUSH2 0x8BC JUMP JUMPDEST PUSH1 0x1 PUSH1 0x1 PUSH1 0xA0 SHL SUB AND EQ PUSH2 0xA6F JUMPI PUSH1 0x40 MLOAD PUSH3 0x461BCD PUSH1 0xE5 SHL DUP2 MSTORE PUSH1 0x4 ADD PUSH2 0x402 SWAP1 PUSH2 0x3B2D JUMP JUMPDEST PUSH1 0x0 DUP3 DUP2 MSTORE PUSH1 0x65 PUSH1 0x20 MSTORE PUSH1 0x40 SWAP1 DUP2 SWAP1 KECCAK256 DUP1 SLOAD PUSH1 0x1 PUSH1 0x1 PUSH1 0xA0 SHL SUB NOT AND PUSH1 0x1 PUSH1 0x1 PUSH1 0xA0 SHL SUB DUP5 AND OR SWAP1 SSTORE MLOAD DUP3 SWAP1 PUSH32 0x58204093ED36D15D7F2A89FDACA20C53F1E02A2CE5686ACE9247D1B96E9EC67B SWAP1 PUSH2 0x71E SWAP1 DUP5 SWAP1 PUSH2 0x33F1 JUMP JUMPDEST DUP1 PUSH1 0x20 ADD MLOAD PUSH1 0x1 PUSH1 0x1 PUSH1 0xA0 SHL SUB AND PUSH2 0xADE PUSH2 0x14BD JUMP JUMPDEST PUSH1 0x1 PUSH1 0x1 PUSH1 0xA0 SHL SUB AND EQ PUSH2 0xB04 JUMPI PUSH1 0x40 MLOAD PUSH3 0x461BCD PUSH1 0xE5 SHL DUP2 MSTORE PUSH1 0x4 ADD PUSH2 0x402 SWAP1 PUSH2 0x3D39 JUMP JUMPDEST PUSH1 0xA0 DUP2 ADD MLOAD PUSH2 0xB25 JUMPI PUSH1 0x40 MLOAD PUSH3 0x461BCD PUSH1 0xE5 SHL DUP2 MSTORE PUSH1 0x4 ADD PUSH2 0x402 SWAP1 PUSH2 0x3842 JUMP JUMPDEST PUSH1 0x0 PUSH2 0xB30 DUP3 PUSH2 0x1550 JUMP JUMPDEST PUSH1 0x0 DUP2 DUP2 MSTORE PUSH2 0x130 PUSH1 0x20 MSTORE PUSH1 0x40 SWAP1 DUP2 SWAP1 KECCAK256 PUSH1 0x0 NOT SWAP1 SSTORE MLOAD SWAP1 SWAP2 POP PUSH32 0xE8D9861DBC9C663ED3ACCD261BBE2FE01E0D3D9E5F51FA38523B265C7757A93A SWAP1 PUSH2 0xB77 SWAP1 DUP4 SWAP1 PUSH2 0x3526 JUMP JUMPDEST PUSH1 0x40 MLOAD DUP1 SWAP2 SUB SWAP1 LOG1 POP POP JUMP JUMPDEST PUSH2 0xB8B PUSH2 0x14BD JUMP JUMPDEST PUSH1 0x1 PUSH1 0x1 PUSH1 0xA0 SHL SUB AND PUSH2 0xB9C PUSH2 0x8BC JUMP JUMPDEST PUSH1 0x1 PUSH1 0x1 PUSH1 0xA0 SHL SUB AND EQ PUSH2 0xBC2 JUMPI PUSH1 0x40 MLOAD PUSH3 0x461BCD PUSH1 0xE5 SHL DUP2 MSTORE PUSH1 0x4 ADD PUSH2 0x402 SWAP1 PUSH2 0x3B2D JUMP JUMPDEST PUSH2 0x163 SLOAD PUSH1 0x40 MLOAD PUSH32 0x70BBA4F904A93BA5C1AF3A1BB602BC9C058551DBE963DFE0B6CB5BC11C5FEA9E SWAP2 PUSH2 0xC07 SWAP2 PUSH1 0x1 PUSH1 0xA0 SHL SWAP1 SWAP2 DIV PUSH6 0xFFFFFFFFFFFF AND SWAP1 DUP5 SWAP1 PUSH2 0x3E0F JUMP JUMPDEST PUSH1 0x40 MLOAD DUP1 SWAP2 SUB SWAP1 LOG1 PUSH2 0x163 DUP1 SLOAD PUSH6 0xFFFFFFFFFFFF SWAP1 SWAP3 AND PUSH1 0x1 PUSH1 0xA0 SHL MUL PUSH6 0xFFFFFFFFFFFF PUSH1 0xA0 SHL NOT SWAP1 SWAP3 AND SWAP2 SWAP1 SWAP2 OR SWAP1 SSTORE JUMP JUMPDEST PUSH2 0xC42 PUSH2 0x14BD JUMP JUMPDEST PUSH1 0x1 PUSH1 0x1 PUSH1 0xA0 SHL SUB AND PUSH2 0xC53 PUSH2 0x8BC JUMP JUMPDEST PUSH1 0x1 PUSH1 0x1 PUSH1 0xA0 SHL SUB AND EQ PUSH2 0xC79 JUMPI PUSH1 0x40 MLOAD PUSH3 0x461BCD PUSH1 0xE5 SHL DUP2 MSTORE PUSH1 0x4 ADD PUSH2 0x402 SWAP1 PUSH2 0x3B2D JUMP JUMPDEST PUSH2 0x163 SLOAD PUSH1 0x40 MLOAD PUSH32 0xA8AF9093CAA9BEB61D20432227C66258CEEF926F21879B80F3ADF22A4D19F131 SWAP2 PUSH2 0xCBE SWAP2 PUSH1 0x1 PUSH1 0xD0 SHL SWAP1 SWAP2 DIV PUSH6 0xFFFFFFFFFFFF AND SWAP1 DUP5 SWAP1 PUSH2 0x3E0F JUMP JUMPDEST PUSH1 0x40 MLOAD DUP1 SWAP2 SUB SWAP1 LOG1 PUSH2 0x163 DUP1 SLOAD PUSH6 0xFFFFFFFFFFFF SWAP1 SWAP3 AND PUSH1 0x1 PUSH1 0xD0 SHL MUL PUSH1 0x1 PUSH1 0x1 PUSH1 0xD0 SHL SUB SWAP1 SWAP3 AND SWAP2 SWAP1 SWAP2 OR SWAP1 SSTORE JUMP JUMPDEST PUSH2 0xCF6 PUSH2 0x14BD JUMP JUMPDEST PUSH1 0x1 PUSH1 0x1 PUSH1 0xA0 SHL SUB AND PUSH2 0xD07 PUSH2 0x8BC JUMP JUMPDEST PUSH1 0x1 PUSH1 0x1 PUSH1 0xA0 SHL SUB AND EQ PUSH2 0xD2D JUMPI PUSH1 0x40 MLOAD PUSH3 0x461BCD PUSH1 0xE5 SHL DUP2 MSTORE PUSH1 0x4 ADD PUSH2 0x402 SWAP1 PUSH2 0x3B2D JUMP JUMPDEST PUSH1 0x1 PUSH1 0x1 PUSH1 0xA0 SHL SUB DUP2 AND PUSH2 0xD53 JUMPI PUSH1 0x40 MLOAD PUSH3 0x461BCD PUSH1 0xE5 SHL DUP2 MSTORE PUSH1 0x4 ADD PUSH2 0x402 SWAP1 PUSH2 0x37C5 JUMP JUMPDEST PUSH1 0x33 SLOAD PUSH1 0x40 MLOAD PUSH1 0x1 PUSH1 0x1 PUSH1 0xA0 SHL SUB DUP1 DUP5 AND SWAP3 AND SWAP1 PUSH32 0x8BE0079C531659141344CD1FD0A4F28419497F9722A3DAAFE3B4186F6B6457E0 SWAP1 PUSH1 0x0 SWAP1 LOG3 PUSH1 0x33 DUP1 SLOAD PUSH1 0x1 PUSH1 0x1 PUSH1 0xA0 SHL SUB NOT AND PUSH1 0x1 PUSH1 0x1 PUSH1 0xA0 SHL SUB SWAP3 SWAP1 SWAP3 AND SWAP2 SWAP1 SWAP2 OR SWAP1 SSTORE JUMP JUMPDEST DUP1 MLOAD DUP3 MLOAD EQ PUSH2 0xDD0 JUMPI PUSH1 0x40 MLOAD PUSH3 0x461BCD PUSH1 0xE5 SHL DUP2 MSTORE PUSH1 0x4 ADD PUSH2 0x402 SWAP1 PUSH2 0x3900 JUMP JUMPDEST PUSH1 0x0 JUMPDEST DUP3 MLOAD DUP2 LT ISZERO PUSH2 0x981 JUMPI PUSH1 0x0 DUP4 DUP3 DUP2 MLOAD DUP2 LT PUSH2 0xDEA JUMPI INVALID JUMPDEST PUSH1 0x20 MUL PUSH1 0x20 ADD ADD MLOAD SWAP1 POP PUSH1 0x0 DUP4 DUP4 DUP2 MLOAD DUP2 LT PUSH2 0xE02 JUMPI INVALID JUMPDEST PUSH1 0x20 MUL PUSH1 0x20 ADD ADD MLOAD SWAP1 POP PUSH1 0x0 PUSH2 0x131 PUSH1 0x0 DUP5 PUSH1 0x20 ADD MLOAD PUSH1 0x1 PUSH1 0x1 PUSH1 0xA0 SHL SUB AND PUSH1 0x1 PUSH1 0x1 PUSH1 0xA0 SHL SUB AND DUP2 MSTORE PUSH1 0x20 ADD SWAP1 DUP2 MSTORE PUSH1 0x20 ADD PUSH1 0x0 KECCAK256 DUP4 PUSH2 0x140 ADD MLOAD PUSH1 0x40 MLOAD PUSH2 0xE4B SWAP2 SWAP1 PUSH2 0x335E JUMP JUMPDEST SWAP1 DUP2 MSTORE PUSH1 0x40 DUP1 MLOAD PUSH1 0x20 SWAP3 DUP2 SWAP1 SUB DUP4 ADD SWAP1 KECCAK256 PUSH2 0x1A0 DUP7 ADD MLOAD PUSH2 0xFFFF AND PUSH1 0x0 SWAP1 DUP2 MSTORE SWAP3 MSTORE SWAP1 KECCAK256 SLOAD SWAP1 POP PUSH1 0x1 DUP4 MLOAD PUSH1 0x3 DUP2 GT ISZERO PUSH2 0xE81 JUMPI INVALID JUMPDEST EQ ISZERO PUSH2 0xEB8 JUMPI PUSH2 0xE9C DUP4 PUSH2 0x160 ADD MLOAD DUP5 PUSH2 0x180 ADD MLOAD DUP6 PUSH2 0x662 JUMP JUMPDEST PUSH2 0xEB8 JUMPI PUSH1 0x40 MLOAD PUSH3 0x461BCD PUSH1 0xE5 SHL DUP2 MSTORE PUSH1 0x4 ADD PUSH2 0x402 SWAP1 PUSH2 0x3D10 JUMP JUMPDEST PUSH1 0x1 DUP3 MLOAD PUSH1 0x3 DUP2 GT ISZERO PUSH2 0xEC7 JUMPI INVALID JUMPDEST EQ ISZERO PUSH2 0xEFE JUMPI PUSH2 0xEE2 DUP3 PUSH2 0x160 ADD MLOAD DUP4 PUSH2 0x180 ADD MLOAD DUP5 PUSH2 0x662 JUMP JUMPDEST PUSH2 0xEFE JUMPI PUSH1 0x40 MLOAD PUSH3 0x461BCD PUSH1 0xE5 SHL DUP2 MSTORE PUSH1 0x4 ADD PUSH2 0x402 SWAP1 PUSH2 0x3D10 JUMP JUMPDEST PUSH2 0xF08 DUP4 DUP4 PUSH2 0x11F9 JUMP JUMPDEST PUSH2 0xF12 DUP4 DUP4 PUSH2 0x1589 JUMP JUMPDEST PUSH2 0xF1D DUP4 DUP4 DUP4 PUSH2 0x1333 JUMP JUMPDEST POP POP POP PUSH1 0x1 ADD PUSH2 0xDD3 JUMP JUMPDEST EXTCODESIZE ISZERO ISZERO SWAP1 JUMP JUMPDEST PUSH1 0x0 PUSH2 0xF39 ADDRESS PUSH2 0xF28 JUMP JUMPDEST ISZERO SWAP1 POP SWAP1 JUMP JUMPDEST PUSH1 0x0 SLOAD PUSH2 0x100 SWAP1 DIV PUSH1 0xFF AND DUP1 PUSH2 0xF58 JUMPI POP PUSH2 0xF58 PUSH2 0xF2E JUMP JUMPDEST DUP1 PUSH2 0xF66 JUMPI POP PUSH1 0x0 SLOAD PUSH1 0xFF AND ISZERO JUMPDEST PUSH2 0xF82 JUMPI PUSH1 0x40 MLOAD PUSH3 0x461BCD PUSH1 0xE5 SHL DUP2 MSTORE PUSH1 0x4 ADD PUSH2 0x402 SWAP1 PUSH2 0x3A66 JUMP JUMPDEST PUSH1 0x0 SLOAD PUSH2 0x100 SWAP1 DIV PUSH1 0xFF AND ISZERO DUP1 ISZERO PUSH2 0xFAD JUMPI PUSH1 0x0 DUP1 SLOAD PUSH1 0xFF NOT PUSH2 0xFF00 NOT SWAP1 SWAP2 AND PUSH2 0x100 OR AND PUSH1 0x1 OR SWAP1 SSTORE JUMPDEST DUP1 ISZERO PUSH2 0xFBF JUMPI PUSH1 0x0 DUP1 SLOAD PUSH2 0xFF00 NOT AND SWAP1 SSTORE JUMPDEST POP JUMP JUMPDEST PUSH1 0x0 SLOAD PUSH2 0x100 SWAP1 DIV PUSH1 0xFF AND DUP1 PUSH2 0xFDB JUMPI POP PUSH2 0xFDB PUSH2 0xF2E JUMP JUMPDEST DUP1 PUSH2 0xFE9 JUMPI POP PUSH1 0x0 SLOAD PUSH1 0xFF AND ISZERO JUMPDEST PUSH2 0x1005 JUMPI PUSH1 0x40 MLOAD PUSH3 0x461BCD PUSH1 0xE5 SHL DUP2 MSTORE PUSH1 0x4 ADD PUSH2 0x402 SWAP1 PUSH2 0x3A66 JUMP JUMPDEST PUSH1 0x0 SLOAD PUSH2 0x100 SWAP1 DIV PUSH1 0xFF AND ISZERO DUP1 ISZERO PUSH2 0x1030 JUMPI PUSH1 0x0 DUP1 SLOAD PUSH1 0xFF NOT PUSH2 0xFF00 NOT SWAP1 SWAP2 AND PUSH2 0x100 OR AND PUSH1 0x1 OR SWAP1 SSTORE JUMPDEST PUSH1 0x0 PUSH2 0x103A PUSH2 0x14BD JUMP JUMPDEST PUSH1 0x33 DUP1 SLOAD PUSH1 0x1 PUSH1 0x1 PUSH1 0xA0 SHL SUB NOT AND PUSH1 0x1 PUSH1 0x1 PUSH1 0xA0 SHL SUB DUP4 AND SWAP1 DUP2 OR SWAP1 SWAP2 SSTORE PUSH1 0x40 MLOAD SWAP2 SWAP3 POP SWAP1 PUSH1 0x0 SWAP1 PUSH32 0x8BE0079C531659141344CD1FD0A4F28419497F9722A3DAAFE3B4186F6B6457E0 SWAP1 DUP3 SWAP1 LOG3 POP DUP1 ISZERO PUSH2 0xFBF JUMPI PUSH1 0x0 DUP1 SLOAD PUSH2 0xFF00 NOT AND SWAP1 SSTORE POP JUMP JUMPDEST PUSH1 0x97 PUSH1 0x20 MSTORE PUSH32 0xD6CA216B3B8B63BCC0099D5C8294D1780D598AC9B3A29B15C3C3E68C85F6E30C DUP1 SLOAD PUSH1 0x1 PUSH1 0x1 PUSH1 0xA0 SHL SUB SWAP3 DUP4 AND PUSH1 0x1 PUSH1 0x1 PUSH1 0xA0 SHL SUB NOT SWAP2 DUP3 AND OR SWAP1 SWAP2 SSTORE PUSH32 0x17B8D24B2A0F404D68A0B2ABB80FD2D4D2105D3355F1FC48A1949FE7FCE12E5 DUP1 SLOAD SWAP4 SWAP1 SWAP3 AND SWAP3 DUP2 AND DUP4 OR SWAP1 SWAP2 SSTORE PUSH1 0x4 PUSH1 0x0 MSTORE PUSH32 0xF6FE0582E0E323A551F456B66350A1ED549948A34FDD35BE011D229E00171C1F DUP1 SLOAD SWAP1 SWAP2 AND SWAP1 SWAP2 OR SWAP1 SSTORE JUMP JUMPDEST PUSH1 0x0 SLOAD PUSH2 0x100 SWAP1 DIV PUSH1 0xFF AND DUP1 PUSH2 0x1159 JUMPI POP PUSH2 0x1159 PUSH2 0xF2E JUMP JUMPDEST DUP1 PUSH2 0x1167 JUMPI POP PUSH1 0x0 SLOAD PUSH1 0xFF AND ISZERO JUMPDEST PUSH2 0x1183 JUMPI PUSH1 0x40 MLOAD PUSH3 0x461BCD PUSH1 0xE5 SHL DUP2 MSTORE PUSH1 0x4 ADD PUSH2 0x402 SWAP1 PUSH2 0x3A66 JUMP JUMPDEST PUSH1 0x0 SLOAD PUSH2 0x100 SWAP1 DIV PUSH1 0xFF AND ISZERO DUP1 ISZERO PUSH2 0x11AE JUMPI PUSH1 0x0 DUP1 SLOAD PUSH1 0xFF NOT PUSH2 0xFF00 NOT SWAP1 SWAP2 AND PUSH2 0x100 OR AND PUSH1 0x1 OR SWAP1 SSTORE JUMPDEST PUSH2 0x164 DUP1 SLOAD PUSH1 0x1 PUSH1 0x1 PUSH1 0xA0 SHL SUB NOT AND PUSH1 0x1 PUSH1 0x1 PUSH1 0xA0 SHL SUB DUP5 AND OR SWAP1 SSTORE DUP1 ISZERO PUSH2 0x11DC JUMPI PUSH1 0x0 DUP1 SLOAD PUSH2 0xFF00 NOT AND SWAP1 SSTORE JUMPDEST POP POP POP POP JUMP JUMPDEST PUSH2 0x11EB DUP3 PUSH2 0x1956 JUMP JUMPDEST PUSH2 0x11F5 DUP3 DUP3 PUSH2 0x19B6 JUMP JUMPDEST POP POP JUMP JUMPDEST PUSH1 0x20 DUP1 DUP4 ADD MLOAD PUSH1 0x1 PUSH1 0x1 PUSH1 0xA0 SHL SUB AND PUSH1 0x0 SWAP1 DUP2 MSTORE PUSH2 0x131 SWAP1 SWAP2 MSTORE PUSH1 0x40 DUP1 DUP3 KECCAK256 PUSH2 0x140 DUP6 ADD MLOAD SWAP2 MLOAD SWAP1 SWAP2 PUSH2 0x122B SWAP2 PUSH2 0x335E JUMP JUMPDEST SWAP1 DUP2 MSTORE PUSH1 0x20 ADD PUSH1 0x40 MLOAD DUP1 SWAP2 SUB SWAP1 KECCAK256 PUSH1 0x0 DUP5 PUSH2 0x1A0 ADD MLOAD PUSH2 0xFFFF AND PUSH2 0xFFFF AND DUP2 MSTORE PUSH1 0x20 ADD SWAP1 DUP2 MSTORE PUSH1 0x20 ADD PUSH1 0x0 KECCAK256 SLOAD SWAP1 POP DUP3 PUSH1 0x40 ADD MLOAD PUSH1 0x0 ADD MLOAD PUSH1 0xFF AND PUSH1 0x3 EQ ISZERO PUSH2 0x12ED JUMPI PUSH2 0x131 PUSH1 0x0 DUP5 PUSH1 0x20 ADD MLOAD PUSH1 0x1 PUSH1 0x1 PUSH1 0xA0 SHL SUB AND PUSH1 0x1 PUSH1 0x1 PUSH1 0xA0 SHL SUB AND DUP2 MSTORE PUSH1 0x20 ADD SWAP1 DUP2 MSTORE PUSH1 0x20 ADD PUSH1 0x0 KECCAK256 DUP4 PUSH2 0x140 ADD MLOAD PUSH1 0x40 MLOAD PUSH2 0x12AB SWAP2 SWAP1 PUSH2 0x335E JUMP JUMPDEST SWAP1 DUP2 MSTORE PUSH1 0x40 DUP1 MLOAD PUSH1 0x20 SWAP3 DUP2 SWAP1 SUB DUP4 ADD SWAP1 KECCAK256 PUSH2 0x1A0 DUP7 ADD MLOAD PUSH2 0xFFFF AND PUSH1 0x0 SWAP1 DUP2 MSTORE SWAP3 MSTORE SWAP1 KECCAK256 SLOAD ISZERO PUSH2 0x12ED JUMPI PUSH1 0x40 MLOAD PUSH3 0x461BCD PUSH1 0xE5 SHL DUP2 MSTORE PUSH1 0x4 ADD PUSH2 0x402 SWAP1 PUSH2 0x3B91 JUMP JUMPDEST DUP3 PUSH1 0x40 ADD MLOAD PUSH1 0x0 ADD MLOAD PUSH1 0xFF AND PUSH1 0x4 EQ ISZERO PUSH2 0x981 JUMPI DUP2 PUSH1 0x80 ADD MLOAD PUSH1 0x40 ADD MLOAD DUP2 ADD DUP4 PUSH1 0x40 ADD MLOAD PUSH1 0x40 ADD MLOAD LT ISZERO PUSH2 0x981 JUMPI PUSH1 0x40 MLOAD PUSH3 0x461BCD PUSH1 0xE5 SHL DUP2 MSTORE PUSH1 0x4 ADD PUSH2 0x402 SWAP1 PUSH2 0x3870 JUMP JUMPDEST PUSH1 0x0 DUP1 PUSH2 0x1341 DUP6 DUP6 DUP6 PUSH2 0x1B1A JUMP JUMPDEST SWAP2 POP SWAP2 POP PUSH2 0x1351 DUP6 DUP6 DUP5 DUP5 PUSH2 0x1BA0 JUMP JUMPDEST PUSH1 0x0 PUSH1 0x2 DUP7 MLOAD PUSH1 0x3 DUP2 GT ISZERO PUSH2 0x1362 JUMPI INVALID JUMPDEST EQ PUSH2 0x136D JUMPI DUP6 PUSH2 0x136F JUMP JUMPDEST DUP5 JUMPDEST SWAP1 POP PUSH1 0x0 DUP6 PUSH1 0x80 ADD MLOAD PUSH1 0x40 ADD MLOAD PUSH2 0x131 PUSH1 0x0 DUP5 PUSH1 0x20 ADD MLOAD PUSH1 0x1 PUSH1 0x1 PUSH1 0xA0 SHL SUB AND PUSH1 0x1 PUSH1 0x1 PUSH1 0xA0 SHL SUB AND DUP2 MSTORE PUSH1 0x20 ADD SWAP1 DUP2 MSTORE PUSH1 0x20 ADD PUSH1 0x0 KECCAK256 DUP4 PUSH2 0x140 ADD MLOAD PUSH1 0x40 MLOAD PUSH2 0x13B9 SWAP2 SWAP1 PUSH2 0x335E JUMP JUMPDEST SWAP1 DUP2 MSTORE PUSH1 0x40 DUP1 MLOAD PUSH1 0x20 SWAP3 DUP2 SWAP1 SUB DUP4 ADD DUP2 KECCAK256 PUSH2 0x1A0 DUP8 ADD MLOAD PUSH2 0xFFFF AND PUSH1 0x0 SWAP1 DUP2 MSTORE SWAP1 DUP5 MSTORE DUP3 DUP2 KECCAK256 SLOAD DUP8 DUP6 ADD MLOAD PUSH1 0x1 PUSH1 0x1 PUSH1 0xA0 SHL SUB AND DUP3 MSTORE PUSH2 0x131 SWAP1 SWAP5 MSTORE SWAP2 SWAP1 SWAP2 KECCAK256 PUSH2 0x140 DUP7 ADD MLOAD SWAP4 SWAP1 SWAP3 ADD SWAP4 POP DUP4 SWAP3 PUSH2 0x1410 SWAP2 PUSH2 0x335E JUMP JUMPDEST SWAP1 DUP2 MSTORE PUSH1 0x20 ADD PUSH1 0x40 MLOAD DUP1 SWAP2 SUB SWAP1 KECCAK256 PUSH1 0x0 DUP5 PUSH2 0x1A0 ADD MLOAD PUSH2 0xFFFF AND PUSH2 0xFFFF AND DUP2 MSTORE PUSH1 0x20 ADD SWAP1 DUP2 MSTORE PUSH1 0x20 ADD PUSH1 0x0 KECCAK256 DUP2 SWAP1 SSTORE POP PUSH32 0xA49E31994A96DC315540D6FF9E29428418ADDFA28F6FFCC73DDAD3528E40DDC1 DUP8 PUSH1 0x0 ADD MLOAD DUP9 PUSH1 0x20 ADD MLOAD DUP9 PUSH1 0x20 ADD MLOAD DUP6 PUSH2 0x140 ADD MLOAD DUP7 PUSH2 0x1A0 ADD MLOAD DUP12 PUSH1 0x80 ADD MLOAD PUSH1 0x40 ADD MLOAD DUP13 PUSH1 0x80 ADD MLOAD PUSH1 0x60 ADD MLOAD DUP9 PUSH2 0x1497 PUSH2 0x1FA3 JUMP JUMPDEST PUSH1 0x40 MLOAD PUSH2 0x14AC SWAP10 SWAP9 SWAP8 SWAP7 SWAP6 SWAP5 SWAP4 SWAP3 SWAP2 SWAP1 PUSH2 0x36B2 JUMP JUMPDEST PUSH1 0x40 MLOAD DUP1 SWAP2 SUB SWAP1 LOG1 POP POP POP POP POP POP POP JUMP JUMPDEST CALLER SWAP1 JUMP JUMPDEST PUSH2 0x1A0 DUP2 ADD MLOAD PUSH1 0x20 DUP1 DUP4 ADD MLOAD PUSH1 0x40 DUP1 DUP6 ADD MLOAD DUP1 DUP5 ADD MLOAD PUSH1 0x60 DUP1 DUP4 ADD MLOAD DUP4 DUP6 ADD MLOAD SWAP4 MLOAD DUP3 DUP11 ADD MLOAD PUSH1 0x80 DUP12 ADD MLOAD DUP1 DUP11 ADD MLOAD SWAP5 DUP2 ADD MLOAD DUP2 DUP10 ADD MLOAD SWAP2 MLOAD SWAP9 MLOAD PUSH1 0x0 SWAP13 PUSH2 0x151B SWAP13 SWAP1 SWAP12 SWAP11 SWAP9 SWAP10 SWAP7 SWAP9 SWAP7 SWAP8 SWAP6 SWAP7 SWAP5 SWAP6 SWAP5 SWAP3 SWAP4 SWAP3 SWAP2 ADD PUSH2 0x3DAA JUMP JUMPDEST PUSH1 0x40 MLOAD PUSH1 0x20 DUP2 DUP4 SUB SUB DUP2 MSTORE SWAP1 PUSH1 0x40 MSTORE DUP1 MLOAD SWAP1 PUSH1 0x20 ADD KECCAK256 SWAP1 POP SWAP2 SWAP1 POP JUMP JUMPDEST PUSH1 0x0 DUP3 PUSH2 0x1545 DUP6 DUP5 PUSH2 0x1FE3 JUMP JUMPDEST EQ SWAP1 POP JUMPDEST SWAP4 SWAP3 POP POP POP JUMP JUMPDEST PUSH1 0x0 DUP2 PUSH1 0x20 ADD MLOAD PUSH2 0x1564 DUP4 PUSH1 0x40 ADD MLOAD PUSH2 0x2022 JUMP JUMPDEST PUSH2 0x1571 DUP5 PUSH1 0x80 ADD MLOAD PUSH2 0x2022 JUMP JUMPDEST DUP5 PUSH1 0xA0 ADD MLOAD PUSH1 0x40 MLOAD PUSH1 0x20 ADD PUSH2 0x151B SWAP5 SWAP4 SWAP3 SWAP2 SWAP1 PUSH2 0x34B3 JUMP JUMPDEST PUSH2 0x1598 DUP3 DUP4 PUSH2 0x140 ADD MLOAD PUSH2 0x11E2 JUMP JUMPDEST PUSH2 0x15A7 DUP2 DUP3 PUSH2 0x140 ADD MLOAD PUSH2 0x11E2 JUMP JUMPDEST PUSH1 0x60 DUP3 ADD MLOAD PUSH1 0x1 PUSH1 0x1 PUSH1 0xA0 SHL SUB AND ISZERO PUSH2 0x15F3 JUMPI DUP2 PUSH1 0x60 ADD MLOAD PUSH1 0x1 PUSH1 0x1 PUSH1 0xA0 SHL SUB AND DUP2 PUSH1 0x20 ADD MLOAD PUSH1 0x1 PUSH1 0x1 PUSH1 0xA0 SHL SUB AND EQ PUSH2 0x15F3 JUMPI PUSH1 0x40 MLOAD PUSH3 0x461BCD PUSH1 0xE5 SHL DUP2 MSTORE PUSH1 0x4 ADD PUSH2 0x402 SWAP1 PUSH2 0x3CCD JUMP JUMPDEST PUSH1 0x60 DUP2 ADD MLOAD PUSH1 0x1 PUSH1 0x1 PUSH1 0xA0 SHL SUB AND ISZERO PUSH2 0x163F JUMPI DUP2 PUSH1 0x20 ADD MLOAD PUSH1 0x1 PUSH1 0x1 PUSH1 0xA0 SHL SUB AND DUP2 PUSH1 0x60 ADD MLOAD PUSH1 0x1 PUSH1 0x1 PUSH1 0xA0 SHL SUB AND EQ PUSH2 0x163F JUMPI PUSH1 0x40 MLOAD PUSH3 0x461BCD PUSH1 0xE5 SHL DUP2 MSTORE PUSH1 0x4 ADD PUSH2 0x402 SWAP1 PUSH2 0x3984 JUMP JUMPDEST DUP2 PUSH1 0x40 ADD MLOAD PUSH1 0x0 ADD MLOAD PUSH1 0xFF AND PUSH1 0x3 EQ DUP1 PUSH2 0x1664 JUMPI POP DUP2 PUSH1 0x40 ADD MLOAD PUSH1 0x0 ADD MLOAD PUSH1 0xFF AND PUSH1 0x4 EQ JUMPDEST ISZERO PUSH2 0x178A JUMPI PUSH1 0x80 DUP2 DUP2 ADD MLOAD PUSH1 0x40 SWAP1 DUP2 ADD MLOAD SWAP2 DUP5 ADD MLOAD DUP2 ADD MLOAD SWAP1 DUP4 ADD MLOAD MLOAD PUSH1 0x0 SWAP1 PUSH1 0xFF AND PUSH1 0x2 EQ PUSH2 0x1694 JUMPI CALLVALUE PUSH2 0x169E JUMP JUMPDEST DUP4 PUSH1 0x40 ADD MLOAD PUSH1 0x40 ADD MLOAD JUMPDEST SWAP1 POP DUP4 PUSH1 0x40 ADD MLOAD PUSH1 0x0 ADD MLOAD PUSH1 0xFF AND PUSH1 0x2 EQ ISZERO PUSH2 0x1764 JUMPI PUSH1 0x0 DUP5 PUSH1 0x40 ADD MLOAD PUSH1 0x20 ADD MLOAD PUSH1 0x1 PUSH1 0x1 PUSH1 0xA0 SHL SUB AND PUSH4 0x70A08231 DUP7 PUSH1 0x20 ADD MLOAD PUSH1 0x40 MLOAD DUP3 PUSH4 0xFFFFFFFF AND PUSH1 0xE0 SHL DUP2 MSTORE PUSH1 0x4 ADD PUSH2 0x16EE SWAP2 SWAP1 PUSH2 0x33F1 JUMP JUMPDEST PUSH1 0x20 PUSH1 0x40 MLOAD DUP1 DUP4 SUB DUP2 DUP7 DUP1 EXTCODESIZE ISZERO DUP1 ISZERO PUSH2 0x1706 JUMPI PUSH1 0x0 DUP1 REVERT JUMPDEST POP GAS STATICCALL ISZERO DUP1 ISZERO PUSH2 0x171A JUMPI RETURNDATASIZE PUSH1 0x0 DUP1 RETURNDATACOPY RETURNDATASIZE PUSH1 0x0 REVERT JUMPDEST POP POP POP POP PUSH1 0x40 MLOAD RETURNDATASIZE PUSH1 0x1F NOT PUSH1 0x1F DUP3 ADD AND DUP3 ADD DUP1 PUSH1 0x40 MSTORE POP DUP2 ADD SWAP1 PUSH2 0x173E SWAP2 SWAP1 PUSH2 0x3259 JUMP JUMPDEST SWAP1 POP DUP3 DUP5 MUL DUP2 LT ISZERO PUSH2 0x1762 JUMPI PUSH1 0x40 MLOAD PUSH3 0x461BCD PUSH1 0xE5 SHL DUP2 MSTORE PUSH1 0x4 ADD PUSH2 0x402 SWAP1 PUSH2 0x3BF4 JUMP JUMPDEST POP JUMPDEST DUP1 DUP3 DUP5 MUL GT ISZERO PUSH2 0x1786 JUMPI PUSH1 0x40 MLOAD PUSH3 0x461BCD PUSH1 0xE5 SHL DUP2 MSTORE PUSH1 0x4 ADD PUSH2 0x402 SWAP1 PUSH2 0x3C2B JUMP JUMPDEST POP POP POP JUMPDEST DUP1 PUSH1 0x40 ADD MLOAD PUSH1 0x0 ADD MLOAD PUSH1 0xFF AND PUSH1 0x3 EQ DUP1 PUSH2 0x17AF JUMPI POP DUP1 PUSH1 0x40 ADD MLOAD PUSH1 0x0 ADD MLOAD PUSH1 0xFF AND PUSH1 0x4 EQ JUMPDEST ISZERO PUSH2 0x11F5 JUMPI PUSH1 0x80 DUP3 DUP2 ADD MLOAD PUSH1 0x40 SWAP1 DUP2 ADD MLOAD SWAP2 DUP4 ADD MLOAD DUP2 ADD MLOAD SWAP1 DUP5 ADD MLOAD MLOAD PUSH1 0x0 SWAP1 PUSH1 0xFF AND PUSH1 0x2 EQ PUSH2 0x17DF JUMPI CALLVALUE PUSH2 0x1867 JUMP JUMPDEST DUP5 PUSH1 0x40 ADD MLOAD PUSH1 0x20 ADD MLOAD PUSH1 0x1 PUSH1 0x1 PUSH1 0xA0 SHL SUB AND PUSH4 0x70A08231 DUP7 PUSH1 0x20 ADD MLOAD PUSH1 0x40 MLOAD DUP3 PUSH4 0xFFFFFFFF AND PUSH1 0xE0 SHL DUP2 MSTORE PUSH1 0x4 ADD PUSH2 0x1817 SWAP2 SWAP1 PUSH2 0x33F1 JUMP JUMPDEST PUSH1 0x20 PUSH1 0x40 MLOAD DUP1 DUP4 SUB DUP2 DUP7 DUP1 EXTCODESIZE ISZERO DUP1 ISZERO PUSH2 0x182F JUMPI PUSH1 0x0 DUP1 REVERT JUMPDEST POP GAS STATICCALL ISZERO DUP1 ISZERO PUSH2 0x1843 JUMPI RETURNDATASIZE PUSH1 0x0 DUP1 RETURNDATACOPY RETURNDATASIZE PUSH1 0x0 REVERT JUMPDEST POP POP POP POP PUSH1 0x40 MLOAD RETURNDATASIZE PUSH1 0x1F NOT PUSH1 0x1F DUP3 ADD AND DUP3 ADD DUP1 PUSH1 0x40 MSTORE POP DUP2 ADD SWAP1 PUSH2 0x1867 SWAP2 SWAP1 PUSH2 0x3259 JUMP JUMPDEST SWAP1 POP DUP5 PUSH1 0x40 ADD MLOAD PUSH1 0x0 ADD MLOAD PUSH1 0xFF AND PUSH1 0x2 EQ ISZERO PUSH2 0x192D JUMPI PUSH1 0x0 DUP6 PUSH1 0x40 ADD MLOAD PUSH1 0x20 ADD MLOAD PUSH1 0x1 PUSH1 0x1 PUSH1 0xA0 SHL SUB AND PUSH4 0x70A08231 DUP8 PUSH1 0x20 ADD MLOAD PUSH1 0x40 MLOAD DUP3 PUSH4 0xFFFFFFFF AND PUSH1 0xE0 SHL DUP2 MSTORE PUSH1 0x4 ADD PUSH2 0x18B7 SWAP2 SWAP1 PUSH2 0x33F1 JUMP JUMPDEST PUSH1 0x20 PUSH1 0x40 MLOAD DUP1 DUP4 SUB DUP2 DUP7 DUP1 EXTCODESIZE ISZERO DUP1 ISZERO PUSH2 0x18CF JUMPI PUSH1 0x0 DUP1 REVERT JUMPDEST POP GAS STATICCALL ISZERO DUP1 ISZERO PUSH2 0x18E3 JUMPI RETURNDATASIZE PUSH1 0x0 DUP1 RETURNDATACOPY RETURNDATASIZE PUSH1 0x0 REVERT JUMPDEST POP POP POP POP PUSH1 0x40 MLOAD RETURNDATASIZE PUSH1 0x1F NOT PUSH1 0x1F DUP3 ADD AND DUP3 ADD DUP1 PUSH1 0x40 MSTORE POP DUP2 ADD SWAP1 PUSH2 0x1907 SWAP2 SWAP1 PUSH2 0x3259 JUMP JUMPDEST SWAP1 POP DUP3 DUP5 MUL DUP2 LT ISZERO PUSH2 0x192B JUMPI PUSH1 0x40 MLOAD PUSH3 0x461BCD PUSH1 0xE5 SHL DUP2 MSTORE PUSH1 0x4 ADD PUSH2 0x402 SWAP1 PUSH2 0x3BF4 JUMP JUMPDEST POP JUMPDEST DUP1 DUP3 DUP5 MUL GT ISZERO PUSH2 0x194F JUMPI PUSH1 0x40 MLOAD PUSH3 0x461BCD PUSH1 0xE5 SHL DUP2 MSTORE PUSH1 0x4 ADD PUSH2 0x402 SWAP1 PUSH2 0x3C2B JUMP JUMPDEST POP POP POP POP POP JUMP JUMPDEST PUSH1 0xC0 DUP2 ADD MLOAD ISZERO DUP1 PUSH2 0x196A JUMPI POP TIMESTAMP DUP2 PUSH1 0xC0 ADD MLOAD LT JUMPDEST PUSH2 0x1986 JUMPI PUSH1 0x40 MLOAD PUSH3 0x461BCD PUSH1 0xE5 SHL DUP2 MSTORE PUSH1 0x4 ADD PUSH2 0x402 SWAP1 PUSH2 0x3AB4 JUMP JUMPDEST PUSH1 0xE0 DUP2 ADD MLOAD ISZERO DUP1 PUSH2 0x199A JUMPI POP TIMESTAMP DUP2 PUSH1 0xE0 ADD MLOAD GT JUMPDEST PUSH2 0xFBF JUMPI PUSH1 0x40 MLOAD PUSH3 0x461BCD PUSH1 0xE5 SHL DUP2 MSTORE PUSH1 0x4 ADD PUSH2 0x402 SWAP1 PUSH2 0x380B JUMP JUMPDEST PUSH1 0xA0 DUP3 ADD MLOAD PUSH2 0x1A18 JUMPI PUSH1 0x20 DUP3 ADD MLOAD PUSH1 0x1 PUSH1 0x1 PUSH1 0xA0 SHL SUB AND ISZERO DUP1 ISZERO SWAP1 PUSH2 0x19F7 JUMPI POP DUP2 PUSH1 0x20 ADD MLOAD PUSH1 0x1 PUSH1 0x1 PUSH1 0xA0 SHL SUB AND PUSH2 0x19EC PUSH2 0x14BD JUMP JUMPDEST PUSH1 0x1 PUSH1 0x1 PUSH1 0xA0 SHL SUB AND EQ JUMPDEST PUSH2 0x1A13 JUMPI PUSH1 0x40 MLOAD PUSH3 0x461BCD PUSH1 0xE5 SHL DUP2 MSTORE PUSH1 0x4 ADD PUSH2 0x402 SWAP1 PUSH2 0x3A36 JUMP JUMPDEST PUSH2 0x11F5 JUMP JUMPDEST PUSH1 0x0 DUP1 DUP4 MLOAD PUSH1 0x3 DUP2 GT ISZERO PUSH2 0x1A28 JUMPI INVALID JUMPDEST EQ DUP1 PUSH2 0x1A40 JUMPI POP PUSH1 0x2 DUP4 MLOAD PUSH1 0x3 DUP2 GT ISZERO PUSH2 0x1A3E JUMPI INVALID JUMPDEST EQ JUMPDEST ISZERO PUSH2 0x1A55 JUMPI PUSH2 0x1A4E DUP4 PUSH2 0x203F JUMP JUMPDEST SWAP1 POP PUSH2 0x1A85 JUMP JUMPDEST PUSH1 0x3 DUP4 MLOAD PUSH1 0x3 DUP2 GT ISZERO PUSH2 0x1A64 JUMPI INVALID JUMPDEST EQ ISZERO PUSH2 0x1A73 JUMPI PUSH2 0x1A4E DUP4 PUSH2 0x20B3 JUMP JUMPDEST PUSH2 0x1A82 DUP4 DUP5 PUSH2 0x160 ADD MLOAD PUSH2 0x20FA JUMP JUMPDEST SWAP1 POP JUMPDEST DUP3 PUSH1 0x20 ADD MLOAD PUSH1 0x1 PUSH1 0x1 PUSH1 0xA0 SHL SUB AND PUSH2 0x1A9B PUSH2 0x14BD JUMP JUMPDEST PUSH1 0x1 PUSH1 0x1 PUSH1 0xA0 SHL SUB AND EQ PUSH2 0x981 JUMPI DUP3 PUSH1 0x20 ADD MLOAD PUSH1 0x1 PUSH1 0x1 PUSH1 0xA0 SHL SUB AND PUSH2 0x1ACA DUP4 PUSH2 0x1AC4 DUP5 PUSH2 0x2159 JUMP JUMPDEST SWAP1 PUSH2 0x2175 JUMP JUMPDEST PUSH1 0x1 PUSH1 0x1 PUSH1 0xA0 SHL SUB AND EQ PUSH2 0x1AF0 JUMPI PUSH1 0x40 MLOAD PUSH3 0x461BCD PUSH1 0xE5 SHL DUP2 MSTORE PUSH1 0x4 ADD PUSH2 0x402 SWAP1 PUSH2 0x39C8 JUMP JUMPDEST PUSH1 0x20 DUP4 ADD MLOAD PUSH1 0x1 PUSH1 0x1 PUSH1 0xA0 SHL SUB AND PUSH2 0x981 JUMPI PUSH1 0x40 MLOAD PUSH3 0x461BCD PUSH1 0xE5 SHL DUP2 MSTORE PUSH1 0x4 ADD PUSH2 0x402 SWAP1 PUSH2 0x38DE JUMP JUMPDEST PUSH2 0x1B22 PUSH2 0x2C19 JUMP JUMPDEST PUSH2 0x1B2A PUSH2 0x2C19 JUMP JUMPDEST PUSH2 0x1B3D DUP6 PUSH1 0x40 ADD MLOAD DUP6 PUSH1 0x80 ADD MLOAD DUP6 PUSH2 0x21C0 JUMP JUMPDEST DUP1 MLOAD SWAP1 SWAP3 POP PUSH1 0xFF AND PUSH2 0x1B61 JUMPI PUSH1 0x40 MLOAD PUSH3 0x461BCD PUSH1 0xE5 SHL DUP2 MSTORE PUSH1 0x4 ADD PUSH2 0x402 SWAP1 PUSH2 0x3BC8 JUMP JUMPDEST PUSH2 0x1B74 DUP6 PUSH1 0x80 ADD MLOAD DUP6 PUSH1 0x40 ADD MLOAD DUP6 PUSH2 0x21C0 JUMP JUMPDEST DUP1 MLOAD SWAP1 SWAP2 POP PUSH1 0xFF AND PUSH2 0x1B98 JUMPI PUSH1 0x40 MLOAD PUSH3 0x461BCD PUSH1 0xE5 SHL DUP2 MSTORE PUSH1 0x4 ADD PUSH2 0x402 SWAP1 PUSH2 0x3BC8 JUMP JUMPDEST SWAP4 POP SWAP4 SWAP2 POP POP JUMP JUMPDEST PUSH1 0x40 DUP1 MLOAD PUSH1 0x80 DUP1 DUP3 ADD DUP4 MSTORE DUP5 DUP3 MSTORE DUP5 MLOAD PUSH1 0xFF SWAP1 DUP2 AND PUSH1 0x0 SWAP1 DUP2 MSTORE PUSH1 0x97 PUSH1 0x20 DUP2 DUP2 MSTORE DUP7 DUP4 KECCAK256 SLOAD PUSH1 0x1 PUSH1 0x1 PUSH1 0xA0 SHL SUB SWAP1 DUP2 AND DUP3 DUP9 ADD MSTORE DUP12 DUP3 ADD DUP1 MLOAD DUP3 AND DUP9 DUP11 ADD MSTORE DUP12 DUP4 ADD DUP1 MLOAD DUP4 AND PUSH1 0x60 DUP1 DUP12 ADD SWAP2 SWAP1 SWAP2 MSTORE DUP11 MLOAD SWAP9 DUP10 ADD DUP12 MSTORE DUP12 DUP10 MSTORE DUP12 MLOAD SWAP1 SWAP8 AND DUP7 MSTORE SWAP4 DUP4 MSTORE SWAP4 DUP9 SWAP1 KECCAK256 SLOAD DUP2 AND SWAP2 DUP7 ADD SWAP2 SWAP1 SWAP2 MSTORE SWAP1 MLOAD DUP2 AND SWAP6 DUP5 ADD SWAP6 SWAP1 SWAP6 MSTORE MLOAD SWAP1 SWAP4 AND SWAP3 DUP2 ADD SWAP3 SWAP1 SWAP3 MSTORE PUSH2 0x1C30 SWAP2 PUSH2 0x2201 JUMP JUMPDEST POP POP DUP1 PUSH1 0x0 ADD MLOAD PUSH1 0xFF AND PUSH1 0x1 EQ DUP1 PUSH2 0x1C4F JUMPI POP DUP1 PUSH1 0x0 ADD MLOAD PUSH1 0xFF AND PUSH1 0x2 EQ JUMPDEST ISZERO PUSH2 0x1DFB JUMPI DUP1 MLOAD PUSH1 0x40 DUP6 ADD MLOAD MLOAD PUSH1 0xFF SWAP1 DUP2 AND SWAP2 AND EQ ISZERO PUSH2 0x1C6E JUMPI PUSH1 0x0 DUP1 REVERT JUMPDEST PUSH1 0x0 PUSH2 0x2710 DUP6 PUSH2 0x100 ADD MLOAD PUSH1 0x20 ADD MLOAD DUP4 PUSH1 0x40 ADD MLOAD MUL DUP2 PUSH2 0x1C8A JUMPI INVALID JUMPDEST DIV SWAP1 POP PUSH1 0x0 PUSH2 0x2710 DUP7 PUSH2 0x120 ADD MLOAD PUSH1 0x20 ADD MLOAD DUP5 PUSH1 0x40 ADD MLOAD MUL DUP2 PUSH2 0x1CA9 JUMPI INVALID JUMPDEST DIV SWAP1 POP PUSH1 0x0 DUP2 DUP4 DUP6 PUSH1 0x40 ADD MLOAD SUB SUB SWAP1 POP PUSH2 0x1D35 PUSH1 0x40 MLOAD DUP1 PUSH1 0x80 ADD PUSH1 0x40 MSTORE DUP1 DUP7 PUSH1 0x0 ADD MLOAD PUSH1 0xFF AND DUP2 MSTORE PUSH1 0x20 ADD DUP7 PUSH1 0x20 ADD MLOAD PUSH1 0x1 PUSH1 0x1 PUSH1 0xA0 SHL SUB AND DUP2 MSTORE PUSH1 0x20 ADD DUP4 DUP2 MSTORE PUSH1 0x20 ADD DUP7 PUSH1 0x60 ADD MLOAD DUP2 MSTORE POP DUP8 PUSH1 0x20 ADD MLOAD DUP10 PUSH1 0x20 ADD MLOAD PUSH1 0x97 PUSH1 0x0 DUP10 PUSH1 0x0 ADD MLOAD PUSH1 0xFF AND PUSH1 0xFF AND DUP2 MSTORE PUSH1 0x20 ADD SWAP1 DUP2 MSTORE PUSH1 0x20 ADD PUSH1 0x0 KECCAK256 PUSH1 0x0 SWAP1 SLOAD SWAP1 PUSH2 0x100 EXP SWAP1 DIV PUSH1 0x1 PUSH1 0x1 PUSH1 0xA0 SHL SUB AND PUSH2 0x228C JUMP JUMPDEST PUSH1 0x40 DUP1 MLOAD PUSH1 0x80 DUP2 ADD DUP3 MSTORE DUP6 MLOAD PUSH1 0xFF SWAP1 DUP2 AND DUP3 MSTORE PUSH1 0x20 DUP1 DUP9 ADD MLOAD PUSH1 0x1 PUSH1 0x1 PUSH1 0xA0 SHL SUB SWAP1 DUP2 AND DUP3 DUP6 ADD MSTORE DUP4 DUP6 ADD DUP9 SWAP1 MSTORE PUSH1 0x60 DUP1 DUP11 ADD MLOAD SWAP1 DUP6 ADD MSTORE DUP11 DUP3 ADD MLOAD DUP10 MLOAD SWAP1 SWAP4 AND PUSH1 0x0 SWAP1 DUP2 MSTORE PUSH1 0x97 SWAP1 SWAP3 MSTORE SWAP4 SWAP1 KECCAK256 SLOAD PUSH2 0x1D90 SWAP4 ADDRESS SWAP2 AND PUSH2 0x228C JUMP JUMPDEST PUSH1 0x40 DUP1 MLOAD PUSH1 0x80 DUP2 ADD DUP3 MSTORE DUP6 MLOAD PUSH1 0xFF SWAP1 DUP2 AND DUP3 MSTORE PUSH1 0x20 DUP1 DUP9 ADD MLOAD PUSH1 0x1 PUSH1 0x1 PUSH1 0xA0 SHL SUB SWAP1 DUP2 AND DUP3 DUP6 ADD MSTORE DUP4 DUP6 ADD DUP8 SWAP1 MSTORE PUSH1 0x60 DUP1 DUP11 ADD MLOAD SWAP1 DUP6 ADD MSTORE DUP11 DUP3 ADD MLOAD PUSH2 0x120 DUP14 ADD MLOAD MLOAD DUP11 MLOAD SWAP1 SWAP5 AND PUSH1 0x0 SWAP1 DUP2 MSTORE PUSH1 0x97 SWAP1 SWAP4 MSTORE SWAP5 SWAP1 SWAP2 KECCAK256 SLOAD PUSH2 0x1DF3 SWAP5 SWAP3 SWAP2 AND PUSH2 0x228C JUMP JUMPDEST POP POP POP PUSH2 0x11DC JUMP JUMPDEST DUP2 MLOAD PUSH1 0x40 DUP5 ADD MLOAD MLOAD PUSH1 0xFF SWAP1 DUP2 AND SWAP2 AND EQ ISZERO PUSH2 0x1E15 JUMPI PUSH1 0x0 DUP1 REVERT JUMPDEST PUSH1 0x0 PUSH2 0x2710 DUP5 PUSH2 0x100 ADD MLOAD PUSH1 0x20 ADD MLOAD DUP5 PUSH1 0x40 ADD MLOAD MUL DUP2 PUSH2 0x1E31 JUMPI INVALID JUMPDEST DIV SWAP1 POP PUSH1 0x0 PUSH2 0x2710 DUP6 PUSH2 0x120 ADD MLOAD PUSH1 0x20 ADD MLOAD DUP6 PUSH1 0x40 ADD MLOAD MUL DUP2 PUSH2 0x1E50 JUMPI INVALID JUMPDEST DIV SWAP1 POP PUSH1 0x0 DUP2 DUP4 DUP7 PUSH1 0x40 ADD MLOAD SUB SUB SWAP1 POP PUSH2 0x1EDC PUSH1 0x40 MLOAD DUP1 PUSH1 0x80 ADD PUSH1 0x40 MSTORE DUP1 DUP8 PUSH1 0x0 ADD MLOAD PUSH1 0xFF AND DUP2 MSTORE PUSH1 0x20 ADD DUP8 PUSH1 0x20 ADD MLOAD PUSH1 0x1 PUSH1 0x1 PUSH1 0xA0 SHL SUB AND DUP2 MSTORE PUSH1 0x20 ADD DUP4 DUP2 MSTORE PUSH1 0x20 ADD DUP8 PUSH1 0x60 ADD MLOAD DUP2 MSTORE POP DUP9 PUSH1 0x20 ADD MLOAD DUP9 PUSH1 0x20 ADD MLOAD PUSH1 0x97 PUSH1 0x0 DUP11 PUSH1 0x0 ADD MLOAD PUSH1 0xFF AND PUSH1 0xFF AND DUP2 MSTORE PUSH1 0x20 ADD SWAP1 DUP2 MSTORE PUSH1 0x20 ADD PUSH1 0x0 KECCAK256 PUSH1 0x0 SWAP1 SLOAD SWAP1 PUSH2 0x100 EXP SWAP1 DIV PUSH1 0x1 PUSH1 0x1 PUSH1 0xA0 SHL SUB AND PUSH2 0x228C JUMP JUMPDEST PUSH1 0x40 DUP1 MLOAD PUSH1 0x80 DUP2 ADD DUP3 MSTORE DUP7 MLOAD PUSH1 0xFF SWAP1 DUP2 AND DUP3 MSTORE PUSH1 0x20 DUP1 DUP10 ADD MLOAD PUSH1 0x1 PUSH1 0x1 PUSH1 0xA0 SHL SUB SWAP1 DUP2 AND DUP3 DUP6 ADD MSTORE DUP4 DUP6 ADD DUP9 SWAP1 MSTORE PUSH1 0x60 DUP1 DUP12 ADD MLOAD SWAP1 DUP6 ADD MSTORE DUP12 DUP3 ADD MLOAD DUP11 MLOAD SWAP1 SWAP4 AND PUSH1 0x0 SWAP1 DUP2 MSTORE PUSH1 0x97 SWAP1 SWAP3 MSTORE SWAP4 SWAP1 KECCAK256 SLOAD PUSH2 0x1F37 SWAP4 ADDRESS SWAP2 AND PUSH2 0x228C JUMP JUMPDEST PUSH1 0x40 DUP1 MLOAD PUSH1 0x80 DUP2 ADD DUP3 MSTORE DUP7 MLOAD PUSH1 0xFF SWAP1 DUP2 AND DUP3 MSTORE PUSH1 0x20 DUP1 DUP10 ADD MLOAD PUSH1 0x1 PUSH1 0x1 PUSH1 0xA0 SHL SUB SWAP1 DUP2 AND DUP3 DUP6 ADD MSTORE DUP4 DUP6 ADD DUP8 SWAP1 MSTORE PUSH1 0x60 DUP1 DUP12 ADD MLOAD SWAP1 DUP6 ADD MSTORE DUP12 DUP3 ADD MLOAD PUSH2 0x120 DUP13 ADD MLOAD MLOAD DUP12 MLOAD SWAP1 SWAP5 AND PUSH1 0x0 SWAP1 DUP2 MSTORE PUSH1 0x97 SWAP1 SWAP4 MSTORE SWAP5 SWAP1 SWAP2 KECCAK256 SLOAD PUSH2 0x1F9A SWAP5 SWAP3 SWAP2 AND PUSH2 0x228C JUMP JUMPDEST POP POP POP POP POP POP POP JUMP JUMPDEST PUSH2 0x12F DUP1 SLOAD PUSH1 0x1 ADD SWAP1 DUP2 SWAP1 SSTORE PUSH1 0x40 MLOAD PUSH1 0x0 SWAP2 PUSH2 0x1FC5 SWAP2 TIMESTAMP SWAP2 CALLER SWAP2 PUSH1 0x20 ADD PUSH2 0x33C9 JUMP JUMPDEST PUSH1 0x40 MLOAD PUSH1 0x20 DUP2 DUP4 SUB SUB DUP2 MSTORE SWAP1 PUSH1 0x40 MSTORE DUP1 MLOAD SWAP1 PUSH1 0x20 ADD KECCAK256 PUSH1 0x0 SHR SWAP1 POP SWAP1 JUMP JUMPDEST PUSH1 0x0 DUP2 DUP2 JUMPDEST DUP5 MLOAD DUP2 LT ISZERO PUSH2 0x2018 JUMPI PUSH2 0x200E DUP3 DUP7 DUP4 DUP2 MLOAD DUP2 LT PUSH2 0x2001 JUMPI INVALID JUMPDEST PUSH1 0x20 MUL PUSH1 0x20 ADD ADD MLOAD PUSH2 0x25E9 JUMP JUMPDEST SWAP2 POP PUSH1 0x1 ADD PUSH2 0x1FE8 JUMP JUMPDEST POP SWAP1 POP JUMPDEST SWAP3 SWAP2 POP POP JUMP JUMPDEST PUSH1 0x0 DUP2 PUSH1 0x0 ADD MLOAD DUP3 PUSH1 0x40 ADD MLOAD PUSH1 0x40 MLOAD PUSH1 0x20 ADD PUSH2 0x151B SWAP3 SWAP2 SWAP1 PUSH2 0x3E28 JUMP JUMPDEST PUSH1 0x0 PUSH32 0x1132F06AB722F27908A7E495B5D507BAD407E55F68DCF746F8D69417E3F1928C DUP3 PUSH1 0x20 ADD MLOAD PUSH2 0x2074 DUP5 PUSH1 0x40 ADD MLOAD PUSH2 0x260B JUMP JUMPDEST DUP5 PUSH1 0x60 ADD MLOAD PUSH2 0x2086 DUP7 PUSH1 0x80 ADD MLOAD PUSH2 0x260B JUMP JUMPDEST DUP7 PUSH1 0xA0 ADD MLOAD DUP8 PUSH1 0xC0 ADD MLOAD DUP9 PUSH1 0xE0 ADD MLOAD DUP10 PUSH2 0x1A0 ADD MLOAD PUSH1 0x40 MLOAD PUSH1 0x20 ADD PUSH2 0x151B SWAP10 SWAP9 SWAP8 SWAP7 SWAP6 SWAP5 SWAP4 SWAP3 SWAP2 SWAP1 PUSH2 0x352F JUMP JUMPDEST PUSH1 0x0 PUSH32 0x1ED8993288C7297BA6796429DE1857DC650EFA21A30299103497824FA02BA343 DUP3 PUSH1 0x20 ADD MLOAD PUSH2 0x20E8 DUP5 PUSH1 0x40 ADD MLOAD PUSH2 0x260B JUMP JUMPDEST DUP5 PUSH1 0x60 ADD MLOAD PUSH2 0x2086 DUP7 PUSH1 0x80 ADD MLOAD PUSH2 0x2656 JUMP JUMPDEST PUSH1 0x0 PUSH32 0x15FED0D06DB788FB9C02B4F593BD4ADFF95588D2736481B94A54A44275FAE9FC DUP4 PUSH1 0x20 ADD MLOAD DUP4 DUP6 PUSH1 0xA0 ADD MLOAD PUSH1 0x40 MLOAD PUSH1 0x20 ADD PUSH2 0x213B SWAP5 SWAP4 SWAP3 SWAP2 SWAP1 PUSH2 0x3581 JUMP JUMPDEST PUSH1 0x40 MLOAD PUSH1 0x20 DUP2 DUP4 SUB SUB DUP2 MSTORE SWAP1 PUSH1 0x40 MSTORE DUP1 MLOAD SWAP1 PUSH1 0x20 ADD KECCAK256 SWAP1 POP SWAP3 SWAP2 POP POP JUMP JUMPDEST PUSH1 0x0 PUSH2 0x2163 PUSH2 0x269B JUMP JUMPDEST DUP3 PUSH1 0x40 MLOAD PUSH1 0x20 ADD PUSH2 0x151B SWAP3 SWAP2 SWAP1 PUSH2 0x33AB JUMP JUMPDEST PUSH1 0x0 DUP2 MLOAD PUSH1 0x41 EQ PUSH2 0x2198 JUMPI PUSH1 0x40 MLOAD PUSH3 0x461BCD PUSH1 0xE5 SHL DUP2 MSTORE PUSH1 0x4 ADD PUSH2 0x402 SWAP1 PUSH2 0x378E JUMP JUMPDEST PUSH1 0x20 DUP3 ADD MLOAD PUSH1 0x40 DUP4 ADD MLOAD PUSH1 0x60 DUP5 ADD MLOAD PUSH1 0x0 BYTE PUSH2 0x21B6 DUP7 DUP3 DUP6 DUP6 PUSH2 0x26DB JUMP JUMPDEST SWAP7 SWAP6 POP POP POP POP POP POP JUMP JUMPDEST PUSH2 0x21C8 PUSH2 0x2C19 JUMP JUMPDEST PUSH1 0x0 PUSH2 0x21D5 DUP6 DUP6 DUP6 PUSH2 0x286C JUMP JUMPDEST SWAP1 POP DUP1 PUSH1 0x0 ADD MLOAD PUSH1 0xFF AND PUSH1 0x1 EQ ISZERO PUSH2 0x21FA JUMPI PUSH2 0x21F2 DUP5 DUP7 DUP6 PUSH2 0x286C JUMP JUMPDEST SWAP2 POP POP PUSH2 0x1549 JUMP JUMPDEST SWAP1 POP PUSH2 0x1549 JUMP JUMPDEST DUP2 MLOAD PUSH1 0x40 DUP1 DUP3 ADD MLOAD DUP4 MLOAD SWAP1 SWAP2 ADD MLOAD SWAP2 MLOAD SWAP1 SWAP2 SWAP1 PUSH1 0xFF AND PUSH1 0x3 EQ DUP1 PUSH2 0x222A JUMPI POP DUP4 MLOAD MLOAD PUSH1 0xFF AND PUSH1 0x4 EQ JUMPDEST ISZERO PUSH2 0x224B JUMPI PUSH2 0x224B DUP5 PUSH1 0x0 ADD MLOAD DUP6 PUSH1 0x40 ADD MLOAD DUP7 PUSH1 0x60 ADD MLOAD DUP8 PUSH1 0x20 ADD MLOAD PUSH2 0x228C JUMP JUMPDEST DUP3 MLOAD MLOAD PUSH1 0xFF AND PUSH1 0x3 EQ DUP1 PUSH2 0x2264 JUMPI POP DUP3 MLOAD MLOAD PUSH1 0xFF AND PUSH1 0x4 EQ JUMPDEST ISZERO PUSH2 0x2285 JUMPI PUSH2 0x2285 DUP4 PUSH1 0x0 ADD MLOAD DUP5 PUSH1 0x40 ADD MLOAD DUP6 PUSH1 0x60 ADD MLOAD DUP7 PUSH1 0x20 ADD MLOAD PUSH2 0x228C JUMP JUMPDEST SWAP3 POP SWAP3 SWAP1 POP JUMP JUMPDEST DUP4 PUSH1 0x0 ADD MLOAD PUSH1 0xFF AND PUSH1 0x3 EQ ISZERO PUSH2 0x23B1 JUMPI DUP4 PUSH1 0x40 ADD MLOAD PUSH1 0x1 EQ PUSH2 0x22C0 JUMPI PUSH1 0x40 MLOAD PUSH3 0x461BCD PUSH1 0xE5 SHL DUP2 MSTORE PUSH1 0x4 ADD PUSH2 0x402 SWAP1 PUSH2 0x3A0A JUMP JUMPDEST PUSH1 0x1 PUSH1 0x1 PUSH1 0xA0 SHL SUB DUP4 AND ADDRESS EQ ISZERO PUSH2 0x2341 JUMPI PUSH1 0x20 DUP5 ADD MLOAD PUSH1 0x60 DUP6 ADD MLOAD PUSH1 0x40 MLOAD PUSH4 0x21421707 PUSH1 0xE1 SHL DUP2 MSTORE PUSH1 0x1 PUSH1 0x1 PUSH1 0xA0 SHL SUB SWAP1 SWAP3 AND SWAP2 PUSH4 0x42842E0E SWAP2 PUSH2 0x230A SWAP2 ADDRESS SWAP2 DUP8 SWAP2 PUSH1 0x4 ADD PUSH2 0x3457 JUMP JUMPDEST PUSH1 0x0 PUSH1 0x40 MLOAD DUP1 DUP4 SUB DUP2 PUSH1 0x0 DUP8 DUP1 EXTCODESIZE ISZERO DUP1 ISZERO PUSH2 0x2324 JUMPI PUSH1 0x0 DUP1 REVERT JUMPDEST POP GAS CALL ISZERO DUP1 ISZERO PUSH2 0x2338 JUMPI RETURNDATASIZE PUSH1 0x0 DUP1 RETURNDATACOPY RETURNDATASIZE PUSH1 0x0 REVERT JUMPDEST POP POP POP POP PUSH2 0x23AC JUMP JUMPDEST PUSH1 0x20 DUP5 ADD MLOAD PUSH1 0x60 DUP6 ADD MLOAD PUSH1 0x40 MLOAD PUSH4 0x7B84DC83 PUSH1 0xE1 SHL DUP2 MSTORE PUSH1 0x1 PUSH1 0x1 PUSH1 0xA0 SHL SUB DUP5 AND SWAP3 PUSH4 0xF709B906 SWAP3 PUSH2 0x2379 SWAP3 DUP9 SWAP2 DUP9 SWAP2 PUSH1 0x4 ADD PUSH2 0x3688 JUMP JUMPDEST PUSH1 0x0 PUSH1 0x40 MLOAD DUP1 DUP4 SUB DUP2 PUSH1 0x0 DUP8 DUP1 EXTCODESIZE ISZERO DUP1 ISZERO PUSH2 0x2393 JUMPI PUSH1 0x0 DUP1 REVERT JUMPDEST POP GAS CALL ISZERO DUP1 ISZERO PUSH2 0x23A7 JUMPI RETURNDATASIZE PUSH1 0x0 DUP1 RETURNDATACOPY RETURNDATASIZE PUSH1 0x0 REVERT JUMPDEST POP POP POP POP JUMPDEST PUSH2 0x11DC JUMP JUMPDEST DUP4 PUSH1 0x0 ADD MLOAD PUSH1 0xFF AND PUSH1 0x2 EQ ISZERO PUSH2 0x24B3 JUMPI PUSH1 0x1 PUSH1 0x1 PUSH1 0xA0 SHL SUB DUP4 AND ADDRESS EQ ISZERO PUSH2 0x247B JUMPI DUP4 PUSH1 0x20 ADD MLOAD PUSH1 0x1 PUSH1 0x1 PUSH1 0xA0 SHL SUB AND PUSH4 0xA9059CBB DUP4 DUP7 PUSH1 0x40 ADD MLOAD PUSH1 0x40 MLOAD DUP4 PUSH4 0xFFFFFFFF AND PUSH1 0xE0 SHL DUP2 MSTORE PUSH1 0x4 ADD PUSH2 0x2408 SWAP3 SWAP2 SWAP1 PUSH2 0x34D9 JUMP JUMPDEST PUSH1 0x20 PUSH1 0x40 MLOAD DUP1 DUP4 SUB DUP2 PUSH1 0x0 DUP8 DUP1 EXTCODESIZE ISZERO DUP1 ISZERO PUSH2 0x2422 JUMPI PUSH1 0x0 DUP1 REVERT JUMPDEST POP GAS CALL ISZERO DUP1 ISZERO PUSH2 0x2436 JUMPI RETURNDATASIZE PUSH1 0x0 DUP1 RETURNDATACOPY RETURNDATASIZE PUSH1 0x0 REVERT JUMPDEST POP POP POP POP PUSH1 0x40 MLOAD RETURNDATASIZE PUSH1 0x1F NOT PUSH1 0x1F DUP3 ADD AND DUP3 ADD DUP1 PUSH1 0x40 MSTORE POP DUP2 ADD SWAP1 PUSH2 0x245A SWAP2 SWAP1 PUSH2 0x30D6 JUMP JUMPDEST PUSH2 0x2476 JUMPI PUSH1 0x40 MLOAD PUSH3 0x461BCD PUSH1 0xE5 SHL DUP2 MSTORE PUSH1 0x4 ADD PUSH2 0x402 SWAP1 PUSH2 0x3B62 JUMP JUMPDEST PUSH2 0x23AC JUMP JUMPDEST PUSH1 0x20 DUP5 ADD MLOAD PUSH1 0x40 DUP1 DUP7 ADD MLOAD SWAP1 MLOAD PUSH4 0x776062C3 PUSH1 0xE0 SHL DUP2 MSTORE PUSH1 0x1 PUSH1 0x1 PUSH1 0xA0 SHL SUB DUP5 AND SWAP3 PUSH4 0x776062C3 SWAP3 PUSH2 0x2379 SWAP3 DUP9 SWAP2 DUP9 SWAP2 PUSH1 0x4 ADD PUSH2 0x3688 JUMP JUMPDEST DUP4 PUSH1 0x0 ADD MLOAD PUSH1 0xFF AND PUSH1 0x4 EQ ISZERO PUSH2 0x2552 JUMPI PUSH1 0x1 PUSH1 0x1 PUSH1 0xA0 SHL SUB DUP4 AND ADDRESS EQ ISZERO PUSH2 0x2512 JUMPI DUP4 PUSH1 0x20 ADD MLOAD PUSH1 0x1 PUSH1 0x1 PUSH1 0xA0 SHL SUB AND PUSH4 0xF242432A ADDRESS DUP5 DUP8 PUSH1 0x60 ADD MLOAD DUP9 PUSH1 0x40 ADD MLOAD PUSH1 0x40 MLOAD DUP6 PUSH4 0xFFFFFFFF AND PUSH1 0xE0 SHL DUP2 MSTORE PUSH1 0x4 ADD PUSH2 0x230A SWAP5 SWAP4 SWAP3 SWAP2 SWAP1 PUSH2 0x347B JUMP JUMPDEST PUSH1 0x20 DUP5 ADD MLOAD PUSH1 0x60 DUP6 ADD MLOAD PUSH1 0x40 DUP1 DUP8 ADD MLOAD SWAP1 MLOAD PUSH4 0x9C1C2EE9 PUSH1 0xE0 SHL DUP2 MSTORE PUSH1 0x1 PUSH1 0x1 PUSH1 0xA0 SHL SUB DUP6 AND SWAP4 PUSH4 0x9C1C2EE9 SWAP4 PUSH2 0x2379 SWAP4 SWAP2 SWAP3 DUP10 SWAP3 DUP10 SWAP3 SWAP2 PUSH1 0x4 ADD PUSH2 0x3645 JUMP JUMPDEST DUP4 PUSH1 0x0 ADD MLOAD PUSH1 0xFF AND PUSH1 0x1 EQ ISZERO PUSH2 0x258B JUMPI PUSH1 0x1 PUSH1 0x1 PUSH1 0xA0 SHL SUB DUP3 AND ADDRESS EQ PUSH2 0x23AC JUMPI PUSH1 0x40 DUP5 ADD MLOAD PUSH2 0x23AC SWAP1 PUSH1 0x1 PUSH1 0x1 PUSH1 0xA0 SHL SUB DUP5 AND SWAP1 PUSH2 0x2A39 JUMP JUMPDEST PUSH1 0x40 MLOAD PUSH4 0x25712823 PUSH1 0xE2 SHL DUP2 MSTORE PUSH1 0x1 PUSH1 0x1 PUSH1 0xA0 SHL SUB DUP3 AND SWAP1 PUSH4 0x95C4A08C SWAP1 PUSH2 0x25BB SWAP1 DUP8 SWAP1 DUP8 SWAP1 DUP8 SWAP1 PUSH1 0x4 ADD PUSH2 0x3D5E JUMP JUMPDEST PUSH1 0x0 PUSH1 0x40 MLOAD DUP1 DUP4 SUB DUP2 PUSH1 0x0 DUP8 DUP1 EXTCODESIZE ISZERO DUP1 ISZERO PUSH2 0x25D5 JUMPI PUSH1 0x0 DUP1 REVERT JUMPDEST POP GAS CALL ISZERO DUP1 ISZERO PUSH2 0x5F6 JUMPI RETURNDATASIZE PUSH1 0x0 DUP1 RETURNDATACOPY RETURNDATASIZE PUSH1 0x0 REVERT JUMPDEST PUSH1 0x0 DUP2 DUP4 LT PUSH2 0x2601 JUMPI PUSH2 0x25FC DUP3 DUP5 PUSH2 0x2AB5 JUMP JUMPDEST PUSH2 0x1549 JUMP JUMPDEST PUSH2 0x1549 DUP4 DUP4 PUSH2 0x2AB5 JUMP JUMPDEST PUSH1 0x0 PUSH32 0x3EB30932C8579E044A08D6C2DB9CFBBE826C3C715D5F913A07FDB3B62620FC2C DUP3 PUSH1 0x0 ADD MLOAD DUP4 PUSH1 0x20 ADD MLOAD DUP5 PUSH1 0x40 ADD MLOAD DUP6 PUSH1 0x60 ADD MLOAD PUSH1 0x40 MLOAD PUSH1 0x20 ADD PUSH2 0x151B SWAP6 SWAP5 SWAP4 SWAP3 SWAP2 SWAP1 PUSH2 0x35F8 JUMP JUMPDEST PUSH1 0x0 PUSH32 0x41DE7D6F279B5BDC25BB5BD3CCB732106044C7BE8050D6927DA35E2210C6000B DUP3 PUSH1 0x0 ADD MLOAD DUP4 PUSH1 0x20 ADD MLOAD DUP5 PUSH1 0x40 ADD MLOAD PUSH1 0x40 MLOAD PUSH1 0x20 ADD PUSH2 0x151B SWAP5 SWAP4 SWAP3 SWAP2 SWAP1 PUSH2 0x35D1 JUMP JUMPDEST PUSH1 0x0 PUSH2 0x26D6 PUSH32 0x8B73C3C69BB8FE3D512ECC4CF759CC79239F7B179B0FFACAA9A75D522B39400F PUSH2 0x26C9 PUSH2 0x2AC4 JUMP JUMPDEST PUSH2 0x26D1 PUSH2 0x2ACA JUMP JUMPDEST PUSH2 0x2AD0 JUMP JUMPDEST SWAP1 POP SWAP1 JUMP JUMPDEST PUSH1 0x0 PUSH32 0x7FFFFFFFFFFFFFFFFFFFFFFFFFFFFFFF5D576E7357A4501DDFE92F46681B20A0 DUP3 GT ISZERO PUSH2 0x271D JUMPI PUSH1 0x40 MLOAD PUSH3 0x461BCD PUSH1 0xE5 SHL DUP2 MSTORE PUSH1 0x4 ADD PUSH2 0x402 SWAP1 PUSH2 0x3942 JUMP JUMPDEST PUSH1 0x0 PUSH1 0x1E DUP6 PUSH1 0xFF AND GT ISZERO PUSH2 0x27C3 JUMPI PUSH1 0x4 DUP6 SUB PUSH1 0xFF AND PUSH1 0x1B EQ DUP1 PUSH2 0x2746 JUMPI POP PUSH1 0x4 DUP6 SUB PUSH1 0xFF AND PUSH1 0x1C EQ JUMPDEST PUSH2 0x2762 JUMPI PUSH1 0x40 MLOAD PUSH3 0x461BCD PUSH1 0xE5 SHL DUP2 MSTORE PUSH1 0x4 ADD PUSH2 0x402 SWAP1 PUSH2 0x3AEB JUMP JUMPDEST PUSH1 0x1 PUSH2 0x276D DUP8 PUSH2 0x2B11 JUMP JUMPDEST PUSH1 0x4 DUP8 SUB DUP7 DUP7 PUSH1 0x40 MLOAD PUSH1 0x0 DUP2 MSTORE PUSH1 0x20 ADD PUSH1 0x40 MSTORE PUSH1 0x40 MLOAD PUSH2 0x2790 SWAP5 SWAP4 SWAP3 SWAP2 SWAP1 PUSH2 0x3627 JUMP JUMPDEST PUSH1 0x20 PUSH1 0x40 MLOAD PUSH1 0x20 DUP2 SUB SWAP1 DUP1 DUP5 SUB SWAP1 DUP6 GAS STATICCALL ISZERO DUP1 ISZERO PUSH2 0x27B2 JUMPI RETURNDATASIZE PUSH1 0x0 DUP1 RETURNDATACOPY RETURNDATASIZE PUSH1 0x0 REVERT JUMPDEST POP POP POP PUSH1 0x20 PUSH1 0x40 MLOAD SUB MLOAD SWAP1 POP PUSH2 0x2846 JUMP JUMPDEST DUP5 PUSH1 0xFF AND PUSH1 0x1B EQ DUP1 PUSH2 0x27D8 JUMPI POP DUP5 PUSH1 0xFF AND PUSH1 0x1C EQ JUMPDEST PUSH2 0x27F4 JUMPI PUSH1 0x40 MLOAD PUSH3 0x461BCD PUSH1 0xE5 SHL DUP2 MSTORE PUSH1 0x4 ADD PUSH2 0x402 SWAP1 PUSH2 0x3AEB JUMP JUMPDEST PUSH1 0x1 DUP7 DUP7 DUP7 DUP7 PUSH1 0x40 MLOAD PUSH1 0x0 DUP2 MSTORE PUSH1 0x20 ADD PUSH1 0x40 MSTORE PUSH1 0x40 MLOAD PUSH2 0x2817 SWAP5 SWAP4 SWAP3 SWAP2 SWAP1 PUSH2 0x3627 JUMP JUMPDEST PUSH1 0x20 PUSH1 0x40 MLOAD PUSH1 0x20 DUP2 SUB SWAP1 DUP1 DUP5 SUB SWAP1 DUP6 GAS STATICCALL ISZERO DUP1 ISZERO PUSH2 0x2839 JUMPI RETURNDATASIZE PUSH1 0x0 DUP1 RETURNDATACOPY RETURNDATASIZE PUSH1 0x0 REVERT JUMPDEST POP POP POP PUSH1 0x20 PUSH1 0x40 MLOAD SUB MLOAD SWAP1 POP JUMPDEST PUSH1 0x1 PUSH1 0x1 PUSH1 0xA0 SHL SUB DUP2 AND PUSH2 0x67B JUMPI PUSH1 0x40 MLOAD PUSH3 0x461BCD PUSH1 0xE5 SHL DUP2 MSTORE PUSH1 0x4 ADD PUSH2 0x402 SWAP1 PUSH2 0x3720 JUMP JUMPDEST PUSH2 0x2874 PUSH2 0x2C19 JUMP JUMPDEST PUSH1 0x0 DUP1 DUP6 PUSH1 0x0 ADD MLOAD PUSH1 0xFF AND PUSH1 0x1 EQ ISZERO PUSH2 0x28D3 JUMPI DUP5 PUSH1 0x0 ADD MLOAD PUSH1 0xFF AND PUSH1 0x1 EQ ISZERO PUSH2 0x28A1 JUMPI DUP6 SWAP3 POP POP POP PUSH2 0x1549 JUMP JUMPDEST PUSH1 0x40 DUP1 MLOAD PUSH1 0x80 DUP2 ADD DUP3 MSTORE PUSH1 0x0 DUP2 MSTORE PUSH1 0x1 PUSH1 0x1 PUSH1 0xA0 SHL SUB SWAP1 SWAP3 AND PUSH1 0x20 DUP4 ADD MSTORE DUP2 ADD DUP3 SWAP1 MSTORE PUSH1 0x60 DUP2 ADD SWAP2 SWAP1 SWAP2 MSTORE SWAP1 POP PUSH2 0x1549 JUMP JUMPDEST DUP6 PUSH1 0x0 ADD MLOAD PUSH1 0xFF AND PUSH1 0x2 EQ ISZERO PUSH2 0x2906 JUMPI DUP5 PUSH1 0x0 ADD MLOAD PUSH1 0xFF AND PUSH1 0x2 EQ ISZERO PUSH2 0x28A1 JUMPI PUSH2 0x28FD DUP7 DUP7 PUSH2 0x2B24 JUMP JUMPDEST SWAP3 POP POP POP PUSH2 0x1549 JUMP JUMPDEST DUP6 PUSH1 0x0 ADD MLOAD PUSH1 0xFF AND PUSH1 0x3 EQ ISZERO PUSH2 0x2930 JUMPI DUP5 PUSH1 0x0 ADD MLOAD PUSH1 0xFF AND PUSH1 0x3 EQ ISZERO PUSH2 0x28A1 JUMPI PUSH2 0x28FD DUP7 DUP7 PUSH2 0x2B24 JUMP JUMPDEST DUP6 PUSH1 0x0 ADD MLOAD PUSH1 0xFF AND PUSH1 0x4 EQ ISZERO PUSH2 0x295B JUMPI DUP5 PUSH1 0x0 ADD MLOAD PUSH1 0xFF AND PUSH1 0x4 EQ ISZERO PUSH2 0x28A1 JUMPI PUSH2 0x28FD DUP7 DUP7 DUP7 PUSH2 0x2B95 JUMP JUMPDEST DUP6 MLOAD PUSH1 0xFF AND PUSH1 0x0 SWAP1 DUP2 MSTORE PUSH1 0x65 PUSH1 0x20 MSTORE PUSH1 0x40 SWAP1 KECCAK256 SLOAD PUSH1 0x1 PUSH1 0x1 PUSH1 0xA0 SHL SUB AND DUP1 ISZERO PUSH2 0x2A06 JUMPI PUSH1 0x40 MLOAD PUSH4 0x8DC614FF PUSH1 0xE0 SHL DUP2 MSTORE PUSH1 0x1 PUSH1 0x1 PUSH1 0xA0 SHL SUB DUP3 AND SWAP1 PUSH4 0x8DC614FF SWAP1 PUSH2 0x29AC SWAP1 DUP11 SWAP1 DUP11 SWAP1 PUSH1 0x4 ADD PUSH2 0x3D8E JUMP JUMPDEST PUSH1 0x80 PUSH1 0x40 MLOAD DUP1 DUP4 SUB DUP2 DUP7 DUP1 EXTCODESIZE ISZERO DUP1 ISZERO PUSH2 0x29C4 JUMPI PUSH1 0x0 DUP1 REVERT JUMPDEST POP GAS STATICCALL ISZERO DUP1 ISZERO PUSH2 0x29D8 JUMPI RETURNDATASIZE PUSH1 0x0 DUP1 RETURNDATACOPY RETURNDATASIZE PUSH1 0x0 REVERT JUMPDEST POP POP POP POP PUSH1 0x40 MLOAD RETURNDATASIZE PUSH1 0x1F NOT PUSH1 0x1F DUP3 ADD AND DUP3 ADD DUP1 PUSH1 0x40 MSTORE POP DUP2 ADD SWAP1 PUSH2 0x29FC SWAP2 SWAP1 PUSH2 0x31B0 JUMP JUMPDEST SWAP4 POP POP POP POP PUSH2 0x1549 JUMP JUMPDEST DUP6 MLOAD DUP8 MLOAD PUSH1 0xFF SWAP1 DUP2 AND SWAP2 AND EQ ISZERO PUSH2 0x2A21 JUMPI PUSH2 0x29FC DUP8 DUP8 PUSH2 0x2B24 JUMP JUMPDEST PUSH1 0x40 MLOAD PUSH3 0x461BCD PUSH1 0xE5 SHL DUP2 MSTORE PUSH1 0x4 ADD PUSH2 0x402 SWAP1 PUSH2 0x3757 JUMP JUMPDEST PUSH1 0x0 DUP3 PUSH1 0x1 PUSH1 0x1 PUSH1 0xA0 SHL SUB AND DUP3 PUSH1 0x40 MLOAD PUSH2 0x2A52 SWAP1 PUSH2 0x33C6 JUMP JUMPDEST PUSH1 0x0 PUSH1 0x40 MLOAD DUP1 DUP4 SUB DUP2 DUP6 DUP8 GAS CALL SWAP3 POP POP POP RETURNDATASIZE DUP1 PUSH1 0x0 DUP2 EQ PUSH2 0x2A8F JUMPI PUSH1 0x40 MLOAD SWAP2 POP PUSH1 0x1F NOT PUSH1 0x3F RETURNDATASIZE ADD AND DUP3 ADD PUSH1 0x40 MSTORE RETURNDATASIZE DUP3 MSTORE RETURNDATASIZE PUSH1 0x0 PUSH1 0x20 DUP5 ADD RETURNDATACOPY PUSH2 0x2A94 JUMP JUMPDEST PUSH1 0x60 SWAP2 POP JUMPDEST POP POP SWAP1 POP DUP1 PUSH2 0x981 JUMPI PUSH1 0x40 MLOAD PUSH3 0x461BCD PUSH1 0xE5 SHL DUP2 MSTORE PUSH1 0x4 ADD PUSH2 0x402 SWAP1 PUSH2 0x3C62 JUMP JUMPDEST PUSH1 0x0 SWAP2 DUP3 MSTORE PUSH1 0x20 MSTORE PUSH1 0x40 SWAP1 KECCAK256 SWAP1 JUMP JUMPDEST PUSH1 0xC9 SLOAD SWAP1 JUMP JUMPDEST PUSH1 0xCA SLOAD SWAP1 JUMP JUMPDEST PUSH1 0x0 DUP4 DUP4 DUP4 PUSH2 0x2ADD PUSH2 0x2C15 JUMP JUMPDEST ADDRESS PUSH1 0x40 MLOAD PUSH1 0x20 ADD PUSH2 0x2AF2 SWAP6 SWAP5 SWAP4 SWAP3 SWAP2 SWAP1 PUSH2 0x35A5 JUMP JUMPDEST PUSH1 0x40 MLOAD PUSH1 0x20 DUP2 DUP4 SUB SUB DUP2 MSTORE SWAP1 PUSH1 0x40 MSTORE DUP1 MLOAD SWAP1 PUSH1 0x20 ADD KECCAK256 SWAP1 POP SWAP4 SWAP3 POP POP POP JUMP JUMPDEST PUSH1 0x0 DUP2 PUSH1 0x40 MLOAD PUSH1 0x20 ADD PUSH2 0x151B SWAP2 SWAP1 PUSH2 0x337A JUMP JUMPDEST PUSH2 0x2B2C PUSH2 0x2C19 JUMP JUMPDEST PUSH1 0x0 DUP1 DUP4 PUSH1 0x0 ADD MLOAD PUSH1 0xFF AND DUP6 PUSH1 0x0 ADD MLOAD PUSH1 0xFF AND EQ DUP1 ISZERO PUSH2 0x2B53 JUMPI POP DUP4 PUSH1 0x40 ADD MLOAD DUP6 PUSH1 0x40 ADD MLOAD EQ JUMPDEST ISZERO PUSH2 0x2B62 JUMPI DUP5 SWAP3 POP POP POP PUSH2 0x201C JUMP JUMPDEST PUSH1 0x40 DUP1 MLOAD PUSH1 0x80 DUP2 ADD DUP3 MSTORE PUSH1 0x1 DUP2 MSTORE PUSH1 0x1 PUSH1 0x1 PUSH1 0xA0 SHL SUB SWAP1 SWAP3 AND PUSH1 0x20 DUP4 ADD MSTORE DUP2 ADD DUP3 SWAP1 MSTORE PUSH1 0x60 DUP2 ADD SWAP2 SWAP1 SWAP2 MSTORE SWAP1 POP SWAP3 SWAP2 POP POP JUMP JUMPDEST PUSH2 0x2B9D PUSH2 0x2C19 JUMP JUMPDEST PUSH1 0x0 DUP1 DUP6 PUSH1 0x0 ADD MLOAD PUSH1 0xFF AND PUSH1 0x4 EQ ISZERO PUSH2 0x2BE1 JUMPI DUP5 MLOAD DUP7 MLOAD PUSH1 0xFF SWAP1 DUP2 AND SWAP2 AND EQ DUP1 ISZERO PUSH2 0x2BD2 JUMPI POP DUP5 PUSH1 0x40 ADD MLOAD DUP5 ADD DUP7 PUSH1 0x40 ADD MLOAD LT ISZERO JUMPDEST ISZERO PUSH2 0x2BE1 JUMPI DUP5 SWAP3 POP POP POP PUSH2 0x1549 JUMP JUMPDEST PUSH1 0x40 DUP1 MLOAD PUSH1 0x80 DUP2 ADD DUP3 MSTORE PUSH1 0x0 DUP2 MSTORE PUSH1 0x1 PUSH1 0x1 PUSH1 0xA0 SHL SUB SWAP1 SWAP3 AND PUSH1 0x20 DUP4 ADD MSTORE DUP2 ADD DUP3 SWAP1 MSTORE PUSH1 0x60 DUP2 ADD SWAP2 SWAP1 SWAP2 MSTORE SWAP1 POP SWAP4 SWAP3 POP POP POP JUMP JUMPDEST CHAINID SWAP1 JUMP JUMPDEST PUSH1 0x40 MLOAD DUP1 PUSH1 0x80 ADD PUSH1 0x40 MSTORE DUP1 PUSH1 0x0 PUSH1 0xFF AND DUP2 MSTORE PUSH1 0x20 ADD PUSH1 0x0 PUSH1 0x1 PUSH1 0x1 PUSH1 0xA0 SHL SUB AND DUP2 MSTORE PUSH1 0x20 ADD PUSH1 0x0 DUP2 MSTORE PUSH1 0x20 ADD PUSH1 0x0 DUP2 MSTORE POP SWAP1 JUMP JUMPDEST DUP1 CALLDATALOAD PUSH2 0x922 DUP2 PUSH2 0x3ECB JUMP JUMPDEST PUSH1 0x0 DUP3 PUSH1 0x1F DUP4 ADD SLT PUSH2 0x2C68 JUMPI DUP1 DUP2 REVERT JUMPDEST DUP2 CALLDATALOAD PUSH1 0x20 PUSH2 0x2C7D PUSH2 0x2C78 DUP4 PUSH2 0x3E75 JUMP JUMPDEST PUSH2 0x3E51 JUMP JUMPDEST DUP3 DUP2 MSTORE DUP2 DUP2 ADD SWAP1 DUP6 DUP4 ADD DUP4 DUP6 MUL DUP8 ADD DUP5 ADD DUP9 LT ISZERO PUSH2 0x2C99 JUMPI DUP6 DUP7 REVERT JUMPDEST DUP6 JUMPDEST DUP6 DUP2 LT ISZERO PUSH2 0x2CB7 JUMPI DUP2 CALLDATALOAD DUP5 MSTORE SWAP3 DUP5 ADD SWAP3 SWAP1 DUP5 ADD SWAP1 PUSH1 0x1 ADD PUSH2 0x2C9B JUMP JUMPDEST POP SWAP1 SWAP8 SWAP7 POP POP POP POP POP POP POP JUMP JUMPDEST PUSH1 0x0 DUP3 PUSH1 0x1F DUP4 ADD SLT PUSH2 0x2CD4 JUMPI DUP1 DUP2 REVERT JUMPDEST DUP2 CALLDATALOAD PUSH1 0x20 PUSH2 0x2CE4 PUSH2 0x2C78 DUP4 PUSH2 0x3E75 JUMP JUMPDEST DUP3 DUP2 MSTORE DUP2 DUP2 ADD SWAP1 DUP6 DUP4 ADD DUP6 JUMPDEST DUP6 DUP2 LT ISZERO PUSH2 0x2CB7 JUMPI PUSH2 0x2D07 DUP10 DUP7 DUP5 CALLDATALOAD DUP12 ADD ADD PUSH2 0x2E50 JUMP JUMPDEST DUP5 MSTORE SWAP3 DUP5 ADD SWAP3 SWAP1 DUP5 ADD SWAP1 PUSH1 0x1 ADD PUSH2 0x2CF0 JUMP JUMPDEST PUSH1 0x0 DUP3 PUSH1 0x1F DUP4 ADD SLT PUSH2 0x2D29 JUMPI DUP1 DUP2 REVERT JUMPDEST DUP2 CALLDATALOAD PUSH8 0xFFFFFFFFFFFFFFFF DUP2 GT ISZERO PUSH2 0x2D3D JUMPI INVALID JUMPDEST PUSH2 0x2D50 PUSH1 0x1F DUP3 ADD PUSH1 0x1F NOT AND PUSH1 0x20 ADD PUSH2 0x3E51 JUMP JUMPDEST DUP2 DUP2 MSTORE DUP5 PUSH1 0x20 DUP4 DUP7 ADD ADD GT ISZERO PUSH2 0x2D64 JUMPI DUP3 DUP4 REVERT JUMPDEST DUP2 PUSH1 0x20 DUP6 ADD PUSH1 0x20 DUP4 ADD CALLDATACOPY SWAP1 DUP2 ADD PUSH1 0x20 ADD SWAP2 SWAP1 SWAP2 MSTORE SWAP3 SWAP2 POP POP JUMP JUMPDEST DUP1 CALLDATALOAD PUSH1 0x4 DUP2 LT PUSH2 0x922 JUMPI PUSH1 0x0 DUP1 REVERT JUMPDEST PUSH1 0x0 PUSH1 0x80 DUP3 DUP5 SUB SLT ISZERO PUSH2 0x2D9E JUMPI DUP1 DUP2 REVERT JUMPDEST PUSH1 0x40 MLOAD PUSH1 0x80 DUP2 ADD DUP2 DUP2 LT PUSH8 0xFFFFFFFFFFFFFFFF DUP3 GT OR ISZERO PUSH2 0x2DBB JUMPI INVALID JUMPDEST PUSH1 0x40 MSTORE SWAP1 POP DUP1 DUP3 CALLDATALOAD PUSH2 0x2DCC DUP2 PUSH2 0x3EE0 JUMP JUMPDEST DUP2 MSTORE PUSH1 0x20 DUP4 ADD CALLDATALOAD PUSH2 0x2DDC DUP2 PUSH2 0x3ECB JUMP JUMPDEST DUP1 PUSH1 0x20 DUP4 ADD MSTORE POP PUSH1 0x40 DUP4 ADD CALLDATALOAD PUSH1 0x40 DUP3 ADD MSTORE PUSH1 0x60 DUP4 ADD CALLDATALOAD PUSH1 0x60 DUP3 ADD MSTORE POP SWAP3 SWAP2 POP POP JUMP JUMPDEST PUSH1 0x0 PUSH1 0x40 DUP3 DUP5 SUB SLT ISZERO PUSH2 0x2E0F JUMPI DUP1 DUP2 REVERT JUMPDEST PUSH1 0x40 MLOAD PUSH1 0x40 DUP2 ADD DUP2 DUP2 LT PUSH8 0xFFFFFFFFFFFFFFFF DUP3 GT OR ISZERO PUSH2 0x2E2C JUMPI INVALID JUMPDEST PUSH1 0x40 MSTORE SWAP1 POP DUP1 DUP3 CALLDATALOAD PUSH2 0x2E3D DUP2 PUSH2 0x3ECB JUMP JUMPDEST DUP2 MSTORE PUSH1 0x20 SWAP3 DUP4 ADD CALLDATALOAD SWAP3 ADD SWAP2 SWAP1 SWAP2 MSTORE SWAP2 SWAP1 POP JUMP JUMPDEST PUSH1 0x0 PUSH2 0x2C0 DUP3 DUP5 SUB SLT ISZERO PUSH2 0x2E62 JUMPI DUP1 DUP2 REVERT JUMPDEST PUSH2 0x1C0 PUSH2 0x2E6E DUP2 PUSH2 0x3E51 JUMP JUMPDEST SWAP2 POP PUSH2 0x2E79 DUP4 PUSH2 0x2D7E JUMP JUMPDEST DUP3 MSTORE PUSH2 0x2E87 PUSH1 0x20 DUP5 ADD PUSH2 0x2C4D JUMP JUMPDEST PUSH1 0x20 DUP4 ADD MSTORE PUSH2 0x2E99 DUP5 PUSH1 0x40 DUP6 ADD PUSH2 0x2D8D JUMP JUMPDEST PUSH1 0x40 DUP4 ADD MSTORE PUSH2 0x2EAA PUSH1 0xC0 DUP5 ADD PUSH2 0x2C4D JUMP JUMPDEST PUSH1 0x60 DUP4 ADD MSTORE PUSH2 0x2EBC DUP5 PUSH1 0xE0 DUP6 ADD PUSH2 0x2D8D JUMP JUMPDEST PUSH1 0x80 DUP4 ADD MSTORE PUSH2 0x160 DUP1 DUP5 ADD CALLDATALOAD PUSH1 0xA0 DUP5 ADD MSTORE PUSH2 0x180 DUP1 DUP6 ADD CALLDATALOAD PUSH1 0xC0 DUP6 ADD MSTORE PUSH2 0x1A0 DUP1 DUP7 ADD CALLDATALOAD PUSH1 0xE0 DUP7 ADD MSTORE PUSH2 0x2EF1 DUP8 DUP6 DUP9 ADD PUSH2 0x2DFE JUMP JUMPDEST PUSH2 0x100 DUP7 ADD MSTORE PUSH2 0x2F05 DUP8 PUSH2 0x200 DUP9 ADD PUSH2 0x2DFE JUMP JUMPDEST PUSH2 0x120 DUP7 ADD MSTORE PUSH2 0x240 DUP7 ADD CALLDATALOAD SWAP4 POP PUSH8 0xFFFFFFFFFFFFFFFF DUP1 DUP6 GT ISZERO PUSH2 0x2F29 JUMPI PUSH1 0x0 DUP1 REVERT JUMPDEST PUSH2 0x2F35 DUP9 DUP7 DUP10 ADD PUSH2 0x2D19 JUMP JUMPDEST PUSH2 0x140 DUP8 ADD MSTORE PUSH2 0x260 DUP8 ADD CALLDATALOAD DUP5 DUP8 ADD MSTORE PUSH2 0x280 DUP8 ADD CALLDATALOAD SWAP5 POP DUP1 DUP6 GT ISZERO PUSH2 0x2F5A JUMPI PUSH1 0x0 DUP1 REVERT JUMPDEST POP PUSH2 0x2F67 DUP8 DUP6 DUP9 ADD PUSH2 0x2C58 JUMP JUMPDEST DUP3 DUP7 ADD MSTORE PUSH2 0x2F78 PUSH2 0x2A0 DUP8 ADD PUSH2 0x2F86 JUMP JUMPDEST DUP2 DUP7 ADD MSTORE POP POP POP POP SWAP3 SWAP2 POP POP JUMP JUMPDEST DUP1 CALLDATALOAD PUSH2 0xFFFF DUP2 AND DUP2 EQ PUSH2 0x922 JUMPI PUSH1 0x0 DUP1 REVERT JUMPDEST DUP1 CALLDATALOAD PUSH6 0xFFFFFFFFFFFF DUP2 AND DUP2 EQ PUSH2 0x922 JUMPI PUSH1 0x0 DUP1 REVERT JUMPDEST PUSH1 0x0 PUSH1 0x20 DUP3 DUP5 SUB SLT ISZERO PUSH2 0x2FBF JUMPI DUP1 DUP2 REVERT JUMPDEST DUP2 CALLDATALOAD PUSH2 0x1549 DUP2 PUSH2 0x3ECB JUMP JUMPDEST PUSH1 0x0 DUP1 PUSH1 0x0 DUP1 PUSH1 0x0 PUSH1 0xA0 DUP7 DUP9 SUB SLT ISZERO PUSH2 0x2FE1 JUMPI DUP1 DUP2 REVERT JUMPDEST DUP6 CALLDATALOAD PUSH2 0x2FEC DUP2 PUSH2 0x3ECB JUMP JUMPDEST SWAP5 POP PUSH1 0x20 DUP7 ADD CALLDATALOAD PUSH2 0x2FFC DUP2 PUSH2 0x3ECB JUMP JUMPDEST SWAP4 POP PUSH1 0x40 DUP7 ADD CALLDATALOAD SWAP3 POP PUSH1 0x60 DUP7 ADD CALLDATALOAD PUSH2 0x3013 DUP2 PUSH2 0x3ECB JUMP JUMPDEST SWAP2 POP PUSH1 0x80 DUP7 ADD CALLDATALOAD PUSH2 0x3023 DUP2 PUSH2 0x3ECB JUMP JUMPDEST DUP1 SWAP2 POP POP SWAP3 SWAP6 POP SWAP3 SWAP6 SWAP1 SWAP4 POP JUMP JUMPDEST PUSH1 0x0 DUP1 PUSH1 0x0 PUSH1 0x60 DUP5 DUP7 SUB SLT ISZERO PUSH2 0x3045 JUMPI DUP1 DUP2 REVERT JUMPDEST DUP4 CALLDATALOAD PUSH2 0x3050 DUP2 PUSH2 0x3ECB JUMP JUMPDEST SWAP3 POP PUSH2 0x305E PUSH1 0x20 DUP6 ADD PUSH2 0x2F98 JUMP JUMPDEST SWAP2 POP PUSH2 0x306C PUSH1 0x40 DUP6 ADD PUSH2 0x2F98 JUMP JUMPDEST SWAP1 POP SWAP3 POP SWAP3 POP SWAP3 JUMP JUMPDEST PUSH1 0x0 DUP1 PUSH1 0x40 DUP4 DUP6 SUB SLT ISZERO PUSH2 0x3087 JUMPI DUP2 DUP3 REVERT JUMPDEST DUP3 CALLDATALOAD PUSH8 0xFFFFFFFFFFFFFFFF DUP1 DUP3 GT ISZERO PUSH2 0x309E JUMPI DUP4 DUP5 REVERT JUMPDEST PUSH2 0x30AA DUP7 DUP4 DUP8 ADD PUSH2 0x2CC4 JUMP JUMPDEST SWAP4 POP PUSH1 0x20 DUP6 ADD CALLDATALOAD SWAP2 POP DUP1 DUP3 GT ISZERO PUSH2 0x30BF JUMPI DUP3 DUP4 REVERT JUMPDEST POP PUSH2 0x30CC DUP6 DUP3 DUP7 ADD PUSH2 0x2CC4 JUMP JUMPDEST SWAP2 POP POP SWAP3 POP SWAP3 SWAP1 POP JUMP JUMPDEST PUSH1 0x0 PUSH1 0x20 DUP3 DUP5 SUB SLT ISZERO PUSH2 0x30E7 JUMPI DUP1 DUP2 REVERT JUMPDEST DUP2 MLOAD DUP1 ISZERO ISZERO DUP2 EQ PUSH2 0x1549 JUMPI DUP2 DUP3 REVERT JUMPDEST PUSH1 0x0 PUSH1 0x20 DUP3 DUP5 SUB SLT ISZERO PUSH2 0x3107 JUMPI DUP1 DUP2 REVERT JUMPDEST POP CALLDATALOAD SWAP2 SWAP1 POP JUMP JUMPDEST PUSH1 0x0 DUP1 PUSH1 0x0 PUSH1 0x60 DUP5 DUP7 SUB SLT ISZERO PUSH2 0x3122 JUMPI DUP1 DUP2 REVERT JUMPDEST DUP4 CALLDATALOAD SWAP3 POP PUSH1 0x20 DUP5 ADD CALLDATALOAD PUSH8 0xFFFFFFFFFFFFFFFF DUP1 DUP3 GT ISZERO PUSH2 0x3140 JUMPI DUP3 DUP4 REVERT JUMPDEST PUSH2 0x314C DUP8 DUP4 DUP9 ADD PUSH2 0x2C58 JUMP JUMPDEST SWAP4 POP PUSH1 0x40 DUP7 ADD CALLDATALOAD SWAP2 POP DUP1 DUP3 GT ISZERO PUSH2 0x3161 JUMPI DUP3 DUP4 REVERT JUMPDEST POP PUSH2 0x316E DUP7 DUP3 DUP8 ADD PUSH2 0x2E50 JUMP JUMPDEST SWAP2 POP POP SWAP3 POP SWAP3 POP SWAP3 JUMP JUMPDEST PUSH1 0x0 PUSH1 0x20 DUP3 DUP5 SUB SLT ISZERO PUSH2 0x3189 JUMPI DUP1 DUP2 REVERT JUMPDEST DUP2 CALLDATALOAD PUSH8 0xFFFFFFFFFFFFFFFF DUP2 GT ISZERO PUSH2 0x319F JUMPI DUP2 DUP3 REVERT JUMPDEST DUP3 ADD PUSH1 0x40 DUP2 DUP6 SUB SLT ISZERO PUSH2 0x1549 JUMPI DUP2 DUP3 REVERT JUMPDEST PUSH1 0x0 PUSH1 0x80 DUP3 DUP5 SUB SLT ISZERO PUSH2 0x31C1 JUMPI DUP1 DUP2 REVERT JUMPDEST PUSH1 0x40 MLOAD PUSH1 0x80 DUP2 ADD DUP2 DUP2 LT PUSH8 0xFFFFFFFFFFFFFFFF DUP3 GT OR ISZERO PUSH2 0x31DE JUMPI INVALID JUMPDEST PUSH1 0x40 MSTORE DUP3 MLOAD PUSH2 0x31EC DUP2 PUSH2 0x3EE0 JUMP JUMPDEST DUP2 MSTORE PUSH1 0x20 DUP4 ADD MLOAD PUSH2 0x31FC DUP2 PUSH2 0x3ECB JUMP JUMPDEST PUSH1 0x20 DUP3 ADD MSTORE PUSH1 0x40 DUP4 DUP2 ADD MLOAD SWAP1 DUP3 ADD MSTORE PUSH1 0x60 SWAP3 DUP4 ADD MLOAD SWAP3 DUP2 ADD SWAP3 SWAP1 SWAP3 MSTORE POP SWAP2 SWAP1 POP JUMP JUMPDEST PUSH1 0x0 PUSH1 0x20 DUP3 DUP5 SUB SLT ISZERO PUSH2 0x322F JUMPI DUP1 DUP2 REVERT JUMPDEST DUP2 CALLDATALOAD PUSH8 0xFFFFFFFFFFFFFFFF DUP2 GT ISZERO PUSH2 0x3245 JUMPI DUP2 DUP3 REVERT JUMPDEST PUSH2 0x3251 DUP5 DUP3 DUP6 ADD PUSH2 0x2E50 JUMP JUMPDEST SWAP5 SWAP4 POP POP POP POP JUMP JUMPDEST PUSH1 0x0 PUSH1 0x20 DUP3 DUP5 SUB SLT ISZERO PUSH2 0x326A JUMPI DUP1 DUP2 REVERT JUMPDEST POP MLOAD SWAP2 SWAP1 POP JUMP JUMPDEST PUSH1 0x0 DUP1 PUSH1 0x40 DUP4 DUP6 SUB SLT ISZERO PUSH2 0x3283 JUMPI DUP2 DUP3 REVERT JUMPDEST DUP3 CALLDATALOAD SWAP2 POP PUSH1 0x20 DUP4 ADD CALLDATALOAD PUSH2 0x3295 DUP2 PUSH2 0x3ECB JUMP JUMPDEST DUP1 SWAP2 POP POP SWAP3 POP SWAP3 SWAP1 POP JUMP JUMPDEST PUSH1 0x0 PUSH1 0x20 DUP3 DUP5 SUB SLT ISZERO PUSH2 0x32B1 JUMPI DUP1 DUP2 REVERT JUMPDEST PUSH2 0x1549 DUP3 PUSH2 0x2F98 JUMP JUMPDEST PUSH1 0x0 PUSH1 0x20 DUP3 DUP5 SUB SLT ISZERO PUSH2 0x32CB JUMPI DUP1 DUP2 REVERT JUMPDEST DUP2 CALLDATALOAD PUSH2 0x1549 DUP2 PUSH2 0x3EE0 JUMP JUMPDEST PUSH1 0x0 DUP1 PUSH1 0x40 DUP4 DUP6 SUB SLT ISZERO PUSH2 0x32E8 JUMPI DUP2 DUP3 REVERT JUMPDEST DUP3 CALLDATALOAD PUSH2 0x32F3 DUP2 PUSH2 0x3EE0 JUMP JUMPDEST SWAP2 POP PUSH1 0x20 DUP4 ADD CALLDATALOAD PUSH2 0x3295 DUP2 PUSH2 0x3ECB JUMP JUMPDEST PUSH1 0x0 DUP2 MLOAD DUP1 DUP5 MSTORE PUSH2 0x331B DUP2 PUSH1 0x20 DUP7 ADD PUSH1 0x20 DUP7 ADD PUSH2 0x3E9F JUMP JUMPDEST PUSH1 0x1F ADD PUSH1 0x1F NOT AND SWAP3 SWAP1 SWAP3 ADD PUSH1 0x20 ADD SWAP3 SWAP2 POP POP JUMP JUMPDEST DUP1 MLOAD PUSH1 0xFF AND DUP3 MSTORE PUSH1 0x20 DUP1 DUP3 ADD MLOAD PUSH1 0x1 PUSH1 0x1 PUSH1 0xA0 SHL SUB AND SWAP1 DUP4 ADD MSTORE PUSH1 0x40 DUP1 DUP3 ADD MLOAD SWAP1 DUP4 ADD MSTORE PUSH1 0x60 SWAP1 DUP2 ADD MLOAD SWAP2 ADD MSTORE JUMP JUMPDEST PUSH1 0x0 DUP3 MLOAD PUSH2 0x3370 DUP2 DUP5 PUSH1 0x20 DUP8 ADD PUSH2 0x3E9F JUMP JUMPDEST SWAP2 SWAP1 SWAP2 ADD SWAP3 SWAP2 POP POP JUMP JUMPDEST PUSH32 0x19457468657265756D205369676E6564204D6573736167653A0A333200000000 DUP2 MSTORE PUSH1 0x1C DUP2 ADD SWAP2 SWAP1 SWAP2 MSTORE PUSH1 0x3C ADD SWAP1 JUMP JUMPDEST PUSH2 0x1901 PUSH1 0xF0 SHL DUP2 MSTORE PUSH1 0x2 DUP2 ADD SWAP3 SWAP1 SWAP3 MSTORE PUSH1 0x22 DUP3 ADD MSTORE PUSH1 0x42 ADD SWAP1 JUMP JUMPDEST SWAP1 JUMP JUMPDEST SWAP3 DUP4 MSTORE PUSH1 0x60 SWAP2 SWAP1 SWAP2 SHL PUSH12 0xFFFFFFFFFFFFFFFFFFFFFFFF NOT AND PUSH1 0x20 DUP4 ADD MSTORE PUSH1 0x34 DUP3 ADD MSTORE PUSH1 0x54 ADD SWAP1 JUMP JUMPDEST PUSH1 0x1 PUSH1 0x1 PUSH1 0xA0 SHL SUB SWAP2 SWAP1 SWAP2 AND DUP2 MSTORE PUSH1 0x20 ADD SWAP1 JUMP JUMPDEST PUSH1 0x1 PUSH1 0x1 PUSH1 0xA0 SHL SUB DUP5 AND DUP2 MSTORE PUSH1 0x60 PUSH1 0x20 DUP3 ADD DUP2 SWAP1 MSTORE PUSH1 0x0 SWAP1 PUSH2 0x3429 SWAP1 DUP4 ADD DUP6 PUSH2 0x3303 JUMP JUMPDEST SWAP1 POP PUSH2 0xFFFF DUP4 AND PUSH1 0x40 DUP4 ADD MSTORE SWAP5 SWAP4 POP POP POP POP JUMP JUMPDEST PUSH1 0x1 PUSH1 0x1 PUSH1 0xA0 SHL SUB SWAP3 DUP4 AND DUP2 MSTORE SWAP2 AND PUSH1 0x20 DUP3 ADD MSTORE PUSH1 0x40 ADD SWAP1 JUMP JUMPDEST PUSH1 0x1 PUSH1 0x1 PUSH1 0xA0 SHL SUB SWAP4 DUP5 AND DUP2 MSTORE SWAP2 SWAP1 SWAP3 AND PUSH1 0x20 DUP3 ADD MSTORE PUSH1 0x40 DUP2 ADD SWAP2 SWAP1 SWAP2 MSTORE PUSH1 0x60 ADD SWAP1 JUMP JUMPDEST PUSH1 0x1 PUSH1 0x1 PUSH1 0xA0 SHL SUB SWAP5 DUP6 AND DUP2 MSTORE SWAP3 SWAP1 SWAP4 AND PUSH1 0x20 DUP4 ADD MSTORE PUSH1 0x40 DUP3 ADD MSTORE PUSH1 0x60 DUP2 ADD SWAP2 SWAP1 SWAP2 MSTORE PUSH1 0xA0 PUSH1 0x80 DUP3 ADD DUP2 SWAP1 MSTORE PUSH1 0x0 SWAP1 DUP3 ADD MSTORE PUSH1 0xC0 ADD SWAP1 JUMP JUMPDEST PUSH1 0x1 PUSH1 0x1 PUSH1 0xA0 SHL SUB SWAP5 SWAP1 SWAP5 AND DUP5 MSTORE PUSH1 0x20 DUP5 ADD SWAP3 SWAP1 SWAP3 MSTORE PUSH1 0x40 DUP4 ADD MSTORE PUSH1 0x60 DUP3 ADD MSTORE PUSH1 0x80 ADD SWAP1 JUMP JUMPDEST PUSH1 0x1 PUSH1 0x1 PUSH1 0xA0 SHL SUB SWAP3 SWAP1 SWAP3 AND DUP3 MSTORE PUSH1 0x20 DUP3 ADD MSTORE PUSH1 0x40 ADD SWAP1 JUMP JUMPDEST PUSH1 0x1 PUSH1 0x1 PUSH1 0xA0 SHL SUB SWAP4 SWAP1 SWAP4 AND DUP4 MSTORE PUSH6 0xFFFFFFFFFFFF SWAP2 DUP3 AND PUSH1 0x20 DUP5 ADD MSTORE AND PUSH1 0x40 DUP3 ADD MSTORE PUSH1 0x60 ADD SWAP1 JUMP JUMPDEST SWAP1 ISZERO ISZERO DUP2 MSTORE PUSH1 0x20 ADD SWAP1 JUMP JUMPDEST SWAP1 DUP2 MSTORE PUSH1 0x20 ADD SWAP1 JUMP JUMPDEST SWAP9 DUP10 MSTORE PUSH1 0x1 PUSH1 0x1 PUSH1 0xA0 SHL SUB SWAP8 DUP9 AND PUSH1 0x20 DUP11 ADD MSTORE PUSH1 0x40 DUP10 ADD SWAP7 SWAP1 SWAP7 MSTORE SWAP4 SWAP1 SWAP6 AND PUSH1 0x60 DUP8 ADD MSTORE PUSH1 0x80 DUP7 ADD SWAP2 SWAP1 SWAP2 MSTORE PUSH1 0xA0 DUP6 ADD MSTORE PUSH1 0xC0 DUP5 ADD SWAP3 SWAP1 SWAP3 MSTORE PUSH1 0xE0 DUP4 ADD SWAP2 SWAP1 SWAP2 MSTORE PUSH2 0xFFFF AND PUSH2 0x100 DUP3 ADD MSTORE PUSH2 0x120 ADD SWAP1 JUMP JUMPDEST SWAP4 DUP5 MSTORE PUSH1 0x1 PUSH1 0x1 PUSH1 0xA0 SHL SUB SWAP3 SWAP1 SWAP3 AND PUSH1 0x20 DUP5 ADD MSTORE PUSH1 0x40 DUP4 ADD MSTORE PUSH1 0x60 DUP3 ADD MSTORE PUSH1 0x80 ADD SWAP1 JUMP JUMPDEST SWAP5 DUP6 MSTORE PUSH1 0x20 DUP6 ADD SWAP4 SWAP1 SWAP4 MSTORE PUSH1 0x40 DUP5 ADD SWAP2 SWAP1 SWAP2 MSTORE PUSH1 0x60 DUP4 ADD MSTORE PUSH1 0x1 PUSH1 0x1 PUSH1 0xA0 SHL SUB AND PUSH1 0x80 DUP3 ADD MSTORE PUSH1 0xA0 ADD SWAP1 JUMP JUMPDEST SWAP4 DUP5 MSTORE PUSH1 0xFF SWAP3 SWAP1 SWAP3 AND PUSH1 0x20 DUP5 ADD MSTORE PUSH1 0x1 PUSH1 0x1 PUSH1 0xA0 SHL SUB AND PUSH1 0x40 DUP4 ADD MSTORE PUSH1 0x60 DUP3 ADD MSTORE PUSH1 0x80 ADD SWAP1 JUMP JUMPDEST SWAP5 DUP6 MSTORE PUSH1 0xFF SWAP4 SWAP1 SWAP4 AND PUSH1 0x20 DUP6 ADD MSTORE PUSH1 0x1 PUSH1 0x1 PUSH1 0xA0 SHL SUB SWAP2 SWAP1 SWAP2 AND PUSH1 0x40 DUP5 ADD MSTORE PUSH1 0x60 DUP4 ADD MSTORE PUSH1 0x80 DUP3 ADD MSTORE PUSH1 0xA0 ADD SWAP1 JUMP JUMPDEST SWAP4 DUP5 MSTORE PUSH1 0xFF SWAP3 SWAP1 SWAP3 AND PUSH1 0x20 DUP5 ADD MSTORE PUSH1 0x40 DUP4 ADD MSTORE PUSH1 0x60 DUP3 ADD MSTORE PUSH1 0x80 ADD SWAP1 JUMP JUMPDEST PUSH1 0x1 PUSH1 0x1 PUSH1 0xA0 SHL SUB SWAP6 DUP7 AND DUP2 MSTORE SWAP4 DUP6 AND PUSH1 0x20 DUP6 ADD MSTORE SWAP2 SWAP1 SWAP4 AND PUSH1 0x40 DUP4 ADD MSTORE PUSH1 0x60 DUP3 ADD SWAP3 SWAP1 SWAP3 MSTORE PUSH1 0x80 DUP2 ADD SWAP2 SWAP1 SWAP2 MSTORE PUSH1 0xC0 PUSH1 0xA0 DUP3 ADD DUP2 SWAP1 MSTORE PUSH1 0x0 SWAP1 DUP3 ADD MSTORE PUSH1 0xE0 ADD SWAP1 JUMP JUMPDEST PUSH1 0x1 PUSH1 0x1 PUSH1 0xA0 SHL SUB SWAP5 DUP6 AND DUP2 MSTORE SWAP3 DUP5 AND PUSH1 0x20 DUP5 ADD MSTORE SWAP3 AND PUSH1 0x40 DUP3 ADD MSTORE PUSH1 0x60 DUP2 ADD SWAP2 SWAP1 SWAP2 MSTORE PUSH1 0x80 ADD SWAP1 JUMP JUMPDEST PUSH1 0x0 PUSH2 0x120 PUSH1 0x4 DUP13 LT PUSH2 0x36C1 JUMPI INVALID JUMPDEST DUP12 DUP4 MSTORE PUSH1 0x1 PUSH1 0x1 PUSH1 0xA0 SHL SUB DUP12 DUP2 AND PUSH1 0x20 DUP6 ADD MSTORE DUP11 AND PUSH1 0x40 DUP5 ADD MSTORE PUSH1 0x60 DUP4 ADD DUP2 SWAP1 MSTORE PUSH2 0x36EE DUP2 DUP5 ADD DUP11 PUSH2 0x3303 JUMP JUMPDEST PUSH2 0xFFFF SWAP9 SWAP1 SWAP9 AND PUSH1 0x80 DUP5 ADD MSTORE POP POP PUSH1 0xA0 DUP2 ADD SWAP5 SWAP1 SWAP5 MSTORE PUSH1 0xC0 DUP5 ADD SWAP3 SWAP1 SWAP3 MSTORE PUSH1 0xE0 DUP4 ADD MSTORE PUSH2 0x100 SWAP1 SWAP2 ADD MSTORE SWAP5 SWAP4 POP POP POP POP JUMP JUMPDEST PUSH1 0x20 DUP1 DUP3 MSTORE PUSH1 0x18 SWAP1 DUP3 ADD MSTORE PUSH32 0x45434453413A20696E76616C6964207369676E61747572650000000000000000 PUSH1 0x40 DUP3 ADD MSTORE PUSH1 0x60 ADD SWAP1 JUMP JUMPDEST PUSH1 0x20 DUP1 DUP3 MSTORE PUSH1 0x17 SWAP1 DUP3 ADD MSTORE PUSH32 0x6E6F7420666F756E64204941737365744D617463686572000000000000000000 PUSH1 0x40 DUP3 ADD MSTORE PUSH1 0x60 ADD SWAP1 JUMP JUMPDEST PUSH1 0x20 DUP1 DUP3 MSTORE PUSH1 0x1F SWAP1 DUP3 ADD MSTORE PUSH32 0x45434453413A20696E76616C6964207369676E6174757265206C656E67746800 PUSH1 0x40 DUP3 ADD MSTORE PUSH1 0x60 ADD SWAP1 JUMP JUMPDEST PUSH1 0x20 DUP1 DUP3 MSTORE PUSH1 0x26 SWAP1 DUP3 ADD MSTORE PUSH32 0x4F776E61626C653A206E6577206F776E657220697320746865207A65726F2061 PUSH1 0x40 DUP3 ADD MSTORE PUSH6 0x646472657373 PUSH1 0xD0 SHL PUSH1 0x60 DUP3 ADD MSTORE PUSH1 0x80 ADD SWAP1 JUMP JUMPDEST PUSH1 0x20 DUP1 DUP3 MSTORE PUSH1 0x1B SWAP1 DUP3 ADD MSTORE PUSH32 0x4F7264657220656E642076616C69646174696F6E206661696C65640000000000 PUSH1 0x40 DUP3 ADD MSTORE PUSH1 0x60 ADD SWAP1 JUMP JUMPDEST PUSH1 0x20 DUP1 DUP3 MSTORE PUSH1 0x14 SWAP1 DUP3 ADD MSTORE PUSH20 0xC081CD85B1D0818D85B89DD081899481D5CD959 PUSH1 0x62 SHL PUSH1 0x40 DUP3 ADD MSTORE PUSH1 0x60 ADD SWAP1 JUMP JUMPDEST PUSH1 0x20 DUP1 DUP3 MSTORE PUSH1 0x18 SWAP1 DUP3 ADD MSTORE PUSH32 0x4F7264657220686173206265656E2066756C66696C6C65640000000000000000 PUSH1 0x40 DUP3 ADD MSTORE PUSH1 0x60 ADD SWAP1 JUMP JUMPDEST PUSH1 0x20 DUP1 DUP3 MSTORE PUSH1 0x1C SWAP1 DUP3 ADD MSTORE PUSH32 0x426964204552432D323020616D6F756E74206E6F7420656E6F75676800000000 PUSH1 0x40 DUP3 ADD MSTORE PUSH1 0x60 ADD SWAP1 JUMP JUMPDEST PUSH1 0x20 DUP1 DUP3 MSTORE PUSH1 0x8 SWAP1 DUP3 ADD MSTORE PUSH8 0x37379036B0B5B2B9 PUSH1 0xC1 SHL PUSH1 0x40 DUP3 ADD MSTORE PUSH1 0x60 ADD SWAP1 JUMP JUMPDEST PUSH1 0x20 DUP1 DUP3 MSTORE PUSH1 0x22 SWAP1 DUP3 ADD MSTORE PUSH32 0x6C6566747320616E6420726967687473206C656E67746820646F6E74206D6174 PUSH1 0x40 DUP3 ADD MSTORE PUSH2 0xC6D PUSH1 0xF3 SHL PUSH1 0x60 DUP3 ADD MSTORE PUSH1 0x80 ADD SWAP1 JUMP JUMPDEST PUSH1 0x20 DUP1 DUP3 MSTORE PUSH1 0x22 SWAP1 DUP3 ADD MSTORE PUSH32 0x45434453413A20696E76616C6964207369676E6174757265202773272076616C PUSH1 0x40 DUP3 ADD MSTORE PUSH2 0x7565 PUSH1 0xF0 SHL PUSH1 0x60 DUP3 ADD MSTORE PUSH1 0x80 ADD SWAP1 JUMP JUMPDEST PUSH1 0x20 DUP1 DUP3 MSTORE PUSH1 0x24 SWAP1 DUP3 ADD MSTORE PUSH32 0x72696768744F726465722E74616B657220766572696669636174696F6E206661 PUSH1 0x40 DUP3 ADD MSTORE PUSH4 0x1A5B1959 PUSH1 0xE2 SHL PUSH1 0x60 DUP3 ADD MSTORE PUSH1 0x80 ADD SWAP1 JUMP JUMPDEST PUSH1 0x20 DUP1 DUP3 MSTORE PUSH1 0x22 SWAP1 DUP3 ADD MSTORE PUSH32 0x6F72646572207369676E617475726520766572696669636174696F6E20657272 PUSH1 0x40 DUP3 ADD MSTORE PUSH2 0x37B9 PUSH1 0xF1 SHL PUSH1 0x60 DUP3 ADD MSTORE PUSH1 0x80 ADD SWAP1 JUMP JUMPDEST PUSH1 0x20 DUP1 DUP3 MSTORE PUSH1 0x12 SWAP1 DUP3 ADD MSTORE PUSH18 0x32B9319B9918903B30B63AB29032B93937B9 PUSH1 0x71 SHL PUSH1 0x40 DUP3 ADD MSTORE PUSH1 0x60 ADD SWAP1 JUMP JUMPDEST PUSH1 0x20 DUP1 DUP3 MSTORE PUSH1 0x16 SWAP1 DUP3 ADD MSTORE PUSH22 0x36B0B5B2B91034B9903737BA103A3C1039B2B73232B9 PUSH1 0x51 SHL PUSH1 0x40 DUP3 ADD MSTORE PUSH1 0x60 ADD SWAP1 JUMP JUMPDEST PUSH1 0x20 DUP1 DUP3 MSTORE PUSH1 0x2E SWAP1 DUP3 ADD MSTORE PUSH32 0x496E697469616C697A61626C653A20636F6E747261637420697320616C726561 PUSH1 0x40 DUP3 ADD MSTORE PUSH14 0x191E481A5B9A5D1A585B1A5E9959 PUSH1 0x92 SHL PUSH1 0x60 DUP3 ADD MSTORE PUSH1 0x80 ADD SWAP1 JUMP JUMPDEST PUSH1 0x20 DUP1 DUP3 MSTORE PUSH1 0x1D SWAP1 DUP3 ADD MSTORE PUSH32 0x4F726465722073746172742076616C69646174696F6E206661696C6564000000 PUSH1 0x40 DUP3 ADD MSTORE PUSH1 0x60 ADD SWAP1 JUMP JUMPDEST PUSH1 0x20 DUP1 DUP3 MSTORE PUSH1 0x22 SWAP1 DUP3 ADD MSTORE PUSH32 0x45434453413A20696E76616C6964207369676E6174757265202776272076616C PUSH1 0x40 DUP3 ADD MSTORE PUSH2 0x7565 PUSH1 0xF0 SHL PUSH1 0x60 DUP3 ADD MSTORE PUSH1 0x80 ADD SWAP1 JUMP JUMPDEST PUSH1 0x20 DUP1 DUP3 MSTORE DUP2 DUP2 ADD MSTORE PUSH32 0x4F776E61626C653A2063616C6C6572206973206E6F7420746865206F776E6572 PUSH1 0x40 DUP3 ADD MSTORE PUSH1 0x60 ADD SWAP1 JUMP JUMPDEST PUSH1 0x20 DUP1 DUP3 MSTORE PUSH1 0x15 SWAP1 DUP3 ADD MSTORE PUSH21 0x195C98CC8C081D1C985B9CD9995C8819985A5B1959 PUSH1 0x5A SHL PUSH1 0x40 DUP3 ADD MSTORE PUSH1 0x60 ADD SWAP1 JUMP JUMPDEST PUSH1 0x20 DUP1 DUP3 MSTORE PUSH1 0x18 SWAP1 DUP3 ADD MSTORE PUSH32 0x4F7264657220686173206265656E2063616E63656C6C65640000000000000000 PUSH1 0x40 DUP3 ADD MSTORE PUSH1 0x60 ADD SWAP1 JUMP JUMPDEST PUSH1 0x20 DUP1 DUP3 MSTORE PUSH1 0x12 SWAP1 DUP3 ADD MSTORE PUSH18 0xC2E6E6CAE8E640C8DEDC4EE840DAC2E8C6D PUSH1 0x73 SHL PUSH1 0x40 DUP3 ADD MSTORE PUSH1 0x60 ADD SWAP1 JUMP JUMPDEST PUSH1 0x20 DUP1 DUP3 MSTORE PUSH1 0x18 SWAP1 DUP3 ADD MSTORE PUSH32 0x45524332302062616C616E6365206E6F7420656E6F7567680000000000000000 PUSH1 0x40 DUP3 ADD MSTORE PUSH1 0x60 ADD SWAP1 JUMP JUMPDEST PUSH1 0x20 DUP1 DUP3 MSTORE PUSH1 0x1A SWAP1 DUP3 ADD MSTORE PUSH32 0x5370656E64696E6720616D6F756E74206E6F7420656E6F756768000000000000 PUSH1 0x40 DUP3 ADD MSTORE PUSH1 0x60 ADD SWAP1 JUMP JUMPDEST PUSH1 0x20 DUP1 DUP3 MSTORE PUSH1 0xF SWAP1 DUP3 ADD MSTORE PUSH15 0x1D1C985B9CD9995C8819985A5B1959 PUSH1 0x8A SHL PUSH1 0x40 DUP3 ADD MSTORE PUSH1 0x60 ADD SWAP1 JUMP JUMPDEST PUSH1 0x20 DUP1 DUP3 MSTORE PUSH1 0x22 SWAP1 DUP3 ADD MSTORE PUSH32 0x416363657074206269642071747920686967686572207468616E206269642071 PUSH1 0x40 DUP3 ADD MSTORE PUSH2 0x7479 PUSH1 0xF0 SHL PUSH1 0x60 DUP3 ADD MSTORE PUSH1 0x80 ADD SWAP1 JUMP JUMPDEST PUSH1 0x20 DUP1 DUP3 MSTORE PUSH1 0x23 SWAP1 DUP3 ADD MSTORE PUSH32 0x6C6566744F726465722E74616B657220766572696669636174696F6E20666169 PUSH1 0x40 DUP3 ADD MSTORE PUSH3 0x1B1959 PUSH1 0xEA SHL PUSH1 0x60 DUP3 ADD MSTORE PUSH1 0x80 ADD SWAP1 JUMP JUMPDEST PUSH1 0x20 DUP1 DUP3 MSTORE PUSH1 0xF SWAP1 DUP3 ADD MSTORE PUSH15 0x496E76616C6964206C697374696E67 PUSH1 0x88 SHL PUSH1 0x40 DUP3 ADD MSTORE PUSH1 0x60 ADD SWAP1 JUMP JUMPDEST PUSH1 0x20 DUP1 DUP3 MSTORE PUSH1 0xB SWAP1 DUP3 ADD MSTORE PUSH11 0x3737BA10309036B0B5B2B9 PUSH1 0xA9 SHL PUSH1 0x40 DUP3 ADD MSTORE PUSH1 0x60 ADD SWAP1 JUMP JUMPDEST PUSH1 0xC0 DUP2 ADD PUSH2 0x3D6C DUP3 DUP7 PUSH2 0x332F JUMP JUMPDEST PUSH1 0x1 PUSH1 0x1 PUSH1 0xA0 SHL SUB SWAP4 DUP5 AND PUSH1 0x80 DUP4 ADD MSTORE SWAP2 SWAP1 SWAP3 AND PUSH1 0xA0 SWAP1 SWAP3 ADD SWAP2 SWAP1 SWAP2 MSTORE SWAP2 SWAP1 POP JUMP JUMPDEST PUSH2 0x100 DUP2 ADD PUSH2 0x3D9D DUP3 DUP6 PUSH2 0x332F JUMP JUMPDEST PUSH2 0x1549 PUSH1 0x80 DUP4 ADD DUP5 PUSH2 0x332F JUMP JUMPDEST PUSH2 0xFFFF SWAP12 SWAP1 SWAP12 AND DUP12 MSTORE PUSH1 0x1 PUSH1 0x1 PUSH1 0xA0 SHL SUB SWAP10 DUP11 AND PUSH1 0x20 DUP13 ADD MSTORE SWAP8 DUP10 AND PUSH1 0x40 DUP12 ADD MSTORE PUSH1 0x60 DUP11 ADD SWAP7 SWAP1 SWAP7 MSTORE PUSH1 0x80 DUP10 ADD SWAP5 SWAP1 SWAP5 MSTORE PUSH1 0xFF SWAP3 DUP4 AND PUSH1 0xA0 DUP10 ADD MSTORE SWAP1 DUP7 AND PUSH1 0xC0 DUP9 ADD MSTORE SWAP1 SWAP5 AND PUSH1 0xE0 DUP7 ADD MSTORE PUSH2 0x100 DUP6 ADD MSTORE PUSH2 0x120 DUP5 ADD MSTORE AND PUSH2 0x140 DUP3 ADD MSTORE PUSH2 0x160 ADD SWAP1 JUMP JUMPDEST PUSH6 0xFFFFFFFFFFFF SWAP3 DUP4 AND DUP2 MSTORE SWAP2 AND PUSH1 0x20 DUP3 ADD MSTORE PUSH1 0x40 ADD SWAP1 JUMP JUMPDEST PUSH1 0xFF SWAP3 SWAP1 SWAP3 AND DUP3 MSTORE PUSH1 0x20 DUP3 ADD MSTORE PUSH1 0x40 ADD SWAP1 JUMP JUMPDEST PUSH1 0x0 DUP3 CALLDATALOAD PUSH2 0x2BE NOT DUP4 CALLDATASIZE SUB ADD DUP2 SLT PUSH2 0x3370 JUMPI DUP2 DUP3 REVERT JUMPDEST PUSH1 0x40 MLOAD DUP2 DUP2 ADD PUSH8 0xFFFFFFFFFFFFFFFF DUP2 GT DUP3 DUP3 LT OR ISZERO PUSH2 0x3E6D JUMPI INVALID JUMPDEST PUSH1 0x40 MSTORE SWAP2 SWAP1 POP JUMP JUMPDEST PUSH1 0x0 PUSH8 0xFFFFFFFFFFFFFFFF DUP3 GT ISZERO PUSH2 0x3E89 JUMPI INVALID JUMPDEST POP PUSH1 0x20 SWAP1 DUP2 MUL ADD SWAP1 JUMP JUMPDEST PUSH1 0x0 PUSH2 0x201C CALLDATASIZE DUP4 PUSH2 0x2E50 JUMP JUMPDEST PUSH1 0x0 JUMPDEST DUP4 DUP2 LT ISZERO PUSH2 0x3EBA JUMPI DUP2 DUP2 ADD MLOAD DUP4 DUP3 ADD MSTORE PUSH1 0x20 ADD PUSH2 0x3EA2 JUMP JUMPDEST DUP4 DUP2 GT ISZERO PUSH2 0x11DC JUMPI POP POP PUSH1 0x0 SWAP2 ADD MSTORE JUMP JUMPDEST PUSH1 0x1 PUSH1 0x1 PUSH1 0xA0 SHL SUB DUP2 AND DUP2 EQ PUSH2 0xFBF JUMPI PUSH1 0x0 DUP1 REVERT JUMPDEST PUSH1 0xFF DUP2 AND DUP2 EQ PUSH2 0xFBF JUMPI PUSH1 0x0 DUP1 REVERT INVALID LOG2 PUSH5 0x6970667358 0x22 SLT KECCAK256 SUB PUSH22 0xE59623196E483D4845C8375ADF72C6B808473A4116CC 0xD0 DIV 0x4D SWAP12 0xE7 SELFBALANCE REVERT 0xD6 PUSH5 0x736F6C6343 STOP SMOD MOD STOP CALLER "},"methodIdentifiers":{"__ExchangeV2_init(address,address,uint256,address,address)":"1372a625","_owner()":"b2bdfa7b","cancel((uint8,address,(uint8,address,uint256,uint256),address,(uint8,address,uint256,uint256),uint256,uint256,uint256,(address,uint256),(address,uint256),bytes,bytes32,bytes32[],uint16))":"d362d3ff","cancelOrder((uint8,address,(uint8,address,uint256,uint256),address,(uint8,address,uint256,uint256),uint256,uint256,uint256,(address,uint256),(address,uint256),bytes,bytes32,bytes32[],uint16))":"8b42af3e","directAcceptBid(((uint8,address,(uint8,address,uint256,uint256),address,(uint8,address,uint256,uint256),uint256,uint256,uint256,(address,uint256),(address,uint256),bytes,bytes32,bytes32[],uint16),(uint8,address,(uint8,address,uint256,uint256),address,(uint8,address,uint256,uint256),uint256,uint256,uint256,(address,uint256),(address,uint256),bytes,bytes32,bytes32[],uint16)))":"33033608","fills(bytes32)":"20158c44","getTransferProxy(uint8)":"b36c9b29","matchOrders((uint8,address,(uint8,address,uint256,uint256),address,(uint8,address,uint256,uint256),uint256,uint256,uint256,(address,uint256),(address,uint256),bytes,bytes32,bytes32[],uint16)[],(uint8,address,(uint8,address,uint256,uint256),address,(uint8,address,uint256,uint256),uint256,uint256,uint256,(address,uint256),(address,uint256),bytes,bytes32,bytes32[],uint16)[])":"faa2cc7c","owner()":"8da5cb5b","protocolFee()":"b0e21e8a","renounceOwnership()":"715018a6","royaltiesRegistry()":"6d8f0694","setAllProtocolFeeData(address,uint48,uint48)":"b74c8e9a","setAssetMatcher(uint256,address)":"c648a687","setPrtocolFeeBuyerAmount(uint48)":"d6ca6ab7","setPrtocolFeeReceiver(address)":"bc158c2d","setPrtocolFeeSellerAmount(uint48)":"eae3ad6f","setRoyaltiesRegistry(address)":"3be89922","setTransferProxy(uint8,address)":"4cfe4cd8","transferOwnership(address)":"f2fde38b","validateListing(bytes32,bytes32[],(uint8,address,(uint8,address,uint256,uint256),address,(uint8,address,uint256,uint256),uint256,uint256,uint256,(address,uint256),(address,uint256),bytes,bytes32,bytes32[],uint16))":"3e2d95ff"}},"storageLayout":{"storage":[{"astId":2294,"contract":"contracts/ExchangeV2.sol:ExchangeV2","label":"_initialized","offset":0,"slot":"0","type":"t_bool"},{"astId":2297,"contract":"contracts/ExchangeV2.sol:ExchangeV2","label":"_initializing","offset":1,"slot":"0","type":"t_bool"},{"astId":627,"contract":"contracts/ExchangeV2.sol:ExchangeV2","label":"__gap","offset":0,"slot":"1","type":"t_array(t_uint256)50_storage"},{"astId":2809,"contract":"contracts/ExchangeV2.sol:ExchangeV2","label":"_owner","offset":0,"slot":"51","type":"t_address"},{"astId":2928,"contract":"contracts/ExchangeV2.sol:ExchangeV2","label":"__gap","offset":0,"slot":"52","type":"t_array(t_uint256)49_storage"},{"astId":261,"contract":"contracts/ExchangeV2.sol:ExchangeV2","label":"matchers","offset":0,"slot":"101","type":"t_mapping(t_uint256,t_address)"},{"astId":581,"contract":"contracts/ExchangeV2.sol:ExchangeV2","label":"__gap","offset":0,"slot":"102","type":"t_array(t_uint256)49_storage"},{"astId":3311,"contract":"contracts/ExchangeV2.sol:ExchangeV2","label":"proxies","offset":0,"slot":"151","type":"t_mapping(t_uint8,t_address)"},{"astId":3584,"contract":"contracts/ExchangeV2.sol:ExchangeV2","label":"__gap","offset":0,"slot":"152","type":"t_array(t_uint256)49_storage"},{"astId":637,"contract":"contracts/ExchangeV2.sol:ExchangeV2","label":"_HASHED_NAME","offset":0,"slot":"201","type":"t_bytes32"},{"astId":640,"contract":"contracts/ExchangeV2.sol:ExchangeV2","label":"_HASHED_VERSION","offset":0,"slot":"202","type":"t_bytes32"},{"astId":789,"contract":"contracts/ExchangeV2.sol:ExchangeV2","label":"__gap","offset":0,"slot":"203","type":"t_array(t_uint256)50_storage"},{"astId":2797,"contract":"contracts/ExchangeV2.sol:ExchangeV2","label":"__gap","offset":0,"slot":"253","type":"t_array(t_uint256)50_storage"},{"astId":945,"contract":"contracts/ExchangeV2.sol:ExchangeV2","label":"randNonce","offset":0,"slot":"303","type":"t_uint256"},{"astId":949,"contract":"contracts/ExchangeV2.sol:ExchangeV2","label":"fills","offset":0,"slot":"304","type":"t_mapping(t_bytes32,t_uint256)"},{"astId":957,"contract":"contracts/ExchangeV2.sol:ExchangeV2","label":"cancelledOrFiledOrders","offset":0,"slot":"305","type":"t_mapping(t_address,t_mapping(t_bytes_memory_ptr,t_mapping(t_uint16,t_uint256)))"},{"astId":2246,"contract":"contracts/ExchangeV2.sol:ExchangeV2","label":"__gap","offset":0,"slot":"306","type":"t_array(t_uint256)49_storage"},{"astId":3633,"contract":"contracts/ExchangeV2.sol:ExchangeV2","label":"protocolFee","offset":0,"slot":"355","type":"t_struct(ProtocolFeeData)3669_storage"},{"astId":3635,"contract":"contracts/ExchangeV2.sol:ExchangeV2","label":"royaltiesRegistry","offset":0,"slot":"356","type":"t_contract(IRoyaltiesProvider)4403"},{"astId":3637,"contract":"contracts/ExchangeV2.sol:ExchangeV2","label":"defaultFeeReceiver","offset":0,"slot":"357","type":"t_address"},{"astId":3641,"contract":"contracts/ExchangeV2.sol:ExchangeV2","label":"feeReceivers","offset":0,"slot":"358","type":"t_mapping(t_address,t_address)"},{"astId":3997,"contract":"contracts/ExchangeV2.sol:ExchangeV2","label":"__gap","offset":0,"slot":"359","type":"t_array(t_uint256)46_storage"}],"types":{"t_address":{"encoding":"inplace","label":"address","numberOfBytes":"20"},"t_array(t_uint256)46_storage":{"base":"t_uint256","encoding":"inplace","label":"uint256[46]","numberOfBytes":"1472"},"t_array(t_uint256)49_storage":{"base":"t_uint256","encoding":"inplace","label":"uint256[49]","numberOfBytes":"1568"},"t_array(t_uint256)50_storage":{"base":"t_uint256","encoding":"inplace","label":"uint256[50]","numberOfBytes":"1600"},"t_bool":{"encoding":"inplace","label":"bool","numberOfBytes":"1"},"t_bytes32":{"encoding":"inplace","label":"bytes32","numberOfBytes":"32"},"t_bytes_memory_ptr":{"encoding":"bytes","label":"bytes","numberOfBytes":"32"},"t_contract(IRoyaltiesProvider)4403":{"encoding":"inplace","label":"contract IRoyaltiesProvider","numberOfBytes":"20"},"t_mapping(t_address,t_address)":{"encoding":"mapping","key":"t_address","label":"mapping(address => address)","numberOfBytes":"32","value":"t_address"},"t_mapping(t_address,t_mapping(t_bytes_memory_ptr,t_mapping(t_uint16,t_uint256)))":{"encoding":"mapping","key":"t_address","label":"mapping(address => mapping(bytes => mapping(uint16 => uint256)))","numberOfBytes":"32","value":"t_mapping(t_bytes_memory_ptr,t_mapping(t_uint16,t_uint256))"},"t_mapping(t_bytes32,t_uint256)":{"encoding":"mapping","key":"t_bytes32","label":"mapping(bytes32 => uint256)","numberOfBytes":"32","value":"t_uint256"},"t_mapping(t_bytes_memory_ptr,t_mapping(t_uint16,t_uint256))":{"encoding":"mapping","key":"t_bytes_memory_ptr","label":"mapping(bytes => mapping(uint16 => uint256))","numberOfBytes":"32","value":"t_mapping(t_uint16,t_uint256)"},"t_mapping(t_uint16,t_uint256)":{"encoding":"mapping","key":"t_uint16","label":"mapping(uint16 => uint256)","numberOfBytes":"32","value":"t_uint256"},"t_mapping(t_uint256,t_address)":{"encoding":"mapping","key":"t_uint256","label":"mapping(uint256 => address)","numberOfBytes":"32","value":"t_address"},"t_mapping(t_uint8,t_address)":{"encoding":"mapping","key":"t_uint8","label":"mapping(uint8 => address)","numberOfBytes":"32","value":"t_address"},"t_struct(ProtocolFeeData)3669_storage":{"encoding":"inplace","label":"struct TransferManager.ProtocolFeeData","members":[{"astId":3664,"contract":"contracts/ExchangeV2.sol:ExchangeV2","label":"receiver","offset":0,"slot":"0","type":"t_address"},{"astId":3666,"contract":"contracts/ExchangeV2.sol:ExchangeV2","label":"buyerAmount","offset":20,"slot":"0","type":"t_uint48"},{"astId":3668,"contract":"contracts/ExchangeV2.sol:ExchangeV2","label":"sellerAmount","offset":26,"slot":"0","type":"t_uint48"}],"numberOfBytes":"32"},"t_uint16":{"encoding":"inplace","label":"uint16","numberOfBytes":"2"},"t_uint256":{"encoding":"inplace","label":"uint256","numberOfBytes":"32"},"t_uint48":{"encoding":"inplace","label":"uint48","numberOfBytes":"6"},"t_uint8":{"encoding":"inplace","label":"uint8","numberOfBytes":"1"}}}}}}