{"contracts/library/LibERC721LazyMint.sol":{"LibERC721LazyMint":{"abi":[{"inputs":[],"name":"ERC721_LAZY_ASSET_CLASS","outputs":[{"internalType":"bytes4","name":"","type":"bytes4"}],"stateMutability":"view","type":"function"},{"inputs":[],"name":"MINT_AND_TRANSFER_TYPEHASH","outputs":[{"internalType":"bytes32","name":"","type":"bytes32"}],"stateMutability":"view","type":"function"}],"evm":{"bytecode":{"linkReferences":{},"object":"610109610026600b82828239805160001a60731461001957fe5b30600052607381538281f3fe7300000000000000000000000000000000000000003014608060405260043610603d5760003560e01c80637987105f14604257806394d5e89d14605c575b600080fd5b6048606d565b6040516053919060b5565b60405180910390f35b60626091565b6040516053919060be565b7ff64326045af5fd7e15297ba939f85b550474d3899daa47d2bc1ffbdb9ced344e81565b7fd8f960c1450658267efb07308b4050c9e705cea25a53b560236c88cb149696be81565b90815260200190565b6001600160e01b03199190911681526020019056fea2646970667358221220aedebc8d5dd9e0f8ac6ba82922f951da5a57aaf49f5c68b1c6de8dc9ec90050a64736f6c63430007060033","opcodes":"PUSH2 0x109 PUSH2 0x26 PUSH1 0xB DUP3 DUP3 DUP3 CODECOPY DUP1 MLOAD PUSH1 0x0 BYTE PUSH1 0x73 EQ PUSH2 0x19 JUMPI INVALID JUMPDEST ADDRESS PUSH1 0x0 MSTORE PUSH1 0x73 DUP2 MSTORE8 DUP3 DUP2 RETURN INVALID PUSH20 0x0 ADDRESS EQ PUSH1 0x80 PUSH1 0x40 MSTORE PUSH1 0x4 CALLDATASIZE LT PUSH1 0x3D JUMPI PUSH1 0x0 CALLDATALOAD PUSH1 0xE0 SHR DUP1 PUSH4 0x7987105F EQ PUSH1 0x42 JUMPI DUP1 PUSH4 0x94D5E89D EQ PUSH1 0x5C JUMPI JUMPDEST PUSH1 0x0 DUP1 REVERT JUMPDEST PUSH1 0x48 PUSH1 0x6D JUMP JUMPDEST PUSH1 0x40 MLOAD PUSH1 0x53 SWAP2 SWAP1 PUSH1 0xB5 JUMP JUMPDEST PUSH1 0x40 MLOAD DUP1 SWAP2 SUB SWAP1 RETURN JUMPDEST PUSH1 0x62 PUSH1 0x91 JUMP JUMPDEST PUSH1 0x40 MLOAD PUSH1 0x53 SWAP2 SWAP1 PUSH1 0xBE JUMP JUMPDEST PUSH32 0xF64326045AF5FD7E15297BA939F85B550474D3899DAA47D2BC1FFBDB9CED344E DUP2 JUMP JUMPDEST PUSH32 0xD8F960C1450658267EFB07308B4050C9E705CEA25A53B560236C88CB149696BE DUP2 JUMP JUMPDEST SWAP1 DUP2 MSTORE PUSH1 0x20 ADD SWAP1 JUMP JUMPDEST PUSH1 0x1 PUSH1 0x1 PUSH1 0xE0 SHL SUB NOT SWAP2 SWAP1 SWAP2 AND DUP2 MSTORE PUSH1 0x20 ADD SWAP1 JUMP INVALID LOG2 PUSH5 0x6970667358 0x22 SLT KECCAK256 0xAE 0xDE 0xBC DUP14 0x5D 0xD9 0xE0 0xF8 0xAC PUSH12 0xA82922F951DA5A57AAF49F5C PUSH9 0xB1C6DE8DC9EC90050A PUSH5 0x736F6C6343 STOP SMOD MOD STOP CALLER "},"methodIdentifiers":{"ERC721_LAZY_ASSET_CLASS()":"94d5e89d","MINT_AND_TRANSFER_TYPEHASH()":"7987105f"}},"storageLayout":{"storage":[],"types":null}}}}