{"contracts/ExchangeV2.sol":{"LibOrderDataV3":{"abi":[{"inputs":[],"name":"V3","outputs":[{"internalType":"bytes4","name":"","type":"bytes4"}],"stateMutability":"view","type":"function"}],"evm":{"bytecode":{"linkReferences":{},"object":"60c1610025600b82828239805160001a60731461001857fe5b30600052607381538281f3fe730000000000000000000000000000000000000000301460806040526004361060335760003560e01c80632fb42d70146038575b600080fd5b603e6052565b604051604991906076565b60405180910390f35b7f4ade54ca82b345967b61d43a7b6e1c256d140cceb65202e7117104371c17959c81565b6001600160e01b03199190911681526020019056fea2646970667358221220b89a0fc5f5bd9a986e892d2c1549affceb321576c6fb9ba0c982796794b7c6d464736f6c63430007060033","opcodes":"PUSH1 0xC1 PUSH2 0x25 PUSH1 0xB DUP3 DUP3 DUP3 CODECOPY DUP1 MLOAD PUSH1 0x0 BYTE PUSH1 0x73 EQ PUSH2 0x18 JUMPI INVALID JUMPDEST ADDRESS PUSH1 0x0 MSTORE PUSH1 0x73 DUP2 MSTORE8 DUP3 DUP2 RETURN INVALID PUSH20 0x0 ADDRESS EQ PUSH1 0x80 PUSH1 0x40 MSTORE PUSH1 0x4 CALLDATASIZE LT PUSH1 0x33 JUMPI PUSH1 0x0 CALLDATALOAD PUSH1 0xE0 SHR DUP1 PUSH4 0x2FB42D70 EQ PUSH1 0x38 JUMPI JUMPDEST PUSH1 0x0 DUP1 REVERT JUMPDEST PUSH1 0x3E PUSH1 0x52 JUMP JUMPDEST PUSH1 0x40 MLOAD PUSH1 0x49 SWAP2 SWAP1 PUSH1 0x76 JUMP JUMPDEST PUSH1 0x40 MLOAD DUP1 SWAP2 SUB SWAP1 RETURN JUMPDEST PUSH32 0x4ADE54CA82B345967B61D43A7B6E1C256D140CCEB65202E7117104371C17959C DUP2 JUMP JUMPDEST PUSH1 0x1 PUSH1 0x1 PUSH1 0xE0 SHL SUB NOT SWAP2 SWAP1 SWAP2 AND DUP2 MSTORE PUSH1 0x20 ADD SWAP1 JUMP INVALID LOG2 PUSH5 0x6970667358 0x22 SLT KECCAK256 0xB8 SWAP11 0xF 0xC5 CREATE2 0xBD SWAP11 SWAP9 PUSH15 0x892D2C1549AFFCEB321576C6FB9BA0 0xC9 DUP3 PUSH26 0x6794B7C6D464736F6C6343000706003300000000000000000000 "},"methodIdentifiers":{"V3()":"2fb42d70"}},"storageLayout":{"storage":[],"types":null}}}}