{"contracts/ExchangeV2.sol":{"ExchangeV2":{"abi":[{"inputs":[],"stateMutability":"nonpayable","type":"constructor"},{"anonymous":false,"inputs":[{"indexed":false,"internalType":"uint256","name":"oldValue","type":"uint256"},{"indexed":false,"internalType":"uint256","name":"newValue","type":"uint256"}],"name":"BuyerFeeAmountChanged","type":"event"},{"anonymous":false,"inputs":[{"indexed":false,"internalType":"bytes32","name":"hash","type":"bytes32"}],"name":"Cancel","type":"event"},{"anonymous":false,"inputs":[{"indexed":false,"internalType":"address","name":"maker","type":"address"},{"indexed":false,"internalType":"bytes","name":"sig","type":"bytes"},{"indexed":false,"internalType":"uint16","name":"index","type":"uint16"}],"name":"CancelOrder","type":"event"},{"anonymous":false,"inputs":[{"indexed":false,"internalType":"address","name":"oldValue","type":"address"},{"indexed":false,"internalType":"address","name":"newValue","type":"address"}],"name":"FeeReceiverChanged","type":"event"},{"anonymous":false,"inputs":[{"indexed":false,"internalType":"enum LibOrder.OrderType","name":"orderType","type":"uint8"},{"indexed":false,"internalType":"address","name":"maker","type":"address"},{"indexed":false,"internalType":"address","name":"taker","type":"address"},{"indexed":false,"internalType":"bytes","name":"sig","type":"bytes"},{"indexed":false,"internalType":"uint16","name":"index","type":"uint16"},{"indexed":false,"internalType":"uint256","name":"takeQty","type":"uint256"},{"indexed":false,"internalType":"uint256","name":"takeAssetId","type":"uint256"},{"indexed":false,"internalType":"uint256","name":"currentFilledValue","type":"uint256"},{"indexed":false,"internalType":"uint256","name":"randomValue","type":"uint256"}],"name":"FillOrder","type":"event"},{"anonymous":false,"inputs":[{"indexed":false,"internalType":"bytes32","name":"leftHash","type":"bytes32"},{"indexed":false,"internalType":"bytes32","name":"rightHash","type":"bytes32"},{"indexed":false,"internalType":"uint256","name":"newLeftFill","type":"uint256"},{"indexed":false,"internalType":"uint256","name":"newRightFill","type":"uint256"}],"name":"Match","type":"event"},{"anonymous":false,"inputs":[{"indexed":true,"internalType":"uint256","name":"assetType","type":"uint256"},{"indexed":false,"internalType":"address","name":"matcher","type":"address"}],"name":"MatcherChange","type":"event"},{"anonymous":false,"inputs":[{"indexed":true,"internalType":"address","name":"previousOwner","type":"address"},{"indexed":true,"internalType":"address","name":"newOwner","type":"address"}],"name":"OwnershipTransferred","type":"event"},{"anonymous":false,"inputs":[{"indexed":true,"internalType":"uint256","name":"assetType","type":"uint256"},{"indexed":false,"internalType":"address","name":"proxy","type":"address"}],"name":"ProxyChange","type":"event"},{"anonymous":false,"inputs":[{"indexed":false,"internalType":"uint256","name":"oldValue","type":"uint256"},{"indexed":false,"internalType":"uint256","name":"newValue","type":"uint256"}],"name":"SellerFeeAmountChanged","type":"event"},{"inputs":[{"internalType":"address","name":"_transferProxy","type":"address"},{"internalType":"address","name":"_erc20TransferProxy","type":"address"},{"internalType":"uint256","name":"newProtocolFee","type":"uint256"},{"internalType":"address","name":"newDefaultFeeReceiver","type":"address"},{"internalType":"contract IRoyaltiesProvider","name":"newRoyaltiesProvider","type":"address"}],"name":"__ExchangeV2_init","outputs":[],"stateMutability":"nonpayable","type":"function"},{"inputs":[],"name":"_owner","outputs":[{"internalType":"address","name":"","type":"address"}],"stateMutability":"view","type":"function"},{"inputs":[{"components":[{"internalType":"enum LibOrder.OrderType","name":"orderType","type":"uint8"},{"internalType":"address","name":"maker","type":"address"},{"components":[{"internalType":"uint8","name":"assetType","type":"uint8"},{"internalType":"address","name":"contractAddress","type":"address"},{"internalType":"uint256","name":"value","type":"uint256"},{"internalType":"uint256","name":"id","type":"uint256"}],"internalType":"struct LibAsset.Asset","name":"makeAsset","type":"tuple"},{"internalType":"address","name":"taker","type":"address"},{"components":[{"internalType":"uint8","name":"assetType","type":"uint8"},{"internalType":"address","name":"contractAddress","type":"address"},{"internalType":"uint256","name":"value","type":"uint256"},{"internalType":"uint256","name":"id","type":"uint256"}],"internalType":"struct LibAsset.Asset","name":"takeAsset","type":"tuple"},{"internalType":"uint256","name":"salt","type":"uint256"},{"internalType":"uint256","name":"start","type":"uint256"},{"internalType":"uint256","name":"end","type":"uint256"},{"components":[{"internalType":"address","name":"receiver","type":"address"},{"internalType":"uint256","name":"amount","type":"uint256"}],"internalType":"struct LibOrder.Fee","name":"originFee","type":"tuple"},{"components":[{"internalType":"address","name":"receiver","type":"address"},{"internalType":"uint256","name":"amount","type":"uint256"}],"internalType":"struct LibOrder.Fee","name":"royaltyFee","type":"tuple"},{"internalType":"bytes","name":"sig","type":"bytes"},{"internalType":"bytes32","name":"root","type":"bytes32"},{"internalType":"bytes32[]","name":"proof","type":"bytes32[]"},{"internalType":"uint16","name":"index","type":"uint16"}],"internalType":"struct LibOrder.Order","name":"order","type":"tuple"}],"name":"cancel","outputs":[],"stateMutability":"nonpayable","type":"function"},{"inputs":[{"components":[{"internalType":"enum LibOrder.OrderType","name":"orderType","type":"uint8"},{"internalType":"address","name":"maker","type":"address"},{"components":[{"internalType":"uint8","name":"assetType","type":"uint8"},{"internalType":"address","name":"contractAddress","type":"address"},{"internalType":"uint256","name":"value","type":"uint256"},{"internalType":"uint256","name":"id","type":"uint256"}],"internalType":"struct LibAsset.Asset","name":"makeAsset","type":"tuple"},{"internalType":"address","name":"taker","type":"address"},{"components":[{"internalType":"uint8","name":"assetType","type":"uint8"},{"internalType":"address","name":"contractAddress","type":"address"},{"internalType":"uint256","name":"value","type":"uint256"},{"internalType":"uint256","name":"id","type":"uint256"}],"internalType":"struct LibAsset.Asset","name":"takeAsset","type":"tuple"},{"internalType":"uint256","name":"salt","type":"uint256"},{"internalType":"uint256","name":"start","type":"uint256"},{"internalType":"uint256","name":"end","type":"uint256"},{"components":[{"internalType":"address","name":"receiver","type":"address"},{"internalType":"uint256","name":"amount","type":"uint256"}],"internalType":"struct LibOrder.Fee","name":"originFee","type":"tuple"},{"components":[{"internalType":"address","name":"receiver","type":"address"},{"internalType":"uint256","name":"amount","type":"uint256"}],"internalType":"struct LibOrder.Fee","name":"royaltyFee","type":"tuple"},{"internalType":"bytes","name":"sig","type":"bytes"},{"internalType":"bytes32","name":"root","type":"bytes32"},{"internalType":"bytes32[]","name":"proof","type":"bytes32[]"},{"internalType":"uint16","name":"index","type":"uint16"}],"internalType":"struct LibOrder.Order","name":"order","type":"tuple"}],"name":"cancelOrder","outputs":[],"stateMutability":"nonpayable","type":"function"},{"inputs":[{"components":[{"components":[{"internalType":"enum LibOrder.OrderType","name":"orderType","type":"uint8"},{"internalType":"address","name":"maker","type":"address"},{"components":[{"internalType":"uint8","name":"assetType","type":"uint8"},{"internalType":"address","name":"contractAddress","type":"address"},{"internalType":"uint256","name":"value","type":"uint256"},{"internalType":"uint256","name":"id","type":"uint256"}],"internalType":"struct LibAsset.Asset","name":"makeAsset","type":"tuple"},{"internalType":"address","name":"taker","type":"address"},{"components":[{"internalType":"uint8","name":"assetType","type":"uint8"},{"internalType":"address","name":"contractAddress","type":"address"},{"internalType":"uint256","name":"value","type":"uint256"},{"internalType":"uint256","name":"id","type":"uint256"}],"internalType":"struct LibAsset.Asset","name":"takeAsset","type":"tuple"},{"internalType":"uint256","name":"salt","type":"uint256"},{"internalType":"uint256","name":"start","type":"uint256"},{"internalType":"uint256","name":"end","type":"uint256"},{"components":[{"internalType":"address","name":"receiver","type":"address"},{"internalType":"uint256","name":"amount","type":"uint256"}],"internalType":"struct LibOrder.Fee","name":"originFee","type":"tuple"},{"components":[{"internalType":"address","name":"receiver","type":"address"},{"internalType":"uint256","name":"amount","type":"uint256"}],"internalType":"struct LibOrder.Fee","name":"royaltyFee","type":"tuple"},{"internalType":"bytes","name":"sig","type":"bytes"},{"internalType":"bytes32","name":"root","type":"bytes32"},{"internalType":"bytes32[]","name":"proof","type":"bytes32[]"},{"internalType":"uint16","name":"index","type":"uint16"}],"internalType":"struct LibOrder.Order","name":"bidOrder","type":"tuple"},{"components":[{"internalType":"enum LibOrder.OrderType","name":"orderType","type":"uint8"},{"internalType":"address","name":"maker","type":"address"},{"components":[{"internalType":"uint8","name":"assetType","type":"uint8"},{"internalType":"address","name":"contractAddress","type":"address"},{"internalType":"uint256","name":"value","type":"uint256"},{"internalType":"uint256","name":"id","type":"uint256"}],"internalType":"struct LibAsset.Asset","name":"makeAsset","type":"tuple"},{"internalType":"address","name":"taker","type":"address"},{"components":[{"internalType":"uint8","name":"assetType","type":"uint8"},{"internalType":"address","name":"contractAddress","type":"address"},{"internalType":"uint256","name":"value","type":"uint256"},{"internalType":"uint256","name":"id","type":"uint256"}],"internalType":"struct LibAsset.Asset","name":"takeAsset","type":"tuple"},{"internalType":"uint256","name":"salt","type":"uint256"},{"internalType":"uint256","name":"start","type":"uint256"},{"internalType":"uint256","name":"end","type":"uint256"},{"components":[{"internalType":"address","name":"receiver","type":"address"},{"internalType":"uint256","name":"amount","type":"uint256"}],"internalType":"struct LibOrder.Fee","name":"originFee","type":"tuple"},{"components":[{"internalType":"address","name":"receiver","type":"address"},{"internalType":"uint256","name":"amount","type":"uint256"}],"internalType":"struct LibOrder.Fee","name":"royaltyFee","type":"tuple"},{"internalType":"bytes","name":"sig","type":"bytes"},{"internalType":"bytes32","name":"root","type":"bytes32"},{"internalType":"bytes32[]","name":"proof","type":"bytes32[]"},{"internalType":"uint16","name":"index","type":"uint16"}],"internalType":"struct LibOrder.Order","name":"sellOrder","type":"tuple"}],"internalType":"struct LibDirectTransfer.AcceptBid","name":"direct","type":"tuple"}],"name":"directAcceptBid","outputs":[],"stateMutability":"payable","type":"function"},{"inputs":[{"components":[{"components":[{"internalType":"address","name":"maker","type":"address"},{"components":[{"internalType":"uint8","name":"assetType","type":"uint8"},{"internalType":"address","name":"contractAddress","type":"address"},{"internalType":"uint256","name":"value","type":"uint256"},{"internalType":"uint256","name":"id","type":"uint256"}],"internalType":"struct LibAsset.Asset","name":"makeAsset","type":"tuple"},{"internalType":"address","name":"taker","type":"address"},{"components":[{"internalType":"uint8","name":"assetType","type":"uint8"},{"internalType":"address","name":"contractAddress","type":"address"},{"internalType":"uint256","name":"value","type":"uint256"}],"internalType":"struct LibAsset.CollectionAsset","name":"bidCollectionAsset","type":"tuple"},{"internalType":"uint256","name":"salt","type":"uint256"},{"internalType":"uint256","name":"start","type":"uint256"},{"internalType":"uint256","name":"end","type":"uint256"},{"components":[{"internalType":"address","name":"receiver","type":"address"},{"internalType":"uint256","name":"amount","type":"uint256"}],"internalType":"struct LibOrder.Fee","name":"originFee","type":"tuple"},{"components":[{"internalType":"address","name":"receiver","type":"address"},{"internalType":"uint256","name":"amount","type":"uint256"}],"internalType":"struct LibOrder.Fee","name":"royaltyFee","type":"tuple"},{"internalType":"bytes","name":"sig","type":"bytes"},{"internalType":"bytes32","name":"root","type":"bytes32"},{"internalType":"bytes32[]","name":"proof","type":"bytes32[]"},{"internalType":"uint16","name":"index","type":"uint16"}],"internalType":"struct LibOrder.BidCollectionOrder","name":"bidOrder","type":"tuple"},{"components":[{"internalType":"enum LibOrder.OrderType","name":"orderType","type":"uint8"},{"internalType":"address","name":"maker","type":"address"},{"components":[{"internalType":"uint8","name":"assetType","type":"uint8"},{"internalType":"address","name":"contractAddress","type":"address"},{"internalType":"uint256","name":"value","type":"uint256"},{"internalType":"uint256","name":"id","type":"uint256"}],"internalType":"struct LibAsset.Asset","name":"makeAsset","type":"tuple"},{"internalType":"address","name":"taker","type":"address"},{"components":[{"internalType":"uint8","name":"assetType","type":"uint8"},{"internalType":"address","name":"contractAddress","type":"address"},{"internalType":"uint256","name":"value","type":"uint256"},{"internalType":"uint256","name":"id","type":"uint256"}],"internalType":"struct LibAsset.Asset","name":"takeAsset","type":"tuple"},{"internalType":"uint256","name":"salt","type":"uint256"},{"internalType":"uint256","name":"start","type":"uint256"},{"internalType":"uint256","name":"end","type":"uint256"},{"components":[{"internalType":"address","name":"receiver","type":"address"},{"internalType":"uint256","name":"amount","type":"uint256"}],"internalType":"struct LibOrder.Fee","name":"originFee","type":"tuple"},{"components":[{"internalType":"address","name":"receiver","type":"address"},{"internalType":"uint256","name":"amount","type":"uint256"}],"internalType":"struct LibOrder.Fee","name":"royaltyFee","type":"tuple"},{"internalType":"bytes","name":"sig","type":"bytes"},{"internalType":"bytes32","name":"root","type":"bytes32"},{"internalType":"bytes32[]","name":"proof","type":"bytes32[]"},{"internalType":"uint16","name":"index","type":"uint16"}],"internalType":"struct LibOrder.Order","name":"sellOrder","type":"tuple"}],"internalType":"struct LibDirectTransfer.AcceptBidCollection","name":"direct","type":"tuple"}],"name":"directAcceptBidCollection","outputs":[],"stateMutability":"payable","type":"function"},{"inputs":[{"internalType":"bytes32","name":"","type":"bytes32"}],"name":"fills","outputs":[{"internalType":"uint256","name":"","type":"uint256"}],"stateMutability":"view","type":"function"},{"inputs":[{"internalType":"uint8","name":"index","type":"uint8"}],"name":"getTransferProxy","outputs":[{"internalType":"address","name":"","type":"address"}],"stateMutability":"view","type":"function"},{"inputs":[{"components":[{"internalType":"enum LibOrder.OrderType","name":"orderType","type":"uint8"},{"internalType":"address","name":"maker","type":"address"},{"components":[{"internalType":"uint8","name":"assetType","type":"uint8"},{"internalType":"address","name":"contractAddress","type":"address"},{"internalType":"uint256","name":"value","type":"uint256"},{"internalType":"uint256","name":"id","type":"uint256"}],"internalType":"struct LibAsset.Asset","name":"makeAsset","type":"tuple"},{"internalType":"address","name":"taker","type":"address"},{"components":[{"internalType":"uint8","name":"assetType","type":"uint8"},{"internalType":"address","name":"contractAddress","type":"address"},{"internalType":"uint256","name":"value","type":"uint256"},{"internalType":"uint256","name":"id","type":"uint256"}],"internalType":"struct LibAsset.Asset","name":"takeAsset","type":"tuple"},{"internalType":"uint256","name":"salt","type":"uint256"},{"internalType":"uint256","name":"start","type":"uint256"},{"internalType":"uint256","name":"end","type":"uint256"},{"components":[{"internalType":"address","name":"receiver","type":"address"},{"internalType":"uint256","name":"amount","type":"uint256"}],"internalType":"struct LibOrder.Fee","name":"originFee","type":"tuple"},{"components":[{"internalType":"address","name":"receiver","type":"address"},{"internalType":"uint256","name":"amount","type":"uint256"}],"internalType":"struct LibOrder.Fee","name":"royaltyFee","type":"tuple"},{"internalType":"bytes","name":"sig","type":"bytes"},{"internalType":"bytes32","name":"root","type":"bytes32"},{"internalType":"bytes32[]","name":"proof","type":"bytes32[]"},{"internalType":"uint16","name":"index","type":"uint16"}],"internalType":"struct LibOrder.Order[]","name":"orderLefts","type":"tuple[]"},{"components":[{"internalType":"enum LibOrder.OrderType","name":"orderType","type":"uint8"},{"internalType":"address","name":"maker","type":"address"},{"components":[{"internalType":"uint8","name":"assetType","type":"uint8"},{"internalType":"address","name":"contractAddress","type":"address"},{"internalType":"uint256","name":"value","type":"uint256"},{"internalType":"uint256","name":"id","type":"uint256"}],"internalType":"struct LibAsset.Asset","name":"makeAsset","type":"tuple"},{"internalType":"address","name":"taker","type":"address"},{"components":[{"internalType":"uint8","name":"assetType","type":"uint8"},{"internalType":"address","name":"contractAddress","type":"address"},{"internalType":"uint256","name":"value","type":"uint256"},{"internalType":"uint256","name":"id","type":"uint256"}],"internalType":"struct LibAsset.Asset","name":"takeAsset","type":"tuple"},{"internalType":"uint256","name":"salt","type":"uint256"},{"internalType":"uint256","name":"start","type":"uint256"},{"internalType":"uint256","name":"end","type":"uint256"},{"components":[{"internalType":"address","name":"receiver","type":"address"},{"internalType":"uint256","name":"amount","type":"uint256"}],"internalType":"struct LibOrder.Fee","name":"originFee","type":"tuple"},{"components":[{"internalType":"address","name":"receiver","type":"address"},{"internalType":"uint256","name":"amount","type":"uint256"}],"internalType":"struct LibOrder.Fee","name":"royaltyFee","type":"tuple"},{"internalType":"bytes","name":"sig","type":"bytes"},{"internalType":"bytes32","name":"root","type":"bytes32"},{"internalType":"bytes32[]","name":"proof","type":"bytes32[]"},{"internalType":"uint16","name":"index","type":"uint16"}],"internalType":"struct LibOrder.Order[]","name":"orderRights","type":"tuple[]"}],"name":"matchOrders","outputs":[],"stateMutability":"payable","type":"function"},{"inputs":[],"name":"owner","outputs":[{"internalType":"address","name":"","type":"address"}],"stateMutability":"view","type":"function"},{"inputs":[],"name":"protocolFee","outputs":[{"internalType":"address","name":"receiver","type":"address"},{"internalType":"uint48","name":"buyerAmount","type":"uint48"},{"internalType":"uint48","name":"sellerAmount","type":"uint48"}],"stateMutability":"view","type":"function"},{"inputs":[],"name":"renounceOwnership","outputs":[],"stateMutability":"nonpayable","type":"function"},{"inputs":[],"name":"royaltiesRegistry","outputs":[{"internalType":"contract IRoyaltiesProvider","name":"","type":"address"}],"stateMutability":"view","type":"function"},{"inputs":[{"internalType":"address","name":"_receiver","type":"address"},{"internalType":"uint48","name":"_buyerAmount","type":"uint48"},{"internalType":"uint48","name":"_sellerAmount","type":"uint48"}],"name":"setAllProtocolFeeData","outputs":[],"stateMutability":"nonpayable","type":"function"},{"inputs":[{"internalType":"uint256","name":"assetType","type":"uint256"},{"internalType":"address","name":"matcher","type":"address"}],"name":"setAssetMatcher","outputs":[],"stateMutability":"nonpayable","type":"function"},{"inputs":[{"internalType":"uint48","name":"_buyerAmount","type":"uint48"}],"name":"setPrtocolFeeBuyerAmount","outputs":[],"stateMutability":"nonpayable","type":"function"},{"inputs":[{"internalType":"address","name":"_receiver","type":"address"}],"name":"setPrtocolFeeReceiver","outputs":[],"stateMutability":"nonpayable","type":"function"},{"inputs":[{"internalType":"uint48","name":"_sellerAmount","type":"uint48"}],"name":"setPrtocolFeeSellerAmount","outputs":[],"stateMutability":"nonpayable","type":"function"},{"inputs":[{"internalType":"contract IRoyaltiesProvider","name":"newRoyaltiesRegistry","type":"address"}],"name":"setRoyaltiesRegistry","outputs":[],"stateMutability":"nonpayable","type":"function"},{"inputs":[{"internalType":"uint8","name":"index","type":"uint8"},{"internalType":"address","name":"proxy","type":"address"}],"name":"setTransferProxy","outputs":[],"stateMutability":"nonpayable","type":"function"},{"inputs":[{"internalType":"address","name":"newOwner","type":"address"}],"name":"transferOwnership","outputs":[],"stateMutability":"nonpayable","type":"function"},{"inputs":[{"internalType":"bytes32","name":"root","type":"bytes32"},{"internalType":"bytes32[]","name":"proof","type":"bytes32[]"},{"components":[{"internalType":"enum LibOrder.OrderType","name":"orderType","type":"uint8"},{"internalType":"address","name":"maker","type":"address"},{"components":[{"internalType":"uint8","name":"assetType","type":"uint8"},{"internalType":"address","name":"contractAddress","type":"address"},{"internalType":"uint256","name":"value","type":"uint256"},{"internalType":"uint256","name":"id","type":"uint256"}],"internalType":"struct LibAsset.Asset","name":"makeAsset","type":"tuple"},{"internalType":"address","name":"taker","type":"address"},{"components":[{"internalType":"uint8","name":"assetType","type":"uint8"},{"internalType":"address","name":"contractAddress","type":"address"},{"internalType":"uint256","name":"value","type":"uint256"},{"internalType":"uint256","name":"id","type":"uint256"}],"internalType":"struct LibAsset.Asset","name":"takeAsset","type":"tuple"},{"internalType":"uint256","name":"salt","type":"uint256"},{"internalType":"uint256","name":"start","type":"uint256"},{"internalType":"uint256","name":"end","type":"uint256"},{"components":[{"internalType":"address","name":"receiver","type":"address"},{"internalType":"uint256","name":"amount","type":"uint256"}],"internalType":"struct LibOrder.Fee","name":"originFee","type":"tuple"},{"components":[{"internalType":"address","name":"receiver","type":"address"},{"internalType":"uint256","name":"amount","type":"uint256"}],"internalType":"struct LibOrder.Fee","name":"royaltyFee","type":"tuple"},{"internalType":"bytes","name":"sig","type":"bytes"},{"internalType":"bytes32","name":"root","type":"bytes32"},{"internalType":"bytes32[]","name":"proof","type":"bytes32[]"},{"internalType":"uint16","name":"index","type":"uint16"}],"internalType":"struct LibOrder.Order","name":"order","type":"tuple"}],"name":"validateListing","outputs":[{"internalType":"bool","name":"isValid","type":"bool"}],"stateMutability":"pure","type":"function"}],"evm":{"bytecode":{"linkReferences":{},"object":"60806040526275327560e81b60c955603160f81b60ca556000610130553480156200002957600080fd5b50600161012f55603380546001600160a01b031916331790556200004c62000052565b62000253565b600054610100900460ff16806200006e57506200006e62000136565b806200007d575060005460ff16155b620000a55760405162461bcd60e51b81526004016200009c9062000205565b60405180910390fd5b600054610100900460ff16158015620000d1576000805460ff1961ff0019909116610100171660011790555b620001206040518060400160405280600c81526020016b5837323145786368616e676560a01b815250604051806040016040528060018152602001603160f81b8152506200015460201b60201c565b801562000133576000805461ff00191690555b50565b60006200014e30620001ff60201b620011e81760201c565b15905090565b600054610100900460ff16806200017057506200017062000136565b806200017f575060005460ff16155b6200019e5760405162461bcd60e51b81526004016200009c9062000205565b600054610100900460ff16158015620001ca576000805460ff1961ff0019909116610100171660011790555b825160208085019190912083519184019190912060c99190915560ca558015620001fa576000805461ff00191690555b505050565b3b151590565b6020808252602e908201527f496e697469616c697a61626c653a20636f6e747261637420697320616c72656160408201526d191e481a5b9a5d1a585b1a5e995960921b606082015260800190565b61461e80620002636000396000f3fe6080604052600436106101355760003560e01c8063b2bdfa7b116100ab578063d362d3ff1161006f578063d362d3ff14610337578063d6ca6ab714610357578063eae3ad6f14610377578063f2fde38b14610397578063f75743ce146103b7578063faa2cc7c146103ca57610135565b8063b2bdfa7b146102a2578063b36c9b29146102b7578063b74c8e9a146102d7578063bc158c2d146102f7578063c648a6871461031757610135565b80634cfe4cd8116100fd5780634cfe4cd8146101f25780636d8f069414610212578063715018a6146102345780638b42af3e146102495780638da5cb5b14610269578063b0e21e8a1461027e57610135565b80631372a6251461013a57806320158c441461015c57806333033608146101925780633be89922146101a55780633e2d95ff146101c5575b600080fd5b34801561014657600080fd5b5061015a61015536600461345a565b6103dd565b005b34801561016857600080fd5b5061017c610177366004613585565b610493565b60405161018991906139cc565b60405180910390f35b61015a6101a036600461362e565b6104a6565b3480156101b157600080fd5b5061015a6101c036600461343e565b61061e565b3480156101d157600080fd5b506101e56101e036600461359d565b610680565b60405161018991906139c1565b3480156101fe57600080fd5b5061015a61020d36600461377c565b6106a2565b34801561021e57600080fd5b50610227610748565b6040516101899190613897565b34801561024057600080fd5b5061015a610758565b34801561025557600080fd5b5061015a6102643660046136cd565b6107e1565b34801561027557600080fd5b506102276109c1565b34801561028a57600080fd5b506102936109d0565b60405161018993929190613998565b3480156102ae57600080fd5b506102276109fb565b3480156102c357600080fd5b506102276102d2366004613760565b610a0a565b3480156102e357600080fd5b5061015a6102f23660046134c1565b610a2c565b34801561030357600080fd5b5061015a61031236600461343e565b610a8b565b34801561032357600080fd5b5061015a610332366004613717565b610b35565b34801561034357600080fd5b5061015a6103523660046136cd565b610bcd565b34801561036357600080fd5b5061015a610372366004613746565b610c88565b34801561038357600080fd5b5061015a610392366004613746565b610d3f565b3480156103a357600080fd5b5061015a6103b236600461343e565b610df3565b61015a6103c536600461362e565b610eb4565b61015a6103d8366004613505565b611183565b600054610100900460ff16806103f657506103f66111ee565b80610404575060005460ff16155b6104295760405162461bcd60e51b815260040161042090613f5e565b60405180910390fd5b600054610100900460ff16158015610454576000805460ff1961ff0019909116610100171660011790555b61045c6111ff565b610464611282565b61046e868661135c565b610479848484611400565b801561048b576000805461ff00191690555b505050505050565b6101316020526000908152604090205481565b60006104b28280614412565b6104bb90614586565b905060006104cc6020840184614412565b6104d590614586565b60808301516040908101518183015190910151919250908181111561050c5760405162461bcd60e51b815260040161042090614217565b61051b848561014001516114a2565b61052a838461014001516114a2565b6000828560400151604001518161053d57fe5b0490506000828202905085604001516040015181111561056f5760405162461bcd60e51b815260040161042090613d96565b604080870151810182905260808088015182018590526020808801516001600160a01b0390811660608b01528884015184018890529188015183018490528089015190911660009081526101329091528181206101408901519251919290916105d89190613804565b90815260408051602092819003830190206101a08a015161ffff1660009081529252902054905061060986886114b9565b6106148688836115f3565b5050505050505050565b610626611799565b6001600160a01b03166106376109c1565b6001600160a01b03161461065d5760405162461bcd60e51b81526004016104209061405c565b61016580546001600160a01b0319166001600160a01b0392909216919091179055565b60008061068c8361179d565b9050610699848683611814565b95945050505050565b6106aa611799565b6001600160a01b03166106bb6109c1565b6001600160a01b0316146106e15760405162461bcd60e51b81526004016104209061405c565b60ff82166000818152609760205260409081902080546001600160a01b0319166001600160a01b038516179055517f8edda873a8ad561ecebeb71ceb3ae6bcb70c2b76a3fcb869859895c4d4fc74169061073c908490613897565b60405180910390a25050565b610165546001600160a01b031681565b610760611799565b6001600160a01b03166107716109c1565b6001600160a01b0316146107975760405162461bcd60e51b81526004016104209061405c565b6033546040516000916001600160a01b0316907f8be0079c531659141344cd1fd0a4f28419497f9722a3daafe3b4186f6b6457e0908390a3603380546001600160a01b0319169055565b600261012f54141561083a576040805162461bcd60e51b815260206004820152601f60248201527f5265656e7472616e637947756172643a207265656e7472616e742063616c6c00604482015290519081900360640190fd5b600261012f5560208101516001600160a01b0316610856611799565b6001600160a01b03161461087c5760405162461bcd60e51b8152600401610420906142c5565b6101326000610889611799565b6001600160a01b03166001600160a01b031681526020019081526020016000208161014001516040516108bc9190613804565b90815260408051602092819003830190206101a084015161ffff1660009081529252902054156108fe5760405162461bcd60e51b8152600401610420906142ea565b8060400151604001516101326000610914611799565b6001600160a01b03166001600160a01b031681526020019081526020016000208261014001516040516109479190613804565b90815260408051602092819003830190206101a085015161ffff16600090815292529020557f86f8a270a95f47ad48690dd66eda181ea3d229312582e7d222c11e24f39947d0610995611799565b826101400151836101a001516040516109b0939291906138ab565b60405180910390a150600161012f55565b6033546001600160a01b031690565b610164546001600160a01b0381169065ffffffffffff600160a01b8204811691600160d01b90041683565b6033546001600160a01b031681565b60ff81166000908152609760205260409020546001600160a01b03165b919050565b610a34611799565b6001600160a01b0316610a456109c1565b6001600160a01b031614610a6b5760405162461bcd60e51b81526004016104209061405c565b610a7483610a8b565b610a7d82610c88565b610a8681610d3f565b505050565b610a93611799565b6001600160a01b0316610aa46109c1565b6001600160a01b031614610aca5760405162461bcd60e51b81526004016104209061405c565b610164546040517fa4b009cc442411b602eaf94bc0579b6abdb8fd90b4ef5b9426e270038906bd0391610b0a916001600160a01b039091169084906138e3565b60405180910390a161016480546001600160a01b0319166001600160a01b0392909216919091179055565b610b3d611799565b6001600160a01b0316610b4e6109c1565b6001600160a01b031614610b745760405162461bcd60e51b81526004016104209061405c565b6000828152606560205260409081902080546001600160a01b0319166001600160a01b0384161790555182907f58204093ed36d15d7f2a89fdaca20c53f1e02a2ce5686ace9247d1b96e9ec67b9061073c908490613897565b80602001516001600160a01b0316610be3611799565b6001600160a01b031614610c095760405162461bcd60e51b8152600401610420906142c5565b60a0810151610c2a5760405162461bcd60e51b815260040161042090613d31565b6000610c358261182c565b60008181526101316020526040908190206000199055519091507fe8d9861dbc9c663ed3accd261bbe2fe01e0d3d9e5f51fa38523b265c7757a93a90610c7c9083906139cc565b60405180910390a15050565b610c90611799565b6001600160a01b0316610ca16109c1565b6001600160a01b031614610cc75760405162461bcd60e51b81526004016104209061405c565b610164546040517f70bba4f904a93ba5c1af3a1bb602bc9c058551dbe963dfe0b6cb5bc11c5fea9e91610d0c91600160a01b90910465ffffffffffff169084906143d0565b60405180910390a1610164805465ffffffffffff909216600160a01b0265ffffffffffff60a01b19909216919091179055565b610d47611799565b6001600160a01b0316610d586109c1565b6001600160a01b031614610d7e5760405162461bcd60e51b81526004016104209061405c565b610164546040517fa8af9093caa9beb61d20432227c66258ceef926f21879b80f3adf22a4d19f13191610dc391600160d01b90910465ffffffffffff169084906143d0565b60405180910390a1610164805465ffffffffffff909216600160d01b026001600160d01b03909216919091179055565b610dfb611799565b6001600160a01b0316610e0c6109c1565b6001600160a01b031614610e325760405162461bcd60e51b81526004016104209061405c565b6001600160a01b038116610e585760405162461bcd60e51b815260040161042090613cb4565b6033546040516001600160a01b038084169216907f8be0079c531659141344cd1fd0a4f28419497f9722a3daafe3b4186f6b6457e090600090a3603380546001600160a01b0319166001600160a01b0392909216919091179055565b6000610ec082806143fc565b610ec990614468565b90506000610eda6020840184614412565b610ee390614586565b606083015160409081015181830151909101519192509081811115610f1a5760405162461bcd60e51b815260040161042090614217565b610f2984856101200151611865565b610f38838461014001516114a2565b60008285602001516040015181610f4b57fe5b04905060008282029050856020015160400151811115610f7d5760405162461bcd60e51b815260040161042090613d96565b60408051608080820183526020808a0180515160ff908116855281518301516001600160a01b039081168487015282518701518688015291516060908101518187015286519485018752808d018051519092168552815184015190921692840192909252905184015182850152888401518101519082015282516101c08101909352909160009080600381526020018a600001516001600160a01b0316815260200184815260200189602001516001600160a01b031681526020018381526020018a6080015181526020018a60a0015181526020018a60c0015181526020018a60e0015181526020018a610100015181526020018a610120015181526020018a610140015181526020018a610160015181526020018a610180015161ffff16815250905083816040015160400181815250508581608001516040018181525050876020015181606001906001600160a01b031690816001600160a01b031681525050868860400151604001818152505083886080015160400181815250506000610132600083602001516001600160a01b03166001600160a01b0316815260200190815260200160002082610140015160405161113a9190613804565b90815260408051602092819003830190206101a085015161ffff1660009081529252902054905061116b89836114b9565b6111768983836115f3565b5050505050505050505050565b80518251146111a45760405162461bcd60e51b815260040161042090614025565b60005b8251811015610a86576111e08382815181106111bf57fe5b60200260200101518383815181106111d357fe5b602002602001015161195b565b6001016111a7565b3b151590565b60006111f9306111e8565b15905090565b600054610100900460ff168061121857506112186111ee565b80611226575060005460ff16155b6112425760405162461bcd60e51b815260040161042090613f5e565b600054610100900460ff1615801561126d576000805460ff1961ff0019909116610100171660011790555b801561127f576000805461ff00191690555b50565b600054610100900460ff168061129b575061129b6111ee565b806112a9575060005460ff16155b6112c55760405162461bcd60e51b815260040161042090613f5e565b600054610100900460ff161580156112f0576000805460ff1961ff0019909116610100171660011790555b60006112fa611799565b603380546001600160a01b0319166001600160a01b038316908117909155604051919250906000907f8be0079c531659141344cd1fd0a4f28419497f9722a3daafe3b4186f6b6457e0908290a350801561127f576000805461ff001916905550565b60976020527fd6ca216b3b8b63bcc0099d5c8294d1780d598ac9b3a29b15c3c3e68c85f6e30c80546001600160a01b039283166001600160a01b0319918216179091557f017b8d24b2a0f404d68a0b2abb80fd2d4d2105d3355f1fc48a1949fe7fce12e5805493909216928116831790915560046000527ff6fe0582e0e323a551f456b66350a1ed549948a34fdd35be011d229e00171c1f80549091169091179055565b600054610100900460ff168061141957506114196111ee565b80611427575060005460ff16155b6114435760405162461bcd60e51b815260040161042090613f5e565b600054610100900460ff1615801561146e576000805460ff1961ff0019909116610100171660011790555b61016580546001600160a01b0319166001600160a01b038416179055801561149c576000805461ff00191690555b50505050565b6114ab826119e5565b6114b58282611a45565b5050565b6020808301516001600160a01b031660009081526101329091526040808220610140850151915190916114eb91613804565b90815260200160405180910390206000846101a0015161ffff1661ffff16815260200190815260200160002054905082604001516000015160ff16600314156115ad57610132600084602001516001600160a01b03166001600160a01b0316815260200190815260200160002083610140015160405161156b9190613804565b90815260408051602092819003830190206101a086015161ffff1660009081529252902054156115ad5760405162461bcd60e51b81526004016104209061411d565b82604001516000015160ff1660041415610a865781608001516040015181018360400151604001511015610a865760405162461bcd60e51b815260040161042090613d5f565b6000806116068585858860000151611c5d565b9150915061161685858484611ce6565b600060028651600381111561162757fe5b148061163f575060038651600381111561163d57fe5b145b611649578561164b565b845b90506000856080015160400151610132600084602001516001600160a01b03166001600160a01b031681526020019081526020016000208361014001516040516116959190613804565b90815260408051602092819003830181206101a087015161ffff16600090815290845282812054878501516001600160a01b031682526101329094529190912061014086015193909201935083926116ec91613804565b90815260200160405180910390206000846101a0015161ffff1661ffff168152602001908152602001600020819055507fa49e31994a96dc315540d6ff9e29428418addfa28f6ffcc73ddad3528e40ddc1876000015188602001518860200151856101400151866101a001518b60800151604001518c608001516060015188611773611def565b60405161178899989796959493929190613b71565b60405180910390a150505050505050565b3390565b6101a081015160208083015160408085015180840151606080830151838501519351828a015160808b0151808a015194810151818901519151985160009c6117f79c909b9a9899969896979596949594929392910161436b565b604051602081830303815290604052805190602001209050919050565b6000826118218584611e2f565b1490505b9392505050565b600081602001516118408360400151611e6c565b61184d8460800151611e6c565b8460a001516040516020016117f79493929190613959565b60808201516118c15781516001600160a01b0316158015906118a0575081516001600160a01b0316611895611799565b6001600160a01b0316145b6118bc5760405162461bcd60e51b815260040161042090613f2e565b6114b5565b60006118cc83611e89565b83519091506001600160a01b03166118e2611799565b6001600160a01b031614610a865782516001600160a01b031661190e8361190884611efd565b90611f19565b6001600160a01b0316146119345760405162461bcd60e51b8152600401610420906140c0565b82516001600160a01b0316610a865760405162461bcd60e51b815260040161042090613dcd565b6020808301516001600160a01b0316600090815261013290915260408082206101408501519151909161198d91613804565b90815260408051602092819003830190206101a086015161ffff166000908152925290205490506119bd83611f64565b6119c682611f64565b6119d083836114b9565b6119da8383611faa565b610a868383836115f3565b60c081015115806119f95750428160c00151105b611a155760405162461bcd60e51b815260040161042090613fac565b60e08101511580611a295750428160e00151115b61127f5760405162461bcd60e51b815260040161042090613cfa565b60208201516001600160a01b0316611a6f5760405162461bcd60e51b815260040161042090613dcd565b60a0820151611aa55760208201516001600160a01b0316158015906118a0575081602001516001600160a01b0316611895611799565b60008083516003811115611ab557fe5b1480611acd5750600283516003811115611acb57fe5b145b15611ae257611adb83612377565b9050611b1e565b600183516003811115611af157fe5b1415611b0657611adb838461016001516123eb565b60405162461bcd60e51b815260040161042090613c16565b82602001516001600160a01b0316611b34611799565b6001600160a01b031614610a8657611b5883602001516001600160a01b03166111e8565b15611c1c576020830151630b135d3f60e11b906001600160a01b0316631626ba7e611b8284611efd565b856040518363ffffffff1660e01b8152600401611ba0929190613a77565b60206040518083038186803b158015611bb857600080fd5b505afa158015611bcc573d6000803e3d6000fd5b505050506040513d601f19601f82011682018060405250810190611bf09190613606565b6001600160e01b03191614611c175760405162461bcd60e51b815260040161042090613eb7565b610a86565b82602001516001600160a01b0316611c378361190884611efd565b6001600160a01b031614610a865760405162461bcd60e51b815260040161042090613e75565b611c65613032565b611c6d613032565b611c8186604001518660800151868661244a565b805190925060ff16611ca55760405162461bcd60e51b815260040161042090614154565b611cb986608001518660400151868661244a565b805190915060ff16611cdd5760405162461bcd60e51b815260040161042090614154565b94509492505050565b600261012f541415611d3f576040805162461bcd60e51b815260206004820152601f60248201527f5265656e7472616e637947756172643a207265656e7472616e742063616c6c00604482015290519081900360640190fd5b600261012f556040805160808082018352848252845160ff908116600090815260976020818152868320546001600160a01b03908116828801528b820180518216888a01528b8301805183166060808b01919091528a519889018b528b89528b519097168652938352938890205481169186019190915290518116958401959095525190931692810192909252611dd591612491565b5050611de38484838561251c565b5050600161012f555050565b610130805460010190819055604051600091611e11914291339160200161386f565b6040516020818303038152906040528051906020012060001c905090565b600081815b8451811015611e6457611e5a82868381518110611e4d57fe5b6020026020010151612613565b9150600101611e34565b509392505050565b6000816000015182604001516040516020016117f79291906143e9565b60007fb6f220611a11c66f474a57bf25b071aa931c6b6d69ef98d48c4b24dbcd6642568260000151611ebe8460200151612635565b8460400151611ed08660600151612680565b86608001518760a001518860c001518961018001516040516020016117f7999897969594939291906139d5565b6000611f076126c5565b826040516020016117f7929190613851565b60008151604114611f3c5760405162461bcd60e51b815260040161042090613c7d565b60208201516040830151606084015160001a611f5a86828585612705565b9695505050505050565b600181516003811115611f7357fe5b141561127f57611f8e81610160015182610180015183610680565b61127f5760405162461bcd60e51b81526004016104209061429c565b611fb9828361014001516114a2565b611fc8818261014001516114a2565b60608201516001600160a01b0316156120145781606001516001600160a01b031681602001516001600160a01b0316146120145760405162461bcd60e51b815260040161042090614259565b60608101516001600160a01b0316156120605781602001516001600160a01b031681606001516001600160a01b0316146120605760405162461bcd60e51b815260040161042090613e31565b81604001516000015160ff1660031480612085575081604001516000015160ff166004145b156121ab5760808181015160409081015191840151810151908301515160009060ff166002146120b557346120bf565b8360400151604001515b905083604001516000015160ff16600214156121855760008460400151602001516001600160a01b03166370a0823186602001516040518263ffffffff1660e01b815260040161210f9190613897565b60206040518083038186803b15801561212757600080fd5b505afa15801561213b573d6000803e3d6000fd5b505050506040513d601f19601f8201168201806040525081019061215f91906136ff565b90508284028110156121835760405162461bcd60e51b815260040161042090614180565b505b8082840211156121a75760405162461bcd60e51b8152600401610420906141b7565b5050505b80604001516000015160ff16600314806121d0575080604001516000015160ff166004145b156114b55760808281015160409081015191830151810151908401515160009060ff166002146122005734612288565b8460400151602001516001600160a01b03166370a0823186602001516040518263ffffffff1660e01b81526004016122389190613897565b60206040518083038186803b15801561225057600080fd5b505afa158015612264573d6000803e3d6000fd5b505050506040513d601f19601f8201168201806040525081019061228891906136ff565b905084604001516000015160ff166002141561234e5760008560400151602001516001600160a01b03166370a0823187602001516040518263ffffffff1660e01b81526004016122d89190613897565b60206040518083038186803b1580156122f057600080fd5b505afa158015612304573d6000803e3d6000fd5b505050506040513d601f19601f8201168201806040525081019061232891906136ff565b905082840281101561234c5760405162461bcd60e51b815260040161042090614180565b505b8082840211156123705760405162461bcd60e51b8152600401610420906141b7565b5050505050565b60007f1132f06ab722f27908a7e495b5d507bad407e55f68dcf746f8d69417e3f1928c82602001516123ac8460400151612635565b84606001516123be8660800151612635565b8660a001518760c001518860e00151896101a001516040516020016117f7999897969594939291906139d5565b60007f15fed0d06db788fb9c02b4f593bd4adff95588d2736481b94a54a44275fae9fc8360200151838560a0015160405160200161242c9493929190613a27565b60405160208183030381529060405280519060200120905092915050565b612452613032565b600061246086868686612896565b9050806000015160ff16600114156124865761247e85878686612896565b915050612489565b90505b949350505050565b8151604080820151835190910151915190919060ff16600314806124ba575083515160ff166004145b156124db576124db8460000151856040015186606001518760200151612a66565b82515160ff16600314806124f4575082515160ff166004145b15612515576125158360000151846040015185606001518660200151612a66565b9250929050565b6000826000015160ff166001148061253b5750826000015160ff166002145b905060008161254a578461254c565b855b905060008261255b578661255d565b855b905060008361256c578461256e565b855b805160408501515191925060ff9182169116141561258b57600080fd5b600061271084610100015160200151836040015102816125a757fe5b049050600061271085610120015160200151846040015102816125c657fe5b049050600081838560400151030390506125ea848287602001518960200151612dc3565b6125fa8484308960200151612dc3565b6111768483886101200151600001518960200151612dc3565b600081831061262b576126268284612e1d565b611825565b6118258383612e1d565b60007f3eb30932c8579e044a08d6c2db9cfbbe826c3c715d5f913a07fdb3b62620fc2c82600001518360200151846040015185606001516040516020016117f7959493929190613ab7565b60007f41de7d6f279b5bdc25bb5bd3ccb732106044c7be8050d6927da35e2210c6000b8260000151836020015184604001516040516020016117f79493929190613a90565b60006127007f8b73c3c69bb8fe3d512ecc4cf759cc79239f7b179b0ffacaa9a75d522b39400f6126f3612e2c565b6126fb612e32565b612e38565b905090565b60007f7fffffffffffffffffffffffffffffff5d576e7357a4501ddfe92f46681b20a08211156127475760405162461bcd60e51b815260040161042090613def565b6000601e8560ff1611156127ed576004850360ff16601b148061277057506004850360ff16601c145b61278c5760405162461bcd60e51b815260040161042090613fe3565b600161279787612e79565b600487038686604051600081526020016040526040516127ba9493929190613ae6565b6020604051602081039080840390855afa1580156127dc573d6000803e3d6000fd5b505050602060405103519050612870565b8460ff16601b148061280257508460ff16601c145b61281e5760405162461bcd60e51b815260040161042090613fe3565b600186868686604051600081526020016040526040516128419493929190613ae6565b6020604051602081039080840390855afa158015612863573d6000803e3d6000fd5b5050506020604051035190505b6001600160a01b0381166124865760405162461bcd60e51b815260040161042090613bdf565b61289e613032565b600080866000015160ff16600114156128fd57856000015160ff16600114156128cb578692505050612489565b60408051608081018252600081526001600160a01b039092166020830152810182905260608101919091529050612489565b866000015160ff166002141561293157856000015160ff16600214156128cb57612928878786612e8c565b92505050612489565b866000015160ff166003141561295c57856000015160ff16600314156128cb57612928878786612e8c565b866000015160ff166004141561298757856000015160ff16600414156128cb57612928878787612f32565b865160ff166000908152606560205260409020546001600160a01b03168015612a3257604051638dc614ff60e01b81526001600160a01b03821690638dc614ff906129d8908b908b9060040161434f565b60806040518083038186803b1580156129f057600080fd5b505afa158015612a04573d6000803e3d6000fd5b505050506040513d601f19601f82011682018060405250810190612a289190613660565b9350505050612489565b8651885160ff90811691161415612a4e57612a28888887612e8c565b60405162461bcd60e51b815260040161042090613c46565b836000015160ff1660031415612b8b578360400151600114612a9a5760405162461bcd60e51b815260040161042090613f02565b6001600160a01b038316301415612b1b5760208401516060850151604051632142170760e11b81526001600160a01b03909216916342842e0e91612ae491309187916004016138fd565b600060405180830381600087803b158015612afe57600080fd5b505af1158015612b12573d6000803e3d6000fd5b50505050612b86565b60208401516060850151604051637b84dc8360e11b81526001600160a01b0384169263f709b90692612b539288918891600401613b47565b600060405180830381600087803b158015612b6d57600080fd5b505af1158015612b81573d6000803e3d6000fd5b505050505b61149c565b836000015160ff1660021415612c8d576001600160a01b038316301415612c555783602001516001600160a01b031663a9059cbb8386604001516040518363ffffffff1660e01b8152600401612be292919061397f565b602060405180830381600087803b158015612bfc57600080fd5b505af1158015612c10573d6000803e3d6000fd5b505050506040513d601f19601f82011682018060405250810190612c349190613565565b612c505760405162461bcd60e51b815260040161042090614091565b612b86565b6020840151604080860151905163776062c360e01b81526001600160a01b0384169263776062c392612b539288918891600401613b47565b836000015160ff1660041415612d2c576001600160a01b038316301415612cec5783602001516001600160a01b031663f242432a3084876060015188604001516040518563ffffffff1660e01b8152600401612ae49493929190613921565b602084015160608501516040808701519051639c1c2ee960e01b81526001600160a01b03851693639c1c2ee993612b539391928992899291600401613b04565b836000015160ff1660011415612d65576001600160a01b0382163014612b86576040840151612b86906001600160a01b03841690612fb2565b604051632571282360e21b81526001600160a01b038216906395c4a08c90612d959087908790879060040161431f565b600060405180830381600087803b158015612daf57600080fd5b505af1158015610614573d6000803e3d6000fd5b60408051608081018252855160ff90811682526020808801516001600160a01b03908116828501528385018890526060808a015190850152885190921660009081526097909152929092205461149c928491869116612a66565b60009182526020526040902090565b60c95490565b60ca5490565b6000838383612e4561302e565b30604051602001612e5a959493929190613a4b565b6040516020818303038152906040528051906020012090509392505050565b6000816040516020016117f79190613820565b612e94613032565b600080846000015160ff16866000015160ff161415612efe576003846003811115612ebb57fe5b141580612ed05750856000015160ff16600314155b15612ef457846040015186604001511415612eef578592505050611825565b612efe565b8592505050611825565b60408051608081018252600181526001600160a01b0390921660208301528101829052606081019190915290509392505050565b612f3a613032565b600080856000015160ff1660041415612f7e578451865160ff9081169116148015612f6f575084604001518401866040015110155b15612f7e578492505050611825565b60408051608081018252600081526001600160a01b0390921660208301528101829052606081019190915290509392505050565b6000826001600160a01b031682604051612fcb9061386c565b60006040518083038185875af1925050503d8060008114613008576040519150601f19603f3d011682016040523d82523d6000602084013e61300d565b606091505b5050905080610a865760405162461bcd60e51b8152600401610420906141ee565b4690565b6040518060800160405280600060ff16815260200160006001600160a01b0316815260200160008152602001600081525090565b8035610a27816145c4565b600082601f830112613081578081fd5b813560206130966130918361444b565b614428565b82815281810190858301838502870184018810156130b2578586fd5b855b858110156130d0578135845292840192908401906001016130b4565b5090979650505050505050565b600082601f8301126130ed578081fd5b813560206130fd6130918361444b565b82815281810190858301855b858110156130d057613120898684358b01016132e1565b84529284019290840190600101613109565b600082601f830112613142578081fd5b81356001600160401b0381111561315557fe5b613168601f8201601f1916602001614428565b81815284602083860101111561317c578283fd5b816020850160208301379081016020019190915292915050565b803560048110610a2757600080fd5b6000604082840312156131b6578081fd5b50919050565b6000608082840312156131cd578081fd5b604051608081018181106001600160401b03821117156131e957fe5b60405290508082356131fa816145d9565b8152602083013561320a816145c4565b8060208301525060408301356040820152606083013560608201525092915050565b60006060828403121561323d578081fd5b604051606081018181106001600160401b038211171561325957fe5b604052905080823561326a816145d9565b8152602083013561327a816145c4565b6020820152604092830135920191909152919050565b6000604082840312156132a1578081fd5b604051604081018181106001600160401b03821117156132bd57fe5b60405290508082356132ce816145c4565b8152602092830135920191909152919050565b60006102c082840312156132f3578081fd5b6101c06132ff81614428565b915061330a83613196565b825261331860208401613066565b602083015261332a84604085016131bc565b604083015261333b60c08401613066565b606083015261334d8460e085016131bc565b60808301526101608084013560a08401526101808085013560c08501526101a08086013560e086015261338287858801613290565b610100860152613396876102008801613290565b61012086015261024086013593506001600160401b03808511156133b957600080fd5b6133c588868901613132565b610140870152610260870135848701526102808701359450808511156133ea57600080fd5b506133f787858801613071565b828601526134086102a08701613416565b818601525050505092915050565b803561ffff81168114610a2757600080fd5b803565ffffffffffff81168114610a2757600080fd5b60006020828403121561344f578081fd5b8135611825816145c4565b600080600080600060a08688031215613471578081fd5b853561347c816145c4565b9450602086013561348c816145c4565b93506040860135925060608601356134a3816145c4565b915060808601356134b3816145c4565b809150509295509295909350565b6000806000606084860312156134d5578081fd5b83356134e0816145c4565b92506134ee60208501613428565b91506134fc60408501613428565b90509250925092565b60008060408385031215613517578182fd5b82356001600160401b038082111561352d578384fd5b613539868387016130dd565b9350602085013591508082111561354e578283fd5b5061355b858286016130dd565b9150509250929050565b600060208284031215613576578081fd5b81518015158114611825578182fd5b600060208284031215613596578081fd5b5035919050565b6000806000606084860312156135b1578081fd5b8335925060208401356001600160401b03808211156135ce578283fd5b6135da87838801613071565b935060408601359150808211156135ef578283fd5b506135fc868287016132e1565b9150509250925092565b600060208284031215613617578081fd5b81516001600160e01b031981168114611825578182fd5b60006020828403121561363f578081fd5b81356001600160401b03811115613654578182fd5b612489848285016131a5565b600060808284031215613671578081fd5b604051608081018181106001600160401b038211171561368d57fe5b604052825161369b816145d9565b815260208301516136ab816145c4565b6020820152604083810151908201526060928301519281019290925250919050565b6000602082840312156136de578081fd5b81356001600160401b038111156136f3578182fd5b612489848285016132e1565b600060208284031215613710578081fd5b5051919050565b60008060408385031215613729578182fd5b82359150602083013561373b816145c4565b809150509250929050565b600060208284031215613757578081fd5b61182582613428565b600060208284031215613771578081fd5b8135611825816145d9565b6000806040838503121561378e578182fd5b8235613799816145d9565b9150602083013561373b816145c4565b600081518084526137c1816020860160208601614598565b601f01601f19169290920160200192915050565b805160ff1682526020808201516001600160a01b03169083015260408082015190830152606090810151910152565b60008251613816818460208701614598565b9190910192915050565b7f19457468657265756d205369676e6564204d6573736167653a0a3332000000008152601c810191909152603c0190565b61190160f01b81526002810192909252602282015260420190565b90565b92835260609190911b6bffffffffffffffffffffffff19166020830152603482015260540190565b6001600160a01b0391909116815260200190565b6001600160a01b03841681526060602082018190526000906138cf908301856137a9565b905061ffff83166040830152949350505050565b6001600160a01b0392831681529116602082015260400190565b6001600160a01b039384168152919092166020820152604081019190915260600190565b6001600160a01b0394851681529290931660208301526040820152606081019190915260a06080820181905260009082015260c00190565b6001600160a01b0394909416845260208401929092526040830152606082015260800190565b6001600160a01b03929092168252602082015260400190565b6001600160a01b0393909316835265ffffffffffff918216602084015216604082015260600190565b901515815260200190565b90815260200190565b9889526001600160a01b0397881660208a01526040890196909652939095166060870152608086019190915260a085015260c084019290925260e083019190915261ffff166101008201526101200190565b9384526001600160a01b039290921660208401526040830152606082015260800190565b9485526020850193909352604084019190915260608301526001600160a01b0316608082015260a00190565b60008382526040602083015261248960408301846137a9565b93845260ff9290921660208401526001600160a01b03166040830152606082015260800190565b94855260ff9390931660208501526001600160a01b039190911660408401526060830152608082015260a00190565b93845260ff9290921660208401526040830152606082015260800190565b6001600160a01b03958616815293851660208501529190931660408301526060820192909252608081019190915260c060a0820181905260009082015260e00190565b6001600160a01b039485168152928416602084015292166040820152606081019190915260800190565b600061012060048c10613b8057fe5b8b83526001600160a01b038b811660208501528a16604084015260608301819052613bad8184018a6137a9565b61ffff989098166080840152505060a081019490945260c084019290925260e083015261010090910152949350505050565b60208082526018908201527f45434453413a20696e76616c6964207369676e61747572650000000000000000604082015260600190565b602080825260169082015275556e737570706f72746564206f72646572207479706560501b604082015260600190565b60208082526017908201527f6e6f7420666f756e64204941737365744d617463686572000000000000000000604082015260600190565b6020808252601f908201527f45434453413a20696e76616c6964207369676e6174757265206c656e67746800604082015260600190565b60208082526026908201527f4f776e61626c653a206e6577206f776e657220697320746865207a65726f206160408201526564647265737360d01b606082015260800190565b6020808252601b908201527f4f7264657220656e642076616c69646174696f6e206661696c65640000000000604082015260600190565b6020808252601490820152730c081cd85b1d0818d85b89dd081899481d5cd95960621b604082015260600190565b60208082526018908201527f4f7264657220686173206265656e2066756c66696c6c65640000000000000000604082015260600190565b6020808252601c908201527f426964204552432d323020616d6f756e74206e6f7420656e6f75676800000000604082015260600190565b60208082526008908201526737379036b0b5b2b960c11b604082015260600190565b60208082526022908201527f45434453413a20696e76616c6964207369676e6174757265202773272076616c604082015261756560f01b606082015260800190565b60208082526024908201527f72696768744f726465722e74616b657220766572696669636174696f6e2066616040820152631a5b195960e21b606082015260800190565b60208082526022908201527f6f72646572207369676e617475726520766572696669636174696f6e2065727260408201526137b960f11b606082015260800190565b6020808252602b908201527f636f6e7472616374206f72646572207369676e6174757265207665726966696360408201526a30ba34b7b71032b93937b960a91b606082015260800190565b60208082526012908201527132b9319b9918903b30b63ab29032b93937b960711b604082015260600190565b60208082526016908201527536b0b5b2b91034b9903737ba103a3c1039b2b73232b960511b604082015260600190565b6020808252602e908201527f496e697469616c697a61626c653a20636f6e747261637420697320616c72656160408201526d191e481a5b9a5d1a585b1a5e995960921b606082015260800190565b6020808252601d908201527f4f726465722073746172742076616c69646174696f6e206661696c6564000000604082015260600190565b60208082526022908201527f45434453413a20696e76616c6964207369676e6174757265202776272076616c604082015261756560f01b606082015260800190565b60208082526018908201527f4d69736d617463686564206f72646572206c656e677468730000000000000000604082015260600190565b6020808252818101527f4f776e61626c653a2063616c6c6572206973206e6f7420746865206f776e6572604082015260600190565b602080825260159082015274195c98cc8c081d1c985b9cd9995c8819985a5b1959605a1b604082015260600190565b6020808252603b908201527f6f72646572207369676e617475726520766572696669636174696f6e20666f7260408201527f2062696420636f6c6c656374696f6e206f72646572206572726f720000000000606082015260800190565b60208082526018908201527f4f7264657220686173206265656e2063616e63656c6c65640000000000000000604082015260600190565b6020808252601290820152710c2e6e6cae8e640c8dedc4ee840dac2e8c6d60731b604082015260600190565b60208082526018908201527f45524332302062616c616e6365206e6f7420656e6f7567680000000000000000604082015260600190565b6020808252601a908201527f5370656e64696e6720616d6f756e74206e6f7420656e6f756768000000000000604082015260600190565b6020808252600f908201526e1d1c985b9cd9995c8819985a5b1959608a1b604082015260600190565b60208082526022908201527f416363657074206269642071747920686967686572207468616e206269642071604082015261747960f01b606082015260800190565b60208082526023908201527f6c6566744f726465722e74616b657220766572696669636174696f6e206661696040820152621b195960ea1b606082015260800190565b6020808252600f908201526e496e76616c6964206c697374696e6760881b604082015260600190565b6020808252600b908201526a3737ba10309036b0b5b2b960a91b604082015260600190565b6020808252818101527f4f7264657220616c72656164792063616e63656c6564206f722066696c6c6564604082015260600190565b60c0810161432d82866137d5565b6001600160a01b0393841660808301529190921660a090920191909152919050565b610100810161435e82856137d5565b61182560808301846137d5565b61ffff9b909b168b526001600160a01b03998a1660208c015297891660408b015260608a0196909652608089019490945260ff92831660a089015290861660c088015290941660e0860152610100850152610120840152166101408201526101600190565b65ffffffffffff92831681529116602082015260400190565b60ff929092168252602082015260400190565b6000823561027e19833603018112613816578182fd5b600082356102be19833603018112613816578182fd5b6040518181016001600160401b038111828210171561444357fe5b604052919050565b60006001600160401b0382111561445e57fe5b5060209081020190565b6000610280823603121561447a578081fd5b6144856101a0614428565b61448e83613066565b815261449d36602085016131bc565b60208201526144ae60a08401613066565b60408201526144c03660c0850161322c565b60608201526101208084013560808301526101408085013560a08401526101608086013560c08501526101806144f836828901613290565b60e086015261450b366101c08901613290565b6101008601526102008701356001600160401b038082111561452b578788fd5b61453736838b01613132565b8688015261022089013585880152610240890135955080861115614559578788fd5b505061456736858901613071565b828601526145786102608801613416565b908501525091949350505050565b600061459236836132e1565b92915050565b60005b838110156145b357818101518382015260200161459b565b8381111561149c5750506000910152565b6001600160a01b038116811461127f57600080fd5b60ff8116811461127f57600080fdfea264697066735822122077e0f3f3d5ee5a0033c4b3c178d098aec39830164f0fb3e512053434f4f77f5764736f6c63430007060033","opcodes":"PUSH1 0x80 PUSH1 0x40 MSTORE PUSH3 0x753275 PUSH1 0xE8 SHL PUSH1 0xC9 SSTORE PUSH1 0x31 PUSH1 0xF8 SHL PUSH1 0xCA SSTORE PUSH1 0x0 PUSH2 0x130 SSTORE CALLVALUE DUP1 ISZERO PUSH3 0x29 JUMPI PUSH1 0x0 DUP1 REVERT JUMPDEST POP PUSH1 0x1 PUSH2 0x12F SSTORE PUSH1 0x33 DUP1 SLOAD PUSH1 0x1 PUSH1 0x1 PUSH1 0xA0 SHL SUB NOT AND CALLER OR SWAP1 SSTORE PUSH3 0x4C PUSH3 0x52 JUMP JUMPDEST PUSH3 0x253 JUMP JUMPDEST PUSH1 0x0 SLOAD PUSH2 0x100 SWAP1 DIV PUSH1 0xFF AND DUP1 PUSH3 0x6E JUMPI POP PUSH3 0x6E PUSH3 0x136 JUMP JUMPDEST DUP1 PUSH3 0x7D JUMPI POP PUSH1 0x0 SLOAD PUSH1 0xFF AND ISZERO JUMPDEST PUSH3 0xA5 JUMPI PUSH1 0x40 MLOAD PUSH3 0x461BCD PUSH1 0xE5 SHL DUP2 MSTORE PUSH1 0x4 ADD PUSH3 0x9C SWAP1 PUSH3 0x205 JUMP JUMPDEST PUSH1 0x40 MLOAD DUP1 SWAP2 SUB SWAP1 REVERT JUMPDEST PUSH1 0x0 SLOAD PUSH2 0x100 SWAP1 DIV PUSH1 0xFF AND ISZERO DUP1 ISZERO PUSH3 0xD1 JUMPI PUSH1 0x0 DUP1 SLOAD PUSH1 0xFF NOT PUSH2 0xFF00 NOT SWAP1 SWAP2 AND PUSH2 0x100 OR AND PUSH1 0x1 OR SWAP1 SSTORE JUMPDEST PUSH3 0x120 PUSH1 0x40 MLOAD DUP1 PUSH1 0x40 ADD PUSH1 0x40 MSTORE DUP1 PUSH1 0xC DUP2 MSTORE PUSH1 0x20 ADD PUSH12 0x5837323145786368616E6765 PUSH1 0xA0 SHL DUP2 MSTORE POP PUSH1 0x40 MLOAD DUP1 PUSH1 0x40 ADD PUSH1 0x40 MSTORE DUP1 PUSH1 0x1 DUP2 MSTORE PUSH1 0x20 ADD PUSH1 0x31 PUSH1 0xF8 SHL DUP2 MSTORE POP PUSH3 0x154 PUSH1 0x20 SHL PUSH1 0x20 SHR JUMP JUMPDEST DUP1 ISZERO PUSH3 0x133 JUMPI PUSH1 0x0 DUP1 SLOAD PUSH2 0xFF00 NOT AND SWAP1 SSTORE JUMPDEST POP JUMP JUMPDEST PUSH1 0x0 PUSH3 0x14E ADDRESS PUSH3 0x1FF PUSH1 0x20 SHL PUSH3 0x11E8 OR PUSH1 0x20 SHR JUMP JUMPDEST ISZERO SWAP1 POP SWAP1 JUMP JUMPDEST PUSH1 0x0 SLOAD PUSH2 0x100 SWAP1 DIV PUSH1 0xFF AND DUP1 PUSH3 0x170 JUMPI POP PUSH3 0x170 PUSH3 0x136 JUMP JUMPDEST DUP1 PUSH3 0x17F JUMPI POP PUSH1 0x0 SLOAD PUSH1 0xFF AND ISZERO JUMPDEST PUSH3 0x19E JUMPI PUSH1 0x40 MLOAD PUSH3 0x461BCD PUSH1 0xE5 SHL DUP2 MSTORE PUSH1 0x4 ADD PUSH3 0x9C SWAP1 PUSH3 0x205 JUMP JUMPDEST PUSH1 0x0 SLOAD PUSH2 0x100 SWAP1 DIV PUSH1 0xFF AND ISZERO DUP1 ISZERO PUSH3 0x1CA JUMPI PUSH1 0x0 DUP1 SLOAD PUSH1 0xFF NOT PUSH2 0xFF00 NOT SWAP1 SWAP2 AND PUSH2 0x100 OR AND PUSH1 0x1 OR SWAP1 SSTORE JUMPDEST DUP3 MLOAD PUSH1 0x20 DUP1 DUP6 ADD SWAP2 SWAP1 SWAP2 KECCAK256 DUP4 MLOAD SWAP2 DUP5 ADD SWAP2 SWAP1 SWAP2 KECCAK256 PUSH1 0xC9 SWAP2 SWAP1 SWAP2 SSTORE PUSH1 0xCA SSTORE DUP1 ISZERO PUSH3 0x1FA JUMPI PUSH1 0x0 DUP1 SLOAD PUSH2 0xFF00 NOT AND SWAP1 SSTORE JUMPDEST POP POP POP JUMP JUMPDEST EXTCODESIZE ISZERO ISZERO SWAP1 JUMP JUMPDEST PUSH1 0x20 DUP1 DUP3 MSTORE PUSH1 0x2E SWAP1 DUP3 ADD MSTORE PUSH32 0x496E697469616C697A61626C653A20636F6E747261637420697320616C726561 PUSH1 0x40 DUP3 ADD MSTORE PUSH14 0x191E481A5B9A5D1A585B1A5E9959 PUSH1 0x92 SHL PUSH1 0x60 DUP3 ADD MSTORE PUSH1 0x80 ADD SWAP1 JUMP JUMPDEST PUSH2 0x461E DUP1 PUSH3 0x263 PUSH1 0x0 CODECOPY PUSH1 0x0 RETURN INVALID PUSH1 0x80 PUSH1 0x40 MSTORE PUSH1 0x4 CALLDATASIZE LT PUSH2 0x135 JUMPI PUSH1 0x0 CALLDATALOAD PUSH1 0xE0 SHR DUP1 PUSH4 0xB2BDFA7B GT PUSH2 0xAB JUMPI DUP1 PUSH4 0xD362D3FF GT PUSH2 0x6F JUMPI DUP1 PUSH4 0xD362D3FF EQ PUSH2 0x337 JUMPI DUP1 PUSH4 0xD6CA6AB7 EQ PUSH2 0x357 JUMPI DUP1 PUSH4 0xEAE3AD6F EQ PUSH2 0x377 JUMPI DUP1 PUSH4 0xF2FDE38B EQ PUSH2 0x397 JUMPI DUP1 PUSH4 0xF75743CE EQ PUSH2 0x3B7 JUMPI DUP1 PUSH4 0xFAA2CC7C EQ PUSH2 0x3CA JUMPI PUSH2 0x135 JUMP JUMPDEST DUP1 PUSH4 0xB2BDFA7B EQ PUSH2 0x2A2 JUMPI DUP1 PUSH4 0xB36C9B29 EQ PUSH2 0x2B7 JUMPI DUP1 PUSH4 0xB74C8E9A EQ PUSH2 0x2D7 JUMPI DUP1 PUSH4 0xBC158C2D EQ PUSH2 0x2F7 JUMPI DUP1 PUSH4 0xC648A687 EQ PUSH2 0x317 JUMPI PUSH2 0x135 JUMP JUMPDEST DUP1 PUSH4 0x4CFE4CD8 GT PUSH2 0xFD JUMPI DUP1 PUSH4 0x4CFE4CD8 EQ PUSH2 0x1F2 JUMPI DUP1 PUSH4 0x6D8F0694 EQ PUSH2 0x212 JUMPI DUP1 PUSH4 0x715018A6 EQ PUSH2 0x234 JUMPI DUP1 PUSH4 0x8B42AF3E EQ PUSH2 0x249 JUMPI DUP1 PUSH4 0x8DA5CB5B EQ PUSH2 0x269 JUMPI DUP1 PUSH4 0xB0E21E8A EQ PUSH2 0x27E JUMPI PUSH2 0x135 JUMP JUMPDEST DUP1 PUSH4 0x1372A625 EQ PUSH2 0x13A JUMPI DUP1 PUSH4 0x20158C44 EQ PUSH2 0x15C JUMPI DUP1 PUSH4 0x33033608 EQ PUSH2 0x192 JUMPI DUP1 PUSH4 0x3BE89922 EQ PUSH2 0x1A5 JUMPI DUP1 PUSH4 0x3E2D95FF EQ PUSH2 0x1C5 JUMPI JUMPDEST PUSH1 0x0 DUP1 REVERT JUMPDEST CALLVALUE DUP1 ISZERO PUSH2 0x146 JUMPI PUSH1 0x0 DUP1 REVERT JUMPDEST POP PUSH2 0x15A PUSH2 0x155 CALLDATASIZE PUSH1 0x4 PUSH2 0x345A JUMP JUMPDEST PUSH2 0x3DD JUMP JUMPDEST STOP JUMPDEST CALLVALUE DUP1 ISZERO PUSH2 0x168 JUMPI PUSH1 0x0 DUP1 REVERT JUMPDEST POP PUSH2 0x17C PUSH2 0x177 CALLDATASIZE PUSH1 0x4 PUSH2 0x3585 JUMP JUMPDEST PUSH2 0x493 JUMP JUMPDEST PUSH1 0x40 MLOAD PUSH2 0x189 SWAP2 SWAP1 PUSH2 0x39CC JUMP JUMPDEST PUSH1 0x40 MLOAD DUP1 SWAP2 SUB SWAP1 RETURN JUMPDEST PUSH2 0x15A PUSH2 0x1A0 CALLDATASIZE PUSH1 0x4 PUSH2 0x362E JUMP JUMPDEST PUSH2 0x4A6 JUMP JUMPDEST CALLVALUE DUP1 ISZERO PUSH2 0x1B1 JUMPI PUSH1 0x0 DUP1 REVERT JUMPDEST POP PUSH2 0x15A PUSH2 0x1C0 CALLDATASIZE PUSH1 0x4 PUSH2 0x343E JUMP JUMPDEST PUSH2 0x61E JUMP JUMPDEST CALLVALUE DUP1 ISZERO PUSH2 0x1D1 JUMPI PUSH1 0x0 DUP1 REVERT JUMPDEST POP PUSH2 0x1E5 PUSH2 0x1E0 CALLDATASIZE PUSH1 0x4 PUSH2 0x359D JUMP JUMPDEST PUSH2 0x680 JUMP JUMPDEST PUSH1 0x40 MLOAD PUSH2 0x189 SWAP2 SWAP1 PUSH2 0x39C1 JUMP JUMPDEST CALLVALUE DUP1 ISZERO PUSH2 0x1FE JUMPI PUSH1 0x0 DUP1 REVERT JUMPDEST POP PUSH2 0x15A PUSH2 0x20D CALLDATASIZE PUSH1 0x4 PUSH2 0x377C JUMP JUMPDEST PUSH2 0x6A2 JUMP JUMPDEST CALLVALUE DUP1 ISZERO PUSH2 0x21E JUMPI PUSH1 0x0 DUP1 REVERT JUMPDEST POP PUSH2 0x227 PUSH2 0x748 JUMP JUMPDEST PUSH1 0x40 MLOAD PUSH2 0x189 SWAP2 SWAP1 PUSH2 0x3897 JUMP JUMPDEST CALLVALUE DUP1 ISZERO PUSH2 0x240 JUMPI PUSH1 0x0 DUP1 REVERT JUMPDEST POP PUSH2 0x15A PUSH2 0x758 JUMP JUMPDEST CALLVALUE DUP1 ISZERO PUSH2 0x255 JUMPI PUSH1 0x0 DUP1 REVERT JUMPDEST POP PUSH2 0x15A PUSH2 0x264 CALLDATASIZE PUSH1 0x4 PUSH2 0x36CD JUMP JUMPDEST PUSH2 0x7E1 JUMP JUMPDEST CALLVALUE DUP1 ISZERO PUSH2 0x275 JUMPI PUSH1 0x0 DUP1 REVERT JUMPDEST POP PUSH2 0x227 PUSH2 0x9C1 JUMP JUMPDEST CALLVALUE DUP1 ISZERO PUSH2 0x28A JUMPI PUSH1 0x0 DUP1 REVERT JUMPDEST POP PUSH2 0x293 PUSH2 0x9D0 JUMP JUMPDEST PUSH1 0x40 MLOAD PUSH2 0x189 SWAP4 SWAP3 SWAP2 SWAP1 PUSH2 0x3998 JUMP JUMPDEST CALLVALUE DUP1 ISZERO PUSH2 0x2AE JUMPI PUSH1 0x0 DUP1 REVERT JUMPDEST POP PUSH2 0x227 PUSH2 0x9FB JUMP JUMPDEST CALLVALUE DUP1 ISZERO PUSH2 0x2C3 JUMPI PUSH1 0x0 DUP1 REVERT JUMPDEST POP PUSH2 0x227 PUSH2 0x2D2 CALLDATASIZE PUSH1 0x4 PUSH2 0x3760 JUMP JUMPDEST PUSH2 0xA0A JUMP JUMPDEST CALLVALUE DUP1 ISZERO PUSH2 0x2E3 JUMPI PUSH1 0x0 DUP1 REVERT JUMPDEST POP PUSH2 0x15A PUSH2 0x2F2 CALLDATASIZE PUSH1 0x4 PUSH2 0x34C1 JUMP JUMPDEST PUSH2 0xA2C JUMP JUMPDEST CALLVALUE DUP1 ISZERO PUSH2 0x303 JUMPI PUSH1 0x0 DUP1 REVERT JUMPDEST POP PUSH2 0x15A PUSH2 0x312 CALLDATASIZE PUSH1 0x4 PUSH2 0x343E JUMP JUMPDEST PUSH2 0xA8B JUMP JUMPDEST CALLVALUE DUP1 ISZERO PUSH2 0x323 JUMPI PUSH1 0x0 DUP1 REVERT JUMPDEST POP PUSH2 0x15A PUSH2 0x332 CALLDATASIZE PUSH1 0x4 PUSH2 0x3717 JUMP JUMPDEST PUSH2 0xB35 JUMP JUMPDEST CALLVALUE DUP1 ISZERO PUSH2 0x343 JUMPI PUSH1 0x0 DUP1 REVERT JUMPDEST POP PUSH2 0x15A PUSH2 0x352 CALLDATASIZE PUSH1 0x4 PUSH2 0x36CD JUMP JUMPDEST PUSH2 0xBCD JUMP JUMPDEST CALLVALUE DUP1 ISZERO PUSH2 0x363 JUMPI PUSH1 0x0 DUP1 REVERT JUMPDEST POP PUSH2 0x15A PUSH2 0x372 CALLDATASIZE PUSH1 0x4 PUSH2 0x3746 JUMP JUMPDEST PUSH2 0xC88 JUMP JUMPDEST CALLVALUE DUP1 ISZERO PUSH2 0x383 JUMPI PUSH1 0x0 DUP1 REVERT JUMPDEST POP PUSH2 0x15A PUSH2 0x392 CALLDATASIZE PUSH1 0x4 PUSH2 0x3746 JUMP JUMPDEST PUSH2 0xD3F JUMP JUMPDEST CALLVALUE DUP1 ISZERO PUSH2 0x3A3 JUMPI PUSH1 0x0 DUP1 REVERT JUMPDEST POP PUSH2 0x15A PUSH2 0x3B2 CALLDATASIZE PUSH1 0x4 PUSH2 0x343E JUMP JUMPDEST PUSH2 0xDF3 JUMP JUMPDEST PUSH2 0x15A PUSH2 0x3C5 CALLDATASIZE PUSH1 0x4 PUSH2 0x362E JUMP JUMPDEST PUSH2 0xEB4 JUMP JUMPDEST PUSH2 0x15A PUSH2 0x3D8 CALLDATASIZE PUSH1 0x4 PUSH2 0x3505 JUMP JUMPDEST PUSH2 0x1183 JUMP JUMPDEST PUSH1 0x0 SLOAD PUSH2 0x100 SWAP1 DIV PUSH1 0xFF AND DUP1 PUSH2 0x3F6 JUMPI POP PUSH2 0x3F6 PUSH2 0x11EE JUMP JUMPDEST DUP1 PUSH2 0x404 JUMPI POP PUSH1 0x0 SLOAD PUSH1 0xFF AND ISZERO JUMPDEST PUSH2 0x429 JUMPI PUSH1 0x40 MLOAD PUSH3 0x461BCD PUSH1 0xE5 SHL DUP2 MSTORE PUSH1 0x4 ADD PUSH2 0x420 SWAP1 PUSH2 0x3F5E JUMP JUMPDEST PUSH1 0x40 MLOAD DUP1 SWAP2 SUB SWAP1 REVERT JUMPDEST PUSH1 0x0 SLOAD PUSH2 0x100 SWAP1 DIV PUSH1 0xFF AND ISZERO DUP1 ISZERO PUSH2 0x454 JUMPI PUSH1 0x0 DUP1 SLOAD PUSH1 0xFF NOT PUSH2 0xFF00 NOT SWAP1 SWAP2 AND PUSH2 0x100 OR AND PUSH1 0x1 OR SWAP1 SSTORE JUMPDEST PUSH2 0x45C PUSH2 0x11FF JUMP JUMPDEST PUSH2 0x464 PUSH2 0x1282 JUMP JUMPDEST PUSH2 0x46E DUP7 DUP7 PUSH2 0x135C JUMP JUMPDEST PUSH2 0x479 DUP5 DUP5 DUP5 PUSH2 0x1400 JUMP JUMPDEST DUP1 ISZERO PUSH2 0x48B JUMPI PUSH1 0x0 DUP1 SLOAD PUSH2 0xFF00 NOT AND SWAP1 SSTORE JUMPDEST POP POP POP POP POP POP JUMP JUMPDEST PUSH2 0x131 PUSH1 0x20 MSTORE PUSH1 0x0 SWAP1 DUP2 MSTORE PUSH1 0x40 SWAP1 KECCAK256 SLOAD DUP2 JUMP JUMPDEST PUSH1 0x0 PUSH2 0x4B2 DUP3 DUP1 PUSH2 0x4412 JUMP JUMPDEST PUSH2 0x4BB SWAP1 PUSH2 0x4586 JUMP JUMPDEST SWAP1 POP PUSH1 0x0 PUSH2 0x4CC PUSH1 0x20 DUP5 ADD DUP5 PUSH2 0x4412 JUMP JUMPDEST PUSH2 0x4D5 SWAP1 PUSH2 0x4586 JUMP JUMPDEST PUSH1 0x80 DUP4 ADD MLOAD PUSH1 0x40 SWAP1 DUP2 ADD MLOAD DUP2 DUP4 ADD MLOAD SWAP1 SWAP2 ADD MLOAD SWAP2 SWAP3 POP SWAP1 DUP2 DUP2 GT ISZERO PUSH2 0x50C JUMPI PUSH1 0x40 MLOAD PUSH3 0x461BCD PUSH1 0xE5 SHL DUP2 MSTORE PUSH1 0x4 ADD PUSH2 0x420 SWAP1 PUSH2 0x4217 JUMP JUMPDEST PUSH2 0x51B DUP5 DUP6 PUSH2 0x140 ADD MLOAD PUSH2 0x14A2 JUMP JUMPDEST PUSH2 0x52A DUP4 DUP5 PUSH2 0x140 ADD MLOAD PUSH2 0x14A2 JUMP JUMPDEST PUSH1 0x0 DUP3 DUP6 PUSH1 0x40 ADD MLOAD PUSH1 0x40 ADD MLOAD DUP2 PUSH2 0x53D JUMPI INVALID JUMPDEST DIV SWAP1 POP PUSH1 0x0 DUP3 DUP3 MUL SWAP1 POP DUP6 PUSH1 0x40 ADD MLOAD PUSH1 0x40 ADD MLOAD DUP2 GT ISZERO PUSH2 0x56F JUMPI PUSH1 0x40 MLOAD PUSH3 0x461BCD PUSH1 0xE5 SHL DUP2 MSTORE PUSH1 0x4 ADD PUSH2 0x420 SWAP1 PUSH2 0x3D96 JUMP JUMPDEST PUSH1 0x40 DUP1 DUP8 ADD MLOAD DUP2 ADD DUP3 SWAP1 MSTORE PUSH1 0x80 DUP1 DUP9 ADD MLOAD DUP3 ADD DUP6 SWAP1 MSTORE PUSH1 0x20 DUP1 DUP9 ADD MLOAD PUSH1 0x1 PUSH1 0x1 PUSH1 0xA0 SHL SUB SWAP1 DUP2 AND PUSH1 0x60 DUP12 ADD MSTORE DUP9 DUP5 ADD MLOAD DUP5 ADD DUP9 SWAP1 MSTORE SWAP2 DUP9 ADD MLOAD DUP4 ADD DUP5 SWAP1 MSTORE DUP1 DUP10 ADD MLOAD SWAP1 SWAP2 AND PUSH1 0x0 SWAP1 DUP2 MSTORE PUSH2 0x132 SWAP1 SWAP2 MSTORE DUP2 DUP2 KECCAK256 PUSH2 0x140 DUP10 ADD MLOAD SWAP3 MLOAD SWAP2 SWAP3 SWAP1 SWAP2 PUSH2 0x5D8 SWAP2 SWAP1 PUSH2 0x3804 JUMP JUMPDEST SWAP1 DUP2 MSTORE PUSH1 0x40 DUP1 MLOAD PUSH1 0x20 SWAP3 DUP2 SWAP1 SUB DUP4 ADD SWAP1 KECCAK256 PUSH2 0x1A0 DUP11 ADD MLOAD PUSH2 0xFFFF AND PUSH1 0x0 SWAP1 DUP2 MSTORE SWAP3 MSTORE SWAP1 KECCAK256 SLOAD SWAP1 POP PUSH2 0x609 DUP7 DUP9 PUSH2 0x14B9 JUMP JUMPDEST PUSH2 0x614 DUP7 DUP9 DUP4 PUSH2 0x15F3 JUMP JUMPDEST POP POP POP POP POP POP POP POP JUMP JUMPDEST PUSH2 0x626 PUSH2 0x1799 JUMP JUMPDEST PUSH1 0x1 PUSH1 0x1 PUSH1 0xA0 SHL SUB AND PUSH2 0x637 PUSH2 0x9C1 JUMP JUMPDEST PUSH1 0x1 PUSH1 0x1 PUSH1 0xA0 SHL SUB AND EQ PUSH2 0x65D JUMPI PUSH1 0x40 MLOAD PUSH3 0x461BCD PUSH1 0xE5 SHL DUP2 MSTORE PUSH1 0x4 ADD PUSH2 0x420 SWAP1 PUSH2 0x405C JUMP JUMPDEST PUSH2 0x165 DUP1 SLOAD PUSH1 0x1 PUSH1 0x1 PUSH1 0xA0 SHL SUB NOT AND PUSH1 0x1 PUSH1 0x1 PUSH1 0xA0 SHL SUB SWAP3 SWAP1 SWAP3 AND SWAP2 SWAP1 SWAP2 OR SWAP1 SSTORE JUMP JUMPDEST PUSH1 0x0 DUP1 PUSH2 0x68C DUP4 PUSH2 0x179D JUMP JUMPDEST SWAP1 POP PUSH2 0x699 DUP5 DUP7 DUP4 PUSH2 0x1814 JUMP JUMPDEST SWAP6 SWAP5 POP POP POP POP POP JUMP JUMPDEST PUSH2 0x6AA PUSH2 0x1799 JUMP JUMPDEST PUSH1 0x1 PUSH1 0x1 PUSH1 0xA0 SHL SUB AND PUSH2 0x6BB PUSH2 0x9C1 JUMP JUMPDEST PUSH1 0x1 PUSH1 0x1 PUSH1 0xA0 SHL SUB AND EQ PUSH2 0x6E1 JUMPI PUSH1 0x40 MLOAD PUSH3 0x461BCD PUSH1 0xE5 SHL DUP2 MSTORE PUSH1 0x4 ADD PUSH2 0x420 SWAP1 PUSH2 0x405C JUMP JUMPDEST PUSH1 0xFF DUP3 AND PUSH1 0x0 DUP2 DUP2 MSTORE PUSH1 0x97 PUSH1 0x20 MSTORE PUSH1 0x40 SWAP1 DUP2 SWAP1 KECCAK256 DUP1 SLOAD PUSH1 0x1 PUSH1 0x1 PUSH1 0xA0 SHL SUB NOT AND PUSH1 0x1 PUSH1 0x1 PUSH1 0xA0 SHL SUB DUP6 AND OR SWAP1 SSTORE MLOAD PUSH32 0x8EDDA873A8AD561ECEBEB71CEB3AE6BCB70C2B76A3FCB869859895C4D4FC7416 SWAP1 PUSH2 0x73C SWAP1 DUP5 SWAP1 PUSH2 0x3897 JUMP JUMPDEST PUSH1 0x40 MLOAD DUP1 SWAP2 SUB SWAP1 LOG2 POP POP JUMP JUMPDEST PUSH2 0x165 SLOAD PUSH1 0x1 PUSH1 0x1 PUSH1 0xA0 SHL SUB AND DUP2 JUMP JUMPDEST PUSH2 0x760 PUSH2 0x1799 JUMP JUMPDEST PUSH1 0x1 PUSH1 0x1 PUSH1 0xA0 SHL SUB AND PUSH2 0x771 PUSH2 0x9C1 JUMP JUMPDEST PUSH1 0x1 PUSH1 0x1 PUSH1 0xA0 SHL SUB AND EQ PUSH2 0x797 JUMPI PUSH1 0x40 MLOAD PUSH3 0x461BCD PUSH1 0xE5 SHL DUP2 MSTORE PUSH1 0x4 ADD PUSH2 0x420 SWAP1 PUSH2 0x405C JUMP JUMPDEST PUSH1 0x33 SLOAD PUSH1 0x40 MLOAD PUSH1 0x0 SWAP2 PUSH1 0x1 PUSH1 0x1 PUSH1 0xA0 SHL SUB AND SWAP1 PUSH32 0x8BE0079C531659141344CD1FD0A4F28419497F9722A3DAAFE3B4186F6B6457E0 SWAP1 DUP4 SWAP1 LOG3 PUSH1 0x33 DUP1 SLOAD PUSH1 0x1 PUSH1 0x1 PUSH1 0xA0 SHL SUB NOT AND SWAP1 SSTORE JUMP JUMPDEST PUSH1 0x2 PUSH2 0x12F SLOAD EQ ISZERO PUSH2 0x83A JUMPI PUSH1 0x40 DUP1 MLOAD PUSH3 0x461BCD PUSH1 0xE5 SHL DUP2 MSTORE PUSH1 0x20 PUSH1 0x4 DUP3 ADD MSTORE PUSH1 0x1F PUSH1 0x24 DUP3 ADD MSTORE PUSH32 0x5265656E7472616E637947756172643A207265656E7472616E742063616C6C00 PUSH1 0x44 DUP3 ADD MSTORE SWAP1 MLOAD SWAP1 DUP2 SWAP1 SUB PUSH1 0x64 ADD SWAP1 REVERT JUMPDEST PUSH1 0x2 PUSH2 0x12F SSTORE PUSH1 0x20 DUP2 ADD MLOAD PUSH1 0x1 PUSH1 0x1 PUSH1 0xA0 SHL SUB AND PUSH2 0x856 PUSH2 0x1799 JUMP JUMPDEST PUSH1 0x1 PUSH1 0x1 PUSH1 0xA0 SHL SUB AND EQ PUSH2 0x87C JUMPI PUSH1 0x40 MLOAD PUSH3 0x461BCD PUSH1 0xE5 SHL DUP2 MSTORE PUSH1 0x4 ADD PUSH2 0x420 SWAP1 PUSH2 0x42C5 JUMP JUMPDEST PUSH2 0x132 PUSH1 0x0 PUSH2 0x889 PUSH2 0x1799 JUMP JUMPDEST PUSH1 0x1 PUSH1 0x1 PUSH1 0xA0 SHL SUB AND PUSH1 0x1 PUSH1 0x1 PUSH1 0xA0 SHL SUB AND DUP2 MSTORE PUSH1 0x20 ADD SWAP1 DUP2 MSTORE PUSH1 0x20 ADD PUSH1 0x0 KECCAK256 DUP2 PUSH2 0x140 ADD MLOAD PUSH1 0x40 MLOAD PUSH2 0x8BC SWAP2 SWAP1 PUSH2 0x3804 JUMP JUMPDEST SWAP1 DUP2 MSTORE PUSH1 0x40 DUP1 MLOAD PUSH1 0x20 SWAP3 DUP2 SWAP1 SUB DUP4 ADD SWAP1 KECCAK256 PUSH2 0x1A0 DUP5 ADD MLOAD PUSH2 0xFFFF AND PUSH1 0x0 SWAP1 DUP2 MSTORE SWAP3 MSTORE SWAP1 KECCAK256 SLOAD ISZERO PUSH2 0x8FE JUMPI PUSH1 0x40 MLOAD PUSH3 0x461BCD PUSH1 0xE5 SHL DUP2 MSTORE PUSH1 0x4 ADD PUSH2 0x420 SWAP1 PUSH2 0x42EA JUMP JUMPDEST DUP1 PUSH1 0x40 ADD MLOAD PUSH1 0x40 ADD MLOAD PUSH2 0x132 PUSH1 0x0 PUSH2 0x914 PUSH2 0x1799 JUMP JUMPDEST PUSH1 0x1 PUSH1 0x1 PUSH1 0xA0 SHL SUB AND PUSH1 0x1 PUSH1 0x1 PUSH1 0xA0 SHL SUB AND DUP2 MSTORE PUSH1 0x20 ADD SWAP1 DUP2 MSTORE PUSH1 0x20 ADD PUSH1 0x0 KECCAK256 DUP3 PUSH2 0x140 ADD MLOAD PUSH1 0x40 MLOAD PUSH2 0x947 SWAP2 SWAP1 PUSH2 0x3804 JUMP JUMPDEST SWAP1 DUP2 MSTORE PUSH1 0x40 DUP1 MLOAD PUSH1 0x20 SWAP3 DUP2 SWAP1 SUB DUP4 ADD SWAP1 KECCAK256 PUSH2 0x1A0 DUP6 ADD MLOAD PUSH2 0xFFFF AND PUSH1 0x0 SWAP1 DUP2 MSTORE SWAP3 MSTORE SWAP1 KECCAK256 SSTORE PUSH32 0x86F8A270A95F47AD48690DD66EDA181EA3D229312582E7D222C11E24F39947D0 PUSH2 0x995 PUSH2 0x1799 JUMP JUMPDEST DUP3 PUSH2 0x140 ADD MLOAD DUP4 PUSH2 0x1A0 ADD MLOAD PUSH1 0x40 MLOAD PUSH2 0x9B0 SWAP4 SWAP3 SWAP2 SWAP1 PUSH2 0x38AB JUMP JUMPDEST PUSH1 0x40 MLOAD DUP1 SWAP2 SUB SWAP1 LOG1 POP PUSH1 0x1 PUSH2 0x12F SSTORE JUMP JUMPDEST PUSH1 0x33 SLOAD PUSH1 0x1 PUSH1 0x1 PUSH1 0xA0 SHL SUB AND SWAP1 JUMP JUMPDEST PUSH2 0x164 SLOAD PUSH1 0x1 PUSH1 0x1 PUSH1 0xA0 SHL SUB DUP2 AND SWAP1 PUSH6 0xFFFFFFFFFFFF PUSH1 0x1 PUSH1 0xA0 SHL DUP3 DIV DUP2 AND SWAP2 PUSH1 0x1 PUSH1 0xD0 SHL SWAP1 DIV AND DUP4 JUMP JUMPDEST PUSH1 0x33 SLOAD PUSH1 0x1 PUSH1 0x1 PUSH1 0xA0 SHL SUB AND DUP2 JUMP JUMPDEST PUSH1 0xFF DUP2 AND PUSH1 0x0 SWAP1 DUP2 MSTORE PUSH1 0x97 PUSH1 0x20 MSTORE PUSH1 0x40 SWAP1 KECCAK256 SLOAD PUSH1 0x1 PUSH1 0x1 PUSH1 0xA0 SHL SUB AND JUMPDEST SWAP2 SWAP1 POP JUMP JUMPDEST PUSH2 0xA34 PUSH2 0x1799 JUMP JUMPDEST PUSH1 0x1 PUSH1 0x1 PUSH1 0xA0 SHL SUB AND PUSH2 0xA45 PUSH2 0x9C1 JUMP JUMPDEST PUSH1 0x1 PUSH1 0x1 PUSH1 0xA0 SHL SUB AND EQ PUSH2 0xA6B JUMPI PUSH1 0x40 MLOAD PUSH3 0x461BCD PUSH1 0xE5 SHL DUP2 MSTORE PUSH1 0x4 ADD PUSH2 0x420 SWAP1 PUSH2 0x405C JUMP JUMPDEST PUSH2 0xA74 DUP4 PUSH2 0xA8B JUMP JUMPDEST PUSH2 0xA7D DUP3 PUSH2 0xC88 JUMP JUMPDEST PUSH2 0xA86 DUP2 PUSH2 0xD3F JUMP JUMPDEST POP POP POP JUMP JUMPDEST PUSH2 0xA93 PUSH2 0x1799 JUMP JUMPDEST PUSH1 0x1 PUSH1 0x1 PUSH1 0xA0 SHL SUB AND PUSH2 0xAA4 PUSH2 0x9C1 JUMP JUMPDEST PUSH1 0x1 PUSH1 0x1 PUSH1 0xA0 SHL SUB AND EQ PUSH2 0xACA JUMPI PUSH1 0x40 MLOAD PUSH3 0x461BCD PUSH1 0xE5 SHL DUP2 MSTORE PUSH1 0x4 ADD PUSH2 0x420 SWAP1 PUSH2 0x405C JUMP JUMPDEST PUSH2 0x164 SLOAD PUSH1 0x40 MLOAD PUSH32 0xA4B009CC442411B602EAF94BC0579B6ABDB8FD90B4EF5B9426E270038906BD03 SWAP2 PUSH2 0xB0A SWAP2 PUSH1 0x1 PUSH1 0x1 PUSH1 0xA0 SHL SUB SWAP1 SWAP2 AND SWAP1 DUP5 SWAP1 PUSH2 0x38E3 JUMP JUMPDEST PUSH1 0x40 MLOAD DUP1 SWAP2 SUB SWAP1 LOG1 PUSH2 0x164 DUP1 SLOAD PUSH1 0x1 PUSH1 0x1 PUSH1 0xA0 SHL SUB NOT AND PUSH1 0x1 PUSH1 0x1 PUSH1 0xA0 SHL SUB SWAP3 SWAP1 SWAP3 AND SWAP2 SWAP1 SWAP2 OR SWAP1 SSTORE JUMP JUMPDEST PUSH2 0xB3D PUSH2 0x1799 JUMP JUMPDEST PUSH1 0x1 PUSH1 0x1 PUSH1 0xA0 SHL SUB AND PUSH2 0xB4E PUSH2 0x9C1 JUMP JUMPDEST PUSH1 0x1 PUSH1 0x1 PUSH1 0xA0 SHL SUB AND EQ PUSH2 0xB74 JUMPI PUSH1 0x40 MLOAD PUSH3 0x461BCD PUSH1 0xE5 SHL DUP2 MSTORE PUSH1 0x4 ADD PUSH2 0x420 SWAP1 PUSH2 0x405C JUMP JUMPDEST PUSH1 0x0 DUP3 DUP2 MSTORE PUSH1 0x65 PUSH1 0x20 MSTORE PUSH1 0x40 SWAP1 DUP2 SWAP1 KECCAK256 DUP1 SLOAD PUSH1 0x1 PUSH1 0x1 PUSH1 0xA0 SHL SUB NOT AND PUSH1 0x1 PUSH1 0x1 PUSH1 0xA0 SHL SUB DUP5 AND OR SWAP1 SSTORE MLOAD DUP3 SWAP1 PUSH32 0x58204093ED36D15D7F2A89FDACA20C53F1E02A2CE5686ACE9247D1B96E9EC67B SWAP1 PUSH2 0x73C SWAP1 DUP5 SWAP1 PUSH2 0x3897 JUMP JUMPDEST DUP1 PUSH1 0x20 ADD MLOAD PUSH1 0x1 PUSH1 0x1 PUSH1 0xA0 SHL SUB AND PUSH2 0xBE3 PUSH2 0x1799 JUMP JUMPDEST PUSH1 0x1 PUSH1 0x1 PUSH1 0xA0 SHL SUB AND EQ PUSH2 0xC09 JUMPI PUSH1 0x40 MLOAD PUSH3 0x461BCD PUSH1 0xE5 SHL DUP2 MSTORE PUSH1 0x4 ADD PUSH2 0x420 SWAP1 PUSH2 0x42C5 JUMP JUMPDEST PUSH1 0xA0 DUP2 ADD MLOAD PUSH2 0xC2A JUMPI PUSH1 0x40 MLOAD PUSH3 0x461BCD PUSH1 0xE5 SHL DUP2 MSTORE PUSH1 0x4 ADD PUSH2 0x420 SWAP1 PUSH2 0x3D31 JUMP JUMPDEST PUSH1 0x0 PUSH2 0xC35 DUP3 PUSH2 0x182C JUMP JUMPDEST PUSH1 0x0 DUP2 DUP2 MSTORE PUSH2 0x131 PUSH1 0x20 MSTORE PUSH1 0x40 SWAP1 DUP2 SWAP1 KECCAK256 PUSH1 0x0 NOT SWAP1 SSTORE MLOAD SWAP1 SWAP2 POP PUSH32 0xE8D9861DBC9C663ED3ACCD261BBE2FE01E0D3D9E5F51FA38523B265C7757A93A SWAP1 PUSH2 0xC7C SWAP1 DUP4 SWAP1 PUSH2 0x39CC JUMP JUMPDEST PUSH1 0x40 MLOAD DUP1 SWAP2 SUB SWAP1 LOG1 POP POP JUMP JUMPDEST PUSH2 0xC90 PUSH2 0x1799 JUMP JUMPDEST PUSH1 0x1 PUSH1 0x1 PUSH1 0xA0 SHL SUB AND PUSH2 0xCA1 PUSH2 0x9C1 JUMP JUMPDEST PUSH1 0x1 PUSH1 0x1 PUSH1 0xA0 SHL SUB AND EQ PUSH2 0xCC7 JUMPI PUSH1 0x40 MLOAD PUSH3 0x461BCD PUSH1 0xE5 SHL DUP2 MSTORE PUSH1 0x4 ADD PUSH2 0x420 SWAP1 PUSH2 0x405C JUMP JUMPDEST PUSH2 0x164 SLOAD PUSH1 0x40 MLOAD PUSH32 0x70BBA4F904A93BA5C1AF3A1BB602BC9C058551DBE963DFE0B6CB5BC11C5FEA9E SWAP2 PUSH2 0xD0C SWAP2 PUSH1 0x1 PUSH1 0xA0 SHL SWAP1 SWAP2 DIV PUSH6 0xFFFFFFFFFFFF AND SWAP1 DUP5 SWAP1 PUSH2 0x43D0 JUMP JUMPDEST PUSH1 0x40 MLOAD DUP1 SWAP2 SUB SWAP1 LOG1 PUSH2 0x164 DUP1 SLOAD PUSH6 0xFFFFFFFFFFFF SWAP1 SWAP3 AND PUSH1 0x1 PUSH1 0xA0 SHL MUL PUSH6 0xFFFFFFFFFFFF PUSH1 0xA0 SHL NOT SWAP1 SWAP3 AND SWAP2 SWAP1 SWAP2 OR SWAP1 SSTORE JUMP JUMPDEST PUSH2 0xD47 PUSH2 0x1799 JUMP JUMPDEST PUSH1 0x1 PUSH1 0x1 PUSH1 0xA0 SHL SUB AND PUSH2 0xD58 PUSH2 0x9C1 JUMP JUMPDEST PUSH1 0x1 PUSH1 0x1 PUSH1 0xA0 SHL SUB AND EQ PUSH2 0xD7E JUMPI PUSH1 0x40 MLOAD PUSH3 0x461BCD PUSH1 0xE5 SHL DUP2 MSTORE PUSH1 0x4 ADD PUSH2 0x420 SWAP1 PUSH2 0x405C JUMP JUMPDEST PUSH2 0x164 SLOAD PUSH1 0x40 MLOAD PUSH32 0xA8AF9093CAA9BEB61D20432227C66258CEEF926F21879B80F3ADF22A4D19F131 SWAP2 PUSH2 0xDC3 SWAP2 PUSH1 0x1 PUSH1 0xD0 SHL SWAP1 SWAP2 DIV PUSH6 0xFFFFFFFFFFFF AND SWAP1 DUP5 SWAP1 PUSH2 0x43D0 JUMP JUMPDEST PUSH1 0x40 MLOAD DUP1 SWAP2 SUB SWAP1 LOG1 PUSH2 0x164 DUP1 SLOAD PUSH6 0xFFFFFFFFFFFF SWAP1 SWAP3 AND PUSH1 0x1 PUSH1 0xD0 SHL MUL PUSH1 0x1 PUSH1 0x1 PUSH1 0xD0 SHL SUB SWAP1 SWAP3 AND SWAP2 SWAP1 SWAP2 OR SWAP1 SSTORE JUMP JUMPDEST PUSH2 0xDFB PUSH2 0x1799 JUMP JUMPDEST PUSH1 0x1 PUSH1 0x1 PUSH1 0xA0 SHL SUB AND PUSH2 0xE0C PUSH2 0x9C1 JUMP JUMPDEST PUSH1 0x1 PUSH1 0x1 PUSH1 0xA0 SHL SUB AND EQ PUSH2 0xE32 JUMPI PUSH1 0x40 MLOAD PUSH3 0x461BCD PUSH1 0xE5 SHL DUP2 MSTORE PUSH1 0x4 ADD PUSH2 0x420 SWAP1 PUSH2 0x405C JUMP JUMPDEST PUSH1 0x1 PUSH1 0x1 PUSH1 0xA0 SHL SUB DUP2 AND PUSH2 0xE58 JUMPI PUSH1 0x40 MLOAD PUSH3 0x461BCD PUSH1 0xE5 SHL DUP2 MSTORE PUSH1 0x4 ADD PUSH2 0x420 SWAP1 PUSH2 0x3CB4 JUMP JUMPDEST PUSH1 0x33 SLOAD PUSH1 0x40 MLOAD PUSH1 0x1 PUSH1 0x1 PUSH1 0xA0 SHL SUB DUP1 DUP5 AND SWAP3 AND SWAP1 PUSH32 0x8BE0079C531659141344CD1FD0A4F28419497F9722A3DAAFE3B4186F6B6457E0 SWAP1 PUSH1 0x0 SWAP1 LOG3 PUSH1 0x33 DUP1 SLOAD PUSH1 0x1 PUSH1 0x1 PUSH1 0xA0 SHL SUB NOT AND PUSH1 0x1 PUSH1 0x1 PUSH1 0xA0 SHL SUB SWAP3 SWAP1 SWAP3 AND SWAP2 SWAP1 SWAP2 OR SWAP1 SSTORE JUMP JUMPDEST PUSH1 0x0 PUSH2 0xEC0 DUP3 DUP1 PUSH2 0x43FC JUMP JUMPDEST PUSH2 0xEC9 SWAP1 PUSH2 0x4468 JUMP JUMPDEST SWAP1 POP PUSH1 0x0 PUSH2 0xEDA PUSH1 0x20 DUP5 ADD DUP5 PUSH2 0x4412 JUMP JUMPDEST PUSH2 0xEE3 SWAP1 PUSH2 0x4586 JUMP JUMPDEST PUSH1 0x60 DUP4 ADD MLOAD PUSH1 0x40 SWAP1 DUP2 ADD MLOAD DUP2 DUP4 ADD MLOAD SWAP1 SWAP2 ADD MLOAD SWAP2 SWAP3 POP SWAP1 DUP2 DUP2 GT ISZERO PUSH2 0xF1A JUMPI PUSH1 0x40 MLOAD PUSH3 0x461BCD PUSH1 0xE5 SHL DUP2 MSTORE PUSH1 0x4 ADD PUSH2 0x420 SWAP1 PUSH2 0x4217 JUMP JUMPDEST PUSH2 0xF29 DUP5 DUP6 PUSH2 0x120 ADD MLOAD PUSH2 0x1865 JUMP JUMPDEST PUSH2 0xF38 DUP4 DUP5 PUSH2 0x140 ADD MLOAD PUSH2 0x14A2 JUMP JUMPDEST PUSH1 0x0 DUP3 DUP6 PUSH1 0x20 ADD MLOAD PUSH1 0x40 ADD MLOAD DUP2 PUSH2 0xF4B JUMPI INVALID JUMPDEST DIV SWAP1 POP PUSH1 0x0 DUP3 DUP3 MUL SWAP1 POP DUP6 PUSH1 0x20 ADD MLOAD PUSH1 0x40 ADD MLOAD DUP2 GT ISZERO PUSH2 0xF7D JUMPI PUSH1 0x40 MLOAD PUSH3 0x461BCD PUSH1 0xE5 SHL DUP2 MSTORE PUSH1 0x4 ADD PUSH2 0x420 SWAP1 PUSH2 0x3D96 JUMP JUMPDEST PUSH1 0x40 DUP1 MLOAD PUSH1 0x80 DUP1 DUP3 ADD DUP4 MSTORE PUSH1 0x20 DUP1 DUP11 ADD DUP1 MLOAD MLOAD PUSH1 0xFF SWAP1 DUP2 AND DUP6 MSTORE DUP2 MLOAD DUP4 ADD MLOAD PUSH1 0x1 PUSH1 0x1 PUSH1 0xA0 SHL SUB SWAP1 DUP2 AND DUP5 DUP8 ADD MSTORE DUP3 MLOAD DUP8 ADD MLOAD DUP7 DUP9 ADD MSTORE SWAP2 MLOAD PUSH1 0x60 SWAP1 DUP2 ADD MLOAD DUP2 DUP8 ADD MSTORE DUP7 MLOAD SWAP5 DUP6 ADD DUP8 MSTORE DUP1 DUP14 ADD DUP1 MLOAD MLOAD SWAP1 SWAP3 AND DUP6 MSTORE DUP2 MLOAD DUP5 ADD MLOAD SWAP1 SWAP3 AND SWAP3 DUP5 ADD SWAP3 SWAP1 SWAP3 MSTORE SWAP1 MLOAD DUP5 ADD MLOAD DUP3 DUP6 ADD MSTORE DUP9 DUP5 ADD MLOAD DUP2 ADD MLOAD SWAP1 DUP3 ADD MSTORE DUP3 MLOAD PUSH2 0x1C0 DUP2 ADD SWAP1 SWAP4 MSTORE SWAP1 SWAP2 PUSH1 0x0 SWAP1 DUP1 PUSH1 0x3 DUP2 MSTORE PUSH1 0x20 ADD DUP11 PUSH1 0x0 ADD MLOAD PUSH1 0x1 PUSH1 0x1 PUSH1 0xA0 SHL SUB AND DUP2 MSTORE PUSH1 0x20 ADD DUP5 DUP2 MSTORE PUSH1 0x20 ADD DUP10 PUSH1 0x20 ADD MLOAD PUSH1 0x1 PUSH1 0x1 PUSH1 0xA0 SHL SUB AND DUP2 MSTORE PUSH1 0x20 ADD DUP4 DUP2 MSTORE PUSH1 0x20 ADD DUP11 PUSH1 0x80 ADD MLOAD DUP2 MSTORE PUSH1 0x20 ADD DUP11 PUSH1 0xA0 ADD MLOAD DUP2 MSTORE PUSH1 0x20 ADD DUP11 PUSH1 0xC0 ADD MLOAD DUP2 MSTORE PUSH1 0x20 ADD DUP11 PUSH1 0xE0 ADD MLOAD DUP2 MSTORE PUSH1 0x20 ADD DUP11 PUSH2 0x100 ADD MLOAD DUP2 MSTORE PUSH1 0x20 ADD DUP11 PUSH2 0x120 ADD MLOAD DUP2 MSTORE PUSH1 0x20 ADD DUP11 PUSH2 0x140 ADD MLOAD DUP2 MSTORE PUSH1 0x20 ADD DUP11 PUSH2 0x160 ADD MLOAD DUP2 MSTORE PUSH1 0x20 ADD DUP11 PUSH2 0x180 ADD MLOAD PUSH2 0xFFFF AND DUP2 MSTORE POP SWAP1 POP DUP4 DUP2 PUSH1 0x40 ADD MLOAD PUSH1 0x40 ADD DUP2 DUP2 MSTORE POP POP DUP6 DUP2 PUSH1 0x80 ADD MLOAD PUSH1 0x40 ADD DUP2 DUP2 MSTORE POP POP DUP8 PUSH1 0x20 ADD MLOAD DUP2 PUSH1 0x60 ADD SWAP1 PUSH1 0x1 PUSH1 0x1 PUSH1 0xA0 SHL SUB AND SWAP1 DUP2 PUSH1 0x1 PUSH1 0x1 PUSH1 0xA0 SHL SUB AND DUP2 MSTORE POP POP DUP7 DUP9 PUSH1 0x40 ADD MLOAD PUSH1 0x40 ADD DUP2 DUP2 MSTORE POP POP DUP4 DUP9 PUSH1 0x80 ADD MLOAD PUSH1 0x40 ADD DUP2 DUP2 MSTORE POP POP PUSH1 0x0 PUSH2 0x132 PUSH1 0x0 DUP4 PUSH1 0x20 ADD MLOAD PUSH1 0x1 PUSH1 0x1 PUSH1 0xA0 SHL SUB AND PUSH1 0x1 PUSH1 0x1 PUSH1 0xA0 SHL SUB AND DUP2 MSTORE PUSH1 0x20 ADD SWAP1 DUP2 MSTORE PUSH1 0x20 ADD PUSH1 0x0 KECCAK256 DUP3 PUSH2 0x140 ADD MLOAD PUSH1 0x40 MLOAD PUSH2 0x113A SWAP2 SWAP1 PUSH2 0x3804 JUMP JUMPDEST SWAP1 DUP2 MSTORE PUSH1 0x40 DUP1 MLOAD PUSH1 0x20 SWAP3 DUP2 SWAP1 SUB DUP4 ADD SWAP1 KECCAK256 PUSH2 0x1A0 DUP6 ADD MLOAD PUSH2 0xFFFF AND PUSH1 0x0 SWAP1 DUP2 MSTORE SWAP3 MSTORE SWAP1 KECCAK256 SLOAD SWAP1 POP PUSH2 0x116B DUP10 DUP4 PUSH2 0x14B9 JUMP JUMPDEST PUSH2 0x1176 DUP10 DUP4 DUP4 PUSH2 0x15F3 JUMP JUMPDEST POP POP POP POP POP POP POP POP POP POP POP JUMP JUMPDEST DUP1 MLOAD DUP3 MLOAD EQ PUSH2 0x11A4 JUMPI PUSH1 0x40 MLOAD PUSH3 0x461BCD PUSH1 0xE5 SHL DUP2 MSTORE PUSH1 0x4 ADD PUSH2 0x420 SWAP1 PUSH2 0x4025 JUMP JUMPDEST PUSH1 0x0 JUMPDEST DUP3 MLOAD DUP2 LT ISZERO PUSH2 0xA86 JUMPI PUSH2 0x11E0 DUP4 DUP3 DUP2 MLOAD DUP2 LT PUSH2 0x11BF JUMPI INVALID JUMPDEST PUSH1 0x20 MUL PUSH1 0x20 ADD ADD MLOAD DUP4 DUP4 DUP2 MLOAD DUP2 LT PUSH2 0x11D3 JUMPI INVALID JUMPDEST PUSH1 0x20 MUL PUSH1 0x20 ADD ADD MLOAD PUSH2 0x195B JUMP JUMPDEST PUSH1 0x1 ADD PUSH2 0x11A7 JUMP JUMPDEST EXTCODESIZE ISZERO ISZERO SWAP1 JUMP JUMPDEST PUSH1 0x0 PUSH2 0x11F9 ADDRESS PUSH2 0x11E8 JUMP JUMPDEST ISZERO SWAP1 POP SWAP1 JUMP JUMPDEST PUSH1 0x0 SLOAD PUSH2 0x100 SWAP1 DIV PUSH1 0xFF AND DUP1 PUSH2 0x1218 JUMPI POP PUSH2 0x1218 PUSH2 0x11EE JUMP JUMPDEST DUP1 PUSH2 0x1226 JUMPI POP PUSH1 0x0 SLOAD PUSH1 0xFF AND ISZERO JUMPDEST PUSH2 0x1242 JUMPI PUSH1 0x40 MLOAD PUSH3 0x461BCD PUSH1 0xE5 SHL DUP2 MSTORE PUSH1 0x4 ADD PUSH2 0x420 SWAP1 PUSH2 0x3F5E JUMP JUMPDEST PUSH1 0x0 SLOAD PUSH2 0x100 SWAP1 DIV PUSH1 0xFF AND ISZERO DUP1 ISZERO PUSH2 0x126D JUMPI PUSH1 0x0 DUP1 SLOAD PUSH1 0xFF NOT PUSH2 0xFF00 NOT SWAP1 SWAP2 AND PUSH2 0x100 OR AND PUSH1 0x1 OR SWAP1 SSTORE JUMPDEST DUP1 ISZERO PUSH2 0x127F JUMPI PUSH1 0x0 DUP1 SLOAD PUSH2 0xFF00 NOT AND SWAP1 SSTORE JUMPDEST POP JUMP JUMPDEST PUSH1 0x0 SLOAD PUSH2 0x100 SWAP1 DIV PUSH1 0xFF AND DUP1 PUSH2 0x129B JUMPI POP PUSH2 0x129B PUSH2 0x11EE JUMP JUMPDEST DUP1 PUSH2 0x12A9 JUMPI POP PUSH1 0x0 SLOAD PUSH1 0xFF AND ISZERO JUMPDEST PUSH2 0x12C5 JUMPI PUSH1 0x40 MLOAD PUSH3 0x461BCD PUSH1 0xE5 SHL DUP2 MSTORE PUSH1 0x4 ADD PUSH2 0x420 SWAP1 PUSH2 0x3F5E JUMP JUMPDEST PUSH1 0x0 SLOAD PUSH2 0x100 SWAP1 DIV PUSH1 0xFF AND ISZERO DUP1 ISZERO PUSH2 0x12F0 JUMPI PUSH1 0x0 DUP1 SLOAD PUSH1 0xFF NOT PUSH2 0xFF00 NOT SWAP1 SWAP2 AND PUSH2 0x100 OR AND PUSH1 0x1 OR SWAP1 SSTORE JUMPDEST PUSH1 0x0 PUSH2 0x12FA PUSH2 0x1799 JUMP JUMPDEST PUSH1 0x33 DUP1 SLOAD PUSH1 0x1 PUSH1 0x1 PUSH1 0xA0 SHL SUB NOT AND PUSH1 0x1 PUSH1 0x1 PUSH1 0xA0 SHL SUB DUP4 AND SWAP1 DUP2 OR SWAP1 SWAP2 SSTORE PUSH1 0x40 MLOAD SWAP2 SWAP3 POP SWAP1 PUSH1 0x0 SWAP1 PUSH32 0x8BE0079C531659141344CD1FD0A4F28419497F9722A3DAAFE3B4186F6B6457E0 SWAP1 DUP3 SWAP1 LOG3 POP DUP1 ISZERO PUSH2 0x127F JUMPI PUSH1 0x0 DUP1 SLOAD PUSH2 0xFF00 NOT AND SWAP1 SSTORE POP JUMP JUMPDEST PUSH1 0x97 PUSH1 0x20 MSTORE PUSH32 0xD6CA216B3B8B63BCC0099D5C8294D1780D598AC9B3A29B15C3C3E68C85F6E30C DUP1 SLOAD PUSH1 0x1 PUSH1 0x1 PUSH1 0xA0 SHL SUB SWAP3 DUP4 AND PUSH1 0x1 PUSH1 0x1 PUSH1 0xA0 SHL SUB NOT SWAP2 DUP3 AND OR SWAP1 SWAP2 SSTORE PUSH32 0x17B8D24B2A0F404D68A0B2ABB80FD2D4D2105D3355F1FC48A1949FE7FCE12E5 DUP1 SLOAD SWAP4 SWAP1 SWAP3 AND SWAP3 DUP2 AND DUP4 OR SWAP1 SWAP2 SSTORE PUSH1 0x4 PUSH1 0x0 MSTORE PUSH32 0xF6FE0582E0E323A551F456B66350A1ED549948A34FDD35BE011D229E00171C1F DUP1 SLOAD SWAP1 SWAP2 AND SWAP1 SWAP2 OR SWAP1 SSTORE JUMP JUMPDEST PUSH1 0x0 SLOAD PUSH2 0x100 SWAP1 DIV PUSH1 0xFF AND DUP1 PUSH2 0x1419 JUMPI POP PUSH2 0x1419 PUSH2 0x11EE JUMP JUMPDEST DUP1 PUSH2 0x1427 JUMPI POP PUSH1 0x0 SLOAD PUSH1 0xFF AND ISZERO JUMPDEST PUSH2 0x1443 JUMPI PUSH1 0x40 MLOAD PUSH3 0x461BCD PUSH1 0xE5 SHL DUP2 MSTORE PUSH1 0x4 ADD PUSH2 0x420 SWAP1 PUSH2 0x3F5E JUMP JUMPDEST PUSH1 0x0 SLOAD PUSH2 0x100 SWAP1 DIV PUSH1 0xFF AND ISZERO DUP1 ISZERO PUSH2 0x146E JUMPI PUSH1 0x0 DUP1 SLOAD PUSH1 0xFF NOT PUSH2 0xFF00 NOT SWAP1 SWAP2 AND PUSH2 0x100 OR AND PUSH1 0x1 OR SWAP1 SSTORE JUMPDEST PUSH2 0x165 DUP1 SLOAD PUSH1 0x1 PUSH1 0x1 PUSH1 0xA0 SHL SUB NOT AND PUSH1 0x1 PUSH1 0x1 PUSH1 0xA0 SHL SUB DUP5 AND OR SWAP1 SSTORE DUP1 ISZERO PUSH2 0x149C JUMPI PUSH1 0x0 DUP1 SLOAD PUSH2 0xFF00 NOT AND SWAP1 SSTORE JUMPDEST POP POP POP POP JUMP JUMPDEST PUSH2 0x14AB DUP3 PUSH2 0x19E5 JUMP JUMPDEST PUSH2 0x14B5 DUP3 DUP3 PUSH2 0x1A45 JUMP JUMPDEST POP POP JUMP JUMPDEST PUSH1 0x20 DUP1 DUP4 ADD MLOAD PUSH1 0x1 PUSH1 0x1 PUSH1 0xA0 SHL SUB AND PUSH1 0x0 SWAP1 DUP2 MSTORE PUSH2 0x132 SWAP1 SWAP2 MSTORE PUSH1 0x40 DUP1 DUP3 KECCAK256 PUSH2 0x140 DUP6 ADD MLOAD SWAP2 MLOAD SWAP1 SWAP2 PUSH2 0x14EB SWAP2 PUSH2 0x3804 JUMP JUMPDEST SWAP1 DUP2 MSTORE PUSH1 0x20 ADD PUSH1 0x40 MLOAD DUP1 SWAP2 SUB SWAP1 KECCAK256 PUSH1 0x0 DUP5 PUSH2 0x1A0 ADD MLOAD PUSH2 0xFFFF AND PUSH2 0xFFFF AND DUP2 MSTORE PUSH1 0x20 ADD SWAP1 DUP2 MSTORE PUSH1 0x20 ADD PUSH1 0x0 KECCAK256 SLOAD SWAP1 POP DUP3 PUSH1 0x40 ADD MLOAD PUSH1 0x0 ADD MLOAD PUSH1 0xFF AND PUSH1 0x3 EQ ISZERO PUSH2 0x15AD JUMPI PUSH2 0x132 PUSH1 0x0 DUP5 PUSH1 0x20 ADD MLOAD PUSH1 0x1 PUSH1 0x1 PUSH1 0xA0 SHL SUB AND PUSH1 0x1 PUSH1 0x1 PUSH1 0xA0 SHL SUB AND DUP2 MSTORE PUSH1 0x20 ADD SWAP1 DUP2 MSTORE PUSH1 0x20 ADD PUSH1 0x0 KECCAK256 DUP4 PUSH2 0x140 ADD MLOAD PUSH1 0x40 MLOAD PUSH2 0x156B SWAP2 SWAP1 PUSH2 0x3804 JUMP JUMPDEST SWAP1 DUP2 MSTORE PUSH1 0x40 DUP1 MLOAD PUSH1 0x20 SWAP3 DUP2 SWAP1 SUB DUP4 ADD SWAP1 KECCAK256 PUSH2 0x1A0 DUP7 ADD MLOAD PUSH2 0xFFFF AND PUSH1 0x0 SWAP1 DUP2 MSTORE SWAP3 MSTORE SWAP1 KECCAK256 SLOAD ISZERO PUSH2 0x15AD JUMPI PUSH1 0x40 MLOAD PUSH3 0x461BCD PUSH1 0xE5 SHL DUP2 MSTORE PUSH1 0x4 ADD PUSH2 0x420 SWAP1 PUSH2 0x411D JUMP JUMPDEST DUP3 PUSH1 0x40 ADD MLOAD PUSH1 0x0 ADD MLOAD PUSH1 0xFF AND PUSH1 0x4 EQ ISZERO PUSH2 0xA86 JUMPI DUP2 PUSH1 0x80 ADD MLOAD PUSH1 0x40 ADD MLOAD DUP2 ADD DUP4 PUSH1 0x40 ADD MLOAD PUSH1 0x40 ADD MLOAD LT ISZERO PUSH2 0xA86 JUMPI PUSH1 0x40 MLOAD PUSH3 0x461BCD PUSH1 0xE5 SHL DUP2 MSTORE PUSH1 0x4 ADD PUSH2 0x420 SWAP1 PUSH2 0x3D5F JUMP JUMPDEST PUSH1 0x0 DUP1 PUSH2 0x1606 DUP6 DUP6 DUP6 DUP9 PUSH1 0x0 ADD MLOAD PUSH2 0x1C5D JUMP JUMPDEST SWAP2 POP SWAP2 POP PUSH2 0x1616 DUP6 DUP6 DUP5 DUP5 PUSH2 0x1CE6 JUMP JUMPDEST PUSH1 0x0 PUSH1 0x2 DUP7 MLOAD PUSH1 0x3 DUP2 GT ISZERO PUSH2 0x1627 JUMPI INVALID JUMPDEST EQ DUP1 PUSH2 0x163F JUMPI POP PUSH1 0x3 DUP7 MLOAD PUSH1 0x3 DUP2 GT ISZERO PUSH2 0x163D JUMPI INVALID JUMPDEST EQ JUMPDEST PUSH2 0x1649 JUMPI DUP6 PUSH2 0x164B JUMP JUMPDEST DUP5 JUMPDEST SWAP1 POP PUSH1 0x0 DUP6 PUSH1 0x80 ADD MLOAD PUSH1 0x40 ADD MLOAD PUSH2 0x132 PUSH1 0x0 DUP5 PUSH1 0x20 ADD MLOAD PUSH1 0x1 PUSH1 0x1 PUSH1 0xA0 SHL SUB AND PUSH1 0x1 PUSH1 0x1 PUSH1 0xA0 SHL SUB AND DUP2 MSTORE PUSH1 0x20 ADD SWAP1 DUP2 MSTORE PUSH1 0x20 ADD PUSH1 0x0 KECCAK256 DUP4 PUSH2 0x140 ADD MLOAD PUSH1 0x40 MLOAD PUSH2 0x1695 SWAP2 SWAP1 PUSH2 0x3804 JUMP JUMPDEST SWAP1 DUP2 MSTORE PUSH1 0x40 DUP1 MLOAD PUSH1 0x20 SWAP3 DUP2 SWAP1 SUB DUP4 ADD DUP2 KECCAK256 PUSH2 0x1A0 DUP8 ADD MLOAD PUSH2 0xFFFF AND PUSH1 0x0 SWAP1 DUP2 MSTORE SWAP1 DUP5 MSTORE DUP3 DUP2 KECCAK256 SLOAD DUP8 DUP6 ADD MLOAD PUSH1 0x1 PUSH1 0x1 PUSH1 0xA0 SHL SUB AND DUP3 MSTORE PUSH2 0x132 SWAP1 SWAP5 MSTORE SWAP2 SWAP1 SWAP2 KECCAK256 PUSH2 0x140 DUP7 ADD MLOAD SWAP4 SWAP1 SWAP3 ADD SWAP4 POP DUP4 SWAP3 PUSH2 0x16EC SWAP2 PUSH2 0x3804 JUMP JUMPDEST SWAP1 DUP2 MSTORE PUSH1 0x20 ADD PUSH1 0x40 MLOAD DUP1 SWAP2 SUB SWAP1 KECCAK256 PUSH1 0x0 DUP5 PUSH2 0x1A0 ADD MLOAD PUSH2 0xFFFF AND PUSH2 0xFFFF AND DUP2 MSTORE PUSH1 0x20 ADD SWAP1 DUP2 MSTORE PUSH1 0x20 ADD PUSH1 0x0 KECCAK256 DUP2 SWAP1 SSTORE POP PUSH32 0xA49E31994A96DC315540D6FF9E29428418ADDFA28F6FFCC73DDAD3528E40DDC1 DUP8 PUSH1 0x0 ADD MLOAD DUP9 PUSH1 0x20 ADD MLOAD DUP9 PUSH1 0x20 ADD MLOAD DUP6 PUSH2 0x140 ADD MLOAD DUP7 PUSH2 0x1A0 ADD MLOAD DUP12 PUSH1 0x80 ADD MLOAD PUSH1 0x40 ADD MLOAD DUP13 PUSH1 0x80 ADD MLOAD PUSH1 0x60 ADD MLOAD DUP9 PUSH2 0x1773 PUSH2 0x1DEF JUMP JUMPDEST PUSH1 0x40 MLOAD PUSH2 0x1788 SWAP10 SWAP9 SWAP8 SWAP7 SWAP6 SWAP5 SWAP4 SWAP3 SWAP2 SWAP1 PUSH2 0x3B71 JUMP JUMPDEST PUSH1 0x40 MLOAD DUP1 SWAP2 SUB SWAP1 LOG1 POP POP POP POP POP POP POP JUMP JUMPDEST CALLER SWAP1 JUMP JUMPDEST PUSH2 0x1A0 DUP2 ADD MLOAD PUSH1 0x20 DUP1 DUP4 ADD MLOAD PUSH1 0x40 DUP1 DUP6 ADD MLOAD DUP1 DUP5 ADD MLOAD PUSH1 0x60 DUP1 DUP4 ADD MLOAD DUP4 DUP6 ADD MLOAD SWAP4 MLOAD DUP3 DUP11 ADD MLOAD PUSH1 0x80 DUP12 ADD MLOAD DUP1 DUP11 ADD MLOAD SWAP5 DUP2 ADD MLOAD DUP2 DUP10 ADD MLOAD SWAP2 MLOAD SWAP9 MLOAD PUSH1 0x0 SWAP13 PUSH2 0x17F7 SWAP13 SWAP1 SWAP12 SWAP11 SWAP9 SWAP10 SWAP7 SWAP9 SWAP7 SWAP8 SWAP6 SWAP7 SWAP5 SWAP6 SWAP5 SWAP3 SWAP4 SWAP3 SWAP2 ADD PUSH2 0x436B JUMP JUMPDEST PUSH1 0x40 MLOAD PUSH1 0x20 DUP2 DUP4 SUB SUB DUP2 MSTORE SWAP1 PUSH1 0x40 MSTORE DUP1 MLOAD SWAP1 PUSH1 0x20 ADD KECCAK256 SWAP1 POP SWAP2 SWAP1 POP JUMP JUMPDEST PUSH1 0x0 DUP3 PUSH2 0x1821 DUP6 DUP5 PUSH2 0x1E2F JUMP JUMPDEST EQ SWAP1 POP JUMPDEST SWAP4 SWAP3 POP POP POP JUMP JUMPDEST PUSH1 0x0 DUP2 PUSH1 0x20 ADD MLOAD PUSH2 0x1840 DUP4 PUSH1 0x40 ADD MLOAD PUSH2 0x1E6C JUMP JUMPDEST PUSH2 0x184D DUP5 PUSH1 0x80 ADD MLOAD PUSH2 0x1E6C JUMP JUMPDEST DUP5 PUSH1 0xA0 ADD MLOAD PUSH1 0x40 MLOAD PUSH1 0x20 ADD PUSH2 0x17F7 SWAP5 SWAP4 SWAP3 SWAP2 SWAP1 PUSH2 0x3959 JUMP JUMPDEST PUSH1 0x80 DUP3 ADD MLOAD PUSH2 0x18C1 JUMPI DUP2 MLOAD PUSH1 0x1 PUSH1 0x1 PUSH1 0xA0 SHL SUB AND ISZERO DUP1 ISZERO SWAP1 PUSH2 0x18A0 JUMPI POP DUP2 MLOAD PUSH1 0x1 PUSH1 0x1 PUSH1 0xA0 SHL SUB AND PUSH2 0x1895 PUSH2 0x1799 JUMP JUMPDEST PUSH1 0x1 PUSH1 0x1 PUSH1 0xA0 SHL SUB AND EQ JUMPDEST PUSH2 0x18BC JUMPI PUSH1 0x40 MLOAD PUSH3 0x461BCD PUSH1 0xE5 SHL DUP2 MSTORE PUSH1 0x4 ADD PUSH2 0x420 SWAP1 PUSH2 0x3F2E JUMP JUMPDEST PUSH2 0x14B5 JUMP JUMPDEST PUSH1 0x0 PUSH2 0x18CC DUP4 PUSH2 0x1E89 JUMP JUMPDEST DUP4 MLOAD SWAP1 SWAP2 POP PUSH1 0x1 PUSH1 0x1 PUSH1 0xA0 SHL SUB AND PUSH2 0x18E2 PUSH2 0x1799 JUMP JUMPDEST PUSH1 0x1 PUSH1 0x1 PUSH1 0xA0 SHL SUB AND EQ PUSH2 0xA86 JUMPI DUP3 MLOAD PUSH1 0x1 PUSH1 0x1 PUSH1 0xA0 SHL SUB AND PUSH2 0x190E DUP4 PUSH2 0x1908 DUP5 PUSH2 0x1EFD JUMP JUMPDEST SWAP1 PUSH2 0x1F19 JUMP JUMPDEST PUSH1 0x1 PUSH1 0x1 PUSH1 0xA0 SHL SUB AND EQ PUSH2 0x1934 JUMPI PUSH1 0x40 MLOAD PUSH3 0x461BCD PUSH1 0xE5 SHL DUP2 MSTORE PUSH1 0x4 ADD PUSH2 0x420 SWAP1 PUSH2 0x40C0 JUMP JUMPDEST DUP3 MLOAD PUSH1 0x1 PUSH1 0x1 PUSH1 0xA0 SHL SUB AND PUSH2 0xA86 JUMPI PUSH1 0x40 MLOAD PUSH3 0x461BCD PUSH1 0xE5 SHL DUP2 MSTORE PUSH1 0x4 ADD PUSH2 0x420 SWAP1 PUSH2 0x3DCD JUMP JUMPDEST PUSH1 0x20 DUP1 DUP4 ADD MLOAD PUSH1 0x1 PUSH1 0x1 PUSH1 0xA0 SHL SUB AND PUSH1 0x0 SWAP1 DUP2 MSTORE PUSH2 0x132 SWAP1 SWAP2 MSTORE PUSH1 0x40 DUP1 DUP3 KECCAK256 PUSH2 0x140 DUP6 ADD MLOAD SWAP2 MLOAD SWAP1 SWAP2 PUSH2 0x198D SWAP2 PUSH2 0x3804 JUMP JUMPDEST SWAP1 DUP2 MSTORE PUSH1 0x40 DUP1 MLOAD PUSH1 0x20 SWAP3 DUP2 SWAP1 SUB DUP4 ADD SWAP1 KECCAK256 PUSH2 0x1A0 DUP7 ADD MLOAD PUSH2 0xFFFF AND PUSH1 0x0 SWAP1 DUP2 MSTORE SWAP3 MSTORE SWAP1 KECCAK256 SLOAD SWAP1 POP PUSH2 0x19BD DUP4 PUSH2 0x1F64 JUMP JUMPDEST PUSH2 0x19C6 DUP3 PUSH2 0x1F64 JUMP JUMPDEST PUSH2 0x19D0 DUP4 DUP4 PUSH2 0x14B9 JUMP JUMPDEST PUSH2 0x19DA DUP4 DUP4 PUSH2 0x1FAA JUMP JUMPDEST PUSH2 0xA86 DUP4 DUP4 DUP4 PUSH2 0x15F3 JUMP JUMPDEST PUSH1 0xC0 DUP2 ADD MLOAD ISZERO DUP1 PUSH2 0x19F9 JUMPI POP TIMESTAMP DUP2 PUSH1 0xC0 ADD MLOAD LT JUMPDEST PUSH2 0x1A15 JUMPI PUSH1 0x40 MLOAD PUSH3 0x461BCD PUSH1 0xE5 SHL DUP2 MSTORE PUSH1 0x4 ADD PUSH2 0x420 SWAP1 PUSH2 0x3FAC JUMP JUMPDEST PUSH1 0xE0 DUP2 ADD MLOAD ISZERO DUP1 PUSH2 0x1A29 JUMPI POP TIMESTAMP DUP2 PUSH1 0xE0 ADD MLOAD GT JUMPDEST PUSH2 0x127F JUMPI PUSH1 0x40 MLOAD PUSH3 0x461BCD PUSH1 0xE5 SHL DUP2 MSTORE PUSH1 0x4 ADD PUSH2 0x420 SWAP1 PUSH2 0x3CFA JUMP JUMPDEST PUSH1 0x20 DUP3 ADD MLOAD PUSH1 0x1 PUSH1 0x1 PUSH1 0xA0 SHL SUB AND PUSH2 0x1A6F JUMPI PUSH1 0x40 MLOAD PUSH3 0x461BCD PUSH1 0xE5 SHL DUP2 MSTORE PUSH1 0x4 ADD PUSH2 0x420 SWAP1 PUSH2 0x3DCD JUMP JUMPDEST PUSH1 0xA0 DUP3 ADD MLOAD PUSH2 0x1AA5 JUMPI PUSH1 0x20 DUP3 ADD MLOAD PUSH1 0x1 PUSH1 0x1 PUSH1 0xA0 SHL SUB AND ISZERO DUP1 ISZERO SWAP1 PUSH2 0x18A0 JUMPI POP DUP2 PUSH1 0x20 ADD MLOAD PUSH1 0x1 PUSH1 0x1 PUSH1 0xA0 SHL SUB AND PUSH2 0x1895 PUSH2 0x1799 JUMP JUMPDEST PUSH1 0x0 DUP1 DUP4 MLOAD PUSH1 0x3 DUP2 GT ISZERO PUSH2 0x1AB5 JUMPI INVALID JUMPDEST EQ DUP1 PUSH2 0x1ACD JUMPI POP PUSH1 0x2 DUP4 MLOAD PUSH1 0x3 DUP2 GT ISZERO PUSH2 0x1ACB JUMPI INVALID JUMPDEST EQ JUMPDEST ISZERO PUSH2 0x1AE2 JUMPI PUSH2 0x1ADB DUP4 PUSH2 0x2377 JUMP JUMPDEST SWAP1 POP PUSH2 0x1B1E JUMP JUMPDEST PUSH1 0x1 DUP4 MLOAD PUSH1 0x3 DUP2 GT ISZERO PUSH2 0x1AF1 JUMPI INVALID JUMPDEST EQ ISZERO PUSH2 0x1B06 JUMPI PUSH2 0x1ADB DUP4 DUP5 PUSH2 0x160 ADD MLOAD PUSH2 0x23EB JUMP JUMPDEST PUSH1 0x40 MLOAD PUSH3 0x461BCD PUSH1 0xE5 SHL DUP2 MSTORE PUSH1 0x4 ADD PUSH2 0x420 SWAP1 PUSH2 0x3C16 JUMP JUMPDEST DUP3 PUSH1 0x20 ADD MLOAD PUSH1 0x1 PUSH1 0x1 PUSH1 0xA0 SHL SUB AND PUSH2 0x1B34 PUSH2 0x1799 JUMP JUMPDEST PUSH1 0x1 PUSH1 0x1 PUSH1 0xA0 SHL SUB AND EQ PUSH2 0xA86 JUMPI PUSH2 0x1B58 DUP4 PUSH1 0x20 ADD MLOAD PUSH1 0x1 PUSH1 0x1 PUSH1 0xA0 SHL SUB AND PUSH2 0x11E8 JUMP JUMPDEST ISZERO PUSH2 0x1C1C JUMPI PUSH1 0x20 DUP4 ADD MLOAD PUSH4 0xB135D3F PUSH1 0xE1 SHL SWAP1 PUSH1 0x1 PUSH1 0x1 PUSH1 0xA0 SHL SUB AND PUSH4 0x1626BA7E PUSH2 0x1B82 DUP5 PUSH2 0x1EFD JUMP JUMPDEST DUP6 PUSH1 0x40 MLOAD DUP4 PUSH4 0xFFFFFFFF AND PUSH1 0xE0 SHL DUP2 MSTORE PUSH1 0x4 ADD PUSH2 0x1BA0 SWAP3 SWAP2 SWAP1 PUSH2 0x3A77 JUMP JUMPDEST PUSH1 0x20 PUSH1 0x40 MLOAD DUP1 DUP4 SUB DUP2 DUP7 DUP1 EXTCODESIZE ISZERO DUP1 ISZERO PUSH2 0x1BB8 JUMPI PUSH1 0x0 DUP1 REVERT JUMPDEST POP GAS STATICCALL ISZERO DUP1 ISZERO PUSH2 0x1BCC JUMPI RETURNDATASIZE PUSH1 0x0 DUP1 RETURNDATACOPY RETURNDATASIZE PUSH1 0x0 REVERT JUMPDEST POP POP POP POP PUSH1 0x40 MLOAD RETURNDATASIZE PUSH1 0x1F NOT PUSH1 0x1F DUP3 ADD AND DUP3 ADD DUP1 PUSH1 0x40 MSTORE POP DUP2 ADD SWAP1 PUSH2 0x1BF0 SWAP2 SWAP1 PUSH2 0x3606 JUMP JUMPDEST PUSH1 0x1 PUSH1 0x1 PUSH1 0xE0 SHL SUB NOT AND EQ PUSH2 0x1C17 JUMPI PUSH1 0x40 MLOAD PUSH3 0x461BCD PUSH1 0xE5 SHL DUP2 MSTORE PUSH1 0x4 ADD PUSH2 0x420 SWAP1 PUSH2 0x3EB7 JUMP JUMPDEST PUSH2 0xA86 JUMP JUMPDEST DUP3 PUSH1 0x20 ADD MLOAD PUSH1 0x1 PUSH1 0x1 PUSH1 0xA0 SHL SUB AND PUSH2 0x1C37 DUP4 PUSH2 0x1908 DUP5 PUSH2 0x1EFD JUMP JUMPDEST PUSH1 0x1 PUSH1 0x1 PUSH1 0xA0 SHL SUB AND EQ PUSH2 0xA86 JUMPI PUSH1 0x40 MLOAD PUSH3 0x461BCD PUSH1 0xE5 SHL DUP2 MSTORE PUSH1 0x4 ADD PUSH2 0x420 SWAP1 PUSH2 0x3E75 JUMP JUMPDEST PUSH2 0x1C65 PUSH2 0x3032 JUMP JUMPDEST PUSH2 0x1C6D PUSH2 0x3032 JUMP JUMPDEST PUSH2 0x1C81 DUP7 PUSH1 0x40 ADD MLOAD DUP7 PUSH1 0x80 ADD MLOAD DUP7 DUP7 PUSH2 0x244A JUMP JUMPDEST DUP1 MLOAD SWAP1 SWAP3 POP PUSH1 0xFF AND PUSH2 0x1CA5 JUMPI PUSH1 0x40 MLOAD PUSH3 0x461BCD PUSH1 0xE5 SHL DUP2 MSTORE PUSH1 0x4 ADD PUSH2 0x420 SWAP1 PUSH2 0x4154 JUMP JUMPDEST PUSH2 0x1CB9 DUP7 PUSH1 0x80 ADD MLOAD DUP7 PUSH1 0x40 ADD MLOAD DUP7 DUP7 PUSH2 0x244A JUMP JUMPDEST DUP1 MLOAD SWAP1 SWAP2 POP PUSH1 0xFF AND PUSH2 0x1CDD JUMPI PUSH1 0x40 MLOAD PUSH3 0x461BCD PUSH1 0xE5 SHL DUP2 MSTORE PUSH1 0x4 ADD PUSH2 0x420 SWAP1 PUSH2 0x4154 JUMP JUMPDEST SWAP5 POP SWAP5 SWAP3 POP POP POP JUMP JUMPDEST PUSH1 0x2 PUSH2 0x12F SLOAD EQ ISZERO PUSH2 0x1D3F JUMPI PUSH1 0x40 DUP1 MLOAD PUSH3 0x461BCD PUSH1 0xE5 SHL DUP2 MSTORE PUSH1 0x20 PUSH1 0x4 DUP3 ADD MSTORE PUSH1 0x1F PUSH1 0x24 DUP3 ADD MSTORE PUSH32 0x5265656E7472616E637947756172643A207265656E7472616E742063616C6C00 PUSH1 0x44 DUP3 ADD MSTORE SWAP1 MLOAD SWAP1 DUP2 SWAP1 SUB PUSH1 0x64 ADD SWAP1 REVERT JUMPDEST PUSH1 0x2 PUSH2 0x12F SSTORE PUSH1 0x40 DUP1 MLOAD PUSH1 0x80 DUP1 DUP3 ADD DUP4 MSTORE DUP5 DUP3 MSTORE DUP5 MLOAD PUSH1 0xFF SWAP1 DUP2 AND PUSH1 0x0 SWAP1 DUP2 MSTORE PUSH1 0x97 PUSH1 0x20 DUP2 DUP2 MSTORE DUP7 DUP4 KECCAK256 SLOAD PUSH1 0x1 PUSH1 0x1 PUSH1 0xA0 SHL SUB SWAP1 DUP2 AND DUP3 DUP9 ADD MSTORE DUP12 DUP3 ADD DUP1 MLOAD DUP3 AND DUP9 DUP11 ADD MSTORE DUP12 DUP4 ADD DUP1 MLOAD DUP4 AND PUSH1 0x60 DUP1 DUP12 ADD SWAP2 SWAP1 SWAP2 MSTORE DUP11 MLOAD SWAP9 DUP10 ADD DUP12 MSTORE DUP12 DUP10 MSTORE DUP12 MLOAD SWAP1 SWAP8 AND DUP7 MSTORE SWAP4 DUP4 MSTORE SWAP4 DUP9 SWAP1 KECCAK256 SLOAD DUP2 AND SWAP2 DUP7 ADD SWAP2 SWAP1 SWAP2 MSTORE SWAP1 MLOAD DUP2 AND SWAP6 DUP5 ADD SWAP6 SWAP1 SWAP6 MSTORE MLOAD SWAP1 SWAP4 AND SWAP3 DUP2 ADD SWAP3 SWAP1 SWAP3 MSTORE PUSH2 0x1DD5 SWAP2 PUSH2 0x2491 JUMP JUMPDEST POP POP PUSH2 0x1DE3 DUP5 DUP5 DUP4 DUP6 PUSH2 0x251C JUMP JUMPDEST POP POP PUSH1 0x1 PUSH2 0x12F SSTORE POP POP JUMP JUMPDEST PUSH2 0x130 DUP1 SLOAD PUSH1 0x1 ADD SWAP1 DUP2 SWAP1 SSTORE PUSH1 0x40 MLOAD PUSH1 0x0 SWAP2 PUSH2 0x1E11 SWAP2 TIMESTAMP SWAP2 CALLER SWAP2 PUSH1 0x20 ADD PUSH2 0x386F JUMP JUMPDEST PUSH1 0x40 MLOAD PUSH1 0x20 DUP2 DUP4 SUB SUB DUP2 MSTORE SWAP1 PUSH1 0x40 MSTORE DUP1 MLOAD SWAP1 PUSH1 0x20 ADD KECCAK256 PUSH1 0x0 SHR SWAP1 POP SWAP1 JUMP JUMPDEST PUSH1 0x0 DUP2 DUP2 JUMPDEST DUP5 MLOAD DUP2 LT ISZERO PUSH2 0x1E64 JUMPI PUSH2 0x1E5A DUP3 DUP7 DUP4 DUP2 MLOAD DUP2 LT PUSH2 0x1E4D JUMPI INVALID JUMPDEST PUSH1 0x20 MUL PUSH1 0x20 ADD ADD MLOAD PUSH2 0x2613 JUMP JUMPDEST SWAP2 POP PUSH1 0x1 ADD PUSH2 0x1E34 JUMP JUMPDEST POP SWAP4 SWAP3 POP POP POP JUMP JUMPDEST PUSH1 0x0 DUP2 PUSH1 0x0 ADD MLOAD DUP3 PUSH1 0x40 ADD MLOAD PUSH1 0x40 MLOAD PUSH1 0x20 ADD PUSH2 0x17F7 SWAP3 SWAP2 SWAP1 PUSH2 0x43E9 JUMP JUMPDEST PUSH1 0x0 PUSH32 0xB6F220611A11C66F474A57BF25B071AA931C6B6D69EF98D48C4B24DBCD664256 DUP3 PUSH1 0x0 ADD MLOAD PUSH2 0x1EBE DUP5 PUSH1 0x20 ADD MLOAD PUSH2 0x2635 JUMP JUMPDEST DUP5 PUSH1 0x40 ADD MLOAD PUSH2 0x1ED0 DUP7 PUSH1 0x60 ADD MLOAD PUSH2 0x2680 JUMP JUMPDEST DUP7 PUSH1 0x80 ADD MLOAD DUP8 PUSH1 0xA0 ADD MLOAD DUP9 PUSH1 0xC0 ADD MLOAD DUP10 PUSH2 0x180 ADD MLOAD PUSH1 0x40 MLOAD PUSH1 0x20 ADD PUSH2 0x17F7 SWAP10 SWAP9 SWAP8 SWAP7 SWAP6 SWAP5 SWAP4 SWAP3 SWAP2 SWAP1 PUSH2 0x39D5 JUMP JUMPDEST PUSH1 0x0 PUSH2 0x1F07 PUSH2 0x26C5 JUMP JUMPDEST DUP3 PUSH1 0x40 MLOAD PUSH1 0x20 ADD PUSH2 0x17F7 SWAP3 SWAP2 SWAP1 PUSH2 0x3851 JUMP JUMPDEST PUSH1 0x0 DUP2 MLOAD PUSH1 0x41 EQ PUSH2 0x1F3C JUMPI PUSH1 0x40 MLOAD PUSH3 0x461BCD PUSH1 0xE5 SHL DUP2 MSTORE PUSH1 0x4 ADD PUSH2 0x420 SWAP1 PUSH2 0x3C7D JUMP JUMPDEST PUSH1 0x20 DUP3 ADD MLOAD PUSH1 0x40 DUP4 ADD MLOAD PUSH1 0x60 DUP5 ADD MLOAD PUSH1 0x0 BYTE PUSH2 0x1F5A DUP7 DUP3 DUP6 DUP6 PUSH2 0x2705 JUMP JUMPDEST SWAP7 SWAP6 POP POP POP POP POP POP JUMP JUMPDEST PUSH1 0x1 DUP2 MLOAD PUSH1 0x3 DUP2 GT ISZERO PUSH2 0x1F73 JUMPI INVALID JUMPDEST EQ ISZERO PUSH2 0x127F JUMPI PUSH2 0x1F8E DUP2 PUSH2 0x160 ADD MLOAD DUP3 PUSH2 0x180 ADD MLOAD DUP4 PUSH2 0x680 JUMP JUMPDEST PUSH2 0x127F JUMPI PUSH1 0x40 MLOAD PUSH3 0x461BCD PUSH1 0xE5 SHL DUP2 MSTORE PUSH1 0x4 ADD PUSH2 0x420 SWAP1 PUSH2 0x429C JUMP JUMPDEST PUSH2 0x1FB9 DUP3 DUP4 PUSH2 0x140 ADD MLOAD PUSH2 0x14A2 JUMP JUMPDEST PUSH2 0x1FC8 DUP2 DUP3 PUSH2 0x140 ADD MLOAD PUSH2 0x14A2 JUMP JUMPDEST PUSH1 0x60 DUP3 ADD MLOAD PUSH1 0x1 PUSH1 0x1 PUSH1 0xA0 SHL SUB AND ISZERO PUSH2 0x2014 JUMPI DUP2 PUSH1 0x60 ADD MLOAD PUSH1 0x1 PUSH1 0x1 PUSH1 0xA0 SHL SUB AND DUP2 PUSH1 0x20 ADD MLOAD PUSH1 0x1 PUSH1 0x1 PUSH1 0xA0 SHL SUB AND EQ PUSH2 0x2014 JUMPI PUSH1 0x40 MLOAD PUSH3 0x461BCD PUSH1 0xE5 SHL DUP2 MSTORE PUSH1 0x4 ADD PUSH2 0x420 SWAP1 PUSH2 0x4259 JUMP JUMPDEST PUSH1 0x60 DUP2 ADD MLOAD PUSH1 0x1 PUSH1 0x1 PUSH1 0xA0 SHL SUB AND ISZERO PUSH2 0x2060 JUMPI DUP2 PUSH1 0x20 ADD MLOAD PUSH1 0x1 PUSH1 0x1 PUSH1 0xA0 SHL SUB AND DUP2 PUSH1 0x60 ADD MLOAD PUSH1 0x1 PUSH1 0x1 PUSH1 0xA0 SHL SUB AND EQ PUSH2 0x2060 JUMPI PUSH1 0x40 MLOAD PUSH3 0x461BCD PUSH1 0xE5 SHL DUP2 MSTORE PUSH1 0x4 ADD PUSH2 0x420 SWAP1 PUSH2 0x3E31 JUMP JUMPDEST DUP2 PUSH1 0x40 ADD MLOAD PUSH1 0x0 ADD MLOAD PUSH1 0xFF AND PUSH1 0x3 EQ DUP1 PUSH2 0x2085 JUMPI POP DUP2 PUSH1 0x40 ADD MLOAD PUSH1 0x0 ADD MLOAD PUSH1 0xFF AND PUSH1 0x4 EQ JUMPDEST ISZERO PUSH2 0x21AB JUMPI PUSH1 0x80 DUP2 DUP2 ADD MLOAD PUSH1 0x40 SWAP1 DUP2 ADD MLOAD SWAP2 DUP5 ADD MLOAD DUP2 ADD MLOAD SWAP1 DUP4 ADD MLOAD MLOAD PUSH1 0x0 SWAP1 PUSH1 0xFF AND PUSH1 0x2 EQ PUSH2 0x20B5 JUMPI CALLVALUE PUSH2 0x20BF JUMP JUMPDEST DUP4 PUSH1 0x40 ADD MLOAD PUSH1 0x40 ADD MLOAD JUMPDEST SWAP1 POP DUP4 PUSH1 0x40 ADD MLOAD PUSH1 0x0 ADD MLOAD PUSH1 0xFF AND PUSH1 0x2 EQ ISZERO PUSH2 0x2185 JUMPI PUSH1 0x0 DUP5 PUSH1 0x40 ADD MLOAD PUSH1 0x20 ADD MLOAD PUSH1 0x1 PUSH1 0x1 PUSH1 0xA0 SHL SUB AND PUSH4 0x70A08231 DUP7 PUSH1 0x20 ADD MLOAD PUSH1 0x40 MLOAD DUP3 PUSH4 0xFFFFFFFF AND PUSH1 0xE0 SHL DUP2 MSTORE PUSH1 0x4 ADD PUSH2 0x210F SWAP2 SWAP1 PUSH2 0x3897 JUMP JUMPDEST PUSH1 0x20 PUSH1 0x40 MLOAD DUP1 DUP4 SUB DUP2 DUP7 DUP1 EXTCODESIZE ISZERO DUP1 ISZERO PUSH2 0x2127 JUMPI PUSH1 0x0 DUP1 REVERT JUMPDEST POP GAS STATICCALL ISZERO DUP1 ISZERO PUSH2 0x213B JUMPI RETURNDATASIZE PUSH1 0x0 DUP1 RETURNDATACOPY RETURNDATASIZE PUSH1 0x0 REVERT JUMPDEST POP POP POP POP PUSH1 0x40 MLOAD RETURNDATASIZE PUSH1 0x1F NOT PUSH1 0x1F DUP3 ADD AND DUP3 ADD DUP1 PUSH1 0x40 MSTORE POP DUP2 ADD SWAP1 PUSH2 0x215F SWAP2 SWAP1 PUSH2 0x36FF JUMP JUMPDEST SWAP1 POP DUP3 DUP5 MUL DUP2 LT ISZERO PUSH2 0x2183 JUMPI PUSH1 0x40 MLOAD PUSH3 0x461BCD PUSH1 0xE5 SHL DUP2 MSTORE PUSH1 0x4 ADD PUSH2 0x420 SWAP1 PUSH2 0x4180 JUMP JUMPDEST POP JUMPDEST DUP1 DUP3 DUP5 MUL GT ISZERO PUSH2 0x21A7 JUMPI PUSH1 0x40 MLOAD PUSH3 0x461BCD PUSH1 0xE5 SHL DUP2 MSTORE PUSH1 0x4 ADD PUSH2 0x420 SWAP1 PUSH2 0x41B7 JUMP JUMPDEST POP POP POP JUMPDEST DUP1 PUSH1 0x40 ADD MLOAD PUSH1 0x0 ADD MLOAD PUSH1 0xFF AND PUSH1 0x3 EQ DUP1 PUSH2 0x21D0 JUMPI POP DUP1 PUSH1 0x40 ADD MLOAD PUSH1 0x0 ADD MLOAD PUSH1 0xFF AND PUSH1 0x4 EQ JUMPDEST ISZERO PUSH2 0x14B5 JUMPI PUSH1 0x80 DUP3 DUP2 ADD MLOAD PUSH1 0x40 SWAP1 DUP2 ADD MLOAD SWAP2 DUP4 ADD MLOAD DUP2 ADD MLOAD SWAP1 DUP5 ADD MLOAD MLOAD PUSH1 0x0 SWAP1 PUSH1 0xFF AND PUSH1 0x2 EQ PUSH2 0x2200 JUMPI CALLVALUE PUSH2 0x2288 JUMP JUMPDEST DUP5 PUSH1 0x40 ADD MLOAD PUSH1 0x20 ADD MLOAD PUSH1 0x1 PUSH1 0x1 PUSH1 0xA0 SHL SUB AND PUSH4 0x70A08231 DUP7 PUSH1 0x20 ADD MLOAD PUSH1 0x40 MLOAD DUP3 PUSH4 0xFFFFFFFF AND PUSH1 0xE0 SHL DUP2 MSTORE PUSH1 0x4 ADD PUSH2 0x2238 SWAP2 SWAP1 PUSH2 0x3897 JUMP JUMPDEST PUSH1 0x20 PUSH1 0x40 MLOAD DUP1 DUP4 SUB DUP2 DUP7 DUP1 EXTCODESIZE ISZERO DUP1 ISZERO PUSH2 0x2250 JUMPI PUSH1 0x0 DUP1 REVERT JUMPDEST POP GAS STATICCALL ISZERO DUP1 ISZERO PUSH2 0x2264 JUMPI RETURNDATASIZE PUSH1 0x0 DUP1 RETURNDATACOPY RETURNDATASIZE PUSH1 0x0 REVERT JUMPDEST POP POP POP POP PUSH1 0x40 MLOAD RETURNDATASIZE PUSH1 0x1F NOT PUSH1 0x1F DUP3 ADD AND DUP3 ADD DUP1 PUSH1 0x40 MSTORE POP DUP2 ADD SWAP1 PUSH2 0x2288 SWAP2 SWAP1 PUSH2 0x36FF JUMP JUMPDEST SWAP1 POP DUP5 PUSH1 0x40 ADD MLOAD PUSH1 0x0 ADD MLOAD PUSH1 0xFF AND PUSH1 0x2 EQ ISZERO PUSH2 0x234E JUMPI PUSH1 0x0 DUP6 PUSH1 0x40 ADD MLOAD PUSH1 0x20 ADD MLOAD PUSH1 0x1 PUSH1 0x1 PUSH1 0xA0 SHL SUB AND PUSH4 0x70A08231 DUP8 PUSH1 0x20 ADD MLOAD PUSH1 0x40 MLOAD DUP3 PUSH4 0xFFFFFFFF AND PUSH1 0xE0 SHL DUP2 MSTORE PUSH1 0x4 ADD PUSH2 0x22D8 SWAP2 SWAP1 PUSH2 0x3897 JUMP JUMPDEST PUSH1 0x20 PUSH1 0x40 MLOAD DUP1 DUP4 SUB DUP2 DUP7 DUP1 EXTCODESIZE ISZERO DUP1 ISZERO PUSH2 0x22F0 JUMPI PUSH1 0x0 DUP1 REVERT JUMPDEST POP GAS STATICCALL ISZERO DUP1 ISZERO PUSH2 0x2304 JUMPI RETURNDATASIZE PUSH1 0x0 DUP1 RETURNDATACOPY RETURNDATASIZE PUSH1 0x0 REVERT JUMPDEST POP POP POP POP PUSH1 0x40 MLOAD RETURNDATASIZE PUSH1 0x1F NOT PUSH1 0x1F DUP3 ADD AND DUP3 ADD DUP1 PUSH1 0x40 MSTORE POP DUP2 ADD SWAP1 PUSH2 0x2328 SWAP2 SWAP1 PUSH2 0x36FF JUMP JUMPDEST SWAP1 POP DUP3 DUP5 MUL DUP2 LT ISZERO PUSH2 0x234C JUMPI PUSH1 0x40 MLOAD PUSH3 0x461BCD PUSH1 0xE5 SHL DUP2 MSTORE PUSH1 0x4 ADD PUSH2 0x420 SWAP1 PUSH2 0x4180 JUMP JUMPDEST POP JUMPDEST DUP1 DUP3 DUP5 MUL GT ISZERO PUSH2 0x2370 JUMPI PUSH1 0x40 MLOAD PUSH3 0x461BCD PUSH1 0xE5 SHL DUP2 MSTORE PUSH1 0x4 ADD PUSH2 0x420 SWAP1 PUSH2 0x41B7 JUMP JUMPDEST POP POP POP POP POP JUMP JUMPDEST PUSH1 0x0 PUSH32 0x1132F06AB722F27908A7E495B5D507BAD407E55F68DCF746F8D69417E3F1928C DUP3 PUSH1 0x20 ADD MLOAD PUSH2 0x23AC DUP5 PUSH1 0x40 ADD MLOAD PUSH2 0x2635 JUMP JUMPDEST DUP5 PUSH1 0x60 ADD MLOAD PUSH2 0x23BE DUP7 PUSH1 0x80 ADD MLOAD PUSH2 0x2635 JUMP JUMPDEST DUP7 PUSH1 0xA0 ADD MLOAD DUP8 PUSH1 0xC0 ADD MLOAD DUP9 PUSH1 0xE0 ADD MLOAD DUP10 PUSH2 0x1A0 ADD MLOAD PUSH1 0x40 MLOAD PUSH1 0x20 ADD PUSH2 0x17F7 SWAP10 SWAP9 SWAP8 SWAP7 SWAP6 SWAP5 SWAP4 SWAP3 SWAP2 SWAP1 PUSH2 0x39D5 JUMP JUMPDEST PUSH1 0x0 PUSH32 0x15FED0D06DB788FB9C02B4F593BD4ADFF95588D2736481B94A54A44275FAE9FC DUP4 PUSH1 0x20 ADD MLOAD DUP4 DUP6 PUSH1 0xA0 ADD MLOAD PUSH1 0x40 MLOAD PUSH1 0x20 ADD PUSH2 0x242C SWAP5 SWAP4 SWAP3 SWAP2 SWAP1 PUSH2 0x3A27 JUMP JUMPDEST PUSH1 0x40 MLOAD PUSH1 0x20 DUP2 DUP4 SUB SUB DUP2 MSTORE SWAP1 PUSH1 0x40 MSTORE DUP1 MLOAD SWAP1 PUSH1 0x20 ADD KECCAK256 SWAP1 POP SWAP3 SWAP2 POP POP JUMP JUMPDEST PUSH2 0x2452 PUSH2 0x3032 JUMP JUMPDEST PUSH1 0x0 PUSH2 0x2460 DUP7 DUP7 DUP7 DUP7 PUSH2 0x2896 JUMP JUMPDEST SWAP1 POP DUP1 PUSH1 0x0 ADD MLOAD PUSH1 0xFF AND PUSH1 0x1 EQ ISZERO PUSH2 0x2486 JUMPI PUSH2 0x247E DUP6 DUP8 DUP7 DUP7 PUSH2 0x2896 JUMP JUMPDEST SWAP2 POP POP PUSH2 0x2489 JUMP JUMPDEST SWAP1 POP JUMPDEST SWAP5 SWAP4 POP POP POP POP JUMP JUMPDEST DUP2 MLOAD PUSH1 0x40 DUP1 DUP3 ADD MLOAD DUP4 MLOAD SWAP1 SWAP2 ADD MLOAD SWAP2 MLOAD SWAP1 SWAP2 SWAP1 PUSH1 0xFF AND PUSH1 0x3 EQ DUP1 PUSH2 0x24BA JUMPI POP DUP4 MLOAD MLOAD PUSH1 0xFF AND PUSH1 0x4 EQ JUMPDEST ISZERO PUSH2 0x24DB JUMPI PUSH2 0x24DB DUP5 PUSH1 0x0 ADD MLOAD DUP6 PUSH1 0x40 ADD MLOAD DUP7 PUSH1 0x60 ADD MLOAD DUP8 PUSH1 0x20 ADD MLOAD PUSH2 0x2A66 JUMP JUMPDEST DUP3 MLOAD MLOAD PUSH1 0xFF AND PUSH1 0x3 EQ DUP1 PUSH2 0x24F4 JUMPI POP DUP3 MLOAD MLOAD PUSH1 0xFF AND PUSH1 0x4 EQ JUMPDEST ISZERO PUSH2 0x2515 JUMPI PUSH2 0x2515 DUP4 PUSH1 0x0 ADD MLOAD DUP5 PUSH1 0x40 ADD MLOAD DUP6 PUSH1 0x60 ADD MLOAD DUP7 PUSH1 0x20 ADD MLOAD PUSH2 0x2A66 JUMP JUMPDEST SWAP3 POP SWAP3 SWAP1 POP JUMP JUMPDEST PUSH1 0x0 DUP3 PUSH1 0x0 ADD MLOAD PUSH1 0xFF AND PUSH1 0x1 EQ DUP1 PUSH2 0x253B JUMPI POP DUP3 PUSH1 0x0 ADD MLOAD PUSH1 0xFF AND PUSH1 0x2 EQ JUMPDEST SWAP1 POP PUSH1 0x0 DUP2 PUSH2 0x254A JUMPI DUP5 PUSH2 0x254C JUMP JUMPDEST DUP6 JUMPDEST SWAP1 POP PUSH1 0x0 DUP3 PUSH2 0x255B JUMPI DUP7 PUSH2 0x255D JUMP JUMPDEST DUP6 JUMPDEST SWAP1 POP PUSH1 0x0 DUP4 PUSH2 0x256C JUMPI DUP5 PUSH2 0x256E JUMP JUMPDEST DUP6 JUMPDEST DUP1 MLOAD PUSH1 0x40 DUP6 ADD MLOAD MLOAD SWAP2 SWAP3 POP PUSH1 0xFF SWAP2 DUP3 AND SWAP2 AND EQ ISZERO PUSH2 0x258B JUMPI PUSH1 0x0 DUP1 REVERT JUMPDEST PUSH1 0x0 PUSH2 0x2710 DUP5 PUSH2 0x100 ADD MLOAD PUSH1 0x20 ADD MLOAD DUP4 PUSH1 0x40 ADD MLOAD MUL DUP2 PUSH2 0x25A7 JUMPI INVALID JUMPDEST DIV SWAP1 POP PUSH1 0x0 PUSH2 0x2710 DUP6 PUSH2 0x120 ADD MLOAD PUSH1 0x20 ADD MLOAD DUP5 PUSH1 0x40 ADD MLOAD MUL DUP2 PUSH2 0x25C6 JUMPI INVALID JUMPDEST DIV SWAP1 POP PUSH1 0x0 DUP2 DUP4 DUP6 PUSH1 0x40 ADD MLOAD SUB SUB SWAP1 POP PUSH2 0x25EA DUP5 DUP3 DUP8 PUSH1 0x20 ADD MLOAD DUP10 PUSH1 0x20 ADD MLOAD PUSH2 0x2DC3 JUMP JUMPDEST PUSH2 0x25FA DUP5 DUP5 ADDRESS DUP10 PUSH1 0x20 ADD MLOAD PUSH2 0x2DC3 JUMP JUMPDEST PUSH2 0x1176 DUP5 DUP4 DUP9 PUSH2 0x120 ADD MLOAD PUSH1 0x0 ADD MLOAD DUP10 PUSH1 0x20 ADD MLOAD PUSH2 0x2DC3 JUMP JUMPDEST PUSH1 0x0 DUP2 DUP4 LT PUSH2 0x262B JUMPI PUSH2 0x2626 DUP3 DUP5 PUSH2 0x2E1D JUMP JUMPDEST PUSH2 0x1825 JUMP JUMPDEST PUSH2 0x1825 DUP4 DUP4 PUSH2 0x2E1D JUMP JUMPDEST PUSH1 0x0 PUSH32 0x3EB30932C8579E044A08D6C2DB9CFBBE826C3C715D5F913A07FDB3B62620FC2C DUP3 PUSH1 0x0 ADD MLOAD DUP4 PUSH1 0x20 ADD MLOAD DUP5 PUSH1 0x40 ADD MLOAD DUP6 PUSH1 0x60 ADD MLOAD PUSH1 0x40 MLOAD PUSH1 0x20 ADD PUSH2 0x17F7 SWAP6 SWAP5 SWAP4 SWAP3 SWAP2 SWAP1 PUSH2 0x3AB7 JUMP JUMPDEST PUSH1 0x0 PUSH32 0x41DE7D6F279B5BDC25BB5BD3CCB732106044C7BE8050D6927DA35E2210C6000B DUP3 PUSH1 0x0 ADD MLOAD DUP4 PUSH1 0x20 ADD MLOAD DUP5 PUSH1 0x40 ADD MLOAD PUSH1 0x40 MLOAD PUSH1 0x20 ADD PUSH2 0x17F7 SWAP5 SWAP4 SWAP3 SWAP2 SWAP1 PUSH2 0x3A90 JUMP JUMPDEST PUSH1 0x0 PUSH2 0x2700 PUSH32 0x8B73C3C69BB8FE3D512ECC4CF759CC79239F7B179B0FFACAA9A75D522B39400F PUSH2 0x26F3 PUSH2 0x2E2C JUMP JUMPDEST PUSH2 0x26FB PUSH2 0x2E32 JUMP JUMPDEST PUSH2 0x2E38 JUMP JUMPDEST SWAP1 POP SWAP1 JUMP JUMPDEST PUSH1 0x0 PUSH32 0x7FFFFFFFFFFFFFFFFFFFFFFFFFFFFFFF5D576E7357A4501DDFE92F46681B20A0 DUP3 GT ISZERO PUSH2 0x2747 JUMPI PUSH1 0x40 MLOAD PUSH3 0x461BCD PUSH1 0xE5 SHL DUP2 MSTORE PUSH1 0x4 ADD PUSH2 0x420 SWAP1 PUSH2 0x3DEF JUMP JUMPDEST PUSH1 0x0 PUSH1 0x1E DUP6 PUSH1 0xFF AND GT ISZERO PUSH2 0x27ED JUMPI PUSH1 0x4 DUP6 SUB PUSH1 0xFF AND PUSH1 0x1B EQ DUP1 PUSH2 0x2770 JUMPI POP PUSH1 0x4 DUP6 SUB PUSH1 0xFF AND PUSH1 0x1C EQ JUMPDEST PUSH2 0x278C JUMPI PUSH1 0x40 MLOAD PUSH3 0x461BCD PUSH1 0xE5 SHL DUP2 MSTORE PUSH1 0x4 ADD PUSH2 0x420 SWAP1 PUSH2 0x3FE3 JUMP JUMPDEST PUSH1 0x1 PUSH2 0x2797 DUP8 PUSH2 0x2E79 JUMP JUMPDEST PUSH1 0x4 DUP8 SUB DUP7 DUP7 PUSH1 0x40 MLOAD PUSH1 0x0 DUP2 MSTORE PUSH1 0x20 ADD PUSH1 0x40 MSTORE PUSH1 0x40 MLOAD PUSH2 0x27BA SWAP5 SWAP4 SWAP3 SWAP2 SWAP1 PUSH2 0x3AE6 JUMP JUMPDEST PUSH1 0x20 PUSH1 0x40 MLOAD PUSH1 0x20 DUP2 SUB SWAP1 DUP1 DUP5 SUB SWAP1 DUP6 GAS STATICCALL ISZERO DUP1 ISZERO PUSH2 0x27DC JUMPI RETURNDATASIZE PUSH1 0x0 DUP1 RETURNDATACOPY RETURNDATASIZE PUSH1 0x0 REVERT JUMPDEST POP POP POP PUSH1 0x20 PUSH1 0x40 MLOAD SUB MLOAD SWAP1 POP PUSH2 0x2870 JUMP JUMPDEST DUP5 PUSH1 0xFF AND PUSH1 0x1B EQ DUP1 PUSH2 0x2802 JUMPI POP DUP5 PUSH1 0xFF AND PUSH1 0x1C EQ JUMPDEST PUSH2 0x281E JUMPI PUSH1 0x40 MLOAD PUSH3 0x461BCD PUSH1 0xE5 SHL DUP2 MSTORE PUSH1 0x4 ADD PUSH2 0x420 SWAP1 PUSH2 0x3FE3 JUMP JUMPDEST PUSH1 0x1 DUP7 DUP7 DUP7 DUP7 PUSH1 0x40 MLOAD PUSH1 0x0 DUP2 MSTORE PUSH1 0x20 ADD PUSH1 0x40 MSTORE PUSH1 0x40 MLOAD PUSH2 0x2841 SWAP5 SWAP4 SWAP3 SWAP2 SWAP1 PUSH2 0x3AE6 JUMP JUMPDEST PUSH1 0x20 PUSH1 0x40 MLOAD PUSH1 0x20 DUP2 SUB SWAP1 DUP1 DUP5 SUB SWAP1 DUP6 GAS STATICCALL ISZERO DUP1 ISZERO PUSH2 0x2863 JUMPI RETURNDATASIZE PUSH1 0x0 DUP1 RETURNDATACOPY RETURNDATASIZE PUSH1 0x0 REVERT JUMPDEST POP POP POP PUSH1 0x20 PUSH1 0x40 MLOAD SUB MLOAD SWAP1 POP JUMPDEST PUSH1 0x1 PUSH1 0x1 PUSH1 0xA0 SHL SUB DUP2 AND PUSH2 0x2486 JUMPI PUSH1 0x40 MLOAD PUSH3 0x461BCD PUSH1 0xE5 SHL DUP2 MSTORE PUSH1 0x4 ADD PUSH2 0x420 SWAP1 PUSH2 0x3BDF JUMP JUMPDEST PUSH2 0x289E PUSH2 0x3032 JUMP JUMPDEST PUSH1 0x0 DUP1 DUP7 PUSH1 0x0 ADD MLOAD PUSH1 0xFF AND PUSH1 0x1 EQ ISZERO PUSH2 0x28FD JUMPI DUP6 PUSH1 0x0 ADD MLOAD PUSH1 0xFF AND PUSH1 0x1 EQ ISZERO PUSH2 0x28CB JUMPI DUP7 SWAP3 POP POP POP PUSH2 0x2489 JUMP JUMPDEST PUSH1 0x40 DUP1 MLOAD PUSH1 0x80 DUP2 ADD DUP3 MSTORE PUSH1 0x0 DUP2 MSTORE PUSH1 0x1 PUSH1 0x1 PUSH1 0xA0 SHL SUB SWAP1 SWAP3 AND PUSH1 0x20 DUP4 ADD MSTORE DUP2 ADD DUP3 SWAP1 MSTORE PUSH1 0x60 DUP2 ADD SWAP2 SWAP1 SWAP2 MSTORE SWAP1 POP PUSH2 0x2489 JUMP JUMPDEST DUP7 PUSH1 0x0 ADD MLOAD PUSH1 0xFF AND PUSH1 0x2 EQ ISZERO PUSH2 0x2931 JUMPI DUP6 PUSH1 0x0 ADD MLOAD PUSH1 0xFF AND PUSH1 0x2 EQ ISZERO PUSH2 0x28CB JUMPI PUSH2 0x2928 DUP8 DUP8 DUP7 PUSH2 0x2E8C JUMP JUMPDEST SWAP3 POP POP POP PUSH2 0x2489 JUMP JUMPDEST DUP7 PUSH1 0x0 ADD MLOAD PUSH1 0xFF AND PUSH1 0x3 EQ ISZERO PUSH2 0x295C JUMPI DUP6 PUSH1 0x0 ADD MLOAD PUSH1 0xFF AND PUSH1 0x3 EQ ISZERO PUSH2 0x28CB JUMPI PUSH2 0x2928 DUP8 DUP8 DUP7 PUSH2 0x2E8C JUMP JUMPDEST DUP7 PUSH1 0x0 ADD MLOAD PUSH1 0xFF AND PUSH1 0x4 EQ ISZERO PUSH2 0x2987 JUMPI DUP6 PUSH1 0x0 ADD MLOAD PUSH1 0xFF AND PUSH1 0x4 EQ ISZERO PUSH2 0x28CB JUMPI PUSH2 0x2928 DUP8 DUP8 DUP8 PUSH2 0x2F32 JUMP JUMPDEST DUP7 MLOAD PUSH1 0xFF AND PUSH1 0x0 SWAP1 DUP2 MSTORE PUSH1 0x65 PUSH1 0x20 MSTORE PUSH1 0x40 SWAP1 KECCAK256 SLOAD PUSH1 0x1 PUSH1 0x1 PUSH1 0xA0 SHL SUB AND DUP1 ISZERO PUSH2 0x2A32 JUMPI PUSH1 0x40 MLOAD PUSH4 0x8DC614FF PUSH1 0xE0 SHL DUP2 MSTORE PUSH1 0x1 PUSH1 0x1 PUSH1 0xA0 SHL SUB DUP3 AND SWAP1 PUSH4 0x8DC614FF SWAP1 PUSH2 0x29D8 SWAP1 DUP12 SWAP1 DUP12 SWAP1 PUSH1 0x4 ADD PUSH2 0x434F JUMP JUMPDEST PUSH1 0x80 PUSH1 0x40 MLOAD DUP1 DUP4 SUB DUP2 DUP7 DUP1 EXTCODESIZE ISZERO DUP1 ISZERO PUSH2 0x29F0 JUMPI PUSH1 0x0 DUP1 REVERT JUMPDEST POP GAS STATICCALL ISZERO DUP1 ISZERO PUSH2 0x2A04 JUMPI RETURNDATASIZE PUSH1 0x0 DUP1 RETURNDATACOPY RETURNDATASIZE PUSH1 0x0 REVERT JUMPDEST POP POP POP POP PUSH1 0x40 MLOAD RETURNDATASIZE PUSH1 0x1F NOT PUSH1 0x1F DUP3 ADD AND DUP3 ADD DUP1 PUSH1 0x40 MSTORE POP DUP2 ADD SWAP1 PUSH2 0x2A28 SWAP2 SWAP1 PUSH2 0x3660 JUMP JUMPDEST SWAP4 POP POP POP POP PUSH2 0x2489 JUMP JUMPDEST DUP7 MLOAD DUP9 MLOAD PUSH1 0xFF SWAP1 DUP2 AND SWAP2 AND EQ ISZERO PUSH2 0x2A4E JUMPI PUSH2 0x2A28 DUP9 DUP9 DUP8 PUSH2 0x2E8C JUMP JUMPDEST PUSH1 0x40 MLOAD PUSH3 0x461BCD PUSH1 0xE5 SHL DUP2 MSTORE PUSH1 0x4 ADD PUSH2 0x420 SWAP1 PUSH2 0x3C46 JUMP JUMPDEST DUP4 PUSH1 0x0 ADD MLOAD PUSH1 0xFF AND PUSH1 0x3 EQ ISZERO PUSH2 0x2B8B JUMPI DUP4 PUSH1 0x40 ADD MLOAD PUSH1 0x1 EQ PUSH2 0x2A9A JUMPI PUSH1 0x40 MLOAD PUSH3 0x461BCD PUSH1 0xE5 SHL DUP2 MSTORE PUSH1 0x4 ADD PUSH2 0x420 SWAP1 PUSH2 0x3F02 JUMP JUMPDEST PUSH1 0x1 PUSH1 0x1 PUSH1 0xA0 SHL SUB DUP4 AND ADDRESS EQ ISZERO PUSH2 0x2B1B JUMPI PUSH1 0x20 DUP5 ADD MLOAD PUSH1 0x60 DUP6 ADD MLOAD PUSH1 0x40 MLOAD PUSH4 0x21421707 PUSH1 0xE1 SHL DUP2 MSTORE PUSH1 0x1 PUSH1 0x1 PUSH1 0xA0 SHL SUB SWAP1 SWAP3 AND SWAP2 PUSH4 0x42842E0E SWAP2 PUSH2 0x2AE4 SWAP2 ADDRESS SWAP2 DUP8 SWAP2 PUSH1 0x4 ADD PUSH2 0x38FD JUMP JUMPDEST PUSH1 0x0 PUSH1 0x40 MLOAD DUP1 DUP4 SUB DUP2 PUSH1 0x0 DUP8 DUP1 EXTCODESIZE ISZERO DUP1 ISZERO PUSH2 0x2AFE JUMPI PUSH1 0x0 DUP1 REVERT JUMPDEST POP GAS CALL ISZERO DUP1 ISZERO PUSH2 0x2B12 JUMPI RETURNDATASIZE PUSH1 0x0 DUP1 RETURNDATACOPY RETURNDATASIZE PUSH1 0x0 REVERT JUMPDEST POP POP POP POP PUSH2 0x2B86 JUMP JUMPDEST PUSH1 0x20 DUP5 ADD MLOAD PUSH1 0x60 DUP6 ADD MLOAD PUSH1 0x40 MLOAD PUSH4 0x7B84DC83 PUSH1 0xE1 SHL DUP2 MSTORE PUSH1 0x1 PUSH1 0x1 PUSH1 0xA0 SHL SUB DUP5 AND SWAP3 PUSH4 0xF709B906 SWAP3 PUSH2 0x2B53 SWAP3 DUP9 SWAP2 DUP9 SWAP2 PUSH1 0x4 ADD PUSH2 0x3B47 JUMP JUMPDEST PUSH1 0x0 PUSH1 0x40 MLOAD DUP1 DUP4 SUB DUP2 PUSH1 0x0 DUP8 DUP1 EXTCODESIZE ISZERO DUP1 ISZERO PUSH2 0x2B6D JUMPI PUSH1 0x0 DUP1 REVERT JUMPDEST POP GAS CALL ISZERO DUP1 ISZERO PUSH2 0x2B81 JUMPI RETURNDATASIZE PUSH1 0x0 DUP1 RETURNDATACOPY RETURNDATASIZE PUSH1 0x0 REVERT JUMPDEST POP POP POP POP JUMPDEST PUSH2 0x149C JUMP JUMPDEST DUP4 PUSH1 0x0 ADD MLOAD PUSH1 0xFF AND PUSH1 0x2 EQ ISZERO PUSH2 0x2C8D JUMPI PUSH1 0x1 PUSH1 0x1 PUSH1 0xA0 SHL SUB DUP4 AND ADDRESS EQ ISZERO PUSH2 0x2C55 JUMPI DUP4 PUSH1 0x20 ADD MLOAD PUSH1 0x1 PUSH1 0x1 PUSH1 0xA0 SHL SUB AND PUSH4 0xA9059CBB DUP4 DUP7 PUSH1 0x40 ADD MLOAD PUSH1 0x40 MLOAD DUP4 PUSH4 0xFFFFFFFF AND PUSH1 0xE0 SHL DUP2 MSTORE PUSH1 0x4 ADD PUSH2 0x2BE2 SWAP3 SWAP2 SWAP1 PUSH2 0x397F JUMP JUMPDEST PUSH1 0x20 PUSH1 0x40 MLOAD DUP1 DUP4 SUB DUP2 PUSH1 0x0 DUP8 DUP1 EXTCODESIZE ISZERO DUP1 ISZERO PUSH2 0x2BFC JUMPI PUSH1 0x0 DUP1 REVERT JUMPDEST POP GAS CALL ISZERO DUP1 ISZERO PUSH2 0x2C10 JUMPI RETURNDATASIZE PUSH1 0x0 DUP1 RETURNDATACOPY RETURNDATASIZE PUSH1 0x0 REVERT JUMPDEST POP POP POP POP PUSH1 0x40 MLOAD RETURNDATASIZE PUSH1 0x1F NOT PUSH1 0x1F DUP3 ADD AND DUP3 ADD DUP1 PUSH1 0x40 MSTORE POP DUP2 ADD SWAP1 PUSH2 0x2C34 SWAP2 SWAP1 PUSH2 0x3565 JUMP JUMPDEST PUSH2 0x2C50 JUMPI PUSH1 0x40 MLOAD PUSH3 0x461BCD PUSH1 0xE5 SHL DUP2 MSTORE PUSH1 0x4 ADD PUSH2 0x420 SWAP1 PUSH2 0x4091 JUMP JUMPDEST PUSH2 0x2B86 JUMP JUMPDEST PUSH1 0x20 DUP5 ADD MLOAD PUSH1 0x40 DUP1 DUP7 ADD MLOAD SWAP1 MLOAD PUSH4 0x776062C3 PUSH1 0xE0 SHL DUP2 MSTORE PUSH1 0x1 PUSH1 0x1 PUSH1 0xA0 SHL SUB DUP5 AND SWAP3 PUSH4 0x776062C3 SWAP3 PUSH2 0x2B53 SWAP3 DUP9 SWAP2 DUP9 SWAP2 PUSH1 0x4 ADD PUSH2 0x3B47 JUMP JUMPDEST DUP4 PUSH1 0x0 ADD MLOAD PUSH1 0xFF AND PUSH1 0x4 EQ ISZERO PUSH2 0x2D2C JUMPI PUSH1 0x1 PUSH1 0x1 PUSH1 0xA0 SHL SUB DUP4 AND ADDRESS EQ ISZERO PUSH2 0x2CEC JUMPI DUP4 PUSH1 0x20 ADD MLOAD PUSH1 0x1 PUSH1 0x1 PUSH1 0xA0 SHL SUB AND PUSH4 0xF242432A ADDRESS DUP5 DUP8 PUSH1 0x60 ADD MLOAD DUP9 PUSH1 0x40 ADD MLOAD PUSH1 0x40 MLOAD DUP6 PUSH4 0xFFFFFFFF AND PUSH1 0xE0 SHL DUP2 MSTORE PUSH1 0x4 ADD PUSH2 0x2AE4 SWAP5 SWAP4 SWAP3 SWAP2 SWAP1 PUSH2 0x3921 JUMP JUMPDEST PUSH1 0x20 DUP5 ADD MLOAD PUSH1 0x60 DUP6 ADD MLOAD PUSH1 0x40 DUP1 DUP8 ADD MLOAD SWAP1 MLOAD PUSH4 0x9C1C2EE9 PUSH1 0xE0 SHL DUP2 MSTORE PUSH1 0x1 PUSH1 0x1 PUSH1 0xA0 SHL SUB DUP6 AND SWAP4 PUSH4 0x9C1C2EE9 SWAP4 PUSH2 0x2B53 SWAP4 SWAP2 SWAP3 DUP10 SWAP3 DUP10 SWAP3 SWAP2 PUSH1 0x4 ADD PUSH2 0x3B04 JUMP JUMPDEST DUP4 PUSH1 0x0 ADD MLOAD PUSH1 0xFF AND PUSH1 0x1 EQ ISZERO PUSH2 0x2D65 JUMPI PUSH1 0x1 PUSH1 0x1 PUSH1 0xA0 SHL SUB DUP3 AND ADDRESS EQ PUSH2 0x2B86 JUMPI PUSH1 0x40 DUP5 ADD MLOAD PUSH2 0x2B86 SWAP1 PUSH1 0x1 PUSH1 0x1 PUSH1 0xA0 SHL SUB DUP5 AND SWAP1 PUSH2 0x2FB2 JUMP JUMPDEST PUSH1 0x40 MLOAD PUSH4 0x25712823 PUSH1 0xE2 SHL DUP2 MSTORE PUSH1 0x1 PUSH1 0x1 PUSH1 0xA0 SHL SUB DUP3 AND SWAP1 PUSH4 0x95C4A08C SWAP1 PUSH2 0x2D95 SWAP1 DUP8 SWAP1 DUP8 SWAP1 DUP8 SWAP1 PUSH1 0x4 ADD PUSH2 0x431F JUMP JUMPDEST PUSH1 0x0 PUSH1 0x40 MLOAD DUP1 DUP4 SUB DUP2 PUSH1 0x0 DUP8 DUP1 EXTCODESIZE ISZERO DUP1 ISZERO PUSH2 0x2DAF JUMPI PUSH1 0x0 DUP1 REVERT JUMPDEST POP GAS CALL ISZERO DUP1 ISZERO PUSH2 0x614 JUMPI RETURNDATASIZE PUSH1 0x0 DUP1 RETURNDATACOPY RETURNDATASIZE PUSH1 0x0 REVERT JUMPDEST PUSH1 0x40 DUP1 MLOAD PUSH1 0x80 DUP2 ADD DUP3 MSTORE DUP6 MLOAD PUSH1 0xFF SWAP1 DUP2 AND DUP3 MSTORE PUSH1 0x20 DUP1 DUP9 ADD MLOAD PUSH1 0x1 PUSH1 0x1 PUSH1 0xA0 SHL SUB SWAP1 DUP2 AND DUP3 DUP6 ADD MSTORE DUP4 DUP6 ADD DUP9 SWAP1 MSTORE PUSH1 0x60 DUP1 DUP11 ADD MLOAD SWAP1 DUP6 ADD MSTORE DUP9 MLOAD SWAP1 SWAP3 AND PUSH1 0x0 SWAP1 DUP2 MSTORE PUSH1 0x97 SWAP1 SWAP2 MSTORE SWAP3 SWAP1 SWAP3 KECCAK256 SLOAD PUSH2 0x149C SWAP3 DUP5 SWAP2 DUP7 SWAP2 AND PUSH2 0x2A66 JUMP JUMPDEST PUSH1 0x0 SWAP2 DUP3 MSTORE PUSH1 0x20 MSTORE PUSH1 0x40 SWAP1 KECCAK256 SWAP1 JUMP JUMPDEST PUSH1 0xC9 SLOAD SWAP1 JUMP JUMPDEST PUSH1 0xCA SLOAD SWAP1 JUMP JUMPDEST PUSH1 0x0 DUP4 DUP4 DUP4 PUSH2 0x2E45 PUSH2 0x302E JUMP JUMPDEST ADDRESS PUSH1 0x40 MLOAD PUSH1 0x20 ADD PUSH2 0x2E5A SWAP6 SWAP5 SWAP4 SWAP3 SWAP2 SWAP1 PUSH2 0x3A4B JUMP JUMPDEST PUSH1 0x40 MLOAD PUSH1 0x20 DUP2 DUP4 SUB SUB DUP2 MSTORE SWAP1 PUSH1 0x40 MSTORE DUP1 MLOAD SWAP1 PUSH1 0x20 ADD KECCAK256 SWAP1 POP SWAP4 SWAP3 POP POP POP JUMP JUMPDEST PUSH1 0x0 DUP2 PUSH1 0x40 MLOAD PUSH1 0x20 ADD PUSH2 0x17F7 SWAP2 SWAP1 PUSH2 0x3820 JUMP JUMPDEST PUSH2 0x2E94 PUSH2 0x3032 JUMP JUMPDEST PUSH1 0x0 DUP1 DUP5 PUSH1 0x0 ADD MLOAD PUSH1 0xFF AND DUP7 PUSH1 0x0 ADD MLOAD PUSH1 0xFF AND EQ ISZERO PUSH2 0x2EFE JUMPI PUSH1 0x3 DUP5 PUSH1 0x3 DUP2 GT ISZERO PUSH2 0x2EBB JUMPI INVALID JUMPDEST EQ ISZERO DUP1 PUSH2 0x2ED0 JUMPI POP DUP6 PUSH1 0x0 ADD MLOAD PUSH1 0xFF AND PUSH1 0x3 EQ ISZERO JUMPDEST ISZERO PUSH2 0x2EF4 JUMPI DUP5 PUSH1 0x40 ADD MLOAD DUP7 PUSH1 0x40 ADD MLOAD EQ ISZERO PUSH2 0x2EEF JUMPI DUP6 SWAP3 POP POP POP PUSH2 0x1825 JUMP JUMPDEST PUSH2 0x2EFE JUMP JUMPDEST DUP6 SWAP3 POP POP POP PUSH2 0x1825 JUMP JUMPDEST PUSH1 0x40 DUP1 MLOAD PUSH1 0x80 DUP2 ADD DUP3 MSTORE PUSH1 0x1 DUP2 MSTORE PUSH1 0x1 PUSH1 0x1 PUSH1 0xA0 SHL SUB SWAP1 SWAP3 AND PUSH1 0x20 DUP4 ADD MSTORE DUP2 ADD DUP3 SWAP1 MSTORE PUSH1 0x60 DUP2 ADD SWAP2 SWAP1 SWAP2 MSTORE SWAP1 POP SWAP4 SWAP3 POP POP POP JUMP JUMPDEST PUSH2 0x2F3A PUSH2 0x3032 JUMP JUMPDEST PUSH1 0x0 DUP1 DUP6 PUSH1 0x0 ADD MLOAD PUSH1 0xFF AND PUSH1 0x4 EQ ISZERO PUSH2 0x2F7E JUMPI DUP5 MLOAD DUP7 MLOAD PUSH1 0xFF SWAP1 DUP2 AND SWAP2 AND EQ DUP1 ISZERO PUSH2 0x2F6F JUMPI POP DUP5 PUSH1 0x40 ADD MLOAD DUP5 ADD DUP7 PUSH1 0x40 ADD MLOAD LT ISZERO JUMPDEST ISZERO PUSH2 0x2F7E JUMPI DUP5 SWAP3 POP POP POP PUSH2 0x1825 JUMP JUMPDEST PUSH1 0x40 DUP1 MLOAD PUSH1 0x80 DUP2 ADD DUP3 MSTORE PUSH1 0x0 DUP2 MSTORE PUSH1 0x1 PUSH1 0x1 PUSH1 0xA0 SHL SUB SWAP1 SWAP3 AND PUSH1 0x20 DUP4 ADD MSTORE DUP2 ADD DUP3 SWAP1 MSTORE PUSH1 0x60 DUP2 ADD SWAP2 SWAP1 SWAP2 MSTORE SWAP1 POP SWAP4 SWAP3 POP POP POP JUMP JUMPDEST PUSH1 0x0 DUP3 PUSH1 0x1 PUSH1 0x1 PUSH1 0xA0 SHL SUB AND DUP3 PUSH1 0x40 MLOAD PUSH2 0x2FCB SWAP1 PUSH2 0x386C JUMP JUMPDEST PUSH1 0x0 PUSH1 0x40 MLOAD DUP1 DUP4 SUB DUP2 DUP6 DUP8 GAS CALL SWAP3 POP POP POP RETURNDATASIZE DUP1 PUSH1 0x0 DUP2 EQ PUSH2 0x3008 JUMPI PUSH1 0x40 MLOAD SWAP2 POP PUSH1 0x1F NOT PUSH1 0x3F RETURNDATASIZE ADD AND DUP3 ADD PUSH1 0x40 MSTORE RETURNDATASIZE DUP3 MSTORE RETURNDATASIZE PUSH1 0x0 PUSH1 0x20 DUP5 ADD RETURNDATACOPY PUSH2 0x300D JUMP JUMPDEST PUSH1 0x60 SWAP2 POP JUMPDEST POP POP SWAP1 POP DUP1 PUSH2 0xA86 JUMPI PUSH1 0x40 MLOAD PUSH3 0x461BCD PUSH1 0xE5 SHL DUP2 MSTORE PUSH1 0x4 ADD PUSH2 0x420 SWAP1 PUSH2 0x41EE JUMP JUMPDEST CHAINID SWAP1 JUMP JUMPDEST PUSH1 0x40 MLOAD DUP1 PUSH1 0x80 ADD PUSH1 0x40 MSTORE DUP1 PUSH1 0x0 PUSH1 0xFF AND DUP2 MSTORE PUSH1 0x20 ADD PUSH1 0x0 PUSH1 0x1 PUSH1 0x1 PUSH1 0xA0 SHL SUB AND DUP2 MSTORE PUSH1 0x20 ADD PUSH1 0x0 DUP2 MSTORE PUSH1 0x20 ADD PUSH1 0x0 DUP2 MSTORE POP SWAP1 JUMP JUMPDEST DUP1 CALLDATALOAD PUSH2 0xA27 DUP2 PUSH2 0x45C4 JUMP JUMPDEST PUSH1 0x0 DUP3 PUSH1 0x1F DUP4 ADD SLT PUSH2 0x3081 JUMPI DUP1 DUP2 REVERT JUMPDEST DUP2 CALLDATALOAD PUSH1 0x20 PUSH2 0x3096 PUSH2 0x3091 DUP4 PUSH2 0x444B JUMP JUMPDEST PUSH2 0x4428 JUMP JUMPDEST DUP3 DUP2 MSTORE DUP2 DUP2 ADD SWAP1 DUP6 DUP4 ADD DUP4 DUP6 MUL DUP8 ADD DUP5 ADD DUP9 LT ISZERO PUSH2 0x30B2 JUMPI DUP6 DUP7 REVERT JUMPDEST DUP6 JUMPDEST DUP6 DUP2 LT ISZERO PUSH2 0x30D0 JUMPI DUP2 CALLDATALOAD DUP5 MSTORE SWAP3 DUP5 ADD SWAP3 SWAP1 DUP5 ADD SWAP1 PUSH1 0x1 ADD PUSH2 0x30B4 JUMP JUMPDEST POP SWAP1 SWAP8 SWAP7 POP POP POP POP POP POP POP JUMP JUMPDEST PUSH1 0x0 DUP3 PUSH1 0x1F DUP4 ADD SLT PUSH2 0x30ED JUMPI DUP1 DUP2 REVERT JUMPDEST DUP2 CALLDATALOAD PUSH1 0x20 PUSH2 0x30FD PUSH2 0x3091 DUP4 PUSH2 0x444B JUMP JUMPDEST DUP3 DUP2 MSTORE DUP2 DUP2 ADD SWAP1 DUP6 DUP4 ADD DUP6 JUMPDEST DUP6 DUP2 LT ISZERO PUSH2 0x30D0 JUMPI PUSH2 0x3120 DUP10 DUP7 DUP5 CALLDATALOAD DUP12 ADD ADD PUSH2 0x32E1 JUMP JUMPDEST DUP5 MSTORE SWAP3 DUP5 ADD SWAP3 SWAP1 DUP5 ADD SWAP1 PUSH1 0x1 ADD PUSH2 0x3109 JUMP JUMPDEST PUSH1 0x0 DUP3 PUSH1 0x1F DUP4 ADD SLT PUSH2 0x3142 JUMPI DUP1 DUP2 REVERT JUMPDEST DUP2 CALLDATALOAD PUSH1 0x1 PUSH1 0x1 PUSH1 0x40 SHL SUB DUP2 GT ISZERO PUSH2 0x3155 JUMPI INVALID JUMPDEST PUSH2 0x3168 PUSH1 0x1F DUP3 ADD PUSH1 0x1F NOT AND PUSH1 0x20 ADD PUSH2 0x4428 JUMP JUMPDEST DUP2 DUP2 MSTORE DUP5 PUSH1 0x20 DUP4 DUP7 ADD ADD GT ISZERO PUSH2 0x317C JUMPI DUP3 DUP4 REVERT JUMPDEST DUP2 PUSH1 0x20 DUP6 ADD PUSH1 0x20 DUP4 ADD CALLDATACOPY SWAP1 DUP2 ADD PUSH1 0x20 ADD SWAP2 SWAP1 SWAP2 MSTORE SWAP3 SWAP2 POP POP JUMP JUMPDEST DUP1 CALLDATALOAD PUSH1 0x4 DUP2 LT PUSH2 0xA27 JUMPI PUSH1 0x0 DUP1 REVERT JUMPDEST PUSH1 0x0 PUSH1 0x40 DUP3 DUP5 SUB SLT ISZERO PUSH2 0x31B6 JUMPI DUP1 DUP2 REVERT JUMPDEST POP SWAP2 SWAP1 POP JUMP JUMPDEST PUSH1 0x0 PUSH1 0x80 DUP3 DUP5 SUB SLT ISZERO PUSH2 0x31CD JUMPI DUP1 DUP2 REVERT JUMPDEST PUSH1 0x40 MLOAD PUSH1 0x80 DUP2 ADD DUP2 DUP2 LT PUSH1 0x1 PUSH1 0x1 PUSH1 0x40 SHL SUB DUP3 GT OR ISZERO PUSH2 0x31E9 JUMPI INVALID JUMPDEST PUSH1 0x40 MSTORE SWAP1 POP DUP1 DUP3 CALLDATALOAD PUSH2 0x31FA DUP2 PUSH2 0x45D9 JUMP JUMPDEST DUP2 MSTORE PUSH1 0x20 DUP4 ADD CALLDATALOAD PUSH2 0x320A DUP2 PUSH2 0x45C4 JUMP JUMPDEST DUP1 PUSH1 0x20 DUP4 ADD MSTORE POP PUSH1 0x40 DUP4 ADD CALLDATALOAD PUSH1 0x40 DUP3 ADD MSTORE PUSH1 0x60 DUP4 ADD CALLDATALOAD PUSH1 0x60 DUP3 ADD MSTORE POP SWAP3 SWAP2 POP POP JUMP JUMPDEST PUSH1 0x0 PUSH1 0x60 DUP3 DUP5 SUB SLT ISZERO PUSH2 0x323D JUMPI DUP1 DUP2 REVERT JUMPDEST PUSH1 0x40 MLOAD PUSH1 0x60 DUP2 ADD DUP2 DUP2 LT PUSH1 0x1 PUSH1 0x1 PUSH1 0x40 SHL SUB DUP3 GT OR ISZERO PUSH2 0x3259 JUMPI INVALID JUMPDEST PUSH1 0x40 MSTORE SWAP1 POP DUP1 DUP3 CALLDATALOAD PUSH2 0x326A DUP2 PUSH2 0x45D9 JUMP JUMPDEST DUP2 MSTORE PUSH1 0x20 DUP4 ADD CALLDATALOAD PUSH2 0x327A DUP2 PUSH2 0x45C4 JUMP JUMPDEST PUSH1 0x20 DUP3 ADD MSTORE PUSH1 0x40 SWAP3 DUP4 ADD CALLDATALOAD SWAP3 ADD SWAP2 SWAP1 SWAP2 MSTORE SWAP2 SWAP1 POP JUMP JUMPDEST PUSH1 0x0 PUSH1 0x40 DUP3 DUP5 SUB SLT ISZERO PUSH2 0x32A1 JUMPI DUP1 DUP2 REVERT JUMPDEST PUSH1 0x40 MLOAD PUSH1 0x40 DUP2 ADD DUP2 DUP2 LT PUSH1 0x1 PUSH1 0x1 PUSH1 0x40 SHL SUB DUP3 GT OR ISZERO PUSH2 0x32BD JUMPI INVALID JUMPDEST PUSH1 0x40 MSTORE SWAP1 POP DUP1 DUP3 CALLDATALOAD PUSH2 0x32CE DUP2 PUSH2 0x45C4 JUMP JUMPDEST DUP2 MSTORE PUSH1 0x20 SWAP3 DUP4 ADD CALLDATALOAD SWAP3 ADD SWAP2 SWAP1 SWAP2 MSTORE SWAP2 SWAP1 POP JUMP JUMPDEST PUSH1 0x0 PUSH2 0x2C0 DUP3 DUP5 SUB SLT ISZERO PUSH2 0x32F3 JUMPI DUP1 DUP2 REVERT JUMPDEST PUSH2 0x1C0 PUSH2 0x32FF DUP2 PUSH2 0x4428 JUMP JUMPDEST SWAP2 POP PUSH2 0x330A DUP4 PUSH2 0x3196 JUMP JUMPDEST DUP3 MSTORE PUSH2 0x3318 PUSH1 0x20 DUP5 ADD PUSH2 0x3066 JUMP JUMPDEST PUSH1 0x20 DUP4 ADD MSTORE PUSH2 0x332A DUP5 PUSH1 0x40 DUP6 ADD PUSH2 0x31BC JUMP JUMPDEST PUSH1 0x40 DUP4 ADD MSTORE PUSH2 0x333B PUSH1 0xC0 DUP5 ADD PUSH2 0x3066 JUMP JUMPDEST PUSH1 0x60 DUP4 ADD MSTORE PUSH2 0x334D DUP5 PUSH1 0xE0 DUP6 ADD PUSH2 0x31BC JUMP JUMPDEST PUSH1 0x80 DUP4 ADD MSTORE PUSH2 0x160 DUP1 DUP5 ADD CALLDATALOAD PUSH1 0xA0 DUP5 ADD MSTORE PUSH2 0x180 DUP1 DUP6 ADD CALLDATALOAD PUSH1 0xC0 DUP6 ADD MSTORE PUSH2 0x1A0 DUP1 DUP7 ADD CALLDATALOAD PUSH1 0xE0 DUP7 ADD MSTORE PUSH2 0x3382 DUP8 DUP6 DUP9 ADD PUSH2 0x3290 JUMP JUMPDEST PUSH2 0x100 DUP7 ADD MSTORE PUSH2 0x3396 DUP8 PUSH2 0x200 DUP9 ADD PUSH2 0x3290 JUMP JUMPDEST PUSH2 0x120 DUP7 ADD MSTORE PUSH2 0x240 DUP7 ADD CALLDATALOAD SWAP4 POP PUSH1 0x1 PUSH1 0x1 PUSH1 0x40 SHL SUB DUP1 DUP6 GT ISZERO PUSH2 0x33B9 JUMPI PUSH1 0x0 DUP1 REVERT JUMPDEST PUSH2 0x33C5 DUP9 DUP7 DUP10 ADD PUSH2 0x3132 JUMP JUMPDEST PUSH2 0x140 DUP8 ADD MSTORE PUSH2 0x260 DUP8 ADD CALLDATALOAD DUP5 DUP8 ADD MSTORE PUSH2 0x280 DUP8 ADD CALLDATALOAD SWAP5 POP DUP1 DUP6 GT ISZERO PUSH2 0x33EA JUMPI PUSH1 0x0 DUP1 REVERT JUMPDEST POP PUSH2 0x33F7 DUP8 DUP6 DUP9 ADD PUSH2 0x3071 JUMP JUMPDEST DUP3 DUP7 ADD MSTORE PUSH2 0x3408 PUSH2 0x2A0 DUP8 ADD PUSH2 0x3416 JUMP JUMPDEST DUP2 DUP7 ADD MSTORE POP POP POP POP SWAP3 SWAP2 POP POP JUMP JUMPDEST DUP1 CALLDATALOAD PUSH2 0xFFFF DUP2 AND DUP2 EQ PUSH2 0xA27 JUMPI PUSH1 0x0 DUP1 REVERT JUMPDEST DUP1 CALLDATALOAD PUSH6 0xFFFFFFFFFFFF DUP2 AND DUP2 EQ PUSH2 0xA27 JUMPI PUSH1 0x0 DUP1 REVERT JUMPDEST PUSH1 0x0 PUSH1 0x20 DUP3 DUP5 SUB SLT ISZERO PUSH2 0x344F JUMPI DUP1 DUP2 REVERT JUMPDEST DUP2 CALLDATALOAD PUSH2 0x1825 DUP2 PUSH2 0x45C4 JUMP JUMPDEST PUSH1 0x0 DUP1 PUSH1 0x0 DUP1 PUSH1 0x0 PUSH1 0xA0 DUP7 DUP9 SUB SLT ISZERO PUSH2 0x3471 JUMPI DUP1 DUP2 REVERT JUMPDEST DUP6 CALLDATALOAD PUSH2 0x347C DUP2 PUSH2 0x45C4 JUMP JUMPDEST SWAP5 POP PUSH1 0x20 DUP7 ADD CALLDATALOAD PUSH2 0x348C DUP2 PUSH2 0x45C4 JUMP JUMPDEST SWAP4 POP PUSH1 0x40 DUP7 ADD CALLDATALOAD SWAP3 POP PUSH1 0x60 DUP7 ADD CALLDATALOAD PUSH2 0x34A3 DUP2 PUSH2 0x45C4 JUMP JUMPDEST SWAP2 POP PUSH1 0x80 DUP7 ADD CALLDATALOAD PUSH2 0x34B3 DUP2 PUSH2 0x45C4 JUMP JUMPDEST DUP1 SWAP2 POP POP SWAP3 SWAP6 POP SWAP3 SWAP6 SWAP1 SWAP4 POP JUMP JUMPDEST PUSH1 0x0 DUP1 PUSH1 0x0 PUSH1 0x60 DUP5 DUP7 SUB SLT ISZERO PUSH2 0x34D5 JUMPI DUP1 DUP2 REVERT JUMPDEST DUP4 CALLDATALOAD PUSH2 0x34E0 DUP2 PUSH2 0x45C4 JUMP JUMPDEST SWAP3 POP PUSH2 0x34EE PUSH1 0x20 DUP6 ADD PUSH2 0x3428 JUMP JUMPDEST SWAP2 POP PUSH2 0x34FC PUSH1 0x40 DUP6 ADD PUSH2 0x3428 JUMP JUMPDEST SWAP1 POP SWAP3 POP SWAP3 POP SWAP3 JUMP JUMPDEST PUSH1 0x0 DUP1 PUSH1 0x40 DUP4 DUP6 SUB SLT ISZERO PUSH2 0x3517 JUMPI DUP2 DUP3 REVERT JUMPDEST DUP3 CALLDATALOAD PUSH1 0x1 PUSH1 0x1 PUSH1 0x40 SHL SUB DUP1 DUP3 GT ISZERO PUSH2 0x352D JUMPI DUP4 DUP5 REVERT JUMPDEST PUSH2 0x3539 DUP7 DUP4 DUP8 ADD PUSH2 0x30DD JUMP JUMPDEST SWAP4 POP PUSH1 0x20 DUP6 ADD CALLDATALOAD SWAP2 POP DUP1 DUP3 GT ISZERO PUSH2 0x354E JUMPI DUP3 DUP4 REVERT JUMPDEST POP PUSH2 0x355B DUP6 DUP3 DUP7 ADD PUSH2 0x30DD JUMP JUMPDEST SWAP2 POP POP SWAP3 POP SWAP3 SWAP1 POP JUMP JUMPDEST PUSH1 0x0 PUSH1 0x20 DUP3 DUP5 SUB SLT ISZERO PUSH2 0x3576 JUMPI DUP1 DUP2 REVERT JUMPDEST DUP2 MLOAD DUP1 ISZERO ISZERO DUP2 EQ PUSH2 0x1825 JUMPI DUP2 DUP3 REVERT JUMPDEST PUSH1 0x0 PUSH1 0x20 DUP3 DUP5 SUB SLT ISZERO PUSH2 0x3596 JUMPI DUP1 DUP2 REVERT JUMPDEST POP CALLDATALOAD SWAP2 SWAP1 POP JUMP JUMPDEST PUSH1 0x0 DUP1 PUSH1 0x0 PUSH1 0x60 DUP5 DUP7 SUB SLT ISZERO PUSH2 0x35B1 JUMPI DUP1 DUP2 REVERT JUMPDEST DUP4 CALLDATALOAD SWAP3 POP PUSH1 0x20 DUP5 ADD CALLDATALOAD PUSH1 0x1 PUSH1 0x1 PUSH1 0x40 SHL SUB DUP1 DUP3 GT ISZERO PUSH2 0x35CE JUMPI DUP3 DUP4 REVERT JUMPDEST PUSH2 0x35DA DUP8 DUP4 DUP9 ADD PUSH2 0x3071 JUMP JUMPDEST SWAP4 POP PUSH1 0x40 DUP7 ADD CALLDATALOAD SWAP2 POP DUP1 DUP3 GT ISZERO PUSH2 0x35EF JUMPI DUP3 DUP4 REVERT JUMPDEST POP PUSH2 0x35FC DUP7 DUP3 DUP8 ADD PUSH2 0x32E1 JUMP JUMPDEST SWAP2 POP POP SWAP3 POP SWAP3 POP SWAP3 JUMP JUMPDEST PUSH1 0x0 PUSH1 0x20 DUP3 DUP5 SUB SLT ISZERO PUSH2 0x3617 JUMPI DUP1 DUP2 REVERT JUMPDEST DUP2 MLOAD PUSH1 0x1 PUSH1 0x1 PUSH1 0xE0 SHL SUB NOT DUP2 AND DUP2 EQ PUSH2 0x1825 JUMPI DUP2 DUP3 REVERT JUMPDEST PUSH1 0x0 PUSH1 0x20 DUP3 DUP5 SUB SLT ISZERO PUSH2 0x363F JUMPI DUP1 DUP2 REVERT JUMPDEST DUP2 CALLDATALOAD PUSH1 0x1 PUSH1 0x1 PUSH1 0x40 SHL SUB DUP2 GT ISZERO PUSH2 0x3654 JUMPI DUP2 DUP3 REVERT JUMPDEST PUSH2 0x2489 DUP5 DUP3 DUP6 ADD PUSH2 0x31A5 JUMP JUMPDEST PUSH1 0x0 PUSH1 0x80 DUP3 DUP5 SUB SLT ISZERO PUSH2 0x3671 JUMPI DUP1 DUP2 REVERT JUMPDEST PUSH1 0x40 MLOAD PUSH1 0x80 DUP2 ADD DUP2 DUP2 LT PUSH1 0x1 PUSH1 0x1 PUSH1 0x40 SHL SUB DUP3 GT OR ISZERO PUSH2 0x368D JUMPI INVALID JUMPDEST PUSH1 0x40 MSTORE DUP3 MLOAD PUSH2 0x369B DUP2 PUSH2 0x45D9 JUMP JUMPDEST DUP2 MSTORE PUSH1 0x20 DUP4 ADD MLOAD PUSH2 0x36AB DUP2 PUSH2 0x45C4 JUMP JUMPDEST PUSH1 0x20 DUP3 ADD MSTORE PUSH1 0x40 DUP4 DUP2 ADD MLOAD SWAP1 DUP3 ADD MSTORE PUSH1 0x60 SWAP3 DUP4 ADD MLOAD SWAP3 DUP2 ADD SWAP3 SWAP1 SWAP3 MSTORE POP SWAP2 SWAP1 POP JUMP JUMPDEST PUSH1 0x0 PUSH1 0x20 DUP3 DUP5 SUB SLT ISZERO PUSH2 0x36DE JUMPI DUP1 DUP2 REVERT JUMPDEST DUP2 CALLDATALOAD PUSH1 0x1 PUSH1 0x1 PUSH1 0x40 SHL SUB DUP2 GT ISZERO PUSH2 0x36F3 JUMPI DUP2 DUP3 REVERT JUMPDEST PUSH2 0x2489 DUP5 DUP3 DUP6 ADD PUSH2 0x32E1 JUMP JUMPDEST PUSH1 0x0 PUSH1 0x20 DUP3 DUP5 SUB SLT ISZERO PUSH2 0x3710 JUMPI DUP1 DUP2 REVERT JUMPDEST POP MLOAD SWAP2 SWAP1 POP JUMP JUMPDEST PUSH1 0x0 DUP1 PUSH1 0x40 DUP4 DUP6 SUB SLT ISZERO PUSH2 0x3729 JUMPI DUP2 DUP3 REVERT JUMPDEST DUP3 CALLDATALOAD SWAP2 POP PUSH1 0x20 DUP4 ADD CALLDATALOAD PUSH2 0x373B DUP2 PUSH2 0x45C4 JUMP JUMPDEST DUP1 SWAP2 POP POP SWAP3 POP SWAP3 SWAP1 POP JUMP JUMPDEST PUSH1 0x0 PUSH1 0x20 DUP3 DUP5 SUB SLT ISZERO PUSH2 0x3757 JUMPI DUP1 DUP2 REVERT JUMPDEST PUSH2 0x1825 DUP3 PUSH2 0x3428 JUMP JUMPDEST PUSH1 0x0 PUSH1 0x20 DUP3 DUP5 SUB SLT ISZERO PUSH2 0x3771 JUMPI DUP1 DUP2 REVERT JUMPDEST DUP2 CALLDATALOAD PUSH2 0x1825 DUP2 PUSH2 0x45D9 JUMP JUMPDEST PUSH1 0x0 DUP1 PUSH1 0x40 DUP4 DUP6 SUB SLT ISZERO PUSH2 0x378E JUMPI DUP2 DUP3 REVERT JUMPDEST DUP3 CALLDATALOAD PUSH2 0x3799 DUP2 PUSH2 0x45D9 JUMP JUMPDEST SWAP2 POP PUSH1 0x20 DUP4 ADD CALLDATALOAD PUSH2 0x373B DUP2 PUSH2 0x45C4 JUMP JUMPDEST PUSH1 0x0 DUP2 MLOAD DUP1 DUP5 MSTORE PUSH2 0x37C1 DUP2 PUSH1 0x20 DUP7 ADD PUSH1 0x20 DUP7 ADD PUSH2 0x4598 JUMP JUMPDEST PUSH1 0x1F ADD PUSH1 0x1F NOT AND SWAP3 SWAP1 SWAP3 ADD PUSH1 0x20 ADD SWAP3 SWAP2 POP POP JUMP JUMPDEST DUP1 MLOAD PUSH1 0xFF AND DUP3 MSTORE PUSH1 0x20 DUP1 DUP3 ADD MLOAD PUSH1 0x1 PUSH1 0x1 PUSH1 0xA0 SHL SUB AND SWAP1 DUP4 ADD MSTORE PUSH1 0x40 DUP1 DUP3 ADD MLOAD SWAP1 DUP4 ADD MSTORE PUSH1 0x60 SWAP1 DUP2 ADD MLOAD SWAP2 ADD MSTORE JUMP JUMPDEST PUSH1 0x0 DUP3 MLOAD PUSH2 0x3816 DUP2 DUP5 PUSH1 0x20 DUP8 ADD PUSH2 0x4598 JUMP JUMPDEST SWAP2 SWAP1 SWAP2 ADD SWAP3 SWAP2 POP POP JUMP JUMPDEST PUSH32 0x19457468657265756D205369676E6564204D6573736167653A0A333200000000 DUP2 MSTORE PUSH1 0x1C DUP2 ADD SWAP2 SWAP1 SWAP2 MSTORE PUSH1 0x3C ADD SWAP1 JUMP JUMPDEST PUSH2 0x1901 PUSH1 0xF0 SHL DUP2 MSTORE PUSH1 0x2 DUP2 ADD SWAP3 SWAP1 SWAP3 MSTORE PUSH1 0x22 DUP3 ADD MSTORE PUSH1 0x42 ADD SWAP1 JUMP JUMPDEST SWAP1 JUMP JUMPDEST SWAP3 DUP4 MSTORE PUSH1 0x60 SWAP2 SWAP1 SWAP2 SHL PUSH12 0xFFFFFFFFFFFFFFFFFFFFFFFF NOT AND PUSH1 0x20 DUP4 ADD MSTORE PUSH1 0x34 DUP3 ADD MSTORE PUSH1 0x54 ADD SWAP1 JUMP JUMPDEST PUSH1 0x1 PUSH1 0x1 PUSH1 0xA0 SHL SUB SWAP2 SWAP1 SWAP2 AND DUP2 MSTORE PUSH1 0x20 ADD SWAP1 JUMP JUMPDEST PUSH1 0x1 PUSH1 0x1 PUSH1 0xA0 SHL SUB DUP5 AND DUP2 MSTORE PUSH1 0x60 PUSH1 0x20 DUP3 ADD DUP2 SWAP1 MSTORE PUSH1 0x0 SWAP1 PUSH2 0x38CF SWAP1 DUP4 ADD DUP6 PUSH2 0x37A9 JUMP JUMPDEST SWAP1 POP PUSH2 0xFFFF DUP4 AND PUSH1 0x40 DUP4 ADD MSTORE SWAP5 SWAP4 POP POP POP POP JUMP JUMPDEST PUSH1 0x1 PUSH1 0x1 PUSH1 0xA0 SHL SUB SWAP3 DUP4 AND DUP2 MSTORE SWAP2 AND PUSH1 0x20 DUP3 ADD MSTORE PUSH1 0x40 ADD SWAP1 JUMP JUMPDEST PUSH1 0x1 PUSH1 0x1 PUSH1 0xA0 SHL SUB SWAP4 DUP5 AND DUP2 MSTORE SWAP2 SWAP1 SWAP3 AND PUSH1 0x20 DUP3 ADD MSTORE PUSH1 0x40 DUP2 ADD SWAP2 SWAP1 SWAP2 MSTORE PUSH1 0x60 ADD SWAP1 JUMP JUMPDEST PUSH1 0x1 PUSH1 0x1 PUSH1 0xA0 SHL SUB SWAP5 DUP6 AND DUP2 MSTORE SWAP3 SWAP1 SWAP4 AND PUSH1 0x20 DUP4 ADD MSTORE PUSH1 0x40 DUP3 ADD MSTORE PUSH1 0x60 DUP2 ADD SWAP2 SWAP1 SWAP2 MSTORE PUSH1 0xA0 PUSH1 0x80 DUP3 ADD DUP2 SWAP1 MSTORE PUSH1 0x0 SWAP1 DUP3 ADD MSTORE PUSH1 0xC0 ADD SWAP1 JUMP JUMPDEST PUSH1 0x1 PUSH1 0x1 PUSH1 0xA0 SHL SUB SWAP5 SWAP1 SWAP5 AND DUP5 MSTORE PUSH1 0x20 DUP5 ADD SWAP3 SWAP1 SWAP3 MSTORE PUSH1 0x40 DUP4 ADD MSTORE PUSH1 0x60 DUP3 ADD MSTORE PUSH1 0x80 ADD SWAP1 JUMP JUMPDEST PUSH1 0x1 PUSH1 0x1 PUSH1 0xA0 SHL SUB SWAP3 SWAP1 SWAP3 AND DUP3 MSTORE PUSH1 0x20 DUP3 ADD MSTORE PUSH1 0x40 ADD SWAP1 JUMP JUMPDEST PUSH1 0x1 PUSH1 0x1 PUSH1 0xA0 SHL SUB SWAP4 SWAP1 SWAP4 AND DUP4 MSTORE PUSH6 0xFFFFFFFFFFFF SWAP2 DUP3 AND PUSH1 0x20 DUP5 ADD MSTORE AND PUSH1 0x40 DUP3 ADD MSTORE PUSH1 0x60 ADD SWAP1 JUMP JUMPDEST SWAP1 ISZERO ISZERO DUP2 MSTORE PUSH1 0x20 ADD SWAP1 JUMP JUMPDEST SWAP1 DUP2 MSTORE PUSH1 0x20 ADD SWAP1 JUMP JUMPDEST SWAP9 DUP10 MSTORE PUSH1 0x1 PUSH1 0x1 PUSH1 0xA0 SHL SUB SWAP8 DUP9 AND PUSH1 0x20 DUP11 ADD MSTORE PUSH1 0x40 DUP10 ADD SWAP7 SWAP1 SWAP7 MSTORE SWAP4 SWAP1 SWAP6 AND PUSH1 0x60 DUP8 ADD MSTORE PUSH1 0x80 DUP7 ADD SWAP2 SWAP1 SWAP2 MSTORE PUSH1 0xA0 DUP6 ADD MSTORE PUSH1 0xC0 DUP5 ADD SWAP3 SWAP1 SWAP3 MSTORE PUSH1 0xE0 DUP4 ADD SWAP2 SWAP1 SWAP2 MSTORE PUSH2 0xFFFF AND PUSH2 0x100 DUP3 ADD MSTORE PUSH2 0x120 ADD SWAP1 JUMP JUMPDEST SWAP4 DUP5 MSTORE PUSH1 0x1 PUSH1 0x1 PUSH1 0xA0 SHL SUB SWAP3 SWAP1 SWAP3 AND PUSH1 0x20 DUP5 ADD MSTORE PUSH1 0x40 DUP4 ADD MSTORE PUSH1 0x60 DUP3 ADD MSTORE PUSH1 0x80 ADD SWAP1 JUMP JUMPDEST SWAP5 DUP6 MSTORE PUSH1 0x20 DUP6 ADD SWAP4 SWAP1 SWAP4 MSTORE PUSH1 0x40 DUP5 ADD SWAP2 SWAP1 SWAP2 MSTORE PUSH1 0x60 DUP4 ADD MSTORE PUSH1 0x1 PUSH1 0x1 PUSH1 0xA0 SHL SUB AND PUSH1 0x80 DUP3 ADD MSTORE PUSH1 0xA0 ADD SWAP1 JUMP JUMPDEST PUSH1 0x0 DUP4 DUP3 MSTORE PUSH1 0x40 PUSH1 0x20 DUP4 ADD MSTORE PUSH2 0x2489 PUSH1 0x40 DUP4 ADD DUP5 PUSH2 0x37A9 JUMP JUMPDEST SWAP4 DUP5 MSTORE PUSH1 0xFF SWAP3 SWAP1 SWAP3 AND PUSH1 0x20 DUP5 ADD MSTORE PUSH1 0x1 PUSH1 0x1 PUSH1 0xA0 SHL SUB AND PUSH1 0x40 DUP4 ADD MSTORE PUSH1 0x60 DUP3 ADD MSTORE PUSH1 0x80 ADD SWAP1 JUMP JUMPDEST SWAP5 DUP6 MSTORE PUSH1 0xFF SWAP4 SWAP1 SWAP4 AND PUSH1 0x20 DUP6 ADD MSTORE PUSH1 0x1 PUSH1 0x1 PUSH1 0xA0 SHL SUB SWAP2 SWAP1 SWAP2 AND PUSH1 0x40 DUP5 ADD MSTORE PUSH1 0x60 DUP4 ADD MSTORE PUSH1 0x80 DUP3 ADD MSTORE PUSH1 0xA0 ADD SWAP1 JUMP JUMPDEST SWAP4 DUP5 MSTORE PUSH1 0xFF SWAP3 SWAP1 SWAP3 AND PUSH1 0x20 DUP5 ADD MSTORE PUSH1 0x40 DUP4 ADD MSTORE PUSH1 0x60 DUP3 ADD MSTORE PUSH1 0x80 ADD SWAP1 JUMP JUMPDEST PUSH1 0x1 PUSH1 0x1 PUSH1 0xA0 SHL SUB SWAP6 DUP7 AND DUP2 MSTORE SWAP4 DUP6 AND PUSH1 0x20 DUP6 ADD MSTORE SWAP2 SWAP1 SWAP4 AND PUSH1 0x40 DUP4 ADD MSTORE PUSH1 0x60 DUP3 ADD SWAP3 SWAP1 SWAP3 MSTORE PUSH1 0x80 DUP2 ADD SWAP2 SWAP1 SWAP2 MSTORE PUSH1 0xC0 PUSH1 0xA0 DUP3 ADD DUP2 SWAP1 MSTORE PUSH1 0x0 SWAP1 DUP3 ADD MSTORE PUSH1 0xE0 ADD SWAP1 JUMP JUMPDEST PUSH1 0x1 PUSH1 0x1 PUSH1 0xA0 SHL SUB SWAP5 DUP6 AND DUP2 MSTORE SWAP3 DUP5 AND PUSH1 0x20 DUP5 ADD MSTORE SWAP3 AND PUSH1 0x40 DUP3 ADD MSTORE PUSH1 0x60 DUP2 ADD SWAP2 SWAP1 SWAP2 MSTORE PUSH1 0x80 ADD SWAP1 JUMP JUMPDEST PUSH1 0x0 PUSH2 0x120 PUSH1 0x4 DUP13 LT PUSH2 0x3B80 JUMPI INVALID JUMPDEST DUP12 DUP4 MSTORE PUSH1 0x1 PUSH1 0x1 PUSH1 0xA0 SHL SUB DUP12 DUP2 AND PUSH1 0x20 DUP6 ADD MSTORE DUP11 AND PUSH1 0x40 DUP5 ADD MSTORE PUSH1 0x60 DUP4 ADD DUP2 SWAP1 MSTORE PUSH2 0x3BAD DUP2 DUP5 ADD DUP11 PUSH2 0x37A9 JUMP JUMPDEST PUSH2 0xFFFF SWAP9 SWAP1 SWAP9 AND PUSH1 0x80 DUP5 ADD MSTORE POP POP PUSH1 0xA0 DUP2 ADD SWAP5 SWAP1 SWAP5 MSTORE PUSH1 0xC0 DUP5 ADD SWAP3 SWAP1 SWAP3 MSTORE PUSH1 0xE0 DUP4 ADD MSTORE PUSH2 0x100 SWAP1 SWAP2 ADD MSTORE SWAP5 SWAP4 POP POP POP POP JUMP JUMPDEST PUSH1 0x20 DUP1 DUP3 MSTORE PUSH1 0x18 SWAP1 DUP3 ADD MSTORE PUSH32 0x45434453413A20696E76616C6964207369676E61747572650000000000000000 PUSH1 0x40 DUP3 ADD MSTORE PUSH1 0x60 ADD SWAP1 JUMP JUMPDEST PUSH1 0x20 DUP1 DUP3 MSTORE PUSH1 0x16 SWAP1 DUP3 ADD MSTORE PUSH22 0x556E737570706F72746564206F726465722074797065 PUSH1 0x50 SHL PUSH1 0x40 DUP3 ADD MSTORE PUSH1 0x60 ADD SWAP1 JUMP JUMPDEST PUSH1 0x20 DUP1 DUP3 MSTORE PUSH1 0x17 SWAP1 DUP3 ADD MSTORE PUSH32 0x6E6F7420666F756E64204941737365744D617463686572000000000000000000 PUSH1 0x40 DUP3 ADD MSTORE PUSH1 0x60 ADD SWAP1 JUMP JUMPDEST PUSH1 0x20 DUP1 DUP3 MSTORE PUSH1 0x1F SWAP1 DUP3 ADD MSTORE PUSH32 0x45434453413A20696E76616C6964207369676E6174757265206C656E67746800 PUSH1 0x40 DUP3 ADD MSTORE PUSH1 0x60 ADD SWAP1 JUMP JUMPDEST PUSH1 0x20 DUP1 DUP3 MSTORE PUSH1 0x26 SWAP1 DUP3 ADD MSTORE PUSH32 0x4F776E61626C653A206E6577206F776E657220697320746865207A65726F2061 PUSH1 0x40 DUP3 ADD MSTORE PUSH6 0x646472657373 PUSH1 0xD0 SHL PUSH1 0x60 DUP3 ADD MSTORE PUSH1 0x80 ADD SWAP1 JUMP JUMPDEST PUSH1 0x20 DUP1 DUP3 MSTORE PUSH1 0x1B SWAP1 DUP3 ADD MSTORE PUSH32 0x4F7264657220656E642076616C69646174696F6E206661696C65640000000000 PUSH1 0x40 DUP3 ADD MSTORE PUSH1 0x60 ADD SWAP1 JUMP JUMPDEST PUSH1 0x20 DUP1 DUP3 MSTORE PUSH1 0x14 SWAP1 DUP3 ADD MSTORE PUSH20 0xC081CD85B1D0818D85B89DD081899481D5CD959 PUSH1 0x62 SHL PUSH1 0x40 DUP3 ADD MSTORE PUSH1 0x60 ADD SWAP1 JUMP JUMPDEST PUSH1 0x20 DUP1 DUP3 MSTORE PUSH1 0x18 SWAP1 DUP3 ADD MSTORE PUSH32 0x4F7264657220686173206265656E2066756C66696C6C65640000000000000000 PUSH1 0x40 DUP3 ADD MSTORE PUSH1 0x60 ADD SWAP1 JUMP JUMPDEST PUSH1 0x20 DUP1 DUP3 MSTORE PUSH1 0x1C SWAP1 DUP3 ADD MSTORE PUSH32 0x426964204552432D323020616D6F756E74206E6F7420656E6F75676800000000 PUSH1 0x40 DUP3 ADD MSTORE PUSH1 0x60 ADD SWAP1 JUMP JUMPDEST PUSH1 0x20 DUP1 DUP3 MSTORE PUSH1 0x8 SWAP1 DUP3 ADD MSTORE PUSH8 0x37379036B0B5B2B9 PUSH1 0xC1 SHL PUSH1 0x40 DUP3 ADD MSTORE PUSH1 0x60 ADD SWAP1 JUMP JUMPDEST PUSH1 0x20 DUP1 DUP3 MSTORE PUSH1 0x22 SWAP1 DUP3 ADD MSTORE PUSH32 0x45434453413A20696E76616C6964207369676E6174757265202773272076616C PUSH1 0x40 DUP3 ADD MSTORE PUSH2 0x7565 PUSH1 0xF0 SHL PUSH1 0x60 DUP3 ADD MSTORE PUSH1 0x80 ADD SWAP1 JUMP JUMPDEST PUSH1 0x20 DUP1 DUP3 MSTORE PUSH1 0x24 SWAP1 DUP3 ADD MSTORE PUSH32 0x72696768744F726465722E74616B657220766572696669636174696F6E206661 PUSH1 0x40 DUP3 ADD MSTORE PUSH4 0x1A5B1959 PUSH1 0xE2 SHL PUSH1 0x60 DUP3 ADD MSTORE PUSH1 0x80 ADD SWAP1 JUMP JUMPDEST PUSH1 0x20 DUP1 DUP3 MSTORE PUSH1 0x22 SWAP1 DUP3 ADD MSTORE PUSH32 0x6F72646572207369676E617475726520766572696669636174696F6E20657272 PUSH1 0x40 DUP3 ADD MSTORE PUSH2 0x37B9 PUSH1 0xF1 SHL PUSH1 0x60 DUP3 ADD MSTORE PUSH1 0x80 ADD SWAP1 JUMP JUMPDEST PUSH1 0x20 DUP1 DUP3 MSTORE PUSH1 0x2B SWAP1 DUP3 ADD MSTORE PUSH32 0x636F6E7472616374206F72646572207369676E61747572652076657269666963 PUSH1 0x40 DUP3 ADD MSTORE PUSH11 0x30BA34B7B71032B93937B9 PUSH1 0xA9 SHL PUSH1 0x60 DUP3 ADD MSTORE PUSH1 0x80 ADD SWAP1 JUMP JUMPDEST PUSH1 0x20 DUP1 DUP3 MSTORE PUSH1 0x12 SWAP1 DUP3 ADD MSTORE PUSH18 0x32B9319B9918903B30B63AB29032B93937B9 PUSH1 0x71 SHL PUSH1 0x40 DUP3 ADD MSTORE PUSH1 0x60 ADD SWAP1 JUMP JUMPDEST PUSH1 0x20 DUP1 DUP3 MSTORE PUSH1 0x16 SWAP1 DUP3 ADD MSTORE PUSH22 0x36B0B5B2B91034B9903737BA103A3C1039B2B73232B9 PUSH1 0x51 SHL PUSH1 0x40 DUP3 ADD MSTORE PUSH1 0x60 ADD SWAP1 JUMP JUMPDEST PUSH1 0x20 DUP1 DUP3 MSTORE PUSH1 0x2E SWAP1 DUP3 ADD MSTORE PUSH32 0x496E697469616C697A61626C653A20636F6E747261637420697320616C726561 PUSH1 0x40 DUP3 ADD MSTORE PUSH14 0x191E481A5B9A5D1A585B1A5E9959 PUSH1 0x92 SHL PUSH1 0x60 DUP3 ADD MSTORE PUSH1 0x80 ADD SWAP1 JUMP JUMPDEST PUSH1 0x20 DUP1 DUP3 MSTORE PUSH1 0x1D SWAP1 DUP3 ADD MSTORE PUSH32 0x4F726465722073746172742076616C69646174696F6E206661696C6564000000 PUSH1 0x40 DUP3 ADD MSTORE PUSH1 0x60 ADD SWAP1 JUMP JUMPDEST PUSH1 0x20 DUP1 DUP3 MSTORE PUSH1 0x22 SWAP1 DUP3 ADD MSTORE PUSH32 0x45434453413A20696E76616C6964207369676E6174757265202776272076616C PUSH1 0x40 DUP3 ADD MSTORE PUSH2 0x7565 PUSH1 0xF0 SHL PUSH1 0x60 DUP3 ADD MSTORE PUSH1 0x80 ADD SWAP1 JUMP JUMPDEST PUSH1 0x20 DUP1 DUP3 MSTORE PUSH1 0x18 SWAP1 DUP3 ADD MSTORE PUSH32 0x4D69736D617463686564206F72646572206C656E677468730000000000000000 PUSH1 0x40 DUP3 ADD MSTORE PUSH1 0x60 ADD SWAP1 JUMP JUMPDEST PUSH1 0x20 DUP1 DUP3 MSTORE DUP2 DUP2 ADD MSTORE PUSH32 0x4F776E61626C653A2063616C6C6572206973206E6F7420746865206F776E6572 PUSH1 0x40 DUP3 ADD MSTORE PUSH1 0x60 ADD SWAP1 JUMP JUMPDEST PUSH1 0x20 DUP1 DUP3 MSTORE PUSH1 0x15 SWAP1 DUP3 ADD MSTORE PUSH21 0x195C98CC8C081D1C985B9CD9995C8819985A5B1959 PUSH1 0x5A SHL PUSH1 0x40 DUP3 ADD MSTORE PUSH1 0x60 ADD SWAP1 JUMP JUMPDEST PUSH1 0x20 DUP1 DUP3 MSTORE PUSH1 0x3B SWAP1 DUP3 ADD MSTORE PUSH32 0x6F72646572207369676E617475726520766572696669636174696F6E20666F72 PUSH1 0x40 DUP3 ADD MSTORE PUSH32 0x2062696420636F6C6C656374696F6E206F72646572206572726F720000000000 PUSH1 0x60 DUP3 ADD MSTORE PUSH1 0x80 ADD SWAP1 JUMP JUMPDEST PUSH1 0x20 DUP1 DUP3 MSTORE PUSH1 0x18 SWAP1 DUP3 ADD MSTORE PUSH32 0x4F7264657220686173206265656E2063616E63656C6C65640000000000000000 PUSH1 0x40 DUP3 ADD MSTORE PUSH1 0x60 ADD SWAP1 JUMP JUMPDEST PUSH1 0x20 DUP1 DUP3 MSTORE PUSH1 0x12 SWAP1 DUP3 ADD MSTORE PUSH18 0xC2E6E6CAE8E640C8DEDC4EE840DAC2E8C6D PUSH1 0x73 SHL PUSH1 0x40 DUP3 ADD MSTORE PUSH1 0x60 ADD SWAP1 JUMP JUMPDEST PUSH1 0x20 DUP1 DUP3 MSTORE PUSH1 0x18 SWAP1 DUP3 ADD MSTORE PUSH32 0x45524332302062616C616E6365206E6F7420656E6F7567680000000000000000 PUSH1 0x40 DUP3 ADD MSTORE PUSH1 0x60 ADD SWAP1 JUMP JUMPDEST PUSH1 0x20 DUP1 DUP3 MSTORE PUSH1 0x1A SWAP1 DUP3 ADD MSTORE PUSH32 0x5370656E64696E6720616D6F756E74206E6F7420656E6F756768000000000000 PUSH1 0x40 DUP3 ADD MSTORE PUSH1 0x60 ADD SWAP1 JUMP JUMPDEST PUSH1 0x20 DUP1 DUP3 MSTORE PUSH1 0xF SWAP1 DUP3 ADD MSTORE PUSH15 0x1D1C985B9CD9995C8819985A5B1959 PUSH1 0x8A SHL PUSH1 0x40 DUP3 ADD MSTORE PUSH1 0x60 ADD SWAP1 JUMP JUMPDEST PUSH1 0x20 DUP1 DUP3 MSTORE PUSH1 0x22 SWAP1 DUP3 ADD MSTORE PUSH32 0x416363657074206269642071747920686967686572207468616E206269642071 PUSH1 0x40 DUP3 ADD MSTORE PUSH2 0x7479 PUSH1 0xF0 SHL PUSH1 0x60 DUP3 ADD MSTORE PUSH1 0x80 ADD SWAP1 JUMP JUMPDEST PUSH1 0x20 DUP1 DUP3 MSTORE PUSH1 0x23 SWAP1 DUP3 ADD MSTORE PUSH32 0x6C6566744F726465722E74616B657220766572696669636174696F6E20666169 PUSH1 0x40 DUP3 ADD MSTORE PUSH3 0x1B1959 PUSH1 0xEA SHL PUSH1 0x60 DUP3 ADD MSTORE PUSH1 0x80 ADD SWAP1 JUMP JUMPDEST PUSH1 0x20 DUP1 DUP3 MSTORE PUSH1 0xF SWAP1 DUP3 ADD MSTORE PUSH15 0x496E76616C6964206C697374696E67 PUSH1 0x88 SHL PUSH1 0x40 DUP3 ADD MSTORE PUSH1 0x60 ADD SWAP1 JUMP JUMPDEST PUSH1 0x20 DUP1 DUP3 MSTORE PUSH1 0xB SWAP1 DUP3 ADD MSTORE PUSH11 0x3737BA10309036B0B5B2B9 PUSH1 0xA9 SHL PUSH1 0x40 DUP3 ADD MSTORE PUSH1 0x60 ADD SWAP1 JUMP JUMPDEST PUSH1 0x20 DUP1 DUP3 MSTORE DUP2 DUP2 ADD MSTORE PUSH32 0x4F7264657220616C72656164792063616E63656C6564206F722066696C6C6564 PUSH1 0x40 DUP3 ADD MSTORE PUSH1 0x60 ADD SWAP1 JUMP JUMPDEST PUSH1 0xC0 DUP2 ADD PUSH2 0x432D DUP3 DUP7 PUSH2 0x37D5 JUMP JUMPDEST PUSH1 0x1 PUSH1 0x1 PUSH1 0xA0 SHL SUB SWAP4 DUP5 AND PUSH1 0x80 DUP4 ADD MSTORE SWAP2 SWAP1 SWAP3 AND PUSH1 0xA0 SWAP1 SWAP3 ADD SWAP2 SWAP1 SWAP2 MSTORE SWAP2 SWAP1 POP JUMP JUMPDEST PUSH2 0x100 DUP2 ADD PUSH2 0x435E DUP3 DUP6 PUSH2 0x37D5 JUMP JUMPDEST PUSH2 0x1825 PUSH1 0x80 DUP4 ADD DUP5 PUSH2 0x37D5 JUMP JUMPDEST PUSH2 0xFFFF SWAP12 SWAP1 SWAP12 AND DUP12 MSTORE PUSH1 0x1 PUSH1 0x1 PUSH1 0xA0 SHL SUB SWAP10 DUP11 AND PUSH1 0x20 DUP13 ADD MSTORE SWAP8 DUP10 AND PUSH1 0x40 DUP12 ADD MSTORE PUSH1 0x60 DUP11 ADD SWAP7 SWAP1 SWAP7 MSTORE PUSH1 0x80 DUP10 ADD SWAP5 SWAP1 SWAP5 MSTORE PUSH1 0xFF SWAP3 DUP4 AND PUSH1 0xA0 DUP10 ADD MSTORE SWAP1 DUP7 AND PUSH1 0xC0 DUP9 ADD MSTORE SWAP1 SWAP5 AND PUSH1 0xE0 DUP7 ADD MSTORE PUSH2 0x100 DUP6 ADD MSTORE PUSH2 0x120 DUP5 ADD MSTORE AND PUSH2 0x140 DUP3 ADD MSTORE PUSH2 0x160 ADD SWAP1 JUMP JUMPDEST PUSH6 0xFFFFFFFFFFFF SWAP3 DUP4 AND DUP2 MSTORE SWAP2 AND PUSH1 0x20 DUP3 ADD MSTORE PUSH1 0x40 ADD SWAP1 JUMP JUMPDEST PUSH1 0xFF SWAP3 SWAP1 SWAP3 AND DUP3 MSTORE PUSH1 0x20 DUP3 ADD MSTORE PUSH1 0x40 ADD SWAP1 JUMP JUMPDEST PUSH1 0x0 DUP3 CALLDATALOAD PUSH2 0x27E NOT DUP4 CALLDATASIZE SUB ADD DUP2 SLT PUSH2 0x3816 JUMPI DUP2 DUP3 REVERT JUMPDEST PUSH1 0x0 DUP3 CALLDATALOAD PUSH2 0x2BE NOT DUP4 CALLDATASIZE SUB ADD DUP2 SLT PUSH2 0x3816 JUMPI DUP2 DUP3 REVERT JUMPDEST PUSH1 0x40 MLOAD DUP2 DUP2 ADD PUSH1 0x1 PUSH1 0x1 PUSH1 0x40 SHL SUB DUP2 GT DUP3 DUP3 LT OR ISZERO PUSH2 0x4443 JUMPI INVALID JUMPDEST PUSH1 0x40 MSTORE SWAP2 SWAP1 POP JUMP JUMPDEST PUSH1 0x0 PUSH1 0x1 PUSH1 0x1 PUSH1 0x40 SHL SUB DUP3 GT ISZERO PUSH2 0x445E JUMPI INVALID JUMPDEST POP PUSH1 0x20 SWAP1 DUP2 MUL ADD SWAP1 JUMP JUMPDEST PUSH1 0x0 PUSH2 0x280 DUP3 CALLDATASIZE SUB SLT ISZERO PUSH2 0x447A JUMPI DUP1 DUP2 REVERT JUMPDEST PUSH2 0x4485 PUSH2 0x1A0 PUSH2 0x4428 JUMP JUMPDEST PUSH2 0x448E DUP4 PUSH2 0x3066 JUMP JUMPDEST DUP2 MSTORE PUSH2 0x449D CALLDATASIZE PUSH1 0x20 DUP6 ADD PUSH2 0x31BC JUMP JUMPDEST PUSH1 0x20 DUP3 ADD MSTORE PUSH2 0x44AE PUSH1 0xA0 DUP5 ADD PUSH2 0x3066 JUMP JUMPDEST PUSH1 0x40 DUP3 ADD MSTORE PUSH2 0x44C0 CALLDATASIZE PUSH1 0xC0 DUP6 ADD PUSH2 0x322C JUMP JUMPDEST PUSH1 0x60 DUP3 ADD MSTORE PUSH2 0x120 DUP1 DUP5 ADD CALLDATALOAD PUSH1 0x80 DUP4 ADD MSTORE PUSH2 0x140 DUP1 DUP6 ADD CALLDATALOAD PUSH1 0xA0 DUP5 ADD MSTORE PUSH2 0x160 DUP1 DUP7 ADD CALLDATALOAD PUSH1 0xC0 DUP6 ADD MSTORE PUSH2 0x180 PUSH2 0x44F8 CALLDATASIZE DUP3 DUP10 ADD PUSH2 0x3290 JUMP JUMPDEST PUSH1 0xE0 DUP7 ADD MSTORE PUSH2 0x450B CALLDATASIZE PUSH2 0x1C0 DUP10 ADD PUSH2 0x3290 JUMP JUMPDEST PUSH2 0x100 DUP7 ADD MSTORE PUSH2 0x200 DUP8 ADD CALLDATALOAD PUSH1 0x1 PUSH1 0x1 PUSH1 0x40 SHL SUB DUP1 DUP3 GT ISZERO PUSH2 0x452B JUMPI DUP8 DUP9 REVERT JUMPDEST PUSH2 0x4537 CALLDATASIZE DUP4 DUP12 ADD PUSH2 0x3132 JUMP JUMPDEST DUP7 DUP9 ADD MSTORE PUSH2 0x220 DUP10 ADD CALLDATALOAD DUP6 DUP9 ADD MSTORE PUSH2 0x240 DUP10 ADD CALLDATALOAD SWAP6 POP DUP1 DUP7 GT ISZERO PUSH2 0x4559 JUMPI DUP8 DUP9 REVERT JUMPDEST POP POP PUSH2 0x4567 CALLDATASIZE DUP6 DUP10 ADD PUSH2 0x3071 JUMP JUMPDEST DUP3 DUP7 ADD MSTORE PUSH2 0x4578 PUSH2 0x260 DUP9 ADD PUSH2 0x3416 JUMP JUMPDEST SWAP1 DUP6 ADD MSTORE POP SWAP2 SWAP5 SWAP4 POP POP POP POP JUMP JUMPDEST PUSH1 0x0 PUSH2 0x4592 CALLDATASIZE DUP4 PUSH2 0x32E1 JUMP JUMPDEST SWAP3 SWAP2 POP POP JUMP JUMPDEST PUSH1 0x0 JUMPDEST DUP4 DUP2 LT ISZERO PUSH2 0x45B3 JUMPI DUP2 DUP2 ADD MLOAD DUP4 DUP3 ADD MSTORE PUSH1 0x20 ADD PUSH2 0x459B JUMP JUMPDEST DUP4 DUP2 GT ISZERO PUSH2 0x149C JUMPI POP POP PUSH1 0x0 SWAP2 ADD MSTORE JUMP JUMPDEST PUSH1 0x1 PUSH1 0x1 PUSH1 0xA0 SHL SUB DUP2 AND DUP2 EQ PUSH2 0x127F JUMPI PUSH1 0x0 DUP1 REVERT JUMPDEST PUSH1 0xFF DUP2 AND DUP2 EQ PUSH2 0x127F JUMPI PUSH1 0x0 DUP1 REVERT INVALID LOG2 PUSH5 0x6970667358 0x22 SLT KECCAK256 PUSH24 0xE0F3F3D5EE5A0033C4B3C178D098AEC39830164F0FB3E512 SDIV CALLVALUE CALLVALUE DELEGATECALL 0xF7 PUSH32 0x5764736F6C634300070600330000000000000000000000000000000000000000 "},"methodIdentifiers":{"__ExchangeV2_init(address,address,uint256,address,address)":"1372a625","_owner()":"b2bdfa7b","cancel((uint8,address,(uint8,address,uint256,uint256),address,(uint8,address,uint256,uint256),uint256,uint256,uint256,(address,uint256),(address,uint256),bytes,bytes32,bytes32[],uint16))":"d362d3ff","cancelOrder((uint8,address,(uint8,address,uint256,uint256),address,(uint8,address,uint256,uint256),uint256,uint256,uint256,(address,uint256),(address,uint256),bytes,bytes32,bytes32[],uint16))":"8b42af3e","directAcceptBid(((uint8,address,(uint8,address,uint256,uint256),address,(uint8,address,uint256,uint256),uint256,uint256,uint256,(address,uint256),(address,uint256),bytes,bytes32,bytes32[],uint16),(uint8,address,(uint8,address,uint256,uint256),address,(uint8,address,uint256,uint256),uint256,uint256,uint256,(address,uint256),(address,uint256),bytes,bytes32,bytes32[],uint16)))":"33033608","directAcceptBidCollection(((address,(uint8,address,uint256,uint256),address,(uint8,address,uint256),uint256,uint256,uint256,(address,uint256),(address,uint256),bytes,bytes32,bytes32[],uint16),(uint8,address,(uint8,address,uint256,uint256),address,(uint8,address,uint256,uint256),uint256,uint256,uint256,(address,uint256),(address,uint256),bytes,bytes32,bytes32[],uint16)))":"f75743ce","fills(bytes32)":"20158c44","getTransferProxy(uint8)":"b36c9b29","matchOrders((uint8,address,(uint8,address,uint256,uint256),address,(uint8,address,uint256,uint256),uint256,uint256,uint256,(address,uint256),(address,uint256),bytes,bytes32,bytes32[],uint16)[],(uint8,address,(uint8,address,uint256,uint256),address,(uint8,address,uint256,uint256),uint256,uint256,uint256,(address,uint256),(address,uint256),bytes,bytes32,bytes32[],uint16)[])":"faa2cc7c","owner()":"8da5cb5b","protocolFee()":"b0e21e8a","renounceOwnership()":"715018a6","royaltiesRegistry()":"6d8f0694","setAllProtocolFeeData(address,uint48,uint48)":"b74c8e9a","setAssetMatcher(uint256,address)":"c648a687","setPrtocolFeeBuyerAmount(uint48)":"d6ca6ab7","setPrtocolFeeReceiver(address)":"bc158c2d","setPrtocolFeeSellerAmount(uint48)":"eae3ad6f","setRoyaltiesRegistry(address)":"3be89922","setTransferProxy(uint8,address)":"4cfe4cd8","transferOwnership(address)":"f2fde38b","validateListing(bytes32,bytes32[],(uint8,address,(uint8,address,uint256,uint256),address,(uint8,address,uint256,uint256),uint256,uint256,uint256,(address,uint256),(address,uint256),bytes,bytes32,bytes32[],uint16))":"3e2d95ff"}},"storageLayout":{"storage":[{"astId":2527,"contract":"contracts/ExchangeV2.sol:ExchangeV2","label":"_initialized","offset":0,"slot":"0","type":"t_bool"},{"astId":2530,"contract":"contracts/ExchangeV2.sol:ExchangeV2","label":"_initializing","offset":1,"slot":"0","type":"t_bool"},{"astId":695,"contract":"contracts/ExchangeV2.sol:ExchangeV2","label":"__gap","offset":0,"slot":"1","type":"t_array(t_uint256)50_storage"},{"astId":3133,"contract":"contracts/ExchangeV2.sol:ExchangeV2","label":"_owner","offset":0,"slot":"51","type":"t_address"},{"astId":3252,"contract":"contracts/ExchangeV2.sol:ExchangeV2","label":"__gap","offset":0,"slot":"52","type":"t_array(t_uint256)49_storage"},{"astId":302,"contract":"contracts/ExchangeV2.sol:ExchangeV2","label":"matchers","offset":0,"slot":"101","type":"t_mapping(t_uint256,t_address)"},{"astId":649,"contract":"contracts/ExchangeV2.sol:ExchangeV2","label":"__gap","offset":0,"slot":"102","type":"t_array(t_uint256)49_storage"},{"astId":3635,"contract":"contracts/ExchangeV2.sol:ExchangeV2","label":"proxies","offset":0,"slot":"151","type":"t_mapping(t_uint8,t_address)"},{"astId":3908,"contract":"contracts/ExchangeV2.sol:ExchangeV2","label":"__gap","offset":0,"slot":"152","type":"t_array(t_uint256)49_storage"},{"astId":705,"contract":"contracts/ExchangeV2.sol:ExchangeV2","label":"_HASHED_NAME","offset":0,"slot":"201","type":"t_bytes32"},{"astId":708,"contract":"contracts/ExchangeV2.sol:ExchangeV2","label":"_HASHED_VERSION","offset":0,"slot":"202","type":"t_bytes32"},{"astId":857,"contract":"contracts/ExchangeV2.sol:ExchangeV2","label":"__gap","offset":0,"slot":"203","type":"t_array(t_uint256)50_storage"},{"astId":3121,"contract":"contracts/ExchangeV2.sol:ExchangeV2","label":"__gap","offset":0,"slot":"253","type":"t_array(t_uint256)50_storage"},{"astId":10,"contract":"contracts/ExchangeV2.sol:ExchangeV2","label":"_status","offset":0,"slot":"303","type":"t_uint256"},{"astId":1016,"contract":"contracts/ExchangeV2.sol:ExchangeV2","label":"randNonce","offset":0,"slot":"304","type":"t_uint256"},{"astId":1020,"contract":"contracts/ExchangeV2.sol:ExchangeV2","label":"fills","offset":0,"slot":"305","type":"t_mapping(t_bytes32,t_uint256)"},{"astId":1028,"contract":"contracts/ExchangeV2.sol:ExchangeV2","label":"cancelledOrFiledOrders","offset":0,"slot":"306","type":"t_mapping(t_address,t_mapping(t_bytes_memory_ptr,t_mapping(t_uint16,t_uint256)))"},{"astId":2479,"contract":"contracts/ExchangeV2.sol:ExchangeV2","label":"__gap","offset":0,"slot":"307","type":"t_array(t_uint256)49_storage"},{"astId":3957,"contract":"contracts/ExchangeV2.sol:ExchangeV2","label":"protocolFee","offset":0,"slot":"356","type":"t_struct(ProtocolFeeData)3993_storage"},{"astId":3959,"contract":"contracts/ExchangeV2.sol:ExchangeV2","label":"royaltiesRegistry","offset":0,"slot":"357","type":"t_contract(IRoyaltiesProvider)4741"},{"astId":3961,"contract":"contracts/ExchangeV2.sol:ExchangeV2","label":"defaultFeeReceiver","offset":0,"slot":"358","type":"t_address"},{"astId":3965,"contract":"contracts/ExchangeV2.sol:ExchangeV2","label":"feeReceivers","offset":0,"slot":"359","type":"t_mapping(t_address,t_address)"},{"astId":4321,"contract":"contracts/ExchangeV2.sol:ExchangeV2","label":"__gap","offset":0,"slot":"360","type":"t_array(t_uint256)46_storage"}],"types":{"t_address":{"encoding":"inplace","label":"address","numberOfBytes":"20"},"t_array(t_uint256)46_storage":{"base":"t_uint256","encoding":"inplace","label":"uint256[46]","numberOfBytes":"1472"},"t_array(t_uint256)49_storage":{"base":"t_uint256","encoding":"inplace","label":"uint256[49]","numberOfBytes":"1568"},"t_array(t_uint256)50_storage":{"base":"t_uint256","encoding":"inplace","label":"uint256[50]","numberOfBytes":"1600"},"t_bool":{"encoding":"inplace","label":"bool","numberOfBytes":"1"},"t_bytes32":{"encoding":"inplace","label":"bytes32","numberOfBytes":"32"},"t_bytes_memory_ptr":{"encoding":"bytes","label":"bytes","numberOfBytes":"32"},"t_contract(IRoyaltiesProvider)4741":{"encoding":"inplace","label":"contract IRoyaltiesProvider","numberOfBytes":"20"},"t_mapping(t_address,t_address)":{"encoding":"mapping","key":"t_address","label":"mapping(address => address)","numberOfBytes":"32","value":"t_address"},"t_mapping(t_address,t_mapping(t_bytes_memory_ptr,t_mapping(t_uint16,t_uint256)))":{"encoding":"mapping","key":"t_address","label":"mapping(address => mapping(bytes => mapping(uint16 => uint256)))","numberOfBytes":"32","value":"t_mapping(t_bytes_memory_ptr,t_mapping(t_uint16,t_uint256))"},"t_mapping(t_bytes32,t_uint256)":{"encoding":"mapping","key":"t_bytes32","label":"mapping(bytes32 => uint256)","numberOfBytes":"32","value":"t_uint256"},"t_mapping(t_bytes_memory_ptr,t_mapping(t_uint16,t_uint256))":{"encoding":"mapping","key":"t_bytes_memory_ptr","label":"mapping(bytes => mapping(uint16 => uint256))","numberOfBytes":"32","value":"t_mapping(t_uint16,t_uint256)"},"t_mapping(t_uint16,t_uint256)":{"encoding":"mapping","key":"t_uint16","label":"mapping(uint16 => uint256)","numberOfBytes":"32","value":"t_uint256"},"t_mapping(t_uint256,t_address)":{"encoding":"mapping","key":"t_uint256","label":"mapping(uint256 => address)","numberOfBytes":"32","value":"t_address"},"t_mapping(t_uint8,t_address)":{"encoding":"mapping","key":"t_uint8","label":"mapping(uint8 => address)","numberOfBytes":"32","value":"t_address"},"t_struct(ProtocolFeeData)3993_storage":{"encoding":"inplace","label":"struct TransferManager.ProtocolFeeData","members":[{"astId":3988,"contract":"contracts/ExchangeV2.sol:ExchangeV2","label":"receiver","offset":0,"slot":"0","type":"t_address"},{"astId":3990,"contract":"contracts/ExchangeV2.sol:ExchangeV2","label":"buyerAmount","offset":20,"slot":"0","type":"t_uint48"},{"astId":3992,"contract":"contracts/ExchangeV2.sol:ExchangeV2","label":"sellerAmount","offset":26,"slot":"0","type":"t_uint48"}],"numberOfBytes":"32"},"t_uint16":{"encoding":"inplace","label":"uint16","numberOfBytes":"2"},"t_uint256":{"encoding":"inplace","label":"uint256","numberOfBytes":"32"},"t_uint48":{"encoding":"inplace","label":"uint48","numberOfBytes":"6"},"t_uint8":{"encoding":"inplace","label":"uint8","numberOfBytes":"1"}}}}}}