{
  "_format": "hh-sol-artifact-1",
  "contractName": "OwnableOperatorRole",
  "sourceName": "contracts/ERC20TransferProxy.sol",
  "abi": [
    {
      "anonymous": false,
      "inputs": [
        {
          "indexed": true,
          "internalType": "address",
          "name": "account",
          "type": "address"
        }
      ],
      "name": "OperatorAdded",
      "type": "event"
    },
    {
      "anonymous": false,
      "inputs": [
        {
          "indexed": true,
          "internalType": "address",
          "name": "account",
          "type": "address"
        }
      ],
      "name": "OperatorRemoved",
      "type": "event"
    },
    {
      "anonymous": false,
      "inputs": [
        {
          "indexed": true,
          "internalType": "address",
          "name": "previousOwner",
          "type": "address"
        },
        {
          "indexed": true,
          "internalType": "address",
          "name": "newOwner",
          "type": "address"
        }
      ],
      "name": "OwnershipTransferred",
      "type": "event"
    },
    {
      "inputs": [
        {
          "internalType": "address",
          "name": "account",
          "type": "address"
        }
      ],
      "name": "addOperator",
      "outputs": [],
      "stateMutability": "nonpayable",
      "type": "function"
    },
    {
      "inputs": [
        {
          "internalType": "address",
          "name": "account",
          "type": "address"
        }
      ],
      "name": "isOperator",
      "outputs": [
        {
          "internalType": "bool",
          "name": "",
          "type": "bool"
        }
      ],
      "stateMutability": "view",
      "type": "function"
    },
    {
      "inputs": [],
      "name": "isOwner",
      "outputs": [
        {
          "internalType": "bool",
          "name": "",
          "type": "bool"
        }
      ],
      "stateMutability": "view",
      "type": "function"
    },
    {
      "inputs": [],
      "name": "owner",
      "outputs": [
        {
          "internalType": "address",
          "name": "",
          "type": "address"
        }
      ],
      "stateMutability": "view",
      "type": "function"
    },
    {
      "inputs": [
        {
          "internalType": "address",
          "name": "account",
          "type": "address"
        }
      ],
      "name": "removeOperator",
      "outputs": [],
      "stateMutability": "nonpayable",
      "type": "function"
    },
    {
      "inputs": [],
      "name": "renounceOwnership",
      "outputs": [],
      "stateMutability": "nonpayable",
      "type": "function"
    },
    {
      "inputs": [
        {
          "internalType": "address",
          "name": "newOwner",
          "type": "address"
        }
      ],
      "name": "transferOwnership",
      "outputs": [],
      "stateMutability": "nonpayable",
      "type": "function"
    }
  ],
  "bytecode": "0x608060405234801561001057600080fd5b50600061001b61006a565b600080546001600160a01b0319166001600160a01b0383169081178255604051929350917f8be0079c531659141344cd1fd0a4f28419497f9722a3daafe3b4186f6b6457e0908290a35061006e565b3390565b6106648061007d6000396000f3fe608060405234801561001057600080fd5b506004361061007d5760003560e01c80638f32d59b1161005b5780638f32d59b146100ea5780639870d7fe146100f2578063ac8a584a14610118578063f2fde38b1461013e5761007d565b80636d70f7ae14610082578063715018a6146100bc5780638da5cb5b146100c6575b600080fd5b6100a86004803603602081101561009857600080fd5b50356001600160a01b0316610164565b604080519115158252519081900360200190f35b6100c4610177565b005b6100ce610208565b604080516001600160a01b039092168252519081900360200190f35b6100a8610217565b6100c46004803603602081101561010857600080fd5b50356001600160a01b031661023b565b6100c46004803603602081101561012e57600080fd5b50356001600160a01b031661028e565b6100c46004803603602081101561015457600080fd5b50356001600160a01b03166102de565b600061017160018361032e565b92915050565b61017f610217565b6101be576040805162461bcd60e51b815260206004820181905260248201526000805160206105ed833981519152604482015290519081900360640190fd5b600080546040516001600160a01b03909116907f8be0079c531659141344cd1fd0a4f28419497f9722a3daafe3b4186f6b6457e0908390a3600080546001600160a01b0319169055565b6000546001600160a01b031690565b600080546001600160a01b031661022c610395565b6001600160a01b031614905090565b610243610217565b610282576040805162461bcd60e51b815260206004820181905260248201526000805160206105ed833981519152604482015290519081900360640190fd5b61028b81610399565b50565b610296610217565b6102d5576040805162461bcd60e51b815260206004820181905260248201526000805160206105ed833981519152604482015290519081900360640190fd5b61028b816103db565b6102e6610217565b610325576040805162461bcd60e51b815260206004820181905260248201526000805160206105ed833981519152604482015290519081900360640190fd5b61028b8161041d565b60006001600160a01b0382166103755760405162461bcd60e51b815260040180806020018281038252602281526020018061060d6022913960400191505060405180910390fd5b506001600160a01b03166000908152602091909152604090205460ff1690565b3390565b6103a46001826104bd565b6040516001600160a01b038216907fac6fa858e9350a46cec16539926e0fde25b7629f84b5a72bffaae4df888ae86d90600090a250565b6103e660018261053e565b6040516001600160a01b038216907f80c0b871b97b595b16a7741c1b06fed0c6f6f558639f18ccbce50724325dc40d90600090a250565b6001600160a01b0381166104625760405162461bcd60e51b81526004018080602001828103825260268152602001806105a66026913960400191505060405180910390fd5b600080546040516001600160a01b03808516939216917f8be0079c531659141344cd1fd0a4f28419497f9722a3daafe3b4186f6b6457e091a3600080546001600160a01b0319166001600160a01b0392909216919091179055565b6104c7828261032e565b15610519576040805162461bcd60e51b815260206004820152601f60248201527f526f6c65733a206163636f756e7420616c72656164792068617320726f6c6500604482015290519081900360640190fd5b6001600160a01b0316600090815260209190915260409020805460ff19166001179055565b610548828261032e565b6105835760405162461bcd60e51b81526004018080602001828103825260218152602001806105cc6021913960400191505060405180910390fd5b6001600160a01b0316600090815260209190915260409020805460ff1916905556fe4f776e61626c653a206e6577206f776e657220697320746865207a65726f2061646472657373526f6c65733a206163636f756e7420646f6573206e6f74206861766520726f6c654f776e61626c653a2063616c6c6572206973206e6f7420746865206f776e6572526f6c65733a206163636f756e7420697320746865207a65726f2061646472657373a2646970667358221220f956627120a893341c4e76d56f090059a82e93ec10e236d626378de5ef1e14a664736f6c63430007060033",
  "linkReferences": {},
  "deployedLinkReferences": {}
}