{
  "_format": "hh-sol-artifact-1",
  "contractName": "X721ERC20TransferProxy",
  "sourceName": "contracts/ERC20TransferProxy.sol",
  "abi": [
    {
      "anonymous": false,
      "inputs": [
        {
          "indexed": true,
          "internalType": "address",
          "name": "account",
          "type": "address"
        }
      ],
      "name": "OperatorAdded",
      "type": "event"
    },
    {
      "anonymous": false,
      "inputs": [
        {
          "indexed": true,
          "internalType": "address",
          "name": "account",
          "type": "address"
        }
      ],
      "name": "OperatorRemoved",
      "type": "event"
    },
    {
      "anonymous": false,
      "inputs": [
        {
          "indexed": true,
          "internalType": "address",
          "name": "previousOwner",
          "type": "address"
        },
        {
          "indexed": true,
          "internalType": "address",
          "name": "newOwner",
          "type": "address"
        }
      ],
      "name": "OwnershipTransferred",
      "type": "event"
    },
    {
      "inputs": [
        {
          "internalType": "address",
          "name": "account",
          "type": "address"
        }
      ],
      "name": "addOperator",
      "outputs": [],
      "stateMutability": "nonpayable",
      "type": "function"
    },
    {
      "inputs": [
        {
          "internalType": "contract IERC20",
          "name": "token",
          "type": "address"
        },
        {
          "internalType": "address",
          "name": "from",
          "type": "address"
        },
        {
          "internalType": "address",
          "name": "to",
          "type": "address"
        },
        {
          "internalType": "uint256",
          "name": "value",
          "type": "uint256"
        }
      ],
      "name": "erc20safeTransferFrom",
      "outputs": [],
      "stateMutability": "nonpayable",
      "type": "function"
    },
    {
      "inputs": [
        {
          "internalType": "address",
          "name": "account",
          "type": "address"
        }
      ],
      "name": "isOperator",
      "outputs": [
        {
          "internalType": "bool",
          "name": "",
          "type": "bool"
        }
      ],
      "stateMutability": "view",
      "type": "function"
    },
    {
      "inputs": [],
      "name": "isOwner",
      "outputs": [
        {
          "internalType": "bool",
          "name": "",
          "type": "bool"
        }
      ],
      "stateMutability": "view",
      "type": "function"
    },
    {
      "inputs": [],
      "name": "owner",
      "outputs": [
        {
          "internalType": "address",
          "name": "",
          "type": "address"
        }
      ],
      "stateMutability": "view",
      "type": "function"
    },
    {
      "inputs": [
        {
          "internalType": "address",
          "name": "account",
          "type": "address"
        }
      ],
      "name": "removeOperator",
      "outputs": [],
      "stateMutability": "nonpayable",
      "type": "function"
    },
    {
      "inputs": [],
      "name": "renounceOwnership",
      "outputs": [],
      "stateMutability": "nonpayable",
      "type": "function"
    },
    {
      "inputs": [
        {
          "internalType": "address",
          "name": "newOwner",
          "type": "address"
        }
      ],
      "name": "transferOwnership",
      "outputs": [],
      "stateMutability": "nonpayable",
      "type": "function"
    }
  ],
  "bytecode": "0x608060405234801561001057600080fd5b50600061001b61006a565b600080546001600160a01b0319166001600160a01b0383169081178255604051929350917f8be0079c531659141344cd1fd0a4f28419497f9722a3daafe3b4186f6b6457e0908290a35061006e565b3390565b6108158061007d6000396000f3fe608060405234801561001057600080fd5b50600436106100885760003560e01c80638f32d59b1161005b5780638f32d59b146101315780639870d7fe14610139578063ac8a584a1461015f578063f2fde38b1461018557610088565b80636d70f7ae1461008d578063715018a6146100c7578063776062c3146100d15780638da5cb5b1461010d575b600080fd5b6100b3600480360360208110156100a357600080fd5b50356001600160a01b03166101ab565b604080519115158252519081900360200190f35b6100cf6101be565b005b6100cf600480360360808110156100e757600080fd5b506001600160a01b0381358116916020810135821691604082013516906060013561024f565b610115610385565b604080516001600160a01b039092168252519081900360200190f35b6100b3610394565b6100cf6004803603602081101561014f57600080fd5b50356001600160a01b03166103b8565b6100cf6004803603602081101561017557600080fd5b50356001600160a01b031661040b565b6100cf6004803603602081101561019b57600080fd5b50356001600160a01b031661045b565b60006101b86001836104ab565b92915050565b6101c6610394565b610205576040805162461bcd60e51b8152602060048201819052602482015260008051602061079e833981519152604482015290519081900360640190fd5b600080546040516001600160a01b03909116907f8be0079c531659141344cd1fd0a4f28419497f9722a3daafe3b4186f6b6457e0908390a3600080546001600160a01b0319169055565b61025f61025a610512565b6101ab565b61029a5760405162461bcd60e51b81526004018080602001828103825260348152602001806107496034913960400191505060405180910390fd5b836001600160a01b03166323b872dd8484846040518463ffffffff1660e01b815260040180846001600160a01b03168152602001836001600160a01b031681526020018281526020019350505050602060405180830381600087803b15801561030257600080fd5b505af1158015610316573d6000803e3d6000fd5b505050506040513d602081101561032c57600080fd5b505161037f576040805162461bcd60e51b815260206004820152601a60248201527f6661696c757265207768696c65207472616e7366657272696e67000000000000604482015290519081900360640190fd5b50505050565b6000546001600160a01b031690565b600080546001600160a01b03166103a9610512565b6001600160a01b031614905090565b6103c0610394565b6103ff576040805162461bcd60e51b8152602060048201819052602482015260008051602061079e833981519152604482015290519081900360640190fd5b61040881610516565b50565b610413610394565b610452576040805162461bcd60e51b8152602060048201819052602482015260008051602061079e833981519152604482015290519081900360640190fd5b61040881610558565b610463610394565b6104a2576040805162461bcd60e51b8152602060048201819052602482015260008051602061079e833981519152604482015290519081900360640190fd5b6104088161059a565b60006001600160a01b0382166104f25760405162461bcd60e51b81526004018080602001828103825260228152602001806107be6022913960400191505060405180910390fd5b506001600160a01b03166000908152602091909152604090205460ff1690565b3390565b61052160018261063a565b6040516001600160a01b038216907fac6fa858e9350a46cec16539926e0fde25b7629f84b5a72bffaae4df888ae86d90600090a250565b6105636001826106bb565b6040516001600160a01b038216907f80c0b871b97b595b16a7741c1b06fed0c6f6f558639f18ccbce50724325dc40d90600090a250565b6001600160a01b0381166105df5760405162461bcd60e51b81526004018080602001828103825260268152602001806107236026913960400191505060405180910390fd5b600080546040516001600160a01b03808516939216917f8be0079c531659141344cd1fd0a4f28419497f9722a3daafe3b4186f6b6457e091a3600080546001600160a01b0319166001600160a01b0392909216919091179055565b61064482826104ab565b15610696576040805162461bcd60e51b815260206004820152601f60248201527f526f6c65733a206163636f756e7420616c72656164792068617320726f6c6500604482015290519081900360640190fd5b6001600160a01b0316600090815260209190915260409020805460ff19166001179055565b6106c582826104ab565b6107005760405162461bcd60e51b815260040180806020018281038252602181526020018061077d6021913960400191505060405180910390fd5b6001600160a01b0316600090815260209190915260409020805460ff1916905556fe4f776e61626c653a206e6577206f776e657220697320746865207a65726f20616464726573734f70657261746f72526f6c653a2063616c6c657220646f6573206e6f74206861766520746865204f70657261746f7220726f6c65526f6c65733a206163636f756e7420646f6573206e6f74206861766520726f6c654f776e61626c653a2063616c6c6572206973206e6f7420746865206f776e6572526f6c65733a206163636f756e7420697320746865207a65726f2061646472657373a2646970667358221220bb325e719261f90255eb8faf0d1693454855eae485a0b511f1e1bd705917a92864736f6c63430007060033",
  "linkReferences": {},
  "deployedLinkReferences": {}
}