{
  "_format": "hh-sol-artifact-1",
  "contractName": "ExchangeV2",
  "sourceName": "contracts/ExchangeV2.sol",
  "abi": [
    {
      "inputs": [],
      "stateMutability": "nonpayable",
      "type": "constructor"
    },
    {
      "anonymous": false,
      "inputs": [
        {
          "indexed": false,
          "internalType": "uint256",
          "name": "oldValue",
          "type": "uint256"
        },
        {
          "indexed": false,
          "internalType": "uint256",
          "name": "newValue",
          "type": "uint256"
        }
      ],
      "name": "BuyerFeeAmountChanged",
      "type": "event"
    },
    {
      "anonymous": false,
      "inputs": [
        {
          "indexed": false,
          "internalType": "bytes32",
          "name": "hash",
          "type": "bytes32"
        }
      ],
      "name": "Cancel",
      "type": "event"
    },
    {
      "anonymous": false,
      "inputs": [
        {
          "indexed": false,
          "internalType": "address",
          "name": "maker",
          "type": "address"
        },
        {
          "indexed": false,
          "internalType": "bytes",
          "name": "sig",
          "type": "bytes"
        },
        {
          "indexed": false,
          "internalType": "uint16",
          "name": "index",
          "type": "uint16"
        }
      ],
      "name": "CancelOrder",
      "type": "event"
    },
    {
      "anonymous": false,
      "inputs": [
        {
          "indexed": false,
          "internalType": "address",
          "name": "oldValue",
          "type": "address"
        },
        {
          "indexed": false,
          "internalType": "address",
          "name": "newValue",
          "type": "address"
        }
      ],
      "name": "FeeReceiverChanged",
      "type": "event"
    },
    {
      "anonymous": false,
      "inputs": [
        {
          "indexed": false,
          "internalType": "enum LibOrder.OrderType",
          "name": "orderType",
          "type": "uint8"
        },
        {
          "indexed": false,
          "internalType": "address",
          "name": "maker",
          "type": "address"
        },
        {
          "indexed": false,
          "internalType": "address",
          "name": "taker",
          "type": "address"
        },
        {
          "indexed": false,
          "internalType": "bytes",
          "name": "sig",
          "type": "bytes"
        },
        {
          "indexed": false,
          "internalType": "uint16",
          "name": "index",
          "type": "uint16"
        },
        {
          "indexed": false,
          "internalType": "uint256",
          "name": "takeQty",
          "type": "uint256"
        },
        {
          "indexed": false,
          "internalType": "uint256",
          "name": "takeAssetId",
          "type": "uint256"
        },
        {
          "indexed": false,
          "internalType": "uint256",
          "name": "currentFilledValue",
          "type": "uint256"
        },
        {
          "indexed": false,
          "internalType": "uint256",
          "name": "randomValue",
          "type": "uint256"
        }
      ],
      "name": "FillOrder",
      "type": "event"
    },
    {
      "anonymous": false,
      "inputs": [
        {
          "indexed": false,
          "internalType": "bytes32",
          "name": "leftHash",
          "type": "bytes32"
        },
        {
          "indexed": false,
          "internalType": "bytes32",
          "name": "rightHash",
          "type": "bytes32"
        },
        {
          "indexed": false,
          "internalType": "uint256",
          "name": "newLeftFill",
          "type": "uint256"
        },
        {
          "indexed": false,
          "internalType": "uint256",
          "name": "newRightFill",
          "type": "uint256"
        }
      ],
      "name": "Match",
      "type": "event"
    },
    {
      "anonymous": false,
      "inputs": [
        {
          "indexed": true,
          "internalType": "uint256",
          "name": "assetType",
          "type": "uint256"
        },
        {
          "indexed": false,
          "internalType": "address",
          "name": "matcher",
          "type": "address"
        }
      ],
      "name": "MatcherChange",
      "type": "event"
    },
    {
      "anonymous": false,
      "inputs": [
        {
          "indexed": true,
          "internalType": "address",
          "name": "previousOwner",
          "type": "address"
        },
        {
          "indexed": true,
          "internalType": "address",
          "name": "newOwner",
          "type": "address"
        }
      ],
      "name": "OwnershipTransferred",
      "type": "event"
    },
    {
      "anonymous": false,
      "inputs": [
        {
          "indexed": true,
          "internalType": "uint256",
          "name": "assetType",
          "type": "uint256"
        },
        {
          "indexed": false,
          "internalType": "address",
          "name": "proxy",
          "type": "address"
        }
      ],
      "name": "ProxyChange",
      "type": "event"
    },
    {
      "anonymous": false,
      "inputs": [
        {
          "indexed": false,
          "internalType": "uint256",
          "name": "oldValue",
          "type": "uint256"
        },
        {
          "indexed": false,
          "internalType": "uint256",
          "name": "newValue",
          "type": "uint256"
        }
      ],
      "name": "SellerFeeAmountChanged",
      "type": "event"
    },
    {
      "inputs": [
        {
          "internalType": "address",
          "name": "_transferProxy",
          "type": "address"
        },
        {
          "internalType": "address",
          "name": "_erc20TransferProxy",
          "type": "address"
        },
        {
          "internalType": "uint256",
          "name": "newProtocolFee",
          "type": "uint256"
        },
        {
          "internalType": "address",
          "name": "newDefaultFeeReceiver",
          "type": "address"
        },
        {
          "internalType": "contract IRoyaltiesProvider",
          "name": "newRoyaltiesProvider",
          "type": "address"
        }
      ],
      "name": "__ExchangeV2_init",
      "outputs": [],
      "stateMutability": "nonpayable",
      "type": "function"
    },
    {
      "inputs": [],
      "name": "_owner",
      "outputs": [
        {
          "internalType": "address",
          "name": "",
          "type": "address"
        }
      ],
      "stateMutability": "view",
      "type": "function"
    },
    {
      "inputs": [
        {
          "components": [
            {
              "internalType": "enum LibOrder.OrderType",
              "name": "orderType",
              "type": "uint8"
            },
            {
              "internalType": "address",
              "name": "maker",
              "type": "address"
            },
            {
              "components": [
                {
                  "internalType": "uint8",
                  "name": "assetType",
                  "type": "uint8"
                },
                {
                  "internalType": "address",
                  "name": "contractAddress",
                  "type": "address"
                },
                {
                  "internalType": "uint256",
                  "name": "value",
                  "type": "uint256"
                },
                {
                  "internalType": "uint256",
                  "name": "id",
                  "type": "uint256"
                }
              ],
              "internalType": "struct LibAsset.Asset",
              "name": "makeAsset",
              "type": "tuple"
            },
            {
              "internalType": "address",
              "name": "taker",
              "type": "address"
            },
            {
              "components": [
                {
                  "internalType": "uint8",
                  "name": "assetType",
                  "type": "uint8"
                },
                {
                  "internalType": "address",
                  "name": "contractAddress",
                  "type": "address"
                },
                {
                  "internalType": "uint256",
                  "name": "value",
                  "type": "uint256"
                },
                {
                  "internalType": "uint256",
                  "name": "id",
                  "type": "uint256"
                }
              ],
              "internalType": "struct LibAsset.Asset",
              "name": "takeAsset",
              "type": "tuple"
            },
            {
              "internalType": "uint256",
              "name": "salt",
              "type": "uint256"
            },
            {
              "internalType": "uint256",
              "name": "start",
              "type": "uint256"
            },
            {
              "internalType": "uint256",
              "name": "end",
              "type": "uint256"
            },
            {
              "components": [
                {
                  "internalType": "address",
                  "name": "receiver",
                  "type": "address"
                },
                {
                  "internalType": "uint256",
                  "name": "amount",
                  "type": "uint256"
                }
              ],
              "internalType": "struct LibOrder.Fee",
              "name": "originFee",
              "type": "tuple"
            },
            {
              "components": [
                {
                  "internalType": "address",
                  "name": "receiver",
                  "type": "address"
                },
                {
                  "internalType": "uint256",
                  "name": "amount",
                  "type": "uint256"
                }
              ],
              "internalType": "struct LibOrder.Fee",
              "name": "royaltyFee",
              "type": "tuple"
            },
            {
              "internalType": "bytes",
              "name": "sig",
              "type": "bytes"
            },
            {
              "internalType": "bytes32",
              "name": "root",
              "type": "bytes32"
            },
            {
              "internalType": "bytes32[]",
              "name": "proof",
              "type": "bytes32[]"
            },
            {
              "internalType": "uint16",
              "name": "index",
              "type": "uint16"
            }
          ],
          "internalType": "struct LibOrder.Order",
          "name": "order",
          "type": "tuple"
        }
      ],
      "name": "cancel",
      "outputs": [],
      "stateMutability": "nonpayable",
      "type": "function"
    },
    {
      "inputs": [
        {
          "components": [
            {
              "internalType": "enum LibOrder.OrderType",
              "name": "orderType",
              "type": "uint8"
            },
            {
              "internalType": "address",
              "name": "maker",
              "type": "address"
            },
            {
              "components": [
                {
                  "internalType": "uint8",
                  "name": "assetType",
                  "type": "uint8"
                },
                {
                  "internalType": "address",
                  "name": "contractAddress",
                  "type": "address"
                },
                {
                  "internalType": "uint256",
                  "name": "value",
                  "type": "uint256"
                },
                {
                  "internalType": "uint256",
                  "name": "id",
                  "type": "uint256"
                }
              ],
              "internalType": "struct LibAsset.Asset",
              "name": "makeAsset",
              "type": "tuple"
            },
            {
              "internalType": "address",
              "name": "taker",
              "type": "address"
            },
            {
              "components": [
                {
                  "internalType": "uint8",
                  "name": "assetType",
                  "type": "uint8"
                },
                {
                  "internalType": "address",
                  "name": "contractAddress",
                  "type": "address"
                },
                {
                  "internalType": "uint256",
                  "name": "value",
                  "type": "uint256"
                },
                {
                  "internalType": "uint256",
                  "name": "id",
                  "type": "uint256"
                }
              ],
              "internalType": "struct LibAsset.Asset",
              "name": "takeAsset",
              "type": "tuple"
            },
            {
              "internalType": "uint256",
              "name": "salt",
              "type": "uint256"
            },
            {
              "internalType": "uint256",
              "name": "start",
              "type": "uint256"
            },
            {
              "internalType": "uint256",
              "name": "end",
              "type": "uint256"
            },
            {
              "components": [
                {
                  "internalType": "address",
                  "name": "receiver",
                  "type": "address"
                },
                {
                  "internalType": "uint256",
                  "name": "amount",
                  "type": "uint256"
                }
              ],
              "internalType": "struct LibOrder.Fee",
              "name": "originFee",
              "type": "tuple"
            },
            {
              "components": [
                {
                  "internalType": "address",
                  "name": "receiver",
                  "type": "address"
                },
                {
                  "internalType": "uint256",
                  "name": "amount",
                  "type": "uint256"
                }
              ],
              "internalType": "struct LibOrder.Fee",
              "name": "royaltyFee",
              "type": "tuple"
            },
            {
              "internalType": "bytes",
              "name": "sig",
              "type": "bytes"
            },
            {
              "internalType": "bytes32",
              "name": "root",
              "type": "bytes32"
            },
            {
              "internalType": "bytes32[]",
              "name": "proof",
              "type": "bytes32[]"
            },
            {
              "internalType": "uint16",
              "name": "index",
              "type": "uint16"
            }
          ],
          "internalType": "struct LibOrder.Order",
          "name": "order",
          "type": "tuple"
        }
      ],
      "name": "cancelOrder",
      "outputs": [],
      "stateMutability": "nonpayable",
      "type": "function"
    },
    {
      "inputs": [
        {
          "components": [
            {
              "components": [
                {
                  "internalType": "enum LibOrder.OrderType",
                  "name": "orderType",
                  "type": "uint8"
                },
                {
                  "internalType": "address",
                  "name": "maker",
                  "type": "address"
                },
                {
                  "components": [
                    {
                      "internalType": "uint8",
                      "name": "assetType",
                      "type": "uint8"
                    },
                    {
                      "internalType": "address",
                      "name": "contractAddress",
                      "type": "address"
                    },
                    {
                      "internalType": "uint256",
                      "name": "value",
                      "type": "uint256"
                    },
                    {
                      "internalType": "uint256",
                      "name": "id",
                      "type": "uint256"
                    }
                  ],
                  "internalType": "struct LibAsset.Asset",
                  "name": "makeAsset",
                  "type": "tuple"
                },
                {
                  "internalType": "address",
                  "name": "taker",
                  "type": "address"
                },
                {
                  "components": [
                    {
                      "internalType": "uint8",
                      "name": "assetType",
                      "type": "uint8"
                    },
                    {
                      "internalType": "address",
                      "name": "contractAddress",
                      "type": "address"
                    },
                    {
                      "internalType": "uint256",
                      "name": "value",
                      "type": "uint256"
                    },
                    {
                      "internalType": "uint256",
                      "name": "id",
                      "type": "uint256"
                    }
                  ],
                  "internalType": "struct LibAsset.Asset",
                  "name": "takeAsset",
                  "type": "tuple"
                },
                {
                  "internalType": "uint256",
                  "name": "salt",
                  "type": "uint256"
                },
                {
                  "internalType": "uint256",
                  "name": "start",
                  "type": "uint256"
                },
                {
                  "internalType": "uint256",
                  "name": "end",
                  "type": "uint256"
                },
                {
                  "components": [
                    {
                      "internalType": "address",
                      "name": "receiver",
                      "type": "address"
                    },
                    {
                      "internalType": "uint256",
                      "name": "amount",
                      "type": "uint256"
                    }
                  ],
                  "internalType": "struct LibOrder.Fee",
                  "name": "originFee",
                  "type": "tuple"
                },
                {
                  "components": [
                    {
                      "internalType": "address",
                      "name": "receiver",
                      "type": "address"
                    },
                    {
                      "internalType": "uint256",
                      "name": "amount",
                      "type": "uint256"
                    }
                  ],
                  "internalType": "struct LibOrder.Fee",
                  "name": "royaltyFee",
                  "type": "tuple"
                },
                {
                  "internalType": "bytes",
                  "name": "sig",
                  "type": "bytes"
                },
                {
                  "internalType": "bytes32",
                  "name": "root",
                  "type": "bytes32"
                },
                {
                  "internalType": "bytes32[]",
                  "name": "proof",
                  "type": "bytes32[]"
                },
                {
                  "internalType": "uint16",
                  "name": "index",
                  "type": "uint16"
                }
              ],
              "internalType": "struct LibOrder.Order",
              "name": "bidOrder",
              "type": "tuple"
            },
            {
              "components": [
                {
                  "internalType": "enum LibOrder.OrderType",
                  "name": "orderType",
                  "type": "uint8"
                },
                {
                  "internalType": "address",
                  "name": "maker",
                  "type": "address"
                },
                {
                  "components": [
                    {
                      "internalType": "uint8",
                      "name": "assetType",
                      "type": "uint8"
                    },
                    {
                      "internalType": "address",
                      "name": "contractAddress",
                      "type": "address"
                    },
                    {
                      "internalType": "uint256",
                      "name": "value",
                      "type": "uint256"
                    },
                    {
                      "internalType": "uint256",
                      "name": "id",
                      "type": "uint256"
                    }
                  ],
                  "internalType": "struct LibAsset.Asset",
                  "name": "makeAsset",
                  "type": "tuple"
                },
                {
                  "internalType": "address",
                  "name": "taker",
                  "type": "address"
                },
                {
                  "components": [
                    {
                      "internalType": "uint8",
                      "name": "assetType",
                      "type": "uint8"
                    },
                    {
                      "internalType": "address",
                      "name": "contractAddress",
                      "type": "address"
                    },
                    {
                      "internalType": "uint256",
                      "name": "value",
                      "type": "uint256"
                    },
                    {
                      "internalType": "uint256",
                      "name": "id",
                      "type": "uint256"
                    }
                  ],
                  "internalType": "struct LibAsset.Asset",
                  "name": "takeAsset",
                  "type": "tuple"
                },
                {
                  "internalType": "uint256",
                  "name": "salt",
                  "type": "uint256"
                },
                {
                  "internalType": "uint256",
                  "name": "start",
                  "type": "uint256"
                },
                {
                  "internalType": "uint256",
                  "name": "end",
                  "type": "uint256"
                },
                {
                  "components": [
                    {
                      "internalType": "address",
                      "name": "receiver",
                      "type": "address"
                    },
                    {
                      "internalType": "uint256",
                      "name": "amount",
                      "type": "uint256"
                    }
                  ],
                  "internalType": "struct LibOrder.Fee",
                  "name": "originFee",
                  "type": "tuple"
                },
                {
                  "components": [
                    {
                      "internalType": "address",
                      "name": "receiver",
                      "type": "address"
                    },
                    {
                      "internalType": "uint256",
                      "name": "amount",
                      "type": "uint256"
                    }
                  ],
                  "internalType": "struct LibOrder.Fee",
                  "name": "royaltyFee",
                  "type": "tuple"
                },
                {
                  "internalType": "bytes",
                  "name": "sig",
                  "type": "bytes"
                },
                {
                  "internalType": "bytes32",
                  "name": "root",
                  "type": "bytes32"
                },
                {
                  "internalType": "bytes32[]",
                  "name": "proof",
                  "type": "bytes32[]"
                },
                {
                  "internalType": "uint16",
                  "name": "index",
                  "type": "uint16"
                }
              ],
              "internalType": "struct LibOrder.Order",
              "name": "sellOrder",
              "type": "tuple"
            }
          ],
          "internalType": "struct LibDirectTransfer.AcceptBid",
          "name": "direct",
          "type": "tuple"
        }
      ],
      "name": "directAcceptBid",
      "outputs": [],
      "stateMutability": "payable",
      "type": "function"
    },
    {
      "inputs": [
        {
          "internalType": "bytes32",
          "name": "",
          "type": "bytes32"
        }
      ],
      "name": "fills",
      "outputs": [
        {
          "internalType": "uint256",
          "name": "",
          "type": "uint256"
        }
      ],
      "stateMutability": "view",
      "type": "function"
    },
    {
      "inputs": [
        {
          "internalType": "uint8",
          "name": "index",
          "type": "uint8"
        }
      ],
      "name": "getTransferProxy",
      "outputs": [
        {
          "internalType": "address",
          "name": "",
          "type": "address"
        }
      ],
      "stateMutability": "view",
      "type": "function"
    },
    {
      "inputs": [
        {
          "components": [
            {
              "internalType": "enum LibOrder.OrderType",
              "name": "orderType",
              "type": "uint8"
            },
            {
              "internalType": "address",
              "name": "maker",
              "type": "address"
            },
            {
              "components": [
                {
                  "internalType": "uint8",
                  "name": "assetType",
                  "type": "uint8"
                },
                {
                  "internalType": "address",
                  "name": "contractAddress",
                  "type": "address"
                },
                {
                  "internalType": "uint256",
                  "name": "value",
                  "type": "uint256"
                },
                {
                  "internalType": "uint256",
                  "name": "id",
                  "type": "uint256"
                }
              ],
              "internalType": "struct LibAsset.Asset",
              "name": "makeAsset",
              "type": "tuple"
            },
            {
              "internalType": "address",
              "name": "taker",
              "type": "address"
            },
            {
              "components": [
                {
                  "internalType": "uint8",
                  "name": "assetType",
                  "type": "uint8"
                },
                {
                  "internalType": "address",
                  "name": "contractAddress",
                  "type": "address"
                },
                {
                  "internalType": "uint256",
                  "name": "value",
                  "type": "uint256"
                },
                {
                  "internalType": "uint256",
                  "name": "id",
                  "type": "uint256"
                }
              ],
              "internalType": "struct LibAsset.Asset",
              "name": "takeAsset",
              "type": "tuple"
            },
            {
              "internalType": "uint256",
              "name": "salt",
              "type": "uint256"
            },
            {
              "internalType": "uint256",
              "name": "start",
              "type": "uint256"
            },
            {
              "internalType": "uint256",
              "name": "end",
              "type": "uint256"
            },
            {
              "components": [
                {
                  "internalType": "address",
                  "name": "receiver",
                  "type": "address"
                },
                {
                  "internalType": "uint256",
                  "name": "amount",
                  "type": "uint256"
                }
              ],
              "internalType": "struct LibOrder.Fee",
              "name": "originFee",
              "type": "tuple"
            },
            {
              "components": [
                {
                  "internalType": "address",
                  "name": "receiver",
                  "type": "address"
                },
                {
                  "internalType": "uint256",
                  "name": "amount",
                  "type": "uint256"
                }
              ],
              "internalType": "struct LibOrder.Fee",
              "name": "royaltyFee",
              "type": "tuple"
            },
            {
              "internalType": "bytes",
              "name": "sig",
              "type": "bytes"
            },
            {
              "internalType": "bytes32",
              "name": "root",
              "type": "bytes32"
            },
            {
              "internalType": "bytes32[]",
              "name": "proof",
              "type": "bytes32[]"
            },
            {
              "internalType": "uint16",
              "name": "index",
              "type": "uint16"
            }
          ],
          "internalType": "struct LibOrder.Order[]",
          "name": "orderLefts",
          "type": "tuple[]"
        },
        {
          "components": [
            {
              "internalType": "enum LibOrder.OrderType",
              "name": "orderType",
              "type": "uint8"
            },
            {
              "internalType": "address",
              "name": "maker",
              "type": "address"
            },
            {
              "components": [
                {
                  "internalType": "uint8",
                  "name": "assetType",
                  "type": "uint8"
                },
                {
                  "internalType": "address",
                  "name": "contractAddress",
                  "type": "address"
                },
                {
                  "internalType": "uint256",
                  "name": "value",
                  "type": "uint256"
                },
                {
                  "internalType": "uint256",
                  "name": "id",
                  "type": "uint256"
                }
              ],
              "internalType": "struct LibAsset.Asset",
              "name": "makeAsset",
              "type": "tuple"
            },
            {
              "internalType": "address",
              "name": "taker",
              "type": "address"
            },
            {
              "components": [
                {
                  "internalType": "uint8",
                  "name": "assetType",
                  "type": "uint8"
                },
                {
                  "internalType": "address",
                  "name": "contractAddress",
                  "type": "address"
                },
                {
                  "internalType": "uint256",
                  "name": "value",
                  "type": "uint256"
                },
                {
                  "internalType": "uint256",
                  "name": "id",
                  "type": "uint256"
                }
              ],
              "internalType": "struct LibAsset.Asset",
              "name": "takeAsset",
              "type": "tuple"
            },
            {
              "internalType": "uint256",
              "name": "salt",
              "type": "uint256"
            },
            {
              "internalType": "uint256",
              "name": "start",
              "type": "uint256"
            },
            {
              "internalType": "uint256",
              "name": "end",
              "type": "uint256"
            },
            {
              "components": [
                {
                  "internalType": "address",
                  "name": "receiver",
                  "type": "address"
                },
                {
                  "internalType": "uint256",
                  "name": "amount",
                  "type": "uint256"
                }
              ],
              "internalType": "struct LibOrder.Fee",
              "name": "originFee",
              "type": "tuple"
            },
            {
              "components": [
                {
                  "internalType": "address",
                  "name": "receiver",
                  "type": "address"
                },
                {
                  "internalType": "uint256",
                  "name": "amount",
                  "type": "uint256"
                }
              ],
              "internalType": "struct LibOrder.Fee",
              "name": "royaltyFee",
              "type": "tuple"
            },
            {
              "internalType": "bytes",
              "name": "sig",
              "type": "bytes"
            },
            {
              "internalType": "bytes32",
              "name": "root",
              "type": "bytes32"
            },
            {
              "internalType": "bytes32[]",
              "name": "proof",
              "type": "bytes32[]"
            },
            {
              "internalType": "uint16",
              "name": "index",
              "type": "uint16"
            }
          ],
          "internalType": "struct LibOrder.Order[]",
          "name": "orderRights",
          "type": "tuple[]"
        }
      ],
      "name": "matchOrders",
      "outputs": [],
      "stateMutability": "payable",
      "type": "function"
    },
    {
      "inputs": [],
      "name": "owner",
      "outputs": [
        {
          "internalType": "address",
          "name": "",
          "type": "address"
        }
      ],
      "stateMutability": "view",
      "type": "function"
    },
    {
      "inputs": [],
      "name": "protocolFee",
      "outputs": [
        {
          "internalType": "address",
          "name": "receiver",
          "type": "address"
        },
        {
          "internalType": "uint48",
          "name": "buyerAmount",
          "type": "uint48"
        },
        {
          "internalType": "uint48",
          "name": "sellerAmount",
          "type": "uint48"
        }
      ],
      "stateMutability": "view",
      "type": "function"
    },
    {
      "inputs": [],
      "name": "renounceOwnership",
      "outputs": [],
      "stateMutability": "nonpayable",
      "type": "function"
    },
    {
      "inputs": [],
      "name": "royaltiesRegistry",
      "outputs": [
        {
          "internalType": "contract IRoyaltiesProvider",
          "name": "",
          "type": "address"
        }
      ],
      "stateMutability": "view",
      "type": "function"
    },
    {
      "inputs": [
        {
          "internalType": "address",
          "name": "_receiver",
          "type": "address"
        },
        {
          "internalType": "uint48",
          "name": "_buyerAmount",
          "type": "uint48"
        },
        {
          "internalType": "uint48",
          "name": "_sellerAmount",
          "type": "uint48"
        }
      ],
      "name": "setAllProtocolFeeData",
      "outputs": [],
      "stateMutability": "nonpayable",
      "type": "function"
    },
    {
      "inputs": [
        {
          "internalType": "uint256",
          "name": "assetType",
          "type": "uint256"
        },
        {
          "internalType": "address",
          "name": "matcher",
          "type": "address"
        }
      ],
      "name": "setAssetMatcher",
      "outputs": [],
      "stateMutability": "nonpayable",
      "type": "function"
    },
    {
      "inputs": [
        {
          "internalType": "uint48",
          "name": "_buyerAmount",
          "type": "uint48"
        }
      ],
      "name": "setPrtocolFeeBuyerAmount",
      "outputs": [],
      "stateMutability": "nonpayable",
      "type": "function"
    },
    {
      "inputs": [
        {
          "internalType": "address",
          "name": "_receiver",
          "type": "address"
        }
      ],
      "name": "setPrtocolFeeReceiver",
      "outputs": [],
      "stateMutability": "nonpayable",
      "type": "function"
    },
    {
      "inputs": [
        {
          "internalType": "uint48",
          "name": "_sellerAmount",
          "type": "uint48"
        }
      ],
      "name": "setPrtocolFeeSellerAmount",
      "outputs": [],
      "stateMutability": "nonpayable",
      "type": "function"
    },
    {
      "inputs": [
        {
          "internalType": "contract IRoyaltiesProvider",
          "name": "newRoyaltiesRegistry",
          "type": "address"
        }
      ],
      "name": "setRoyaltiesRegistry",
      "outputs": [],
      "stateMutability": "nonpayable",
      "type": "function"
    },
    {
      "inputs": [
        {
          "internalType": "uint8",
          "name": "index",
          "type": "uint8"
        },
        {
          "internalType": "address",
          "name": "proxy",
          "type": "address"
        }
      ],
      "name": "setTransferProxy",
      "outputs": [],
      "stateMutability": "nonpayable",
      "type": "function"
    },
    {
      "inputs": [
        {
          "internalType": "address",
          "name": "newOwner",
          "type": "address"
        }
      ],
      "name": "transferOwnership",
      "outputs": [],
      "stateMutability": "nonpayable",
      "type": "function"
    },
    {
      "inputs": [
        {
          "internalType": "bytes32",
          "name": "root",
          "type": "bytes32"
        },
        {
          "internalType": "bytes32[]",
          "name": "proof",
          "type": "bytes32[]"
        },
        {
          "components": [
            {
              "internalType": "enum LibOrder.OrderType",
              "name": "orderType",
              "type": "uint8"
            },
            {
              "internalType": "address",
              "name": "maker",
              "type": "address"
            },
            {
              "components": [
                {
                  "internalType": "uint8",
                  "name": "assetType",
                  "type": "uint8"
                },
                {
                  "internalType": "address",
                  "name": "contractAddress",
                  "type": "address"
                },
                {
                  "internalType": "uint256",
                  "name": "value",
                  "type": "uint256"
                },
                {
                  "internalType": "uint256",
                  "name": "id",
                  "type": "uint256"
                }
              ],
              "internalType": "struct LibAsset.Asset",
              "name": "makeAsset",
              "type": "tuple"
            },
            {
              "internalType": "address",
              "name": "taker",
              "type": "address"
            },
            {
              "components": [
                {
                  "internalType": "uint8",
                  "name": "assetType",
                  "type": "uint8"
                },
                {
                  "internalType": "address",
                  "name": "contractAddress",
                  "type": "address"
                },
                {
                  "internalType": "uint256",
                  "name": "value",
                  "type": "uint256"
                },
                {
                  "internalType": "uint256",
                  "name": "id",
                  "type": "uint256"
                }
              ],
              "internalType": "struct LibAsset.Asset",
              "name": "takeAsset",
              "type": "tuple"
            },
            {
              "internalType": "uint256",
              "name": "salt",
              "type": "uint256"
            },
            {
              "internalType": "uint256",
              "name": "start",
              "type": "uint256"
            },
            {
              "internalType": "uint256",
              "name": "end",
              "type": "uint256"
            },
            {
              "components": [
                {
                  "internalType": "address",
                  "name": "receiver",
                  "type": "address"
                },
                {
                  "internalType": "uint256",
                  "name": "amount",
                  "type": "uint256"
                }
              ],
              "internalType": "struct LibOrder.Fee",
              "name": "originFee",
              "type": "tuple"
            },
            {
              "components": [
                {
                  "internalType": "address",
                  "name": "receiver",
                  "type": "address"
                },
                {
                  "internalType": "uint256",
                  "name": "amount",
                  "type": "uint256"
                }
              ],
              "internalType": "struct LibOrder.Fee",
              "name": "royaltyFee",
              "type": "tuple"
            },
            {
              "internalType": "bytes",
              "name": "sig",
              "type": "bytes"
            },
            {
              "internalType": "bytes32",
              "name": "root",
              "type": "bytes32"
            },
            {
              "internalType": "bytes32[]",
              "name": "proof",
              "type": "bytes32[]"
            },
            {
              "internalType": "uint16",
              "name": "index",
              "type": "uint16"
            }
          ],
          "internalType": "struct LibOrder.Order",
          "name": "order",
          "type": "tuple"
        }
      ],
      "name": "validateListing",
      "outputs": [
        {
          "internalType": "bool",
          "name": "isValid",
          "type": "bool"
        }
      ],
      "stateMutability": "pure",
      "type": "function"
    }
  ],
  "bytecode": "0x60806040526275327560e81b60c955603160f81b60ca55600061012f553480156200002957600080fd5b50603380546001600160a01b03191633179055620000466200004c565b6200024d565b600054610100900460ff16806200006857506200006862000130565b8062000077575060005460ff16155b6200009f5760405162461bcd60e51b81526004016200009690620001ff565b60405180910390fd5b600054610100900460ff16158015620000cb576000805460ff1961ff0019909116610100171660011790555b6200011a6040518060400160405280600c81526020016b5837323145786368616e676560a01b815250604051806040016040528060018152602001603160f81b8152506200014e60201b60201c565b80156200012d576000805461ff00191690555b50565b60006200014830620001f960201b62000f281760201c565b15905090565b600054610100900460ff16806200016a57506200016a62000130565b8062000179575060005460ff16155b620001985760405162461bcd60e51b81526004016200009690620001ff565b600054610100900460ff16158015620001c4576000805460ff1961ff0019909116610100171660011790555b825160208085019190912083519184019190912060c99190915560ca558015620001f4576000805461ff00191690555b505050565b3b151590565b6020808252602e908201527f496e697469616c697a61626c653a20636f6e747261637420697320616c72656160408201526d191e481a5b9a5d1a585b1a5e995960921b606082015260800190565b613f25806200025d6000396000f3fe60806040526004361061012a5760003560e01c8063b0e21e8a116100ab578063c648a6871161006f578063c648a6871461030c578063d362d3ff1461032c578063d6ca6ab71461034c578063eae3ad6f1461036c578063f2fde38b1461038c578063faa2cc7c146103ac5761012a565b8063b0e21e8a14610273578063b2bdfa7b14610297578063b36c9b29146102ac578063b74c8e9a146102cc578063bc158c2d146102ec5761012a565b80634cfe4cd8116100f25780634cfe4cd8146101e75780636d8f069414610207578063715018a6146102295780638b42af3e1461023e5780638da5cb5b1461025e5761012a565b80631372a6251461012f57806320158c441461015157806333033608146101875780633be899221461019a5780633e2d95ff146101ba575b600080fd5b34801561013b57600080fd5b5061014f61014a366004612fca565b6103bf565b005b34801561015d57600080fd5b5061017161016c3660046130f6565b610475565b60405161017e9190613526565b60405180910390f35b61014f610195366004613178565b610488565b3480156101a657600080fd5b5061014f6101b5366004612fae565b610600565b3480156101c657600080fd5b506101da6101d536600461310e565b610662565b60405161017e919061351b565b3480156101f357600080fd5b5061014f6102023660046132d6565b610684565b34801561021357600080fd5b5061021c61072a565b60405161017e91906133f1565b34801561023557600080fd5b5061014f61073a565b34801561024a57600080fd5b5061014f61025936600461321e565b6107c3565b34801561026a57600080fd5b5061021c6108bc565b34801561027f57600080fd5b506102886108cb565b60405161017e939291906134f2565b3480156102a357600080fd5b5061021c6108f6565b3480156102b857600080fd5b5061021c6102c73660046132ba565b610905565b3480156102d857600080fd5b5061014f6102e7366004613031565b610927565b3480156102f857600080fd5b5061014f610307366004612fae565b610986565b34801561031857600080fd5b5061014f610327366004613271565b610a30565b34801561033857600080fd5b5061014f61034736600461321e565b610ac8565b34801561035857600080fd5b5061014f6103673660046132a0565b610b83565b34801561037857600080fd5b5061014f6103873660046132a0565b610c3a565b34801561039857600080fd5b5061014f6103a7366004612fae565b610cee565b61014f6103ba366004613075565b610daf565b600054610100900460ff16806103d857506103d8610f2e565b806103e6575060005460ff16155b61040b5760405162461bcd60e51b815260040161040290613a66565b60405180910390fd5b600054610100900460ff16158015610436576000805460ff1961ff0019909116610100171660011790555b61043e610f3f565b610446610fc2565b610450868661109c565b61045b848484611140565b801561046d576000805461ff00191690555b505050505050565b6101306020526000908152604090205481565b60006104948280613e3b565b61049d90613e93565b905060006104ae6020840184613e3b565b6104b790613e93565b6080830151604090810151818301519091015191925090818111156104ee5760405162461bcd60e51b815260040161040290613c8b565b6104fd848561014001516111e2565b61050c838461014001516111e2565b6000828560400151604001518161051f57fe5b049050600082820290508560400151604001518111156105515760405162461bcd60e51b8152600401610402906138a7565b604080870151810182905260808088015182018590526020808801516001600160a01b0390811660608b01528884015184018890529188015183018490528089015190911660009081526101319091528181206101408901519251919290916105ba919061335e565b90815260408051602092819003830190206101a08a015161ffff166000908152925290205490506105eb86886111f9565b6105f6868883611333565b5050505050505050565b6106086114bd565b6001600160a01b03166106196108bc565b6001600160a01b03161461063f5760405162461bcd60e51b815260040161040290613b2d565b61016480546001600160a01b0319166001600160a01b0392909216919091179055565b60008061066e836114c1565b905061067b848683611538565b95945050505050565b61068c6114bd565b6001600160a01b031661069d6108bc565b6001600160a01b0316146106c35760405162461bcd60e51b815260040161040290613b2d565b60ff82166000818152609760205260409081902080546001600160a01b0319166001600160a01b038516179055517f8edda873a8ad561ecebeb71ceb3ae6bcb70c2b76a3fcb869859895c4d4fc74169061071e9084906133f1565b60405180910390a25050565b610164546001600160a01b031681565b6107426114bd565b6001600160a01b03166107536108bc565b6001600160a01b0316146107795760405162461bcd60e51b815260040161040290613b2d565b6033546040516000916001600160a01b0316907f8be0079c531659141344cd1fd0a4f28419497f9722a3daafe3b4186f6b6457e0908390a3603380546001600160a01b0319169055565b80602001516001600160a01b03166107d96114bd565b6001600160a01b0316146107ff5760405162461bcd60e51b815260040161040290613d39565b80604001516040015161013160006108156114bd565b6001600160a01b03166001600160a01b03168152602001908152602001600020826101400151604051610848919061335e565b90815260408051602092819003830190206101a085015161ffff16600090815292529020557f86f8a270a95f47ad48690dd66eda181ea3d229312582e7d222c11e24f39947d06108966114bd565b826101400151836101a001516040516108b193929190613405565b60405180910390a150565b6033546001600160a01b031690565b610163546001600160a01b0381169065ffffffffffff600160a01b8204811691600160d01b90041683565b6033546001600160a01b031681565b60ff81166000908152609760205260409020546001600160a01b03165b919050565b61092f6114bd565b6001600160a01b03166109406108bc565b6001600160a01b0316146109665760405162461bcd60e51b815260040161040290613b2d565b61096f83610986565b61097882610b83565b61098181610c3a565b505050565b61098e6114bd565b6001600160a01b031661099f6108bc565b6001600160a01b0316146109c55760405162461bcd60e51b815260040161040290613b2d565b610163546040517fa4b009cc442411b602eaf94bc0579b6abdb8fd90b4ef5b9426e270038906bd0391610a05916001600160a01b0390911690849061343d565b60405180910390a161016380546001600160a01b0319166001600160a01b0392909216919091179055565b610a386114bd565b6001600160a01b0316610a496108bc565b6001600160a01b031614610a6f5760405162461bcd60e51b815260040161040290613b2d565b6000828152606560205260409081902080546001600160a01b0319166001600160a01b0384161790555182907f58204093ed36d15d7f2a89fdaca20c53f1e02a2ce5686ace9247d1b96e9ec67b9061071e9084906133f1565b80602001516001600160a01b0316610ade6114bd565b6001600160a01b031614610b045760405162461bcd60e51b815260040161040290613d39565b60a0810151610b255760405162461bcd60e51b815260040161040290613842565b6000610b3082611550565b60008181526101306020526040908190206000199055519091507fe8d9861dbc9c663ed3accd261bbe2fe01e0d3d9e5f51fa38523b265c7757a93a90610b77908390613526565b60405180910390a15050565b610b8b6114bd565b6001600160a01b0316610b9c6108bc565b6001600160a01b031614610bc25760405162461bcd60e51b815260040161040290613b2d565b610163546040517f70bba4f904a93ba5c1af3a1bb602bc9c058551dbe963dfe0b6cb5bc11c5fea9e91610c0791600160a01b90910465ffffffffffff16908490613e0f565b60405180910390a1610163805465ffffffffffff909216600160a01b0265ffffffffffff60a01b19909216919091179055565b610c426114bd565b6001600160a01b0316610c536108bc565b6001600160a01b031614610c795760405162461bcd60e51b815260040161040290613b2d565b610163546040517fa8af9093caa9beb61d20432227c66258ceef926f21879b80f3adf22a4d19f13191610cbe91600160d01b90910465ffffffffffff16908490613e0f565b60405180910390a1610163805465ffffffffffff909216600160d01b026001600160d01b03909216919091179055565b610cf66114bd565b6001600160a01b0316610d076108bc565b6001600160a01b031614610d2d5760405162461bcd60e51b815260040161040290613b2d565b6001600160a01b038116610d535760405162461bcd60e51b8152600401610402906137c5565b6033546040516001600160a01b038084169216907f8be0079c531659141344cd1fd0a4f28419497f9722a3daafe3b4186f6b6457e090600090a3603380546001600160a01b0319166001600160a01b0392909216919091179055565b8051825114610dd05760405162461bcd60e51b815260040161040290613900565b60005b8251811015610981576000838281518110610dea57fe5b602002602001015190506000838381518110610e0257fe5b602002602001015190506000610131600084602001516001600160a01b03166001600160a01b03168152602001908152602001600020836101400151604051610e4b919061335e565b90815260408051602092819003830190206101a086015161ffff16600090815292529020549050600183516003811115610e8157fe5b1415610eb857610e9c83610160015184610180015185610662565b610eb85760405162461bcd60e51b815260040161040290613d10565b600182516003811115610ec757fe5b1415610efe57610ee282610160015183610180015184610662565b610efe5760405162461bcd60e51b815260040161040290613d10565b610f0883836111f9565b610f128383611589565b610f1d838383611333565b505050600101610dd3565b3b151590565b6000610f3930610f28565b15905090565b600054610100900460ff1680610f585750610f58610f2e565b80610f66575060005460ff16155b610f825760405162461bcd60e51b815260040161040290613a66565b600054610100900460ff16158015610fad576000805460ff1961ff0019909116610100171660011790555b8015610fbf576000805461ff00191690555b50565b600054610100900460ff1680610fdb5750610fdb610f2e565b80610fe9575060005460ff16155b6110055760405162461bcd60e51b815260040161040290613a66565b600054610100900460ff16158015611030576000805460ff1961ff0019909116610100171660011790555b600061103a6114bd565b603380546001600160a01b0319166001600160a01b038316908117909155604051919250906000907f8be0079c531659141344cd1fd0a4f28419497f9722a3daafe3b4186f6b6457e0908290a3508015610fbf576000805461ff001916905550565b60976020527fd6ca216b3b8b63bcc0099d5c8294d1780d598ac9b3a29b15c3c3e68c85f6e30c80546001600160a01b039283166001600160a01b0319918216179091557f017b8d24b2a0f404d68a0b2abb80fd2d4d2105d3355f1fc48a1949fe7fce12e5805493909216928116831790915560046000527ff6fe0582e0e323a551f456b66350a1ed549948a34fdd35be011d229e00171c1f80549091169091179055565b600054610100900460ff16806111595750611159610f2e565b80611167575060005460ff16155b6111835760405162461bcd60e51b815260040161040290613a66565b600054610100900460ff161580156111ae576000805460ff1961ff0019909116610100171660011790555b61016480546001600160a01b0319166001600160a01b03841617905580156111dc576000805461ff00191690555b50505050565b6111eb82611956565b6111f582826119b6565b5050565b6020808301516001600160a01b0316600090815261013190915260408082206101408501519151909161122b9161335e565b90815260200160405180910390206000846101a0015161ffff1661ffff16815260200190815260200160002054905082604001516000015160ff16600314156112ed57610131600084602001516001600160a01b03166001600160a01b031681526020019081526020016000208361014001516040516112ab919061335e565b90815260408051602092819003830190206101a086015161ffff1660009081529252902054156112ed5760405162461bcd60e51b815260040161040290613b91565b82604001516000015160ff166004141561098157816080015160400151810183604001516040015110156109815760405162461bcd60e51b815260040161040290613870565b600080611341858585611b1a565b9150915061135185858484611ba0565b600060028651600381111561136257fe5b1461136d578561136f565b845b90506000856080015160400151610131600084602001516001600160a01b03166001600160a01b031681526020019081526020016000208361014001516040516113b9919061335e565b90815260408051602092819003830181206101a087015161ffff16600090815290845282812054878501516001600160a01b031682526101319094529190912061014086015193909201935083926114109161335e565b90815260200160405180910390206000846101a0015161ffff1661ffff168152602001908152602001600020819055507fa49e31994a96dc315540d6ff9e29428418addfa28f6ffcc73ddad3528e40ddc1876000015188602001518860200151856101400151866101a001518b60800151604001518c608001516060015188611497611fa3565b6040516114ac999897969594939291906136b2565b60405180910390a150505050505050565b3390565b6101a081015160208083015160408085015180840151606080830151838501519351828a015160808b0151808a015194810151818901519151985160009c61151b9c909b9a98999698969795969495949293929101613daa565b604051602081830303815290604052805190602001209050919050565b6000826115458584611fe3565b1490505b9392505050565b600081602001516115648360400151612022565b6115718460800151612022565b8460a0015160405160200161151b94939291906134b3565b611598828361014001516111e2565b6115a7818261014001516111e2565b60608201516001600160a01b0316156115f35781606001516001600160a01b031681602001516001600160a01b0316146115f35760405162461bcd60e51b815260040161040290613ccd565b60608101516001600160a01b03161561163f5781602001516001600160a01b031681606001516001600160a01b03161461163f5760405162461bcd60e51b815260040161040290613984565b81604001516000015160ff1660031480611664575081604001516000015160ff166004145b1561178a5760808181015160409081015191840151810151908301515160009060ff16600214611694573461169e565b8360400151604001515b905083604001516000015160ff16600214156117645760008460400151602001516001600160a01b03166370a0823186602001516040518263ffffffff1660e01b81526004016116ee91906133f1565b60206040518083038186803b15801561170657600080fd5b505afa15801561171a573d6000803e3d6000fd5b505050506040513d601f19601f8201168201806040525081019061173e9190613259565b90508284028110156117625760405162461bcd60e51b815260040161040290613bf4565b505b8082840211156117865760405162461bcd60e51b815260040161040290613c2b565b5050505b80604001516000015160ff16600314806117af575080604001516000015160ff166004145b156111f55760808281015160409081015191830151810151908401515160009060ff166002146117df5734611867565b8460400151602001516001600160a01b03166370a0823186602001516040518263ffffffff1660e01b815260040161181791906133f1565b60206040518083038186803b15801561182f57600080fd5b505afa158015611843573d6000803e3d6000fd5b505050506040513d601f19601f820116820180604052508101906118679190613259565b905084604001516000015160ff166002141561192d5760008560400151602001516001600160a01b03166370a0823187602001516040518263ffffffff1660e01b81526004016118b791906133f1565b60206040518083038186803b1580156118cf57600080fd5b505afa1580156118e3573d6000803e3d6000fd5b505050506040513d601f19601f820116820180604052508101906119079190613259565b905082840281101561192b5760405162461bcd60e51b815260040161040290613bf4565b505b80828402111561194f5760405162461bcd60e51b815260040161040290613c2b565b5050505050565b60c0810151158061196a5750428160c00151105b6119865760405162461bcd60e51b815260040161040290613ab4565b60e0810151158061199a5750428160e00151115b610fbf5760405162461bcd60e51b81526004016104029061380b565b60a0820151611a185760208201516001600160a01b0316158015906119f7575081602001516001600160a01b03166119ec6114bd565b6001600160a01b0316145b611a135760405162461bcd60e51b815260040161040290613a36565b6111f5565b60008083516003811115611a2857fe5b1480611a405750600283516003811115611a3e57fe5b145b15611a5557611a4e8361203f565b9050611a85565b600383516003811115611a6457fe5b1415611a7357611a4e836120b3565b611a82838461016001516120fa565b90505b82602001516001600160a01b0316611a9b6114bd565b6001600160a01b0316146109815782602001516001600160a01b0316611aca83611ac484612159565b90612175565b6001600160a01b031614611af05760405162461bcd60e51b8152600401610402906139c8565b60208301516001600160a01b03166109815760405162461bcd60e51b8152600401610402906138de565b611b22612c19565b611b2a612c19565b611b3d85604001518560800151856121c0565b805190925060ff16611b615760405162461bcd60e51b815260040161040290613bc8565b611b7485608001518560400151856121c0565b805190915060ff16611b985760405162461bcd60e51b815260040161040290613bc8565b935093915050565b6040805160808082018352848252845160ff908116600090815260976020818152868320546001600160a01b03908116828801528b820180518216888a01528b8301805183166060808b01919091528a519889018b528b89528b519097168652938352938890205481169186019190915290518116958401959095525190931692810192909252611c3091612201565b5050806000015160ff1660011480611c4f5750806000015160ff166002145b15611dfb57805160408501515160ff90811691161415611c6e57600080fd5b60006127108561010001516020015183604001510281611c8a57fe5b04905060006127108661012001516020015184604001510281611ca957fe5b04905060008183856040015103039050611d356040518060800160405280866000015160ff16815260200186602001516001600160a01b0316815260200183815260200186606001518152508760200151896020015160976000896000015160ff1660ff16815260200190815260200160002060009054906101000a90046001600160a01b031661228c565b60408051608081018252855160ff90811682526020808801516001600160a01b03908116828501528385018890526060808a0151908501528a82015189519093166000908152609790925293902054611d909330911661228c565b60408051608081018252855160ff90811682526020808801516001600160a01b03908116828501528385018790526060808a0151908501528a8201516101208d0151518a51909416600090815260979093529490912054611df39492911661228c565b5050506111dc565b815160408401515160ff90811691161415611e1557600080fd5b60006127108461010001516020015184604001510281611e3157fe5b04905060006127108561012001516020015185604001510281611e5057fe5b04905060008183866040015103039050611edc6040518060800160405280876000015160ff16815260200187602001516001600160a01b03168152602001838152602001876060015181525088602001518860200151609760008a6000015160ff1660ff16815260200190815260200160002060009054906101000a90046001600160a01b031661228c565b60408051608081018252865160ff90811682526020808901516001600160a01b03908116828501528385018890526060808b0151908501528b8201518a519093166000908152609790925293902054611f379330911661228c565b60408051608081018252865160ff90811682526020808901516001600160a01b03908116828501528385018790526060808b0151908501528b8201516101208c0151518b51909416600090815260979093529490912054611f9a9492911661228c565b50505050505050565b61012f805460010190819055604051600091611fc591429133916020016133c9565b6040516020818303038152906040528051906020012060001c905090565b600081815b84518110156120185761200e8286838151811061200157fe5b60200260200101516125e9565b9150600101611fe8565b5090505b92915050565b60008160000151826040015160405160200161151b929190613e28565b60007f1132f06ab722f27908a7e495b5d507bad407e55f68dcf746f8d69417e3f1928c8260200151612074846040015161260b565b8460600151612086866080015161260b565b8660a001518760c001518860e00151896101a0015160405160200161151b9998979695949392919061352f565b60007f1ed8993288c7297ba6796429de1857dc650efa21a30299103497824fa02ba34382602001516120e8846040015161260b565b84606001516120868660800151612656565b60007f15fed0d06db788fb9c02b4f593bd4adff95588d2736481b94a54a44275fae9fc8360200151838560a0015160405160200161213b9493929190613581565b60405160208183030381529060405280519060200120905092915050565b600061216361269b565b8260405160200161151b9291906133ab565b600081516041146121985760405162461bcd60e51b81526004016104029061378e565b60208201516040830151606084015160001a6121b6868285856126db565b9695505050505050565b6121c8612c19565b60006121d585858561286c565b9050806000015160ff16600114156121fa576121f284868561286c565b915050611549565b9050611549565b8151604080820151835190910151915190919060ff166003148061222a575083515160ff166004145b1561224b5761224b846000015185604001518660600151876020015161228c565b82515160ff1660031480612264575082515160ff166004145b1561228557612285836000015184604001518560600151866020015161228c565b9250929050565b836000015160ff16600314156123b15783604001516001146122c05760405162461bcd60e51b815260040161040290613a0a565b6001600160a01b0383163014156123415760208401516060850151604051632142170760e11b81526001600160a01b03909216916342842e0e9161230a9130918791600401613457565b600060405180830381600087803b15801561232457600080fd5b505af1158015612338573d6000803e3d6000fd5b505050506123ac565b60208401516060850151604051637b84dc8360e11b81526001600160a01b0384169263f709b906926123799288918891600401613688565b600060405180830381600087803b15801561239357600080fd5b505af11580156123a7573d6000803e3d6000fd5b505050505b6111dc565b836000015160ff16600214156124b3576001600160a01b03831630141561247b5783602001516001600160a01b031663a9059cbb8386604001516040518363ffffffff1660e01b81526004016124089291906134d9565b602060405180830381600087803b15801561242257600080fd5b505af1158015612436573d6000803e3d6000fd5b505050506040513d601f19601f8201168201806040525081019061245a91906130d6565b6124765760405162461bcd60e51b815260040161040290613b62565b6123ac565b6020840151604080860151905163776062c360e01b81526001600160a01b0384169263776062c3926123799288918891600401613688565b836000015160ff1660041415612552576001600160a01b0383163014156125125783602001516001600160a01b031663f242432a3084876060015188604001516040518563ffffffff1660e01b815260040161230a949392919061347b565b602084015160608501516040808701519051639c1c2ee960e01b81526001600160a01b03851693639c1c2ee9936123799391928992899291600401613645565b836000015160ff166001141561258b576001600160a01b03821630146123ac5760408401516123ac906001600160a01b03841690612a39565b604051632571282360e21b81526001600160a01b038216906395c4a08c906125bb90879087908790600401613d5e565b600060405180830381600087803b1580156125d557600080fd5b505af11580156105f6573d6000803e3d6000fd5b6000818310612601576125fc8284612ab5565b611549565b6115498383612ab5565b60007f3eb30932c8579e044a08d6c2db9cfbbe826c3c715d5f913a07fdb3b62620fc2c826000015183602001518460400151856060015160405160200161151b9594939291906135f8565b60007f41de7d6f279b5bdc25bb5bd3ccb732106044c7be8050d6927da35e2210c6000b82600001518360200151846040015160405160200161151b94939291906135d1565b60006126d67f8b73c3c69bb8fe3d512ecc4cf759cc79239f7b179b0ffacaa9a75d522b39400f6126c9612ac4565b6126d1612aca565b612ad0565b905090565b60007f7fffffffffffffffffffffffffffffff5d576e7357a4501ddfe92f46681b20a082111561271d5760405162461bcd60e51b815260040161040290613942565b6000601e8560ff1611156127c3576004850360ff16601b148061274657506004850360ff16601c145b6127625760405162461bcd60e51b815260040161040290613aeb565b600161276d87612b11565b600487038686604051600081526020016040526040516127909493929190613627565b6020604051602081039080840390855afa1580156127b2573d6000803e3d6000fd5b505050602060405103519050612846565b8460ff16601b14806127d857508460ff16601c145b6127f45760405162461bcd60e51b815260040161040290613aeb565b600186868686604051600081526020016040526040516128179493929190613627565b6020604051602081039080840390855afa158015612839573d6000803e3d6000fd5b5050506020604051035190505b6001600160a01b03811661067b5760405162461bcd60e51b815260040161040290613720565b612874612c19565b600080856000015160ff16600114156128d357846000015160ff16600114156128a1578592505050611549565b60408051608081018252600081526001600160a01b039092166020830152810182905260608101919091529050611549565b856000015160ff166002141561290657846000015160ff16600214156128a1576128fd8686612b24565b92505050611549565b856000015160ff166003141561293057846000015160ff16600314156128a1576128fd8686612b24565b856000015160ff166004141561295b57846000015160ff16600414156128a1576128fd868686612b95565b855160ff166000908152606560205260409020546001600160a01b03168015612a0657604051638dc614ff60e01b81526001600160a01b03821690638dc614ff906129ac908a908a90600401613d8e565b60806040518083038186803b1580156129c457600080fd5b505afa1580156129d8573d6000803e3d6000fd5b505050506040513d601f19601f820116820180604052508101906129fc91906131b0565b9350505050611549565b8551875160ff90811691161415612a21576129fc8787612b24565b60405162461bcd60e51b815260040161040290613757565b6000826001600160a01b031682604051612a52906133c6565b60006040518083038185875af1925050503d8060008114612a8f576040519150601f19603f3d011682016040523d82523d6000602084013e612a94565b606091505b50509050806109815760405162461bcd60e51b815260040161040290613c62565b60009182526020526040902090565b60c95490565b60ca5490565b6000838383612add612c15565b30604051602001612af29594939291906135a5565b6040516020818303038152906040528051906020012090509392505050565b60008160405160200161151b919061337a565b612b2c612c19565b600080836000015160ff16856000015160ff16148015612b53575083604001518560400151145b15612b6257849250505061201c565b60408051608081018252600181526001600160a01b03909216602083015281018290526060810191909152905092915050565b612b9d612c19565b600080856000015160ff1660041415612be1578451865160ff9081169116148015612bd2575084604001518401866040015110155b15612be1578492505050611549565b60408051608081018252600081526001600160a01b0390921660208301528101829052606081019190915290509392505050565b4690565b6040518060800160405280600060ff16815260200160006001600160a01b0316815260200160008152602001600081525090565b803561092281613ecb565b600082601f830112612c68578081fd5b81356020612c7d612c7883613e75565b613e51565b8281528181019085830183850287018401881015612c99578586fd5b855b85811015612cb757813584529284019290840190600101612c9b565b5090979650505050505050565b600082601f830112612cd4578081fd5b81356020612ce4612c7883613e75565b82815281810190858301855b85811015612cb757612d07898684358b0101612e50565b84529284019290840190600101612cf0565b600082601f830112612d29578081fd5b813567ffffffffffffffff811115612d3d57fe5b612d50601f8201601f1916602001613e51565b818152846020838601011115612d64578283fd5b816020850160208301379081016020019190915292915050565b80356004811061092257600080fd5b600060808284031215612d9e578081fd5b6040516080810181811067ffffffffffffffff82111715612dbb57fe5b6040529050808235612dcc81613ee0565b81526020830135612ddc81613ecb565b8060208301525060408301356040820152606083013560608201525092915050565b600060408284031215612e0f578081fd5b6040516040810181811067ffffffffffffffff82111715612e2c57fe5b6040529050808235612e3d81613ecb565b8152602092830135920191909152919050565b60006102c08284031215612e62578081fd5b6101c0612e6e81613e51565b9150612e7983612d7e565b8252612e8760208401612c4d565b6020830152612e998460408501612d8d565b6040830152612eaa60c08401612c4d565b6060830152612ebc8460e08501612d8d565b60808301526101608084013560a08401526101808085013560c08501526101a08086013560e0860152612ef187858801612dfe565b610100860152612f05876102008801612dfe565b610120860152610240860135935067ffffffffffffffff80851115612f2957600080fd5b612f3588868901612d19565b61014087015261026087013584870152610280870135945080851115612f5a57600080fd5b50612f6787858801612c58565b82860152612f786102a08701612f86565b818601525050505092915050565b803561ffff8116811461092257600080fd5b803565ffffffffffff8116811461092257600080fd5b600060208284031215612fbf578081fd5b813561154981613ecb565b600080600080600060a08688031215612fe1578081fd5b8535612fec81613ecb565b94506020860135612ffc81613ecb565b935060408601359250606086013561301381613ecb565b9150608086013561302381613ecb565b809150509295509295909350565b600080600060608486031215613045578081fd5b833561305081613ecb565b925061305e60208501612f98565b915061306c60408501612f98565b90509250925092565b60008060408385031215613087578182fd5b823567ffffffffffffffff8082111561309e578384fd5b6130aa86838701612cc4565b935060208501359150808211156130bf578283fd5b506130cc85828601612cc4565b9150509250929050565b6000602082840312156130e7578081fd5b81518015158114611549578182fd5b600060208284031215613107578081fd5b5035919050565b600080600060608486031215613122578081fd5b83359250602084013567ffffffffffffffff80821115613140578283fd5b61314c87838801612c58565b93506040860135915080821115613161578283fd5b5061316e86828701612e50565b9150509250925092565b600060208284031215613189578081fd5b813567ffffffffffffffff81111561319f578182fd5b820160408185031215611549578182fd5b6000608082840312156131c1578081fd5b6040516080810181811067ffffffffffffffff821117156131de57fe5b60405282516131ec81613ee0565b815260208301516131fc81613ecb565b6020820152604083810151908201526060928301519281019290925250919050565b60006020828403121561322f578081fd5b813567ffffffffffffffff811115613245578182fd5b61325184828501612e50565b949350505050565b60006020828403121561326a578081fd5b5051919050565b60008060408385031215613283578182fd5b82359150602083013561329581613ecb565b809150509250929050565b6000602082840312156132b1578081fd5b61154982612f98565b6000602082840312156132cb578081fd5b813561154981613ee0565b600080604083850312156132e8578182fd5b82356132f381613ee0565b9150602083013561329581613ecb565b6000815180845261331b816020860160208601613e9f565b601f01601f19169290920160200192915050565b805160ff1682526020808201516001600160a01b03169083015260408082015190830152606090810151910152565b60008251613370818460208701613e9f565b9190910192915050565b7f19457468657265756d205369676e6564204d6573736167653a0a3332000000008152601c810191909152603c0190565b61190160f01b81526002810192909252602282015260420190565b90565b92835260609190911b6bffffffffffffffffffffffff19166020830152603482015260540190565b6001600160a01b0391909116815260200190565b6001600160a01b038416815260606020820181905260009061342990830185613303565b905061ffff83166040830152949350505050565b6001600160a01b0392831681529116602082015260400190565b6001600160a01b039384168152919092166020820152604081019190915260600190565b6001600160a01b0394851681529290931660208301526040820152606081019190915260a06080820181905260009082015260c00190565b6001600160a01b0394909416845260208401929092526040830152606082015260800190565b6001600160a01b03929092168252602082015260400190565b6001600160a01b0393909316835265ffffffffffff918216602084015216604082015260600190565b901515815260200190565b90815260200190565b9889526001600160a01b0397881660208a01526040890196909652939095166060870152608086019190915260a085015260c084019290925260e083019190915261ffff166101008201526101200190565b9384526001600160a01b039290921660208401526040830152606082015260800190565b9485526020850193909352604084019190915260608301526001600160a01b0316608082015260a00190565b93845260ff9290921660208401526001600160a01b03166040830152606082015260800190565b94855260ff9390931660208501526001600160a01b039190911660408401526060830152608082015260a00190565b93845260ff9290921660208401526040830152606082015260800190565b6001600160a01b03958616815293851660208501529190931660408301526060820192909252608081019190915260c060a0820181905260009082015260e00190565b6001600160a01b039485168152928416602084015292166040820152606081019190915260800190565b600061012060048c106136c157fe5b8b83526001600160a01b038b811660208501528a166040840152606083018190526136ee8184018a613303565b61ffff989098166080840152505060a081019490945260c084019290925260e083015261010090910152949350505050565b60208082526018908201527f45434453413a20696e76616c6964207369676e61747572650000000000000000604082015260600190565b60208082526017908201527f6e6f7420666f756e64204941737365744d617463686572000000000000000000604082015260600190565b6020808252601f908201527f45434453413a20696e76616c6964207369676e6174757265206c656e67746800604082015260600190565b60208082526026908201527f4f776e61626c653a206e6577206f776e657220697320746865207a65726f206160408201526564647265737360d01b606082015260800190565b6020808252601b908201527f4f7264657220656e642076616c69646174696f6e206661696c65640000000000604082015260600190565b6020808252601490820152730c081cd85b1d0818d85b89dd081899481d5cd95960621b604082015260600190565b60208082526018908201527f4f7264657220686173206265656e2066756c66696c6c65640000000000000000604082015260600190565b6020808252601c908201527f426964204552432d323020616d6f756e74206e6f7420656e6f75676800000000604082015260600190565b60208082526008908201526737379036b0b5b2b960c11b604082015260600190565b60208082526022908201527f6c6566747320616e6420726967687473206c656e67746820646f6e74206d61746040820152610c6d60f31b606082015260800190565b60208082526022908201527f45434453413a20696e76616c6964207369676e6174757265202773272076616c604082015261756560f01b606082015260800190565b60208082526024908201527f72696768744f726465722e74616b657220766572696669636174696f6e2066616040820152631a5b195960e21b606082015260800190565b60208082526022908201527f6f72646572207369676e617475726520766572696669636174696f6e2065727260408201526137b960f11b606082015260800190565b60208082526012908201527132b9319b9918903b30b63ab29032b93937b960711b604082015260600190565b60208082526016908201527536b0b5b2b91034b9903737ba103a3c1039b2b73232b960511b604082015260600190565b6020808252602e908201527f496e697469616c697a61626c653a20636f6e747261637420697320616c72656160408201526d191e481a5b9a5d1a585b1a5e995960921b606082015260800190565b6020808252601d908201527f4f726465722073746172742076616c69646174696f6e206661696c6564000000604082015260600190565b60208082526022908201527f45434453413a20696e76616c6964207369676e6174757265202776272076616c604082015261756560f01b606082015260800190565b6020808252818101527f4f776e61626c653a2063616c6c6572206973206e6f7420746865206f776e6572604082015260600190565b602080825260159082015274195c98cc8c081d1c985b9cd9995c8819985a5b1959605a1b604082015260600190565b60208082526018908201527f4f7264657220686173206265656e2063616e63656c6c65640000000000000000604082015260600190565b6020808252601290820152710c2e6e6cae8e640c8dedc4ee840dac2e8c6d60731b604082015260600190565b60208082526018908201527f45524332302062616c616e6365206e6f7420656e6f7567680000000000000000604082015260600190565b6020808252601a908201527f5370656e64696e6720616d6f756e74206e6f7420656e6f756768000000000000604082015260600190565b6020808252600f908201526e1d1c985b9cd9995c8819985a5b1959608a1b604082015260600190565b60208082526022908201527f416363657074206269642071747920686967686572207468616e206269642071604082015261747960f01b606082015260800190565b60208082526023908201527f6c6566744f726465722e74616b657220766572696669636174696f6e206661696040820152621b195960ea1b606082015260800190565b6020808252600f908201526e496e76616c6964206c697374696e6760881b604082015260600190565b6020808252600b908201526a3737ba10309036b0b5b2b960a91b604082015260600190565b60c08101613d6c828661332f565b6001600160a01b0393841660808301529190921660a090920191909152919050565b6101008101613d9d828561332f565b611549608083018461332f565b61ffff9b909b168b526001600160a01b03998a1660208c015297891660408b015260608a0196909652608089019490945260ff92831660a089015290861660c088015290941660e0860152610100850152610120840152166101408201526101600190565b65ffffffffffff92831681529116602082015260400190565b60ff929092168252602082015260400190565b600082356102be19833603018112613370578182fd5b60405181810167ffffffffffffffff81118282101715613e6d57fe5b604052919050565b600067ffffffffffffffff821115613e8957fe5b5060209081020190565b600061201c3683612e50565b60005b83811015613eba578181015183820152602001613ea2565b838111156111dc5750506000910152565b6001600160a01b0381168114610fbf57600080fd5b60ff81168114610fbf57600080fdfea26469706673582212200375e59623196e483d4845c8375adf72c6b808473a4116ccd0044d9be747fdd664736f6c63430007060033",
  "linkReferences": {},
  "deployedLinkReferences": {}
}