{
  "_format": "hh-sol-artifact-1",
  "contractName": "ExchangeV2",
  "sourceName": "contracts/ExchangeV2.sol",
  "abi": [
    {
      "inputs": [],
      "stateMutability": "nonpayable",
      "type": "constructor"
    },
    {
      "anonymous": false,
      "inputs": [
        {
          "indexed": false,
          "internalType": "uint256",
          "name": "oldValue",
          "type": "uint256"
        },
        {
          "indexed": false,
          "internalType": "uint256",
          "name": "newValue",
          "type": "uint256"
        }
      ],
      "name": "BuyerFeeAmountChanged",
      "type": "event"
    },
    {
      "anonymous": false,
      "inputs": [
        {
          "indexed": false,
          "internalType": "bytes32",
          "name": "hash",
          "type": "bytes32"
        }
      ],
      "name": "Cancel",
      "type": "event"
    },
    {
      "anonymous": false,
      "inputs": [
        {
          "indexed": false,
          "internalType": "address",
          "name": "maker",
          "type": "address"
        },
        {
          "indexed": false,
          "internalType": "bytes",
          "name": "sig",
          "type": "bytes"
        },
        {
          "indexed": false,
          "internalType": "uint16",
          "name": "index",
          "type": "uint16"
        }
      ],
      "name": "CancelOrder",
      "type": "event"
    },
    {
      "anonymous": false,
      "inputs": [
        {
          "indexed": false,
          "internalType": "address",
          "name": "oldValue",
          "type": "address"
        },
        {
          "indexed": false,
          "internalType": "address",
          "name": "newValue",
          "type": "address"
        }
      ],
      "name": "FeeReceiverChanged",
      "type": "event"
    },
    {
      "anonymous": false,
      "inputs": [
        {
          "indexed": false,
          "internalType": "enum LibOrder.OrderType",
          "name": "orderType",
          "type": "uint8"
        },
        {
          "indexed": false,
          "internalType": "address",
          "name": "maker",
          "type": "address"
        },
        {
          "indexed": false,
          "internalType": "address",
          "name": "taker",
          "type": "address"
        },
        {
          "indexed": false,
          "internalType": "bytes",
          "name": "sig",
          "type": "bytes"
        },
        {
          "indexed": false,
          "internalType": "uint16",
          "name": "index",
          "type": "uint16"
        },
        {
          "indexed": false,
          "internalType": "uint256",
          "name": "takeQty",
          "type": "uint256"
        },
        {
          "indexed": false,
          "internalType": "uint256",
          "name": "takeAssetId",
          "type": "uint256"
        },
        {
          "indexed": false,
          "internalType": "uint256",
          "name": "currentFilledValue",
          "type": "uint256"
        },
        {
          "indexed": false,
          "internalType": "uint256",
          "name": "randomValue",
          "type": "uint256"
        }
      ],
      "name": "FillOrder",
      "type": "event"
    },
    {
      "anonymous": false,
      "inputs": [
        {
          "indexed": false,
          "internalType": "bytes32",
          "name": "leftHash",
          "type": "bytes32"
        },
        {
          "indexed": false,
          "internalType": "bytes32",
          "name": "rightHash",
          "type": "bytes32"
        },
        {
          "indexed": false,
          "internalType": "uint256",
          "name": "newLeftFill",
          "type": "uint256"
        },
        {
          "indexed": false,
          "internalType": "uint256",
          "name": "newRightFill",
          "type": "uint256"
        }
      ],
      "name": "Match",
      "type": "event"
    },
    {
      "anonymous": false,
      "inputs": [
        {
          "indexed": true,
          "internalType": "uint256",
          "name": "assetType",
          "type": "uint256"
        },
        {
          "indexed": false,
          "internalType": "address",
          "name": "matcher",
          "type": "address"
        }
      ],
      "name": "MatcherChange",
      "type": "event"
    },
    {
      "anonymous": false,
      "inputs": [
        {
          "indexed": true,
          "internalType": "address",
          "name": "previousOwner",
          "type": "address"
        },
        {
          "indexed": true,
          "internalType": "address",
          "name": "newOwner",
          "type": "address"
        }
      ],
      "name": "OwnershipTransferred",
      "type": "event"
    },
    {
      "anonymous": false,
      "inputs": [
        {
          "indexed": true,
          "internalType": "uint256",
          "name": "assetType",
          "type": "uint256"
        },
        {
          "indexed": false,
          "internalType": "address",
          "name": "proxy",
          "type": "address"
        }
      ],
      "name": "ProxyChange",
      "type": "event"
    },
    {
      "anonymous": false,
      "inputs": [
        {
          "indexed": false,
          "internalType": "uint256",
          "name": "oldValue",
          "type": "uint256"
        },
        {
          "indexed": false,
          "internalType": "uint256",
          "name": "newValue",
          "type": "uint256"
        }
      ],
      "name": "SellerFeeAmountChanged",
      "type": "event"
    },
    {
      "inputs": [
        {
          "internalType": "address",
          "name": "_transferProxy",
          "type": "address"
        },
        {
          "internalType": "address",
          "name": "_erc20TransferProxy",
          "type": "address"
        },
        {
          "internalType": "uint256",
          "name": "newProtocolFee",
          "type": "uint256"
        },
        {
          "internalType": "address",
          "name": "newDefaultFeeReceiver",
          "type": "address"
        },
        {
          "internalType": "contract IRoyaltiesProvider",
          "name": "newRoyaltiesProvider",
          "type": "address"
        }
      ],
      "name": "__ExchangeV2_init",
      "outputs": [],
      "stateMutability": "nonpayable",
      "type": "function"
    },
    {
      "inputs": [],
      "name": "_owner",
      "outputs": [
        {
          "internalType": "address",
          "name": "",
          "type": "address"
        }
      ],
      "stateMutability": "view",
      "type": "function"
    },
    {
      "inputs": [
        {
          "components": [
            {
              "internalType": "enum LibOrder.OrderType",
              "name": "orderType",
              "type": "uint8"
            },
            {
              "internalType": "address",
              "name": "maker",
              "type": "address"
            },
            {
              "components": [
                {
                  "internalType": "uint8",
                  "name": "assetType",
                  "type": "uint8"
                },
                {
                  "internalType": "address",
                  "name": "contractAddress",
                  "type": "address"
                },
                {
                  "internalType": "uint256",
                  "name": "value",
                  "type": "uint256"
                },
                {
                  "internalType": "uint256",
                  "name": "id",
                  "type": "uint256"
                }
              ],
              "internalType": "struct LibAsset.Asset",
              "name": "makeAsset",
              "type": "tuple"
            },
            {
              "internalType": "address",
              "name": "taker",
              "type": "address"
            },
            {
              "components": [
                {
                  "internalType": "uint8",
                  "name": "assetType",
                  "type": "uint8"
                },
                {
                  "internalType": "address",
                  "name": "contractAddress",
                  "type": "address"
                },
                {
                  "internalType": "uint256",
                  "name": "value",
                  "type": "uint256"
                },
                {
                  "internalType": "uint256",
                  "name": "id",
                  "type": "uint256"
                }
              ],
              "internalType": "struct LibAsset.Asset",
              "name": "takeAsset",
              "type": "tuple"
            },
            {
              "internalType": "uint256",
              "name": "salt",
              "type": "uint256"
            },
            {
              "internalType": "uint256",
              "name": "start",
              "type": "uint256"
            },
            {
              "internalType": "uint256",
              "name": "end",
              "type": "uint256"
            },
            {
              "components": [
                {
                  "internalType": "address",
                  "name": "receiver",
                  "type": "address"
                },
                {
                  "internalType": "uint256",
                  "name": "amount",
                  "type": "uint256"
                }
              ],
              "internalType": "struct LibOrder.Fee",
              "name": "originFee",
              "type": "tuple"
            },
            {
              "components": [
                {
                  "internalType": "address",
                  "name": "receiver",
                  "type": "address"
                },
                {
                  "internalType": "uint256",
                  "name": "amount",
                  "type": "uint256"
                }
              ],
              "internalType": "struct LibOrder.Fee",
              "name": "royaltyFee",
              "type": "tuple"
            },
            {
              "internalType": "bytes",
              "name": "sig",
              "type": "bytes"
            },
            {
              "internalType": "bytes32",
              "name": "root",
              "type": "bytes32"
            },
            {
              "internalType": "bytes32[]",
              "name": "proof",
              "type": "bytes32[]"
            },
            {
              "internalType": "uint16",
              "name": "index",
              "type": "uint16"
            }
          ],
          "internalType": "struct LibOrder.Order",
          "name": "order",
          "type": "tuple"
        }
      ],
      "name": "cancel",
      "outputs": [],
      "stateMutability": "nonpayable",
      "type": "function"
    },
    {
      "inputs": [
        {
          "components": [
            {
              "internalType": "enum LibOrder.OrderType",
              "name": "orderType",
              "type": "uint8"
            },
            {
              "internalType": "address",
              "name": "maker",
              "type": "address"
            },
            {
              "components": [
                {
                  "internalType": "uint8",
                  "name": "assetType",
                  "type": "uint8"
                },
                {
                  "internalType": "address",
                  "name": "contractAddress",
                  "type": "address"
                },
                {
                  "internalType": "uint256",
                  "name": "value",
                  "type": "uint256"
                },
                {
                  "internalType": "uint256",
                  "name": "id",
                  "type": "uint256"
                }
              ],
              "internalType": "struct LibAsset.Asset",
              "name": "makeAsset",
              "type": "tuple"
            },
            {
              "internalType": "address",
              "name": "taker",
              "type": "address"
            },
            {
              "components": [
                {
                  "internalType": "uint8",
                  "name": "assetType",
                  "type": "uint8"
                },
                {
                  "internalType": "address",
                  "name": "contractAddress",
                  "type": "address"
                },
                {
                  "internalType": "uint256",
                  "name": "value",
                  "type": "uint256"
                },
                {
                  "internalType": "uint256",
                  "name": "id",
                  "type": "uint256"
                }
              ],
              "internalType": "struct LibAsset.Asset",
              "name": "takeAsset",
              "type": "tuple"
            },
            {
              "internalType": "uint256",
              "name": "salt",
              "type": "uint256"
            },
            {
              "internalType": "uint256",
              "name": "start",
              "type": "uint256"
            },
            {
              "internalType": "uint256",
              "name": "end",
              "type": "uint256"
            },
            {
              "components": [
                {
                  "internalType": "address",
                  "name": "receiver",
                  "type": "address"
                },
                {
                  "internalType": "uint256",
                  "name": "amount",
                  "type": "uint256"
                }
              ],
              "internalType": "struct LibOrder.Fee",
              "name": "originFee",
              "type": "tuple"
            },
            {
              "components": [
                {
                  "internalType": "address",
                  "name": "receiver",
                  "type": "address"
                },
                {
                  "internalType": "uint256",
                  "name": "amount",
                  "type": "uint256"
                }
              ],
              "internalType": "struct LibOrder.Fee",
              "name": "royaltyFee",
              "type": "tuple"
            },
            {
              "internalType": "bytes",
              "name": "sig",
              "type": "bytes"
            },
            {
              "internalType": "bytes32",
              "name": "root",
              "type": "bytes32"
            },
            {
              "internalType": "bytes32[]",
              "name": "proof",
              "type": "bytes32[]"
            },
            {
              "internalType": "uint16",
              "name": "index",
              "type": "uint16"
            }
          ],
          "internalType": "struct LibOrder.Order",
          "name": "order",
          "type": "tuple"
        }
      ],
      "name": "cancelOrder",
      "outputs": [],
      "stateMutability": "nonpayable",
      "type": "function"
    },
    {
      "inputs": [
        {
          "components": [
            {
              "components": [
                {
                  "internalType": "enum LibOrder.OrderType",
                  "name": "orderType",
                  "type": "uint8"
                },
                {
                  "internalType": "address",
                  "name": "maker",
                  "type": "address"
                },
                {
                  "components": [
                    {
                      "internalType": "uint8",
                      "name": "assetType",
                      "type": "uint8"
                    },
                    {
                      "internalType": "address",
                      "name": "contractAddress",
                      "type": "address"
                    },
                    {
                      "internalType": "uint256",
                      "name": "value",
                      "type": "uint256"
                    },
                    {
                      "internalType": "uint256",
                      "name": "id",
                      "type": "uint256"
                    }
                  ],
                  "internalType": "struct LibAsset.Asset",
                  "name": "makeAsset",
                  "type": "tuple"
                },
                {
                  "internalType": "address",
                  "name": "taker",
                  "type": "address"
                },
                {
                  "components": [
                    {
                      "internalType": "uint8",
                      "name": "assetType",
                      "type": "uint8"
                    },
                    {
                      "internalType": "address",
                      "name": "contractAddress",
                      "type": "address"
                    },
                    {
                      "internalType": "uint256",
                      "name": "value",
                      "type": "uint256"
                    },
                    {
                      "internalType": "uint256",
                      "name": "id",
                      "type": "uint256"
                    }
                  ],
                  "internalType": "struct LibAsset.Asset",
                  "name": "takeAsset",
                  "type": "tuple"
                },
                {
                  "internalType": "uint256",
                  "name": "salt",
                  "type": "uint256"
                },
                {
                  "internalType": "uint256",
                  "name": "start",
                  "type": "uint256"
                },
                {
                  "internalType": "uint256",
                  "name": "end",
                  "type": "uint256"
                },
                {
                  "components": [
                    {
                      "internalType": "address",
                      "name": "receiver",
                      "type": "address"
                    },
                    {
                      "internalType": "uint256",
                      "name": "amount",
                      "type": "uint256"
                    }
                  ],
                  "internalType": "struct LibOrder.Fee",
                  "name": "originFee",
                  "type": "tuple"
                },
                {
                  "components": [
                    {
                      "internalType": "address",
                      "name": "receiver",
                      "type": "address"
                    },
                    {
                      "internalType": "uint256",
                      "name": "amount",
                      "type": "uint256"
                    }
                  ],
                  "internalType": "struct LibOrder.Fee",
                  "name": "royaltyFee",
                  "type": "tuple"
                },
                {
                  "internalType": "bytes",
                  "name": "sig",
                  "type": "bytes"
                },
                {
                  "internalType": "bytes32",
                  "name": "root",
                  "type": "bytes32"
                },
                {
                  "internalType": "bytes32[]",
                  "name": "proof",
                  "type": "bytes32[]"
                },
                {
                  "internalType": "uint16",
                  "name": "index",
                  "type": "uint16"
                }
              ],
              "internalType": "struct LibOrder.Order",
              "name": "bidOrder",
              "type": "tuple"
            },
            {
              "components": [
                {
                  "internalType": "enum LibOrder.OrderType",
                  "name": "orderType",
                  "type": "uint8"
                },
                {
                  "internalType": "address",
                  "name": "maker",
                  "type": "address"
                },
                {
                  "components": [
                    {
                      "internalType": "uint8",
                      "name": "assetType",
                      "type": "uint8"
                    },
                    {
                      "internalType": "address",
                      "name": "contractAddress",
                      "type": "address"
                    },
                    {
                      "internalType": "uint256",
                      "name": "value",
                      "type": "uint256"
                    },
                    {
                      "internalType": "uint256",
                      "name": "id",
                      "type": "uint256"
                    }
                  ],
                  "internalType": "struct LibAsset.Asset",
                  "name": "makeAsset",
                  "type": "tuple"
                },
                {
                  "internalType": "address",
                  "name": "taker",
                  "type": "address"
                },
                {
                  "components": [
                    {
                      "internalType": "uint8",
                      "name": "assetType",
                      "type": "uint8"
                    },
                    {
                      "internalType": "address",
                      "name": "contractAddress",
                      "type": "address"
                    },
                    {
                      "internalType": "uint256",
                      "name": "value",
                      "type": "uint256"
                    },
                    {
                      "internalType": "uint256",
                      "name": "id",
                      "type": "uint256"
                    }
                  ],
                  "internalType": "struct LibAsset.Asset",
                  "name": "takeAsset",
                  "type": "tuple"
                },
                {
                  "internalType": "uint256",
                  "name": "salt",
                  "type": "uint256"
                },
                {
                  "internalType": "uint256",
                  "name": "start",
                  "type": "uint256"
                },
                {
                  "internalType": "uint256",
                  "name": "end",
                  "type": "uint256"
                },
                {
                  "components": [
                    {
                      "internalType": "address",
                      "name": "receiver",
                      "type": "address"
                    },
                    {
                      "internalType": "uint256",
                      "name": "amount",
                      "type": "uint256"
                    }
                  ],
                  "internalType": "struct LibOrder.Fee",
                  "name": "originFee",
                  "type": "tuple"
                },
                {
                  "components": [
                    {
                      "internalType": "address",
                      "name": "receiver",
                      "type": "address"
                    },
                    {
                      "internalType": "uint256",
                      "name": "amount",
                      "type": "uint256"
                    }
                  ],
                  "internalType": "struct LibOrder.Fee",
                  "name": "royaltyFee",
                  "type": "tuple"
                },
                {
                  "internalType": "bytes",
                  "name": "sig",
                  "type": "bytes"
                },
                {
                  "internalType": "bytes32",
                  "name": "root",
                  "type": "bytes32"
                },
                {
                  "internalType": "bytes32[]",
                  "name": "proof",
                  "type": "bytes32[]"
                },
                {
                  "internalType": "uint16",
                  "name": "index",
                  "type": "uint16"
                }
              ],
              "internalType": "struct LibOrder.Order",
              "name": "sellOrder",
              "type": "tuple"
            }
          ],
          "internalType": "struct LibDirectTransfer.AcceptBid",
          "name": "direct",
          "type": "tuple"
        }
      ],
      "name": "directAcceptBid",
      "outputs": [],
      "stateMutability": "payable",
      "type": "function"
    },
    {
      "inputs": [
        {
          "components": [
            {
              "components": [
                {
                  "internalType": "address",
                  "name": "maker",
                  "type": "address"
                },
                {
                  "components": [
                    {
                      "internalType": "uint8",
                      "name": "assetType",
                      "type": "uint8"
                    },
                    {
                      "internalType": "address",
                      "name": "contractAddress",
                      "type": "address"
                    },
                    {
                      "internalType": "uint256",
                      "name": "value",
                      "type": "uint256"
                    },
                    {
                      "internalType": "uint256",
                      "name": "id",
                      "type": "uint256"
                    }
                  ],
                  "internalType": "struct LibAsset.Asset",
                  "name": "makeAsset",
                  "type": "tuple"
                },
                {
                  "internalType": "address",
                  "name": "taker",
                  "type": "address"
                },
                {
                  "components": [
                    {
                      "internalType": "uint8",
                      "name": "assetType",
                      "type": "uint8"
                    },
                    {
                      "internalType": "address",
                      "name": "contractAddress",
                      "type": "address"
                    },
                    {
                      "internalType": "uint256",
                      "name": "value",
                      "type": "uint256"
                    }
                  ],
                  "internalType": "struct LibAsset.CollectionAsset",
                  "name": "bidCollectionAsset",
                  "type": "tuple"
                },
                {
                  "internalType": "uint256",
                  "name": "salt",
                  "type": "uint256"
                },
                {
                  "internalType": "uint256",
                  "name": "start",
                  "type": "uint256"
                },
                {
                  "internalType": "uint256",
                  "name": "end",
                  "type": "uint256"
                },
                {
                  "components": [
                    {
                      "internalType": "address",
                      "name": "receiver",
                      "type": "address"
                    },
                    {
                      "internalType": "uint256",
                      "name": "amount",
                      "type": "uint256"
                    }
                  ],
                  "internalType": "struct LibOrder.Fee",
                  "name": "originFee",
                  "type": "tuple"
                },
                {
                  "components": [
                    {
                      "internalType": "address",
                      "name": "receiver",
                      "type": "address"
                    },
                    {
                      "internalType": "uint256",
                      "name": "amount",
                      "type": "uint256"
                    }
                  ],
                  "internalType": "struct LibOrder.Fee",
                  "name": "royaltyFee",
                  "type": "tuple"
                },
                {
                  "internalType": "bytes",
                  "name": "sig",
                  "type": "bytes"
                },
                {
                  "internalType": "bytes32",
                  "name": "root",
                  "type": "bytes32"
                },
                {
                  "internalType": "bytes32[]",
                  "name": "proof",
                  "type": "bytes32[]"
                },
                {
                  "internalType": "uint16",
                  "name": "index",
                  "type": "uint16"
                }
              ],
              "internalType": "struct LibOrder.BidCollectionOrder",
              "name": "bidOrder",
              "type": "tuple"
            },
            {
              "components": [
                {
                  "internalType": "enum LibOrder.OrderType",
                  "name": "orderType",
                  "type": "uint8"
                },
                {
                  "internalType": "address",
                  "name": "maker",
                  "type": "address"
                },
                {
                  "components": [
                    {
                      "internalType": "uint8",
                      "name": "assetType",
                      "type": "uint8"
                    },
                    {
                      "internalType": "address",
                      "name": "contractAddress",
                      "type": "address"
                    },
                    {
                      "internalType": "uint256",
                      "name": "value",
                      "type": "uint256"
                    },
                    {
                      "internalType": "uint256",
                      "name": "id",
                      "type": "uint256"
                    }
                  ],
                  "internalType": "struct LibAsset.Asset",
                  "name": "makeAsset",
                  "type": "tuple"
                },
                {
                  "internalType": "address",
                  "name": "taker",
                  "type": "address"
                },
                {
                  "components": [
                    {
                      "internalType": "uint8",
                      "name": "assetType",
                      "type": "uint8"
                    },
                    {
                      "internalType": "address",
                      "name": "contractAddress",
                      "type": "address"
                    },
                    {
                      "internalType": "uint256",
                      "name": "value",
                      "type": "uint256"
                    },
                    {
                      "internalType": "uint256",
                      "name": "id",
                      "type": "uint256"
                    }
                  ],
                  "internalType": "struct LibAsset.Asset",
                  "name": "takeAsset",
                  "type": "tuple"
                },
                {
                  "internalType": "uint256",
                  "name": "salt",
                  "type": "uint256"
                },
                {
                  "internalType": "uint256",
                  "name": "start",
                  "type": "uint256"
                },
                {
                  "internalType": "uint256",
                  "name": "end",
                  "type": "uint256"
                },
                {
                  "components": [
                    {
                      "internalType": "address",
                      "name": "receiver",
                      "type": "address"
                    },
                    {
                      "internalType": "uint256",
                      "name": "amount",
                      "type": "uint256"
                    }
                  ],
                  "internalType": "struct LibOrder.Fee",
                  "name": "originFee",
                  "type": "tuple"
                },
                {
                  "components": [
                    {
                      "internalType": "address",
                      "name": "receiver",
                      "type": "address"
                    },
                    {
                      "internalType": "uint256",
                      "name": "amount",
                      "type": "uint256"
                    }
                  ],
                  "internalType": "struct LibOrder.Fee",
                  "name": "royaltyFee",
                  "type": "tuple"
                },
                {
                  "internalType": "bytes",
                  "name": "sig",
                  "type": "bytes"
                },
                {
                  "internalType": "bytes32",
                  "name": "root",
                  "type": "bytes32"
                },
                {
                  "internalType": "bytes32[]",
                  "name": "proof",
                  "type": "bytes32[]"
                },
                {
                  "internalType": "uint16",
                  "name": "index",
                  "type": "uint16"
                }
              ],
              "internalType": "struct LibOrder.Order",
              "name": "sellOrder",
              "type": "tuple"
            }
          ],
          "internalType": "struct LibDirectTransfer.AcceptBidCollection",
          "name": "direct",
          "type": "tuple"
        }
      ],
      "name": "directAcceptBidCollection",
      "outputs": [],
      "stateMutability": "payable",
      "type": "function"
    },
    {
      "inputs": [
        {
          "internalType": "bytes32",
          "name": "",
          "type": "bytes32"
        }
      ],
      "name": "fills",
      "outputs": [
        {
          "internalType": "uint256",
          "name": "",
          "type": "uint256"
        }
      ],
      "stateMutability": "view",
      "type": "function"
    },
    {
      "inputs": [
        {
          "internalType": "uint8",
          "name": "index",
          "type": "uint8"
        }
      ],
      "name": "getTransferProxy",
      "outputs": [
        {
          "internalType": "address",
          "name": "",
          "type": "address"
        }
      ],
      "stateMutability": "view",
      "type": "function"
    },
    {
      "inputs": [
        {
          "components": [
            {
              "internalType": "enum LibOrder.OrderType",
              "name": "orderType",
              "type": "uint8"
            },
            {
              "internalType": "address",
              "name": "maker",
              "type": "address"
            },
            {
              "components": [
                {
                  "internalType": "uint8",
                  "name": "assetType",
                  "type": "uint8"
                },
                {
                  "internalType": "address",
                  "name": "contractAddress",
                  "type": "address"
                },
                {
                  "internalType": "uint256",
                  "name": "value",
                  "type": "uint256"
                },
                {
                  "internalType": "uint256",
                  "name": "id",
                  "type": "uint256"
                }
              ],
              "internalType": "struct LibAsset.Asset",
              "name": "makeAsset",
              "type": "tuple"
            },
            {
              "internalType": "address",
              "name": "taker",
              "type": "address"
            },
            {
              "components": [
                {
                  "internalType": "uint8",
                  "name": "assetType",
                  "type": "uint8"
                },
                {
                  "internalType": "address",
                  "name": "contractAddress",
                  "type": "address"
                },
                {
                  "internalType": "uint256",
                  "name": "value",
                  "type": "uint256"
                },
                {
                  "internalType": "uint256",
                  "name": "id",
                  "type": "uint256"
                }
              ],
              "internalType": "struct LibAsset.Asset",
              "name": "takeAsset",
              "type": "tuple"
            },
            {
              "internalType": "uint256",
              "name": "salt",
              "type": "uint256"
            },
            {
              "internalType": "uint256",
              "name": "start",
              "type": "uint256"
            },
            {
              "internalType": "uint256",
              "name": "end",
              "type": "uint256"
            },
            {
              "components": [
                {
                  "internalType": "address",
                  "name": "receiver",
                  "type": "address"
                },
                {
                  "internalType": "uint256",
                  "name": "amount",
                  "type": "uint256"
                }
              ],
              "internalType": "struct LibOrder.Fee",
              "name": "originFee",
              "type": "tuple"
            },
            {
              "components": [
                {
                  "internalType": "address",
                  "name": "receiver",
                  "type": "address"
                },
                {
                  "internalType": "uint256",
                  "name": "amount",
                  "type": "uint256"
                }
              ],
              "internalType": "struct LibOrder.Fee",
              "name": "royaltyFee",
              "type": "tuple"
            },
            {
              "internalType": "bytes",
              "name": "sig",
              "type": "bytes"
            },
            {
              "internalType": "bytes32",
              "name": "root",
              "type": "bytes32"
            },
            {
              "internalType": "bytes32[]",
              "name": "proof",
              "type": "bytes32[]"
            },
            {
              "internalType": "uint16",
              "name": "index",
              "type": "uint16"
            }
          ],
          "internalType": "struct LibOrder.Order[]",
          "name": "orderLefts",
          "type": "tuple[]"
        },
        {
          "components": [
            {
              "internalType": "enum LibOrder.OrderType",
              "name": "orderType",
              "type": "uint8"
            },
            {
              "internalType": "address",
              "name": "maker",
              "type": "address"
            },
            {
              "components": [
                {
                  "internalType": "uint8",
                  "name": "assetType",
                  "type": "uint8"
                },
                {
                  "internalType": "address",
                  "name": "contractAddress",
                  "type": "address"
                },
                {
                  "internalType": "uint256",
                  "name": "value",
                  "type": "uint256"
                },
                {
                  "internalType": "uint256",
                  "name": "id",
                  "type": "uint256"
                }
              ],
              "internalType": "struct LibAsset.Asset",
              "name": "makeAsset",
              "type": "tuple"
            },
            {
              "internalType": "address",
              "name": "taker",
              "type": "address"
            },
            {
              "components": [
                {
                  "internalType": "uint8",
                  "name": "assetType",
                  "type": "uint8"
                },
                {
                  "internalType": "address",
                  "name": "contractAddress",
                  "type": "address"
                },
                {
                  "internalType": "uint256",
                  "name": "value",
                  "type": "uint256"
                },
                {
                  "internalType": "uint256",
                  "name": "id",
                  "type": "uint256"
                }
              ],
              "internalType": "struct LibAsset.Asset",
              "name": "takeAsset",
              "type": "tuple"
            },
            {
              "internalType": "uint256",
              "name": "salt",
              "type": "uint256"
            },
            {
              "internalType": "uint256",
              "name": "start",
              "type": "uint256"
            },
            {
              "internalType": "uint256",
              "name": "end",
              "type": "uint256"
            },
            {
              "components": [
                {
                  "internalType": "address",
                  "name": "receiver",
                  "type": "address"
                },
                {
                  "internalType": "uint256",
                  "name": "amount",
                  "type": "uint256"
                }
              ],
              "internalType": "struct LibOrder.Fee",
              "name": "originFee",
              "type": "tuple"
            },
            {
              "components": [
                {
                  "internalType": "address",
                  "name": "receiver",
                  "type": "address"
                },
                {
                  "internalType": "uint256",
                  "name": "amount",
                  "type": "uint256"
                }
              ],
              "internalType": "struct LibOrder.Fee",
              "name": "royaltyFee",
              "type": "tuple"
            },
            {
              "internalType": "bytes",
              "name": "sig",
              "type": "bytes"
            },
            {
              "internalType": "bytes32",
              "name": "root",
              "type": "bytes32"
            },
            {
              "internalType": "bytes32[]",
              "name": "proof",
              "type": "bytes32[]"
            },
            {
              "internalType": "uint16",
              "name": "index",
              "type": "uint16"
            }
          ],
          "internalType": "struct LibOrder.Order[]",
          "name": "orderRights",
          "type": "tuple[]"
        }
      ],
      "name": "matchOrders",
      "outputs": [],
      "stateMutability": "payable",
      "type": "function"
    },
    {
      "inputs": [],
      "name": "owner",
      "outputs": [
        {
          "internalType": "address",
          "name": "",
          "type": "address"
        }
      ],
      "stateMutability": "view",
      "type": "function"
    },
    {
      "inputs": [],
      "name": "protocolFee",
      "outputs": [
        {
          "internalType": "address",
          "name": "receiver",
          "type": "address"
        },
        {
          "internalType": "uint48",
          "name": "buyerAmount",
          "type": "uint48"
        },
        {
          "internalType": "uint48",
          "name": "sellerAmount",
          "type": "uint48"
        }
      ],
      "stateMutability": "view",
      "type": "function"
    },
    {
      "inputs": [],
      "name": "renounceOwnership",
      "outputs": [],
      "stateMutability": "nonpayable",
      "type": "function"
    },
    {
      "inputs": [],
      "name": "royaltiesRegistry",
      "outputs": [
        {
          "internalType": "contract IRoyaltiesProvider",
          "name": "",
          "type": "address"
        }
      ],
      "stateMutability": "view",
      "type": "function"
    },
    {
      "inputs": [
        {
          "internalType": "address",
          "name": "_receiver",
          "type": "address"
        },
        {
          "internalType": "uint48",
          "name": "_buyerAmount",
          "type": "uint48"
        },
        {
          "internalType": "uint48",
          "name": "_sellerAmount",
          "type": "uint48"
        }
      ],
      "name": "setAllProtocolFeeData",
      "outputs": [],
      "stateMutability": "nonpayable",
      "type": "function"
    },
    {
      "inputs": [
        {
          "internalType": "uint256",
          "name": "assetType",
          "type": "uint256"
        },
        {
          "internalType": "address",
          "name": "matcher",
          "type": "address"
        }
      ],
      "name": "setAssetMatcher",
      "outputs": [],
      "stateMutability": "nonpayable",
      "type": "function"
    },
    {
      "inputs": [
        {
          "internalType": "uint48",
          "name": "_buyerAmount",
          "type": "uint48"
        }
      ],
      "name": "setPrtocolFeeBuyerAmount",
      "outputs": [],
      "stateMutability": "nonpayable",
      "type": "function"
    },
    {
      "inputs": [
        {
          "internalType": "address",
          "name": "_receiver",
          "type": "address"
        }
      ],
      "name": "setPrtocolFeeReceiver",
      "outputs": [],
      "stateMutability": "nonpayable",
      "type": "function"
    },
    {
      "inputs": [
        {
          "internalType": "uint48",
          "name": "_sellerAmount",
          "type": "uint48"
        }
      ],
      "name": "setPrtocolFeeSellerAmount",
      "outputs": [],
      "stateMutability": "nonpayable",
      "type": "function"
    },
    {
      "inputs": [
        {
          "internalType": "contract IRoyaltiesProvider",
          "name": "newRoyaltiesRegistry",
          "type": "address"
        }
      ],
      "name": "setRoyaltiesRegistry",
      "outputs": [],
      "stateMutability": "nonpayable",
      "type": "function"
    },
    {
      "inputs": [
        {
          "internalType": "uint8",
          "name": "index",
          "type": "uint8"
        },
        {
          "internalType": "address",
          "name": "proxy",
          "type": "address"
        }
      ],
      "name": "setTransferProxy",
      "outputs": [],
      "stateMutability": "nonpayable",
      "type": "function"
    },
    {
      "inputs": [
        {
          "internalType": "address",
          "name": "newOwner",
          "type": "address"
        }
      ],
      "name": "transferOwnership",
      "outputs": [],
      "stateMutability": "nonpayable",
      "type": "function"
    },
    {
      "inputs": [
        {
          "internalType": "bytes32",
          "name": "root",
          "type": "bytes32"
        },
        {
          "internalType": "bytes32[]",
          "name": "proof",
          "type": "bytes32[]"
        },
        {
          "components": [
            {
              "internalType": "enum LibOrder.OrderType",
              "name": "orderType",
              "type": "uint8"
            },
            {
              "internalType": "address",
              "name": "maker",
              "type": "address"
            },
            {
              "components": [
                {
                  "internalType": "uint8",
                  "name": "assetType",
                  "type": "uint8"
                },
                {
                  "internalType": "address",
                  "name": "contractAddress",
                  "type": "address"
                },
                {
                  "internalType": "uint256",
                  "name": "value",
                  "type": "uint256"
                },
                {
                  "internalType": "uint256",
                  "name": "id",
                  "type": "uint256"
                }
              ],
              "internalType": "struct LibAsset.Asset",
              "name": "makeAsset",
              "type": "tuple"
            },
            {
              "internalType": "address",
              "name": "taker",
              "type": "address"
            },
            {
              "components": [
                {
                  "internalType": "uint8",
                  "name": "assetType",
                  "type": "uint8"
                },
                {
                  "internalType": "address",
                  "name": "contractAddress",
                  "type": "address"
                },
                {
                  "internalType": "uint256",
                  "name": "value",
                  "type": "uint256"
                },
                {
                  "internalType": "uint256",
                  "name": "id",
                  "type": "uint256"
                }
              ],
              "internalType": "struct LibAsset.Asset",
              "name": "takeAsset",
              "type": "tuple"
            },
            {
              "internalType": "uint256",
              "name": "salt",
              "type": "uint256"
            },
            {
              "internalType": "uint256",
              "name": "start",
              "type": "uint256"
            },
            {
              "internalType": "uint256",
              "name": "end",
              "type": "uint256"
            },
            {
              "components": [
                {
                  "internalType": "address",
                  "name": "receiver",
                  "type": "address"
                },
                {
                  "internalType": "uint256",
                  "name": "amount",
                  "type": "uint256"
                }
              ],
              "internalType": "struct LibOrder.Fee",
              "name": "originFee",
              "type": "tuple"
            },
            {
              "components": [
                {
                  "internalType": "address",
                  "name": "receiver",
                  "type": "address"
                },
                {
                  "internalType": "uint256",
                  "name": "amount",
                  "type": "uint256"
                }
              ],
              "internalType": "struct LibOrder.Fee",
              "name": "royaltyFee",
              "type": "tuple"
            },
            {
              "internalType": "bytes",
              "name": "sig",
              "type": "bytes"
            },
            {
              "internalType": "bytes32",
              "name": "root",
              "type": "bytes32"
            },
            {
              "internalType": "bytes32[]",
              "name": "proof",
              "type": "bytes32[]"
            },
            {
              "internalType": "uint16",
              "name": "index",
              "type": "uint16"
            }
          ],
          "internalType": "struct LibOrder.Order",
          "name": "order",
          "type": "tuple"
        }
      ],
      "name": "validateListing",
      "outputs": [
        {
          "internalType": "bool",
          "name": "isValid",
          "type": "bool"
        }
      ],
      "stateMutability": "pure",
      "type": "function"
    }
  ],
  "bytecode": "0x60806040526275327560e81b60c955603160f81b60ca556000610130553480156200002957600080fd5b50600161012f55603380546001600160a01b031916331790556200004c62000052565b62000253565b600054610100900460ff16806200006e57506200006e62000136565b806200007d575060005460ff16155b620000a55760405162461bcd60e51b81526004016200009c9062000205565b60405180910390fd5b600054610100900460ff16158015620000d1576000805460ff1961ff0019909116610100171660011790555b620001206040518060400160405280600c81526020016b5837323145786368616e676560a01b815250604051806040016040528060018152602001603160f81b8152506200015460201b60201c565b801562000133576000805461ff00191690555b50565b60006200014e30620001ff60201b620011e81760201c565b15905090565b600054610100900460ff16806200017057506200017062000136565b806200017f575060005460ff16155b6200019e5760405162461bcd60e51b81526004016200009c9062000205565b600054610100900460ff16158015620001ca576000805460ff1961ff0019909116610100171660011790555b825160208085019190912083519184019190912060c99190915560ca558015620001fa576000805461ff00191690555b505050565b3b151590565b6020808252602e908201527f496e697469616c697a61626c653a20636f6e747261637420697320616c72656160408201526d191e481a5b9a5d1a585b1a5e995960921b606082015260800190565b61461e80620002636000396000f3fe6080604052600436106101355760003560e01c8063b2bdfa7b116100ab578063d362d3ff1161006f578063d362d3ff14610337578063d6ca6ab714610357578063eae3ad6f14610377578063f2fde38b14610397578063f75743ce146103b7578063faa2cc7c146103ca57610135565b8063b2bdfa7b146102a2578063b36c9b29146102b7578063b74c8e9a146102d7578063bc158c2d146102f7578063c648a6871461031757610135565b80634cfe4cd8116100fd5780634cfe4cd8146101f25780636d8f069414610212578063715018a6146102345780638b42af3e146102495780638da5cb5b14610269578063b0e21e8a1461027e57610135565b80631372a6251461013a57806320158c441461015c57806333033608146101925780633be89922146101a55780633e2d95ff146101c5575b600080fd5b34801561014657600080fd5b5061015a61015536600461345a565b6103dd565b005b34801561016857600080fd5b5061017c610177366004613585565b610493565b60405161018991906139cc565b60405180910390f35b61015a6101a036600461362e565b6104a6565b3480156101b157600080fd5b5061015a6101c036600461343e565b61061e565b3480156101d157600080fd5b506101e56101e036600461359d565b610680565b60405161018991906139c1565b3480156101fe57600080fd5b5061015a61020d36600461377c565b6106a2565b34801561021e57600080fd5b50610227610748565b6040516101899190613897565b34801561024057600080fd5b5061015a610758565b34801561025557600080fd5b5061015a6102643660046136cd565b6107e1565b34801561027557600080fd5b506102276109c1565b34801561028a57600080fd5b506102936109d0565b60405161018993929190613998565b3480156102ae57600080fd5b506102276109fb565b3480156102c357600080fd5b506102276102d2366004613760565b610a0a565b3480156102e357600080fd5b5061015a6102f23660046134c1565b610a2c565b34801561030357600080fd5b5061015a61031236600461343e565b610a8b565b34801561032357600080fd5b5061015a610332366004613717565b610b35565b34801561034357600080fd5b5061015a6103523660046136cd565b610bcd565b34801561036357600080fd5b5061015a610372366004613746565b610c88565b34801561038357600080fd5b5061015a610392366004613746565b610d3f565b3480156103a357600080fd5b5061015a6103b236600461343e565b610df3565b61015a6103c536600461362e565b610eb4565b61015a6103d8366004613505565b611183565b600054610100900460ff16806103f657506103f66111ee565b80610404575060005460ff16155b6104295760405162461bcd60e51b815260040161042090613f5e565b60405180910390fd5b600054610100900460ff16158015610454576000805460ff1961ff0019909116610100171660011790555b61045c6111ff565b610464611282565b61046e868661135c565b610479848484611400565b801561048b576000805461ff00191690555b505050505050565b6101316020526000908152604090205481565b60006104b28280614412565b6104bb90614586565b905060006104cc6020840184614412565b6104d590614586565b60808301516040908101518183015190910151919250908181111561050c5760405162461bcd60e51b815260040161042090614217565b61051b848561014001516114a2565b61052a838461014001516114a2565b6000828560400151604001518161053d57fe5b0490506000828202905085604001516040015181111561056f5760405162461bcd60e51b815260040161042090613d96565b604080870151810182905260808088015182018590526020808801516001600160a01b0390811660608b01528884015184018890529188015183018490528089015190911660009081526101329091528181206101408901519251919290916105d89190613804565b90815260408051602092819003830190206101a08a015161ffff1660009081529252902054905061060986886114b9565b6106148688836115f3565b5050505050505050565b610626611799565b6001600160a01b03166106376109c1565b6001600160a01b03161461065d5760405162461bcd60e51b81526004016104209061405c565b61016580546001600160a01b0319166001600160a01b0392909216919091179055565b60008061068c8361179d565b9050610699848683611814565b95945050505050565b6106aa611799565b6001600160a01b03166106bb6109c1565b6001600160a01b0316146106e15760405162461bcd60e51b81526004016104209061405c565b60ff82166000818152609760205260409081902080546001600160a01b0319166001600160a01b038516179055517f8edda873a8ad561ecebeb71ceb3ae6bcb70c2b76a3fcb869859895c4d4fc74169061073c908490613897565b60405180910390a25050565b610165546001600160a01b031681565b610760611799565b6001600160a01b03166107716109c1565b6001600160a01b0316146107975760405162461bcd60e51b81526004016104209061405c565b6033546040516000916001600160a01b0316907f8be0079c531659141344cd1fd0a4f28419497f9722a3daafe3b4186f6b6457e0908390a3603380546001600160a01b0319169055565b600261012f54141561083a576040805162461bcd60e51b815260206004820152601f60248201527f5265656e7472616e637947756172643a207265656e7472616e742063616c6c00604482015290519081900360640190fd5b600261012f5560208101516001600160a01b0316610856611799565b6001600160a01b03161461087c5760405162461bcd60e51b8152600401610420906142c5565b6101326000610889611799565b6001600160a01b03166001600160a01b031681526020019081526020016000208161014001516040516108bc9190613804565b90815260408051602092819003830190206101a084015161ffff1660009081529252902054156108fe5760405162461bcd60e51b8152600401610420906142ea565b8060400151604001516101326000610914611799565b6001600160a01b03166001600160a01b031681526020019081526020016000208261014001516040516109479190613804565b90815260408051602092819003830190206101a085015161ffff16600090815292529020557f86f8a270a95f47ad48690dd66eda181ea3d229312582e7d222c11e24f39947d0610995611799565b826101400151836101a001516040516109b0939291906138ab565b60405180910390a150600161012f55565b6033546001600160a01b031690565b610164546001600160a01b0381169065ffffffffffff600160a01b8204811691600160d01b90041683565b6033546001600160a01b031681565b60ff81166000908152609760205260409020546001600160a01b03165b919050565b610a34611799565b6001600160a01b0316610a456109c1565b6001600160a01b031614610a6b5760405162461bcd60e51b81526004016104209061405c565b610a7483610a8b565b610a7d82610c88565b610a8681610d3f565b505050565b610a93611799565b6001600160a01b0316610aa46109c1565b6001600160a01b031614610aca5760405162461bcd60e51b81526004016104209061405c565b610164546040517fa4b009cc442411b602eaf94bc0579b6abdb8fd90b4ef5b9426e270038906bd0391610b0a916001600160a01b039091169084906138e3565b60405180910390a161016480546001600160a01b0319166001600160a01b0392909216919091179055565b610b3d611799565b6001600160a01b0316610b4e6109c1565b6001600160a01b031614610b745760405162461bcd60e51b81526004016104209061405c565b6000828152606560205260409081902080546001600160a01b0319166001600160a01b0384161790555182907f58204093ed36d15d7f2a89fdaca20c53f1e02a2ce5686ace9247d1b96e9ec67b9061073c908490613897565b80602001516001600160a01b0316610be3611799565b6001600160a01b031614610c095760405162461bcd60e51b8152600401610420906142c5565b60a0810151610c2a5760405162461bcd60e51b815260040161042090613d31565b6000610c358261182c565b60008181526101316020526040908190206000199055519091507fe8d9861dbc9c663ed3accd261bbe2fe01e0d3d9e5f51fa38523b265c7757a93a90610c7c9083906139cc565b60405180910390a15050565b610c90611799565b6001600160a01b0316610ca16109c1565b6001600160a01b031614610cc75760405162461bcd60e51b81526004016104209061405c565b610164546040517f70bba4f904a93ba5c1af3a1bb602bc9c058551dbe963dfe0b6cb5bc11c5fea9e91610d0c91600160a01b90910465ffffffffffff169084906143d0565b60405180910390a1610164805465ffffffffffff909216600160a01b0265ffffffffffff60a01b19909216919091179055565b610d47611799565b6001600160a01b0316610d586109c1565b6001600160a01b031614610d7e5760405162461bcd60e51b81526004016104209061405c565b610164546040517fa8af9093caa9beb61d20432227c66258ceef926f21879b80f3adf22a4d19f13191610dc391600160d01b90910465ffffffffffff169084906143d0565b60405180910390a1610164805465ffffffffffff909216600160d01b026001600160d01b03909216919091179055565b610dfb611799565b6001600160a01b0316610e0c6109c1565b6001600160a01b031614610e325760405162461bcd60e51b81526004016104209061405c565b6001600160a01b038116610e585760405162461bcd60e51b815260040161042090613cb4565b6033546040516001600160a01b038084169216907f8be0079c531659141344cd1fd0a4f28419497f9722a3daafe3b4186f6b6457e090600090a3603380546001600160a01b0319166001600160a01b0392909216919091179055565b6000610ec082806143fc565b610ec990614468565b90506000610eda6020840184614412565b610ee390614586565b606083015160409081015181830151909101519192509081811115610f1a5760405162461bcd60e51b815260040161042090614217565b610f2984856101200151611865565b610f38838461014001516114a2565b60008285602001516040015181610f4b57fe5b04905060008282029050856020015160400151811115610f7d5760405162461bcd60e51b815260040161042090613d96565b60408051608080820183526020808a0180515160ff908116855281518301516001600160a01b039081168487015282518701518688015291516060908101518187015286519485018752808d018051519092168552815184015190921692840192909252905184015182850152888401518101519082015282516101c08101909352909160009080600381526020018a600001516001600160a01b0316815260200184815260200189602001516001600160a01b031681526020018381526020018a6080015181526020018a60a0015181526020018a60c0015181526020018a60e0015181526020018a610100015181526020018a610120015181526020018a610140015181526020018a610160015181526020018a610180015161ffff16815250905083816040015160400181815250508581608001516040018181525050876020015181606001906001600160a01b031690816001600160a01b031681525050868860400151604001818152505083886080015160400181815250506000610132600083602001516001600160a01b03166001600160a01b0316815260200190815260200160002082610140015160405161113a9190613804565b90815260408051602092819003830190206101a085015161ffff1660009081529252902054905061116b89836114b9565b6111768983836115f3565b5050505050505050505050565b80518251146111a45760405162461bcd60e51b815260040161042090614025565b60005b8251811015610a86576111e08382815181106111bf57fe5b60200260200101518383815181106111d357fe5b602002602001015161195b565b6001016111a7565b3b151590565b60006111f9306111e8565b15905090565b600054610100900460ff168061121857506112186111ee565b80611226575060005460ff16155b6112425760405162461bcd60e51b815260040161042090613f5e565b600054610100900460ff1615801561126d576000805460ff1961ff0019909116610100171660011790555b801561127f576000805461ff00191690555b50565b600054610100900460ff168061129b575061129b6111ee565b806112a9575060005460ff16155b6112c55760405162461bcd60e51b815260040161042090613f5e565b600054610100900460ff161580156112f0576000805460ff1961ff0019909116610100171660011790555b60006112fa611799565b603380546001600160a01b0319166001600160a01b038316908117909155604051919250906000907f8be0079c531659141344cd1fd0a4f28419497f9722a3daafe3b4186f6b6457e0908290a350801561127f576000805461ff001916905550565b60976020527fd6ca216b3b8b63bcc0099d5c8294d1780d598ac9b3a29b15c3c3e68c85f6e30c80546001600160a01b039283166001600160a01b0319918216179091557f017b8d24b2a0f404d68a0b2abb80fd2d4d2105d3355f1fc48a1949fe7fce12e5805493909216928116831790915560046000527ff6fe0582e0e323a551f456b66350a1ed549948a34fdd35be011d229e00171c1f80549091169091179055565b600054610100900460ff168061141957506114196111ee565b80611427575060005460ff16155b6114435760405162461bcd60e51b815260040161042090613f5e565b600054610100900460ff1615801561146e576000805460ff1961ff0019909116610100171660011790555b61016580546001600160a01b0319166001600160a01b038416179055801561149c576000805461ff00191690555b50505050565b6114ab826119e5565b6114b58282611a45565b5050565b6020808301516001600160a01b031660009081526101329091526040808220610140850151915190916114eb91613804565b90815260200160405180910390206000846101a0015161ffff1661ffff16815260200190815260200160002054905082604001516000015160ff16600314156115ad57610132600084602001516001600160a01b03166001600160a01b0316815260200190815260200160002083610140015160405161156b9190613804565b90815260408051602092819003830190206101a086015161ffff1660009081529252902054156115ad5760405162461bcd60e51b81526004016104209061411d565b82604001516000015160ff1660041415610a865781608001516040015181018360400151604001511015610a865760405162461bcd60e51b815260040161042090613d5f565b6000806116068585858860000151611c5d565b9150915061161685858484611ce6565b600060028651600381111561162757fe5b148061163f575060038651600381111561163d57fe5b145b611649578561164b565b845b90506000856080015160400151610132600084602001516001600160a01b03166001600160a01b031681526020019081526020016000208361014001516040516116959190613804565b90815260408051602092819003830181206101a087015161ffff16600090815290845282812054878501516001600160a01b031682526101329094529190912061014086015193909201935083926116ec91613804565b90815260200160405180910390206000846101a0015161ffff1661ffff168152602001908152602001600020819055507fa49e31994a96dc315540d6ff9e29428418addfa28f6ffcc73ddad3528e40ddc1876000015188602001518860200151856101400151866101a001518b60800151604001518c608001516060015188611773611def565b60405161178899989796959493929190613b71565b60405180910390a150505050505050565b3390565b6101a081015160208083015160408085015180840151606080830151838501519351828a015160808b0151808a015194810151818901519151985160009c6117f79c909b9a9899969896979596949594929392910161436b565b604051602081830303815290604052805190602001209050919050565b6000826118218584611e2f565b1490505b9392505050565b600081602001516118408360400151611e6c565b61184d8460800151611e6c565b8460a001516040516020016117f79493929190613959565b60808201516118c15781516001600160a01b0316158015906118a0575081516001600160a01b0316611895611799565b6001600160a01b0316145b6118bc5760405162461bcd60e51b815260040161042090613f2e565b6114b5565b60006118cc83611e89565b83519091506001600160a01b03166118e2611799565b6001600160a01b031614610a865782516001600160a01b031661190e8361190884611efd565b90611f19565b6001600160a01b0316146119345760405162461bcd60e51b8152600401610420906140c0565b82516001600160a01b0316610a865760405162461bcd60e51b815260040161042090613dcd565b6020808301516001600160a01b0316600090815261013290915260408082206101408501519151909161198d91613804565b90815260408051602092819003830190206101a086015161ffff166000908152925290205490506119bd83611f64565b6119c682611f64565b6119d083836114b9565b6119da8383611faa565b610a868383836115f3565b60c081015115806119f95750428160c00151105b611a155760405162461bcd60e51b815260040161042090613fac565b60e08101511580611a295750428160e00151115b61127f5760405162461bcd60e51b815260040161042090613cfa565b60208201516001600160a01b0316611a6f5760405162461bcd60e51b815260040161042090613dcd565b60a0820151611aa55760208201516001600160a01b0316158015906118a0575081602001516001600160a01b0316611895611799565b60008083516003811115611ab557fe5b1480611acd5750600283516003811115611acb57fe5b145b15611ae257611adb83612377565b9050611b1e565b600183516003811115611af157fe5b1415611b0657611adb838461016001516123eb565b60405162461bcd60e51b815260040161042090613c16565b82602001516001600160a01b0316611b34611799565b6001600160a01b031614610a8657611b5883602001516001600160a01b03166111e8565b15611c1c576020830151630b135d3f60e11b906001600160a01b0316631626ba7e611b8284611efd565b856040518363ffffffff1660e01b8152600401611ba0929190613a77565b60206040518083038186803b158015611bb857600080fd5b505afa158015611bcc573d6000803e3d6000fd5b505050506040513d601f19601f82011682018060405250810190611bf09190613606565b6001600160e01b03191614611c175760405162461bcd60e51b815260040161042090613eb7565b610a86565b82602001516001600160a01b0316611c378361190884611efd565b6001600160a01b031614610a865760405162461bcd60e51b815260040161042090613e75565b611c65613032565b611c6d613032565b611c8186604001518660800151868661244a565b805190925060ff16611ca55760405162461bcd60e51b815260040161042090614154565b611cb986608001518660400151868661244a565b805190915060ff16611cdd5760405162461bcd60e51b815260040161042090614154565b94509492505050565b600261012f541415611d3f576040805162461bcd60e51b815260206004820152601f60248201527f5265656e7472616e637947756172643a207265656e7472616e742063616c6c00604482015290519081900360640190fd5b600261012f556040805160808082018352848252845160ff908116600090815260976020818152868320546001600160a01b03908116828801528b820180518216888a01528b8301805183166060808b01919091528a519889018b528b89528b519097168652938352938890205481169186019190915290518116958401959095525190931692810192909252611dd591612491565b5050611de38484838561251c565b5050600161012f555050565b610130805460010190819055604051600091611e11914291339160200161386f565b6040516020818303038152906040528051906020012060001c905090565b600081815b8451811015611e6457611e5a82868381518110611e4d57fe5b6020026020010151612613565b9150600101611e34565b509392505050565b6000816000015182604001516040516020016117f79291906143e9565b60007fb6f220611a11c66f474a57bf25b071aa931c6b6d69ef98d48c4b24dbcd6642568260000151611ebe8460200151612635565b8460400151611ed08660600151612680565b86608001518760a001518860c001518961018001516040516020016117f7999897969594939291906139d5565b6000611f076126c5565b826040516020016117f7929190613851565b60008151604114611f3c5760405162461bcd60e51b815260040161042090613c7d565b60208201516040830151606084015160001a611f5a86828585612705565b9695505050505050565b600181516003811115611f7357fe5b141561127f57611f8e81610160015182610180015183610680565b61127f5760405162461bcd60e51b81526004016104209061429c565b611fb9828361014001516114a2565b611fc8818261014001516114a2565b60608201516001600160a01b0316156120145781606001516001600160a01b031681602001516001600160a01b0316146120145760405162461bcd60e51b815260040161042090614259565b60608101516001600160a01b0316156120605781602001516001600160a01b031681606001516001600160a01b0316146120605760405162461bcd60e51b815260040161042090613e31565b81604001516000015160ff1660031480612085575081604001516000015160ff166004145b156121ab5760808181015160409081015191840151810151908301515160009060ff166002146120b557346120bf565b8360400151604001515b905083604001516000015160ff16600214156121855760008460400151602001516001600160a01b03166370a0823186602001516040518263ffffffff1660e01b815260040161210f9190613897565b60206040518083038186803b15801561212757600080fd5b505afa15801561213b573d6000803e3d6000fd5b505050506040513d601f19601f8201168201806040525081019061215f91906136ff565b90508284028110156121835760405162461bcd60e51b815260040161042090614180565b505b8082840211156121a75760405162461bcd60e51b8152600401610420906141b7565b5050505b80604001516000015160ff16600314806121d0575080604001516000015160ff166004145b156114b55760808281015160409081015191830151810151908401515160009060ff166002146122005734612288565b8460400151602001516001600160a01b03166370a0823186602001516040518263ffffffff1660e01b81526004016122389190613897565b60206040518083038186803b15801561225057600080fd5b505afa158015612264573d6000803e3d6000fd5b505050506040513d601f19601f8201168201806040525081019061228891906136ff565b905084604001516000015160ff166002141561234e5760008560400151602001516001600160a01b03166370a0823187602001516040518263ffffffff1660e01b81526004016122d89190613897565b60206040518083038186803b1580156122f057600080fd5b505afa158015612304573d6000803e3d6000fd5b505050506040513d601f19601f8201168201806040525081019061232891906136ff565b905082840281101561234c5760405162461bcd60e51b815260040161042090614180565b505b8082840211156123705760405162461bcd60e51b8152600401610420906141b7565b5050505050565b60007f1132f06ab722f27908a7e495b5d507bad407e55f68dcf746f8d69417e3f1928c82602001516123ac8460400151612635565b84606001516123be8660800151612635565b8660a001518760c001518860e00151896101a001516040516020016117f7999897969594939291906139d5565b60007f15fed0d06db788fb9c02b4f593bd4adff95588d2736481b94a54a44275fae9fc8360200151838560a0015160405160200161242c9493929190613a27565b60405160208183030381529060405280519060200120905092915050565b612452613032565b600061246086868686612896565b9050806000015160ff16600114156124865761247e85878686612896565b915050612489565b90505b949350505050565b8151604080820151835190910151915190919060ff16600314806124ba575083515160ff166004145b156124db576124db8460000151856040015186606001518760200151612a66565b82515160ff16600314806124f4575082515160ff166004145b15612515576125158360000151846040015185606001518660200151612a66565b9250929050565b6000826000015160ff166001148061253b5750826000015160ff166002145b905060008161254a578461254c565b855b905060008261255b578661255d565b855b905060008361256c578461256e565b855b805160408501515191925060ff9182169116141561258b57600080fd5b600061271084610100015160200151836040015102816125a757fe5b049050600061271085610120015160200151846040015102816125c657fe5b049050600081838560400151030390506125ea848287602001518960200151612dc3565b6125fa8484308960200151612dc3565b6111768483886101200151600001518960200151612dc3565b600081831061262b576126268284612e1d565b611825565b6118258383612e1d565b60007f3eb30932c8579e044a08d6c2db9cfbbe826c3c715d5f913a07fdb3b62620fc2c82600001518360200151846040015185606001516040516020016117f7959493929190613ab7565b60007f41de7d6f279b5bdc25bb5bd3ccb732106044c7be8050d6927da35e2210c6000b8260000151836020015184604001516040516020016117f79493929190613a90565b60006127007f8b73c3c69bb8fe3d512ecc4cf759cc79239f7b179b0ffacaa9a75d522b39400f6126f3612e2c565b6126fb612e32565b612e38565b905090565b60007f7fffffffffffffffffffffffffffffff5d576e7357a4501ddfe92f46681b20a08211156127475760405162461bcd60e51b815260040161042090613def565b6000601e8560ff1611156127ed576004850360ff16601b148061277057506004850360ff16601c145b61278c5760405162461bcd60e51b815260040161042090613fe3565b600161279787612e79565b600487038686604051600081526020016040526040516127ba9493929190613ae6565b6020604051602081039080840390855afa1580156127dc573d6000803e3d6000fd5b505050602060405103519050612870565b8460ff16601b148061280257508460ff16601c145b61281e5760405162461bcd60e51b815260040161042090613fe3565b600186868686604051600081526020016040526040516128419493929190613ae6565b6020604051602081039080840390855afa158015612863573d6000803e3d6000fd5b5050506020604051035190505b6001600160a01b0381166124865760405162461bcd60e51b815260040161042090613bdf565b61289e613032565b600080866000015160ff16600114156128fd57856000015160ff16600114156128cb578692505050612489565b60408051608081018252600081526001600160a01b039092166020830152810182905260608101919091529050612489565b866000015160ff166002141561293157856000015160ff16600214156128cb57612928878786612e8c565b92505050612489565b866000015160ff166003141561295c57856000015160ff16600314156128cb57612928878786612e8c565b866000015160ff166004141561298757856000015160ff16600414156128cb57612928878787612f32565b865160ff166000908152606560205260409020546001600160a01b03168015612a3257604051638dc614ff60e01b81526001600160a01b03821690638dc614ff906129d8908b908b9060040161434f565b60806040518083038186803b1580156129f057600080fd5b505afa158015612a04573d6000803e3d6000fd5b505050506040513d601f19601f82011682018060405250810190612a289190613660565b9350505050612489565b8651885160ff90811691161415612a4e57612a28888887612e8c565b60405162461bcd60e51b815260040161042090613c46565b836000015160ff1660031415612b8b578360400151600114612a9a5760405162461bcd60e51b815260040161042090613f02565b6001600160a01b038316301415612b1b5760208401516060850151604051632142170760e11b81526001600160a01b03909216916342842e0e91612ae491309187916004016138fd565b600060405180830381600087803b158015612afe57600080fd5b505af1158015612b12573d6000803e3d6000fd5b50505050612b86565b60208401516060850151604051637b84dc8360e11b81526001600160a01b0384169263f709b90692612b539288918891600401613b47565b600060405180830381600087803b158015612b6d57600080fd5b505af1158015612b81573d6000803e3d6000fd5b505050505b61149c565b836000015160ff1660021415612c8d576001600160a01b038316301415612c555783602001516001600160a01b031663a9059cbb8386604001516040518363ffffffff1660e01b8152600401612be292919061397f565b602060405180830381600087803b158015612bfc57600080fd5b505af1158015612c10573d6000803e3d6000fd5b505050506040513d601f19601f82011682018060405250810190612c349190613565565b612c505760405162461bcd60e51b815260040161042090614091565b612b86565b6020840151604080860151905163776062c360e01b81526001600160a01b0384169263776062c392612b539288918891600401613b47565b836000015160ff1660041415612d2c576001600160a01b038316301415612cec5783602001516001600160a01b031663f242432a3084876060015188604001516040518563ffffffff1660e01b8152600401612ae49493929190613921565b602084015160608501516040808701519051639c1c2ee960e01b81526001600160a01b03851693639c1c2ee993612b539391928992899291600401613b04565b836000015160ff1660011415612d65576001600160a01b0382163014612b86576040840151612b86906001600160a01b03841690612fb2565b604051632571282360e21b81526001600160a01b038216906395c4a08c90612d959087908790879060040161431f565b600060405180830381600087803b158015612daf57600080fd5b505af1158015610614573d6000803e3d6000fd5b60408051608081018252855160ff90811682526020808801516001600160a01b03908116828501528385018890526060808a015190850152885190921660009081526097909152929092205461149c928491869116612a66565b60009182526020526040902090565b60c95490565b60ca5490565b6000838383612e4561302e565b30604051602001612e5a959493929190613a4b565b6040516020818303038152906040528051906020012090509392505050565b6000816040516020016117f79190613820565b612e94613032565b600080846000015160ff16866000015160ff161415612efe576003846003811115612ebb57fe5b141580612ed05750856000015160ff16600314155b15612ef457846040015186604001511415612eef578592505050611825565b612efe565b8592505050611825565b60408051608081018252600181526001600160a01b0390921660208301528101829052606081019190915290509392505050565b612f3a613032565b600080856000015160ff1660041415612f7e578451865160ff9081169116148015612f6f575084604001518401866040015110155b15612f7e578492505050611825565b60408051608081018252600081526001600160a01b0390921660208301528101829052606081019190915290509392505050565b6000826001600160a01b031682604051612fcb9061386c565b60006040518083038185875af1925050503d8060008114613008576040519150601f19603f3d011682016040523d82523d6000602084013e61300d565b606091505b5050905080610a865760405162461bcd60e51b8152600401610420906141ee565b4690565b6040518060800160405280600060ff16815260200160006001600160a01b0316815260200160008152602001600081525090565b8035610a27816145c4565b600082601f830112613081578081fd5b813560206130966130918361444b565b614428565b82815281810190858301838502870184018810156130b2578586fd5b855b858110156130d0578135845292840192908401906001016130b4565b5090979650505050505050565b600082601f8301126130ed578081fd5b813560206130fd6130918361444b565b82815281810190858301855b858110156130d057613120898684358b01016132e1565b84529284019290840190600101613109565b600082601f830112613142578081fd5b81356001600160401b0381111561315557fe5b613168601f8201601f1916602001614428565b81815284602083860101111561317c578283fd5b816020850160208301379081016020019190915292915050565b803560048110610a2757600080fd5b6000604082840312156131b6578081fd5b50919050565b6000608082840312156131cd578081fd5b604051608081018181106001600160401b03821117156131e957fe5b60405290508082356131fa816145d9565b8152602083013561320a816145c4565b8060208301525060408301356040820152606083013560608201525092915050565b60006060828403121561323d578081fd5b604051606081018181106001600160401b038211171561325957fe5b604052905080823561326a816145d9565b8152602083013561327a816145c4565b6020820152604092830135920191909152919050565b6000604082840312156132a1578081fd5b604051604081018181106001600160401b03821117156132bd57fe5b60405290508082356132ce816145c4565b8152602092830135920191909152919050565b60006102c082840312156132f3578081fd5b6101c06132ff81614428565b915061330a83613196565b825261331860208401613066565b602083015261332a84604085016131bc565b604083015261333b60c08401613066565b606083015261334d8460e085016131bc565b60808301526101608084013560a08401526101808085013560c08501526101a08086013560e086015261338287858801613290565b610100860152613396876102008801613290565b61012086015261024086013593506001600160401b03808511156133b957600080fd5b6133c588868901613132565b610140870152610260870135848701526102808701359450808511156133ea57600080fd5b506133f787858801613071565b828601526134086102a08701613416565b818601525050505092915050565b803561ffff81168114610a2757600080fd5b803565ffffffffffff81168114610a2757600080fd5b60006020828403121561344f578081fd5b8135611825816145c4565b600080600080600060a08688031215613471578081fd5b853561347c816145c4565b9450602086013561348c816145c4565b93506040860135925060608601356134a3816145c4565b915060808601356134b3816145c4565b809150509295509295909350565b6000806000606084860312156134d5578081fd5b83356134e0816145c4565b92506134ee60208501613428565b91506134fc60408501613428565b90509250925092565b60008060408385031215613517578182fd5b82356001600160401b038082111561352d578384fd5b613539868387016130dd565b9350602085013591508082111561354e578283fd5b5061355b858286016130dd565b9150509250929050565b600060208284031215613576578081fd5b81518015158114611825578182fd5b600060208284031215613596578081fd5b5035919050565b6000806000606084860312156135b1578081fd5b8335925060208401356001600160401b03808211156135ce578283fd5b6135da87838801613071565b935060408601359150808211156135ef578283fd5b506135fc868287016132e1565b9150509250925092565b600060208284031215613617578081fd5b81516001600160e01b031981168114611825578182fd5b60006020828403121561363f578081fd5b81356001600160401b03811115613654578182fd5b612489848285016131a5565b600060808284031215613671578081fd5b604051608081018181106001600160401b038211171561368d57fe5b604052825161369b816145d9565b815260208301516136ab816145c4565b6020820152604083810151908201526060928301519281019290925250919050565b6000602082840312156136de578081fd5b81356001600160401b038111156136f3578182fd5b612489848285016132e1565b600060208284031215613710578081fd5b5051919050565b60008060408385031215613729578182fd5b82359150602083013561373b816145c4565b809150509250929050565b600060208284031215613757578081fd5b61182582613428565b600060208284031215613771578081fd5b8135611825816145d9565b6000806040838503121561378e578182fd5b8235613799816145d9565b9150602083013561373b816145c4565b600081518084526137c1816020860160208601614598565b601f01601f19169290920160200192915050565b805160ff1682526020808201516001600160a01b03169083015260408082015190830152606090810151910152565b60008251613816818460208701614598565b9190910192915050565b7f19457468657265756d205369676e6564204d6573736167653a0a3332000000008152601c810191909152603c0190565b61190160f01b81526002810192909252602282015260420190565b90565b92835260609190911b6bffffffffffffffffffffffff19166020830152603482015260540190565b6001600160a01b0391909116815260200190565b6001600160a01b03841681526060602082018190526000906138cf908301856137a9565b905061ffff83166040830152949350505050565b6001600160a01b0392831681529116602082015260400190565b6001600160a01b039384168152919092166020820152604081019190915260600190565b6001600160a01b0394851681529290931660208301526040820152606081019190915260a06080820181905260009082015260c00190565b6001600160a01b0394909416845260208401929092526040830152606082015260800190565b6001600160a01b03929092168252602082015260400190565b6001600160a01b0393909316835265ffffffffffff918216602084015216604082015260600190565b901515815260200190565b90815260200190565b9889526001600160a01b0397881660208a01526040890196909652939095166060870152608086019190915260a085015260c084019290925260e083019190915261ffff166101008201526101200190565b9384526001600160a01b039290921660208401526040830152606082015260800190565b9485526020850193909352604084019190915260608301526001600160a01b0316608082015260a00190565b60008382526040602083015261248960408301846137a9565b93845260ff9290921660208401526001600160a01b03166040830152606082015260800190565b94855260ff9390931660208501526001600160a01b039190911660408401526060830152608082015260a00190565b93845260ff9290921660208401526040830152606082015260800190565b6001600160a01b03958616815293851660208501529190931660408301526060820192909252608081019190915260c060a0820181905260009082015260e00190565b6001600160a01b039485168152928416602084015292166040820152606081019190915260800190565b600061012060048c10613b8057fe5b8b83526001600160a01b038b811660208501528a16604084015260608301819052613bad8184018a6137a9565b61ffff989098166080840152505060a081019490945260c084019290925260e083015261010090910152949350505050565b60208082526018908201527f45434453413a20696e76616c6964207369676e61747572650000000000000000604082015260600190565b602080825260169082015275556e737570706f72746564206f72646572207479706560501b604082015260600190565b60208082526017908201527f6e6f7420666f756e64204941737365744d617463686572000000000000000000604082015260600190565b6020808252601f908201527f45434453413a20696e76616c6964207369676e6174757265206c656e67746800604082015260600190565b60208082526026908201527f4f776e61626c653a206e6577206f776e657220697320746865207a65726f206160408201526564647265737360d01b606082015260800190565b6020808252601b908201527f4f7264657220656e642076616c69646174696f6e206661696c65640000000000604082015260600190565b6020808252601490820152730c081cd85b1d0818d85b89dd081899481d5cd95960621b604082015260600190565b60208082526018908201527f4f7264657220686173206265656e2066756c66696c6c65640000000000000000604082015260600190565b6020808252601c908201527f426964204552432d323020616d6f756e74206e6f7420656e6f75676800000000604082015260600190565b60208082526008908201526737379036b0b5b2b960c11b604082015260600190565b60208082526022908201527f45434453413a20696e76616c6964207369676e6174757265202773272076616c604082015261756560f01b606082015260800190565b60208082526024908201527f72696768744f726465722e74616b657220766572696669636174696f6e2066616040820152631a5b195960e21b606082015260800190565b60208082526022908201527f6f72646572207369676e617475726520766572696669636174696f6e2065727260408201526137b960f11b606082015260800190565b6020808252602b908201527f636f6e7472616374206f72646572207369676e6174757265207665726966696360408201526a30ba34b7b71032b93937b960a91b606082015260800190565b60208082526012908201527132b9319b9918903b30b63ab29032b93937b960711b604082015260600190565b60208082526016908201527536b0b5b2b91034b9903737ba103a3c1039b2b73232b960511b604082015260600190565b6020808252602e908201527f496e697469616c697a61626c653a20636f6e747261637420697320616c72656160408201526d191e481a5b9a5d1a585b1a5e995960921b606082015260800190565b6020808252601d908201527f4f726465722073746172742076616c69646174696f6e206661696c6564000000604082015260600190565b60208082526022908201527f45434453413a20696e76616c6964207369676e6174757265202776272076616c604082015261756560f01b606082015260800190565b60208082526018908201527f4d69736d617463686564206f72646572206c656e677468730000000000000000604082015260600190565b6020808252818101527f4f776e61626c653a2063616c6c6572206973206e6f7420746865206f776e6572604082015260600190565b602080825260159082015274195c98cc8c081d1c985b9cd9995c8819985a5b1959605a1b604082015260600190565b6020808252603b908201527f6f72646572207369676e617475726520766572696669636174696f6e20666f7260408201527f2062696420636f6c6c656374696f6e206f72646572206572726f720000000000606082015260800190565b60208082526018908201527f4f7264657220686173206265656e2063616e63656c6c65640000000000000000604082015260600190565b6020808252601290820152710c2e6e6cae8e640c8dedc4ee840dac2e8c6d60731b604082015260600190565b60208082526018908201527f45524332302062616c616e6365206e6f7420656e6f7567680000000000000000604082015260600190565b6020808252601a908201527f5370656e64696e6720616d6f756e74206e6f7420656e6f756768000000000000604082015260600190565b6020808252600f908201526e1d1c985b9cd9995c8819985a5b1959608a1b604082015260600190565b60208082526022908201527f416363657074206269642071747920686967686572207468616e206269642071604082015261747960f01b606082015260800190565b60208082526023908201527f6c6566744f726465722e74616b657220766572696669636174696f6e206661696040820152621b195960ea1b606082015260800190565b6020808252600f908201526e496e76616c6964206c697374696e6760881b604082015260600190565b6020808252600b908201526a3737ba10309036b0b5b2b960a91b604082015260600190565b6020808252818101527f4f7264657220616c72656164792063616e63656c6564206f722066696c6c6564604082015260600190565b60c0810161432d82866137d5565b6001600160a01b0393841660808301529190921660a090920191909152919050565b610100810161435e82856137d5565b61182560808301846137d5565b61ffff9b909b168b526001600160a01b03998a1660208c015297891660408b015260608a0196909652608089019490945260ff92831660a089015290861660c088015290941660e0860152610100850152610120840152166101408201526101600190565b65ffffffffffff92831681529116602082015260400190565b60ff929092168252602082015260400190565b6000823561027e19833603018112613816578182fd5b600082356102be19833603018112613816578182fd5b6040518181016001600160401b038111828210171561444357fe5b604052919050565b60006001600160401b0382111561445e57fe5b5060209081020190565b6000610280823603121561447a578081fd5b6144856101a0614428565b61448e83613066565b815261449d36602085016131bc565b60208201526144ae60a08401613066565b60408201526144c03660c0850161322c565b60608201526101208084013560808301526101408085013560a08401526101608086013560c08501526101806144f836828901613290565b60e086015261450b366101c08901613290565b6101008601526102008701356001600160401b038082111561452b578788fd5b61453736838b01613132565b8688015261022089013585880152610240890135955080861115614559578788fd5b505061456736858901613071565b828601526145786102608801613416565b908501525091949350505050565b600061459236836132e1565b92915050565b60005b838110156145b357818101518382015260200161459b565b8381111561149c5750506000910152565b6001600160a01b038116811461127f57600080fd5b60ff8116811461127f57600080fdfea264697066735822122077e0f3f3d5ee5a0033c4b3c178d098aec39830164f0fb3e512053434f4f77f5764736f6c63430007060033",
  "linkReferences": {},
  "deployedLinkReferences": {}
}