{
  "_format": "hh-sol-artifact-1",
  "contractName": "ExchangeV2",
  "sourceName": "contracts/ExchangeV2.sol",
  "abi": [
    {
      "inputs": [],
      "stateMutability": "nonpayable",
      "type": "constructor"
    },
    {
      "anonymous": false,
      "inputs": [
        {
          "indexed": false,
          "internalType": "uint256",
          "name": "oldValue",
          "type": "uint256"
        },
        {
          "indexed": false,
          "internalType": "uint256",
          "name": "newValue",
          "type": "uint256"
        }
      ],
      "name": "BuyerFeeAmountChanged",
      "type": "event"
    },
    {
      "anonymous": false,
      "inputs": [
        {
          "indexed": false,
          "internalType": "bytes32",
          "name": "hash",
          "type": "bytes32"
        }
      ],
      "name": "Cancel",
      "type": "event"
    },
    {
      "anonymous": false,
      "inputs": [
        {
          "indexed": false,
          "internalType": "address",
          "name": "maker",
          "type": "address"
        },
        {
          "indexed": false,
          "internalType": "bytes",
          "name": "sig",
          "type": "bytes"
        },
        {
          "indexed": false,
          "internalType": "uint16",
          "name": "index",
          "type": "uint16"
        }
      ],
      "name": "CancelOrder",
      "type": "event"
    },
    {
      "anonymous": false,
      "inputs": [
        {
          "indexed": false,
          "internalType": "address",
          "name": "oldValue",
          "type": "address"
        },
        {
          "indexed": false,
          "internalType": "address",
          "name": "newValue",
          "type": "address"
        }
      ],
      "name": "FeeReceiverChanged",
      "type": "event"
    },
    {
      "anonymous": false,
      "inputs": [
        {
          "indexed": false,
          "internalType": "enum LibOrder.OrderType",
          "name": "orderType",
          "type": "uint8"
        },
        {
          "indexed": false,
          "internalType": "address",
          "name": "maker",
          "type": "address"
        },
        {
          "indexed": false,
          "internalType": "address",
          "name": "taker",
          "type": "address"
        },
        {
          "indexed": false,
          "internalType": "bytes",
          "name": "sig",
          "type": "bytes"
        },
        {
          "indexed": false,
          "internalType": "uint16",
          "name": "index",
          "type": "uint16"
        },
        {
          "indexed": false,
          "internalType": "uint256",
          "name": "takeQty",
          "type": "uint256"
        },
        {
          "indexed": false,
          "internalType": "uint256",
          "name": "takeAssetId",
          "type": "uint256"
        },
        {
          "indexed": false,
          "internalType": "uint256",
          "name": "currentFilledValue",
          "type": "uint256"
        },
        {
          "indexed": false,
          "internalType": "uint256",
          "name": "randomValue",
          "type": "uint256"
        }
      ],
      "name": "FillOrder",
      "type": "event"
    },
    {
      "anonymous": false,
      "inputs": [
        {
          "indexed": false,
          "internalType": "bytes32",
          "name": "leftHash",
          "type": "bytes32"
        },
        {
          "indexed": false,
          "internalType": "bytes32",
          "name": "rightHash",
          "type": "bytes32"
        },
        {
          "indexed": false,
          "internalType": "uint256",
          "name": "newLeftFill",
          "type": "uint256"
        },
        {
          "indexed": false,
          "internalType": "uint256",
          "name": "newRightFill",
          "type": "uint256"
        }
      ],
      "name": "Match",
      "type": "event"
    },
    {
      "anonymous": false,
      "inputs": [
        {
          "indexed": true,
          "internalType": "uint256",
          "name": "assetType",
          "type": "uint256"
        },
        {
          "indexed": false,
          "internalType": "address",
          "name": "matcher",
          "type": "address"
        }
      ],
      "name": "MatcherChange",
      "type": "event"
    },
    {
      "anonymous": false,
      "inputs": [
        {
          "indexed": true,
          "internalType": "address",
          "name": "previousOwner",
          "type": "address"
        },
        {
          "indexed": true,
          "internalType": "address",
          "name": "newOwner",
          "type": "address"
        }
      ],
      "name": "OwnershipTransferred",
      "type": "event"
    },
    {
      "anonymous": false,
      "inputs": [
        {
          "indexed": true,
          "internalType": "uint256",
          "name": "assetType",
          "type": "uint256"
        },
        {
          "indexed": false,
          "internalType": "address",
          "name": "proxy",
          "type": "address"
        }
      ],
      "name": "ProxyChange",
      "type": "event"
    },
    {
      "anonymous": false,
      "inputs": [
        {
          "indexed": false,
          "internalType": "uint256",
          "name": "oldValue",
          "type": "uint256"
        },
        {
          "indexed": false,
          "internalType": "uint256",
          "name": "newValue",
          "type": "uint256"
        }
      ],
      "name": "SellerFeeAmountChanged",
      "type": "event"
    },
    {
      "inputs": [
        {
          "internalType": "address",
          "name": "_transferProxy",
          "type": "address"
        },
        {
          "internalType": "address",
          "name": "_erc20TransferProxy",
          "type": "address"
        },
        {
          "internalType": "uint256",
          "name": "newProtocolFee",
          "type": "uint256"
        },
        {
          "internalType": "address",
          "name": "newDefaultFeeReceiver",
          "type": "address"
        },
        {
          "internalType": "contract IRoyaltiesProvider",
          "name": "newRoyaltiesProvider",
          "type": "address"
        }
      ],
      "name": "__ExchangeV2_init",
      "outputs": [],
      "stateMutability": "nonpayable",
      "type": "function"
    },
    {
      "inputs": [],
      "name": "_owner",
      "outputs": [
        {
          "internalType": "address",
          "name": "",
          "type": "address"
        }
      ],
      "stateMutability": "view",
      "type": "function"
    },
    {
      "inputs": [
        {
          "components": [
            {
              "internalType": "enum LibOrder.OrderType",
              "name": "orderType",
              "type": "uint8"
            },
            {
              "internalType": "address",
              "name": "maker",
              "type": "address"
            },
            {
              "components": [
                {
                  "internalType": "uint8",
                  "name": "assetType",
                  "type": "uint8"
                },
                {
                  "internalType": "address",
                  "name": "contractAddress",
                  "type": "address"
                },
                {
                  "internalType": "uint256",
                  "name": "value",
                  "type": "uint256"
                },
                {
                  "internalType": "uint256",
                  "name": "id",
                  "type": "uint256"
                }
              ],
              "internalType": "struct LibAsset.Asset",
              "name": "makeAsset",
              "type": "tuple"
            },
            {
              "internalType": "address",
              "name": "taker",
              "type": "address"
            },
            {
              "components": [
                {
                  "internalType": "uint8",
                  "name": "assetType",
                  "type": "uint8"
                },
                {
                  "internalType": "address",
                  "name": "contractAddress",
                  "type": "address"
                },
                {
                  "internalType": "uint256",
                  "name": "value",
                  "type": "uint256"
                },
                {
                  "internalType": "uint256",
                  "name": "id",
                  "type": "uint256"
                }
              ],
              "internalType": "struct LibAsset.Asset",
              "name": "takeAsset",
              "type": "tuple"
            },
            {
              "internalType": "uint256",
              "name": "salt",
              "type": "uint256"
            },
            {
              "internalType": "uint256",
              "name": "start",
              "type": "uint256"
            },
            {
              "internalType": "uint256",
              "name": "end",
              "type": "uint256"
            },
            {
              "components": [
                {
                  "internalType": "address",
                  "name": "receiver",
                  "type": "address"
                },
                {
                  "internalType": "uint256",
                  "name": "amount",
                  "type": "uint256"
                }
              ],
              "internalType": "struct LibOrder.Fee",
              "name": "originFee",
              "type": "tuple"
            },
            {
              "components": [
                {
                  "internalType": "address",
                  "name": "receiver",
                  "type": "address"
                },
                {
                  "internalType": "uint256",
                  "name": "amount",
                  "type": "uint256"
                }
              ],
              "internalType": "struct LibOrder.Fee",
              "name": "royaltyFee",
              "type": "tuple"
            },
            {
              "internalType": "bytes",
              "name": "sig",
              "type": "bytes"
            },
            {
              "internalType": "bytes32",
              "name": "root",
              "type": "bytes32"
            },
            {
              "internalType": "bytes32[]",
              "name": "proof",
              "type": "bytes32[]"
            },
            {
              "internalType": "uint16",
              "name": "index",
              "type": "uint16"
            }
          ],
          "internalType": "struct LibOrder.Order",
          "name": "order",
          "type": "tuple"
        }
      ],
      "name": "cancel",
      "outputs": [],
      "stateMutability": "nonpayable",
      "type": "function"
    },
    {
      "inputs": [
        {
          "components": [
            {
              "internalType": "enum LibOrder.OrderType",
              "name": "orderType",
              "type": "uint8"
            },
            {
              "internalType": "address",
              "name": "maker",
              "type": "address"
            },
            {
              "components": [
                {
                  "internalType": "uint8",
                  "name": "assetType",
                  "type": "uint8"
                },
                {
                  "internalType": "address",
                  "name": "contractAddress",
                  "type": "address"
                },
                {
                  "internalType": "uint256",
                  "name": "value",
                  "type": "uint256"
                },
                {
                  "internalType": "uint256",
                  "name": "id",
                  "type": "uint256"
                }
              ],
              "internalType": "struct LibAsset.Asset",
              "name": "makeAsset",
              "type": "tuple"
            },
            {
              "internalType": "address",
              "name": "taker",
              "type": "address"
            },
            {
              "components": [
                {
                  "internalType": "uint8",
                  "name": "assetType",
                  "type": "uint8"
                },
                {
                  "internalType": "address",
                  "name": "contractAddress",
                  "type": "address"
                },
                {
                  "internalType": "uint256",
                  "name": "value",
                  "type": "uint256"
                },
                {
                  "internalType": "uint256",
                  "name": "id",
                  "type": "uint256"
                }
              ],
              "internalType": "struct LibAsset.Asset",
              "name": "takeAsset",
              "type": "tuple"
            },
            {
              "internalType": "uint256",
              "name": "salt",
              "type": "uint256"
            },
            {
              "internalType": "uint256",
              "name": "start",
              "type": "uint256"
            },
            {
              "internalType": "uint256",
              "name": "end",
              "type": "uint256"
            },
            {
              "components": [
                {
                  "internalType": "address",
                  "name": "receiver",
                  "type": "address"
                },
                {
                  "internalType": "uint256",
                  "name": "amount",
                  "type": "uint256"
                }
              ],
              "internalType": "struct LibOrder.Fee",
              "name": "originFee",
              "type": "tuple"
            },
            {
              "components": [
                {
                  "internalType": "address",
                  "name": "receiver",
                  "type": "address"
                },
                {
                  "internalType": "uint256",
                  "name": "amount",
                  "type": "uint256"
                }
              ],
              "internalType": "struct LibOrder.Fee",
              "name": "royaltyFee",
              "type": "tuple"
            },
            {
              "internalType": "bytes",
              "name": "sig",
              "type": "bytes"
            },
            {
              "internalType": "bytes32",
              "name": "root",
              "type": "bytes32"
            },
            {
              "internalType": "bytes32[]",
              "name": "proof",
              "type": "bytes32[]"
            },
            {
              "internalType": "uint16",
              "name": "index",
              "type": "uint16"
            }
          ],
          "internalType": "struct LibOrder.Order",
          "name": "order",
          "type": "tuple"
        }
      ],
      "name": "cancelOrder",
      "outputs": [],
      "stateMutability": "nonpayable",
      "type": "function"
    },
    {
      "inputs": [
        {
          "components": [
            {
              "components": [
                {
                  "internalType": "enum LibOrder.OrderType",
                  "name": "orderType",
                  "type": "uint8"
                },
                {
                  "internalType": "address",
                  "name": "maker",
                  "type": "address"
                },
                {
                  "components": [
                    {
                      "internalType": "uint8",
                      "name": "assetType",
                      "type": "uint8"
                    },
                    {
                      "internalType": "address",
                      "name": "contractAddress",
                      "type": "address"
                    },
                    {
                      "internalType": "uint256",
                      "name": "value",
                      "type": "uint256"
                    },
                    {
                      "internalType": "uint256",
                      "name": "id",
                      "type": "uint256"
                    }
                  ],
                  "internalType": "struct LibAsset.Asset",
                  "name": "makeAsset",
                  "type": "tuple"
                },
                {
                  "internalType": "address",
                  "name": "taker",
                  "type": "address"
                },
                {
                  "components": [
                    {
                      "internalType": "uint8",
                      "name": "assetType",
                      "type": "uint8"
                    },
                    {
                      "internalType": "address",
                      "name": "contractAddress",
                      "type": "address"
                    },
                    {
                      "internalType": "uint256",
                      "name": "value",
                      "type": "uint256"
                    },
                    {
                      "internalType": "uint256",
                      "name": "id",
                      "type": "uint256"
                    }
                  ],
                  "internalType": "struct LibAsset.Asset",
                  "name": "takeAsset",
                  "type": "tuple"
                },
                {
                  "internalType": "uint256",
                  "name": "salt",
                  "type": "uint256"
                },
                {
                  "internalType": "uint256",
                  "name": "start",
                  "type": "uint256"
                },
                {
                  "internalType": "uint256",
                  "name": "end",
                  "type": "uint256"
                },
                {
                  "components": [
                    {
                      "internalType": "address",
                      "name": "receiver",
                      "type": "address"
                    },
                    {
                      "internalType": "uint256",
                      "name": "amount",
                      "type": "uint256"
                    }
                  ],
                  "internalType": "struct LibOrder.Fee",
                  "name": "originFee",
                  "type": "tuple"
                },
                {
                  "components": [
                    {
                      "internalType": "address",
                      "name": "receiver",
                      "type": "address"
                    },
                    {
                      "internalType": "uint256",
                      "name": "amount",
                      "type": "uint256"
                    }
                  ],
                  "internalType": "struct LibOrder.Fee",
                  "name": "royaltyFee",
                  "type": "tuple"
                },
                {
                  "internalType": "bytes",
                  "name": "sig",
                  "type": "bytes"
                },
                {
                  "internalType": "bytes32",
                  "name": "root",
                  "type": "bytes32"
                },
                {
                  "internalType": "bytes32[]",
                  "name": "proof",
                  "type": "bytes32[]"
                },
                {
                  "internalType": "uint16",
                  "name": "index",
                  "type": "uint16"
                }
              ],
              "internalType": "struct LibOrder.Order",
              "name": "bidOrder",
              "type": "tuple"
            },
            {
              "components": [
                {
                  "internalType": "enum LibOrder.OrderType",
                  "name": "orderType",
                  "type": "uint8"
                },
                {
                  "internalType": "address",
                  "name": "maker",
                  "type": "address"
                },
                {
                  "components": [
                    {
                      "internalType": "uint8",
                      "name": "assetType",
                      "type": "uint8"
                    },
                    {
                      "internalType": "address",
                      "name": "contractAddress",
                      "type": "address"
                    },
                    {
                      "internalType": "uint256",
                      "name": "value",
                      "type": "uint256"
                    },
                    {
                      "internalType": "uint256",
                      "name": "id",
                      "type": "uint256"
                    }
                  ],
                  "internalType": "struct LibAsset.Asset",
                  "name": "makeAsset",
                  "type": "tuple"
                },
                {
                  "internalType": "address",
                  "name": "taker",
                  "type": "address"
                },
                {
                  "components": [
                    {
                      "internalType": "uint8",
                      "name": "assetType",
                      "type": "uint8"
                    },
                    {
                      "internalType": "address",
                      "name": "contractAddress",
                      "type": "address"
                    },
                    {
                      "internalType": "uint256",
                      "name": "value",
                      "type": "uint256"
                    },
                    {
                      "internalType": "uint256",
                      "name": "id",
                      "type": "uint256"
                    }
                  ],
                  "internalType": "struct LibAsset.Asset",
                  "name": "takeAsset",
                  "type": "tuple"
                },
                {
                  "internalType": "uint256",
                  "name": "salt",
                  "type": "uint256"
                },
                {
                  "internalType": "uint256",
                  "name": "start",
                  "type": "uint256"
                },
                {
                  "internalType": "uint256",
                  "name": "end",
                  "type": "uint256"
                },
                {
                  "components": [
                    {
                      "internalType": "address",
                      "name": "receiver",
                      "type": "address"
                    },
                    {
                      "internalType": "uint256",
                      "name": "amount",
                      "type": "uint256"
                    }
                  ],
                  "internalType": "struct LibOrder.Fee",
                  "name": "originFee",
                  "type": "tuple"
                },
                {
                  "components": [
                    {
                      "internalType": "address",
                      "name": "receiver",
                      "type": "address"
                    },
                    {
                      "internalType": "uint256",
                      "name": "amount",
                      "type": "uint256"
                    }
                  ],
                  "internalType": "struct LibOrder.Fee",
                  "name": "royaltyFee",
                  "type": "tuple"
                },
                {
                  "internalType": "bytes",
                  "name": "sig",
                  "type": "bytes"
                },
                {
                  "internalType": "bytes32",
                  "name": "root",
                  "type": "bytes32"
                },
                {
                  "internalType": "bytes32[]",
                  "name": "proof",
                  "type": "bytes32[]"
                },
                {
                  "internalType": "uint16",
                  "name": "index",
                  "type": "uint16"
                }
              ],
              "internalType": "struct LibOrder.Order",
              "name": "sellOrder",
              "type": "tuple"
            }
          ],
          "internalType": "struct LibDirectTransfer.AcceptBid",
          "name": "direct",
          "type": "tuple"
        }
      ],
      "name": "directAcceptBid",
      "outputs": [],
      "stateMutability": "payable",
      "type": "function"
    },
    {
      "inputs": [
        {
          "components": [
            {
              "components": [
                {
                  "internalType": "address",
                  "name": "maker",
                  "type": "address"
                },
                {
                  "components": [
                    {
                      "internalType": "uint8",
                      "name": "assetType",
                      "type": "uint8"
                    },
                    {
                      "internalType": "address",
                      "name": "contractAddress",
                      "type": "address"
                    },
                    {
                      "internalType": "uint256",
                      "name": "value",
                      "type": "uint256"
                    },
                    {
                      "internalType": "uint256",
                      "name": "id",
                      "type": "uint256"
                    }
                  ],
                  "internalType": "struct LibAsset.Asset",
                  "name": "makeAsset",
                  "type": "tuple"
                },
                {
                  "internalType": "address",
                  "name": "taker",
                  "type": "address"
                },
                {
                  "components": [
                    {
                      "internalType": "uint8",
                      "name": "assetType",
                      "type": "uint8"
                    },
                    {
                      "internalType": "address",
                      "name": "contractAddress",
                      "type": "address"
                    },
                    {
                      "internalType": "uint256",
                      "name": "value",
                      "type": "uint256"
                    }
                  ],
                  "internalType": "struct LibAsset.CollectionAsset",
                  "name": "bidCollectionAsset",
                  "type": "tuple"
                },
                {
                  "internalType": "uint256",
                  "name": "salt",
                  "type": "uint256"
                },
                {
                  "internalType": "uint256",
                  "name": "start",
                  "type": "uint256"
                },
                {
                  "internalType": "uint256",
                  "name": "end",
                  "type": "uint256"
                },
                {
                  "components": [
                    {
                      "internalType": "address",
                      "name": "receiver",
                      "type": "address"
                    },
                    {
                      "internalType": "uint256",
                      "name": "amount",
                      "type": "uint256"
                    }
                  ],
                  "internalType": "struct LibOrder.Fee",
                  "name": "originFee",
                  "type": "tuple"
                },
                {
                  "components": [
                    {
                      "internalType": "address",
                      "name": "receiver",
                      "type": "address"
                    },
                    {
                      "internalType": "uint256",
                      "name": "amount",
                      "type": "uint256"
                    }
                  ],
                  "internalType": "struct LibOrder.Fee",
                  "name": "royaltyFee",
                  "type": "tuple"
                },
                {
                  "internalType": "bytes",
                  "name": "sig",
                  "type": "bytes"
                },
                {
                  "internalType": "bytes32",
                  "name": "root",
                  "type": "bytes32"
                },
                {
                  "internalType": "bytes32[]",
                  "name": "proof",
                  "type": "bytes32[]"
                },
                {
                  "internalType": "uint16",
                  "name": "index",
                  "type": "uint16"
                }
              ],
              "internalType": "struct LibOrder.BidCollectionOrder",
              "name": "bidOrder",
              "type": "tuple"
            },
            {
              "components": [
                {
                  "internalType": "enum LibOrder.OrderType",
                  "name": "orderType",
                  "type": "uint8"
                },
                {
                  "internalType": "address",
                  "name": "maker",
                  "type": "address"
                },
                {
                  "components": [
                    {
                      "internalType": "uint8",
                      "name": "assetType",
                      "type": "uint8"
                    },
                    {
                      "internalType": "address",
                      "name": "contractAddress",
                      "type": "address"
                    },
                    {
                      "internalType": "uint256",
                      "name": "value",
                      "type": "uint256"
                    },
                    {
                      "internalType": "uint256",
                      "name": "id",
                      "type": "uint256"
                    }
                  ],
                  "internalType": "struct LibAsset.Asset",
                  "name": "makeAsset",
                  "type": "tuple"
                },
                {
                  "internalType": "address",
                  "name": "taker",
                  "type": "address"
                },
                {
                  "components": [
                    {
                      "internalType": "uint8",
                      "name": "assetType",
                      "type": "uint8"
                    },
                    {
                      "internalType": "address",
                      "name": "contractAddress",
                      "type": "address"
                    },
                    {
                      "internalType": "uint256",
                      "name": "value",
                      "type": "uint256"
                    },
                    {
                      "internalType": "uint256",
                      "name": "id",
                      "type": "uint256"
                    }
                  ],
                  "internalType": "struct LibAsset.Asset",
                  "name": "takeAsset",
                  "type": "tuple"
                },
                {
                  "internalType": "uint256",
                  "name": "salt",
                  "type": "uint256"
                },
                {
                  "internalType": "uint256",
                  "name": "start",
                  "type": "uint256"
                },
                {
                  "internalType": "uint256",
                  "name": "end",
                  "type": "uint256"
                },
                {
                  "components": [
                    {
                      "internalType": "address",
                      "name": "receiver",
                      "type": "address"
                    },
                    {
                      "internalType": "uint256",
                      "name": "amount",
                      "type": "uint256"
                    }
                  ],
                  "internalType": "struct LibOrder.Fee",
                  "name": "originFee",
                  "type": "tuple"
                },
                {
                  "components": [
                    {
                      "internalType": "address",
                      "name": "receiver",
                      "type": "address"
                    },
                    {
                      "internalType": "uint256",
                      "name": "amount",
                      "type": "uint256"
                    }
                  ],
                  "internalType": "struct LibOrder.Fee",
                  "name": "royaltyFee",
                  "type": "tuple"
                },
                {
                  "internalType": "bytes",
                  "name": "sig",
                  "type": "bytes"
                },
                {
                  "internalType": "bytes32",
                  "name": "root",
                  "type": "bytes32"
                },
                {
                  "internalType": "bytes32[]",
                  "name": "proof",
                  "type": "bytes32[]"
                },
                {
                  "internalType": "uint16",
                  "name": "index",
                  "type": "uint16"
                }
              ],
              "internalType": "struct LibOrder.Order",
              "name": "sellOrder",
              "type": "tuple"
            }
          ],
          "internalType": "struct LibDirectTransfer.AcceptBidCollection",
          "name": "direct",
          "type": "tuple"
        }
      ],
      "name": "directAcceptBidCollection",
      "outputs": [],
      "stateMutability": "payable",
      "type": "function"
    },
    {
      "inputs": [
        {
          "internalType": "bytes32",
          "name": "",
          "type": "bytes32"
        }
      ],
      "name": "fills",
      "outputs": [
        {
          "internalType": "uint256",
          "name": "",
          "type": "uint256"
        }
      ],
      "stateMutability": "view",
      "type": "function"
    },
    {
      "inputs": [
        {
          "internalType": "uint8",
          "name": "index",
          "type": "uint8"
        }
      ],
      "name": "getTransferProxy",
      "outputs": [
        {
          "internalType": "address",
          "name": "",
          "type": "address"
        }
      ],
      "stateMutability": "view",
      "type": "function"
    },
    {
      "inputs": [
        {
          "components": [
            {
              "internalType": "enum LibOrder.OrderType",
              "name": "orderType",
              "type": "uint8"
            },
            {
              "internalType": "address",
              "name": "maker",
              "type": "address"
            },
            {
              "components": [
                {
                  "internalType": "uint8",
                  "name": "assetType",
                  "type": "uint8"
                },
                {
                  "internalType": "address",
                  "name": "contractAddress",
                  "type": "address"
                },
                {
                  "internalType": "uint256",
                  "name": "value",
                  "type": "uint256"
                },
                {
                  "internalType": "uint256",
                  "name": "id",
                  "type": "uint256"
                }
              ],
              "internalType": "struct LibAsset.Asset",
              "name": "makeAsset",
              "type": "tuple"
            },
            {
              "internalType": "address",
              "name": "taker",
              "type": "address"
            },
            {
              "components": [
                {
                  "internalType": "uint8",
                  "name": "assetType",
                  "type": "uint8"
                },
                {
                  "internalType": "address",
                  "name": "contractAddress",
                  "type": "address"
                },
                {
                  "internalType": "uint256",
                  "name": "value",
                  "type": "uint256"
                },
                {
                  "internalType": "uint256",
                  "name": "id",
                  "type": "uint256"
                }
              ],
              "internalType": "struct LibAsset.Asset",
              "name": "takeAsset",
              "type": "tuple"
            },
            {
              "internalType": "uint256",
              "name": "salt",
              "type": "uint256"
            },
            {
              "internalType": "uint256",
              "name": "start",
              "type": "uint256"
            },
            {
              "internalType": "uint256",
              "name": "end",
              "type": "uint256"
            },
            {
              "components": [
                {
                  "internalType": "address",
                  "name": "receiver",
                  "type": "address"
                },
                {
                  "internalType": "uint256",
                  "name": "amount",
                  "type": "uint256"
                }
              ],
              "internalType": "struct LibOrder.Fee",
              "name": "originFee",
              "type": "tuple"
            },
            {
              "components": [
                {
                  "internalType": "address",
                  "name": "receiver",
                  "type": "address"
                },
                {
                  "internalType": "uint256",
                  "name": "amount",
                  "type": "uint256"
                }
              ],
              "internalType": "struct LibOrder.Fee",
              "name": "royaltyFee",
              "type": "tuple"
            },
            {
              "internalType": "bytes",
              "name": "sig",
              "type": "bytes"
            },
            {
              "internalType": "bytes32",
              "name": "root",
              "type": "bytes32"
            },
            {
              "internalType": "bytes32[]",
              "name": "proof",
              "type": "bytes32[]"
            },
            {
              "internalType": "uint16",
              "name": "index",
              "type": "uint16"
            }
          ],
          "internalType": "struct LibOrder.Order[]",
          "name": "orderLefts",
          "type": "tuple[]"
        },
        {
          "components": [
            {
              "internalType": "enum LibOrder.OrderType",
              "name": "orderType",
              "type": "uint8"
            },
            {
              "internalType": "address",
              "name": "maker",
              "type": "address"
            },
            {
              "components": [
                {
                  "internalType": "uint8",
                  "name": "assetType",
                  "type": "uint8"
                },
                {
                  "internalType": "address",
                  "name": "contractAddress",
                  "type": "address"
                },
                {
                  "internalType": "uint256",
                  "name": "value",
                  "type": "uint256"
                },
                {
                  "internalType": "uint256",
                  "name": "id",
                  "type": "uint256"
                }
              ],
              "internalType": "struct LibAsset.Asset",
              "name": "makeAsset",
              "type": "tuple"
            },
            {
              "internalType": "address",
              "name": "taker",
              "type": "address"
            },
            {
              "components": [
                {
                  "internalType": "uint8",
                  "name": "assetType",
                  "type": "uint8"
                },
                {
                  "internalType": "address",
                  "name": "contractAddress",
                  "type": "address"
                },
                {
                  "internalType": "uint256",
                  "name": "value",
                  "type": "uint256"
                },
                {
                  "internalType": "uint256",
                  "name": "id",
                  "type": "uint256"
                }
              ],
              "internalType": "struct LibAsset.Asset",
              "name": "takeAsset",
              "type": "tuple"
            },
            {
              "internalType": "uint256",
              "name": "salt",
              "type": "uint256"
            },
            {
              "internalType": "uint256",
              "name": "start",
              "type": "uint256"
            },
            {
              "internalType": "uint256",
              "name": "end",
              "type": "uint256"
            },
            {
              "components": [
                {
                  "internalType": "address",
                  "name": "receiver",
                  "type": "address"
                },
                {
                  "internalType": "uint256",
                  "name": "amount",
                  "type": "uint256"
                }
              ],
              "internalType": "struct LibOrder.Fee",
              "name": "originFee",
              "type": "tuple"
            },
            {
              "components": [
                {
                  "internalType": "address",
                  "name": "receiver",
                  "type": "address"
                },
                {
                  "internalType": "uint256",
                  "name": "amount",
                  "type": "uint256"
                }
              ],
              "internalType": "struct LibOrder.Fee",
              "name": "royaltyFee",
              "type": "tuple"
            },
            {
              "internalType": "bytes",
              "name": "sig",
              "type": "bytes"
            },
            {
              "internalType": "bytes32",
              "name": "root",
              "type": "bytes32"
            },
            {
              "internalType": "bytes32[]",
              "name": "proof",
              "type": "bytes32[]"
            },
            {
              "internalType": "uint16",
              "name": "index",
              "type": "uint16"
            }
          ],
          "internalType": "struct LibOrder.Order[]",
          "name": "orderRights",
          "type": "tuple[]"
        }
      ],
      "name": "matchOrders",
      "outputs": [],
      "stateMutability": "payable",
      "type": "function"
    },
    {
      "inputs": [],
      "name": "owner",
      "outputs": [
        {
          "internalType": "address",
          "name": "",
          "type": "address"
        }
      ],
      "stateMutability": "view",
      "type": "function"
    },
    {
      "inputs": [],
      "name": "protocolFee",
      "outputs": [
        {
          "internalType": "address",
          "name": "receiver",
          "type": "address"
        },
        {
          "internalType": "uint48",
          "name": "buyerAmount",
          "type": "uint48"
        },
        {
          "internalType": "uint48",
          "name": "sellerAmount",
          "type": "uint48"
        }
      ],
      "stateMutability": "view",
      "type": "function"
    },
    {
      "inputs": [],
      "name": "renounceOwnership",
      "outputs": [],
      "stateMutability": "nonpayable",
      "type": "function"
    },
    {
      "inputs": [],
      "name": "royaltiesRegistry",
      "outputs": [
        {
          "internalType": "contract IRoyaltiesProvider",
          "name": "",
          "type": "address"
        }
      ],
      "stateMutability": "view",
      "type": "function"
    },
    {
      "inputs": [
        {
          "internalType": "address",
          "name": "_receiver",
          "type": "address"
        },
        {
          "internalType": "uint48",
          "name": "_buyerAmount",
          "type": "uint48"
        },
        {
          "internalType": "uint48",
          "name": "_sellerAmount",
          "type": "uint48"
        }
      ],
      "name": "setAllProtocolFeeData",
      "outputs": [],
      "stateMutability": "nonpayable",
      "type": "function"
    },
    {
      "inputs": [
        {
          "internalType": "uint256",
          "name": "assetType",
          "type": "uint256"
        },
        {
          "internalType": "address",
          "name": "matcher",
          "type": "address"
        }
      ],
      "name": "setAssetMatcher",
      "outputs": [],
      "stateMutability": "nonpayable",
      "type": "function"
    },
    {
      "inputs": [
        {
          "internalType": "uint48",
          "name": "_buyerAmount",
          "type": "uint48"
        }
      ],
      "name": "setPrtocolFeeBuyerAmount",
      "outputs": [],
      "stateMutability": "nonpayable",
      "type": "function"
    },
    {
      "inputs": [
        {
          "internalType": "address",
          "name": "_receiver",
          "type": "address"
        }
      ],
      "name": "setPrtocolFeeReceiver",
      "outputs": [],
      "stateMutability": "nonpayable",
      "type": "function"
    },
    {
      "inputs": [
        {
          "internalType": "uint48",
          "name": "_sellerAmount",
          "type": "uint48"
        }
      ],
      "name": "setPrtocolFeeSellerAmount",
      "outputs": [],
      "stateMutability": "nonpayable",
      "type": "function"
    },
    {
      "inputs": [
        {
          "internalType": "contract IRoyaltiesProvider",
          "name": "newRoyaltiesRegistry",
          "type": "address"
        }
      ],
      "name": "setRoyaltiesRegistry",
      "outputs": [],
      "stateMutability": "nonpayable",
      "type": "function"
    },
    {
      "inputs": [
        {
          "internalType": "uint8",
          "name": "index",
          "type": "uint8"
        },
        {
          "internalType": "address",
          "name": "proxy",
          "type": "address"
        }
      ],
      "name": "setTransferProxy",
      "outputs": [],
      "stateMutability": "nonpayable",
      "type": "function"
    },
    {
      "inputs": [
        {
          "internalType": "address",
          "name": "newOwner",
          "type": "address"
        }
      ],
      "name": "transferOwnership",
      "outputs": [],
      "stateMutability": "nonpayable",
      "type": "function"
    },
    {
      "inputs": [
        {
          "internalType": "bytes32",
          "name": "root",
          "type": "bytes32"
        },
        {
          "internalType": "bytes32[]",
          "name": "proof",
          "type": "bytes32[]"
        },
        {
          "components": [
            {
              "internalType": "enum LibOrder.OrderType",
              "name": "orderType",
              "type": "uint8"
            },
            {
              "internalType": "address",
              "name": "maker",
              "type": "address"
            },
            {
              "components": [
                {
                  "internalType": "uint8",
                  "name": "assetType",
                  "type": "uint8"
                },
                {
                  "internalType": "address",
                  "name": "contractAddress",
                  "type": "address"
                },
                {
                  "internalType": "uint256",
                  "name": "value",
                  "type": "uint256"
                },
                {
                  "internalType": "uint256",
                  "name": "id",
                  "type": "uint256"
                }
              ],
              "internalType": "struct LibAsset.Asset",
              "name": "makeAsset",
              "type": "tuple"
            },
            {
              "internalType": "address",
              "name": "taker",
              "type": "address"
            },
            {
              "components": [
                {
                  "internalType": "uint8",
                  "name": "assetType",
                  "type": "uint8"
                },
                {
                  "internalType": "address",
                  "name": "contractAddress",
                  "type": "address"
                },
                {
                  "internalType": "uint256",
                  "name": "value",
                  "type": "uint256"
                },
                {
                  "internalType": "uint256",
                  "name": "id",
                  "type": "uint256"
                }
              ],
              "internalType": "struct LibAsset.Asset",
              "name": "takeAsset",
              "type": "tuple"
            },
            {
              "internalType": "uint256",
              "name": "salt",
              "type": "uint256"
            },
            {
              "internalType": "uint256",
              "name": "start",
              "type": "uint256"
            },
            {
              "internalType": "uint256",
              "name": "end",
              "type": "uint256"
            },
            {
              "components": [
                {
                  "internalType": "address",
                  "name": "receiver",
                  "type": "address"
                },
                {
                  "internalType": "uint256",
                  "name": "amount",
                  "type": "uint256"
                }
              ],
              "internalType": "struct LibOrder.Fee",
              "name": "originFee",
              "type": "tuple"
            },
            {
              "components": [
                {
                  "internalType": "address",
                  "name": "receiver",
                  "type": "address"
                },
                {
                  "internalType": "uint256",
                  "name": "amount",
                  "type": "uint256"
                }
              ],
              "internalType": "struct LibOrder.Fee",
              "name": "royaltyFee",
              "type": "tuple"
            },
            {
              "internalType": "bytes",
              "name": "sig",
              "type": "bytes"
            },
            {
              "internalType": "bytes32",
              "name": "root",
              "type": "bytes32"
            },
            {
              "internalType": "bytes32[]",
              "name": "proof",
              "type": "bytes32[]"
            },
            {
              "internalType": "uint16",
              "name": "index",
              "type": "uint16"
            }
          ],
          "internalType": "struct LibOrder.Order",
          "name": "order",
          "type": "tuple"
        }
      ],
      "name": "validateListing",
      "outputs": [
        {
          "internalType": "bool",
          "name": "isValid",
          "type": "bool"
        }
      ],
      "stateMutability": "pure",
      "type": "function"
    }
  ],
  "bytecode": "0x60806040526275327560e81b60c955603160f81b60ca55600061012f553480156200002957600080fd5b50603380546001600160a01b03191633179055620000466200004c565b6200024d565b600054610100900460ff16806200006857506200006862000130565b8062000077575060005460ff16155b6200009f5760405162461bcd60e51b81526004016200009690620001ff565b60405180910390fd5b600054610100900460ff16158015620000cb576000805460ff1961ff0019909116610100171660011790555b6200011a6040518060400160405280600c81526020016b5837323145786368616e676560a01b815250604051806040016040528060018152602001603160f81b8152506200014e60201b60201c565b80156200012d576000805461ff00191690555b50565b60006200014830620001f960201b620012151760201c565b15905090565b600054610100900460ff16806200016a57506200016a62000130565b8062000179575060005460ff16155b620001985760405162461bcd60e51b81526004016200009690620001ff565b600054610100900460ff16158015620001c4576000805460ff1961ff0019909116610100171660011790555b825160208085019190912083519184019190912060c99190915560ca558015620001f4576000805461ff00191690555b505050565b3b151590565b6020808252602e908201527f496e697469616c697a61626c653a20636f6e747261637420697320616c72656160408201526d191e481a5b9a5d1a585b1a5e995960921b606082015260800190565b61458d806200025d6000396000f3fe6080604052600436106101355760003560e01c8063b2bdfa7b116100ab578063d362d3ff1161006f578063d362d3ff14610337578063d6ca6ab714610357578063eae3ad6f14610377578063f2fde38b14610397578063f75743ce146103b7578063faa2cc7c146103ca57610135565b8063b2bdfa7b146102a2578063b36c9b29146102b7578063b74c8e9a146102d7578063bc158c2d146102f7578063c648a6871461031757610135565b80634cfe4cd8116100fd5780634cfe4cd8146101f25780636d8f069414610212578063715018a6146102345780638b42af3e146102495780638da5cb5b14610269578063b0e21e8a1461027e57610135565b80631372a6251461013a57806320158c441461015c57806333033608146101925780633be89922146101a55780633e2d95ff146101c5575b600080fd5b34801561014657600080fd5b5061015a6101553660046134af565b6103dd565b005b34801561016857600080fd5b5061017c6101773660046135da565b610493565b60405161018991906139f9565b60405180910390f35b61015a6101a036600461365b565b6104a6565b3480156101b157600080fd5b5061015a6101c0366004613493565b61061e565b3480156101d157600080fd5b506101e56101e03660046135f2565b610680565b60405161018991906139ee565b3480156101fe57600080fd5b5061015a61020d3660046137a9565b6106a2565b34801561021e57600080fd5b50610227610748565b60405161018991906138c4565b34801561024057600080fd5b5061015a610758565b34801561025557600080fd5b5061015a6102643660046136fa565b6107e1565b34801561027557600080fd5b506102276108da565b34801561028a57600080fd5b506102936108e9565b604051610189939291906139c5565b3480156102ae57600080fd5b50610227610914565b3480156102c357600080fd5b506102276102d236600461378d565b610923565b3480156102e357600080fd5b5061015a6102f2366004613516565b610945565b34801561030357600080fd5b5061015a610312366004613493565b6109a4565b34801561032357600080fd5b5061015a610332366004613744565b610a4e565b34801561034357600080fd5b5061015a6103523660046136fa565b610ae6565b34801561036357600080fd5b5061015a610372366004613773565b610ba1565b34801561038357600080fd5b5061015a610392366004613773565b610c58565b3480156103a357600080fd5b5061015a6103b2366004613493565b610d0c565b61015a6103c536600461365b565b610dcd565b61015a6103d836600461355a565b61109c565b600054610100900460ff16806103f657506103f661121b565b80610404575060005460ff16155b6104295760405162461bcd60e51b815260040161042090613f39565b60405180910390fd5b600054610100900460ff16158015610454576000805460ff1961ff0019909116610100171660011790555b61045c61122c565b6104646112af565b61046e8686611389565b61047984848461142d565b801561048b576000805461ff00191690555b505050505050565b6101306020526000908152604090205481565b60006104b28280614381565b6104bb906144f5565b905060006104cc6020840184614381565b6104d5906144f5565b60808301516040908101518183015190910151919250908181111561050c5760405162461bcd60e51b8152600401610420906141bb565b61051b848561014001516114cf565b61052a838461014001516114cf565b6000828560400151604001518161053d57fe5b0490506000828202905085604001516040015181111561056f5760405162461bcd60e51b815260040161042090613d7a565b604080870151810182905260808088015182018590526020808801516001600160a01b0390811660608b01528884015184018890529188015183018490528089015190911660009081526101319091528181206101408901519251919290916105d89190613831565b90815260408051602092819003830190206101a08a015161ffff1660009081529252902054905061060986886114e6565b610614868883611620565b5050505050505050565b6106266117c6565b6001600160a01b03166106376108da565b6001600160a01b03161461065d5760405162461bcd60e51b815260040161042090614000565b61016480546001600160a01b0319166001600160a01b0392909216919091179055565b60008061068c836117ca565b9050610699848683611841565b95945050505050565b6106aa6117c6565b6001600160a01b03166106bb6108da565b6001600160a01b0316146106e15760405162461bcd60e51b815260040161042090614000565b60ff82166000818152609760205260409081902080546001600160a01b0319166001600160a01b038516179055517f8edda873a8ad561ecebeb71ceb3ae6bcb70c2b76a3fcb869859895c4d4fc74169061073c9084906138c4565b60405180910390a25050565b610164546001600160a01b031681565b6107606117c6565b6001600160a01b03166107716108da565b6001600160a01b0316146107975760405162461bcd60e51b815260040161042090614000565b6033546040516000916001600160a01b0316907f8be0079c531659141344cd1fd0a4f28419497f9722a3daafe3b4186f6b6457e0908390a3603380546001600160a01b0319169055565b80602001516001600160a01b03166107f76117c6565b6001600160a01b03161461081d5760405162461bcd60e51b815260040161042090614269565b80604001516040015161013160006108336117c6565b6001600160a01b03166001600160a01b031681526020019081526020016000208261014001516040516108669190613831565b90815260408051602092819003830190206101a085015161ffff16600090815292529020557f86f8a270a95f47ad48690dd66eda181ea3d229312582e7d222c11e24f39947d06108b46117c6565b826101400151836101a001516040516108cf939291906138d8565b60405180910390a150565b6033546001600160a01b031690565b610163546001600160a01b0381169065ffffffffffff600160a01b8204811691600160d01b90041683565b6033546001600160a01b031681565b60ff81166000908152609760205260409020546001600160a01b03165b919050565b61094d6117c6565b6001600160a01b031661095e6108da565b6001600160a01b0316146109845760405162461bcd60e51b815260040161042090614000565b61098d836109a4565b61099682610ba1565b61099f81610c58565b505050565b6109ac6117c6565b6001600160a01b03166109bd6108da565b6001600160a01b0316146109e35760405162461bcd60e51b815260040161042090614000565b610163546040517fa4b009cc442411b602eaf94bc0579b6abdb8fd90b4ef5b9426e270038906bd0391610a23916001600160a01b03909116908490613910565b60405180910390a161016380546001600160a01b0319166001600160a01b0392909216919091179055565b610a566117c6565b6001600160a01b0316610a676108da565b6001600160a01b031614610a8d5760405162461bcd60e51b815260040161042090614000565b6000828152606560205260409081902080546001600160a01b0319166001600160a01b0384161790555182907f58204093ed36d15d7f2a89fdaca20c53f1e02a2ce5686ace9247d1b96e9ec67b9061073c9084906138c4565b80602001516001600160a01b0316610afc6117c6565b6001600160a01b031614610b225760405162461bcd60e51b815260040161042090614269565b60a0810151610b435760405162461bcd60e51b815260040161042090613d15565b6000610b4e82611859565b60008181526101306020526040908190206000199055519091507fe8d9861dbc9c663ed3accd261bbe2fe01e0d3d9e5f51fa38523b265c7757a93a90610b959083906139f9565b60405180910390a15050565b610ba96117c6565b6001600160a01b0316610bba6108da565b6001600160a01b031614610be05760405162461bcd60e51b815260040161042090614000565b610163546040517f70bba4f904a93ba5c1af3a1bb602bc9c058551dbe963dfe0b6cb5bc11c5fea9e91610c2591600160a01b90910465ffffffffffff1690849061433f565b60405180910390a1610163805465ffffffffffff909216600160a01b0265ffffffffffff60a01b19909216919091179055565b610c606117c6565b6001600160a01b0316610c716108da565b6001600160a01b031614610c975760405162461bcd60e51b815260040161042090614000565b610163546040517fa8af9093caa9beb61d20432227c66258ceef926f21879b80f3adf22a4d19f13191610cdc91600160d01b90910465ffffffffffff1690849061433f565b60405180910390a1610163805465ffffffffffff909216600160d01b026001600160d01b03909216919091179055565b610d146117c6565b6001600160a01b0316610d256108da565b6001600160a01b031614610d4b5760405162461bcd60e51b815260040161042090614000565b6001600160a01b038116610d715760405162461bcd60e51b815260040161042090613c98565b6033546040516001600160a01b038084169216907f8be0079c531659141344cd1fd0a4f28419497f9722a3daafe3b4186f6b6457e090600090a3603380546001600160a01b0319166001600160a01b0392909216919091179055565b6000610dd9828061436b565b610de2906143d7565b90506000610df36020840184614381565b610dfc906144f5565b606083015160409081015181830151909101519192509081811115610e335760405162461bcd60e51b8152600401610420906141bb565b610e4284856101200151611892565b610e51838461014001516114cf565b60008285602001516040015181610e6457fe5b04905060008282029050856020015160400151811115610e965760405162461bcd60e51b815260040161042090613d7a565b60408051608080820183526020808a0180515160ff908116855281518301516001600160a01b039081168487015282518701518688015291516060908101518187015286519485018752808d018051519092168552815184015190921692840192909252905184015182850152888401518101519082015282516101c08101909352909160009080600381526020018a600001516001600160a01b0316815260200184815260200189602001516001600160a01b031681526020018381526020018a6080015181526020018a60a0015181526020018a60c0015181526020018a60e0015181526020018a610100015181526020018a610120015181526020018a610140015181526020018a610160015181526020018a610180015161ffff16815250905083816040015160400181815250508581608001516040018181525050876020015181606001906001600160a01b031690816001600160a01b031681525050868860400151604001818152505083886080015160400181815250506000610131600083602001516001600160a01b03166001600160a01b031681526020019081526020016000208261014001516040516110539190613831565b90815260408051602092819003830190206101a085015161ffff1660009081529252902054905061108489836114e6565b61108f898383611620565b5050505050505050505050565b80518251146110bd5760405162461bcd60e51b815260040161042090613dd3565b60005b825181101561099f5760008382815181106110d757fe5b6020026020010151905060008383815181106110ef57fe5b602002602001015190506000610131600084602001516001600160a01b03166001600160a01b031681526020019081526020016000208361014001516040516111389190613831565b90815260408051602092819003830190206101a086015161ffff1660009081529252902054905060018351600381111561116e57fe5b14156111a55761118983610160015184610180015185610680565b6111a55760405162461bcd60e51b815260040161042090614240565b6001825160038111156111b457fe5b14156111eb576111cf82610160015183610180015184610680565b6111eb5760405162461bcd60e51b815260040161042090614240565b6111f583836114e6565b6111ff8383611988565b61120a838383611620565b5050506001016110c0565b3b151590565b600061122630611215565b15905090565b600054610100900460ff1680611245575061124561121b565b80611253575060005460ff16155b61126f5760405162461bcd60e51b815260040161042090613f39565b600054610100900460ff1615801561129a576000805460ff1961ff0019909116610100171660011790555b80156112ac576000805461ff00191690555b50565b600054610100900460ff16806112c857506112c861121b565b806112d6575060005460ff16155b6112f25760405162461bcd60e51b815260040161042090613f39565b600054610100900460ff1615801561131d576000805460ff1961ff0019909116610100171660011790555b60006113276117c6565b603380546001600160a01b0319166001600160a01b038316908117909155604051919250906000907f8be0079c531659141344cd1fd0a4f28419497f9722a3daafe3b4186f6b6457e0908290a35080156112ac576000805461ff001916905550565b60976020527fd6ca216b3b8b63bcc0099d5c8294d1780d598ac9b3a29b15c3c3e68c85f6e30c80546001600160a01b039283166001600160a01b0319918216179091557f017b8d24b2a0f404d68a0b2abb80fd2d4d2105d3355f1fc48a1949fe7fce12e5805493909216928116831790915560046000527ff6fe0582e0e323a551f456b66350a1ed549948a34fdd35be011d229e00171c1f80549091169091179055565b600054610100900460ff1680611446575061144661121b565b80611454575060005460ff16155b6114705760405162461bcd60e51b815260040161042090613f39565b600054610100900460ff1615801561149b576000805460ff1961ff0019909116610100171660011790555b61016480546001600160a01b0319166001600160a01b03841617905580156114c9576000805461ff00191690555b50505050565b6114d882611d55565b6114e28282611db5565b5050565b6020808301516001600160a01b0316600090815261013190915260408082206101408501519151909161151891613831565b90815260200160405180910390206000846101a0015161ffff1661ffff16815260200190815260200160002054905082604001516000015160ff16600314156115da57610131600084602001516001600160a01b03166001600160a01b031681526020019081526020016000208361014001516040516115989190613831565b90815260408051602092819003830190206101a086015161ffff1660009081529252902054156115da5760405162461bcd60e51b8152600401610420906140c1565b82604001516000015160ff166004141561099f578160800151604001518101836040015160400151101561099f5760405162461bcd60e51b815260040161042090613d43565b6000806116338585858860000151611f1c565b9150915061164385858484611fa5565b600060028651600381111561165457fe5b148061166c575060038651600381111561166a57fe5b145b6116765785611678565b845b90506000856080015160400151610131600084602001516001600160a01b03166001600160a01b031681526020019081526020016000208361014001516040516116c29190613831565b90815260408051602092819003830181206101a087015161ffff16600090815290845282812054878501516001600160a01b0316825261013190945291909120610140860151939092019350839261171991613831565b90815260200160405180910390206000846101a0015161ffff1661ffff168152602001908152602001600020819055507fa49e31994a96dc315540d6ff9e29428418addfa28f6ffcc73ddad3528e40ddc1876000015188602001518860200151856101400151866101a001518b60800151604001518c6080015160600151886117a06123a8565b6040516117b599989796959493929190613b85565b60405180910390a150505050505050565b3390565b6101a081015160208083015160408085015180840151606080830151838501519351828a015160808b0151808a015194810151818901519151985160009c6118249c909b9a989996989697959694959492939291016142da565b604051602081830303815290604052805190602001209050919050565b60008261184e85846123e8565b1490505b9392505050565b6000816020015161186d8360400151612425565b61187a8460800151612425565b8460a001516040516020016118249493929190613986565b60808201516118ee5781516001600160a01b0316158015906118cd575081516001600160a01b03166118c26117c6565b6001600160a01b0316145b6118e95760405162461bcd60e51b815260040161042090613f09565b6114e2565b60006118f983612442565b83519091506001600160a01b031661190f6117c6565b6001600160a01b03161461099f5782516001600160a01b031661193b83611935846124b6565b906124d2565b6001600160a01b0316146119615760405162461bcd60e51b815260040161042090614064565b82516001600160a01b031661099f5760405162461bcd60e51b815260040161042090613db1565b611997828361014001516114cf565b6119a6818261014001516114cf565b60608201516001600160a01b0316156119f25781606001516001600160a01b031681602001516001600160a01b0316146119f25760405162461bcd60e51b8152600401610420906141fd565b60608101516001600160a01b031615611a3e5781602001516001600160a01b031681606001516001600160a01b031614611a3e5760405162461bcd60e51b815260040161042090613e57565b81604001516000015160ff1660031480611a63575081604001516000015160ff166004145b15611b895760808181015160409081015191840151810151908301515160009060ff16600214611a935734611a9d565b8360400151604001515b905083604001516000015160ff1660021415611b635760008460400151602001516001600160a01b03166370a0823186602001516040518263ffffffff1660e01b8152600401611aed91906138c4565b60206040518083038186803b158015611b0557600080fd5b505afa158015611b19573d6000803e3d6000fd5b505050506040513d601f19601f82011682018060405250810190611b3d919061372c565b9050828402811015611b615760405162461bcd60e51b815260040161042090614124565b505b808284021115611b855760405162461bcd60e51b81526004016104209061415b565b5050505b80604001516000015160ff1660031480611bae575080604001516000015160ff166004145b156114e25760808281015160409081015191830151810151908401515160009060ff16600214611bde5734611c66565b8460400151602001516001600160a01b03166370a0823186602001516040518263ffffffff1660e01b8152600401611c1691906138c4565b60206040518083038186803b158015611c2e57600080fd5b505afa158015611c42573d6000803e3d6000fd5b505050506040513d601f19601f82011682018060405250810190611c66919061372c565b905084604001516000015160ff1660021415611d2c5760008560400151602001516001600160a01b03166370a0823187602001516040518263ffffffff1660e01b8152600401611cb691906138c4565b60206040518083038186803b158015611cce57600080fd5b505afa158015611ce2573d6000803e3d6000fd5b505050506040513d601f19601f82011682018060405250810190611d06919061372c565b9050828402811015611d2a5760405162461bcd60e51b815260040161042090614124565b505b808284021115611d4e5760405162461bcd60e51b81526004016104209061415b565b5050505050565b60c08101511580611d695750428160c00151105b611d855760405162461bcd60e51b815260040161042090613f87565b60e08101511580611d995750428160e00151115b6112ac5760405162461bcd60e51b815260040161042090613cde565b60a0820151611deb5760208201516001600160a01b0316158015906118cd575081602001516001600160a01b03166118c26117c6565b60008083516003811115611dfb57fe5b1480611e135750600283516003811115611e1157fe5b145b15611e2857611e218361251d565b9050611e8d565b600183516003811115611e3757fe5b1415611e4c57611e2183846101600151612591565b82602001516001600160a01b0316611e6783611935846124b6565b6001600160a01b031614611e8d5760405162461bcd60e51b815260040161042090613e9b565b82602001516001600160a01b0316611ea36117c6565b6001600160a01b03161461099f5782602001516001600160a01b0316611ecc83611935846124b6565b6001600160a01b031614611ef25760405162461bcd60e51b815260040161042090613e9b565b60208301516001600160a01b031661099f5760405162461bcd60e51b815260040161042090613db1565b611f24613087565b611f2c613087565b611f408660400151866080015186866125f0565b805190925060ff16611f645760405162461bcd60e51b8152600401610420906140f8565b611f788660800151866040015186866125f0565b805190915060ff16611f9c5760405162461bcd60e51b8152600401610420906140f8565b94509492505050565b6040805160808082018352848252845160ff908116600090815260976020818152868320546001600160a01b03908116828801528b820180518216888a01528b8301805183166060808b01919091528a519889018b528b89528b51909716865293835293889020548116918601919091529051811695840195909552519093169281019290925261203591612637565b5050806000015160ff16600114806120545750806000015160ff166002145b1561220057805160408501515160ff9081169116141561207357600080fd5b6000612710856101000151602001518360400151028161208f57fe5b049050600061271086610120015160200151846040015102816120ae57fe5b0490506000818385604001510303905061213a6040518060800160405280866000015160ff16815260200186602001516001600160a01b0316815260200183815260200186606001518152508760200151896020015160976000896000015160ff1660ff16815260200190815260200160002060009054906101000a90046001600160a01b03166126c2565b60408051608081018252855160ff90811682526020808801516001600160a01b03908116828501528385018890526060808a0151908501528a82015189519093166000908152609790925293902054612195933091166126c2565b60408051608081018252855160ff90811682526020808801516001600160a01b03908116828501528385018790526060808a0151908501528a8201516101208d0151518a519094166000908152609790935294909120546121f8949291166126c2565b5050506114c9565b815160408401515160ff9081169116141561221a57600080fd5b6000612710846101000151602001518460400151028161223657fe5b0490506000612710856101200151602001518560400151028161225557fe5b049050600081838660400151030390506122e16040518060800160405280876000015160ff16815260200187602001516001600160a01b03168152602001838152602001876060015181525088602001518860200151609760008a6000015160ff1660ff16815260200190815260200160002060009054906101000a90046001600160a01b03166126c2565b60408051608081018252865160ff90811682526020808901516001600160a01b03908116828501528385018890526060808b0151908501528b8201518a51909316600090815260979092529390205461233c933091166126c2565b60408051608081018252865160ff90811682526020808901516001600160a01b03908116828501528385018790526060808b0151908501528b8201516101208c0151518b5190941660009081526097909352949091205461239f949291166126c2565b50505050505050565b61012f8054600101908190556040516000916123ca914291339160200161389c565b6040516020818303038152906040528051906020012060001c905090565b600081815b845181101561241d576124138286838151811061240657fe5b6020026020010151612a1f565b91506001016123ed565b509392505050565b600081600001518260400151604051602001611824929190614358565b60007fb6f220611a11c66f474a57bf25b071aa931c6b6d69ef98d48c4b24dbcd66425682600001516124778460200151612a41565b84604001516124898660600151612a8c565b86608001518760a001518860c0015189610180015160405160200161182499989796959493929190613a02565b60006124c0612ad1565b8260405160200161182492919061387e565b600081516041146124f55760405162461bcd60e51b815260040161042090613c61565b60208201516040830151606084015160001a61251386828585612b11565b9695505050505050565b60007f1132f06ab722f27908a7e495b5d507bad407e55f68dcf746f8d69417e3f1928c82602001516125528460400151612a41565b84606001516125648660800151612a41565b8660a001518760c001518860e00151896101a0015160405160200161182499989796959493929190613a02565b60007f15fed0d06db788fb9c02b4f593bd4adff95588d2736481b94a54a44275fae9fc8360200151838560a001516040516020016125d29493929190613a54565b60405160208183030381529060405280519060200120905092915050565b6125f8613087565b600061260686868686612ca2565b9050806000015160ff166001141561262c5761262485878686612ca2565b91505061262f565b90505b949350505050565b8151604080820151835190910151915190919060ff1660031480612660575083515160ff166004145b156126815761268184600001518560400151866060015187602001516126c2565b82515160ff166003148061269a575082515160ff166004145b156126bb576126bb83600001518460400151856060015186602001516126c2565b9250929050565b836000015160ff16600314156127e75783604001516001146126f65760405162461bcd60e51b815260040161042090613edd565b6001600160a01b0383163014156127775760208401516060850151604051632142170760e11b81526001600160a01b03909216916342842e0e91612740913091879160040161392a565b600060405180830381600087803b15801561275a57600080fd5b505af115801561276e573d6000803e3d6000fd5b505050506127e2565b60208401516060850151604051637b84dc8360e11b81526001600160a01b0384169263f709b906926127af9288918891600401613b5b565b600060405180830381600087803b1580156127c957600080fd5b505af11580156127dd573d6000803e3d6000fd5b505050505b6114c9565b836000015160ff16600214156128e9576001600160a01b0383163014156128b15783602001516001600160a01b031663a9059cbb8386604001516040518363ffffffff1660e01b815260040161283e9291906139ac565b602060405180830381600087803b15801561285857600080fd5b505af115801561286c573d6000803e3d6000fd5b505050506040513d601f19601f8201168201806040525081019061289091906135ba565b6128ac5760405162461bcd60e51b815260040161042090614035565b6127e2565b6020840151604080860151905163776062c360e01b81526001600160a01b0384169263776062c3926127af9288918891600401613b5b565b836000015160ff1660041415612988576001600160a01b0383163014156129485783602001516001600160a01b031663f242432a3084876060015188604001516040518563ffffffff1660e01b8152600401612740949392919061394e565b602084015160608501516040808701519051639c1c2ee960e01b81526001600160a01b03851693639c1c2ee9936127af9391928992899291600401613b18565b836000015160ff16600114156129c1576001600160a01b03821630146127e25760408401516127e2906001600160a01b03841690612e72565b604051632571282360e21b81526001600160a01b038216906395c4a08c906129f19087908790879060040161428e565b600060405180830381600087803b158015612a0b57600080fd5b505af1158015610614573d6000803e3d6000fd5b6000818310612a3757612a328284612eee565b611852565b6118528383612eee565b60007f3eb30932c8579e044a08d6c2db9cfbbe826c3c715d5f913a07fdb3b62620fc2c8260000151836020015184604001518560600151604051602001611824959493929190613acb565b60007f41de7d6f279b5bdc25bb5bd3ccb732106044c7be8050d6927da35e2210c6000b8260000151836020015184604001516040516020016118249493929190613aa4565b6000612b0c7f8b73c3c69bb8fe3d512ecc4cf759cc79239f7b179b0ffacaa9a75d522b39400f612aff612efd565b612b07612f03565b612f09565b905090565b60007f7fffffffffffffffffffffffffffffff5d576e7357a4501ddfe92f46681b20a0821115612b535760405162461bcd60e51b815260040161042090613e15565b6000601e8560ff161115612bf9576004850360ff16601b1480612b7c57506004850360ff16601c145b612b985760405162461bcd60e51b815260040161042090613fbe565b6001612ba387612f4a565b60048703868660405160008152602001604052604051612bc69493929190613afa565b6020604051602081039080840390855afa158015612be8573d6000803e3d6000fd5b505050602060405103519050612c7c565b8460ff16601b1480612c0e57508460ff16601c145b612c2a5760405162461bcd60e51b815260040161042090613fbe565b60018686868660405160008152602001604052604051612c4d9493929190613afa565b6020604051602081039080840390855afa158015612c6f573d6000803e3d6000fd5b5050506020604051035190505b6001600160a01b03811661262c5760405162461bcd60e51b815260040161042090613bf3565b612caa613087565b600080866000015160ff1660011415612d0957856000015160ff1660011415612cd757869250505061262f565b60408051608081018252600081526001600160a01b03909216602083015281018290526060810191909152905061262f565b866000015160ff1660021415612d3d57856000015160ff1660021415612cd757612d34878786612f5d565b9250505061262f565b866000015160ff1660031415612d6857856000015160ff1660031415612cd757612d34878786612f5d565b866000015160ff1660041415612d9357856000015160ff1660041415612cd757612d34878787613003565b865160ff166000908152606560205260409020546001600160a01b03168015612e3e57604051638dc614ff60e01b81526001600160a01b03821690638dc614ff90612de4908b908b906004016142be565b60806040518083038186803b158015612dfc57600080fd5b505afa158015612e10573d6000803e3d6000fd5b505050506040513d601f19601f82011682018060405250810190612e34919061368d565b935050505061262f565b8651885160ff90811691161415612e5a57612e34888887612f5d565b60405162461bcd60e51b815260040161042090613c2a565b6000826001600160a01b031682604051612e8b90613899565b60006040518083038185875af1925050503d8060008114612ec8576040519150601f19603f3d011682016040523d82523d6000602084013e612ecd565b606091505b505090508061099f5760405162461bcd60e51b815260040161042090614192565b60009182526020526040902090565b60c95490565b60ca5490565b6000838383612f16613083565b30604051602001612f2b959493929190613a78565b6040516020818303038152906040528051906020012090509392505050565b600081604051602001611824919061384d565b612f65613087565b600080846000015160ff16866000015160ff161415612fcf576003846003811115612f8c57fe5b141580612fa15750856000015160ff16600314155b15612fc557846040015186604001511415612fc0578592505050611852565b612fcf565b8592505050611852565b60408051608081018252600181526001600160a01b0390921660208301528101829052606081019190915290509392505050565b61300b613087565b600080856000015160ff166004141561304f578451865160ff9081169116148015613040575084604001518401866040015110155b1561304f578492505050611852565b60408051608081018252600081526001600160a01b0390921660208301528101829052606081019190915290509392505050565b4690565b6040518060800160405280600060ff16815260200160006001600160a01b0316815260200160008152602001600081525090565b803561094081614533565b600082601f8301126130d6578081fd5b813560206130eb6130e6836143ba565b614397565b8281528181019085830183850287018401881015613107578586fd5b855b8581101561312557813584529284019290840190600101613109565b5090979650505050505050565b600082601f830112613142578081fd5b813560206131526130e6836143ba565b82815281810190858301855b8581101561312557613175898684358b0101613336565b8452928401929084019060010161315e565b600082601f830112613197578081fd5b81356001600160401b038111156131aa57fe5b6131bd601f8201601f1916602001614397565b8181528460208386010111156131d1578283fd5b816020850160208301379081016020019190915292915050565b80356004811061094057600080fd5b60006040828403121561320b578081fd5b50919050565b600060808284031215613222578081fd5b604051608081018181106001600160401b038211171561323e57fe5b604052905080823561324f81614548565b8152602083013561325f81614533565b8060208301525060408301356040820152606083013560608201525092915050565b600060608284031215613292578081fd5b604051606081018181106001600160401b03821117156132ae57fe5b60405290508082356132bf81614548565b815260208301356132cf81614533565b6020820152604092830135920191909152919050565b6000604082840312156132f6578081fd5b604051604081018181106001600160401b038211171561331257fe5b604052905080823561332381614533565b8152602092830135920191909152919050565b60006102c08284031215613348578081fd5b6101c061335481614397565b915061335f836131eb565b825261336d602084016130bb565b602083015261337f8460408501613211565b604083015261339060c084016130bb565b60608301526133a28460e08501613211565b60808301526101608084013560a08401526101808085013560c08501526101a08086013560e08601526133d7878588016132e5565b6101008601526133eb8761020088016132e5565b61012086015261024086013593506001600160401b038085111561340e57600080fd5b61341a88868901613187565b6101408701526102608701358487015261028087013594508085111561343f57600080fd5b5061344c878588016130c6565b8286015261345d6102a0870161346b565b818601525050505092915050565b803561ffff8116811461094057600080fd5b803565ffffffffffff8116811461094057600080fd5b6000602082840312156134a4578081fd5b813561185281614533565b600080600080600060a086880312156134c6578081fd5b85356134d181614533565b945060208601356134e181614533565b93506040860135925060608601356134f881614533565b9150608086013561350881614533565b809150509295509295909350565b60008060006060848603121561352a578081fd5b833561353581614533565b92506135436020850161347d565b91506135516040850161347d565b90509250925092565b6000806040838503121561356c578182fd5b82356001600160401b0380821115613582578384fd5b61358e86838701613132565b935060208501359150808211156135a3578283fd5b506135b085828601613132565b9150509250929050565b6000602082840312156135cb578081fd5b81518015158114611852578182fd5b6000602082840312156135eb578081fd5b5035919050565b600080600060608486031215613606578081fd5b8335925060208401356001600160401b0380821115613623578283fd5b61362f878388016130c6565b93506040860135915080821115613644578283fd5b5061365186828701613336565b9150509250925092565b60006020828403121561366c578081fd5b81356001600160401b03811115613681578182fd5b61262f848285016131fa565b60006080828403121561369e578081fd5b604051608081018181106001600160401b03821117156136ba57fe5b60405282516136c881614548565b815260208301516136d881614533565b6020820152604083810151908201526060928301519281019290925250919050565b60006020828403121561370b578081fd5b81356001600160401b03811115613720578182fd5b61262f84828501613336565b60006020828403121561373d578081fd5b5051919050565b60008060408385031215613756578182fd5b82359150602083013561376881614533565b809150509250929050565b600060208284031215613784578081fd5b6118528261347d565b60006020828403121561379e578081fd5b813561185281614548565b600080604083850312156137bb578182fd5b82356137c681614548565b9150602083013561376881614533565b600081518084526137ee816020860160208601614507565b601f01601f19169290920160200192915050565b805160ff1682526020808201516001600160a01b03169083015260408082015190830152606090810151910152565b60008251613843818460208701614507565b9190910192915050565b7f19457468657265756d205369676e6564204d6573736167653a0a3332000000008152601c810191909152603c0190565b61190160f01b81526002810192909252602282015260420190565b90565b92835260609190911b6bffffffffffffffffffffffff19166020830152603482015260540190565b6001600160a01b0391909116815260200190565b6001600160a01b03841681526060602082018190526000906138fc908301856137d6565b905061ffff83166040830152949350505050565b6001600160a01b0392831681529116602082015260400190565b6001600160a01b039384168152919092166020820152604081019190915260600190565b6001600160a01b0394851681529290931660208301526040820152606081019190915260a06080820181905260009082015260c00190565b6001600160a01b0394909416845260208401929092526040830152606082015260800190565b6001600160a01b03929092168252602082015260400190565b6001600160a01b0393909316835265ffffffffffff918216602084015216604082015260600190565b901515815260200190565b90815260200190565b9889526001600160a01b0397881660208a01526040890196909652939095166060870152608086019190915260a085015260c084019290925260e083019190915261ffff166101008201526101200190565b9384526001600160a01b039290921660208401526040830152606082015260800190565b9485526020850193909352604084019190915260608301526001600160a01b0316608082015260a00190565b93845260ff9290921660208401526001600160a01b03166040830152606082015260800190565b94855260ff9390931660208501526001600160a01b039190911660408401526060830152608082015260a00190565b93845260ff9290921660208401526040830152606082015260800190565b6001600160a01b03958616815293851660208501529190931660408301526060820192909252608081019190915260c060a0820181905260009082015260e00190565b6001600160a01b039485168152928416602084015292166040820152606081019190915260800190565b600061012060048c10613b9457fe5b8b83526001600160a01b038b811660208501528a16604084015260608301819052613bc18184018a6137d6565b61ffff989098166080840152505060a081019490945260c084019290925260e083015261010090910152949350505050565b60208082526018908201527f45434453413a20696e76616c6964207369676e61747572650000000000000000604082015260600190565b60208082526017908201527f6e6f7420666f756e64204941737365744d617463686572000000000000000000604082015260600190565b6020808252601f908201527f45434453413a20696e76616c6964207369676e6174757265206c656e67746800604082015260600190565b60208082526026908201527f4f776e61626c653a206e6577206f776e657220697320746865207a65726f206160408201526564647265737360d01b606082015260800190565b6020808252601b908201527f4f7264657220656e642076616c69646174696f6e206661696c65640000000000604082015260600190565b6020808252601490820152730c081cd85b1d0818d85b89dd081899481d5cd95960621b604082015260600190565b60208082526018908201527f4f7264657220686173206265656e2066756c66696c6c65640000000000000000604082015260600190565b6020808252601c908201527f426964204552432d323020616d6f756e74206e6f7420656e6f75676800000000604082015260600190565b60208082526008908201526737379036b0b5b2b960c11b604082015260600190565b60208082526022908201527f6c6566747320616e6420726967687473206c656e67746820646f6e74206d61746040820152610c6d60f31b606082015260800190565b60208082526022908201527f45434453413a20696e76616c6964207369676e6174757265202773272076616c604082015261756560f01b606082015260800190565b60208082526024908201527f72696768744f726465722e74616b657220766572696669636174696f6e2066616040820152631a5b195960e21b606082015260800190565b60208082526022908201527f6f72646572207369676e617475726520766572696669636174696f6e2065727260408201526137b960f11b606082015260800190565b60208082526012908201527132b9319b9918903b30b63ab29032b93937b960711b604082015260600190565b60208082526016908201527536b0b5b2b91034b9903737ba103a3c1039b2b73232b960511b604082015260600190565b6020808252602e908201527f496e697469616c697a61626c653a20636f6e747261637420697320616c72656160408201526d191e481a5b9a5d1a585b1a5e995960921b606082015260800190565b6020808252601d908201527f4f726465722073746172742076616c69646174696f6e206661696c6564000000604082015260600190565b60208082526022908201527f45434453413a20696e76616c6964207369676e6174757265202776272076616c604082015261756560f01b606082015260800190565b6020808252818101527f4f776e61626c653a2063616c6c6572206973206e6f7420746865206f776e6572604082015260600190565b602080825260159082015274195c98cc8c081d1c985b9cd9995c8819985a5b1959605a1b604082015260600190565b6020808252603b908201527f6f72646572207369676e617475726520766572696669636174696f6e20666f7260408201527f2062696420636f6c6c656374696f6e206f72646572206572726f720000000000606082015260800190565b60208082526018908201527f4f7264657220686173206265656e2063616e63656c6c65640000000000000000604082015260600190565b6020808252601290820152710c2e6e6cae8e640c8dedc4ee840dac2e8c6d60731b604082015260600190565b60208082526018908201527f45524332302062616c616e6365206e6f7420656e6f7567680000000000000000604082015260600190565b6020808252601a908201527f5370656e64696e6720616d6f756e74206e6f7420656e6f756768000000000000604082015260600190565b6020808252600f908201526e1d1c985b9cd9995c8819985a5b1959608a1b604082015260600190565b60208082526022908201527f416363657074206269642071747920686967686572207468616e206269642071604082015261747960f01b606082015260800190565b60208082526023908201527f6c6566744f726465722e74616b657220766572696669636174696f6e206661696040820152621b195960ea1b606082015260800190565b6020808252600f908201526e496e76616c6964206c697374696e6760881b604082015260600190565b6020808252600b908201526a3737ba10309036b0b5b2b960a91b604082015260600190565b60c0810161429c8286613802565b6001600160a01b0393841660808301529190921660a090920191909152919050565b61010081016142cd8285613802565b6118526080830184613802565b61ffff9b909b168b526001600160a01b03998a1660208c015297891660408b015260608a0196909652608089019490945260ff92831660a089015290861660c088015290941660e0860152610100850152610120840152166101408201526101600190565b65ffffffffffff92831681529116602082015260400190565b60ff929092168252602082015260400190565b6000823561027e19833603018112613843578182fd5b600082356102be19833603018112613843578182fd5b6040518181016001600160401b03811182821017156143b257fe5b604052919050565b60006001600160401b038211156143cd57fe5b5060209081020190565b600061028082360312156143e9578081fd5b6143f46101a0614397565b6143fd836130bb565b815261440c3660208501613211565b602082015261441d60a084016130bb565b604082015261442f3660c08501613281565b60608201526101208084013560808301526101408085013560a08401526101608086013560c0850152610180614467368289016132e5565b60e086015261447a366101c089016132e5565b6101008601526102008701356001600160401b038082111561449a578788fd5b6144a636838b01613187565b86880152610220890135858801526102408901359550808611156144c8578788fd5b50506144d6368589016130c6565b828601526144e7610260880161346b565b908501525091949350505050565b60006145013683613336565b92915050565b60005b8381101561452257818101518382015260200161450a565b838111156114c95750506000910152565b6001600160a01b03811681146112ac57600080fd5b60ff811681146112ac57600080fdfea2646970667358221220e92fdee0356a545a136a74d015ffba55f18f37c757cc3c39cddff58ad88a21ae64736f6c63430007060033",
  "linkReferences": {},
  "deployedLinkReferences": {}
}