{
  "_format": "hh-sol-artifact-1",
  "contractName": "LibOrderDataV2",
  "sourceName": "contracts/ExchangeV2.sol",
  "abi": [
    {
      "inputs": [],
      "name": "V2",
      "outputs": [
        {
          "internalType": "bytes4",
          "name": "",
          "type": "bytes4"
        }
      ],
      "stateMutability": "view",
      "type": "function"
    }
  ],
  "bytecode": "0x60c1610025600b82828239805160001a60731461001857fe5b30600052607381538281f3fe730000000000000000000000000000000000000000301460806040526004361060335760003560e01c806396cd25ef146038575b600080fd5b603e6052565b604051604991906076565b60405180910390f35b7f23d235efaf569b2b407d10f447247743508d1762a8e3a3aed85ccc0570dde35f81565b6001600160e01b03199190911681526020019056fea26469706673582212207aab2454f2267ffc6b5e341ccfc281564d803c64c7538386b00d6ae4d26007b464736f6c63430007060033",
  "linkReferences": {},
  "deployedLinkReferences": {}
}