{
  "_format": "hh-sol-artifact-1",
  "contractName": "LibOrderDataV3",
  "sourceName": "contracts/ExchangeV2.sol",
  "abi": [
    {
      "inputs": [],
      "name": "V3",
      "outputs": [
        {
          "internalType": "bytes4",
          "name": "",
          "type": "bytes4"
        }
      ],
      "stateMutability": "view",
      "type": "function"
    }
  ],
  "bytecode": "0x60c1610025600b82828239805160001a60731461001857fe5b30600052607381538281f3fe730000000000000000000000000000000000000000301460806040526004361060335760003560e01c80632fb42d70146038575b600080fd5b603e6052565b604051604991906076565b60405180910390f35b7f4ade54ca82b345967b61d43a7b6e1c256d140cceb65202e7117104371c17959c81565b6001600160e01b03199190911681526020019056fea2646970667358221220b89a0fc5f5bd9a986e892d2c1549affceb321576c6fb9ba0c982796794b7c6d464736f6c63430007060033",
  "linkReferences": {},
  "deployedLinkReferences": {}
}