{
	"contracts/library/LibPart.sol": {
		"LibPart": {
			"abi": [
				{
					"inputs": [],
					"name": "TYPE_HASH",
					"outputs": [
						{
							"internalType": "bytes32",
							"name": "",
							"type": "bytes32"
						}
					],
					"stateMutability": "view",
					"type": "function"
				}
			],
			"devdoc": {
				"kind": "dev",
				"methods": {},
				"version": 1
			},
			"evm": {
				"assembly": "    /* \"contracts/library/LibPart.sol\":124:472  library LibPart {... */\n  dataSize(sub_0)\n  dataOffset(sub_0)\n  0x0b\n  dup3\n  dup3\n  dup3\n  codecopy\n  dup1\n  mload\n  0x00\n  byte\n  0x73\n  eq\n  tag_1\n  jumpi\n  invalid\ntag_1:\n  mstore(0x00, address)\n  0x73\n  dup2\n  mstore8\n  dup3\n  dup2\n  return\nstop\n\nsub_0: assembly {\n        /* \"contracts/library/LibPart.sol\":124:472  library LibPart {... */\n      eq(address, deployTimeAddress())\n      mstore(0x40, 0x80)\n      jumpi(tag_1, lt(calldatasize, 0x04))\n      shr(0xe0, calldataload(0x00))\n      dup1\n      0x64d4c819\n      eq\n      tag_2\n      jumpi\n    tag_1:\n      0x00\n      dup1\n      revert\n        /* \"contracts/library/LibPart.sol\":146:237  bytes32 public constant TYPE_HASH =... */\n    tag_2:\n      tag_3\n      tag_4\n      jump\t// in\n    tag_3:\n      mload(0x40)\n      tag_5\n      swap2\n      swap1\n      tag_6\n      jump\t// in\n    tag_5:\n      mload(0x40)\n      dup1\n      swap2\n      sub\n      swap1\n      return\n    tag_4:\n        /* \"contracts/library/LibPart.sol\":190:237  keccak256(\"Part(address account,uint96 value)\") */\n      0x397e04204c1e1a60ee8724b71f8244e10ab5f2e9009854d80f602bda21b59ebb\n        /* \"contracts/library/LibPart.sol\":146:237  bytes32 public constant TYPE_HASH =... */\n      dup2\n      jump\t// out\n        /* \"#utility.yul\":7:133   */\n    tag_8:\n        /* \"#utility.yul\":102:126   */\n      tag_10\n        /* \"#utility.yul\":120:125   */\n      dup2\n        /* \"#utility.yul\":102:126   */\n      tag_11\n      jump\t// in\n    tag_10:\n        /* \"#utility.yul\":97:100   */\n      dup3\n        /* \"#utility.yul\":90:127   */\n      mstore\n        /* \"#utility.yul\":80:133   */\n      pop\n      pop\n      jump\t// out\n        /* \"#utility.yul\":139:377   */\n    tag_6:\n      0x00\n        /* \"#utility.yul\":278:280   */\n      0x20\n        /* \"#utility.yul\":267:276   */\n      dup3\n        /* \"#utility.yul\":263:281   */\n      add\n        /* \"#utility.yul\":255:281   */\n      swap1\n      pop\n        /* \"#utility.yul\":291:370   */\n      tag_13\n        /* \"#utility.yul\":367:368   */\n      0x00\n        /* \"#utility.yul\":356:365   */\n      dup4\n        /* \"#utility.yul\":352:369   */\n      add\n        /* \"#utility.yul\":343:349   */\n      dup5\n        /* \"#utility.yul\":291:370   */\n      tag_8\n      jump\t// in\n    tag_13:\n        /* \"#utility.yul\":245:377   */\n      swap3\n      swap2\n      pop\n      pop\n      jump\t// out\n        /* \"#utility.yul\":383:460   */\n    tag_11:\n      0x00\n        /* \"#utility.yul\":449:454   */\n      dup2\n        /* \"#utility.yul\":438:454   */\n      swap1\n      pop\n        /* \"#utility.yul\":428:460   */\n      swap2\n      swap1\n      pop\n      jump\t// out\n\n    auxdata: 0xa2646970667358221220ba81e6067146e6e99461c4c724c650dedb4a0f1c7a13288dd60ae4db90b142f664736f6c63430007060033\n}\n",
				"bytecode": {
					"linkReferences": {},
					"object": "60dc610025600b82828239805160001a60731461001857fe5b30600052607381538281f3fe730000000000000000000000000000000000000000301460806040526004361060335760003560e01c806364d4c819146038575b600080fd5b603e6052565b604051604991906083565b60405180910390f35b7f397e04204c1e1a60ee8724b71f8244e10ab5f2e9009854d80f602bda21b59ebb81565b607d81609c565b82525050565b6000602082019050609660008301846076565b92915050565b600081905091905056fea2646970667358221220ba81e6067146e6e99461c4c724c650dedb4a0f1c7a13288dd60ae4db90b142f664736f6c63430007060033",
					"opcodes": "PUSH1 0xDC PUSH2 0x25 PUSH1 0xB DUP3 DUP3 DUP3 CODECOPY DUP1 MLOAD PUSH1 0x0 BYTE PUSH1 0x73 EQ PUSH2 0x18 JUMPI INVALID JUMPDEST ADDRESS PUSH1 0x0 MSTORE PUSH1 0x73 DUP2 MSTORE8 DUP3 DUP2 RETURN INVALID PUSH20 0x0 ADDRESS EQ PUSH1 0x80 PUSH1 0x40 MSTORE PUSH1 0x4 CALLDATASIZE LT PUSH1 0x33 JUMPI PUSH1 0x0 CALLDATALOAD PUSH1 0xE0 SHR DUP1 PUSH4 0x64D4C819 EQ PUSH1 0x38 JUMPI JUMPDEST PUSH1 0x0 DUP1 REVERT JUMPDEST PUSH1 0x3E PUSH1 0x52 JUMP JUMPDEST PUSH1 0x40 MLOAD PUSH1 0x49 SWAP2 SWAP1 PUSH1 0x83 JUMP JUMPDEST PUSH1 0x40 MLOAD DUP1 SWAP2 SUB SWAP1 RETURN JUMPDEST PUSH32 0x397E04204C1E1A60EE8724B71F8244E10AB5F2E9009854D80F602BDA21B59EBB DUP2 JUMP JUMPDEST PUSH1 0x7D DUP2 PUSH1 0x9C JUMP JUMPDEST DUP3 MSTORE POP POP JUMP JUMPDEST PUSH1 0x0 PUSH1 0x20 DUP3 ADD SWAP1 POP PUSH1 0x96 PUSH1 0x0 DUP4 ADD DUP5 PUSH1 0x76 JUMP JUMPDEST SWAP3 SWAP2 POP POP JUMP JUMPDEST PUSH1 0x0 DUP2 SWAP1 POP SWAP2 SWAP1 POP JUMP INVALID LOG2 PUSH5 0x6970667358 0x22 SLT KECCAK256 0xBA DUP2 0xE6 MOD PUSH18 0x46E6E99461C4C724C650DEDB4A0F1C7A1328 DUP14 0xD6 EXP 0xE4 0xDB SWAP1 0xB1 TIMESTAMP 0xF6 PUSH5 0x736F6C6343 STOP SMOD MOD STOP CALLER "
				},
				"gasEstimates": {
					"creation": {
						"codeDepositCost": "44000",
						"executionCost": "121",
						"totalCost": "44121"
					},
					"external": {
						"TYPE_HASH()": "291"
					},
					"internal": {
						"hash(struct LibPart.Part memory)": "infinite"
					}
				},
				"methodIdentifiers": {
					"TYPE_HASH()": "64d4c819"
				}
			},
			"storageLayout": {
				"storage": [],
				"types": null
			},
			"userdoc": {
				"kind": "user",
				"methods": {},
				"version": 1
			}
		}
	}
}