{
	"contracts/LibERC1155LazyMint.sol": {
		"LibERC1155LazyMint": {
			"abi": [
				{
					"inputs": [],
					"name": "ERC1155_LAZY_ASSET_CLASS",
					"outputs": [
						{
							"internalType": "bytes4",
							"name": "",
							"type": "bytes4"
						}
					],
					"stateMutability": "view",
					"type": "function"
				},
				{
					"inputs": [],
					"name": "MINT_AND_TRANSFER_TYPEHASH",
					"outputs": [
						{
							"internalType": "bytes32",
							"name": "",
							"type": "bytes32"
						}
					],
					"stateMutability": "view",
					"type": "function"
				}
			],
			"devdoc": {
				"kind": "dev",
				"methods": {},
				"version": 1
			},
			"evm": {
				"assembly": "    /* \"contracts/LibERC1155LazyMint.sol\":165:1695  library LibERC1155LazyMint {... */\n  dataSize(sub_0)\n  dataOffset(sub_0)\n  0x0b\n  dup3\n  dup3\n  dup3\n  codecopy\n  dup1\n  mload\n  0x00\n  byte\n  0x73\n  eq\n  tag_1\n  jumpi\n  invalid\ntag_1:\n  mstore(0x00, address)\n  0x73\n  dup2\n  mstore8\n  dup3\n  dup2\n  return\nstop\n\nsub_0: assembly {\n        /* \"contracts/LibERC1155LazyMint.sol\":165:1695  library LibERC1155LazyMint {... */\n      eq(address, deployTimeAddress())\n      mstore(0x40, 0x80)\n      jumpi(tag_1, lt(calldatasize, 0x04))\n      shr(0xe0, calldataload(0x00))\n      dup1\n      0x7987105f\n      eq\n      tag_2\n      jumpi\n      dup1\n      0x90c20c43\n      eq\n      tag_3\n      jumpi\n    tag_1:\n      0x00\n      dup1\n      revert\n        /* \"contracts/LibERC1155LazyMint.sol\":564:783  bytes32 public constant MINT_AND_TRANSFER_TYPEHASH =... */\n    tag_2:\n      tag_4\n      tag_5\n      jump\t// in\n    tag_4:\n      mload(0x40)\n      tag_6\n      swap2\n      swap1\n      tag_7\n      jump\t// in\n    tag_6:\n      mload(0x40)\n      dup1\n      swap2\n      sub\n      swap1\n      return\n        /* \"contracts/LibERC1155LazyMint.sol\":198:289  bytes4 public constant ERC1155_LAZY_ASSET_CLASS =... */\n    tag_3:\n      tag_8\n      tag_9\n      jump\t// in\n    tag_8:\n      mload(0x40)\n      tag_10\n      swap2\n      swap1\n      tag_11\n      jump\t// in\n    tag_10:\n      mload(0x40)\n      dup1\n      swap2\n      sub\n      swap1\n      return\n        /* \"contracts/LibERC1155LazyMint.sol\":564:783  bytes32 public constant MINT_AND_TRANSFER_TYPEHASH =... */\n    tag_5:\n        /* \"contracts/LibERC1155LazyMint.sol\":625:783  keccak256(... */\n      0xfb988707ebb338694f318760b0fd5cfe756d00a2ade251fda110b80c336a3c7f\n        /* \"contracts/LibERC1155LazyMint.sol\":564:783  bytes32 public constant MINT_AND_TRANSFER_TYPEHASH =... */\n      dup2\n      jump\t// out\n        /* \"contracts/LibERC1155LazyMint.sol\":198:289  bytes4 public constant ERC1155_LAZY_ASSET_CLASS =... */\n    tag_9:\n        /* \"contracts/LibERC1155LazyMint.sol\":263:288  keccak256(\"ERC1155_LAZY\") */\n      0x1cdfaa400bc064c91b5cc20e571cfcc92103980be96e01fb36dda1962d8d78cb\n        /* \"contracts/LibERC1155LazyMint.sol\":198:289  bytes4 public constant ERC1155_LAZY_ASSET_CLASS =... */\n      dup2\n      jump\t// out\n        /* \"#utility.yul\":7:133   */\n    tag_13:\n        /* \"#utility.yul\":102:126   */\n      tag_15\n        /* \"#utility.yul\":120:125   */\n      dup2\n        /* \"#utility.yul\":102:126   */\n      tag_16\n      jump\t// in\n    tag_15:\n        /* \"#utility.yul\":97:100   */\n      dup3\n        /* \"#utility.yul\":90:127   */\n      mstore\n        /* \"#utility.yul\":80:133   */\n      pop\n      pop\n      jump\t// out\n        /* \"#utility.yul\":139:262   */\n    tag_17:\n        /* \"#utility.yul\":232:255   */\n      tag_19\n        /* \"#utility.yul\":249:254   */\n      dup2\n        /* \"#utility.yul\":232:255   */\n      tag_20\n      jump\t// in\n    tag_19:\n        /* \"#utility.yul\":227:230   */\n      dup3\n        /* \"#utility.yul\":220:256   */\n      mstore\n        /* \"#utility.yul\":210:262   */\n      pop\n      pop\n      jump\t// out\n        /* \"#utility.yul\":268:506   */\n    tag_7:\n      0x00\n        /* \"#utility.yul\":407:409   */\n      0x20\n        /* \"#utility.yul\":396:405   */\n      dup3\n        /* \"#utility.yul\":392:410   */\n      add\n        /* \"#utility.yul\":384:410   */\n      swap1\n      pop\n        /* \"#utility.yul\":420:499   */\n      tag_22\n        /* \"#utility.yul\":496:497   */\n      0x00\n        /* \"#utility.yul\":485:494   */\n      dup4\n        /* \"#utility.yul\":481:498   */\n      add\n        /* \"#utility.yul\":472:478   */\n      dup5\n        /* \"#utility.yul\":420:499   */\n      tag_13\n      jump\t// in\n    tag_22:\n        /* \"#utility.yul\":374:506   */\n      swap3\n      swap2\n      pop\n      pop\n      jump\t// out\n        /* \"#utility.yul\":512:746   */\n    tag_11:\n      0x00\n        /* \"#utility.yul\":649:651   */\n      0x20\n        /* \"#utility.yul\":638:647   */\n      dup3\n        /* \"#utility.yul\":634:652   */\n      add\n        /* \"#utility.yul\":626:652   */\n      swap1\n      pop\n        /* \"#utility.yul\":662:739   */\n      tag_24\n        /* \"#utility.yul\":736:737   */\n      0x00\n        /* \"#utility.yul\":725:734   */\n      dup4\n        /* \"#utility.yul\":721:738   */\n      add\n        /* \"#utility.yul\":712:718   */\n      dup5\n        /* \"#utility.yul\":662:739   */\n      tag_17\n      jump\t// in\n    tag_24:\n        /* \"#utility.yul\":616:746   */\n      swap3\n      swap2\n      pop\n      pop\n      jump\t// out\n        /* \"#utility.yul\":752:829   */\n    tag_16:\n      0x00\n        /* \"#utility.yul\":818:823   */\n      dup2\n        /* \"#utility.yul\":807:823   */\n      swap1\n      pop\n        /* \"#utility.yul\":797:829   */\n      swap2\n      swap1\n      pop\n      jump\t// out\n        /* \"#utility.yul\":835:984   */\n    tag_20:\n      0x00\n        /* \"#utility.yul\":911:977   */\n      0xffffffff00000000000000000000000000000000000000000000000000000000\n        /* \"#utility.yul\":904:909   */\n      dup3\n        /* \"#utility.yul\":900:978   */\n      and\n        /* \"#utility.yul\":889:978   */\n      swap1\n      pop\n        /* \"#utility.yul\":879:984   */\n      swap2\n      swap1\n      pop\n      jump\t// out\n\n    auxdata: 0xa264697066735822122076d346fb31b1a108a25fd9bce1d176541a9ce2c1f64169b4386e9a3b28d8fa9064736f6c63430007060033\n}\n",
				"bytecode": {
					"linkReferences": {},
					"object": "610189610026600b82828239805160001a60731461001957fe5b30600052607381538281f3fe73000000000000000000000000000000000000000030146080604052600436106100405760003560e01c80637987105f1461004557806390c20c4314610063575b600080fd5b61004d610081565b60405161005a91906100e7565b60405180910390f35b61006b6100a5565b6040516100789190610102565b60405180910390f35b7ffb988707ebb338694f318760b0fd5cfe756d00a2ade251fda110b80c336a3c7f81565b7f1cdfaa400bc064c91b5cc20e571cfcc92103980be96e01fb36dda1962d8d78cb81565b6100d28161011d565b82525050565b6100e181610127565b82525050565b60006020820190506100fc60008301846100c9565b92915050565b600060208201905061011760008301846100d8565b92915050565b6000819050919050565b60007fffffffff000000000000000000000000000000000000000000000000000000008216905091905056fea264697066735822122076d346fb31b1a108a25fd9bce1d176541a9ce2c1f64169b4386e9a3b28d8fa9064736f6c63430007060033",
					"opcodes": "PUSH2 0x189 PUSH2 0x26 PUSH1 0xB DUP3 DUP3 DUP3 CODECOPY DUP1 MLOAD PUSH1 0x0 BYTE PUSH1 0x73 EQ PUSH2 0x19 JUMPI INVALID JUMPDEST ADDRESS PUSH1 0x0 MSTORE PUSH1 0x73 DUP2 MSTORE8 DUP3 DUP2 RETURN INVALID PUSH20 0x0 ADDRESS EQ PUSH1 0x80 PUSH1 0x40 MSTORE PUSH1 0x4 CALLDATASIZE LT PUSH2 0x40 JUMPI PUSH1 0x0 CALLDATALOAD PUSH1 0xE0 SHR DUP1 PUSH4 0x7987105F EQ PUSH2 0x45 JUMPI DUP1 PUSH4 0x90C20C43 EQ PUSH2 0x63 JUMPI JUMPDEST PUSH1 0x0 DUP1 REVERT JUMPDEST PUSH2 0x4D PUSH2 0x81 JUMP JUMPDEST PUSH1 0x40 MLOAD PUSH2 0x5A SWAP2 SWAP1 PUSH2 0xE7 JUMP JUMPDEST PUSH1 0x40 MLOAD DUP1 SWAP2 SUB SWAP1 RETURN JUMPDEST PUSH2 0x6B PUSH2 0xA5 JUMP JUMPDEST PUSH1 0x40 MLOAD PUSH2 0x78 SWAP2 SWAP1 PUSH2 0x102 JUMP JUMPDEST PUSH1 0x40 MLOAD DUP1 SWAP2 SUB SWAP1 RETURN JUMPDEST PUSH32 0xFB988707EBB338694F318760B0FD5CFE756D00A2ADE251FDA110B80C336A3C7F DUP2 JUMP JUMPDEST PUSH32 0x1CDFAA400BC064C91B5CC20E571CFCC92103980BE96E01FB36DDA1962D8D78CB DUP2 JUMP JUMPDEST PUSH2 0xD2 DUP2 PUSH2 0x11D JUMP JUMPDEST DUP3 MSTORE POP POP JUMP JUMPDEST PUSH2 0xE1 DUP2 PUSH2 0x127 JUMP JUMPDEST DUP3 MSTORE POP POP JUMP JUMPDEST PUSH1 0x0 PUSH1 0x20 DUP3 ADD SWAP1 POP PUSH2 0xFC PUSH1 0x0 DUP4 ADD DUP5 PUSH2 0xC9 JUMP JUMPDEST SWAP3 SWAP2 POP POP JUMP JUMPDEST PUSH1 0x0 PUSH1 0x20 DUP3 ADD SWAP1 POP PUSH2 0x117 PUSH1 0x0 DUP4 ADD DUP5 PUSH2 0xD8 JUMP JUMPDEST SWAP3 SWAP2 POP POP JUMP JUMPDEST PUSH1 0x0 DUP2 SWAP1 POP SWAP2 SWAP1 POP JUMP JUMPDEST PUSH1 0x0 PUSH32 0xFFFFFFFF00000000000000000000000000000000000000000000000000000000 DUP3 AND SWAP1 POP SWAP2 SWAP1 POP JUMP INVALID LOG2 PUSH5 0x6970667358 0x22 SLT KECCAK256 PUSH23 0xD346FB31B1A108A25FD9BCE1D176541A9CE2C1F64169B4 CODESIZE PUSH15 0x9A3B28D8FA9064736F6C6343000706 STOP CALLER "
				},
				"gasEstimates": {
					"creation": {
						"codeDepositCost": "78600",
						"executionCost": "154",
						"totalCost": "78754"
					},
					"external": {
						"ERC1155_LAZY_ASSET_CLASS()": "319",
						"MINT_AND_TRANSFER_TYPEHASH()": "291"
					},
					"internal": {
						"hash(struct LibERC1155LazyMint.Mint1155Data memory)": "infinite"
					}
				},
				"methodIdentifiers": {
					"ERC1155_LAZY_ASSET_CLASS()": "90c20c43",
					"MINT_AND_TRANSFER_TYPEHASH()": "7987105f"
				}
			},
			"storageLayout": {
				"storage": [],
				"types": null
			},
			"userdoc": {
				"kind": "user",
				"methods": {},
				"version": 1
			}
		}
	}
}