{
  "_format": "hh-sol-artifact-1",
  "contractName": "LibERC1155LazyMint",
  "sourceName": "contracts/library/LibERC1155LazyMint.sol",
  "abi": [
    {
      "inputs": [],
      "name": "ERC1155_LAZY_ASSET_CLASS",
      "outputs": [
        {
          "internalType": "bytes4",
          "name": "",
          "type": "bytes4"
        }
      ],
      "stateMutability": "view",
      "type": "function"
    },
    {
      "inputs": [],
      "name": "MINT_AND_TRANSFER_TYPEHASH",
      "outputs": [
        {
          "internalType": "bytes32",
          "name": "",
          "type": "bytes32"
        }
      ],
      "stateMutability": "view",
      "type": "function"
    }
  ],
  "bytecode": "0x610109610026600b82828239805160001a60731461001957fe5b30600052607381538281f3fe7300000000000000000000000000000000000000003014608060405260043610603d5760003560e01c80637987105f14604257806390c20c4314605c575b600080fd5b6048606d565b6040516053919060b5565b60405180910390f35b60626091565b6040516053919060be565b7ffb988707ebb338694f318760b0fd5cfe756d00a2ade251fda110b80c336a3c7f81565b7f1cdfaa400bc064c91b5cc20e571cfcc92103980be96e01fb36dda1962d8d78cb81565b90815260200190565b6001600160e01b03199190911681526020019056fea26469706673582212207e2b7ffdea3e174031fd089267f970eb1d2b991738aadb4fdf0dee31c70d69c064736f6c63430007060033",
  "linkReferences": {},
  "deployedLinkReferences": {}
}