{
	"data": {
		"bytecode": {
			"linkReferences": {},
			"object": "610189610026600b82828239805160001a60731461001957fe5b30600052607381538281f3fe73000000000000000000000000000000000000000030146080604052600436106100405760003560e01c80637987105f1461004557806394d5e89d14610063575b600080fd5b61004d610081565b60405161005a91906100e7565b60405180910390f35b61006b6100a5565b6040516100789190610102565b60405180910390f35b7ff64326045af5fd7e15297ba939f85b550474d3899daa47d2bc1ffbdb9ced344e81565b7fd8f960c1450658267efb07308b4050c9e705cea25a53b560236c88cb149696be81565b6100d28161011d565b82525050565b6100e181610127565b82525050565b60006020820190506100fc60008301846100c9565b92915050565b600060208201905061011760008301846100d8565b92915050565b6000819050919050565b60007fffffffff000000000000000000000000000000000000000000000000000000008216905091905056fea2646970667358221220a569c3a493319fdcb0306fdec40cb0d2e2bc1694973ccff5d78368d8f627c2de64736f6c63430007060033",
			"opcodes": "PUSH2 0x189 PUSH2 0x26 PUSH1 0xB DUP3 DUP3 DUP3 CODECOPY DUP1 MLOAD PUSH1 0x0 BYTE PUSH1 0x73 EQ PUSH2 0x19 JUMPI INVALID JUMPDEST ADDRESS PUSH1 0x0 MSTORE PUSH1 0x73 DUP2 MSTORE8 DUP3 DUP2 RETURN INVALID PUSH20 0x0 ADDRESS EQ PUSH1 0x80 PUSH1 0x40 MSTORE PUSH1 0x4 CALLDATASIZE LT PUSH2 0x40 JUMPI PUSH1 0x0 CALLDATALOAD PUSH1 0xE0 SHR DUP1 PUSH4 0x7987105F EQ PUSH2 0x45 JUMPI DUP1 PUSH4 0x94D5E89D EQ PUSH2 0x63 JUMPI JUMPDEST PUSH1 0x0 DUP1 REVERT JUMPDEST PUSH2 0x4D PUSH2 0x81 JUMP JUMPDEST PUSH1 0x40 MLOAD PUSH2 0x5A SWAP2 SWAP1 PUSH2 0xE7 JUMP JUMPDEST PUSH1 0x40 MLOAD DUP1 SWAP2 SUB SWAP1 RETURN JUMPDEST PUSH2 0x6B PUSH2 0xA5 JUMP JUMPDEST PUSH1 0x40 MLOAD PUSH2 0x78 SWAP2 SWAP1 PUSH2 0x102 JUMP JUMPDEST PUSH1 0x40 MLOAD DUP1 SWAP2 SUB SWAP1 RETURN JUMPDEST PUSH32 0xF64326045AF5FD7E15297BA939F85B550474D3899DAA47D2BC1FFBDB9CED344E DUP2 JUMP JUMPDEST PUSH32 0xD8F960C1450658267EFB07308B4050C9E705CEA25A53B560236C88CB149696BE DUP2 JUMP JUMPDEST PUSH2 0xD2 DUP2 PUSH2 0x11D JUMP JUMPDEST DUP3 MSTORE POP POP JUMP JUMPDEST PUSH2 0xE1 DUP2 PUSH2 0x127 JUMP JUMPDEST DUP3 MSTORE POP POP JUMP JUMPDEST PUSH1 0x0 PUSH1 0x20 DUP3 ADD SWAP1 POP PUSH2 0xFC PUSH1 0x0 DUP4 ADD DUP5 PUSH2 0xC9 JUMP JUMPDEST SWAP3 SWAP2 POP POP JUMP JUMPDEST PUSH1 0x0 PUSH1 0x20 DUP3 ADD SWAP1 POP PUSH2 0x117 PUSH1 0x0 DUP4 ADD DUP5 PUSH2 0xD8 JUMP JUMPDEST SWAP3 SWAP2 POP POP JUMP JUMPDEST PUSH1 0x0 DUP2 SWAP1 POP SWAP2 SWAP1 POP JUMP JUMPDEST PUSH1 0x0 PUSH32 0xFFFFFFFF00000000000000000000000000000000000000000000000000000000 DUP3 AND SWAP1 POP SWAP2 SWAP1 POP JUMP INVALID LOG2 PUSH5 0x6970667358 0x22 SLT KECCAK256 0xA5 PUSH10 0xC3A493319FDCB0306FDE 0xC4 0xC 0xB0 0xD2 0xE2 0xBC AND SWAP5 SWAP8 EXTCODECOPY 0xCF CREATE2 0xD7 DUP4 PUSH9 0xD8F627C2DE64736F6C PUSH4 0x43000706 STOP CALLER "
		},
		"gasEstimates": {
			"creation": {
				"codeDepositCost": "78600",
				"executionCost": "154",
				"totalCost": "78754"
			},
			"external": {
				"ERC721_LAZY_ASSET_CLASS()": "319",
				"MINT_AND_TRANSFER_TYPEHASH()": "291"
			},
			"internal": {
				"hash(struct LibERC721LazyMint.Mint721Data memory)": "infinite"
			}
		},
		"methodIdentifiers": {
			"ERC721_LAZY_ASSET_CLASS()": "94d5e89d",
			"MINT_AND_TRANSFER_TYPEHASH()": "7987105f"
		}
	},
	"abi": [
		{
			"inputs": [],
			"name": "ERC721_LAZY_ASSET_CLASS",
			"outputs": [
				{
					"internalType": "bytes4",
					"name": "",
					"type": "bytes4"
				}
			],
			"stateMutability": "view",
			"type": "function"
		},
		{
			"inputs": [],
			"name": "MINT_AND_TRANSFER_TYPEHASH",
			"outputs": [
				{
					"internalType": "bytes32",
					"name": "",
					"type": "bytes32"
				}
			],
			"stateMutability": "view",
			"type": "function"
		}
	]
}