{
	"data": {
		"bytecode": {
			"linkReferences": {},
			"object": "60c1610025600b82828239805160001a60731461001857fe5b30600052607381538281f3fe730000000000000000000000000000000000000000301460806040526004361060335760003560e01c80633ee569bf146038575b600080fd5b603e6052565b604051604991906076565b60405180910390f35b7f4c23426613a5dc69e08fbd2787e6210aa679d4522e95a89d4dd88c4fd13a228381565b6001600160e01b03199190911681526020019056fea26469706673582212206896a785ec51d84184f9a5a150f94d5a3290b10becbfc8a0830eec26c6fab26e64736f6c63430007060033",
			"opcodes": "PUSH1 0xC1 PUSH2 0x25 PUSH1 0xB DUP3 DUP3 DUP3 CODECOPY DUP1 MLOAD PUSH1 0x0 BYTE PUSH1 0x73 EQ PUSH2 0x18 JUMPI INVALID JUMPDEST ADDRESS PUSH1 0x0 MSTORE PUSH1 0x73 DUP2 MSTORE8 DUP3 DUP2 RETURN INVALID PUSH20 0x0 ADDRESS EQ PUSH1 0x80 PUSH1 0x40 MSTORE PUSH1 0x4 CALLDATASIZE LT PUSH1 0x33 JUMPI PUSH1 0x0 CALLDATALOAD PUSH1 0xE0 SHR DUP1 PUSH4 0x3EE569BF EQ PUSH1 0x38 JUMPI JUMPDEST PUSH1 0x0 DUP1 REVERT JUMPDEST PUSH1 0x3E PUSH1 0x52 JUMP JUMPDEST PUSH1 0x40 MLOAD PUSH1 0x49 SWAP2 SWAP1 PUSH1 0x76 JUMP JUMPDEST PUSH1 0x40 MLOAD DUP1 SWAP2 SUB SWAP1 RETURN JUMPDEST PUSH32 0x4C23426613A5DC69E08FBD2787E6210AA679D4522E95A89D4DD88C4FD13A2283 DUP2 JUMP JUMPDEST PUSH1 0x1 PUSH1 0x1 PUSH1 0xE0 SHL SUB NOT SWAP2 SWAP1 SWAP2 AND DUP2 MSTORE PUSH1 0x20 ADD SWAP1 JUMP INVALID LOG2 PUSH5 0x6970667358 0x22 SLT KECCAK256 PUSH9 0x96A785EC51D84184F9 0xA5 LOG1 POP 0xF9 0x4D GAS ORIGIN SWAP1 0xB1 SIGNEXTEND 0xEC 0xBF 0xC8 LOG0 DUP4 0xE 0xEC 0x26 0xC6 STATICCALL 0xB2 PUSH15 0x64736F6C6343000706003300000000 "
		},
		"gasEstimates": {
			"creation": {
				"codeDepositCost": "38600",
				"executionCost": "118",
				"totalCost": "38718"
			},
			"external": {
				"V1()": "217"
			}
		},
		"methodIdentifiers": {
			"V1()": "3ee569bf"
		}
	},
	"abi": [
		{
			"inputs": [],
			"name": "V1",
			"outputs": [
				{
					"internalType": "bytes4",
					"name": "",
					"type": "bytes4"
				}
			],
			"stateMutability": "view",
			"type": "function"
		}
	]
}