{
  "_format": "hh-sol-artifact-1",
  "contractName": "LibERC721LazyMint",
  "sourceName": "contracts/library/LibERC721LazyMint.sol",
  "abi": [
    {
      "inputs": [],
      "name": "ERC721_LAZY_ASSET_CLASS",
      "outputs": [
        {
          "internalType": "bytes4",
          "name": "",
          "type": "bytes4"
        }
      ],
      "stateMutability": "view",
      "type": "function"
    },
    {
      "inputs": [],
      "name": "MINT_AND_TRANSFER_TYPEHASH",
      "outputs": [
        {
          "internalType": "bytes32",
          "name": "",
          "type": "bytes32"
        }
      ],
      "stateMutability": "view",
      "type": "function"
    }
  ],
  "bytecode": "0x610109610026600b82828239805160001a60731461001957fe5b30600052607381538281f3fe7300000000000000000000000000000000000000003014608060405260043610603d5760003560e01c80637987105f14604257806394d5e89d14605c575b600080fd5b6048606d565b6040516053919060b5565b60405180910390f35b60626091565b6040516053919060be565b7ff64326045af5fd7e15297ba939f85b550474d3899daa47d2bc1ffbdb9ced344e81565b7fd8f960c1450658267efb07308b4050c9e705cea25a53b560236c88cb149696be81565b90815260200190565b6001600160e01b03199190911681526020019056fea2646970667358221220aedebc8d5dd9e0f8ac6ba82922f951da5a57aaf49f5c68b1c6de8dc9ec90050a64736f6c63430007060033",
  "linkReferences": {},
  "deployedLinkReferences": {}
}